{"abi":[{"type":"constructor","inputs":[{"name":"_tangleCore","type":"address","internalType":"address"}],"stateMutability":"nonpayable"},{"type":"function","name":"DEFAULT_HEARTBEAT_INTERVAL","inputs":[],"outputs":[{"name":"","type":"uint64","internalType":"uint64"}],"stateMutability":"view"},{"type":"function","name":"DEFAULT_MAX_MISSED_HEARTBEATS","inputs":[],"outputs":[{"name":"","type":"uint8","internalType":"uint8"}],"stateMutability":"view"},{"type":"function","name":"DOMAIN_SEPARATOR","inputs":[],"outputs":[{"name":"","type":"bytes32","internalType":"bytes32"}],"stateMutability":"view"},{"type":"function","name":"HEARTBEAT_TYPEHASH","inputs":[],"outputs":[{"name":"","type":"bytes32","internalType":"bytes32"}],"stateMutability":"view"},{"type":"function","name":"SLASH_ALERT_COOLDOWN","inputs":[],"outputs":[{"name":"","type":"uint64","internalType":"uint64"}],"stateMutability":"view"},{"type":"function","name":"addMetricDefinition","inputs":[{"name":"serviceId","type":"uint64","internalType":"uint64"},{"name":"name","type":"string","internalType":"string"},{"name":"minValue","type":"uint256","internalType":"uint256"},{"name":"maxValue","type":"uint256","internalType":"uint256"},{"name":"required","type":"bool","internalType":"bool"}],"outputs":[],"stateMutability":"nonpayable"},{"type":"function","name":"checkOperatorStatus","inputs":[{"name":"serviceId","type":"uint64","internalType":"uint64"},{"name":"operator","type":"address","internalType":"address"}],"outputs":[],"stateMutability":"nonpayable"},{"type":"function","name":"checkOperatorsStatus","inputs":[{"name":"serviceId","type":"uint64","internalType":"uint64"},{"name":"operators","type":"address[]","internalType":"address[]"}],"outputs":[],"stateMutability":"nonpayable"},{"type":"function","name":"configureHeartbeat","inputs":[{"name":"serviceId","type":"uint64","internalType":"uint64"},{"name":"interval","type":"uint64","internalType":"uint64"},{"name":"maxMissed","type":"uint8","internalType":"uint8"}],"outputs":[],"stateMutability":"nonpayable"},{"type":"function","name":"enableCustomMetrics","inputs":[{"name":"serviceId","type":"uint64","internalType":"uint64"},{"name":"enabled","type":"bool","internalType":"bool"}],"outputs":[],"stateMutability":"nonpayable"},{"type":"function","name":"getHeartbeatConfig","inputs":[{"name":"serviceId","type":"uint64","internalType":"uint64"}],"outputs":[{"name":"","type":"tuple","internalType":"struct OperatorStatusRegistry.HeartbeatConfig","components":[{"name":"interval","type":"uint64","internalType":"uint64"},{"name":"maxMissed","type":"uint8","internalType":"uint8"},{"name":"customMetrics","type":"bool","internalType":"bool"}]}],"stateMutability":"view"},{"type":"function","name":"getLastCriticalHeartbeat","inputs":[{"name":"serviceId","type":"uint64","internalType":"uint64"},{"name":"operator","type":"address","internalType":"address"}],"outputs":[{"name":"","type":"uint64","internalType":"uint64"}],"stateMutability":"view"},{"type":"function","name":"getLastHeartbeat","inputs":[{"name":"serviceId","type":"uint64","internalType":"uint64"},{"name":"operator","type":"address","internalType":"address"}],"outputs":[{"name":"","type":"uint256","internalType":"uint256"}],"stateMutability":"view"},{"type":"function","name":"getMetricDefinitions","inputs":[{"name":"serviceId","type":"uint64","internalType":"uint64"}],"outputs":[{"name":"","type":"tuple[]","internalType":"struct OperatorStatusRegistry.MetricDefinition[]","components":[{"name":"name","type":"string","internalType":"string"},{"name":"minValue","type":"uint256","internalType":"uint256"},{"name":"maxValue","type":"uint256","internalType":"uint256"},{"name":"required","type":"bool","internalType":"bool"}]}],"stateMutability":"view"},{"type":"function","name":"getMetricValue","inputs":[{"name":"serviceId","type":"uint64","internalType":"uint64"},{"name":"operator","type":"address","internalType":"address"},{"name":"metricName","type":"string","internalType":"string"}],"outputs":[{"name":"","type":"uint256","internalType":"uint256"}],"stateMutability":"view"},{"type":"function","name":"getOnlineOperatorCount","inputs":[{"name":"serviceId","type":"uint64","internalType":"uint64"}],"outputs":[{"name":"","type":"uint256","internalType":"uint256"}],"stateMutability":"view"},{"type":"function","name":"getOnlineOperators","inputs":[{"name":"serviceId","type":"uint64","internalType":"uint64"}],"outputs":[{"name":"","type":"address[]","internalType":"address[]"}],"stateMutability":"view"},{"type":"function","name":"getOperatorState","inputs":[{"name":"serviceId","type":"uint64","internalType":"uint64"},{"name":"operator","type":"address","internalType":"address"}],"outputs":[{"name":"","type":"tuple","internalType":"struct OperatorStatusRegistry.OperatorState","components":[{"name":"lastHeartbeat","type":"uint256","internalType":"uint256"},{"name":"consecutiveBeats","type":"uint64","internalType":"uint64"},{"name":"missedBeats","type":"uint8","internalType":"uint8"},{"name":"status","type":"uint8","internalType":"enum IOperatorStatusRegistry.StatusCode"},{"name":"lastMetricsHash","type":"bytes32","internalType":"bytes32"}]}],"stateMutability":"view"},{"type":"function","name":"getOperatorStatus","inputs":[{"name":"serviceId","type":"uint64","internalType":"uint64"},{"name":"operator","type":"address","internalType":"address"}],"outputs":[{"name":"","type":"uint8","internalType":"enum IOperatorStatusRegistry.StatusCode"}],"stateMutability":"view"},{"type":"function","name":"getSlashableOperators","inputs":[{"name":"serviceId","type":"uint64","internalType":"uint64"}],"outputs":[{"name":"operators","type":"address[]","internalType":"address[]"}],"stateMutability":"view"},{"type":"function","name":"goOffline","inputs":[{"name":"serviceId","type":"uint64","internalType":"uint64"}],"outputs":[],"stateMutability":"nonpayable"},{"type":"function","name":"goOnline","inputs":[{"name":"serviceId","type":"uint64","internalType":"uint64"}],"outputs":[],"stateMutability":"nonpayable"},{"type":"function","name":"heartbeatConfigs","inputs":[{"name":"","type":"uint64","internalType":"uint64"}],"outputs":[{"name":"interval","type":"uint64","internalType":"uint64"},{"name":"maxMissed","type":"uint8","internalType":"uint8"},{"name":"customMetrics","type":"bool","internalType":"bool"}],"stateMutability":"view"},{"type":"function","name":"isHeartbeatCurrent","inputs":[{"name":"serviceId","type":"uint64","internalType":"uint64"},{"name":"operator","type":"address","internalType":"address"}],"outputs":[{"name":"","type":"bool","internalType":"bool"}],"stateMutability":"view"},{"type":"function","name":"isOnline","inputs":[{"name":"serviceId","type":"uint64","internalType":"uint64"},{"name":"operator","type":"address","internalType":"address"}],"outputs":[{"name":"","type":"bool","internalType":"bool"}],"stateMutability":"view"},{"type":"function","name":"metricValues","inputs":[{"name":"","type":"uint64","internalType":"uint64"},{"name":"","type":"address","internalType":"address"},{"name":"","type":"string","internalType":"string"}],"outputs":[{"name":"","type":"uint256","internalType":"uint256"}],"stateMutability":"view"},{"type":"function","name":"metricsRecorder","inputs":[],"outputs":[{"name":"","type":"address","internalType":"address"}],"stateMutability":"view"},{"type":"function","name":"operatorStates","inputs":[{"name":"","type":"uint64","internalType":"uint64"},{"name":"","type":"address","internalType":"address"}],"outputs":[{"name":"lastHeartbeat","type":"uint256","internalType":"uint256"},{"name":"consecutiveBeats","type":"uint64","internalType":"uint64"},{"name":"missedBeats","type":"uint8","internalType":"uint8"},{"name":"status","type":"uint8","internalType":"enum IOperatorStatusRegistry.StatusCode"},{"name":"lastMetricsHash","type":"bytes32","internalType":"bytes32"}],"stateMutability":"view"},{"type":"function","name":"registerServiceOwner","inputs":[{"name":"serviceId","type":"uint64","internalType":"uint64"},{"name":"owner","type":"address","internalType":"address"}],"outputs":[],"stateMutability":"nonpayable"},{"type":"function","name":"reportForSlashing","inputs":[{"name":"serviceId","type":"uint64","internalType":"uint64"},{"name":"operator","type":"address","internalType":"address"},{"name":"reason","type":"string","internalType":"string"}],"outputs":[],"stateMutability":"nonpayable"},{"type":"function","name":"serviceMetrics","inputs":[{"name":"","type":"uint64","internalType":"uint64"},{"name":"","type":"uint256","internalType":"uint256"}],"outputs":[{"name":"name","type":"string","internalType":"string"},{"name":"minValue","type":"uint256","internalType":"uint256"},{"name":"maxValue","type":"uint256","internalType":"uint256"},{"name":"required","type":"bool","internalType":"bool"}],"stateMutability":"view"},{"type":"function","name":"serviceOwners","inputs":[{"name":"","type":"uint64","internalType":"uint64"}],"outputs":[{"name":"","type":"address","internalType":"address"}],"stateMutability":"view"},{"type":"function","name":"setMetricsRecorder","inputs":[{"name":"recorder","type":"address","internalType":"address"}],"outputs":[],"stateMutability":"nonpayable"},{"type":"function","name":"setSlashingOracle","inputs":[{"name":"oracle","type":"address","internalType":"address"}],"outputs":[],"stateMutability":"nonpayable"},{"type":"function","name":"slashingOracle","inputs":[],"outputs":[{"name":"","type":"address","internalType":"address"}],"stateMutability":"view"},{"type":"function","name":"submitHeartbeat","inputs":[{"name":"serviceId","type":"uint64","internalType":"uint64"},{"name":"blueprintId","type":"uint64","internalType":"uint64"},{"name":"statusCode","type":"uint8","internalType":"uint8"},{"name":"metrics","type":"bytes","internalType":"bytes"},{"name":"signature","type":"bytes","internalType":"bytes"}],"outputs":[],"stateMutability":"nonpayable"},{"type":"function","name":"submitHeartbeatDirect","inputs":[{"name":"serviceId","type":"uint64","internalType":"uint64"},{"name":"blueprintId","type":"uint64","internalType":"uint64"},{"name":"statusCode","type":"uint8","internalType":"uint8"},{"name":"metrics","type":"bytes","internalType":"bytes"}],"outputs":[],"stateMutability":"nonpayable"},{"type":"function","name":"tangleCore","inputs":[],"outputs":[{"name":"","type":"address","internalType":"address"}],"stateMutability":"view"},{"type":"event","name":"HeartbeatConfigUpdated","inputs":[{"name":"serviceId","type":"uint64","indexed":true,"internalType":"uint64"},{"name":"interval","type":"uint64","indexed":false,"internalType":"uint64"},{"name":"maxMissed","type":"uint8","indexed":false,"internalType":"uint8"}],"anonymous":false},{"type":"event","name":"HeartbeatReceived","inputs":[{"name":"serviceId","type":"uint64","indexed":true,"internalType":"uint64"},{"name":"blueprintId","type":"uint64","indexed":true,"internalType":"uint64"},{"name":"operator","type":"address","indexed":true,"internalType":"address"},{"name":"statusCode","type":"uint8","indexed":false,"internalType":"uint8"},{"name":"timestamp","type":"uint256","indexed":false,"internalType":"uint256"}],"anonymous":false},{"type":"event","name":"MetricReported","inputs":[{"name":"serviceId","type":"uint64","indexed":true,"internalType":"uint64"},{"name":"operator","type":"address","indexed":true,"internalType":"address"},{"name":"metricName","type":"string","indexed":false,"internalType":"string"},{"name":"value","type":"uint256","indexed":false,"internalType":"uint256"}],"anonymous":false},{"type":"event","name":"OperatorCameOnline","inputs":[{"name":"serviceId","type":"uint64","indexed":true,"internalType":"uint64"},{"name":"operator","type":"address","indexed":true,"internalType":"address"}],"anonymous":false},{"type":"event","name":"OperatorWentOffline","inputs":[{"name":"serviceId","type":"uint64","indexed":true,"internalType":"uint64"},{"name":"operator","type":"address","indexed":true,"internalType":"address"},{"name":"missedBeats","type":"uint8","indexed":false,"internalType":"uint8"}],"anonymous":false},{"type":"event","name":"SlashingTriggered","inputs":[{"name":"serviceId","type":"uint64","indexed":true,"internalType":"uint64"},{"name":"operator","type":"address","indexed":true,"internalType":"address"},{"name":"reason","type":"string","indexed":false,"internalType":"string"}],"anonymous":false},{"type":"event","name":"StatusChanged","inputs":[{"name":"serviceId","type":"uint64","indexed":true,"internalType":"uint64"},{"name":"operator","type":"address","indexed":true,"internalType":"address"},{"name":"oldStatus","type":"uint8","indexed":false,"internalType":"enum IOperatorStatusRegistry.StatusCode"},{"name":"newStatus","type":"uint8","indexed":false,"internalType":"enum IOperatorStatusRegistry.StatusCode"}],"anonymous":false},{"type":"error","name":"ECDSAInvalidSignature","inputs":[]},{"type":"error","name":"ECDSAInvalidSignatureLength","inputs":[{"name":"length","type":"uint256","internalType":"uint256"}]},{"type":"error","name":"ECDSAInvalidSignatureS","inputs":[{"name":"s","type":"bytes32","internalType":"bytes32"}]}],"bytecode":{"object":"0x60c0806040523461010457602081612778803803809161001f8285610108565b83398101031261010457516001600160a01b03811681036101045760a05260405160208101907f8b73c3c69bb8fe3d512ecc4cf759cc79239f7b179b0ffacaa9a75d522b39400f82527f36ffc258c865193ae10c3cf640450ab772fdb8da1dfcae7862ad1205a5567f4c60408201527fc89efdaa54c0f20c7adf612882df0950f5a951637e0307cdcb4c672f298b8bc660608201524660808201523060a082015260a081526100cf60c082610108565b5190206080526040516126389081610140823960805181611559015260a05181818161079301528181611274015261175b0152f35b5f80fd5b601f909101601f19168101906001600160401b0382119082101761012b57604052565b634e487b7160e01b5f52604160045260245ffdfe6080806040526004361015610012575f80fd5b5f3560e01c9081630577855014611737575080630758236f146116e15780630c76697a1461168e578063208129561461165057806322f1ec93146115c05780632c957688146115a45780632dae18851461157c5780633644e515146115425780633ac3cbe6146115265780633e6e34a71461149357806340235a9c146113c75780635685cf681461131757806356c4e17d146112d757806359dcea12146112a35780635a936dc61461125f5780635cce98a61461120757806361d6b86c146111ec57806362c7e8fc1461118957806371e7388c1461108b5780637639d2271461102f5780637b9f64b214610ff757806384ef732214610fb957806396686c1e14610ed15780639cbdae2214610e46578063adff830c14610d0b578063ae470a8514610ae2578063b074e9dd146109c1578063b99f675914610766578063ba1fb1031461073c578063c1ef9ddf14610600578063c5d960bb146104fa578063cfe34749146104d2578063d413a58014610357578063d551162c14610304578063da435a7c146102ab578063ee1c039014610275578063f9107f3b146101fc5763f9f16762146101be575f80fd5b346101f8575f3660031901126101f85760206040517fe1675f8364c07a4d60a07503f0d700a7bcacd82251dff0f070e5235de6c6d28a8152f35b5f80fd5b346101f85760403660031901126101f857610215611849565b60243580151581036101f8576001600160401b036102739216805f52600360205261024d60018060a01b0360405f2054163314611c06565b5f525f60205260405f209060ff60481b825491151560481b169060ff60481b1916179055565b005b346101f85760403660031901126101f85760206102a1610293611849565b61029b611875565b90611de0565b6040519015158152f35b346101f85760203660031901126101f8576001600160401b036102cc611849565b165f525f602052606060405f205460ff604051916001600160401b0381168352818160401c16602084015260481c1615156040820152f35b346101f85760206001600160401b038161031d36611b17565b949092165f526005835260405f209060018060a01b03165f52825260405f2083604051948593843782019081520301902054604051908152f35b346101f85760a03660031901126101f857610370611849565b61037861185f565b90610381611a77565b906064356001600160401b0381116101f8576103a1903690600401611a87565b9290916084356001600160401b0381116101f85761047461046e6103cc61047d933690600401611a87565b919060405160208101906001600160401b0360c01b8860c01b1682526001600160401b0360c01b8c60c01b1660288201528a8a60308301376104216030828d81015f838201520301601f198101835282611943565b51902060405160208101917f19457468657265756d205369676e6564204d6573736167653a0a3332000000008352603c820152603c8152610463605c82611943565b519020923691611ab4565b906124ef565b90929192612529565b336001600160a01b039091160361049957610273943391611efb565b60405162461bcd60e51b8152602060048201526011602482015270496e76616c6964207369676e617475726560781b6044820152606490fd5b346101f8575f3660031901126101f8576006546040516001600160a01b039091168152602090f35b346101f85760203660031901126101f8576001600160401b0361051b611849565b165f81815260016020818152604080842033855290915290912001805460481c60ff16919060058310156105ec57600383146105a757690400000000000000000060ff60481b19825416179055805f52600260205261057d3360405f206123c0565b5061058b6040518093611a28565b600460208301525f8051602061260c83398151915260403393a3005b60405162461bcd60e51b815260206004820152601f60248201527f43616e6e6f7420676f206f66666c696e65207768696c6520736c6173686564006044820152606490fd5b634e487b7160e01b5f52602160045260245ffd5b346101f85760203660031901126101f8576001600160401b03610621611849565b165f52600460205260405f2080549061063982611b8b565b916106476040519384611943565b8083526020830180925f5260205f205f915b8383106106ef57848660405191829160208301906020845251809152604083019060408160051b85010192915f905b82821061069757505050500390f35b919360019193955060208091603f198982030185528751906060806106c58451608085526080850190611a04565b93858101518685015260408101516040850152015115159101529601920192018594939192610688565b600460206001926040516107028161190d565b61070b86611964565b815284860154838201526002860154604082015260ff60038701541615156060820152815201920192019190610659565b346101f85760403660031901126101f857610273610758611849565b610760611875565b90611c67565b346101f85760603660031901126101f85761077f611849565b61078761185f565b61078f611a77565b90337f00000000000000000000000000000000000000000000000000000000000000006001600160a01b031614801561099b575b8015610973575b1561093d576001600160401b031690603c82106109035760ff1691600183106108be577fc9599ed962624a858ec59bae0ed86c75f4db65fe04570021277edbedd04ea564916001600160401b036040921693845f525f6020526108b160ff845f205460481c1684519061083c82611928565b84825261089660ff6020840186815288850193151584528a5f525f6020526001600160401b03808a5f20965116166001600160401b03198654161785555116839060ff60401b82549160401b169060ff60401b1916179055565b51815460ff60481b191690151560481b60ff60481b16179055565b82519182526020820152a2005b60405162461bcd60e51b815260206004820152601760248201527f4d6178206d6973736564206d757374206265203e3d20310000000000000000006044820152606490fd5b60405162461bcd60e51b8152602060048201526012602482015271125b9d195c9d985b081d1bdbc81cda1bdc9d60721b6044820152606490fd5b60405162461bcd60e51b815260206004820152600e60248201526d139bdd08185d5d1a1bdc9a5e995960921b6044820152606490fd5b506001600160401b0383165f908152600360205260409020546001600160a01b0316156107ca565b506001600160401b0383165f52600360205260018060a01b0360405f20541633146107c3565b346101f85760203660031901126101f8576001600160401b036109e2611849565b165f81815260016020818152604080842033855290915290912001805460481c60ff16919060058310156105ec5760038314610a9d57805469ffff0000000000000000191669010000000000000000001790555f818152600260205260409020610a4d90339061249b565b50610a81604051809333847fc9862c5f02eefbdcea01c207ae538e1d304dc93026870f48951e48a0f4c8470c5f80a3611a28565b600160208301525f8051602061260c83398151915260403393a3005b60405162461bcd60e51b815260206004820152601e60248201527f43616e6e6f7420676f206f6e6c696e65207768696c6520736c617368656400006044820152606490fd5b346101f85760a03660031901126101f857610afb611849565b6024356001600160401b0381116101f857610b1a903690600401611a87565b90916084358015159291908390036101f8576001600160401b0316805f526003602052610b5460018060a01b0360405f2054163314611c06565b5f526004602052610b7760405f209360405192610b708461190d565b3691611ab4565b81526020810192604435845260408201906064358252606083019384528054600160401b811015610ce457610bb1916001820181556118a1565b929092610cf85751938451946001600160401b038611610ce457610bd584546118ba565b601f8111610c9f575b50602090601f8711600114610c3a57958091600396975f92610c2f575b50508160011b915f1990871b1c19161783555b516001830155516002820155019051151560ff801983541691161790555f80f35b015190508780610bfb565b90601f19871691855f52815f20925f5b818110610c8757509160019391896003999a9410610c70575b505050811b018355610c0e565b01515f1983891b60f8161c19169055878080610c63565b92936020600181928786015181550195019301610c4a565b845f5260205f20601f880160051c81019160208910610cda575b601f0160051c01905b818110610ccf5750610bde565b5f8155600101610cc2565b9091508190610cb9565b634e487b7160e01b5f52604160045260245ffd5b634e487b7160e01b5f525f60045260245ffd5b346101f857610d1936611b17565b600654929391926001600160a01b03163303610e0b5760406001600160401b037f1e2909cf45d70cf003f334b73c93330ce7e572782dfc82fab79deb8855a7c791931693845f526001602052815f2060018060a01b0387165f526020526001825f2001690300000000000000000060ff60481b19825416179055845f526002602052610db1825f209660018060a01b031680976123c0565b50845f526008602052815f20865f52602052815f206001600160401b03804216166001600160401b031982541617905582825193849260208452816020850152848401375f828201840152601f01601f19168101030190a3005b60405162461bcd60e51b81526020600482015260136024820152724e6f7420736c617368696e67206f7261636c6560681b6044820152606490fd5b346101f85760603660031901126101f857610e5f611849565b610e67611875565b6044356001600160401b0381116101f85760209283926001600160401b03610e9485943690600401611af9565b92165f526005835260405f209060018060a01b03165f52825260405f20604051938285935191829101845e82019081520301902054604051908152f35b346101f85760403660031901126101f857610eea611849565b602435906001600160401b0382116101f857366023830112156101f8578160040135916001600160401b0383116101f8573660248460051b830101116101f85782906001600160401b035f9316925b82811015610273576024600582901b830101356001600160a01b03811691908290036101f857303b156101f8576040519163ba1fb10360e01b835285600484015260248301525f8260448183305af1918215610fae57600192610f9e575b5001610f39565b5f610fa891611943565b85610f97565b6040513d5f823e3d90fd5b346101f85760203660031901126101f8576001600160a01b03610fda61188b565b166bffffffffffffffffffffffff60a01b60065416176006555f80f35b346101f85760203660031901126101f8576001600160401b03611018611849565b165f526002602052602060405f2054604051908152f35b346101f85760403660031901126101f857611048611849565b6001600160401b03611058611875565b91165f52600860205260405f209060018060a01b03165f5260205260206001600160401b0360405f205416604051908152f35b346101f85760403660031901126101f8576110a4611849565b6001600160401b036110b4611875565b915f60806040516110c4816118f2565b8281528260208201528260408201528260608201520152165f52600160205260405f209060018060a01b03165f5260205260405f20604051611105816118f2565b8154815260018201549160208201906001600160401b038416825260ff6040840194818160401c16865260481c16606084019060058110156105ec5760a0956001600160401b0360026111819560ff94865201549560808801968752604051975188525116602087015251166040850152516060840190611a28565b516080820152f35b346101f85760403660031901126101f8576111a2611849565b6001600160401b036111b2611875565b91165f52600160205260405f209060018060a01b03165f52602052602060ff600160405f20015460481c166111ea6040518092611a28565bf35b346101f8575f3660031901126101f857602060405160038152f35b346101f85760803660031901126101f857611220611849565b61122861185f565b90611231611a77565b91606435926001600160401b0384116101f857611255610273943690600401611a87565b9390923391611efb565b346101f8575f3660031901126101f8576040517f00000000000000000000000000000000000000000000000000000000000000006001600160a01b03168152602090f35b346101f85760203660031901126101f8576112d36112c76112c2611849565b611ba2565b60405191829182611a35565b0390f35b346101f85760203660031901126101f8576001600160401b036112f8611849565b165f526003602052602060018060a01b0360405f205416604051908152f35b346101f85760403660031901126101f857611330611849565b6001600160401b03611340611875565b9116805f52600160205260405f2060018060a01b0383165f5260205260ff600160405f20015460481c1660058110156105ec5715908115611389575b6020826040519015158152f35b90505f52600160205260405f209060018060a01b03165f5260205260ff600160405f20015460481c1660058110156105ec576001602091148261137c565b346101f85760203660031901126101f8576001600160401b036113e8611849565b16805f52600260205260405f20546113ff81611b8b565b9161140d6040519384611943565b818352601f1961141c83611b8b565b013660208501375f5b82811061143a57604051806112d38682611a35565b815f52600260205261144f8160405f20612298565b9054855160039290921b1c6001600160a01b0316919081101561147f5760019160208260051b8701015201611425565b634e487b7160e01b5f52603260045260245ffd5b346101f85760403660031901126101f8576114ac611849565b6001600160401b036114bc611875565b91165f52600160205260405f209060018060a01b03165f5260205260a060405f2080549061151f60026001830154920154916040519384526001600160401b038116602085015260ff8160401c16604085015260ff606085019160481c16611a28565b6080820152f35b346101f8575f3660031901126101f8576020604051610e108152f35b346101f8575f3660031901126101f85760206040517f00000000000000000000000000000000000000000000000000000000000000008152f35b346101f8575f3660031901126101f8576007546040516001600160a01b039091168152602090f35b346101f8575f3660031901126101f857602060405161012c8152f35b346101f85760403660031901126101f8576115d9611849565b6001600160401b0360243591165f52600460205260405f2080548210156101f85761163a91611607916118a1565b5061161181611964565b9060018101549060ff600360028301549201541690604051948594608086526080860190611a04565b9260208501526040840152151560608301520390f35b346101f85760203660031901126101f8576001600160a01b0361167161188b565b166bffffffffffffffffffffffff60a01b60075416176007555f80f35b346101f85760403660031901126101f8576116a7611849565b6001600160401b036116b7611875565b91165f52600160205260405f209060018060a01b03165f52602052602060405f2054604051908152f35b346101f85760203660031901126101f857606061170d6116ff611849565b611707611b6d565b50611e86565b60408051916001600160401b03815116835260ff6020820151166020840152015115156040820152f35b346101f85760403660031901126101f857611750611849565b611758611875565b917f00000000000000000000000000000000000000000000000000000000000000006001600160a01b0316330361181457506001600160401b03165f818152600360205260409020546001600160a01b03166117da575f90815260036020526040902080546001600160a01b0319166001600160a01b03909216919091179055005b60405162461bcd60e51b8152602060048201526012602482015271105b1c9958591e481c9959da5cdd195c995960721b6044820152606490fd5b62461bcd60e51b815260206004820152601060248201526f4f6e6c792054616e676c6520636f726560801b6044820152606490fd5b600435906001600160401b03821682036101f857565b602435906001600160401b03821682036101f857565b602435906001600160a01b03821682036101f857565b600435906001600160a01b03821682036101f857565b805482101561147f575f5260205f209060021b01905f90565b90600182811c921680156118e8575b60208310146118d457565b634e487b7160e01b5f52602260045260245ffd5b91607f16916118c9565b60a081019081106001600160401b03821117610ce457604052565b608081019081106001600160401b03821117610ce457604052565b606081019081106001600160401b03821117610ce457604052565b90601f801991011681019081106001600160401b03821117610ce457604052565b9060405191825f825492611977846118ba565b80845293600181169081156119e2575060011461199e575b5061199c92500383611943565b565b90505f9291925260205f20905f915b8183106119c657505090602061199c928201015f61198f565b60209193508060019154838589010152019101909184926119ad565b90506020925061199c94915060ff191682840152151560051b8201015f61198f565b805180835260209291819084018484015e5f828201840152601f01601f1916010190565b9060058210156105ec5752565b60206040818301928281528451809452019201905f5b818110611a585750505090565b82516001600160a01b0316845260209384019390920191600101611a4b565b6044359060ff821682036101f857565b9181601f840112156101f8578235916001600160401b0383116101f857602083818601950101116101f857565b9291926001600160401b038211610ce45760405191611add601f8201601f191660200184611943565b8294818452818301116101f8578281602093845f960137010152565b9080601f830112156101f857816020611b1493359101611ab4565b90565b60606003198201126101f8576004356001600160401b03811681036101f857916024356001600160a01b03811681036101f85791604435906001600160401b0382116101f857611b6991600401611a87565b9091565b60405190611b7a82611928565b5f6040838281528260208201520152565b6001600160401b038111610ce45760051b60200190565b6001600160401b03611bb382611e86565b91165f52600260205260ff602060405f20549201511615908115611bfd575b50611bef57604051611be5602082611943565b5f81525f36813790565b604051611be5602082611943565b9050155f611bd2565b15611c0d57565b60405162461bcd60e51b81526020600482015260116024820152702737ba1039b2b93b34b1b29037bbb732b960791b6044820152606490fd5b91908203918211611c5357565b634e487b7160e01b5f52601160045260245ffd5b906001600160401b03821690815f52600160205260405f2060018060a01b0382165f52602052611c9a60405f2093611e86565b9280548015611cd957611cad9042611c46565b6001600160401b03855116908115611dcc5760019160ff91041691019360ff855460401c168211611ce0575b5050505050565b845468ffffffffffffffffff191660ff60401b604084901b161785556020015160ff1681101580611db1575b611d17575b80611cd9565b835f8051602061260c83398151915292847f44fd32b677704ce68e7763897c49733b8f5289018ac60a5c926802d63759db4d602060409560ff611d8d9a5460481c1695690200000000000000000060ff60481b19825416179055835f5260028252865f209460018060a01b0316998a80966123c0565b508651908152a3611da082518092611a28565b60026020820152a35f808080611d11565b5060ff845460481c1660058110156105ec5760021415611d0c565b634e487b7160e01b5f52601260045260245ffd5b906001600160401b03611df283611e86565b92165f52600160205260405f209060018060a01b03165f5260205260405f2060405190611e1e826118f2565b8054825260ff60018201546001600160401b0381166020850152818160401c16604085015260481c169060058210156105ec57600291606084015201546080820152518015611e8057611e796001600160401b039142611c46565b9151161190565b50505f90565b6001600160401b0390611e97611b6d565b50165f525f60205260405f2060405190611eb082611928565b546001600160401b03811680835260ff8260401c169060ff602085019383855260481c161515604085015215611ef1575b15611eea575090565b6003905290565b61012c8352611ee1565b949192906001600160401b03861695865f52600160205260405f2060018060a01b0386165f5260205260405f2094611f3282611e86565b90600187019460ff865460481c16974281556002611f51368a8d611ab4565b6020815191012091015560ff60401b1986541686556001600160401b03865416906001600160401b038214611c53576001600160401b03600160ff9301166001600160401b0319885416178755169283155f1461216d575f965b600588101596876105ec57805460ff60481b191660488a901b60ff60481b1617905560058910156105ec576001600160401b03998b9460028b148a8161215e575b50918560407f658918e3147f13dd068ec21437b4c25c21682a8dc2129348671ead000db3e7b9979593819795612111575b0151151580612108575b6120f6575b5050835196875250504260208601526001600160a01b03169889951693a46105ec57829184918082036120c1575b50506007546001600160a01b031693915083905061207757505050565b823b156101f85760645f92836040519586948593636a3c29db60e11b8552600485015260248401526001600160401b03421660448401525af16120b75750565b5f61199c91611943565b5f8051602061260c833981519152916120ec6040926120e284518094611a28565b6020830190611a28565ba380825f8061205a565b6120ff936122ad565b5f80808361202c565b50821515612027565b5f8a815260026020528290206001600160a01b0384169061213390829061249b565b508a7fc9862c5f02eefbdcea01c207ae538e1d304dc93026870f48951e48a0f4c8470c5f80a361201d565b5f9a506002141590508a611fec565b606484101561217e57600196611fab565b60019660c88510611fab576001600160401b0342168b5f52600860205260405f2060018060a01b0385165f526020526001600160401b0360405f2054168015908115612271575b506121d1575b50611fab565b8b5f52600860205260405f2060018060a01b0385165f526020526001600160401b0360405f2091166001600160401b031982541617905560405160208152601b60208201527f50726f746f636f6c2076696f6c6174696f6e207265706f72746564000000000060408201528b7f1e2909cf45d70cf003f334b73c93330ce7e572782dfc82fab79deb8855a7c791606060018060a01b03871693a35f6121cb565b905081036001600160401b038111611c53576001600160401b03610e10911610155f6121c5565b805482101561147f575f5260205f2001905f90565b604084106123ba575f925b60408401808511611c53578510611cd9578484116101f85783810184860381016040828203126101f85781356001600160401b0381116101f857602091612300918401611af9565b9101356001600160401b038416805f52600560205260405f2060018060a01b0387165f526020528160405f2060206040518092875180848a01845e820190815203019020557f23ed02bd3605bdea6a8afa76c46f00d274860ba6cea980f2585b696df9e182bd6040516040815261237a6040820186611a04565b60208201949094526001600160a01b0388169381900390a35180604001604011611c5357604090850101809411611c5357848411156122b8575050505050565b50505050565b906001820191815f528260205260405f20548015155f14612493575f198101818111611c535782545f19810191908211611c5357818103612448575b50505080548015612434575f1901906124158282612298565b8154905f199060031b1b19169055555f526020525f6040812055600190565b634e487b7160e01b5f52603160045260245ffd5b61247e6124586124689386612298565b90549060031b1c92839286612298565b819391549060031b91821b915f19901b19161790565b90555f528360205260405f20555f80806123fc565b505050505f90565b6001810190825f528160205260405f2054155f146124e8578054600160401b811015610ce4576124d5612468826001879401855584612298565b905554915f5260205260405f2055600190565b5050505f90565b815191906041830361251f576125189250602082015190606060408401519301515f1a90612589565b9192909190565b50505f9160029190565b60048110156105ec578061253b575050565b600181036125525763f645eedf60e01b5f5260045ffd5b6002810361256d575063fce698f760e01b5f5260045260245ffd5b6003146125775750565b6335e2f38360e21b5f5260045260245ffd5b91907f7fffffffffffffffffffffffffffffff5d576e7357a4501ddfe92f46681b20a08411612600579160209360809260ff5f9560405194855216868401526040830152606082015282805260015afa15610fae575f516001600160a01b038116156125f657905f905f90565b505f906001905f90565b5050505f916003919056fe228824b86c256469125f525ce18c6c2d0a9e133d13b8ec7a2c96a193b0c28a09a164736f6c634300081a000a","linkReferences":{}},"methodIdentifiers":{"DEFAULT_HEARTBEAT_INTERVAL()":"2c957688","DEFAULT_MAX_MISSED_HEARTBEATS()":"61d6b86c","DOMAIN_SEPARATOR()":"3644e515","HEARTBEAT_TYPEHASH()":"f9f16762","SLASH_ALERT_COOLDOWN()":"3ac3cbe6","addMetricDefinition(uint64,string,uint256,uint256,bool)":"ae470a85","checkOperatorStatus(uint64,address)":"ba1fb103","checkOperatorsStatus(uint64,address[])":"96686c1e","configureHeartbeat(uint64,uint64,uint8)":"b99f6759","enableCustomMetrics(uint64,bool)":"f9107f3b","getHeartbeatConfig(uint64)":"0758236f","getLastCriticalHeartbeat(uint64,address)":"7639d227","getLastHeartbeat(uint64,address)":"0c76697a","getMetricDefinitions(uint64)":"c1ef9ddf","getMetricValue(uint64,address,string)":"d551162c","getOnlineOperatorCount(uint64)":"7b9f64b2","getOnlineOperators(uint64)":"40235a9c","getOperatorState(uint64,address)":"71e7388c","getOperatorStatus(uint64,address)":"62c7e8fc","getSlashableOperators(uint64)":"59dcea12","goOffline(uint64)":"c5d960bb","goOnline(uint64)":"b074e9dd","heartbeatConfigs(uint64)":"da435a7c","isHeartbeatCurrent(uint64,address)":"ee1c0390","isOnline(uint64,address)":"5685cf68","metricValues(uint64,address,string)":"9cbdae22","metricsRecorder()":"2dae1885","operatorStates(uint64,address)":"3e6e34a7","registerServiceOwner(uint64,address)":"05778550","reportForSlashing(uint64,address,string)":"adff830c","serviceMetrics(uint64,uint256)":"22f1ec93","serviceOwners(uint64)":"56c4e17d","setMetricsRecorder(address)":"20812956","setSlashingOracle(address)":"84ef7322","slashingOracle()":"cfe34749","submitHeartbeat(uint64,uint64,uint8,bytes,bytes)":"d413a580","submitHeartbeatDirect(uint64,uint64,uint8,bytes)":"5cce98a6","tangleCore()":"5a936dc6"},"id":174}