{"abi":[{"type":"constructor","inputs":[{"name":"_tangleCore","type":"address","internalType":"address"},{"name":"initialOwner","type":"address","internalType":"address"}],"stateMutability":"nonpayable"},{"type":"function","name":"DEFAULT_HEARTBEAT_INTERVAL","inputs":[],"outputs":[{"name":"","type":"uint64","internalType":"uint64"}],"stateMutability":"view"},{"type":"function","name":"DEFAULT_MAX_MISSED_HEARTBEATS","inputs":[],"outputs":[{"name":"","type":"uint8","internalType":"uint8"}],"stateMutability":"view"},{"type":"function","name":"DOMAIN_SEPARATOR","inputs":[],"outputs":[{"name":"","type":"bytes32","internalType":"bytes32"}],"stateMutability":"view"},{"type":"function","name":"HEARTBEAT_TYPEHASH","inputs":[],"outputs":[{"name":"","type":"bytes32","internalType":"bytes32"}],"stateMutability":"view"},{"type":"function","name":"SLASH_ALERT_COOLDOWN","inputs":[],"outputs":[{"name":"","type":"uint64","internalType":"uint64"}],"stateMutability":"view"},{"type":"function","name":"acceptOwnership","inputs":[],"outputs":[],"stateMutability":"nonpayable"},{"type":"function","name":"addMetricDefinition","inputs":[{"name":"serviceId","type":"uint64","internalType":"uint64"},{"name":"name","type":"string","internalType":"string"},{"name":"minValue","type":"uint256","internalType":"uint256"},{"name":"maxValue","type":"uint256","internalType":"uint256"},{"name":"required","type":"bool","internalType":"bool"}],"outputs":[],"stateMutability":"nonpayable"},{"type":"function","name":"checkOperatorStatus","inputs":[{"name":"serviceId","type":"uint64","internalType":"uint64"},{"name":"operator","type":"address","internalType":"address"}],"outputs":[],"stateMutability":"nonpayable"},{"type":"function","name":"checkOperatorsStatus","inputs":[{"name":"serviceId","type":"uint64","internalType":"uint64"},{"name":"operators","type":"address[]","internalType":"address[]"}],"outputs":[],"stateMutability":"nonpayable"},{"type":"function","name":"configureHeartbeat","inputs":[{"name":"serviceId","type":"uint64","internalType":"uint64"},{"name":"interval","type":"uint64","internalType":"uint64"},{"name":"maxMissed","type":"uint8","internalType":"uint8"}],"outputs":[],"stateMutability":"nonpayable"},{"type":"function","name":"decodeMetricPair","inputs":[{"name":"payload","type":"bytes","internalType":"bytes"}],"outputs":[{"name":"pair","type":"tuple","internalType":"struct OperatorStatusRegistry.MetricPair","components":[{"name":"name","type":"string","internalType":"string"},{"name":"value","type":"uint256","internalType":"uint256"}]}],"stateMutability":"pure"},{"type":"function","name":"decodeMetricPairs","inputs":[{"name":"payload","type":"bytes","internalType":"bytes"}],"outputs":[{"name":"pairs","type":"tuple[]","internalType":"struct OperatorStatusRegistry.MetricPair[]","components":[{"name":"name","type":"string","internalType":"string"},{"name":"value","type":"uint256","internalType":"uint256"}]}],"stateMutability":"pure"},{"type":"function","name":"enableCustomMetrics","inputs":[{"name":"serviceId","type":"uint64","internalType":"uint64"},{"name":"enabled","type":"bool","internalType":"bool"}],"outputs":[],"stateMutability":"nonpayable"},{"type":"function","name":"getHeartbeatConfig","inputs":[{"name":"serviceId","type":"uint64","internalType":"uint64"}],"outputs":[{"name":"","type":"tuple","internalType":"struct OperatorStatusRegistry.HeartbeatConfig","components":[{"name":"interval","type":"uint64","internalType":"uint64"},{"name":"maxMissed","type":"uint8","internalType":"uint8"},{"name":"customMetrics","type":"bool","internalType":"bool"}]}],"stateMutability":"view"},{"type":"function","name":"getLastCriticalHeartbeat","inputs":[{"name":"serviceId","type":"uint64","internalType":"uint64"},{"name":"operator","type":"address","internalType":"address"}],"outputs":[{"name":"","type":"uint64","internalType":"uint64"}],"stateMutability":"view"},{"type":"function","name":"getLastHeartbeat","inputs":[{"name":"serviceId","type":"uint64","internalType":"uint64"},{"name":"operator","type":"address","internalType":"address"}],"outputs":[{"name":"","type":"uint256","internalType":"uint256"}],"stateMutability":"view"},{"type":"function","name":"getMetricDefinitions","inputs":[{"name":"serviceId","type":"uint64","internalType":"uint64"}],"outputs":[{"name":"","type":"tuple[]","internalType":"struct OperatorStatusRegistry.MetricDefinition[]","components":[{"name":"name","type":"string","internalType":"string"},{"name":"minValue","type":"uint256","internalType":"uint256"},{"name":"maxValue","type":"uint256","internalType":"uint256"},{"name":"required","type":"bool","internalType":"bool"}]}],"stateMutability":"view"},{"type":"function","name":"getMetricValue","inputs":[{"name":"serviceId","type":"uint64","internalType":"uint64"},{"name":"operator","type":"address","internalType":"address"},{"name":"metricName","type":"string","internalType":"string"}],"outputs":[{"name":"","type":"uint256","internalType":"uint256"}],"stateMutability":"view"},{"type":"function","name":"getOnlineOperatorCount","inputs":[{"name":"serviceId","type":"uint64","internalType":"uint64"}],"outputs":[{"name":"","type":"uint256","internalType":"uint256"}],"stateMutability":"view"},{"type":"function","name":"getOnlineOperators","inputs":[{"name":"serviceId","type":"uint64","internalType":"uint64"}],"outputs":[{"name":"","type":"address[]","internalType":"address[]"}],"stateMutability":"view"},{"type":"function","name":"getOperatorState","inputs":[{"name":"serviceId","type":"uint64","internalType":"uint64"},{"name":"operator","type":"address","internalType":"address"}],"outputs":[{"name":"","type":"tuple","internalType":"struct OperatorStatusRegistry.OperatorState","components":[{"name":"lastHeartbeat","type":"uint256","internalType":"uint256"},{"name":"consecutiveBeats","type":"uint64","internalType":"uint64"},{"name":"missedBeats","type":"uint8","internalType":"uint8"},{"name":"status","type":"uint8","internalType":"enum IOperatorStatusRegistry.StatusCode"},{"name":"lastMetricsHash","type":"bytes32","internalType":"bytes32"}]}],"stateMutability":"view"},{"type":"function","name":"getOperatorStatus","inputs":[{"name":"serviceId","type":"uint64","internalType":"uint64"},{"name":"operator","type":"address","internalType":"address"}],"outputs":[{"name":"","type":"uint8","internalType":"enum IOperatorStatusRegistry.StatusCode"}],"stateMutability":"view"},{"type":"function","name":"getSlashableOperators","inputs":[{"name":"serviceId","type":"uint64","internalType":"uint64"}],"outputs":[{"name":"operators","type":"address[]","internalType":"address[]"}],"stateMutability":"view"},{"type":"function","name":"goOffline","inputs":[{"name":"serviceId","type":"uint64","internalType":"uint64"}],"outputs":[],"stateMutability":"nonpayable"},{"type":"function","name":"goOnline","inputs":[{"name":"serviceId","type":"uint64","internalType":"uint64"}],"outputs":[],"stateMutability":"nonpayable"},{"type":"function","name":"heartbeatConfigs","inputs":[{"name":"","type":"uint64","internalType":"uint64"}],"outputs":[{"name":"interval","type":"uint64","internalType":"uint64"},{"name":"maxMissed","type":"uint8","internalType":"uint8"},{"name":"customMetrics","type":"bool","internalType":"bool"}],"stateMutability":"view"},{"type":"function","name":"isHeartbeatCurrent","inputs":[{"name":"serviceId","type":"uint64","internalType":"uint64"},{"name":"operator","type":"address","internalType":"address"}],"outputs":[{"name":"","type":"bool","internalType":"bool"}],"stateMutability":"view"},{"type":"function","name":"isOnline","inputs":[{"name":"serviceId","type":"uint64","internalType":"uint64"},{"name":"operator","type":"address","internalType":"address"}],"outputs":[{"name":"","type":"bool","internalType":"bool"}],"stateMutability":"view"},{"type":"function","name":"metricValues","inputs":[{"name":"","type":"uint64","internalType":"uint64"},{"name":"","type":"address","internalType":"address"},{"name":"","type":"string","internalType":"string"}],"outputs":[{"name":"","type":"uint256","internalType":"uint256"}],"stateMutability":"view"},{"type":"function","name":"metricsRecorder","inputs":[],"outputs":[{"name":"","type":"address","internalType":"address"}],"stateMutability":"view"},{"type":"function","name":"operatorStates","inputs":[{"name":"","type":"uint64","internalType":"uint64"},{"name":"","type":"address","internalType":"address"}],"outputs":[{"name":"lastHeartbeat","type":"uint256","internalType":"uint256"},{"name":"consecutiveBeats","type":"uint64","internalType":"uint64"},{"name":"missedBeats","type":"uint8","internalType":"uint8"},{"name":"status","type":"uint8","internalType":"enum IOperatorStatusRegistry.StatusCode"},{"name":"lastMetricsHash","type":"bytes32","internalType":"bytes32"}],"stateMutability":"view"},{"type":"function","name":"owner","inputs":[],"outputs":[{"name":"","type":"address","internalType":"address"}],"stateMutability":"view"},{"type":"function","name":"pendingOwner","inputs":[],"outputs":[{"name":"","type":"address","internalType":"address"}],"stateMutability":"view"},{"type":"function","name":"registerServiceOwner","inputs":[{"name":"serviceId","type":"uint64","internalType":"uint64"},{"name":"owner","type":"address","internalType":"address"}],"outputs":[],"stateMutability":"nonpayable"},{"type":"function","name":"renounceOwnership","inputs":[],"outputs":[],"stateMutability":"nonpayable"},{"type":"function","name":"reportForSlashing","inputs":[{"name":"serviceId","type":"uint64","internalType":"uint64"},{"name":"operator","type":"address","internalType":"address"},{"name":"reason","type":"string","internalType":"string"}],"outputs":[],"stateMutability":"nonpayable"},{"type":"function","name":"serviceMetrics","inputs":[{"name":"","type":"uint64","internalType":"uint64"},{"name":"","type":"uint256","internalType":"uint256"}],"outputs":[{"name":"name","type":"string","internalType":"string"},{"name":"minValue","type":"uint256","internalType":"uint256"},{"name":"maxValue","type":"uint256","internalType":"uint256"},{"name":"required","type":"bool","internalType":"bool"}],"stateMutability":"view"},{"type":"function","name":"serviceOwners","inputs":[{"name":"","type":"uint64","internalType":"uint64"}],"outputs":[{"name":"","type":"address","internalType":"address"}],"stateMutability":"view"},{"type":"function","name":"setMetricsRecorder","inputs":[{"name":"recorder","type":"address","internalType":"address"}],"outputs":[],"stateMutability":"nonpayable"},{"type":"function","name":"setSlashingOracle","inputs":[{"name":"oracle","type":"address","internalType":"address"}],"outputs":[],"stateMutability":"nonpayable"},{"type":"function","name":"slashingOracle","inputs":[],"outputs":[{"name":"","type":"address","internalType":"address"}],"stateMutability":"view"},{"type":"function","name":"submitHeartbeat","inputs":[{"name":"serviceId","type":"uint64","internalType":"uint64"},{"name":"blueprintId","type":"uint64","internalType":"uint64"},{"name":"statusCode","type":"uint8","internalType":"uint8"},{"name":"metrics","type":"bytes","internalType":"bytes"},{"name":"signature","type":"bytes","internalType":"bytes"}],"outputs":[],"stateMutability":"nonpayable"},{"type":"function","name":"submitHeartbeatDirect","inputs":[{"name":"serviceId","type":"uint64","internalType":"uint64"},{"name":"blueprintId","type":"uint64","internalType":"uint64"},{"name":"statusCode","type":"uint8","internalType":"uint8"},{"name":"metrics","type":"bytes","internalType":"bytes"}],"outputs":[],"stateMutability":"nonpayable"},{"type":"function","name":"tangleCore","inputs":[],"outputs":[{"name":"","type":"address","internalType":"address"}],"stateMutability":"view"},{"type":"function","name":"transferOwnership","inputs":[{"name":"newOwner","type":"address","internalType":"address"}],"outputs":[],"stateMutability":"nonpayable"},{"type":"event","name":"HeartbeatConfigUpdated","inputs":[{"name":"serviceId","type":"uint64","indexed":true,"internalType":"uint64"},{"name":"interval","type":"uint64","indexed":false,"internalType":"uint64"},{"name":"maxMissed","type":"uint8","indexed":false,"internalType":"uint8"}],"anonymous":false},{"type":"event","name":"HeartbeatReceived","inputs":[{"name":"serviceId","type":"uint64","indexed":true,"internalType":"uint64"},{"name":"blueprintId","type":"uint64","indexed":true,"internalType":"uint64"},{"name":"operator","type":"address","indexed":true,"internalType":"address"},{"name":"statusCode","type":"uint8","indexed":false,"internalType":"uint8"},{"name":"timestamp","type":"uint256","indexed":false,"internalType":"uint256"}],"anonymous":false},{"type":"event","name":"MetricReported","inputs":[{"name":"serviceId","type":"uint64","indexed":true,"internalType":"uint64"},{"name":"operator","type":"address","indexed":true,"internalType":"address"},{"name":"metricName","type":"string","indexed":false,"internalType":"string"},{"name":"value","type":"uint256","indexed":false,"internalType":"uint256"}],"anonymous":false},{"type":"event","name":"OperatorCameOnline","inputs":[{"name":"serviceId","type":"uint64","indexed":true,"internalType":"uint64"},{"name":"operator","type":"address","indexed":true,"internalType":"address"}],"anonymous":false},{"type":"event","name":"OperatorWentOffline","inputs":[{"name":"serviceId","type":"uint64","indexed":true,"internalType":"uint64"},{"name":"operator","type":"address","indexed":true,"internalType":"address"},{"name":"missedBeats","type":"uint8","indexed":false,"internalType":"uint8"}],"anonymous":false},{"type":"event","name":"OwnershipTransferStarted","inputs":[{"name":"previousOwner","type":"address","indexed":true,"internalType":"address"},{"name":"newOwner","type":"address","indexed":true,"internalType":"address"}],"anonymous":false},{"type":"event","name":"OwnershipTransferred","inputs":[{"name":"previousOwner","type":"address","indexed":true,"internalType":"address"},{"name":"newOwner","type":"address","indexed":true,"internalType":"address"}],"anonymous":false},{"type":"event","name":"SlashingTriggered","inputs":[{"name":"serviceId","type":"uint64","indexed":true,"internalType":"uint64"},{"name":"operator","type":"address","indexed":true,"internalType":"address"},{"name":"reason","type":"string","indexed":false,"internalType":"string"}],"anonymous":false},{"type":"event","name":"StatusChanged","inputs":[{"name":"serviceId","type":"uint64","indexed":true,"internalType":"uint64"},{"name":"operator","type":"address","indexed":true,"internalType":"address"},{"name":"oldStatus","type":"uint8","indexed":false,"internalType":"enum IOperatorStatusRegistry.StatusCode"},{"name":"newStatus","type":"uint8","indexed":false,"internalType":"enum IOperatorStatusRegistry.StatusCode"}],"anonymous":false},{"type":"error","name":"ECDSAInvalidSignature","inputs":[]},{"type":"error","name":"ECDSAInvalidSignatureLength","inputs":[{"name":"length","type":"uint256","internalType":"uint256"}]},{"type":"error","name":"ECDSAInvalidSignatureS","inputs":[{"name":"s","type":"bytes32","internalType":"bytes32"}]},{"type":"error","name":"OwnableInvalidOwner","inputs":[{"name":"owner","type":"address","internalType":"address"}]},{"type":"error","name":"OwnableUnauthorizedAccount","inputs":[{"name":"account","type":"address","internalType":"address"}]}],"bytecode":{"object":"0x60c0806040523461017a57604081612ea9803803809161001f828561017e565b83398101031261017a57610032816101b5565b906001600160a01b0390610048906020016101b5565b1690811561016757600180546001600160a01b03199081169091555f80549182168417815560405193916001600160a01b0316907f8be0079c531659141344cd1fd0a4f28419497f9722a3daafe3b4186f6b6457e09080a360a05260208101907f8b73c3c69bb8fe3d512ecc4cf759cc79239f7b179b0ffacaa9a75d522b39400f82527f36ffc258c865193ae10c3cf640450ab772fdb8da1dfcae7862ad1205a5567f4c60408201527fc89efdaa54c0f20c7adf612882df0950f5a951637e0307cdcb4c672f298b8bc660608201524660808201523060a082015260a0815261013260c08261017e565b519020608052604051612cdf90816101ca8239608051816117b1015260a05181818161087d015281816114f20152611b220152f35b631e4fbdf760e01b5f525f60045260245ffd5b5f80fd5b601f909101601f19168101906001600160401b038211908210176101a157604052565b634e487b7160e01b5f52604160045260245ffd5b51906001600160a01b038216820361017a5756fe6080806040526004361015610012575f80fd5b5f3560e01c9081630577855014611afe575080630758236f14611aa85780630c76697a14611a555780632081295614611a1257806322f1ec93146119825780632c957688146119665780632dae18851461193e57806331e3bd1b146117d45780633644e5151461179a5780633ac3cbe61461177e5780633e6e34a7146116eb57806340235a9c146116415780635685cf681461159157806356c4e17d1461155157806359dcea12146115215780635a936dc6146114dd5780635cce98a61461148557806361d6b86c1461146a57806362c7e8fc14611407578063715018a6146113a457806371e7388c146112a65780637639d2271461124a57806379ba5097146111c55780637b9f64b21461118d57806384ef73221461114a5780638da5cb5b1461112357806392f1317a1461109957806396686c1e14610fb15780639cbdae2214610f26578063adff830c14610df8578063ae470a8514610bcf578063b074e9dd14610aad578063b99f675914610850578063ba1fb10314610826578063c1ef9ddf146106ea578063c5d960bb146105e3578063cfe34749146105bb578063d413a58014610440578063d551162c146103ed578063da435a7c14610393578063e30c39781461036b578063ee1c039014610335578063f2fde38b146102c3578063f9107f3b146102495763f9f167621461020b575f80fd5b34610245575f3660031901126102455760206040517fe1675f8364c07a4d60a07503f0d700a7bcacd82251dff0f070e5235de6c6d28a8152f35b5f80fd5b3461024557604036600319011261024557610262611c10565b6024358015158103610245576001600160401b036102c19216805f52600560205261029a60018060a01b0360405f2054163314612082565b5f52600260205260405f209060ff60481b825491151560481b169060ff60481b1916179055565b005b34610245576020366003190112610245576102dc611c52565b6102e4612378565b60018060a01b0316806bffffffffffffffffffffffff60a01b600154161760015560018060a01b035f54167f38d16b8cac22d99fc7c124b9cd0de2d3fa1faef420bfe791d8c362d765e227005f80a3005b34610245576040366003190112610245576020610361610353611c10565b61035b611c3c565b9061225c565b6040519015158152f35b34610245575f366003190112610245576001546040516001600160a01b039091168152602090f35b34610245576020366003190112610245576001600160401b036103b4611c10565b165f526002602052606060405f205460ff604051916001600160401b0381168352818160401c16602084015260481c1615156040820152f35b346102455760206001600160401b038161040636611f39565b949092165f526007835260405f209060018060a01b03165f52825260405f2083604051948593843782019081520301902054604051908152f35b346102455760a036600319011261024557610459611c10565b610461611c26565b9061046a611eba565b906064356001600160401b0381116102455761048a903690600401611e1e565b9290916084356001600160401b0381116102455761055d6105576104b5610566933690600401611e1e565b919060405160208101906001600160401b0360c01b8860c01b1682526001600160401b0360c01b8c60c01b1660288201528a8a603083013761050a6030828d81015f838201520301601f198101835282611d39565b51902060405160208101917f19457468657265756d205369676e6564204d6573736167653a0a3332000000008352603c820152603c815261054c605c82611d39565b519020923691611ee5565b90612b96565b90929192612bd0565b336001600160a01b0390911603610582576102c194339161238b565b60405162461bcd60e51b8152602060048201526011602482015270496e76616c6964207369676e617475726560781b6044820152606490fd5b34610245575f366003190112610245576008546040516001600160a01b039091168152602090f35b34610245576020366003190112610245576001600160401b03610604611c10565b165f8181526003602090815260408083203384529091529020600101805460481c60ff16919060058310156106d6576003831461069157690400000000000000000060ff60481b19825416179055805f5260046020526106673360405f20612a67565b506106756040518093611e6b565b600460208301525f80516020612cb383398151915260403393a3005b60405162461bcd60e51b815260206004820152601f60248201527f43616e6e6f7420676f206f66666c696e65207768696c6520736c6173686564006044820152606490fd5b634e487b7160e01b5f52602160045260245ffd5b34610245576020366003190112610245576001600160401b0361070b611c10565b165f52600660205260405f2080549061072382611fad565b916107316040519384611d39565b8083526020830180925f5260205f205f915b8383106107d957848660405191829160208301906020845251809152604083019060408160051b85010192915f905b82821061078157505050500390f35b919360019193955060208091603f198982030185528751906060806107af8451608085526080850190611dfa565b93858101518685015260408101516040850152015115159101529601920192018594939192610772565b600460206001926040516107ec81611d03565b6107f586611d5a565b815284860154838201526002860154604082015260ff60038701541615156060820152815201920192019190610743565b34610245576040366003190112610245576102c1610842611c10565b61084a611c3c565b906120e3565b3461024557606036600319011261024557610869611c10565b610871611c26565b610879611eba565b90337f00000000000000000000000000000000000000000000000000000000000000006001600160a01b0316148015610a87575b8015610a5f575b15610a29576001600160401b031690603c82106109ef5760ff1691600183106109aa577fc9599ed962624a858ec59bae0ed86c75f4db65fe04570021277edbedd04ea564916001600160401b036040921693845f52600260205261099d60ff845f205460481c1684519061092782611d1e565b84825261098260ff6020840186815288850193151584528a5f5260026020526001600160401b03808a5f20965116166001600160401b03198654161785555116839060ff60401b82549160401b169060ff60401b1916179055565b51815460ff60481b191690151560481b60ff60481b16179055565b82519182526020820152a2005b60405162461bcd60e51b815260206004820152601760248201527f4d6178206d6973736564206d757374206265203e3d20310000000000000000006044820152606490fd5b60405162461bcd60e51b8152602060048201526012602482015271125b9d195c9d985b081d1bdbc81cda1bdc9d60721b6044820152606490fd5b60405162461bcd60e51b815260206004820152600e60248201526d139bdd08185d5d1a1bdc9a5e995960921b6044820152606490fd5b506001600160401b0383165f908152600560205260409020546001600160a01b0316156108b4565b506001600160401b0383165f52600560205260018060a01b0360405f20541633146108ad565b34610245576020366003190112610245576001600160401b03610ace611c10565b165f8181526003602090815260408083203384529091529020600101805460481c60ff16919060058310156106d65760038314610b8a57805469ffff0000000000000000191669010000000000000000001790555f818152600460205260409020610b3a903390612b42565b50610b6e604051809333847fc9862c5f02eefbdcea01c207ae538e1d304dc93026870f48951e48a0f4c8470c5f80a3611e6b565b600160208301525f80516020612cb383398151915260403393a3005b60405162461bcd60e51b815260206004820152601e60248201527f43616e6e6f7420676f206f6e6c696e65207768696c6520736c617368656400006044820152606490fd5b346102455760a036600319011261024557610be8611c10565b6024356001600160401b03811161024557610c07903690600401611e1e565b9091608435801515929190839003610245576001600160401b0316805f526005602052610c4160018060a01b0360405f2054163314612082565b5f526006602052610c6460405f209360405192610c5d84611d03565b3691611ee5565b81526020810192604435845260408201906064358252606083019384528054600160401b811015610dd157610c9e91600182018155611c68565b929092610de55751938451946001600160401b038611610dd157610cc28454611c95565b601f8111610d8c575b50602090601f8711600114610d2757958091600396975f92610d1c575b50508160011b915f1990871b1c19161783555b516001830155516002820155019051151560ff801983541691161790555f80f35b015190508780610ce8565b90601f19871691855f52815f20925f5b818110610d7457509160019391896003999a9410610d5d575b505050811b018355610cfb565b01515f1983891b60f8161c19169055878080610d50565b92936020600181928786015181550195019301610d37565b845f5260205f20601f880160051c81019160208910610dc7575b601f0160051c01905b818110610dbc5750610ccb565b5f8155600101610daf565b9091508190610da6565b634e487b7160e01b5f52604160045260245ffd5b634e487b7160e01b5f525f60045260245ffd5b3461024557610e0636611f39565b91929060018060a01b03600854163303610eeb576001600160401b037f1e2909cf45d70cf003f334b73c93330ce7e572782dfc82fab79deb8855a7c791921692835f52600360205260405f2060018060a01b0386165f52602052600160405f2001690300000000000000000060ff60481b19825416179055835f526004602052610e9d60405f209560018060a01b03168096612a67565b50835f52600a60205260405f20855f5260205260405f206001600160401b03804216166001600160401b0319825416179055610ee6604051928392602084526020840191612062565b0390a3005b60405162461bcd60e51b81526020600482015260136024820152724e6f7420736c617368696e67206f7261636c6560681b6044820152606490fd5b3461024557606036600319011261024557610f3f611c10565b610f47611c3c565b6044356001600160401b0381116102455760209283926001600160401b03610f7485943690600401611f1b565b92165f526007835260405f209060018060a01b03165f52825260405f20604051938285935191829101845e82019081520301902054604051908152f35b3461024557604036600319011261024557610fca611c10565b602435906001600160401b0382116102455736602383011215610245578160040135916001600160401b038311610245573660248460051b830101116102455782906001600160401b035f9316925b828110156102c1576024600582901b830101356001600160a01b038116919082900361024557303b15610245576040519163ba1fb10360e01b835285600484015260248301525f8260448183305af191821561108e5760019261107e575b5001611019565b5f61108891611d39565b85611077565b6040513d5f823e3d90fd5b34610245576020366003190112610245576004356001600160401b038111610245576110c9903690600401611e1e565b6110d1612049565b90820191604081840312610245578035926001600160401b0384116102455761110160209161111f958401611f1b565b91013560208301528152604051918291602083526020830190611e4b565b0390f35b34610245575f366003190112610245575f546040516001600160a01b039091168152602090f35b3461024557602036600319011261024557611163611c52565b61116b612378565b600880546001600160a01b0319166001600160a01b0392909216919091179055005b34610245576020366003190112610245576001600160401b036111ae611c10565b165f526004602052602060405f2054604051908152f35b34610245575f36600319011261024557600154336001600160a01b039091160361123757600180546001600160a01b03199081169091555f805433928116831782556001600160a01b0316907f8be0079c531659141344cd1fd0a4f28419497f9722a3daafe3b4186f6b6457e09080a3005b63118cdaa760e01b5f523360045260245ffd5b3461024557604036600319011261024557611263611c10565b6001600160401b03611273611c3c565b91165f52600a60205260405f209060018060a01b03165f5260205260206001600160401b0360405f205416604051908152f35b34610245576040366003190112610245576112bf611c10565b6001600160401b036112cf611c3c565b915f60806040516112df81611ce8565b8281528260208201528260408201528260608201520152165f52600360205260405f209060018060a01b03165f5260205260405f2060405161132081611ce8565b8154815260018201549160208201906001600160401b038416825260ff6040840194818160401c16865260481c16606084019060058110156106d65760a0956001600160401b03600261139c9560ff94865201549560808801968752604051975188525116602087015251166040850152516060840190611e6b565b516080820152f35b34610245575f366003190112610245576113bc612378565b600180546001600160a01b03199081169091555f80549182168155906001600160a01b03167f8be0079c531659141344cd1fd0a4f28419497f9722a3daafe3b4186f6b6457e08280a3005b3461024557604036600319011261024557611420611c10565b6001600160401b03611430611c3c565b91165f52600360205260405f209060018060a01b03165f52602052602060ff600160405f20015460481c166114686040518092611e6b565bf35b34610245575f36600319011261024557602060405160038152f35b346102455760803660031901126102455761149e611c10565b6114a6611c26565b906114af611eba565b91606435926001600160401b038411610245576114d36102c1943690600401611e1e565b939092339161238b565b34610245575f366003190112610245576040517f00000000000000000000000000000000000000000000000000000000000000006001600160a01b03168152602090f35b346102455760203660031901126102455761111f611545611540611c10565b611fe5565b60405191829182611e78565b34610245576020366003190112610245576001600160401b03611572611c10565b165f526005602052602060018060a01b0360405f205416604051908152f35b34610245576040366003190112610245576115aa611c10565b6001600160401b036115ba611c3c565b9116805f52600360205260405f2060018060a01b0383165f5260205260ff600160405f20015460481c1660058110156106d65715908115611603575b6020826040519015158152f35b90505f52600360205260405f209060018060a01b03165f5260205260ff600160405f20015460481c1660058110156106d657600160209114826115f6565b34610245576020366003190112610245576001600160401b03611662611c10565b16805f52600460205260405f205461167981611fad565b916116876040519384611d39565b818352601f1961169683611fad565b013660208501375f5b8281106116b4576040518061111f8682611e78565b600190825f5260046020526116cc8160405f20612728565b838060a01b0391549060031b1c166116e48287611fd1565b520161169f565b3461024557604036600319011261024557611704611c10565b6001600160401b03611714611c3c565b91165f52600360205260405f209060018060a01b03165f5260205260a060405f2080549061177760026001830154920154916040519384526001600160401b038116602085015260ff8160401c16604085015260ff606085019160481c16611e6b565b6080820152f35b34610245575f366003190112610245576020604051610e108152f35b34610245575f3660031901126102455760206040517f00000000000000000000000000000000000000000000000000000000000000008152f35b34610245576020366003190112610245576004356001600160401b03811161024557611804903690600401611e1e565b810190602081830312610245578035906001600160401b03821161024557019080601f830112156102455781359061183b82611fad565b926118496040519485611d39565b82845260208401916020839460051b830101918183116102455760208101935b8385106118d657858760405191829160208301906020845251809152604083019060408160051b85010192915f905b8282106118a757505050500390f35b919360019193955060206118c68192603f198a82030186528851611e4b565b9601920192018594939192611898565b84356001600160401b0381116102455782016040818503601f190112610245576040519161190383611ccd565b6020820135926001600160401b0384116102455760408361192b886020809881980101611f1b565b8352013583820152815201940193611869565b34610245575f366003190112610245576009546040516001600160a01b039091168152602090f35b34610245575f36600319011261024557602060405161012c8152f35b346102455760403660031901126102455761199b611c10565b6001600160401b0360243591165f52600660205260405f208054821015610245576119fc916119c991611c68565b506119d381611d5a565b9060018101549060ff600360028301549201541690604051948594608086526080860190611dfa565b9260208501526040840152151560608301520390f35b3461024557602036600319011261024557611a2b611c52565b611a33612378565b600980546001600160a01b0319166001600160a01b0392909216919091179055005b3461024557604036600319011261024557611a6e611c10565b6001600160401b03611a7e611c3c565b91165f52600360205260405f209060018060a01b03165f52602052602060405f2054604051908152f35b34610245576020366003190112610245576060611ad4611ac6611c10565b611ace611f8f565b50612302565b60408051916001600160401b03815116835260ff6020820151166020840152015115156040820152f35b3461024557604036600319011261024557611b17611c10565b611b1f611c3c565b917f00000000000000000000000000000000000000000000000000000000000000006001600160a01b03163303611bdb57506001600160401b03165f818152600560205260409020546001600160a01b0316611ba1575f90815260056020526040902080546001600160a01b0319166001600160a01b03909216919091179055005b60405162461bcd60e51b8152602060048201526012602482015271105b1c9958591e481c9959da5cdd195c995960721b6044820152606490fd5b62461bcd60e51b815260206004820152601060248201526f4f6e6c792054616e676c6520636f726560801b6044820152606490fd5b600435906001600160401b038216820361024557565b602435906001600160401b038216820361024557565b602435906001600160a01b038216820361024557565b600435906001600160a01b038216820361024557565b8054821015611c81575f5260205f209060021b01905f90565b634e487b7160e01b5f52603260045260245ffd5b90600182811c92168015611cc3575b6020831014611caf57565b634e487b7160e01b5f52602260045260245ffd5b91607f1691611ca4565b604081019081106001600160401b03821117610dd157604052565b60a081019081106001600160401b03821117610dd157604052565b608081019081106001600160401b03821117610dd157604052565b606081019081106001600160401b03821117610dd157604052565b90601f801991011681019081106001600160401b03821117610dd157604052565b9060405191825f825492611d6d84611c95565b8084529360018116908115611dd85750600114611d94575b50611d9292500383611d39565b565b90505f9291925260205f20905f915b818310611dbc575050906020611d92928201015f611d85565b6020919350806001915483858901015201910190918492611da3565b905060209250611d9294915060ff191682840152151560051b8201015f611d85565b805180835260209291819084018484015e5f828201840152601f01601f1916010190565b9181601f84011215610245578235916001600160401b038311610245576020838186019501011161024557565b90602080611e628451604085526040850190611dfa565b93015191015290565b9060058210156106d65752565b60206040818301928281528451809452019201905f5b818110611e9b5750505090565b82516001600160a01b0316845260209384019390920191600101611e8e565b6044359060ff8216820361024557565b6001600160401b038111610dd157601f01601f191660200190565b929192611ef182611eca565b91611eff6040519384611d39565b829481845281830111610245578281602093845f960137010152565b9080601f8301121561024557816020611f3693359101611ee5565b90565b6060600319820112610245576004356001600160401b038116810361024557916024356001600160a01b03811681036102455791604435906001600160401b03821161024557611f8b91600401611e1e565b9091565b60405190611f9c82611d1e565b5f6040838281528260208201520152565b6001600160401b038111610dd15760051b60200190565b805115611c815760200190565b8051821015611c815760209160051b010190565b6001600160401b03611ff682612302565b91165f52600460205260ff602060405f20549201511615908115612040575b5061203257604051612028602082611d39565b5f81525f36813790565b604051612028602082611d39565b9050155f612015565b6040519061205682611ccd565b5f602083606081520152565b908060209392818452848401375f828201840152601f01601f1916010190565b1561208957565b60405162461bcd60e51b81526020600482015260116024820152702737ba1039b2b93b34b1b29037bbb732b960791b6044820152606490fd5b919082039182116120cf57565b634e487b7160e01b5f52601160045260245ffd5b906001600160401b03821690815f52600360205260405f2060018060a01b0382165f5260205261211660405f2093612302565b92805480156121555761212990426120c2565b6001600160401b038551169081156122485760019160ff91041691019360ff855460401c16821161215c575b5050505050565b845468ffffffffffffffffff191660ff60401b604084901b161785556020015160ff168110158061222d575b612193575b80612155565b835f80516020612cb383398151915292847f44fd32b677704ce68e7763897c49733b8f5289018ac60a5c926802d63759db4d602060409560ff6122099a5460481c1695690200000000000000000060ff60481b19825416179055835f5260048252865f209460018060a01b0316998a8096612a67565b508651908152a361221c82518092611e6b565b60026020820152a35f80808061218d565b5060ff845460481c1660058110156106d65760021415612188565b634e487b7160e01b5f52601260045260245ffd5b906001600160401b0361226e83612302565b92165f52600360205260405f209060018060a01b03165f5260205260405f206040519061229a82611ce8565b8054825260ff60018201546001600160401b0381166020850152818160401c16604085015260481c169060058210156106d6576002916060840152015460808201525180156122fc576122f56001600160401b0391426120c2565b9151161190565b50505f90565b6001600160401b0390612313611f8f565b50165f52600260205260405f206040519061232d82611d1e565b546001600160401b03811680835260ff8260401c169060ff602085019383855260481c16151560408501521561236e575b15612367575090565b6003905290565b61012c835261235e565b5f546001600160a01b0316330361123757565b949192906001600160401b03861695865f52600360205260405f2060018060a01b0386165f5260205260405f20946123c282612302565b90600187019460ff865460481c169742815560026123e1368a8d611ee5565b6020815191012091015560ff60401b1986541686556001600160401b03865416906001600160401b0382146120cf576001600160401b03600160ff9301166001600160401b0319885416178755169283155f146125fd575f965b600588101596876106d657805460ff60481b191660488a901b60ff60481b1617905560058910156106d6576001600160401b03998b9460028b148a816125ee575b50918560407f658918e3147f13dd068ec21437b4c25c21682a8dc2129348671ead000db3e7b99795938197956125a1575b0151151580612598575b612586575b5050835196875250504260208601526001600160a01b03169889951693a46106d65782918491808203612551575b50506009546001600160a01b031693915083905061250757505050565b823b156102455760645f92836040519586948593636a3c29db60e11b8552600485015260248401526001600160401b03421660448401525af16125475750565b5f611d9291611d39565b5f80516020612cb38339815191529161257c60409261257284518094611e6b565b6020830190611e6b565ba380825f806124ea565b61258f936127b9565b5f8080836124bc565b508215156124b7565b5f8a815260046020528290206001600160a01b038416906125c3908290612b42565b508a7fc9862c5f02eefbdcea01c207ae538e1d304dc93026870f48951e48a0f4c8470c5f80a36124ad565b5f9a506002141590508a61247c565b606484101561260e5760019661243b565b60019660c8851061243b576001600160401b0342168b5f52600a60205260405f2060018060a01b0385165f526020526001600160401b0360405f2054168015908115612701575b50612661575b5061243b565b8b5f52600a60205260405f2060018060a01b0385165f526020526001600160401b0360405f2091166001600160401b031982541617905560405160208152601b60208201527f50726f746f636f6c2076696f6c6174696f6e207265706f72746564000000000060408201528b7f1e2909cf45d70cf003f334b73c93330ce7e572782dfc82fab79deb8855a7c791606060018060a01b03871693a35f61265b565b905081036001600160401b0381116120cf576001600160401b03610e10911610155f612655565b8054821015611c81575f5260205f2001905f90565b9190604083820312610245576040519061275682611ccd565b819380516001600160401b0381116102455781019082601f830112156102455781519261278284611eca565b906127906040519283611d39565b84825260208585010111610245575f6020858196828097018386015e8301015284520151910152565b9392919091801561294e576040516331e3bd1b60e01b8152602060048201525f81806127e9602482018688612062565b0381305afa5f91816129b4575b506129ab575060405163497898bd60e11b81526020600482015294915f918691829161282791602484019190612062565b0381305afa5f948161296c575b5061283f5750509050565b60405161284d604082611d39565b6001815260205f5b81811061295557505080612873919561286d82611fc4565b52611fc4565b505b5f5b845181101561294e5780602061288f60019388611fd1565b5101516001600160401b03841690815f52600760205260405f20848060a01b0387165f5260205260208060405f206128c7868c611fd1565b515190604051938285935191829101845e820190815203019020556128ec8288611fd1565b5151907f23ed02bd3605bdea6a8afa76c46f00d274860ba6cea980f2585b696df9e182bd602061291c858b611fd1565b5101519261293560405191604083526040830190611dfa565b93602082015280868060a01b038916940390a301612877565b5050509050565b602090612960612049565b82828601015201612855565b9094503d805f833e61297e8183611d39565b81016020828203126102455781516001600160401b038111610245576129a4920161273d565b935f612834565b91505092612875565b9091503d805f833e6129c68183611d39565b810190602081830312610245578051906001600160401b03821161024557019080601f830112156102455781516129fc81611fad565b92612a0a6040519485611d39565b81845260208085019260051b820101918383116102455760208201905b838210612a3a575050505050905f6127f6565b81516001600160401b03811161024557602091612a5c8784809488010161273d565b815201910190612a27565b906001820191815f528260205260405f20548015155f14612b3a575f1981018181116120cf5782545f198101919082116120cf57818103612aef575b50505080548015612adb575f190190612abc8282612728565b8154905f199060031b1b19169055555f526020525f6040812055600190565b634e487b7160e01b5f52603160045260245ffd5b612b25612aff612b0f9386612728565b90549060031b1c92839286612728565b819391549060031b91821b915f19901b19161790565b90555f528360205260405f20555f8080612aa3565b505050505f90565b6001810190825f528160205260405f2054155f14612b8f578054600160401b811015610dd157612b7c612b0f826001879401855584612728565b905554915f5260205260405f2055600190565b5050505f90565b8151919060418303612bc657612bbf9250602082015190606060408401519301515f1a90612c30565b9192909190565b50505f9160029190565b60048110156106d65780612be2575050565b60018103612bf95763f645eedf60e01b5f5260045ffd5b60028103612c14575063fce698f760e01b5f5260045260245ffd5b600314612c1e5750565b6335e2f38360e21b5f5260045260245ffd5b91907f7fffffffffffffffffffffffffffffff5d576e7357a4501ddfe92f46681b20a08411612ca7579160209360809260ff5f9560405194855216868401526040830152606082015282805260015afa1561108e575f516001600160a01b03811615612c9d57905f905f90565b505f906001905f90565b5050505f916003919056fe228824b86c256469125f525ce18c6c2d0a9e133d13b8ec7a2c96a193b0c28a09a164736f6c634300081a000a","linkReferences":{}},"methodIdentifiers":{"DEFAULT_HEARTBEAT_INTERVAL()":"2c957688","DEFAULT_MAX_MISSED_HEARTBEATS()":"61d6b86c","DOMAIN_SEPARATOR()":"3644e515","HEARTBEAT_TYPEHASH()":"f9f16762","SLASH_ALERT_COOLDOWN()":"3ac3cbe6","acceptOwnership()":"79ba5097","addMetricDefinition(uint64,string,uint256,uint256,bool)":"ae470a85","checkOperatorStatus(uint64,address)":"ba1fb103","checkOperatorsStatus(uint64,address[])":"96686c1e","configureHeartbeat(uint64,uint64,uint8)":"b99f6759","decodeMetricPair(bytes)":"92f1317a","decodeMetricPairs(bytes)":"31e3bd1b","enableCustomMetrics(uint64,bool)":"f9107f3b","getHeartbeatConfig(uint64)":"0758236f","getLastCriticalHeartbeat(uint64,address)":"7639d227","getLastHeartbeat(uint64,address)":"0c76697a","getMetricDefinitions(uint64)":"c1ef9ddf","getMetricValue(uint64,address,string)":"d551162c","getOnlineOperatorCount(uint64)":"7b9f64b2","getOnlineOperators(uint64)":"40235a9c","getOperatorState(uint64,address)":"71e7388c","getOperatorStatus(uint64,address)":"62c7e8fc","getSlashableOperators(uint64)":"59dcea12","goOffline(uint64)":"c5d960bb","goOnline(uint64)":"b074e9dd","heartbeatConfigs(uint64)":"da435a7c","isHeartbeatCurrent(uint64,address)":"ee1c0390","isOnline(uint64,address)":"5685cf68","metricValues(uint64,address,string)":"9cbdae22","metricsRecorder()":"2dae1885","operatorStates(uint64,address)":"3e6e34a7","owner()":"8da5cb5b","pendingOwner()":"e30c3978","registerServiceOwner(uint64,address)":"05778550","renounceOwnership()":"715018a6","reportForSlashing(uint64,address,string)":"adff830c","serviceMetrics(uint64,uint256)":"22f1ec93","serviceOwners(uint64)":"56c4e17d","setMetricsRecorder(address)":"20812956","setSlashingOracle(address)":"84ef7322","slashingOracle()":"cfe34749","submitHeartbeat(uint64,uint64,uint8,bytes,bytes)":"d413a580","submitHeartbeatDirect(uint64,uint64,uint8,bytes)":"5cce98a6","tangleCore()":"5a936dc6","transferOwnership(address)":"f2fde38b"},"id":185}