{"abi":[{"type":"constructor","inputs":[{"name":"_tangleCore","type":"address","internalType":"address"}],"stateMutability":"nonpayable"},{"type":"function","name":"DEFAULT_HEARTBEAT_INTERVAL","inputs":[],"outputs":[{"name":"","type":"uint64","internalType":"uint64"}],"stateMutability":"view"},{"type":"function","name":"DEFAULT_MAX_MISSED_HEARTBEATS","inputs":[],"outputs":[{"name":"","type":"uint8","internalType":"uint8"}],"stateMutability":"view"},{"type":"function","name":"DOMAIN_SEPARATOR","inputs":[],"outputs":[{"name":"","type":"bytes32","internalType":"bytes32"}],"stateMutability":"view"},{"type":"function","name":"HEARTBEAT_TYPEHASH","inputs":[],"outputs":[{"name":"","type":"bytes32","internalType":"bytes32"}],"stateMutability":"view"},{"type":"function","name":"addMetricDefinition","inputs":[{"name":"serviceId","type":"uint64","internalType":"uint64"},{"name":"name","type":"string","internalType":"string"},{"name":"minValue","type":"uint256","internalType":"uint256"},{"name":"maxValue","type":"uint256","internalType":"uint256"},{"name":"required","type":"bool","internalType":"bool"}],"outputs":[],"stateMutability":"nonpayable"},{"type":"function","name":"checkOperatorStatus","inputs":[{"name":"serviceId","type":"uint64","internalType":"uint64"},{"name":"operator","type":"address","internalType":"address"}],"outputs":[],"stateMutability":"nonpayable"},{"type":"function","name":"checkOperatorsStatus","inputs":[{"name":"serviceId","type":"uint64","internalType":"uint64"},{"name":"operators","type":"address[]","internalType":"address[]"}],"outputs":[],"stateMutability":"nonpayable"},{"type":"function","name":"configureHeartbeat","inputs":[{"name":"serviceId","type":"uint64","internalType":"uint64"},{"name":"interval","type":"uint64","internalType":"uint64"},{"name":"maxMissed","type":"uint8","internalType":"uint8"}],"outputs":[],"stateMutability":"nonpayable"},{"type":"function","name":"enableCustomMetrics","inputs":[{"name":"serviceId","type":"uint64","internalType":"uint64"},{"name":"enabled","type":"bool","internalType":"bool"}],"outputs":[],"stateMutability":"nonpayable"},{"type":"function","name":"getHeartbeatConfig","inputs":[{"name":"serviceId","type":"uint64","internalType":"uint64"}],"outputs":[{"name":"","type":"tuple","internalType":"struct OperatorStatusRegistry.HeartbeatConfig","components":[{"name":"interval","type":"uint64","internalType":"uint64"},{"name":"maxMissed","type":"uint8","internalType":"uint8"},{"name":"customMetrics","type":"bool","internalType":"bool"}]}],"stateMutability":"view"},{"type":"function","name":"getLastHeartbeat","inputs":[{"name":"serviceId","type":"uint64","internalType":"uint64"},{"name":"operator","type":"address","internalType":"address"}],"outputs":[{"name":"","type":"uint256","internalType":"uint256"}],"stateMutability":"view"},{"type":"function","name":"getMetricDefinitions","inputs":[{"name":"serviceId","type":"uint64","internalType":"uint64"}],"outputs":[{"name":"","type":"tuple[]","internalType":"struct OperatorStatusRegistry.MetricDefinition[]","components":[{"name":"name","type":"string","internalType":"string"},{"name":"minValue","type":"uint256","internalType":"uint256"},{"name":"maxValue","type":"uint256","internalType":"uint256"},{"name":"required","type":"bool","internalType":"bool"}]}],"stateMutability":"view"},{"type":"function","name":"getMetricValue","inputs":[{"name":"serviceId","type":"uint64","internalType":"uint64"},{"name":"operator","type":"address","internalType":"address"},{"name":"metricName","type":"string","internalType":"string"}],"outputs":[{"name":"","type":"uint256","internalType":"uint256"}],"stateMutability":"view"},{"type":"function","name":"getOnlineOperatorCount","inputs":[{"name":"serviceId","type":"uint64","internalType":"uint64"}],"outputs":[{"name":"","type":"uint256","internalType":"uint256"}],"stateMutability":"view"},{"type":"function","name":"getOnlineOperators","inputs":[{"name":"serviceId","type":"uint64","internalType":"uint64"}],"outputs":[{"name":"","type":"address[]","internalType":"address[]"}],"stateMutability":"view"},{"type":"function","name":"getOperatorState","inputs":[{"name":"serviceId","type":"uint64","internalType":"uint64"},{"name":"operator","type":"address","internalType":"address"}],"outputs":[{"name":"","type":"tuple","internalType":"struct OperatorStatusRegistry.OperatorState","components":[{"name":"lastHeartbeat","type":"uint256","internalType":"uint256"},{"name":"consecutiveBeats","type":"uint64","internalType":"uint64"},{"name":"missedBeats","type":"uint8","internalType":"uint8"},{"name":"status","type":"uint8","internalType":"enum IOperatorStatusRegistry.StatusCode"},{"name":"lastMetricsHash","type":"bytes32","internalType":"bytes32"}]}],"stateMutability":"view"},{"type":"function","name":"getOperatorStatus","inputs":[{"name":"serviceId","type":"uint64","internalType":"uint64"},{"name":"operator","type":"address","internalType":"address"}],"outputs":[{"name":"","type":"uint8","internalType":"enum IOperatorStatusRegistry.StatusCode"}],"stateMutability":"view"},{"type":"function","name":"getSlashableOperators","inputs":[{"name":"serviceId","type":"uint64","internalType":"uint64"}],"outputs":[{"name":"operators","type":"address[]","internalType":"address[]"}],"stateMutability":"view"},{"type":"function","name":"goOffline","inputs":[{"name":"serviceId","type":"uint64","internalType":"uint64"}],"outputs":[],"stateMutability":"nonpayable"},{"type":"function","name":"goOnline","inputs":[{"name":"serviceId","type":"uint64","internalType":"uint64"}],"outputs":[],"stateMutability":"nonpayable"},{"type":"function","name":"heartbeatConfigs","inputs":[{"name":"","type":"uint64","internalType":"uint64"}],"outputs":[{"name":"interval","type":"uint64","internalType":"uint64"},{"name":"maxMissed","type":"uint8","internalType":"uint8"},{"name":"customMetrics","type":"bool","internalType":"bool"}],"stateMutability":"view"},{"type":"function","name":"isHeartbeatCurrent","inputs":[{"name":"serviceId","type":"uint64","internalType":"uint64"},{"name":"operator","type":"address","internalType":"address"}],"outputs":[{"name":"","type":"bool","internalType":"bool"}],"stateMutability":"view"},{"type":"function","name":"isOnline","inputs":[{"name":"serviceId","type":"uint64","internalType":"uint64"},{"name":"operator","type":"address","internalType":"address"}],"outputs":[{"name":"","type":"bool","internalType":"bool"}],"stateMutability":"view"},{"type":"function","name":"metricValues","inputs":[{"name":"","type":"uint64","internalType":"uint64"},{"name":"","type":"address","internalType":"address"},{"name":"","type":"string","internalType":"string"}],"outputs":[{"name":"","type":"uint256","internalType":"uint256"}],"stateMutability":"view"},{"type":"function","name":"metricsRecorder","inputs":[],"outputs":[{"name":"","type":"address","internalType":"address"}],"stateMutability":"view"},{"type":"function","name":"operatorStates","inputs":[{"name":"","type":"uint64","internalType":"uint64"},{"name":"","type":"address","internalType":"address"}],"outputs":[{"name":"lastHeartbeat","type":"uint256","internalType":"uint256"},{"name":"consecutiveBeats","type":"uint64","internalType":"uint64"},{"name":"missedBeats","type":"uint8","internalType":"uint8"},{"name":"status","type":"uint8","internalType":"enum IOperatorStatusRegistry.StatusCode"},{"name":"lastMetricsHash","type":"bytes32","internalType":"bytes32"}],"stateMutability":"view"},{"type":"function","name":"registerServiceOwner","inputs":[{"name":"serviceId","type":"uint64","internalType":"uint64"},{"name":"owner","type":"address","internalType":"address"}],"outputs":[],"stateMutability":"nonpayable"},{"type":"function","name":"reportForSlashing","inputs":[{"name":"serviceId","type":"uint64","internalType":"uint64"},{"name":"operator","type":"address","internalType":"address"},{"name":"reason","type":"string","internalType":"string"}],"outputs":[],"stateMutability":"nonpayable"},{"type":"function","name":"serviceMetrics","inputs":[{"name":"","type":"uint64","internalType":"uint64"},{"name":"","type":"uint256","internalType":"uint256"}],"outputs":[{"name":"name","type":"string","internalType":"string"},{"name":"minValue","type":"uint256","internalType":"uint256"},{"name":"maxValue","type":"uint256","internalType":"uint256"},{"name":"required","type":"bool","internalType":"bool"}],"stateMutability":"view"},{"type":"function","name":"serviceOwners","inputs":[{"name":"","type":"uint64","internalType":"uint64"}],"outputs":[{"name":"","type":"address","internalType":"address"}],"stateMutability":"view"},{"type":"function","name":"setMetricsRecorder","inputs":[{"name":"recorder","type":"address","internalType":"address"}],"outputs":[],"stateMutability":"nonpayable"},{"type":"function","name":"setSlashingOracle","inputs":[{"name":"oracle","type":"address","internalType":"address"}],"outputs":[],"stateMutability":"nonpayable"},{"type":"function","name":"slashingOracle","inputs":[],"outputs":[{"name":"","type":"address","internalType":"address"}],"stateMutability":"view"},{"type":"function","name":"submitHeartbeat","inputs":[{"name":"serviceId","type":"uint64","internalType":"uint64"},{"name":"blueprintId","type":"uint64","internalType":"uint64"},{"name":"statusCode","type":"uint8","internalType":"uint8"},{"name":"metrics","type":"bytes","internalType":"bytes"},{"name":"signature","type":"bytes","internalType":"bytes"}],"outputs":[],"stateMutability":"nonpayable"},{"type":"function","name":"submitHeartbeatDirect","inputs":[{"name":"serviceId","type":"uint64","internalType":"uint64"},{"name":"blueprintId","type":"uint64","internalType":"uint64"},{"name":"statusCode","type":"uint8","internalType":"uint8"},{"name":"metrics","type":"bytes","internalType":"bytes"}],"outputs":[],"stateMutability":"nonpayable"},{"type":"function","name":"tangleCore","inputs":[],"outputs":[{"name":"","type":"address","internalType":"address"}],"stateMutability":"view"},{"type":"event","name":"HeartbeatConfigUpdated","inputs":[{"name":"serviceId","type":"uint64","indexed":true,"internalType":"uint64"},{"name":"interval","type":"uint64","indexed":false,"internalType":"uint64"},{"name":"maxMissed","type":"uint8","indexed":false,"internalType":"uint8"}],"anonymous":false},{"type":"event","name":"HeartbeatReceived","inputs":[{"name":"serviceId","type":"uint64","indexed":true,"internalType":"uint64"},{"name":"blueprintId","type":"uint64","indexed":true,"internalType":"uint64"},{"name":"operator","type":"address","indexed":true,"internalType":"address"},{"name":"statusCode","type":"uint8","indexed":false,"internalType":"uint8"},{"name":"timestamp","type":"uint256","indexed":false,"internalType":"uint256"}],"anonymous":false},{"type":"event","name":"MetricReported","inputs":[{"name":"serviceId","type":"uint64","indexed":true,"internalType":"uint64"},{"name":"operator","type":"address","indexed":true,"internalType":"address"},{"name":"metricName","type":"string","indexed":false,"internalType":"string"},{"name":"value","type":"uint256","indexed":false,"internalType":"uint256"}],"anonymous":false},{"type":"event","name":"OperatorCameOnline","inputs":[{"name":"serviceId","type":"uint64","indexed":true,"internalType":"uint64"},{"name":"operator","type":"address","indexed":true,"internalType":"address"}],"anonymous":false},{"type":"event","name":"OperatorWentOffline","inputs":[{"name":"serviceId","type":"uint64","indexed":true,"internalType":"uint64"},{"name":"operator","type":"address","indexed":true,"internalType":"address"},{"name":"missedBeats","type":"uint8","indexed":false,"internalType":"uint8"}],"anonymous":false},{"type":"event","name":"SlashingTriggered","inputs":[{"name":"serviceId","type":"uint64","indexed":true,"internalType":"uint64"},{"name":"operator","type":"address","indexed":true,"internalType":"address"},{"name":"reason","type":"string","indexed":false,"internalType":"string"}],"anonymous":false},{"type":"event","name":"StatusChanged","inputs":[{"name":"serviceId","type":"uint64","indexed":true,"internalType":"uint64"},{"name":"operator","type":"address","indexed":true,"internalType":"address"},{"name":"oldStatus","type":"uint8","indexed":false,"internalType":"enum IOperatorStatusRegistry.StatusCode"},{"name":"newStatus","type":"uint8","indexed":false,"internalType":"enum IOperatorStatusRegistry.StatusCode"}],"anonymous":false},{"type":"error","name":"ECDSAInvalidSignature","inputs":[]},{"type":"error","name":"ECDSAInvalidSignatureLength","inputs":[{"name":"length","type":"uint256","internalType":"uint256"}]},{"type":"error","name":"ECDSAInvalidSignatureS","inputs":[{"name":"s","type":"bytes32","internalType":"bytes32"}]}],"bytecode":{"object":"0x60c08060405234610104576020816125dd803803809161001f8285610108565b83398101031261010457516001600160a01b03811681036101045760a05260405160208101907f8b73c3c69bb8fe3d512ecc4cf759cc79239f7b179b0ffacaa9a75d522b39400f82527f36ffc258c865193ae10c3cf640450ab772fdb8da1dfcae7862ad1205a5567f4c60408201527fc89efdaa54c0f20c7adf612882df0950f5a951637e0307cdcb4c672f298b8bc660608201524660808201523060a082015260a081526100cf60c082610108565b51902060805260405161249d90816101408239608051816114c9015260a05181818161077d015281816111d301526116cb0152f35b5f80fd5b601f909101601f19168101906001600160401b0382119082101761012b57604052565b634e487b7160e01b5f52604160045260245ffdfe6080806040526004361015610012575f80fd5b5f3560e01c90816305778550146116a7575080630758236f146116515780630c76697a146115fe57806320812956146115c057806322f1ec93146115305780632c957688146115145780632dae1885146114ec5780633644e515146114b25780633e6e34a71461141f57806340235a9c146113535780635685cf68146112a357806356c4e17d1461126357806359dcea12146112025780635a936dc6146111be5780635cce98a61461116657806361d6b86c1461114b57806362c7e8fc146110e857806371e7388c14610fea5780637b9f64b214610fb257806384ef732214610f7457806396686c1e14610e8c5780639cbdae2214610e01578063adff830c14610cf5578063ae470a8514610acc578063b074e9dd146109ab578063b99f675914610750578063ba1fb10314610726578063c1ef9ddf146105ea578063c5d960bb146104e4578063cfe34749146104bc578063d413a58014610341578063d551162c146102ee578063da435a7c14610295578063ee1c03901461025f578063f9107f3b146101e65763f9f16762146101a8575f80fd5b346101e2575f3660031901126101e25760206040517fe1675f8364c07a4d60a07503f0d700a7bcacd82251dff0f070e5235de6c6d28a8152f35b5f80fd5b346101e25760403660031901126101e2576101ff6117b9565b60243580151581036101e2576001600160401b0361025d9216805f52600360205261023760018060a01b0360405f2054163314611b12565b5f525f60205260405f209060ff60481b825491151560481b169060ff60481b1916179055565b005b346101e25760403660031901126101e257602061028b61027d6117b9565b6102856117e5565b90611cec565b6040519015158152f35b346101e25760203660031901126101e2576001600160401b036102b66117b9565b165f525f602052606060405f205460ff604051916001600160401b0381168352818160401c16602084015260481c1615156040820152f35b346101e25760206001600160401b038161030736611a87565b949092165f526005835260405f209060018060a01b03165f52825260405f2083604051948593843782019081520301902054604051908152f35b346101e25760a03660031901126101e25761035a6117b9565b6103626117cf565b9061036b6119e7565b906064356001600160401b0381116101e25761038b9036906004016119f7565b9290916084356001600160401b0381116101e25761045e6104586103b66104679336906004016119f7565b919060405160208101906001600160401b0360c01b8860c01b1682526001600160401b0360c01b8c60c01b1660288201528a8a603083013761040b6030828d81015f838201520301601f1981018352826118b3565b51902060405160208101917f19457468657265756d205369676e6564204d6573736167653a0a3332000000008352603c820152603c815261044d605c826118b3565b519020923691611a24565b90612354565b9092919261238e565b336001600160a01b03909116036104835761025d943391611e07565b60405162461bcd60e51b8152602060048201526011602482015270496e76616c6964207369676e617475726560781b6044820152606490fd5b346101e2575f3660031901126101e2576006546040516001600160a01b039091168152602090f35b346101e25760203660031901126101e2576001600160401b036105056117b9565b165f81815260016020818152604080842033855290915290912001805460481c60ff16919060058310156105d6576003831461059157690400000000000000000060ff60481b19825416179055805f5260026020526105673360405f20612225565b506105756040518093611998565b600460208301525f8051602061247183398151915260403393a3005b60405162461bcd60e51b815260206004820152601f60248201527f43616e6e6f7420676f206f66666c696e65207768696c6520736c6173686564006044820152606490fd5b634e487b7160e01b5f52602160045260245ffd5b346101e25760203660031901126101e2576001600160401b0361060b6117b9565b165f52600460205260405f2080549061062382611afb565b9161063160405193846118b3565b8083526020830180925f5260205f205f915b8383106106d957848660405191829160208301906020845251809152604083019060408160051b85010192915f905b82821061068157505050500390f35b919360019193955060208091603f198982030185528751906060806106af8451608085526080850190611974565b93858101518685015260408101516040850152015115159101529601920192018594939192610672565b600460206001926040516106ec8161187d565b6106f5866118d4565b815284860154838201526002860154604082015260ff60038701541615156060820152815201920192019190610643565b346101e25760403660031901126101e25761025d6107426117b9565b61074a6117e5565b90611b73565b346101e25760603660031901126101e2576107696117b9565b6107716117cf565b6107796119e7565b90337f00000000000000000000000000000000000000000000000000000000000000006001600160a01b0316148015610985575b801561095d575b15610927576001600160401b031690603c82106108ed5760ff1691600183106108a8577fc9599ed962624a858ec59bae0ed86c75f4db65fe04570021277edbedd04ea564916001600160401b036040921693845f525f60205261089b60ff845f205460481c1684519061082682611898565b84825261088060ff6020840186815288850193151584528a5f525f6020526001600160401b03808a5f20965116166001600160401b03198654161785555116839060ff60401b82549160401b169060ff60401b1916179055565b51815460ff60481b191690151560481b60ff60481b16179055565b82519182526020820152a2005b60405162461bcd60e51b815260206004820152601760248201527f4d6178206d6973736564206d757374206265203e3d20310000000000000000006044820152606490fd5b60405162461bcd60e51b8152602060048201526012602482015271125b9d195c9d985b081d1bdbc81cda1bdc9d60721b6044820152606490fd5b60405162461bcd60e51b815260206004820152600e60248201526d139bdd08185d5d1a1bdc9a5e995960921b6044820152606490fd5b506001600160401b0383165f908152600360205260409020546001600160a01b0316156107b4565b506001600160401b0383165f52600360205260018060a01b0360405f20541633146107ad565b346101e25760203660031901126101e2576001600160401b036109cc6117b9565b165f81815260016020818152604080842033855290915290912001805460481c60ff16919060058310156105d65760038314610a8757805469ffff0000000000000000191669010000000000000000001790555f818152600260205260409020610a37903390612300565b50610a6b604051809333847fc9862c5f02eefbdcea01c207ae538e1d304dc93026870f48951e48a0f4c8470c5f80a3611998565b600160208301525f8051602061247183398151915260403393a3005b60405162461bcd60e51b815260206004820152601e60248201527f43616e6e6f7420676f206f6e6c696e65207768696c6520736c617368656400006044820152606490fd5b346101e25760a03660031901126101e257610ae56117b9565b6024356001600160401b0381116101e257610b049036906004016119f7565b90916084358015159291908390036101e2576001600160401b0316805f526003602052610b3e60018060a01b0360405f2054163314611b12565b5f526004602052610b6160405f209360405192610b5a8461187d565b3691611a24565b81526020810192604435845260408201906064358252606083019384528054600160401b811015610cce57610b9b91600182018155611811565b929092610ce25751938451946001600160401b038611610cce57610bbf845461182a565b601f8111610c89575b50602090601f8711600114610c2457958091600396975f92610c19575b50508160011b915f1990871b1c19161783555b516001830155516002820155019051151560ff801983541691161790555f80f35b015190508780610be5565b90601f19871691855f52815f20925f5b818110610c7157509160019391896003999a9410610c5a575b505050811b018355610bf8565b01515f1983891b60f8161c19169055878080610c4d565b92936020600181928786015181550195019301610c34565b845f5260205f20601f880160051c81019160208910610cc4575b601f0160051c01905b818110610cb95750610bc8565b5f8155600101610cac565b9091508190610ca3565b634e487b7160e01b5f52604160045260245ffd5b634e487b7160e01b5f525f60045260245ffd5b346101e257610d0336611a87565b600654929391926001600160a01b03163303610dc65760406001600160401b037f1e2909cf45d70cf003f334b73c93330ce7e572782dfc82fab79deb8855a7c791931693845f526001602052815f2060018060a01b0387165f526020526001825f2001690300000000000000000060ff60481b19825416179055845f526002602052610d9b825f209660018060a01b03168097612225565b5082825193849260208452816020850152848401375f828201840152601f01601f19168101030190a3005b60405162461bcd60e51b81526020600482015260136024820152724e6f7420736c617368696e67206f7261636c6560681b6044820152606490fd5b346101e25760603660031901126101e257610e1a6117b9565b610e226117e5565b6044356001600160401b0381116101e25760209283926001600160401b03610e4f85943690600401611a69565b92165f526005835260405f209060018060a01b03165f52825260405f20604051938285935191829101845e82019081520301902054604051908152f35b346101e25760403660031901126101e257610ea56117b9565b602435906001600160401b0382116101e257366023830112156101e2578160040135916001600160401b0383116101e2573660248460051b830101116101e25782906001600160401b035f9316925b8281101561025d576024600582901b830101356001600160a01b03811691908290036101e257303b156101e2576040519163ba1fb10360e01b835285600484015260248301525f8260448183305af1918215610f6957600192610f59575b5001610ef4565b5f610f63916118b3565b85610f52565b6040513d5f823e3d90fd5b346101e25760203660031901126101e2576001600160a01b03610f956117fb565b166bffffffffffffffffffffffff60a01b60065416176006555f80f35b346101e25760203660031901126101e2576001600160401b03610fd36117b9565b165f526002602052602060405f2054604051908152f35b346101e25760403660031901126101e2576110036117b9565b6001600160401b036110136117e5565b915f608060405161102381611862565b8281528260208201528260408201528260608201520152165f52600160205260405f209060018060a01b03165f5260205260405f2060405161106481611862565b8154815260018201549160208201906001600160401b038416825260ff6040840194818160401c16865260481c16606084019060058110156105d65760a0956001600160401b0360026110e09560ff94865201549560808801968752604051975188525116602087015251166040850152516060840190611998565b516080820152f35b346101e25760403660031901126101e2576111016117b9565b6001600160401b036111116117e5565b91165f52600160205260405f209060018060a01b03165f52602052602060ff600160405f20015460481c166111496040518092611998565bf35b346101e2575f3660031901126101e257602060405160038152f35b346101e25760803660031901126101e25761117f6117b9565b6111876117cf565b906111906119e7565b91606435926001600160401b0384116101e2576111b461025d9436906004016119f7565b9390923391611e07565b346101e2575f3660031901126101e2576040517f00000000000000000000000000000000000000000000000000000000000000006001600160a01b03168152602090f35b346101e25760203660031901126101e25761121b6117b9565b50604051610ca061122c81836118b3565b60648252601f19019036906020013761125f60405161124c6020826118b3565b5f81525f368137604051918291826119a5565b0390f35b346101e25760203660031901126101e2576001600160401b036112846117b9565b165f526003602052602060018060a01b0360405f205416604051908152f35b346101e25760403660031901126101e2576112bc6117b9565b6001600160401b036112cc6117e5565b9116805f52600160205260405f2060018060a01b0383165f5260205260ff600160405f20015460481c1660058110156105d65715908115611315575b6020826040519015158152f35b90505f52600160205260405f209060018060a01b03165f5260205260ff600160405f20015460481c1660058110156105d65760016020911482611308565b346101e25760203660031901126101e2576001600160401b036113746117b9565b16805f52600260205260405f205461138b81611afb565b9161139960405193846118b3565b818352601f196113a883611afb565b013660208501375f5b8281106113c6576040518061125f86826119a5565b815f5260026020526113db8160405f206120fd565b9054855160039290921b1c6001600160a01b0316919081101561140b5760019160208260051b87010152016113b1565b634e487b7160e01b5f52603260045260245ffd5b346101e25760403660031901126101e2576114386117b9565b6001600160401b036114486117e5565b91165f52600160205260405f209060018060a01b03165f5260205260a060405f208054906114ab60026001830154920154916040519384526001600160401b038116602085015260ff8160401c16604085015260ff606085019160481c16611998565b6080820152f35b346101e2575f3660031901126101e25760206040517f00000000000000000000000000000000000000000000000000000000000000008152f35b346101e2575f3660031901126101e2576007546040516001600160a01b039091168152602090f35b346101e2575f3660031901126101e257602060405161012c8152f35b346101e25760403660031901126101e2576115496117b9565b6001600160401b0360243591165f52600460205260405f2080548210156101e2576115aa9161157791611811565b50611581816118d4565b9060018101549060ff600360028301549201541690604051948594608086526080860190611974565b9260208501526040840152151560608301520390f35b346101e25760203660031901126101e2576001600160a01b036115e16117fb565b166bffffffffffffffffffffffff60a01b60075416176007555f80f35b346101e25760403660031901126101e2576116176117b9565b6001600160401b036116276117e5565b91165f52600160205260405f209060018060a01b03165f52602052602060405f2054604051908152f35b346101e25760203660031901126101e257606061167d61166f6117b9565b611677611add565b50611d92565b60408051916001600160401b03815116835260ff6020820151166020840152015115156040820152f35b346101e25760403660031901126101e2576116c06117b9565b6116c86117e5565b917f00000000000000000000000000000000000000000000000000000000000000006001600160a01b0316330361178457506001600160401b03165f818152600360205260409020546001600160a01b031661174a575f90815260036020526040902080546001600160a01b0319166001600160a01b03909216919091179055005b60405162461bcd60e51b8152602060048201526012602482015271105b1c9958591e481c9959da5cdd195c995960721b6044820152606490fd5b62461bcd60e51b815260206004820152601060248201526f4f6e6c792054616e676c6520636f726560801b6044820152606490fd5b600435906001600160401b03821682036101e257565b602435906001600160401b03821682036101e257565b602435906001600160a01b03821682036101e257565b600435906001600160a01b03821682036101e257565b805482101561140b575f5260205f209060021b01905f90565b90600182811c92168015611858575b602083101461184457565b634e487b7160e01b5f52602260045260245ffd5b91607f1691611839565b60a081019081106001600160401b03821117610cce57604052565b608081019081106001600160401b03821117610cce57604052565b606081019081106001600160401b03821117610cce57604052565b90601f801991011681019081106001600160401b03821117610cce57604052565b9060405191825f8254926118e78461182a565b8084529360018116908115611952575060011461190e575b5061190c925003836118b3565b565b90505f9291925260205f20905f915b81831061193657505090602061190c928201015f6118ff565b602091935080600191548385890101520191019091849261191d565b90506020925061190c94915060ff191682840152151560051b8201015f6118ff565b805180835260209291819084018484015e5f828201840152601f01601f1916010190565b9060058210156105d65752565b60206040818301928281528451809452019201905f5b8181106119c85750505090565b82516001600160a01b03168452602093840193909201916001016119bb565b6044359060ff821682036101e257565b9181601f840112156101e2578235916001600160401b0383116101e257602083818601950101116101e257565b9291926001600160401b038211610cce5760405191611a4d601f8201601f1916602001846118b3565b8294818452818301116101e2578281602093845f960137010152565b9080601f830112156101e257816020611a8493359101611a24565b90565b60606003198201126101e2576004356001600160401b03811681036101e257916024356001600160a01b03811681036101e25791604435906001600160401b0382116101e257611ad9916004016119f7565b9091565b60405190611aea82611898565b5f6040838281528260208201520152565b6001600160401b038111610cce5760051b60200190565b15611b1957565b60405162461bcd60e51b81526020600482015260116024820152702737ba1039b2b93b34b1b29037bbb732b960791b6044820152606490fd5b91908203918211611b5f57565b634e487b7160e01b5f52601160045260245ffd5b906001600160401b03821690815f52600160205260405f2060018060a01b0382165f52602052611ba660405f2093611d92565b9280548015611be557611bb99042611b52565b6001600160401b03855116908115611cd85760019160ff91041691019360ff855460401c168211611bec575b5050505050565b845468ffffffffffffffffff191660ff60401b604084901b161785556020015160ff1681101580611cbd575b611c23575b80611be5565b835f8051602061247183398151915292847f44fd32b677704ce68e7763897c49733b8f5289018ac60a5c926802d63759db4d602060409560ff611c999a5460481c1695690200000000000000000060ff60481b19825416179055835f5260028252865f209460018060a01b0316998a8096612225565b508651908152a3611cac82518092611998565b60026020820152a35f808080611c1d565b5060ff845460481c1660058110156105d65760021415611c18565b634e487b7160e01b5f52601260045260245ffd5b906001600160401b03611cfe83611d92565b92165f52600160205260405f209060018060a01b03165f5260205260405f2060405190611d2a82611862565b8054825260ff60018201546001600160401b0381166020850152818160401c16604085015260481c169060058210156105d657600291606084015201546080820152518015611d8c57611d856001600160401b039142611b52565b9151161190565b50505f90565b6001600160401b0390611da3611add565b50165f525f60205260405f2060405190611dbc82611898565b546001600160401b03811680835260ff8260401c169060ff602085019383855260481c161515604085015215611dfd575b15611df6575090565b6003905290565b61012c8352611ded565b949192906001600160401b03861695865f52600160205260405f2060018060a01b0386165f5260205260405f2094611e3e82611d92565b90600187019460ff865460481c16974281556002611e5d368a8d611a24565b6020815191012091015560ff60401b1986541686556001600160401b03865416906001600160401b038214611b5f576001600160401b03600160ff9301166001600160401b0319885416178755169283155f14612079575f965b600588101596876105d657805460ff60481b191660488a901b60ff60481b1617905560058910156105d6576001600160401b03998b9460028b148a8161206a575b50918560407f658918e3147f13dd068ec21437b4c25c21682a8dc2129348671ead000db3e7b997959381979561201d575b0151151580612014575b612002575b5050835196875250504260208601526001600160a01b03169889951693a46105d65782918491808203611fcd575b50506007546001600160a01b0316939150839050611f8357505050565b823b156101e25760645f92836040519586948593636a3c29db60e11b8552600485015260248401526001600160401b03421660448401525af1611fc35750565b5f61190c916118b3565b5f8051602061247183398151915291611ff8604092611fee84518094611998565b6020830190611998565ba380825f80611f66565b61200b93612112565b5f808083611f38565b50821515611f33565b5f8a815260026020528290206001600160a01b0384169061203f908290612300565b508a7fc9862c5f02eefbdcea01c207ae538e1d304dc93026870f48951e48a0f4c8470c5f80a3611f29565b5f9a506002141590508a611ef8565b606484101561208a57600196611eb7565b60019660c88510611eb75760405160208152601b60208201527f50726f746f636f6c2076696f6c6174696f6e207265706f72746564000000000060408201528b7f1e2909cf45d70cf003f334b73c93330ce7e572782dfc82fab79deb8855a7c791606060018060a01b03871693a3611eb7565b805482101561140b575f5260205f2001905f90565b6040841061221f575f925b60408401808511611b5f578510611be5578484116101e25783810184860381016040828203126101e25781356001600160401b0381116101e257602091612165918401611a69565b9101356001600160401b038416805f52600560205260405f2060018060a01b0387165f526020528160405f2060206040518092875180848a01845e820190815203019020557f23ed02bd3605bdea6a8afa76c46f00d274860ba6cea980f2585b696df9e182bd604051604081526121df6040820186611974565b60208201949094526001600160a01b0388169381900390a35180604001604011611b5f57604090850101809411611b5f578484111561211d575050505050565b50505050565b906001820191815f528260205260405f20548015155f146122f8575f198101818111611b5f5782545f19810191908211611b5f578181036122ad575b50505080548015612299575f19019061227a82826120fd565b8154905f199060031b1b19169055555f526020525f6040812055600190565b634e487b7160e01b5f52603160045260245ffd5b6122e36122bd6122cd93866120fd565b90549060031b1c928392866120fd565b819391549060031b91821b915f19901b19161790565b90555f528360205260405f20555f8080612261565b505050505f90565b6001810190825f528160205260405f2054155f1461234d578054600160401b811015610cce5761233a6122cd8260018794018555846120fd565b905554915f5260205260405f2055600190565b5050505f90565b81519190604183036123845761237d9250602082015190606060408401519301515f1a906123ee565b9192909190565b50505f9160029190565b60048110156105d657806123a0575050565b600181036123b75763f645eedf60e01b5f5260045ffd5b600281036123d2575063fce698f760e01b5f5260045260245ffd5b6003146123dc5750565b6335e2f38360e21b5f5260045260245ffd5b91907f7fffffffffffffffffffffffffffffff5d576e7357a4501ddfe92f46681b20a08411612465579160209360809260ff5f9560405194855216868401526040830152606082015282805260015afa15610f69575f516001600160a01b0381161561245b57905f905f90565b505f906001905f90565b5050505f916003919056fe228824b86c256469125f525ce18c6c2d0a9e133d13b8ec7a2c96a193b0c28a09a164736f6c634300081a000a","linkReferences":{}},"methodIdentifiers":{"DEFAULT_HEARTBEAT_INTERVAL()":"2c957688","DEFAULT_MAX_MISSED_HEARTBEATS()":"61d6b86c","DOMAIN_SEPARATOR()":"3644e515","HEARTBEAT_TYPEHASH()":"f9f16762","addMetricDefinition(uint64,string,uint256,uint256,bool)":"ae470a85","checkOperatorStatus(uint64,address)":"ba1fb103","checkOperatorsStatus(uint64,address[])":"96686c1e","configureHeartbeat(uint64,uint64,uint8)":"b99f6759","enableCustomMetrics(uint64,bool)":"f9107f3b","getHeartbeatConfig(uint64)":"0758236f","getLastHeartbeat(uint64,address)":"0c76697a","getMetricDefinitions(uint64)":"c1ef9ddf","getMetricValue(uint64,address,string)":"d551162c","getOnlineOperatorCount(uint64)":"7b9f64b2","getOnlineOperators(uint64)":"40235a9c","getOperatorState(uint64,address)":"71e7388c","getOperatorStatus(uint64,address)":"62c7e8fc","getSlashableOperators(uint64)":"59dcea12","goOffline(uint64)":"c5d960bb","goOnline(uint64)":"b074e9dd","heartbeatConfigs(uint64)":"da435a7c","isHeartbeatCurrent(uint64,address)":"ee1c0390","isOnline(uint64,address)":"5685cf68","metricValues(uint64,address,string)":"9cbdae22","metricsRecorder()":"2dae1885","operatorStates(uint64,address)":"3e6e34a7","registerServiceOwner(uint64,address)":"05778550","reportForSlashing(uint64,address,string)":"adff830c","serviceMetrics(uint64,uint256)":"22f1ec93","serviceOwners(uint64)":"56c4e17d","setMetricsRecorder(address)":"20812956","setSlashingOracle(address)":"84ef7322","slashingOracle()":"cfe34749","submitHeartbeat(uint64,uint64,uint8,bytes,bytes)":"d413a580","submitHeartbeatDirect(uint64,uint64,uint8,bytes)":"5cce98a6","tangleCore()":"5a936dc6"},"id":164}