{"abi":[{"type":"constructor","inputs":[{"name":"_tangleCore","type":"address","internalType":"address"},{"name":"initialOwner","type":"address","internalType":"address"}],"stateMutability":"nonpayable"},{"type":"function","name":"DEFAULT_HEARTBEAT_INTERVAL","inputs":[],"outputs":[{"name":"","type":"uint64","internalType":"uint64"}],"stateMutability":"view"},{"type":"function","name":"DEFAULT_MAX_MISSED_HEARTBEATS","inputs":[],"outputs":[{"name":"","type":"uint8","internalType":"uint8"}],"stateMutability":"view"},{"type":"function","name":"DOMAIN_SEPARATOR","inputs":[],"outputs":[{"name":"","type":"bytes32","internalType":"bytes32"}],"stateMutability":"view"},{"type":"function","name":"HEARTBEAT_TYPEHASH","inputs":[],"outputs":[{"name":"","type":"bytes32","internalType":"bytes32"}],"stateMutability":"view"},{"type":"function","name":"SLASH_ALERT_COOLDOWN","inputs":[],"outputs":[{"name":"","type":"uint64","internalType":"uint64"}],"stateMutability":"view"},{"type":"function","name":"acceptOwnership","inputs":[],"outputs":[],"stateMutability":"nonpayable"},{"type":"function","name":"addMetricDefinition","inputs":[{"name":"serviceId","type":"uint64","internalType":"uint64"},{"name":"name","type":"string","internalType":"string"},{"name":"minValue","type":"uint256","internalType":"uint256"},{"name":"maxValue","type":"uint256","internalType":"uint256"},{"name":"required","type":"bool","internalType":"bool"}],"outputs":[],"stateMutability":"nonpayable"},{"type":"function","name":"checkOperatorStatus","inputs":[{"name":"serviceId","type":"uint64","internalType":"uint64"},{"name":"operator","type":"address","internalType":"address"}],"outputs":[],"stateMutability":"nonpayable"},{"type":"function","name":"checkOperatorsStatus","inputs":[{"name":"serviceId","type":"uint64","internalType":"uint64"},{"name":"operators","type":"address[]","internalType":"address[]"}],"outputs":[],"stateMutability":"nonpayable"},{"type":"function","name":"configureHeartbeat","inputs":[{"name":"serviceId","type":"uint64","internalType":"uint64"},{"name":"interval","type":"uint64","internalType":"uint64"},{"name":"maxMissed","type":"uint8","internalType":"uint8"}],"outputs":[],"stateMutability":"nonpayable"},{"type":"function","name":"decodeMetricPairs","inputs":[{"name":"payload","type":"bytes","internalType":"bytes"}],"outputs":[{"name":"pairs","type":"tuple[]","internalType":"struct OperatorStatusRegistry.MetricPair[]","components":[{"name":"name","type":"string","internalType":"string"},{"name":"value","type":"uint256","internalType":"uint256"}]}],"stateMutability":"pure"},{"type":"function","name":"enableCustomMetrics","inputs":[{"name":"serviceId","type":"uint64","internalType":"uint64"},{"name":"enabled","type":"bool","internalType":"bool"}],"outputs":[],"stateMutability":"nonpayable"},{"type":"function","name":"getHeartbeatConfig","inputs":[{"name":"serviceId","type":"uint64","internalType":"uint64"}],"outputs":[{"name":"","type":"tuple","internalType":"struct OperatorStatusRegistry.HeartbeatConfig","components":[{"name":"interval","type":"uint64","internalType":"uint64"},{"name":"maxMissed","type":"uint8","internalType":"uint8"},{"name":"customMetrics","type":"bool","internalType":"bool"}]}],"stateMutability":"view"},{"type":"function","name":"getLastCriticalHeartbeat","inputs":[{"name":"serviceId","type":"uint64","internalType":"uint64"},{"name":"operator","type":"address","internalType":"address"}],"outputs":[{"name":"","type":"uint64","internalType":"uint64"}],"stateMutability":"view"},{"type":"function","name":"getLastHeartbeat","inputs":[{"name":"serviceId","type":"uint64","internalType":"uint64"},{"name":"operator","type":"address","internalType":"address"}],"outputs":[{"name":"","type":"uint256","internalType":"uint256"}],"stateMutability":"view"},{"type":"function","name":"getMetricDefinitions","inputs":[{"name":"serviceId","type":"uint64","internalType":"uint64"}],"outputs":[{"name":"","type":"tuple[]","internalType":"struct OperatorStatusRegistry.MetricDefinition[]","components":[{"name":"name","type":"string","internalType":"string"},{"name":"minValue","type":"uint256","internalType":"uint256"},{"name":"maxValue","type":"uint256","internalType":"uint256"},{"name":"required","type":"bool","internalType":"bool"}]}],"stateMutability":"view"},{"type":"function","name":"getMetricValue","inputs":[{"name":"serviceId","type":"uint64","internalType":"uint64"},{"name":"operator","type":"address","internalType":"address"},{"name":"metricName","type":"string","internalType":"string"}],"outputs":[{"name":"","type":"uint256","internalType":"uint256"}],"stateMutability":"view"},{"type":"function","name":"getOnlineOperatorCount","inputs":[{"name":"serviceId","type":"uint64","internalType":"uint64"}],"outputs":[{"name":"","type":"uint256","internalType":"uint256"}],"stateMutability":"view"},{"type":"function","name":"getOnlineOperators","inputs":[{"name":"serviceId","type":"uint64","internalType":"uint64"}],"outputs":[{"name":"","type":"address[]","internalType":"address[]"}],"stateMutability":"view"},{"type":"function","name":"getOperatorState","inputs":[{"name":"serviceId","type":"uint64","internalType":"uint64"},{"name":"operator","type":"address","internalType":"address"}],"outputs":[{"name":"","type":"tuple","internalType":"struct OperatorStatusRegistry.OperatorState","components":[{"name":"lastHeartbeat","type":"uint256","internalType":"uint256"},{"name":"consecutiveBeats","type":"uint64","internalType":"uint64"},{"name":"missedBeats","type":"uint8","internalType":"uint8"},{"name":"status","type":"uint8","internalType":"enum IOperatorStatusRegistry.StatusCode"},{"name":"lastMetricsHash","type":"bytes32","internalType":"bytes32"}]}],"stateMutability":"view"},{"type":"function","name":"getOperatorStatus","inputs":[{"name":"serviceId","type":"uint64","internalType":"uint64"},{"name":"operator","type":"address","internalType":"address"}],"outputs":[{"name":"","type":"uint8","internalType":"enum IOperatorStatusRegistry.StatusCode"}],"stateMutability":"view"},{"type":"function","name":"getSlashableOperators","inputs":[{"name":"serviceId","type":"uint64","internalType":"uint64"}],"outputs":[{"name":"operators","type":"address[]","internalType":"address[]"}],"stateMutability":"view"},{"type":"function","name":"goOffline","inputs":[{"name":"serviceId","type":"uint64","internalType":"uint64"}],"outputs":[],"stateMutability":"nonpayable"},{"type":"function","name":"goOnline","inputs":[{"name":"serviceId","type":"uint64","internalType":"uint64"}],"outputs":[],"stateMutability":"nonpayable"},{"type":"function","name":"heartbeatConfigs","inputs":[{"name":"","type":"uint64","internalType":"uint64"}],"outputs":[{"name":"interval","type":"uint64","internalType":"uint64"},{"name":"maxMissed","type":"uint8","internalType":"uint8"},{"name":"customMetrics","type":"bool","internalType":"bool"}],"stateMutability":"view"},{"type":"function","name":"isHeartbeatCurrent","inputs":[{"name":"serviceId","type":"uint64","internalType":"uint64"},{"name":"operator","type":"address","internalType":"address"}],"outputs":[{"name":"","type":"bool","internalType":"bool"}],"stateMutability":"view"},{"type":"function","name":"isOnline","inputs":[{"name":"serviceId","type":"uint64","internalType":"uint64"},{"name":"operator","type":"address","internalType":"address"}],"outputs":[{"name":"","type":"bool","internalType":"bool"}],"stateMutability":"view"},{"type":"function","name":"metricValues","inputs":[{"name":"","type":"uint64","internalType":"uint64"},{"name":"","type":"address","internalType":"address"},{"name":"","type":"string","internalType":"string"}],"outputs":[{"name":"","type":"uint256","internalType":"uint256"}],"stateMutability":"view"},{"type":"function","name":"metricsRecorder","inputs":[],"outputs":[{"name":"","type":"address","internalType":"address"}],"stateMutability":"view"},{"type":"function","name":"operatorStates","inputs":[{"name":"","type":"uint64","internalType":"uint64"},{"name":"","type":"address","internalType":"address"}],"outputs":[{"name":"lastHeartbeat","type":"uint256","internalType":"uint256"},{"name":"consecutiveBeats","type":"uint64","internalType":"uint64"},{"name":"missedBeats","type":"uint8","internalType":"uint8"},{"name":"status","type":"uint8","internalType":"enum IOperatorStatusRegistry.StatusCode"},{"name":"lastMetricsHash","type":"bytes32","internalType":"bytes32"}],"stateMutability":"view"},{"type":"function","name":"owner","inputs":[],"outputs":[{"name":"","type":"address","internalType":"address"}],"stateMutability":"view"},{"type":"function","name":"pendingOwner","inputs":[],"outputs":[{"name":"","type":"address","internalType":"address"}],"stateMutability":"view"},{"type":"function","name":"registerServiceOwner","inputs":[{"name":"serviceId","type":"uint64","internalType":"uint64"},{"name":"owner","type":"address","internalType":"address"}],"outputs":[],"stateMutability":"nonpayable"},{"type":"function","name":"renounceOwnership","inputs":[],"outputs":[],"stateMutability":"nonpayable"},{"type":"function","name":"reportForSlashing","inputs":[{"name":"serviceId","type":"uint64","internalType":"uint64"},{"name":"operator","type":"address","internalType":"address"},{"name":"reason","type":"string","internalType":"string"}],"outputs":[],"stateMutability":"nonpayable"},{"type":"function","name":"serviceMetrics","inputs":[{"name":"","type":"uint64","internalType":"uint64"},{"name":"","type":"uint256","internalType":"uint256"}],"outputs":[{"name":"name","type":"string","internalType":"string"},{"name":"minValue","type":"uint256","internalType":"uint256"},{"name":"maxValue","type":"uint256","internalType":"uint256"},{"name":"required","type":"bool","internalType":"bool"}],"stateMutability":"view"},{"type":"function","name":"serviceOwners","inputs":[{"name":"","type":"uint64","internalType":"uint64"}],"outputs":[{"name":"","type":"address","internalType":"address"}],"stateMutability":"view"},{"type":"function","name":"setMetricsRecorder","inputs":[{"name":"recorder","type":"address","internalType":"address"}],"outputs":[],"stateMutability":"nonpayable"},{"type":"function","name":"setSlashingOracle","inputs":[{"name":"oracle","type":"address","internalType":"address"}],"outputs":[],"stateMutability":"nonpayable"},{"type":"function","name":"slashingOracle","inputs":[],"outputs":[{"name":"","type":"address","internalType":"address"}],"stateMutability":"view"},{"type":"function","name":"submitHeartbeat","inputs":[{"name":"serviceId","type":"uint64","internalType":"uint64"},{"name":"blueprintId","type":"uint64","internalType":"uint64"},{"name":"statusCode","type":"uint8","internalType":"uint8"},{"name":"metrics","type":"bytes","internalType":"bytes"},{"name":"signature","type":"bytes","internalType":"bytes"}],"outputs":[],"stateMutability":"nonpayable"},{"type":"function","name":"submitHeartbeatDirect","inputs":[{"name":"serviceId","type":"uint64","internalType":"uint64"},{"name":"blueprintId","type":"uint64","internalType":"uint64"},{"name":"statusCode","type":"uint8","internalType":"uint8"},{"name":"metrics","type":"bytes","internalType":"bytes"}],"outputs":[],"stateMutability":"nonpayable"},{"type":"function","name":"tangleCore","inputs":[],"outputs":[{"name":"","type":"address","internalType":"address"}],"stateMutability":"view"},{"type":"function","name":"transferOwnership","inputs":[{"name":"newOwner","type":"address","internalType":"address"}],"outputs":[],"stateMutability":"nonpayable"},{"type":"event","name":"HeartbeatConfigUpdated","inputs":[{"name":"serviceId","type":"uint64","indexed":true,"internalType":"uint64"},{"name":"interval","type":"uint64","indexed":false,"internalType":"uint64"},{"name":"maxMissed","type":"uint8","indexed":false,"internalType":"uint8"}],"anonymous":false},{"type":"event","name":"HeartbeatReceived","inputs":[{"name":"serviceId","type":"uint64","indexed":true,"internalType":"uint64"},{"name":"blueprintId","type":"uint64","indexed":true,"internalType":"uint64"},{"name":"operator","type":"address","indexed":true,"internalType":"address"},{"name":"statusCode","type":"uint8","indexed":false,"internalType":"uint8"},{"name":"timestamp","type":"uint256","indexed":false,"internalType":"uint256"}],"anonymous":false},{"type":"event","name":"MetricReported","inputs":[{"name":"serviceId","type":"uint64","indexed":true,"internalType":"uint64"},{"name":"operator","type":"address","indexed":true,"internalType":"address"},{"name":"metricName","type":"string","indexed":false,"internalType":"string"},{"name":"value","type":"uint256","indexed":false,"internalType":"uint256"}],"anonymous":false},{"type":"event","name":"OperatorCameOnline","inputs":[{"name":"serviceId","type":"uint64","indexed":true,"internalType":"uint64"},{"name":"operator","type":"address","indexed":true,"internalType":"address"}],"anonymous":false},{"type":"event","name":"OperatorWentOffline","inputs":[{"name":"serviceId","type":"uint64","indexed":true,"internalType":"uint64"},{"name":"operator","type":"address","indexed":true,"internalType":"address"},{"name":"missedBeats","type":"uint8","indexed":false,"internalType":"uint8"}],"anonymous":false},{"type":"event","name":"OwnershipTransferStarted","inputs":[{"name":"previousOwner","type":"address","indexed":true,"internalType":"address"},{"name":"newOwner","type":"address","indexed":true,"internalType":"address"}],"anonymous":false},{"type":"event","name":"OwnershipTransferred","inputs":[{"name":"previousOwner","type":"address","indexed":true,"internalType":"address"},{"name":"newOwner","type":"address","indexed":true,"internalType":"address"}],"anonymous":false},{"type":"event","name":"SlashingTriggered","inputs":[{"name":"serviceId","type":"uint64","indexed":true,"internalType":"uint64"},{"name":"operator","type":"address","indexed":true,"internalType":"address"},{"name":"reason","type":"string","indexed":false,"internalType":"string"}],"anonymous":false},{"type":"event","name":"StatusChanged","inputs":[{"name":"serviceId","type":"uint64","indexed":true,"internalType":"uint64"},{"name":"operator","type":"address","indexed":true,"internalType":"address"},{"name":"oldStatus","type":"uint8","indexed":false,"internalType":"enum IOperatorStatusRegistry.StatusCode"},{"name":"newStatus","type":"uint8","indexed":false,"internalType":"enum IOperatorStatusRegistry.StatusCode"}],"anonymous":false},{"type":"error","name":"ECDSAInvalidSignature","inputs":[]},{"type":"error","name":"ECDSAInvalidSignatureLength","inputs":[{"name":"length","type":"uint256","internalType":"uint256"}]},{"type":"error","name":"ECDSAInvalidSignatureS","inputs":[{"name":"s","type":"bytes32","internalType":"bytes32"}]},{"type":"error","name":"OwnableInvalidOwner","inputs":[{"name":"owner","type":"address","internalType":"address"}]},{"type":"error","name":"OwnableUnauthorizedAccount","inputs":[{"name":"account","type":"address","internalType":"address"}]}],"bytecode":{"object":"0x60c0806040523461017a57604081612d15803803809161001f828561017e565b83398101031261017a57610032816101b5565b906001600160a01b0390610048906020016101b5565b1690811561016757600180546001600160a01b03199081169091555f80549182168417815560405193916001600160a01b0316907f8be0079c531659141344cd1fd0a4f28419497f9722a3daafe3b4186f6b6457e09080a360a05260208101907f8b73c3c69bb8fe3d512ecc4cf759cc79239f7b179b0ffacaa9a75d522b39400f82527f36ffc258c865193ae10c3cf640450ab772fdb8da1dfcae7862ad1205a5567f4c60408201527fc89efdaa54c0f20c7adf612882df0950f5a951637e0307cdcb4c672f298b8bc660608201524660808201523060a082015260a0815261013260c08261017e565b519020608052604051612b4b90816101ca823960805181611720015260a0518181816108720152818161145d0152611aa50152f35b631e4fbdf760e01b5f525f60045260245ffd5b5f80fd5b601f909101601f19168101906001600160401b038211908210176101a157604052565b634e487b7160e01b5f52604160045260245ffd5b51906001600160a01b038216820361017a5756fe6080806040526004361015610012575f80fd5b5f3560e01c9081630577855014611a81575080630758236f14611a2b5780630c76697a146119d8578063208129561461199557806322f1ec93146119055780632c957688146118e95780632dae1885146118c157806331e3bd1b146117435780633644e515146117095780633ac3cbe6146116ed5780633e6e34a71461165a57806340235a9c146115b05780635685cf681461150057806356c4e17d146114c057806359dcea121461148c5780635a936dc6146114485780635cce98a6146113f057806361d6b86c146113d557806362c7e8fc14611372578063715018a61461130f57806371e7388c146112115780637639d227146111b557806379ba5097146111305780637b9f64b2146110f857806384ef7322146110b55780638da5cb5b1461108e57806396686c1e14610fa65780639cbdae2214610f1b578063adff830c14610ded578063ae470a8514610bc4578063b074e9dd14610aa2578063b99f675914610845578063ba1fb1031461081b578063c1ef9ddf146106df578063c5d960bb146105d8578063cfe34749146105b0578063d413a58014610435578063d551162c146103e2578063da435a7c14610388578063e30c397814610360578063ee1c03901461032a578063f2fde38b146102b8578063f9107f3b1461023e5763f9f1676214610200575f80fd5b3461023a575f36600319011261023a5760206040517fe1675f8364c07a4d60a07503f0d700a7bcacd82251dff0f070e5235de6c6d28a8152f35b5f80fd5b3461023a57604036600319011261023a57610257611b93565b602435801515810361023a576001600160401b036102b69216805f52600560205261028f60018060a01b0360405f2054163314611fbf565b5f52600260205260405f209060ff60481b825491151560481b169060ff60481b1916179055565b005b3461023a57602036600319011261023a576102d1611bd5565b6102d96122b5565b60018060a01b0316806bffffffffffffffffffffffff60a01b600154161760015560018060a01b035f54167f38d16b8cac22d99fc7c124b9cd0de2d3fa1faef420bfe791d8c362d765e227005f80a3005b3461023a57604036600319011261023a576020610356610348611b93565b610350611bbf565b90612199565b6040519015158152f35b3461023a575f36600319011261023a576001546040516001600160a01b039091168152602090f35b3461023a57602036600319011261023a576001600160401b036103a9611b93565b165f526002602052606060405f205460ff604051916001600160401b0381168352818160401c16602084015260481c1615156040820152f35b3461023a5760206001600160401b03816103fb36611e9c565b949092165f526007835260405f209060018060a01b03165f52825260405f2083604051948593843782019081520301902054604051908152f35b3461023a5760a036600319011261023a5761044e611b93565b610456611ba9565b9061045f611e1d565b906064356001600160401b03811161023a5761047f903690600401611da1565b9290916084356001600160401b03811161023a5761055261054c6104aa61055b933690600401611da1565b919060405160208101906001600160401b0360c01b8860c01b1682526001600160401b0360c01b8c60c01b1660288201528a8a60308301376104ff6030828d81015f838201520301601f198101835282611cbc565b51902060405160208101917f19457468657265756d205369676e6564204d6573736167653a0a3332000000008352603c820152603c8152610541605c82611cbc565b519020923691611e48565b90612a02565b90929192612a3c565b336001600160a01b0390911603610577576102b69433916122c8565b60405162461bcd60e51b8152602060048201526011602482015270496e76616c6964207369676e617475726560781b6044820152606490fd5b3461023a575f36600319011261023a576008546040516001600160a01b039091168152602090f35b3461023a57602036600319011261023a576001600160401b036105f9611b93565b165f8181526003602090815260408083203384529091529020600101805460481c60ff16919060058310156106cb576003831461068657690400000000000000000060ff60481b19825416179055805f52600460205261065c3360405f206128d3565b5061066a6040518093611dce565b600460208301525f80516020612b1f83398151915260403393a3005b60405162461bcd60e51b815260206004820152601f60248201527f43616e6e6f7420676f206f66666c696e65207768696c6520736c6173686564006044820152606490fd5b634e487b7160e01b5f52602160045260245ffd5b3461023a57602036600319011261023a576001600160401b03610700611b93565b165f52600660205260405f2080549061071882611f10565b916107266040519384611cbc565b8083526020830180925f5260205f205f915b8383106107ce57848660405191829160208301906020845251809152604083019060408160051b85010192915f905b82821061077657505050500390f35b919360019193955060208091603f198982030185528751906060806107a48451608085526080850190611d7d565b93858101518685015260408101516040850152015115159101529601920192018594939192610767565b600460206001926040516107e181611c86565b6107ea86611cdd565b815284860154838201526002860154604082015260ff60038701541615156060820152815201920192019190610738565b3461023a57604036600319011261023a576102b6610837611b93565b61083f611bbf565b90612020565b3461023a57606036600319011261023a5761085e611b93565b610866611ba9565b61086e611e1d565b90337f00000000000000000000000000000000000000000000000000000000000000006001600160a01b0316148015610a7c575b8015610a54575b15610a1e576001600160401b031690603c82106109e45760ff16916001831061099f577fc9599ed962624a858ec59bae0ed86c75f4db65fe04570021277edbedd04ea564916001600160401b036040921693845f52600260205261099260ff845f205460481c1684519061091c82611ca1565b84825261097760ff6020840186815288850193151584528a5f5260026020526001600160401b03808a5f20965116166001600160401b03198654161785555116839060ff60401b82549160401b169060ff60401b1916179055565b51815460ff60481b191690151560481b60ff60481b16179055565b82519182526020820152a2005b60405162461bcd60e51b815260206004820152601760248201527f4d6178206d6973736564206d757374206265203e3d20310000000000000000006044820152606490fd5b60405162461bcd60e51b8152602060048201526012602482015271125b9d195c9d985b081d1bdbc81cda1bdc9d60721b6044820152606490fd5b60405162461bcd60e51b815260206004820152600e60248201526d139bdd08185d5d1a1bdc9a5e995960921b6044820152606490fd5b506001600160401b0383165f908152600560205260409020546001600160a01b0316156108a9565b506001600160401b0383165f52600560205260018060a01b0360405f20541633146108a2565b3461023a57602036600319011261023a576001600160401b03610ac3611b93565b165f8181526003602090815260408083203384529091529020600101805460481c60ff16919060058310156106cb5760038314610b7f57805469ffff0000000000000000191669010000000000000000001790555f818152600460205260409020610b2f9033906129ae565b50610b63604051809333847fc9862c5f02eefbdcea01c207ae538e1d304dc93026870f48951e48a0f4c8470c5f80a3611dce565b600160208301525f80516020612b1f83398151915260403393a3005b60405162461bcd60e51b815260206004820152601e60248201527f43616e6e6f7420676f206f6e6c696e65207768696c6520736c617368656400006044820152606490fd5b3461023a5760a036600319011261023a57610bdd611b93565b6024356001600160401b03811161023a57610bfc903690600401611da1565b909160843580151592919083900361023a576001600160401b0316805f526005602052610c3660018060a01b0360405f2054163314611fbf565b5f526006602052610c5960405f209360405192610c5284611c86565b3691611e48565b81526020810192604435845260408201906064358252606083019384528054600160401b811015610dc657610c9391600182018155611beb565b929092610dda5751938451946001600160401b038611610dc657610cb78454611c18565b601f8111610d81575b50602090601f8711600114610d1c57958091600396975f92610d11575b50508160011b915f1990871b1c19161783555b516001830155516002820155019051151560ff801983541691161790555f80f35b015190508780610cdd565b90601f19871691855f52815f20925f5b818110610d6957509160019391896003999a9410610d52575b505050811b018355610cf0565b01515f1983891b60f8161c19169055878080610d45565b92936020600181928786015181550195019301610d2c565b845f5260205f20601f880160051c81019160208910610dbc575b601f0160051c01905b818110610db15750610cc0565b5f8155600101610da4565b9091508190610d9b565b634e487b7160e01b5f52604160045260245ffd5b634e487b7160e01b5f525f60045260245ffd5b3461023a57610dfb36611e9c565b91929060018060a01b03600854163303610ee0576001600160401b037f1e2909cf45d70cf003f334b73c93330ce7e572782dfc82fab79deb8855a7c791921692835f52600360205260405f2060018060a01b0386165f52602052600160405f2001690300000000000000000060ff60481b19825416179055835f526004602052610e9260405f209560018060a01b031680966128d3565b50835f52600a60205260405f20855f5260205260405f206001600160401b03804216166001600160401b0319825416179055610edb604051928392602084526020840191611f9f565b0390a3005b60405162461bcd60e51b81526020600482015260136024820152724e6f7420736c617368696e67206f7261636c6560681b6044820152606490fd5b3461023a57606036600319011261023a57610f34611b93565b610f3c611bbf565b6044356001600160401b03811161023a5760209283926001600160401b03610f6985943690600401611e7e565b92165f526007835260405f209060018060a01b03165f52825260405f20604051938285935191829101845e82019081520301902054604051908152f35b3461023a57604036600319011261023a57610fbf611b93565b602435906001600160401b03821161023a573660238301121561023a578160040135916001600160401b03831161023a573660248460051b8301011161023a5782906001600160401b035f9316925b828110156102b6576024600582901b830101356001600160a01b038116919082900361023a57303b1561023a576040519163ba1fb10360e01b835285600484015260248301525f8260448183305af191821561108357600192611073575b500161100e565b5f61107d91611cbc565b8561106c565b6040513d5f823e3d90fd5b3461023a575f36600319011261023a575f546040516001600160a01b039091168152602090f35b3461023a57602036600319011261023a576110ce611bd5565b6110d66122b5565b600880546001600160a01b0319166001600160a01b0392909216919091179055005b3461023a57602036600319011261023a576001600160401b03611119611b93565b165f526004602052602060405f2054604051908152f35b3461023a575f36600319011261023a57600154336001600160a01b03909116036111a257600180546001600160a01b03199081169091555f805433928116831782556001600160a01b0316907f8be0079c531659141344cd1fd0a4f28419497f9722a3daafe3b4186f6b6457e09080a3005b63118cdaa760e01b5f523360045260245ffd5b3461023a57604036600319011261023a576111ce611b93565b6001600160401b036111de611bbf565b91165f52600a60205260405f209060018060a01b03165f5260205260206001600160401b0360405f205416604051908152f35b3461023a57604036600319011261023a5761122a611b93565b6001600160401b0361123a611bbf565b915f608060405161124a81611c6b565b8281528260208201528260408201528260608201520152165f52600360205260405f209060018060a01b03165f5260205260405f2060405161128b81611c6b565b8154815260018201549160208201906001600160401b038416825260ff6040840194818160401c16865260481c16606084019060058110156106cb5760a0956001600160401b0360026113079560ff94865201549560808801968752604051975188525116602087015251166040850152516060840190611dce565b516080820152f35b3461023a575f36600319011261023a576113276122b5565b600180546001600160a01b03199081169091555f80549182168155906001600160a01b03167f8be0079c531659141344cd1fd0a4f28419497f9722a3daafe3b4186f6b6457e08280a3005b3461023a57604036600319011261023a5761138b611b93565b6001600160401b0361139b611bbf565b91165f52600360205260405f209060018060a01b03165f52602052602060ff600160405f20015460481c166113d36040518092611dce565bf35b3461023a575f36600319011261023a57602060405160038152f35b3461023a57608036600319011261023a57611409611b93565b611411611ba9565b9061141a611e1d565b91606435926001600160401b03841161023a5761143e6102b6943690600401611da1565b93909233916122c8565b3461023a575f36600319011261023a576040517f00000000000000000000000000000000000000000000000000000000000000006001600160a01b03168152602090f35b3461023a57602036600319011261023a576114bc6114b06114ab611b93565b611f3b565b60405191829182611ddb565b0390f35b3461023a57602036600319011261023a576001600160401b036114e1611b93565b165f526005602052602060018060a01b0360405f205416604051908152f35b3461023a57604036600319011261023a57611519611b93565b6001600160401b03611529611bbf565b9116805f52600360205260405f2060018060a01b0383165f5260205260ff600160405f20015460481c1660058110156106cb5715908115611572575b6020826040519015158152f35b90505f52600360205260405f209060018060a01b03165f5260205260ff600160405f20015460481c1660058110156106cb5760016020911482611565565b3461023a57602036600319011261023a576001600160401b036115d1611b93565b16805f52600460205260405f20546115e881611f10565b916115f66040519384611cbc565b818352601f1961160583611f10565b013660208501375f5b82811061162357604051806114bc8682611ddb565b600190825f52600460205261163b8160405f20612665565b838060a01b0391549060031b1c166116538287611f27565b520161160e565b3461023a57604036600319011261023a57611673611b93565b6001600160401b03611683611bbf565b91165f52600360205260405f209060018060a01b03165f5260205260a060405f208054906116e660026001830154920154916040519384526001600160401b038116602085015260ff8160401c16604085015260ff606085019160481c16611dce565b6080820152f35b3461023a575f36600319011261023a576020604051610e108152f35b3461023a575f36600319011261023a5760206040517f00000000000000000000000000000000000000000000000000000000000000008152f35b3461023a57602036600319011261023a576004356001600160401b03811161023a57611773903690600401611da1565b81019060208183031261023a578035906001600160401b03821161023a57019080601f8301121561023a578135906117aa82611f10565b926117b86040519485611cbc565b82845260208401916020839460051b8301019181831161023a5760208101935b83851061185957858760405191829160208301906020845251809152604083019060408160051b85010192915f905b82821061181657505050500390f35b919360019193955060208091603f1989820301855287519082806118438451604085526040850190611d7d565b9301519101529601920192018594939192611807565b84356001600160401b03811161023a5782016040818503601f19011261023a576040519161188683611c50565b6020820135926001600160401b03841161023a576040836118ae886020809881980101611e7e565b83520135838201528152019401936117d8565b3461023a575f36600319011261023a576009546040516001600160a01b039091168152602090f35b3461023a575f36600319011261023a57602060405161012c8152f35b3461023a57604036600319011261023a5761191e611b93565b6001600160401b0360243591165f52600660205260405f20805482101561023a5761197f9161194c91611beb565b5061195681611cdd565b9060018101549060ff600360028301549201541690604051948594608086526080860190611d7d565b9260208501526040840152151560608301520390f35b3461023a57602036600319011261023a576119ae611bd5565b6119b66122b5565b600980546001600160a01b0319166001600160a01b0392909216919091179055005b3461023a57604036600319011261023a576119f1611b93565b6001600160401b03611a01611bbf565b91165f52600360205260405f209060018060a01b03165f52602052602060405f2054604051908152f35b3461023a57602036600319011261023a576060611a57611a49611b93565b611a51611ef2565b5061223f565b60408051916001600160401b03815116835260ff6020820151166020840152015115156040820152f35b3461023a57604036600319011261023a57611a9a611b93565b611aa2611bbf565b917f00000000000000000000000000000000000000000000000000000000000000006001600160a01b03163303611b5e57506001600160401b03165f818152600560205260409020546001600160a01b0316611b24575f90815260056020526040902080546001600160a01b0319166001600160a01b03909216919091179055005b60405162461bcd60e51b8152602060048201526012602482015271105b1c9958591e481c9959da5cdd195c995960721b6044820152606490fd5b62461bcd60e51b815260206004820152601060248201526f4f6e6c792054616e676c6520636f726560801b6044820152606490fd5b600435906001600160401b038216820361023a57565b602435906001600160401b038216820361023a57565b602435906001600160a01b038216820361023a57565b600435906001600160a01b038216820361023a57565b8054821015611c04575f5260205f209060021b01905f90565b634e487b7160e01b5f52603260045260245ffd5b90600182811c92168015611c46575b6020831014611c3257565b634e487b7160e01b5f52602260045260245ffd5b91607f1691611c27565b604081019081106001600160401b03821117610dc657604052565b60a081019081106001600160401b03821117610dc657604052565b608081019081106001600160401b03821117610dc657604052565b606081019081106001600160401b03821117610dc657604052565b90601f801991011681019081106001600160401b03821117610dc657604052565b9060405191825f825492611cf084611c18565b8084529360018116908115611d5b5750600114611d17575b50611d1592500383611cbc565b565b90505f9291925260205f20905f915b818310611d3f575050906020611d15928201015f611d08565b6020919350806001915483858901015201910190918492611d26565b905060209250611d1594915060ff191682840152151560051b8201015f611d08565b805180835260209291819084018484015e5f828201840152601f01601f1916010190565b9181601f8401121561023a578235916001600160401b03831161023a576020838186019501011161023a57565b9060058210156106cb5752565b60206040818301928281528451809452019201905f5b818110611dfe5750505090565b82516001600160a01b0316845260209384019390920191600101611df1565b6044359060ff8216820361023a57565b6001600160401b038111610dc657601f01601f191660200190565b929192611e5482611e2d565b91611e626040519384611cbc565b82948184528183011161023a578281602093845f960137010152565b9080601f8301121561023a57816020611e9993359101611e48565b90565b606060031982011261023a576004356001600160401b038116810361023a57916024356001600160a01b038116810361023a5791604435906001600160401b03821161023a57611eee91600401611da1565b9091565b60405190611eff82611ca1565b5f6040838281528260208201520152565b6001600160401b038111610dc65760051b60200190565b8051821015611c045760209160051b010190565b6001600160401b03611f4c8261223f565b91165f52600460205260ff602060405f20549201511615908115611f96575b50611f8857604051611f7e602082611cbc565b5f81525f36813790565b604051611f7e602082611cbc565b9050155f611f6b565b908060209392818452848401375f828201840152601f01601f1916010190565b15611fc657565b60405162461bcd60e51b81526020600482015260116024820152702737ba1039b2b93b34b1b29037bbb732b960791b6044820152606490fd5b9190820391821161200c57565b634e487b7160e01b5f52601160045260245ffd5b906001600160401b03821690815f52600360205260405f2060018060a01b0382165f5260205261205360405f209361223f565b9280548015612092576120669042611fff565b6001600160401b038551169081156121855760019160ff91041691019360ff855460401c168211612099575b5050505050565b845468ffffffffffffffffff191660ff60401b604084901b161785556020015160ff168110158061216a575b6120d0575b80612092565b835f80516020612b1f83398151915292847f44fd32b677704ce68e7763897c49733b8f5289018ac60a5c926802d63759db4d602060409560ff6121469a5460481c1695690200000000000000000060ff60481b19825416179055835f5260048252865f209460018060a01b0316998a80966128d3565b508651908152a361215982518092611dce565b60026020820152a35f8080806120ca565b5060ff845460481c1660058110156106cb57600214156120c5565b634e487b7160e01b5f52601260045260245ffd5b906001600160401b036121ab8361223f565b92165f52600360205260405f209060018060a01b03165f5260205260405f20604051906121d782611c6b565b8054825260ff60018201546001600160401b0381166020850152818160401c16604085015260481c169060058210156106cb57600291606084015201546080820152518015612239576122326001600160401b039142611fff565b9151161190565b50505f90565b6001600160401b0390612250611ef2565b50165f52600260205260405f206040519061226a82611ca1565b546001600160401b03811680835260ff8260401c169060ff602085019383855260481c1615156040850152156122ab575b156122a4575090565b6003905290565b61012c835261229b565b5f546001600160a01b031633036111a257565b949192906001600160401b03861695865f52600360205260405f2060018060a01b0386165f5260205260405f20946122ff8261223f565b90600187019460ff865460481c1697428155600261231e368a8d611e48565b6020815191012091015560ff60401b1986541686556001600160401b03865416906001600160401b03821461200c576001600160401b03600160ff9301166001600160401b0319885416178755169283155f1461253a575f965b600588101596876106cb57805460ff60481b191660488a901b60ff60481b1617905560058910156106cb576001600160401b03998b9460028b148a8161252b575b50918560407f658918e3147f13dd068ec21437b4c25c21682a8dc2129348671ead000db3e7b99795938197956124de575b01511515806124d5575b6124c3575b5050835196875250504260208601526001600160a01b03169889951693a46106cb578291849180820361248e575b50506009546001600160a01b031693915083905061244457505050565b823b1561023a5760645f92836040519586948593636a3c29db60e11b8552600485015260248401526001600160401b03421660448401525af16124845750565b5f611d1591611cbc565b5f80516020612b1f833981519152916124b96040926124af84518094611dce565b6020830190611dce565ba380825f80612427565b6124cc9361267a565b5f8080836123f9565b508215156123f4565b5f8a815260046020528290206001600160a01b038416906125009082906129ae565b508a7fc9862c5f02eefbdcea01c207ae538e1d304dc93026870f48951e48a0f4c8470c5f80a36123ea565b5f9a506002141590508a6123b9565b606484101561254b57600196612378565b60019660c88510612378576001600160401b0342168b5f52600a60205260405f2060018060a01b0385165f526020526001600160401b0360405f205416801590811561263e575b5061259e575b50612378565b8b5f52600a60205260405f2060018060a01b0385165f526020526001600160401b0360405f2091166001600160401b031982541617905560405160208152601b60208201527f50726f746f636f6c2076696f6c6174696f6e207265706f72746564000000000060408201528b7f1e2909cf45d70cf003f334b73c93330ce7e572782dfc82fab79deb8855a7c791606060018060a01b03871693a35f612598565b905081036001600160401b03811161200c576001600160401b03610e10911610155f612592565b8054821015611c04575f5260205f2001905f90565b939291909180156127a1576040516331e3bd1b60e01b815260206004820152915f91839182916126af91602484019190611f9f565b0381305afa5f91816127a8575b506126c75750509050565b925f5b84518110156127a1578060206126e260019388611f27565b5101516001600160401b03841690815f52600760205260405f20848060a01b0387165f5260205260208060405f2061271a868c611f27565b515190604051938285935191829101845e8201908152030190205561273f8288611f27565b5151907f23ed02bd3605bdea6a8afa76c46f00d274860ba6cea980f2585b696df9e182bd602061276f858b611f27565b5101519261278860405191604083526040830190611d7d565b93602082015280868060a01b038916940390a3016126ca565b5050509050565b9091503d805f833e6127ba8183611cbc565b81019060208183031261023a578051906001600160401b03821161023a57019080601f8301121561023a578151916127f183611f10565b926127ff6040519485611cbc565b80845260208085019160051b8301019183831161023a5760208101915b83831061282f575050505050905f6126bc565b82516001600160401b03811161023a578201906040828703601f19011261023a576040519061285d82611c50565b60208301516001600160401b03811161023a576020908401019187601f8401121561023a5782519261288e84611e2d565b9461289c6040519687611cbc565b848652896020868401011161023a576020955f8787819882604097018386015e83010152835201518382015281520192019161281c565b906001820191815f528260205260405f20548015155f146129a6575f19810181811161200c5782545f1981019190821161200c5781810361295b575b50505080548015612947575f1901906129288282612665565b8154905f199060031b1b19169055555f526020525f6040812055600190565b634e487b7160e01b5f52603160045260245ffd5b61299161296b61297b9386612665565b90549060031b1c92839286612665565b819391549060031b91821b915f19901b19161790565b90555f528360205260405f20555f808061290f565b505050505f90565b6001810190825f528160205260405f2054155f146129fb578054600160401b811015610dc6576129e861297b826001879401855584612665565b905554915f5260205260405f2055600190565b5050505f90565b8151919060418303612a3257612a2b9250602082015190606060408401519301515f1a90612a9c565b9192909190565b50505f9160029190565b60048110156106cb5780612a4e575050565b60018103612a655763f645eedf60e01b5f5260045ffd5b60028103612a80575063fce698f760e01b5f5260045260245ffd5b600314612a8a5750565b6335e2f38360e21b5f5260045260245ffd5b91907f7fffffffffffffffffffffffffffffff5d576e7357a4501ddfe92f46681b20a08411612b13579160209360809260ff5f9560405194855216868401526040830152606082015282805260015afa15611083575f516001600160a01b03811615612b0957905f905f90565b505f906001905f90565b5050505f916003919056fe228824b86c256469125f525ce18c6c2d0a9e133d13b8ec7a2c96a193b0c28a09a164736f6c634300081a000a","linkReferences":{}},"methodIdentifiers":{"DEFAULT_HEARTBEAT_INTERVAL()":"2c957688","DEFAULT_MAX_MISSED_HEARTBEATS()":"61d6b86c","DOMAIN_SEPARATOR()":"3644e515","HEARTBEAT_TYPEHASH()":"f9f16762","SLASH_ALERT_COOLDOWN()":"3ac3cbe6","acceptOwnership()":"79ba5097","addMetricDefinition(uint64,string,uint256,uint256,bool)":"ae470a85","checkOperatorStatus(uint64,address)":"ba1fb103","checkOperatorsStatus(uint64,address[])":"96686c1e","configureHeartbeat(uint64,uint64,uint8)":"b99f6759","decodeMetricPairs(bytes)":"31e3bd1b","enableCustomMetrics(uint64,bool)":"f9107f3b","getHeartbeatConfig(uint64)":"0758236f","getLastCriticalHeartbeat(uint64,address)":"7639d227","getLastHeartbeat(uint64,address)":"0c76697a","getMetricDefinitions(uint64)":"c1ef9ddf","getMetricValue(uint64,address,string)":"d551162c","getOnlineOperatorCount(uint64)":"7b9f64b2","getOnlineOperators(uint64)":"40235a9c","getOperatorState(uint64,address)":"71e7388c","getOperatorStatus(uint64,address)":"62c7e8fc","getSlashableOperators(uint64)":"59dcea12","goOffline(uint64)":"c5d960bb","goOnline(uint64)":"b074e9dd","heartbeatConfigs(uint64)":"da435a7c","isHeartbeatCurrent(uint64,address)":"ee1c0390","isOnline(uint64,address)":"5685cf68","metricValues(uint64,address,string)":"9cbdae22","metricsRecorder()":"2dae1885","operatorStates(uint64,address)":"3e6e34a7","owner()":"8da5cb5b","pendingOwner()":"e30c3978","registerServiceOwner(uint64,address)":"05778550","renounceOwnership()":"715018a6","reportForSlashing(uint64,address,string)":"adff830c","serviceMetrics(uint64,uint256)":"22f1ec93","serviceOwners(uint64)":"56c4e17d","setMetricsRecorder(address)":"20812956","setSlashingOracle(address)":"84ef7322","slashingOracle()":"cfe34749","submitHeartbeat(uint64,uint64,uint8,bytes,bytes)":"d413a580","submitHeartbeatDirect(uint64,uint64,uint8,bytes)":"5cce98a6","tangleCore()":"5a936dc6","transferOwnership(address)":"f2fde38b"},"id":225}