{"abi":[{"type":"constructor","inputs":[],"stateMutability":"nonpayable"},{"type":"receive","stateMutability":"payable"},{"type":"function","name":"ADMIN_ROLE","inputs":[],"outputs":[{"name":"","type":"bytes32","internalType":"bytes32"}],"stateMutability":"view"},{"type":"function","name":"ASSET_MANAGER_ROLE","inputs":[],"outputs":[{"name":"","type":"bytes32","internalType":"bytes32"}],"stateMutability":"view"},{"type":"function","name":"BPS_DENOMINATOR","inputs":[],"outputs":[{"name":"","type":"uint256","internalType":"uint256"}],"stateMutability":"view"},{"type":"function","name":"DEFAULT_ADMIN_ROLE","inputs":[],"outputs":[{"name":"","type":"bytes32","internalType":"bytes32"}],"stateMutability":"view"},{"type":"function","name":"LOCK_ONE_MONTH","inputs":[],"outputs":[{"name":"","type":"uint64","internalType":"uint64"}],"stateMutability":"view"},{"type":"function","name":"LOCK_SIX_MONTHS","inputs":[],"outputs":[{"name":"","type":"uint64","internalType":"uint64"}],"stateMutability":"view"},{"type":"function","name":"LOCK_THREE_MONTHS","inputs":[],"outputs":[{"name":"","type":"uint64","internalType":"uint64"}],"stateMutability":"view"},{"type":"function","name":"LOCK_TWO_MONTHS","inputs":[],"outputs":[{"name":"","type":"uint64","internalType":"uint64"}],"stateMutability":"view"},{"type":"function","name":"MULTIPLIER_NONE","inputs":[],"outputs":[{"name":"","type":"uint16","internalType":"uint16"}],"stateMutability":"view"},{"type":"function","name":"MULTIPLIER_ONE_MONTH","inputs":[],"outputs":[{"name":"","type":"uint16","internalType":"uint16"}],"stateMutability":"view"},{"type":"function","name":"MULTIPLIER_SIX_MONTHS","inputs":[],"outputs":[{"name":"","type":"uint16","internalType":"uint16"}],"stateMutability":"view"},{"type":"function","name":"MULTIPLIER_THREE_MONTHS","inputs":[],"outputs":[{"name":"","type":"uint16","internalType":"uint16"}],"stateMutability":"view"},{"type":"function","name":"MULTIPLIER_TWO_MONTHS","inputs":[],"outputs":[{"name":"","type":"uint16","internalType":"uint16"}],"stateMutability":"view"},{"type":"function","name":"PRECISION","inputs":[],"outputs":[{"name":"","type":"uint256","internalType":"uint256"}],"stateMutability":"view"},{"type":"function","name":"SLASHER_ROLE","inputs":[],"outputs":[{"name":"","type":"bytes32","internalType":"bytes32"}],"stateMutability":"view"},{"type":"function","name":"UPGRADE_INTERFACE_VERSION","inputs":[],"outputs":[{"name":"","type":"string","internalType":"string"}],"stateMutability":"view"},{"type":"function","name":"addBlueprint","inputs":[{"name":"blueprintId","type":"uint64","internalType":"uint64"}],"outputs":[],"stateMutability":"nonpayable"},{"type":"function","name":"addBlueprintToDelegation","inputs":[{"name":"delegationIndex","type":"uint256","internalType":"uint256"},{"name":"blueprintId","type":"uint64","internalType":"uint64"}],"outputs":[],"stateMutability":"nonpayable"},{"type":"function","name":"addSlasher","inputs":[{"name":"slasher","type":"address","internalType":"address"}],"outputs":[],"stateMutability":"nonpayable"},{"type":"function","name":"advanceRound","inputs":[],"outputs":[],"stateMutability":"nonpayable"},{"type":"function","name":"blueprintSlashCount","inputs":[{"name":"","type":"uint64","internalType":"uint64"},{"name":"","type":"address","internalType":"address"}],"outputs":[{"name":"","type":"uint64","internalType":"uint64"}],"stateMutability":"view"},{"type":"function","name":"claimDelegatorRewards","inputs":[],"outputs":[{"name":"totalRewards","type":"uint256","internalType":"uint256"}],"stateMutability":"nonpayable"},{"type":"function","name":"claimOperatorRewards","inputs":[],"outputs":[],"stateMutability":"nonpayable"},{"type":"function","name":"claimOperatorRewardsTo","inputs":[{"name":"recipient","type":"address","internalType":"address payable"}],"outputs":[],"stateMutability":"nonpayable"},{"type":"function","name":"completeLeaving","inputs":[],"outputs":[],"stateMutability":"nonpayable"},{"type":"function","name":"currentRound","inputs":[],"outputs":[{"name":"","type":"uint64","internalType":"uint64"}],"stateMutability":"view"},{"type":"function","name":"delegate","inputs":[{"name":"operator","type":"address","internalType":"address"},{"name":"amount","type":"uint256","internalType":"uint256"}],"outputs":[],"stateMutability":"nonpayable"},{"type":"function","name":"delegateWithOptions","inputs":[{"name":"operator","type":"address","internalType":"address"},{"name":"token","type":"address","internalType":"address"},{"name":"amount","type":"uint256","internalType":"uint256"},{"name":"selectionMode","type":"uint8","internalType":"enum Types.BlueprintSelectionMode"},{"name":"blueprintIds","type":"uint64[]","internalType":"uint64[]"}],"outputs":[],"stateMutability":"nonpayable"},{"type":"function","name":"delegationBondLessDelay","inputs":[],"outputs":[{"name":"","type":"uint64","internalType":"uint64"}],"stateMutability":"view"},{"type":"function","name":"deposit","inputs":[],"outputs":[],"stateMutability":"payable"},{"type":"function","name":"depositAndDelegate","inputs":[{"name":"operator","type":"address","internalType":"address"}],"outputs":[],"stateMutability":"payable"},{"type":"function","name":"depositAndDelegateWithOptions","inputs":[{"name":"operator","type":"address","internalType":"address"},{"name":"token","type":"address","internalType":"address"},{"name":"amount","type":"uint256","internalType":"uint256"},{"name":"selectionMode","type":"uint8","internalType":"enum Types.BlueprintSelectionMode"},{"name":"blueprintIds","type":"uint64[]","internalType":"uint64[]"}],"outputs":[],"stateMutability":"payable"},{"type":"function","name":"depositERC20","inputs":[{"name":"token","type":"address","internalType":"address"},{"name":"amount","type":"uint256","internalType":"uint256"}],"outputs":[],"stateMutability":"nonpayable"},{"type":"function","name":"depositERC20WithLock","inputs":[{"name":"token","type":"address","internalType":"address"},{"name":"amount","type":"uint256","internalType":"uint256"},{"name":"lockMultiplier","type":"uint8","internalType":"enum Types.LockMultiplier"}],"outputs":[],"stateMutability":"nonpayable"},{"type":"function","name":"depositWithLock","inputs":[{"name":"lockMultiplier","type":"uint8","internalType":"enum Types.LockMultiplier"}],"outputs":[],"stateMutability":"payable"},{"type":"function","name":"disableAsset","inputs":[{"name":"token","type":"address","internalType":"address"}],"outputs":[],"stateMutability":"nonpayable"},{"type":"function","name":"enableAsset","inputs":[{"name":"token","type":"address","internalType":"address"},{"name":"_minOperatorStake","type":"uint256","internalType":"uint256"},{"name":"_minDelegation","type":"uint256","internalType":"uint256"},{"name":"_depositCap","type":"uint256","internalType":"uint256"},{"name":"_rewardMultiplierBps","type":"uint16","internalType":"uint16"}],"outputs":[],"stateMutability":"nonpayable"},{"type":"function","name":"enableAssetWithAdapter","inputs":[{"name":"token","type":"address","internalType":"address"},{"name":"adapter","type":"address","internalType":"address"},{"name":"_minOperatorStake","type":"uint256","internalType":"uint256"},{"name":"_minDelegation","type":"uint256","internalType":"uint256"},{"name":"_depositCap","type":"uint256","internalType":"uint256"},{"name":"_rewardMultiplierBps","type":"uint16","internalType":"uint16"}],"outputs":[],"stateMutability":"nonpayable"},{"type":"function","name":"executeDelegatorUnstake","inputs":[],"outputs":[],"stateMutability":"nonpayable"},{"type":"function","name":"executeOperatorUnstake","inputs":[],"outputs":[],"stateMutability":"nonpayable"},{"type":"function","name":"executeWithdraw","inputs":[],"outputs":[],"stateMutability":"nonpayable"},{"type":"function","name":"getAssetAdapter","inputs":[{"name":"token","type":"address","internalType":"address"}],"outputs":[{"name":"","type":"address","internalType":"address"}],"stateMutability":"view"},{"type":"function","name":"getAssetConfig","inputs":[{"name":"token","type":"address","internalType":"address"}],"outputs":[{"name":"","type":"tuple","internalType":"struct Types.AssetConfig","components":[{"name":"enabled","type":"bool","internalType":"bool"},{"name":"minOperatorStake","type":"uint256","internalType":"uint256"},{"name":"minDelegation","type":"uint256","internalType":"uint256"},{"name":"depositCap","type":"uint256","internalType":"uint256"},{"name":"currentDeposits","type":"uint256","internalType":"uint256"},{"name":"rewardMultiplierBps","type":"uint16","internalType":"uint16"}]}],"stateMutability":"view"},{"type":"function","name":"getDelegation","inputs":[{"name":"delegator","type":"address","internalType":"address"},{"name":"operator","type":"address","internalType":"address"}],"outputs":[{"name":"","type":"uint256","internalType":"uint256"}],"stateMutability":"view"},{"type":"function","name":"getDelegationBlueprints","inputs":[{"name":"delegator","type":"address","internalType":"address"},{"name":"idx","type":"uint256","internalType":"uint256"}],"outputs":[{"name":"","type":"uint64[]","internalType":"uint64[]"}],"stateMutability":"view"},{"type":"function","name":"getDelegations","inputs":[{"name":"delegator","type":"address","internalType":"address"}],"outputs":[{"name":"","type":"tuple[]","internalType":"struct Types.BondInfoDelegator[]","components":[{"name":"operator","type":"address","internalType":"address"},{"name":"shares","type":"uint256","internalType":"uint256"},{"name":"asset","type":"tuple","internalType":"struct Types.Asset","components":[{"name":"kind","type":"uint8","internalType":"enum Types.AssetKind"},{"name":"token","type":"address","internalType":"address"}]},{"name":"selectionMode","type":"uint8","internalType":"enum Types.BlueprintSelectionMode"}]}],"stateMutability":"view"},{"type":"function","name":"getDeposit","inputs":[{"name":"delegator","type":"address","internalType":"address"},{"name":"token","type":"address","internalType":"address"}],"outputs":[{"name":"","type":"tuple","internalType":"struct Types.Deposit","components":[{"name":"amount","type":"uint256","internalType":"uint256"},{"name":"delegatedAmount","type":"uint256","internalType":"uint256"}]}],"stateMutability":"view"},{"type":"function","name":"getLocks","inputs":[{"name":"delegator","type":"address","internalType":"address"},{"name":"token","type":"address","internalType":"address"}],"outputs":[{"name":"","type":"tuple[]","internalType":"struct Types.LockInfo[]","components":[{"name":"amount","type":"uint256","internalType":"uint256"},{"name":"multiplier","type":"uint8","internalType":"enum Types.LockMultiplier"},{"name":"expiryBlock","type":"uint64","internalType":"uint64"}]}],"stateMutability":"view"},{"type":"function","name":"getOperatorBlueprints","inputs":[{"name":"operator","type":"address","internalType":"address"}],"outputs":[{"name":"","type":"uint256[]","internalType":"uint256[]"}],"stateMutability":"view"},{"type":"function","name":"getOperatorDelegatedStake","inputs":[{"name":"operator","type":"address","internalType":"address"}],"outputs":[{"name":"","type":"uint256","internalType":"uint256"}],"stateMutability":"view"},{"type":"function","name":"getOperatorDelegatorCount","inputs":[{"name":"operator","type":"address","internalType":"address"}],"outputs":[{"name":"","type":"uint256","internalType":"uint256"}],"stateMutability":"view"},{"type":"function","name":"getOperatorDelegators","inputs":[{"name":"operator","type":"address","internalType":"address"}],"outputs":[{"name":"","type":"address[]","internalType":"address[]"}],"stateMutability":"view"},{"type":"function","name":"getOperatorMetadata","inputs":[{"name":"operator","type":"address","internalType":"address"}],"outputs":[{"name":"","type":"tuple","internalType":"struct Types.OperatorMetadata","components":[{"name":"stake","type":"uint256","internalType":"uint256"},{"name":"delegationCount","type":"uint32","internalType":"uint32"},{"name":"status","type":"uint8","internalType":"enum Types.OperatorStatus"},{"name":"leavingRound","type":"uint64","internalType":"uint64"}]}],"stateMutability":"view"},{"type":"function","name":"getOperatorRewardPool","inputs":[{"name":"operator","type":"address","internalType":"address"}],"outputs":[{"name":"","type":"tuple","internalType":"struct Types.OperatorRewardPool","components":[{"name":"accRewardPerShare","type":"uint256","internalType":"uint256"},{"name":"totalShares","type":"uint256","internalType":"uint256"},{"name":"totalAssets","type":"uint256","internalType":"uint256"},{"name":"lastUpdateRound","type":"uint64","internalType":"uint64"}]}],"stateMutability":"view"},{"type":"function","name":"getOperatorSelfStake","inputs":[{"name":"operator","type":"address","internalType":"address"}],"outputs":[{"name":"","type":"uint256","internalType":"uint256"}],"stateMutability":"view"},{"type":"function","name":"getOperatorSlashFactor","inputs":[{"name":"operator","type":"address","internalType":"address"}],"outputs":[{"name":"","type":"uint256","internalType":"uint256"}],"stateMutability":"view"},{"type":"function","name":"getOperatorStake","inputs":[{"name":"operator","type":"address","internalType":"address"}],"outputs":[{"name":"","type":"uint256","internalType":"uint256"}],"stateMutability":"view"},{"type":"function","name":"getPendingDelegatorRewards","inputs":[{"name":"delegator","type":"address","internalType":"address"}],"outputs":[{"name":"","type":"uint256","internalType":"uint256"}],"stateMutability":"view"},{"type":"function","name":"getPendingOperatorRewards","inputs":[{"name":"operator","type":"address","internalType":"address"}],"outputs":[{"name":"","type":"uint256","internalType":"uint256"}],"stateMutability":"view"},{"type":"function","name":"getPendingUnstakes","inputs":[{"name":"delegator","type":"address","internalType":"address"}],"outputs":[{"name":"","type":"tuple[]","internalType":"struct Types.BondLessRequest[]","components":[{"name":"operator","type":"address","internalType":"address"},{"name":"asset","type":"tuple","internalType":"struct Types.Asset","components":[{"name":"kind","type":"uint8","internalType":"enum Types.AssetKind"},{"name":"token","type":"address","internalType":"address"}]},{"name":"shares","type":"uint256","internalType":"uint256"},{"name":"requestedRound","type":"uint64","internalType":"uint64"},{"name":"selectionMode","type":"uint8","internalType":"enum Types.BlueprintSelectionMode"},{"name":"slashFactorSnapshot","type":"uint256","internalType":"uint256"}]}],"stateMutability":"view"},{"type":"function","name":"getPendingWithdrawals","inputs":[{"name":"delegator","type":"address","internalType":"address"}],"outputs":[{"name":"","type":"tuple[]","internalType":"struct Types.WithdrawRequest[]","components":[{"name":"asset","type":"tuple","internalType":"struct Types.Asset","components":[{"name":"kind","type":"uint8","internalType":"enum Types.AssetKind"},{"name":"token","type":"address","internalType":"address"}]},{"name":"amount","type":"uint256","internalType":"uint256"},{"name":"requestedRound","type":"uint64","internalType":"uint64"}]}],"stateMutability":"view"},{"type":"function","name":"getRoleAdmin","inputs":[{"name":"role","type":"bytes32","internalType":"bytes32"}],"outputs":[{"name":"","type":"bytes32","internalType":"bytes32"}],"stateMutability":"view"},{"type":"function","name":"getSlashCount","inputs":[{"name":"operator","type":"address","internalType":"address"}],"outputs":[{"name":"","type":"uint64","internalType":"uint64"}],"stateMutability":"view"},{"type":"function","name":"getSlashCountForBlueprint","inputs":[{"name":"blueprintId","type":"uint64","internalType":"uint64"},{"name":"operator","type":"address","internalType":"address"}],"outputs":[{"name":"","type":"uint64","internalType":"uint64"}],"stateMutability":"view"},{"type":"function","name":"getSlashCountForService","inputs":[{"name":"serviceId","type":"uint64","internalType":"uint64"},{"name":"operator","type":"address","internalType":"address"}],"outputs":[{"name":"","type":"uint64","internalType":"uint64"}],"stateMutability":"view"},{"type":"function","name":"getSlashImpact","inputs":[{"name":"operator","type":"address","internalType":"address"},{"name":"slashId","type":"uint64","internalType":"uint64"},{"name":"delegator","type":"address","internalType":"address"}],"outputs":[{"name":"lostAmount","type":"uint256","internalType":"uint256"}],"stateMutability":"view"},{"type":"function","name":"getSlashRecord","inputs":[{"name":"operator","type":"address","internalType":"address"},{"name":"slashId","type":"uint64","internalType":"uint64"}],"outputs":[{"name":"","type":"tuple","internalType":"struct SlashingManager.SlashRecord","components":[{"name":"round","type":"uint64","internalType":"uint64"},{"name":"serviceId","type":"uint64","internalType":"uint64"},{"name":"blueprintId","type":"uint64","internalType":"uint64"},{"name":"totalSlashed","type":"uint256","internalType":"uint256"},{"name":"exchangeRateBefore","type":"uint256","internalType":"uint256"},{"name":"exchangeRateAfter","type":"uint256","internalType":"uint256"},{"name":"evidence","type":"bytes32","internalType":"bytes32"}]}],"stateMutability":"view"},{"type":"function","name":"getSnapshot","inputs":[{"name":"round","type":"uint64","internalType":"uint64"},{"name":"operator","type":"address","internalType":"address"}],"outputs":[{"name":"","type":"tuple","internalType":"struct Types.OperatorSnapshot","components":[{"name":"stake","type":"uint256","internalType":"uint256"},{"name":"totalDelegated","type":"uint256","internalType":"uint256"}]}],"stateMutability":"view"},{"type":"function","name":"getTotalDelegation","inputs":[{"name":"delegator","type":"address","internalType":"address"}],"outputs":[{"name":"total","type":"uint256","internalType":"uint256"}],"stateMutability":"view"},{"type":"function","name":"grantRole","inputs":[{"name":"role","type":"bytes32","internalType":"bytes32"},{"name":"account","type":"address","internalType":"address"}],"outputs":[],"stateMutability":"nonpayable"},{"type":"function","name":"hasRole","inputs":[{"name":"role","type":"bytes32","internalType":"bytes32"},{"name":"account","type":"address","internalType":"address"}],"outputs":[{"name":"","type":"bool","internalType":"bool"}],"stateMutability":"view"},{"type":"function","name":"increaseStake","inputs":[],"outputs":[],"stateMutability":"payable"},{"type":"function","name":"initialize","inputs":[{"name":"admin","type":"address","internalType":"address"},{"name":"nativeMinOperatorStake","type":"uint256","internalType":"uint256"},{"name":"nativeMinDelegation","type":"uint256","internalType":"uint256"},{"name":"_operatorCommissionBps","type":"uint16","internalType":"uint16"}],"outputs":[],"stateMutability":"nonpayable"},{"type":"function","name":"isOperator","inputs":[{"name":"operator","type":"address","internalType":"address"}],"outputs":[{"name":"","type":"bool","internalType":"bool"}],"stateMutability":"view"},{"type":"function","name":"isOperatorActive","inputs":[{"name":"operator","type":"address","internalType":"address"}],"outputs":[{"name":"","type":"bool","internalType":"bool"}],"stateMutability":"view"},{"type":"function","name":"isSlasher","inputs":[{"name":"account","type":"address","internalType":"address"}],"outputs":[{"name":"","type":"bool","internalType":"bool"}],"stateMutability":"view"},{"type":"function","name":"lastRoundAdvance","inputs":[],"outputs":[{"name":"","type":"uint64","internalType":"uint64"}],"stateMutability":"view"},{"type":"function","name":"leaveDelegatorsDelay","inputs":[],"outputs":[{"name":"","type":"uint64","internalType":"uint64"}],"stateMutability":"view"},{"type":"function","name":"leaveOperatorsDelay","inputs":[],"outputs":[{"name":"","type":"uint64","internalType":"uint64"}],"stateMutability":"view"},{"type":"function","name":"meetsStakeRequirement","inputs":[{"name":"operator","type":"address","internalType":"address"},{"name":"required","type":"uint256","internalType":"uint256"}],"outputs":[{"name":"","type":"bool","internalType":"bool"}],"stateMutability":"view"},{"type":"function","name":"minOperatorStake","inputs":[],"outputs":[{"name":"","type":"uint256","internalType":"uint256"}],"stateMutability":"view"},{"type":"function","name":"nativeEnabled","inputs":[],"outputs":[{"name":"","type":"bool","internalType":"bool"}],"stateMutability":"view"},{"type":"function","name":"nextSlashId","inputs":[{"name":"","type":"address","internalType":"address"}],"outputs":[{"name":"","type":"uint64","internalType":"uint64"}],"stateMutability":"view"},{"type":"function","name":"notifyReward","inputs":[{"name":"operator","type":"address","internalType":"address"},{"name":"serviceId","type":"uint64","internalType":"uint64"},{"name":"amount","type":"uint256","internalType":"uint256"}],"outputs":[],"stateMutability":"nonpayable"},{"type":"function","name":"notifyRewardForBlueprint","inputs":[{"name":"operator","type":"address","internalType":"address"},{"name":"blueprintId","type":"uint64","internalType":"uint64"},{"name":"serviceId","type":"uint64","internalType":"uint64"},{"name":"amount","type":"uint256","internalType":"uint256"}],"outputs":[],"stateMutability":"nonpayable"},{"type":"function","name":"operatorAt","inputs":[{"name":"index","type":"uint256","internalType":"uint256"}],"outputs":[{"name":"","type":"address","internalType":"address"}],"stateMutability":"view"},{"type":"function","name":"operatorCommissionBps","inputs":[],"outputs":[{"name":"","type":"uint16","internalType":"uint16"}],"stateMutability":"view"},{"type":"function","name":"operatorCount","inputs":[],"outputs":[{"name":"","type":"uint256","internalType":"uint256"}],"stateMutability":"view"},{"type":"function","name":"pause","inputs":[],"outputs":[],"stateMutability":"nonpayable"},{"type":"function","name":"paused","inputs":[],"outputs":[{"name":"","type":"bool","internalType":"bool"}],"stateMutability":"view"},{"type":"function","name":"proxiableUUID","inputs":[],"outputs":[{"name":"","type":"bytes32","internalType":"bytes32"}],"stateMutability":"view"},{"type":"function","name":"registerAdapter","inputs":[{"name":"token","type":"address","internalType":"address"},{"name":"adapter","type":"address","internalType":"address"}],"outputs":[],"stateMutability":"nonpayable"},{"type":"function","name":"registerOperator","inputs":[],"outputs":[],"stateMutability":"payable"},{"type":"function","name":"registerOperatorWithAsset","inputs":[{"name":"token","type":"address","internalType":"address"},{"name":"amount","type":"uint256","internalType":"uint256"}],"outputs":[],"stateMutability":"nonpayable"},{"type":"function","name":"removeAdapter","inputs":[{"name":"token","type":"address","internalType":"address"}],"outputs":[],"stateMutability":"nonpayable"},{"type":"function","name":"removeBlueprint","inputs":[{"name":"blueprintId","type":"uint64","internalType":"uint64"}],"outputs":[],"stateMutability":"nonpayable"},{"type":"function","name":"removeBlueprintFromDelegation","inputs":[{"name":"delegationIndex","type":"uint256","internalType":"uint256"},{"name":"blueprintId","type":"uint64","internalType":"uint64"}],"outputs":[],"stateMutability":"nonpayable"},{"type":"function","name":"removeSlasher","inputs":[{"name":"slasher","type":"address","internalType":"address"}],"outputs":[],"stateMutability":"nonpayable"},{"type":"function","name":"renounceRole","inputs":[{"name":"role","type":"bytes32","internalType":"bytes32"},{"name":"callerConfirmation","type":"address","internalType":"address"}],"outputs":[],"stateMutability":"nonpayable"},{"type":"function","name":"requireAdapters","inputs":[],"outputs":[{"name":"","type":"bool","internalType":"bool"}],"stateMutability":"view"},{"type":"function","name":"rescueTokens","inputs":[{"name":"token","type":"address","internalType":"address"},{"name":"to","type":"address","internalType":"address"},{"name":"amount","type":"uint256","internalType":"uint256"}],"outputs":[],"stateMutability":"nonpayable"},{"type":"function","name":"revokeRole","inputs":[{"name":"role","type":"bytes32","internalType":"bytes32"},{"name":"account","type":"address","internalType":"address"}],"outputs":[],"stateMutability":"nonpayable"},{"type":"function","name":"rewardsManager","inputs":[],"outputs":[{"name":"","type":"address","internalType":"address"}],"stateMutability":"view"},{"type":"function","name":"roundDuration","inputs":[],"outputs":[{"name":"","type":"uint64","internalType":"uint64"}],"stateMutability":"view"},{"type":"function","name":"scheduleDelegatorUnstake","inputs":[{"name":"operator","type":"address","internalType":"address"},{"name":"token","type":"address","internalType":"address"},{"name":"amount","type":"uint256","internalType":"uint256"}],"outputs":[],"stateMutability":"nonpayable"},{"type":"function","name":"scheduleOperatorUnstake","inputs":[{"name":"amount","type":"uint256","internalType":"uint256"}],"outputs":[],"stateMutability":"nonpayable"},{"type":"function","name":"scheduleWithdraw","inputs":[{"name":"token","type":"address","internalType":"address"},{"name":"amount","type":"uint256","internalType":"uint256"}],"outputs":[],"stateMutability":"nonpayable"},{"type":"function","name":"serviceFeeDistributor","inputs":[],"outputs":[{"name":"","type":"address","internalType":"address"}],"stateMutability":"view"},{"type":"function","name":"serviceSlashCount","inputs":[{"name":"","type":"uint64","internalType":"uint64"},{"name":"","type":"address","internalType":"address"}],"outputs":[{"name":"","type":"uint64","internalType":"uint64"}],"stateMutability":"view"},{"type":"function","name":"setDelays","inputs":[{"name":"_delegationBondLessDelay","type":"uint64","internalType":"uint64"},{"name":"_leaveDelegatorsDelay","type":"uint64","internalType":"uint64"},{"name":"_leaveOperatorsDelay","type":"uint64","internalType":"uint64"}],"outputs":[],"stateMutability":"nonpayable"},{"type":"function","name":"setOperatorCommission","inputs":[{"name":"bps","type":"uint16","internalType":"uint16"}],"outputs":[],"stateMutability":"nonpayable"},{"type":"function","name":"setRequireAdapters","inputs":[{"name":"required","type":"bool","internalType":"bool"}],"outputs":[],"stateMutability":"nonpayable"},{"type":"function","name":"setRewardsManager","inputs":[{"name":"manager","type":"address","internalType":"address"}],"outputs":[],"stateMutability":"nonpayable"},{"type":"function","name":"setServiceFeeDistributor","inputs":[{"name":"distributor","type":"address","internalType":"address"}],"outputs":[],"stateMutability":"nonpayable"},{"type":"function","name":"slash","inputs":[{"name":"operator","type":"address","internalType":"address"},{"name":"serviceId","type":"uint64","internalType":"uint64"},{"name":"amount","type":"uint256","internalType":"uint256"},{"name":"evidence","type":"bytes32","internalType":"bytes32"}],"outputs":[{"name":"actualSlashed","type":"uint256","internalType":"uint256"}],"stateMutability":"nonpayable"},{"type":"function","name":"slashForBlueprint","inputs":[{"name":"operator","type":"address","internalType":"address"},{"name":"blueprintId","type":"uint64","internalType":"uint64"},{"name":"serviceId","type":"uint64","internalType":"uint64"},{"name":"amount","type":"uint256","internalType":"uint256"},{"name":"evidence","type":"bytes32","internalType":"bytes32"}],"outputs":[{"name":"actualSlashed","type":"uint256","internalType":"uint256"}],"stateMutability":"nonpayable"},{"type":"function","name":"slashForService","inputs":[{"name":"operator","type":"address","internalType":"address"},{"name":"blueprintId","type":"uint64","internalType":"uint64"},{"name":"serviceId","type":"uint64","internalType":"uint64"},{"name":"commitments","type":"tuple[]","internalType":"struct Types.AssetSecurityCommitment[]","components":[{"name":"asset","type":"tuple","internalType":"struct Types.Asset","components":[{"name":"kind","type":"uint8","internalType":"enum Types.AssetKind"},{"name":"token","type":"address","internalType":"address"}]},{"name":"exposureBps","type":"uint16","internalType":"uint16"}]},{"name":"amount","type":"uint256","internalType":"uint256"},{"name":"evidence","type":"bytes32","internalType":"bytes32"}],"outputs":[{"name":"actualSlashed","type":"uint256","internalType":"uint256"}],"stateMutability":"nonpayable"},{"type":"function","name":"slashHistory","inputs":[{"name":"","type":"address","internalType":"address"},{"name":"","type":"uint64","internalType":"uint64"}],"outputs":[{"name":"round","type":"uint64","internalType":"uint64"},{"name":"serviceId","type":"uint64","internalType":"uint64"},{"name":"blueprintId","type":"uint64","internalType":"uint64"},{"name":"totalSlashed","type":"uint256","internalType":"uint256"},{"name":"exchangeRateBefore","type":"uint256","internalType":"uint256"},{"name":"exchangeRateAfter","type":"uint256","internalType":"uint256"},{"name":"evidence","type":"bytes32","internalType":"bytes32"}],"stateMutability":"view"},{"type":"function","name":"snapshotOperator","inputs":[{"name":"operator","type":"address","internalType":"address"}],"outputs":[],"stateMutability":"nonpayable"},{"type":"function","name":"startLeaving","inputs":[],"outputs":[],"stateMutability":"nonpayable"},{"type":"function","name":"supportsInterface","inputs":[{"name":"interfaceId","type":"bytes4","internalType":"bytes4"}],"outputs":[{"name":"","type":"bool","internalType":"bool"}],"stateMutability":"view"},{"type":"function","name":"undelegate","inputs":[{"name":"operator","type":"address","internalType":"address"},{"name":"amount","type":"uint256","internalType":"uint256"}],"outputs":[],"stateMutability":"nonpayable"},{"type":"function","name":"unpause","inputs":[],"outputs":[],"stateMutability":"nonpayable"},{"type":"function","name":"upgradeToAndCall","inputs":[{"name":"newImplementation","type":"address","internalType":"address"},{"name":"data","type":"bytes","internalType":"bytes"}],"outputs":[],"stateMutability":"payable"},{"type":"event","name":"AdapterRegistered","inputs":[{"name":"token","type":"address","indexed":true,"internalType":"address"},{"name":"adapter","type":"address","indexed":true,"internalType":"address"}],"anonymous":false},{"type":"event","name":"AdapterRemoved","inputs":[{"name":"token","type":"address","indexed":true,"internalType":"address"}],"anonymous":false},{"type":"event","name":"AssetDisabled","inputs":[{"name":"token","type":"address","indexed":true,"internalType":"address"}],"anonymous":false},{"type":"event","name":"AssetEnabled","inputs":[{"name":"token","type":"address","indexed":true,"internalType":"address"},{"name":"minOperatorStake","type":"uint256","indexed":false,"internalType":"uint256"},{"name":"minDelegation","type":"uint256","indexed":false,"internalType":"uint256"}],"anonymous":false},{"type":"event","name":"BlueprintAddedToDelegation","inputs":[{"name":"delegator","type":"address","indexed":true,"internalType":"address"},{"name":"delegationIndex","type":"uint256","indexed":true,"internalType":"uint256"},{"name":"blueprintId","type":"uint64","indexed":false,"internalType":"uint64"}],"anonymous":false},{"type":"event","name":"BlueprintRemovedFromDelegation","inputs":[{"name":"delegator","type":"address","indexed":true,"internalType":"address"},{"name":"delegationIndex","type":"uint256","indexed":true,"internalType":"uint256"},{"name":"blueprintId","type":"uint64","indexed":false,"internalType":"uint64"}],"anonymous":false},{"type":"event","name":"Delegated","inputs":[{"name":"delegator","type":"address","indexed":true,"internalType":"address"},{"name":"operator","type":"address","indexed":true,"internalType":"address"},{"name":"token","type":"address","indexed":true,"internalType":"address"},{"name":"amount","type":"uint256","indexed":false,"internalType":"uint256"},{"name":"shares","type":"uint256","indexed":false,"internalType":"uint256"},{"name":"selectionMode","type":"uint8","indexed":false,"internalType":"enum Types.BlueprintSelectionMode"}],"anonymous":false},{"type":"event","name":"DelegatorUnstakeExecuted","inputs":[{"name":"delegator","type":"address","indexed":true,"internalType":"address"},{"name":"operator","type":"address","indexed":true,"internalType":"address"},{"name":"token","type":"address","indexed":true,"internalType":"address"},{"name":"shares","type":"uint256","indexed":false,"internalType":"uint256"},{"name":"amount","type":"uint256","indexed":false,"internalType":"uint256"}],"anonymous":false},{"type":"event","name":"DelegatorUnstakeScheduled","inputs":[{"name":"delegator","type":"address","indexed":true,"internalType":"address"},{"name":"operator","type":"address","indexed":true,"internalType":"address"},{"name":"token","type":"address","indexed":true,"internalType":"address"},{"name":"shares","type":"uint256","indexed":false,"internalType":"uint256"},{"name":"estimatedAmount","type":"uint256","indexed":false,"internalType":"uint256"},{"name":"readyRound","type":"uint64","indexed":false,"internalType":"uint64"}],"anonymous":false},{"type":"event","name":"Deposited","inputs":[{"name":"delegator","type":"address","indexed":true,"internalType":"address"},{"name":"token","type":"address","indexed":true,"internalType":"address"},{"name":"amount","type":"uint256","indexed":false,"internalType":"uint256"},{"name":"lock","type":"uint8","indexed":false,"internalType":"enum Types.LockMultiplier"}],"anonymous":false},{"type":"event","name":"Initialized","inputs":[{"name":"version","type":"uint64","indexed":false,"internalType":"uint64"}],"anonymous":false},{"type":"event","name":"OperatorBlueprintAdded","inputs":[{"name":"operator","type":"address","indexed":true,"internalType":"address"},{"name":"blueprintId","type":"uint64","indexed":true,"internalType":"uint64"}],"anonymous":false},{"type":"event","name":"OperatorBlueprintRemoved","inputs":[{"name":"operator","type":"address","indexed":true,"internalType":"address"},{"name":"blueprintId","type":"uint64","indexed":true,"internalType":"uint64"}],"anonymous":false},{"type":"event","name":"OperatorLeavingScheduled","inputs":[{"name":"operator","type":"address","indexed":true,"internalType":"address"},{"name":"readyRound","type":"uint64","indexed":false,"internalType":"uint64"}],"anonymous":false},{"type":"event","name":"OperatorLeft","inputs":[{"name":"operator","type":"address","indexed":true,"internalType":"address"}],"anonymous":false},{"type":"event","name":"OperatorRegistered","inputs":[{"name":"operator","type":"address","indexed":true,"internalType":"address"},{"name":"stake","type":"uint256","indexed":false,"internalType":"uint256"}],"anonymous":false},{"type":"event","name":"OperatorSlashed","inputs":[{"name":"operator","type":"address","indexed":true,"internalType":"address"},{"name":"serviceId","type":"uint64","indexed":true,"internalType":"uint64"},{"name":"amount","type":"uint256","indexed":false,"internalType":"uint256"},{"name":"evidence","type":"bytes32","indexed":false,"internalType":"bytes32"}],"anonymous":false},{"type":"event","name":"OperatorStakeIncreased","inputs":[{"name":"operator","type":"address","indexed":true,"internalType":"address"},{"name":"amount","type":"uint256","indexed":false,"internalType":"uint256"}],"anonymous":false},{"type":"event","name":"OperatorUnstakeExecuted","inputs":[{"name":"operator","type":"address","indexed":true,"internalType":"address"},{"name":"amount","type":"uint256","indexed":false,"internalType":"uint256"}],"anonymous":false},{"type":"event","name":"OperatorUnstakeScheduled","inputs":[{"name":"operator","type":"address","indexed":true,"internalType":"address"},{"name":"amount","type":"uint256","indexed":false,"internalType":"uint256"},{"name":"readyRound","type":"uint64","indexed":false,"internalType":"uint64"}],"anonymous":false},{"type":"event","name":"Paused","inputs":[{"name":"account","type":"address","indexed":false,"internalType":"address"}],"anonymous":false},{"type":"event","name":"RequireAdaptersUpdated","inputs":[{"name":"required","type":"bool","indexed":false,"internalType":"bool"}],"anonymous":false},{"type":"event","name":"RewardClaimed","inputs":[{"name":"account","type":"address","indexed":true,"internalType":"address"},{"name":"amount","type":"uint256","indexed":false,"internalType":"uint256"}],"anonymous":false},{"type":"event","name":"RewardDistributed","inputs":[{"name":"operator","type":"address","indexed":true,"internalType":"address"},{"name":"amount","type":"uint256","indexed":false,"internalType":"uint256"}],"anonymous":false},{"type":"event","name":"RoleAdminChanged","inputs":[{"name":"role","type":"bytes32","indexed":true,"internalType":"bytes32"},{"name":"previousAdminRole","type":"bytes32","indexed":true,"internalType":"bytes32"},{"name":"newAdminRole","type":"bytes32","indexed":true,"internalType":"bytes32"}],"anonymous":false},{"type":"event","name":"RoleGranted","inputs":[{"name":"role","type":"bytes32","indexed":true,"internalType":"bytes32"},{"name":"account","type":"address","indexed":true,"internalType":"address"},{"name":"sender","type":"address","indexed":true,"internalType":"address"}],"anonymous":false},{"type":"event","name":"RoleRevoked","inputs":[{"name":"role","type":"bytes32","indexed":true,"internalType":"bytes32"},{"name":"account","type":"address","indexed":true,"internalType":"address"},{"name":"sender","type":"address","indexed":true,"internalType":"address"}],"anonymous":false},{"type":"event","name":"RoundAdvanced","inputs":[{"name":"round","type":"uint64","indexed":true,"internalType":"uint64"}],"anonymous":false},{"type":"event","name":"SlashRecorded","inputs":[{"name":"operator","type":"address","indexed":true,"internalType":"address"},{"name":"slashId","type":"uint64","indexed":true,"internalType":"uint64"},{"name":"totalSlashed","type":"uint256","indexed":false,"internalType":"uint256"},{"name":"exchangeRateBefore","type":"uint256","indexed":false,"internalType":"uint256"},{"name":"exchangeRateAfter","type":"uint256","indexed":false,"internalType":"uint256"}],"anonymous":false},{"type":"event","name":"Slashed","inputs":[{"name":"operator","type":"address","indexed":true,"internalType":"address"},{"name":"serviceId","type":"uint64","indexed":true,"internalType":"uint64"},{"name":"operatorSlashed","type":"uint256","indexed":false,"internalType":"uint256"},{"name":"delegatorsSlashed","type":"uint256","indexed":false,"internalType":"uint256"},{"name":"newExchangeRate","type":"uint256","indexed":false,"internalType":"uint256"}],"anonymous":false},{"type":"event","name":"SlashedForService","inputs":[{"name":"operator","type":"address","indexed":true,"internalType":"address"},{"name":"serviceId","type":"uint64","indexed":true,"internalType":"uint64"},{"name":"blueprintId","type":"uint64","indexed":true,"internalType":"uint64"},{"name":"totalSlashed","type":"uint256","indexed":false,"internalType":"uint256"},{"name":"commitmentCount","type":"uint256","indexed":false,"internalType":"uint256"}],"anonymous":false},{"type":"event","name":"Unpaused","inputs":[{"name":"account","type":"address","indexed":false,"internalType":"address"}],"anonymous":false},{"type":"event","name":"Upgraded","inputs":[{"name":"implementation","type":"address","indexed":true,"internalType":"address"}],"anonymous":false},{"type":"event","name":"WithdrawScheduled","inputs":[{"name":"delegator","type":"address","indexed":true,"internalType":"address"},{"name":"token","type":"address","indexed":true,"internalType":"address"},{"name":"amount","type":"uint256","indexed":false,"internalType":"uint256"},{"name":"readyRound","type":"uint64","indexed":false,"internalType":"uint64"}],"anonymous":false},{"type":"event","name":"Withdrawn","inputs":[{"name":"delegator","type":"address","indexed":true,"internalType":"address"},{"name":"token","type":"address","indexed":true,"internalType":"address"},{"name":"amount","type":"uint256","indexed":false,"internalType":"uint256"}],"anonymous":false},{"type":"error","name":"AccessControlBadConfirmation","inputs":[]},{"type":"error","name":"AccessControlUnauthorizedAccount","inputs":[{"name":"account","type":"address","internalType":"address"},{"name":"neededRole","type":"bytes32","internalType":"bytes32"}]},{"type":"error","name":"AddressEmptyCode","inputs":[{"name":"target","type":"address","internalType":"address"}]},{"type":"error","name":"AllModeDisallowsBlueprints","inputs":[]},{"type":"error","name":"AmountLocked","inputs":[{"name":"locked","type":"uint256","internalType":"uint256"},{"name":"requested","type":"uint256","internalType":"uint256"}]},{"type":"error","name":"AssetNotEnabled","inputs":[{"name":"asset","type":"address","internalType":"address"}]},{"type":"error","name":"BelowMinimumDeposit","inputs":[{"name":"minimum","type":"uint256","internalType":"uint256"},{"name":"provided","type":"uint256","internalType":"uint256"}]},{"type":"error","name":"BlueprintAlreadySelected","inputs":[{"name":"blueprintId","type":"uint64","internalType":"uint64"}]},{"type":"error","name":"BlueprintNotSelected","inputs":[{"name":"blueprintId","type":"uint64","internalType":"uint64"}]},{"type":"error","name":"CannotRemoveLastBlueprint","inputs":[]},{"type":"error","name":"DelegationNotFound","inputs":[{"name":"delegator","type":"address","internalType":"address"},{"name":"operator","type":"address","internalType":"address"}]},{"type":"error","name":"DepositCapExceeded","inputs":[{"name":"cap","type":"uint256","internalType":"uint256"},{"name":"current","type":"uint256","internalType":"uint256"},{"name":"adding","type":"uint256","internalType":"uint256"}]},{"type":"error","name":"ERC1967InvalidImplementation","inputs":[{"name":"implementation","type":"address","internalType":"address"}]},{"type":"error","name":"ERC1967NonPayable","inputs":[]},{"type":"error","name":"EnforcedPause","inputs":[]},{"type":"error","name":"ExpectedPause","inputs":[]},{"type":"error","name":"FailedCall","inputs":[]},{"type":"error","name":"FixedModeRequiresBlueprints","inputs":[]},{"type":"error","name":"InsufficientAvailableBalance","inputs":[{"name":"available","type":"uint256","internalType":"uint256"},{"name":"requested","type":"uint256","internalType":"uint256"}]},{"type":"error","name":"InsufficientDelegation","inputs":[{"name":"available","type":"uint256","internalType":"uint256"},{"name":"requested","type":"uint256","internalType":"uint256"}]},{"type":"error","name":"InsufficientDeposit","inputs":[{"name":"available","type":"uint256","internalType":"uint256"},{"name":"requested","type":"uint256","internalType":"uint256"}]},{"type":"error","name":"InsufficientStake","inputs":[{"name":"required","type":"uint256","internalType":"uint256"},{"name":"provided","type":"uint256","internalType":"uint256"}]},{"type":"error","name":"InvalidDelegationIndex","inputs":[{"name":"index","type":"uint256","internalType":"uint256"}]},{"type":"error","name":"InvalidInitialization","inputs":[]},{"type":"error","name":"InvalidLockMultiplier","inputs":[{"name":"value","type":"uint8","internalType":"uint8"}]},{"type":"error","name":"LeavingTooEarly","inputs":[{"name":"currentRound","type":"uint64","internalType":"uint64"},{"name":"requiredRound","type":"uint64","internalType":"uint64"}]},{"type":"error","name":"LegacySlashRequiresAllMode","inputs":[{"name":"operator","type":"address","internalType":"address"}]},{"type":"error","name":"NoRewardsToClaim","inputs":[]},{"type":"error","name":"NotFixedMode","inputs":[]},{"type":"error","name":"NotInitializing","inputs":[]},{"type":"error","name":"OperatorAlreadyRegistered","inputs":[{"name":"operator","type":"address","internalType":"address"}]},{"type":"error","name":"OperatorNotActive","inputs":[{"name":"operator","type":"address","internalType":"address"}]},{"type":"error","name":"OperatorNotLeaving","inputs":[{"name":"operator","type":"address","internalType":"address"}]},{"type":"error","name":"OperatorNotRegistered","inputs":[{"name":"operator","type":"address","internalType":"address"}]},{"type":"error","name":"ReentrancyGuardReentrantCall","inputs":[]},{"type":"error","name":"RoundAdvanceTooSoon","inputs":[{"name":"nextAllowedTime","type":"uint64","internalType":"uint64"},{"name":"currentTime","type":"uint64","internalType":"uint64"}]},{"type":"error","name":"SafeERC20FailedOperation","inputs":[{"name":"token","type":"address","internalType":"address"}]},{"type":"error","name":"SelectionModeMismatch","inputs":[]},{"type":"error","name":"TransferFailed","inputs":[]},{"type":"error","name":"UUPSUnauthorizedCallContext","inputs":[]},{"type":"error","name":"UUPSUnsupportedProxiableUUID","inputs":[{"name":"slot","type":"bytes32","internalType":"bytes32"}]},{"type":"error","name":"ZeroAddress","inputs":[]},{"type":"error","name":"ZeroAmount","inputs":[]}],"bytecode":{"object":"0x60a080604052346100e857306080527ff0c57e16840df040f15088dc2f81fe391c3923bec73e23a9662efc9c229c6a005460ff8160401c166100d9576002600160401b03196001600160401b03821601610073575b604051619f2d90816100ed82396080518181816139720152613a680152f35b6001600160401b0319166001600160401b039081177ff0c57e16840df040f15088dc2f81fe391c3923bec73e23a9662efc9c229c6a005581527fc7f505b2f371ae2175ee4913f4499e1f2633a7b5936321eed1cdaeb6115181d290602090a15f80610054565b63f92ee8a960e01b5f5260045ffd5b5f80fdfe6080604052600436101561001a575b3615610018575f80fd5b005b5f3560e01c80627910d01461582357806301ffc9a7146157cd578063026e402b1461579857806303587c1d146156fd578063037802111461567057806305d64e38146156485780630a8ddc5e146156055780630aa8b110146155675780630c8833ce146153f357806315049a5a1461529f578063168f6865146150b357806318056dc2146150975780631ba9998b14614fad57806323cc270014614beb578063248a9ca314614bcd5780632614233514614b9457806328e70ecc14614b335780632acde09814614a035780632e40f7fb146149dd5780632ee663b81461491a5780632f2ff15d146148e957806330224fc8146148b157806331cc13ba1461477a57806332273f6114614756578063354ebef914614677578063356924ea1461463b57806336568abe146145f75780633dcad9db146144345780633f4ba83a146143b657806344aff2521461427457806344d1480b14613fd7578063453eccea14613fbb578063461cc23b14613f85578063486398c314613f4d5780634962f88f146117635780634c4ede2d14613f2c5780634d99dd1614613c1f5780634de8addc14613bf65780634e9c929a1461248a5780634f1ef286146139ed5780635095af64146139c657806352d1902d1461396057806354de2320146139445780635722d512146137d557806357601c5d14613787578063585cd34b146136c75780635c975abb14613699578063615d24de1461367657806366c3687514612bfa57806368a9f19c1461364d5780636d70f7ae1461360b5780636ec3ab67146134f9578063708075281461345957806372b5032d14612b9e57806375b238fc1461341f57806377ab2cf3146133fd5780637b76fe5e1461339b5780637b9996c5146132495780637c6f31581461322c5780637d6941c6146131f75780637df92ada146131da5780638456cb5914613169578063859caa1814612e905780638770355014612db55780638a19c8bc14612d905780638a7fe60f14612d505780638c5b4ae714612d155780638d795d5014612cd157806391d1485414612c7c5780639494f42614612c3b5780639608567314612bfa5780639722f4b914612b9e57806397feb92614612b695780639e87058514612b4c5780639e8c49d414612ac4578063a217fddf14612aaa578063a299e298146129bd578063a3b9c5c2146128a9578063a457af3d14612780578063a4b32de814612746578063a7fa6f981461272a578063aac6aa9c14612701578063aaf5eb68146126df578063ad3cb1cc14612681578063b0dfce061461264d578063b54b2b9e1461262b578063ba05bbf51461260c578063c07449e2146125b0578063c35082a9146124e6578063c550d9381461248a578063c735302514612406578063cadd550c14612336578063cb15038b146122c5578063cbb6d6bd14611fec578063cea9d26f14611e3d578063d0e30db014611e1a578063d1736ba714611cee578063d27a6f0614611cd1578063d547741f14611c9b578063d655b92a14611b72578063d673e0b914611b3a578063d775cb6114611af4578063d9e257ef14611a50578063db8a173a14611a2a578063dc972ccc14611976578063defe20531461194e578063e0a5825b1461177f578063e1a4521814611763578063e1ee4bcc146114c5578063e4e88de814611475578063eb473533146113f5578063f0b52bb414611200578063f340c0d0146110ee578063f38c7c4e146110a6578063f3c4d8a014611021578063f3c9b31114611004578063f46913bb14610fc7578063f7cb789a14610f9f578063f8fd979514610adb578063fbcc7b3d14610a98578063fbec486114610a4d578063fc5e7e09146109c8578063fc8a91af146105c05763fd7d3dbc0361000e57346105bc576105a96105a3610585366162bf565b6105949692959694939461679b565b61059c61669b565b3691616613565b936183a3565b60015f80516020619ee183398151915255005b5f80fd5b346105bc576105ce36616285565b906105d761679b565b81156109b9576001600160a01b0316908161099d576040516105f8816161a1565b5f81525f6020820152915b61060c836171ec565b9260018060a01b03851694855f52601860205260405f2060028101549081158015610991575b1561094b57505083905b5f955f5b335f52601360205260405f205481101561093f57335f5260136020526106698160405f2061666e565b5080546001600160a01b03168a1480610928575b61068a5750600101610640565b92939495969750505f90335f52601560205260405f205f918154925b8381106108b457505050506106bf9060018301546163f1565b8381106108945750335f52601560205260405f20936106f060ff60036001600160401b035f541694015416936163c5565b90604051926106fe846161d7565b8984526020840191825260408401968688526060850191825260808501956107258161615b565b865260a085019384528054600160401b8110156108805761074b916001820181556166d3565b95909561086d57935185546001600160a01b0319166001600160a01b0391909116178555905180518a976004956107f7949390926107c19160018a019161079b906107958161615b565b83616760565b602001518154610100600160a81b03191660089190911b610100600160a81b0316179055565b5160028701556001600160401b038060038801935116166001600160401b031983541617825551906107f28261615b565b616778565b519101556001600160401b036001946108175f54838160c01c91166166ec565b9060405193845260208401521660408201527f06325d83435da87657b063c6142a5b91a66a7e811827d082d624287a9953c4ba60603392a45b1561085757005b6309078cff60e21b5f523360045260245260445ffd5b634e487b7160e01b5f525f60045260245ffd5b634e487b7160e01b5f52604160045260245ffd5b61089f879184618a3c565b6388c4fe8f60e01b5f5260045260245260445ffd5b8b6108bf82856166d3565b50546001600160a01b03161480610902575b6108de575b6001016106a6565b936108fa60019160026108f188876166d3565b500154906165ef565b9490506108d6565b508161092261091d600161091685886166d3565b500161671a565b6171ec565b146108d1565b508261093961091d6002840161671a565b1461067d565b50505050505050610850565b8161095d6001610962930154886163fe565b6165ef565b5f1981019190821161097d5761097791616411565b9061063c565b634e487b7160e01b5f52601160045260245ffd5b50600181015415610632565b6040516109a9816161a1565b6001815282602082015291610603565b631f2a200560e01b5f5260045ffd5b346105bc5760203660031901126105bc576109e16160e0565b5f906001600160a01b0316815b815f52601360205260405f2054831015610a4257610a3a600191835f526013602052610a34610a208660405f2061666e565b5084808060a01b0382541691015490618a3c565b906165ef565b9201916109ee565b602090604051908152f35b6105a96105a3610a5c366162bf565b610a6b9692959694939461679b565b610a7361669b565b6001600160a01b038416610a895761059c6176fc565b610a938585617c6f565b61059c565b346105bc5760203660031901126105bc57610ab16160e0565b610ab9616c9f565b602080546001600160a01b0319166001600160a01b0392909216919091179055005b346105bc575f3660031901126105bc57610af361669b565b5f335f52601260205260405f20905f90825492610b0f846165fc565b610b1c604051918261620d565b848152601f19610b2b866165fc565b01366020830137610b3b856165fc565b94610b49604051968761620d565b808652601f19610b58826165fc565b015f5b818110610f7c575050610b6d816165fc565b93610b7b604051958661620d565b818552601f19610b8a836165fc565b013660208701375f6001600160401b035f5416906001600160401b0360015416905b8987868310610ed457898b918983610d7e575b50505f5b828110610bdd5760015f80516020619ee183398151915255005b610be7818561674c565b5190610bf3818461674c565b51918051610c008161615b565b610c098161615b565b610cba5750905f80808093335af1610c1f6176cd565b5015610c7c576001905b818060a01b036020610c3b838861674c565b51015116610c49828561674c565b516040519081527fd1c19fbcd4551a5edfb66d43d2e337c04837afda3482b42bdf569a8fccdae5fb60203392a301610bc3565b60405162461bcd60e51b815260206004820152601660248201527513985d1a5d99481d1c985b9cd9995c8819985a5b195960521b6044820152606490fd5b602090810180516001600160a01b039081165f908152600690935260409092205490911692908315610d5f575060405163f3fef3a360e01b8152336004820152602481019190915291602090839060449082905f905af1918215610d5457600192610d26575b50610c29565b610d469060203d8111610d4d575b610d3e818361620d565b810190619546565b5085610d20565b503d610d34565b6040513d5f823e3d90fd5b5160019350610d79919033906001600160a01b0316618349565b610c29565b909192935f945f5b8454811015610e7557610d99818561674c565b5115610da8575b600101610d86565b95868103610dc4575b610dbc60019161670c565b969050610da0565b610dce878661838a565b50610dd9828761838a565b92909261086d578282610dbc93600195141580610dfc575b505050915050610db1565b6001600160401b03600281938193610e35575b8881015489870155015416920191166001600160401b0319825416179055898080610df1565b610e4360ff82541687616760565b80548654610100600160a81b031916600891821c60a08c901b8c90031690911b610100600160a81b0316178655610e0f565b5091509193925b845484811115610ec7578015610eb3575f1901610e99818761838a565b61086d576002815f80935582600182015501558555610e7c565b634e487b7160e01b5f52603160045260245ffd5b5091935091508380610bbf565b610ef6846001600160401b036002610eed87839661838a565b500154166166ec565b16841015610f08575b50600101610bac565b610f6d8a95610f48849c610f7394610f38610f32888f8f610f2c60019c8d9261674c565b5261838a565b5061671a565b610f42838361674c565b5261674c565b5083610f548d8c61838a565b500154610f61888d61674c565b52836108f18d8c61838a565b9461670c565b98905089610eff565b602090604051610f8b816161a1565b5f81525f8382015282828b01015201610b5b565b346105bc575f3660031901126105bc5760206001600160401b035f5460401c16604051908152f35b346105bc5760403660031901126105bc576001600160a01b03610fe86160e0565b165f52600a602052602060243560405f20541015604051908152f35b346105bc575f3660031901126105bc57602060405162ed4e008152f35b346105bc5760203660031901126105bc5760043561ffff81168082036105bc576127109061104d616c9f565b11611073576001805461ffff60801b191660809290921b61ffff60801b16919091179055005b60405162461bcd60e51b815260206004820152600b60248201526a496e76616c69642042505360a81b6044820152606490fd5b60203660031901126105bc5760043560058110156105bc576105a9906110ca61679b565b6110d261669b565b6040516110de816161a1565b5f81525f60208201523490619119565b346105bc5760203660031901126105bc576001600160a01b0361110f6160e0565b165f52601260205260405f20805490611127826165fc565b91611135604051938461620d565b8083526020830180925f5260205f205f915b8383106111b9578486604051918291602083019060208452518091526040830191905f5b818110611179575050500390f35b91935091602060806001926001600160401b036040885161119b848251616165565b8581015182850152015116606082015201940191019184939261116b565b600360206001926040516111cc816161bc565b6111d58661671a565b815284860154838201526001600160401b036002870154166040820152815201920192019190611147565b346105bc5760c03660031901126105bc576112196160e0565b6112216160f6565b906044356064359060a4359261ffff84168094036105bc57611241616d0e565b6001600160a01b03169361125685151561638c565b6001600160a01b03169161126b83151561654d565b60405163551c457b60e11b81526004810186905293602085602481875afa938415610d5457600561133061ffff926112ce6040987f9a4c59c56153245e23dcb8000e301b9a5e35b8e6693c5cdbf3b6a2aa0f8a37ea9a5f916113c6575b506165a3565b895f526006602052875f20816bffffffffffffffffffffffff60a01b8254161790558751908a7fc47df14ad9309b59073546f93dbe3115ed09c8b206d940f8441ddb07f745b10b5f80a3611321816161a1565b600181528960208201526171ec565b86519061133c826161d7565b60018252602082018781528883018781526060840191608435835260808501935f855260a086019889525f5260026020526113898b5f2095511515869060ff801983541691151516179055565b5160018501555160028401555160038301555160048201550191511661ffff198254161790556113b885618d4b565b5082519182526020820152a2005b6113e8915060203d6020116113ee575b6113e0818361620d565b81019061658b565b8c6112c8565b503d6113d6565b346105bc5760203660031901126105bc576001600160a01b036114166160e0565b16805f52600960205260405f2054151580611439575b6020906040519015158152f35b505f52600a60205260ff600160405f20015460201c166003811015611461576020901561142c565b634e487b7160e01b5f52602160045260245ffd5b346105bc5760203660031901126105bc5760206114bd6001600160a01b0361149b6160e0565b16805f52600a835260405f2054905f5260188352600260405f200154906165ef565b604051908152f35b346105bc5760403660031901126105bc576114de6160e0565b602435906114ea61679b565b81156109b9576001600160a01b031690816117485760405161150b816161a1565b5f81525f60208201525b61151e816171ec565b335f52601060205260405f20815f5260205260405f20908154906115466001840154836163f1565b905f90335f52601160205260405f20905f5260205260405f205f908054915b8281106116fc57505050808311156116f5578561158282856163f1565b106116de57508481106116c757508361159a916163f1565b9055335f52601260205260405f206001600160401b035f541690604051926115c1846161bc565b83526020830190848252604084019283528054600160401b811015610880576115ef9160018201815561838a565b93909361086d576001600160401b039260029261164285935161161c81516116168161615b565b89616760565b602001518754610100600160a81b03191660089190911b610100600160a81b0316178755565b5160018601555116920191166001600160401b03198254161790557f91eff7d39d2499d76ac21a1903a95a88f31589cb07b1ffdfb61db9f7cd8a39786116c26116a16001600160401b035f54166001600160401b0360015416906166ec565b604080519485526001600160401b0390911660208501523393918291820190565b0390a3005b849063adb9e04360e01b5f5260045260245260445ffd5b8590638ec3321160e01b5f5260045260245260445ffd5b855f611582565b6117068183618fd6565b506001600160401b0360014392015460081c1611611727575b600101611565565b926117406001916117388685618fd6565b5054906165ef565b93905061171f565b604051611754816161a1565b60018152826020820152611515565b346105bc575f3660031901126105bc5760206040516127108152f35b346105bc5760403660031901126105bc576117986160e0565b602435906117a461679b565b6117ac61669b565b335f52600960205260405f205461193b576001600160a01b03168015611928576117ea6040516117db816161a1565b600181528260208201526171ec565b5f52600260205260405f2060ff8154161561191557600183910154918282106118fe5761181b925030903390619691565b61182433618ce5565b5060405161183181616186565b818152602081015f8152604082015f815263ffffffff80600160608601955f8752335f52600a60205260405f2090518155019351161663ffffffff19835416178255516003811015611461576118bf926118936001600160401b039284616ea8565b5182546cffffffffffffffff00000000001916911660281b6cffffffffffffffff000000000016179055565b6040519081527fbc11617e575d658c74e921c8df22f8e48566072fa78145a6cfe18420bf8d0c4e60203392a260015f80516020619ee183398151915255005b50506322df051360e11b5f5260045260245260445ffd5b5063f6f24b8360e01b5f5260045260245ffd5b63f6f24b8360e01b5f525f60045260245ffd5b63866b0dcf60e01b5f523360045260245ffd5b346105bc575f3660031901126105bc57601f546040516001600160a01b039091168152602090f35b346105bc5760203660031901126105bc576001600160a01b036119976160e0565b165f52600c60205260405f20604051806020835491828152019081935f5260205f20905f5b818110611a1457505050816119d291038261620d565b604051918291602083019060208452518091526040830191905f5b8181106119fb575050500390f35b82518452859450602093840193909201916001016119ed565b82548452602090930192600192830192016119bc565b346105bc575f3660031901126105bc5760206001600160401b0360015416604051908152f35b5f3660031901126105bc57611a6361679b565b611a6b61669b565b335f52600a60205260405f2060ff600182015460201c16600381101561146157611ae15734156109b957611aa03482546165ef565b90556040513481527f614a3fa8467eb54cb60af3aab440279837c9fcd75c5a2617fe0af9c6e5e60e8360203392a260015f80516020619ee183398151915255005b6371ab6ad560e11b5f523360045260245ffd5b346105bc575f3660031901126105bc57611b21604051611b13816161a1565b5f81525f60208201526171ec565b5f5260026020526020600160405f200154604051908152f35b346105bc5760203660031901126105bc576001600160a01b03611b5b6160e0565b165f52600a602052602060405f2054604051908152f35b346105bc5760403660031901126105bc57611b8b6160e0565b611b936160f6565b90611b9c616d0e565b6001600160a01b0316908115611c56576001600160a01b031690611bc182151561654d565b60405163551c457b60e11b815260048101829052602081602481865afa8015610d5457611bf4915f91611c3757506165a3565b5f81815260066020526040812080546001600160a01b031916841790557fc47df14ad9309b59073546f93dbe3115ed09c8b206d940f8441ddb07f745b10b9080a3005b611c50915060203d6020116113ee576113e0818361620d565b846112c8565b60405162461bcd60e51b815260206004820152601d60248201527f43616e6e6f7420736574206164617074657220666f72206e61746976650000006044820152606490fd5b346105bc5760403660031901126105bc57610018600435611cba6160f6565b90611ccc611cc78261636e565b616dc6565b617631565b346105bc575f3660031901126105bc5760206040516276a7008152f35b346105bc575f3660031901126105bc57611d0661669b565b335f52600a60205260405f2060018101805460ff8160201c16600381101561146157600203611e07576001600160401b03805f54169160281c166001600160401b0360015460401c16906001600160401b03611d6283836166ec565b168310611ddd57611da55f8080808989828254925564010000000064ff0000000019825416179055611d93336193a0565b50335af1611d9f6176cd565b5061824c565b337f120599f8830115ed973189f8f4947cc793fcd90a15d47c4d6ad8d1a3f15af7345f80a260015f80516020619ee183398151915255005b6001600160401b039291611df0916166ec565b90631b04d91d60e21b5f526004521660245260445ffd5b639923c53960e01b5f523360045260245ffd5b5f3660031901126105bc57611e2d61679b565b611e3561669b565b6105a96176fc565b346105bc57611e4b36616285565b335f9081527fb7db2dd08fcb62d0c9e08c51941cae53c267786a0b75803fb7960902fc8ef97d60205260409020549192909160ff1615611fd5576001600160a01b03831615611f9c578115611f66576001600160a01b03165f81815260046020526040902054909290611f21575f838152600660205260409020546001600160a01b0316611edc5761001892618349565b60405162461bcd60e51b815260206004820152601b60248201527f43616e6e6f7420726573637565206164617074656420617373657400000000006044820152606490fd5b60405162461bcd60e51b815260206004820152601e60248201527f43616e6e6f7420726573637565207265676973746572656420617373657400006044820152606490fd5b60405162461bcd60e51b815260206004820152600e60248201526d125b9d985b1a5908185b5bdd5b9d60921b6044820152606490fd5b60405162461bcd60e51b8152602060048201526011602482015270125b9d985b1a59081c9958da5c1a595b9d607a1b6044820152606490fd5b63e2517d3f60e01b5f52336004525f60245260445ffd5b346105bc5760803660031901126105bc576120056160e0565b6064359061ffff821682036105bc575f80516020619f01833981519152549160ff8360401c1615926001600160401b038116801590816122bd575b60011490816122b3575b1590816122aa575b5061229b5767ffffffffffffffff1981166001175f80516020619f01833981519152556838000000000000000092612107918561226f575b5061209361960e565b61209b61960e565b6120a361960e565b6120ab61960e565b60ff195f80516020619ec183398151915254165f80516020619ec1833981519152556120d561960e565b6120dd61960e565b60015f80516020619ee1833981519152556120f781616f52565b5061210181616fe9565b506170a2565b50612117604051611b13816161a1565b61ffff6005604051612128816161d7565b6001815260208101602435815260408201604435815260608301905f825260808401925f845260a085019761271089525f52600260205261217c60405f2095511515869060ff801983541691151516179055565b5160018501555160028401555160038301555160048201550191511661ffff19825416179055600160ff196005541617600555601c600154781c0000000000000000000000000000546000000000000000016001600160401b0360801b4260801b16175f5567ffffffffffffffff60401b199261ffff60801b9060801b169071ffff0000000000000000ffffffffffffffff19161717161760015561221d57005b60ff60401b195f80516020619f0183398151915254165f80516020619f01833981519152557fc7f505b2f371ae2175ee4913f4499e1f2633a7b5936321eed1cdaeb6115181d2602060405160018152a1005b68ffffffffffffffffff191668010000000000000001175f80516020619f01833981519152558561208a565b63f92ee8a960e01b5f5260045ffd5b90501585612052565b303b15915061204a565b859150612040565b346105bc5760603660031901126105bc576122de6160e0565b60443560058110156105bc576122f261679b565b6122fa61669b565b6001600160a01b03821680156119285761231a6105a99360243590619555565b9060405190612328826161a1565b600182526020820152619119565b346105bc5760203660031901126105bc576001600160a01b036123576160e0565b16805f52600a60205260405f2060ff600182015460201c166003811015611461576123d4576001905491805f526018602052600260405f200154906040519361239f856161a1565b8452602084019182526001600160401b035f54165f52600e60205260405f20905f5260205260405f2092518355519101555f80f35b60405162461bcd60e51b815260206004820152600a6024820152694e6f742061637469766560b01b6044820152606490fd5b346105bc5760203660031901126105bc5761241f61610c565b335f52600a60205260ff600160405f20015460201c16600381101561146157611ae157335f52600c6020526124626001600160401b0360405f2092168092618d9b565b50337fb6d5e45d77b8967cff525b375be6e07f99ca5af91d88724ac1237aafe295d50e5f80a3005b346105bc5760403660031901126105bc576124a361610c565b6001600160401b036124b36160f6565b91165f52605460205260405f209060018060a01b03165f5260205260206001600160401b0360405f205416604051908152f35b346105bc5760403660031901126105bc576124ff6160e0565b6125076160f6565b61250f616517565b50612518616517565b506001600160a01b0316806125945750604051612534816161a1565b5f81525f6020820152905b6001600160a01b03165f9081526010602052604090209061255f906171ec565b5f5260205261259061257360405f2061652f565b604051918291829190916020806040830194805184520151910152565b0390f35b604051906125a1826161a1565b6001825260208201529061253f565b346105bc5760403660031901126105bc576125c961610c565b6001600160401b036125d96160f6565b916125e2616517565b50165f52600e60205260405f209060018060a01b03165f5260205261259061257360405f2061652f565b346105bc575f3660031901126105bc5760205f5460c01c604051908152f35b346105bc575f3660031901126105bc57602060ff600754166040519015158152f35b346105bc575f3660031901126105bc5761266561669b565b61266d61828a565b5060015f80516020619ee183398151915255005b346105bc575f3660031901126105bc5760408051906126a0818361620d565b600582526020820191640352e302e360dc1b83528151928391602083525180918160208501528484015e5f828201840152601f01601f19168101030190f35b346105bc575f3660031901126105bc576020604051670de0b6b3a76400008152f35b346105bc5760203660031901126105bc5761001861271d6160e0565b612725616c9f565b6175a0565b346105bc575f3660031901126105bc5760206040516132c88152f35b346105bc575f3660031901126105bc5760206040517fb1fadd3142ab2ad7f1337ea4d97112bcc8337fc11ce5b20cb04ad038adf998198152f35b346105bc5760403660031901126105bc576127996160e0565b6127a1616122565b905f60c06040516127b1816161f2565b8281528260208201528260408201528260608201528260808201528260a0820152015260018060a01b03165f5260516020526001600160401b0360405f2091165f5260205260e060405f20604051612808816161f2565b8154916001600160401b0383169283835260208301906001600160401b038160401c1682526001600160401b03604085019160801c1681526001600160401b0360018401549160608601928352816002860154946080880195865260c0600460038901549860a08b01998a520154980197885260405198895251166020880152511660408601525160608501525160808401525160a08301525160c0820152f35b346105bc5760603660031901126105bc576128c26160e0565b6128ca616122565b50604435906127106128e561ffff60015460801c16846163fe565b049161291d6128f484836163f1565b9260018060a01b03811694855f52601a60205261291660405f209182546165ef565b9055618fa0565b825f52601860205260405f20906001820191825415155f1461298c57670de0b6b3a7640000840293808504670de0b6b3a7640000149015171561097d576129806129795f80516020619e41833981519152956020955490616411565b82546165ef565b90555b604051908152a2005b50602091505f80516020619e4183398151915292845f52601a83526129b660405f209182546165ef565b9055612983565b346105bc5760203660031901126105bc576001600160a01b036129de6160e0565b16805f52600d60205260405f2054906129f6826165fc565b91612a04604051938461620d565b808352612a10816165fc565b602084019290601f19013684375f5b828110612a73578385604051918291602083019060208452518091526040830191905f5b818110612a51575050500390f35b82516001600160a01b0316845285945060209384019390920191600101612a43565b600190825f52600d602052612a8b8160405f20618cd0565b838060a01b0391549060031b1c16612aa3828861674c565b5201612a1f565b346105bc575f3660031901126105bc5760206040515f8152f35b346105bc5760c03660031901126105bc57612add6160e0565b612ae5616122565b612aed616138565b906064356001600160401b0381116105bc57366023820112156105bc5780600401356001600160401b0381116105bc5736602460608302840101116105bc576020946114bd94612b3b616d7d565b60a435946024608435950192617cc8565b346105bc575f3660031901126105bc57602060405162278d008152f35b346105bc5760403660031901126105bc576105a9612b856160e0565b612b8d61679b565b612b9561669b565b60243590617c6f565b346105bc5760403660031901126105bc57612bb761610c565b6001600160401b03612bc76160f6565b91165f52605360205260405f209060018060a01b03165f5260205260206001600160401b0360405f205416604051908152f35b346105bc5760203660031901126105bc576001600160a01b03612c1b6160e0565b165f52605260205260206001600160401b0360405f205416604051908152f35b346105bc5760603660031901126105bc57612c546160e0565b612c5c616122565b906044356001600160a01b03811681036105bc576020926114bd9261642f565b346105bc5760403660031901126105bc57612c956160f6565b6004355f525f80516020619ea183398151915260205260405f209060018060a01b03165f52602052602060ff60405f2054166040519015158152f35b346105bc5760a03660031901126105bc5760206114bd612cef6160e0565b612cf7616122565b90612d00616138565b612d08616d7d565b60843592606435926177b1565b346105bc5760203660031901126105bc576001600160a01b03612d366160e0565b165f5260186020526020600260405f200154604051908152f35b346105bc5760203660031901126105bc576001600160a01b03612d716160e0565b165f526006602052602060018060a01b0360405f205416604051908152f35b346105bc575f3660031901126105bc5760206001600160401b035f5416604051908152f35b346105bc575f3660031901126105bc57335f52600a602052600160405f200160ff815460201c16600381101561146157611ae157612e369064020000000064ff00000000198254161781556001600160401b035f54166cffffffffffffffff000000000082549160281b16906cffffffffffffffff00000000001916179055565b612e596001600160401b035f54166001600160401b0360015460401c16906166ec565b6001600160401b03604051911681527ffd47ed8e653fba5e6e9fcaa947419ca2334b3972ce196132ec69708574d6d35a60203392a2005b346105bc5760403660031901126105bc57600435612eac616122565b90612eb561679b565b335f52601360205260405f205481101561315757335f526013602052612ede8160405f2061666e565b5090600160ff600384015416612ef38161615b565b0361314857335f52601460205260405f20815f5260205260405f208054926001841115613139576001600160401b038516935f1993905f5b818110613106575b50505f1984146130f357335f908152601e6020908152604080832085546001600160a01b0316845282528083208884529091528120805491905583545f198101959190861161097d57612fad6001600160401b03612f9e612f9789612fcb95616411565b9888616e18565b90549060031b1c169286616e18565b81939154906001600160401b03809160031b9316831b921b19161790565b905582548015610eb3575f1901612fe28185616e18565b6001600160401b0382549160031b1b1916905583555f5b835481101561306157335f908152601e6020908152604080832086546001600160a01b031684529091529020600191906001600160401b038061303c8489616e18565b90549060031b1c16165f5260205260405f206130598782546165ef565b905501612ff9565b868383886040519081527fc38cef0d003bc8a9982db0d994b2ea048946028e9255cc061a56abcbb7d548a160203392a36020546001600160a01b0316806130a457005b81546001600160a01b031690803b156105bc5760025f80946130df60405197889687958694632d01c5cb60e01b865201903360048601616e56565b03925af16130e957005b5f6100189161620d565b84633062236b60e11b5f5260045260245ffd5b866001600160401b036131198388616e18565b90549060031b1c161461312e57600101612f2b565b945087905080612f33565b63301ac92560e21b5f5260045ffd5b63138dfed560e11b5f5260045ffd5b630b21815d60e11b5f5260045260245ffd5b346105bc575f3660031901126105bc57613181616c9f565b61318961679b565b600160ff195f80516020619ec18339815191525416175f80516020619ec1833981519152557f62e78cea01bee320cd4e420270b5ea74000d11b0c9f74754ebdbfc544b05a2586020604051338152a1005b346105bc575f3660031901126105bc576020604051624f1a008152f35b346105bc5760203660031901126105bc576004356001600160a01b03811681036105bc5761266d9061322761669b565b61771d565b346105bc575f3660031901126105bc576020600854604051908152f35b346105bc5760403660031901126105bc576001600160a01b0361326a6160e0565b165f52601460205260405f206024355f5260205260405f20604051908190602081549384815201905f5260205f20925f935b81600386011061334f57916125909484926132d9945491818110613335575b818110613318575b8181106132fb575b106132ed575b50038261620d565b604051918291602083526020830190616249565b60c01c8152602001856132d1565b9260206001916001600160401b038560801c1681520193016132cb565b9260206001916001600160401b038560401c1681520193016132c3565b9260206001916001600160401b03851681520193016132bb565b916001608060049285546001600160401b03811682526001600160401b038160401c1660208301526001600160401b0381841c16604083015260c01c606082015201930194019361329c565b346105bc5760203660031901126105bc576004358015158091036105bc5760207fe2c375ae70efa82f7f1d8e9555f83f2df5c692d66834ebabba9d897fca46f3df916133e5616d0e565b60ff196007541660ff821617600755604051908152a1005b346105bc575f3660031901126105bc57602060ff600554166040519015158152f35b346105bc575f3660031901126105bc5760206040517fa49807205ce4d355092ef5a8a18f56e8913cf4a201fbe287825b095693c217758152f35b346105bc5760203660031901126105bc576134726160e0565b61347a616d0e565b6001600160a01b0316806134db57613497604051611b13816161a1565b60ff19600554166005555b5f52600260205260405f2060ff1981541690557ffc9274ad64ab0a7d8dedd8c9297fb4e25d7a17eb057457c6bcf2a8f13dc8859c5f80a2005b6134ea6040516117db816161a1565b6134f3826192f5565b506134a2565b346105bc5760203660031901126105bc576135126160e0565b5f60a0604051613521816161d7565b8281526020810183905260408101839052606081018390526080810183905201526001600160a01b0316806135ed5750613560604051611b13816161a1565b5f52600260205260c060405f2061ffff60405161357c816161d7565b60ff8354161515928382526001810154602083019081526002820154604084019081526003830154916060850192835260a0866005600487015496608089019788520154169501948552604051968752516020870152516040860152516060850152516080840152511660a0820152f35b604051613560916135fd826161a1565b6001825260208201526171ec565b346105bc5760203660031901126105bc5760206136436001600160a01b036136316160e0565b165f52600960205260405f2054151590565b6040519015158152f35b346105bc5760203660031901126105bc576100186136696160e0565b613671616c9f565b616ecd565b346105bc5760203660031901126105bc5760206114bd6136946160e0565b6163c5565b346105bc575f3660031901126105bc57602060ff5f80516020619ec183398151915254166040519015158152f35b346105bc5760203660031901126105bc576136e06160e0565b6136e8616d0e565b6001600160a01b039081165f818152600660205260409020549091161561374a575f81815260066020526040812080546001600160a01b03191690557fdf980d21d8c7bb34800e668dbe003299093bac8e693614151d3c57f73f98a93d9080a2005b60405162461bcd60e51b8152602060048201526015602482015274139bc81859185c1d195c881c9959da5cdd195c9959605a1b6044820152606490fd5b346105bc5760203660031901126105bc576137a06160e0565b6001600160a01b03165f9081525f80516020619e61833981519152602090815260409182902054915160ff9092161515825290f35b346105bc5760203660031901126105bc576001600160a01b036137f66160e0565b165f52601560205260405f2080549061380e826165fc565b9161381c604051938461620d565b8083526020830180925f5260205f205f915b8383106138cd578486604051918291602083019060208452518091526040830191905f5b818110613860575050500390f35b91935091602060e060019260a087518580831b0381511683526138898582015186850190616165565b604081015160608401526001600160401b03606082015116608084015260808101516138b48161615b565b82840152015160c0820152019401910191849392613852565b600560206001926040516138e0816161d7565b848060a01b0386541681526138f685870161671a565b838201526002860154604082015260ff60038701546001600160401b038116606084015260401c166139278161615b565b6080820152600486015460a082015281520192019201919061382e565b346105bc575f3660031901126105bc576020604051612ee08152f35b346105bc575f3660031901126105bc577f00000000000000000000000000000000000000000000000000000000000000006001600160a01b031630036139b75760206040515f80516020619e218339815191528152f35b63703e46dd60e11b5f5260045ffd5b346105bc575f3660031901126105bc5760206040515f80516020619e818339815191528152f35b60403660031901126105bc57613a016160e0565b602435906001600160401b0382116105bc57366023830112156105bc57816004013590613a2d8261622e565b91613a3b604051938461620d565b808352602083019336602483830101116105bc57815f926024602093018737840101526001600160a01b037f000000000000000000000000000000000000000000000000000000000000000016308114908115613bd4575b506139b757613aa0616c9f565b6040516352d1902d60e01b81526001600160a01b0382169390602081600481885afa5f9181613ba0575b50613ae25784634c9c8ce360e01b5f5260045260245ffd5b805f80516020619e21833981519152869203613b8e5750823b15613b7c575f80516020619e2183398151915280546001600160a01b031916821790557fbc7cd75a20ee27fd9adebab32041f755214dbc6bffa90cc0225b39da2e5c2d3b5f80a2825115613b63575f8091610018945190845af4613b5d6176cd565b91619d5c565b50505034613b6d57005b63b398979f60e01b5f5260045ffd5b634c9c8ce360e01b5f5260045260245ffd5b632a87526960e21b5f5260045260245ffd5b9091506020813d602011613bcc575b81613bbc6020938361620d565b810103126105bc57519086613aca565b3d9150613baf565b5f80516020619e21833981519152546001600160a01b03161415905084613a93565b346105bc575f3660031901126105bc5760206001600160401b0360015460401c16604051908152f35b346105bc5760403660031901126105bc57613c386160e0565b60243590613c4461679b565b613c4c61669b565b81156109b95760405191613c5f836161a1565b5f83525f6020840152613c71836171ec565b9160018060a01b03811693845f52601860205260405f2060028101549081158015613f20575b15613ef4575050825b5f945f5b335f52601360205260405f2054811015613ee957335f526013602052613ccd8160405f2061666e565b5080546001600160a01b0316891480613ed2575b613cee5750600101613ca4565b929394959650505f90335f52601560205260405f205f918154925b838110613e735750505050613d229060018301546163f1565b828110613e685750335f52601560205260405f2092613d5360ff60036001600160401b035f541694015416956163c5565b60405191613d60836161d7565b888352602083019081526040830195858752606084019485526080840197613d878161615b565b885260a084019283528054600160401b81101561088057613dad916001820181556166d3565b94909461086d57925184546001600160a01b0319166001600160a01b03919091161784555180515f978a97600495613df79490936107c19160018a019161079b906107958161615b565b519101556001600160401b03600194613e178554838160c01c91166166ec565b9060405193845260208401521660408201527f06325d83435da87657b063c6142a5b91a66a7e811827d082d624287a9953c4ba60603392a45b156108575760015f80516020619ee183398151915255005b61089f869186618a3c565b8a613e7e82856166d3565b50546001600160a01b03161480613eb8575b613e9d575b600101613d09565b93613eb060019160026108f188876166d3565b949050613e95565b5081613ecc61091d600161091685886166d3565b14613e90565b5082613ee361091d6002840161671a565b14613ce1565b505050505050613e50565b8161095d6001613f06930154876163fe565b5f1981019190821161097d57613f1b91616411565b613ca0565b50600181015415613c97565b346105bc575f3660031901126105bc57613f4461669b565b61266d3361771d565b346105bc5760203660031901126105bc576001600160a01b03613f6e6160e0565b165f52600d602052602060405f2054604051908152f35b60203660031901126105bc576105a9613f9c6160e0565b613fa461679b565b613fac61669b565b613fb46176fc565b34906167c2565b346105bc575f3660031901126105bc576020604051613e808152f35b346105bc575f3660031901126105bc57613fef61669b565b5f805b335f52601360205260405f20548210156141f857335f52601360205261401b8260405f2061666e565b5060ff60038201541661402d8161615b565b6140c3576140b290600192670de0b6b3a764000061408285808060a01b03855416940154845f52601860205260405f2094335f52601960205260405f2090888060a01b03165f5260205260405f2094546163fe565b0482548082115f146140bb5761409890826163f1565b925b5f6140aa878301958654906165ef565b9455556165ef565b915b0190613ff2565b505f9261409a565b335f9081526014602090815260408083208684529091528120915490916001600160a01b03909116908190835b81548110156141e257956001876001600160401b03614110839a86616e18565b90549060031b1c16855f52601b60205260405f206001600160401b0382165f52602052670de0b6b3a764000061419e60405f20335f52601c60205260405f208a5f5260205260405f206001600160401b0385165f5260205260405f2093335f52601e60205260405f208b5f526020526001600160401b0360405f2091165f5260205260405f205490546163fe565b049080548083115f146141d6576141ca6141b95f92856163f1565b9a5b610a348785019c8d54906165ef565b995555019096506140f0565b505f6141ca819a6141bb565b505050506141f2906001926165ef565b916140b4565b8061421a575b60209060015f80516020619ee183398151915255604051908152f35b5f80808084335af161422a6176cd565b5015614265576020906040518181527f106f923f993c2149d49b4255ff723acafa1f2d94393f561d3eda32ae348f7241833392a290506141fe565b6312171d8360e31b5f5260045ffd5b346105bc5760203660031901126105bc5760043561429061679b565b335f52600a60205260405f2060ff600182015460201c16600381101561146157611ae15781156109b9576142c9604051611b13816161a1565b5f526002602052600160405f200154335f52600b6020526142f060405f20548093546163f1565b816142fb85836163f1565b10614396578361430b81856165ef565b6001600160401b03600181805f541660405194614327866161a1565b855260208501908152335f52600b60205260405f20945185555116920191166001600160401b03198254161790557ff7e874d9fd42838b0f06a44c7bbe45417b991e6b000e8ca4c5c1f086084a9cd36143916116a15f546001600160401b038160c01c91166166ec565b0390a2005b836143a0916163f1565b906322df051360e11b5f5260045260245260445ffd5b346105bc575f3660031901126105bc576143ce616c9f565b5f80516020619ec18339815191525460ff8116156144255760ff19165f80516020619ec1833981519152557f5db9ee0a495bf2e6ff9c91a7834c1ba4fdd244a5e8aa4e537bd38aeae4b073aa6020604051338152a1005b638dfc202b60e01b5f5260045ffd5b346105bc5760803660031901126105bc5761444d6160e0565b614455616122565b9061445e616138565b5060643561271061447861ffff60015460801c16836163fe565b04926144a961448785846163f1565b9360018060a01b03811695865f52601a60205261291660405f209182546165ef565b835f52601860205260405f209060018201918254806145c1575b5050845f52601b6020526001600160401b0360405f2091165f5260205260405f20906001600160401b035f54166001600160401b036003840191166001600160401b031982541617905560018201548015928315614571575b505092602092915f80516020619e418339815191529454159081614569575b5061454b575b50604051908152a2005b845f52601a835261456160405f209182546165ef565b905584614541565b90508661453b565b9392909491670de0b6b3a7640000830294838604670de0b6b3a7640000148415171561097d576145b46129795f80516020619e4183398151915298602098616411565b905591948193945061451c565b670de0b6b3a76400008602868104670de0b6b3a7640000148715171561097d576145ee9161297991616411565b905585806144c3565b346105bc5760403660031901126105bc576146106160f6565b336001600160a01b0382160361462c5761001890600435617631565b63334bd91960e11b5f5260045ffd5b346105bc5760803660031901126105bc5760206114bd6146596160e0565b614661616122565b9061466a616d7d565b6064359160443591617233565b346105bc5760a03660031901126105bc576146906160e0565b60243590604435906084359261ffff84168094036105bc577f9a4c59c56153245e23dcb8000e301b9a5e35b8e6693c5cdbf3b6a2aa0f8a37ea926040926146d5616d0e565b6001600160a01b0316946146ea86151561638c565b61ffff60056146fd8651611321816161a1565b865190614709826161d7565b60018252602082018781528883018781526060840191606435835260808501935f855260a086019889525f5260026020526113898b5f2095511515869060ff801983541691151516179055565b346105bc575f3660031901126105bc57602061ffff60015460801c16604051908152f35b346105bc5760203660031901126105bc576001600160a01b0361479b6160e0565b165f52601360205260405f208054906147b3826165fc565b916147c1604051938461620d565b8083526020830180925f5260205f205f915b838310614856578486604051918291602083019060208452518091526040830191905f5b818110614805575050500390f35b91935091602060a0600192606087518580851b038151168352848101518584015261483860408201516040850190616165565b01516148438161615b565b60808201520194019101918493926147f7565b6004602060019260405161486981616186565b848060a01b03865416815284860154838201526148886002870161671a565b604082015260ff60038701541661489e8161615b565b60608201528152019201920191906147d3565b346105bc5760203660031901126105bc576001600160a01b036148d26160e0565b165f52601a602052602060405f2054604051908152f35b346105bc5760403660031901126105bc576100186004356149086160f6565b90614915611cc78261636e565b61715b565b346105bc5760203660031901126105bc576149336160e0565b61493b61634a565b5061494461634a565b5060018060a01b03165f52600a60205260405f2060016040519161496783616186565b805483520154906020810163ffffffff8316815260ff8360201c16604083019160038210156114615763ffffffff9183526001600160401b03606085019560281c1685526040519351845251166020830152516003811015611461576080926001600160401b0391604084015251166060820152f35b346105bc575f3660031901126105bc57602080546040516001600160a01b039091168152f35b5f3660031901126105bc57614a1661679b565b614a1e61669b565b614a33335f52600960205260405f2054151590565b61193b57614a46604051611b13816161a1565b5f52600260205260405f2060ff815416156119285760010154803410614b1d57614a6f33618ce5565b50604051614a7c81616186565b348152602081015f8152604082015f815263ffffffff80600160608601955f8752335f52600a60205260405f2090518155019351161663ffffffff1983541617825551600381101561146157614ade926118936001600160401b039284616ea8565b6040513481527fbc11617e575d658c74e921c8df22f8e48566072fa78145a6cfe18420bf8d0c4e60203392a260015f80516020619ee183398151915255005b6322df051360e11b5f526004523460245260445ffd5b346105bc5760203660031901126105bc57614b4c61610c565b335f52600c602052614b6c6001600160401b0360405f209216809261944b565b50337f4b9bbf2ebc79e9fb39a64920934b3f458a486552d3df95395aa750ece9e970935f80a3005b346105bc5760203660031901126105bc576020614bb46004356008618cd0565b905460405160039290921b1c6001600160a01b03168152f35b346105bc5760203660031901126105bc5760206114bd60043561636e565b346105bc5760403660031901126105bc57600435614c07616122565b90614c1061679b565b335f52601360205260405f205481101561315757335f526013602052614c398160405f2061666e565b5090600160ff600384015416614c4e8161615b565b0361314857335f52601460205260405f20815f5260205260405f205f9080546001600160401b038616925b818110614f7357506001850154906001810180821161097d57614c9c9083616411565b9181614dea575b5050335f52601e60205260405f2060018060a01b0386541660018060a01b03165f5260205260405f20835f526020528060405f205560018060a01b038554165f52601b60205260405f20835f52602052614d24600260405f209260018401614d0c8282546165ef565b8091558181145f14614dc45750925b019182546165ef565b90558054600160401b81101561088057612fad8184936001614d4894018155616e18565b90556040519081527fa7b81e017abeb50ecf2c121cb0db7087dfc4b3cc85cd8d857f9a5f1e81f6484560203392a36020546001600160a01b031680614d8957005b81546001600160a01b031690803b156105bc5760025f80946130df604051978896879586946367b2734d60e01b865201903360048601616e56565b614dde614de492614dd885880154826163fe565b926163f1565b90616411565b92614d1b565b91614dfc614e01928298969794616411565b6163f1565b935f5b8354811015614f6657806001600160401b03614e2260019387616e18565b90549060031b1c16335f52601e60205260405f2090838060a01b0388541691848060a01b0383165f5260205260405f206001600160401b0382165f5260205260405f205491828a115f14614f5b57614e7a83806163f1565b90335f52601e60205260405f2090868060a01b03165f5260205260405f206001600160401b0383165f5260205260405f2055838060a01b038854165f52601b6020526001600160401b0360405f2091165f5260205260405f208381019081549083821015614eed575b5050505001614e04565b614ef9846002936163f1565b809355019182549182151580614f52575b15614f4c57614dde82614f2085614f26956163fe565b926165ef565b81811115614f3d5750505f905b5589808080614ee3565b614f46916163f1565b90614f33565b50614f26565b50801515614f0a565b614e7a8a80946163f1565b5092949093508680614ca3565b836001600160401b03614f868386616e18565b90549060031b1c1614614f9b57600101614c79565b8362d00d2f60e11b5f5260045260245ffd5b346105bc575f3660031901126105bc575f546001600160401b038160801c16614fe26001600160401b038360401c16826166ec565b90151580615085575b61505c57506001600160401b03615003818316616e39565b1680916001600160401b0360801b4260801b169077ffffffffffffffff0000000000000000ffffffffffffffff191617175f557f7cee7087baafdfa8f9d1bd39c560782e2eedf861e2648b232a805033537c56955f80a2005b6001600160401b039063274928d560e01b5f52166004526001600160401b03421660245260445ffd5b506001600160401b0381164210614feb565b346105bc575f3660031901126105bc576020604051612af88152f35b346105bc5760203660031901126105bc576150cc6160e0565b5f906001600160a01b0316815b815f52601360205260405f2054831015610a4257815f5260136020526151028360405f2061666e565b5060ff6003820154166151148161615b565b6151a357600191610a3461519092670de0b6b3a764000061516e868060a01b0383541692835f52601860205260405f2093895f52601960205260405f2090898060a01b03165f526020528760405f209454910154906163fe565b048154908181115f14615199578691615186916163f1565b915b0154906165ef565b925b01916150d9565b5050845f91615188565b5f8381526014602090815260408083208784529091528120805492549395936001600160a01b03169081905b8484106151e3575050505050600190615192565b60016152928199610a346001600160401b0361520489879d9a9b9c9d616e18565b90549060031b1c16865f52601b60205260405f206001600160401b0382165f52602052670de0b6b3a764000061516e60405f208b5f52601c60205260405f208b5f5260205260405f206001600160401b0385165f5260205260405f20938c5f52601e60205260405f208c5f526020526001600160401b0360405f2091165f5260205260405f205490546163fe565b95019396959497506151cf565b346105bc5760403660031901126105bc576152b86160e0565b6152c06160f6565b6001600160a01b039182169181165f805b845f52601360205260405f2054821015610a4257845f5260136020526152fa8260405f2061666e565b5080546001600160a01b03168490036153e95760ff60038201541661531e8161615b565b61533e57600191610a348361533593015487618a3c565b915b01906152d1565b5090845f52601460205260405f20815f5260205260405f205f8154915b82821061536d57505050600190615337565b91939460016153da8998939597829a5f52601e60205260405f20845f5260205260405f206001600160401b03806153a48a8a616e18565b90549060031b1c16165f52602052610a3460405f20546001600160401b036153cc8a8a616e18565b90549060031b1c1687618c8c565b9401919697509492939161535b565b5090600190615337565b346105bc5760403660031901126105bc5761540c6160e0565b6001600160a01b0361541c6160f6565b168061554b575060405161542f816161a1565b5f81525f6020820152905b6001600160a01b03165f9081526011602052604090209061545a906171ec565b5f5260205260405f2080549061546f826165fc565b9161547d604051938461620d565b8083526020830180925f5260205f205f915b838310615502578486604051918291602083019060208452518091526040830191905f5b8181106154c1575050500390f35b91935091602060606001926001600160401b0360408851805184526154ec868201518786019061614e565b01511660408201520194019101918493926154b3565b60026020600192604051615515816161bc565b855481526001600160401b038587015461553460ff8216868501616e0c565b60081c16604082015281520192019201919061548f565b60405190615558826161a1565b6001825260208201529061543a565b346105bc5760403660031901126105bc576155806160e0565b615588616122565b9060018060a01b03165f5260516020526001600160401b0360405f2091165f5260205260e060405f20805490600181015490600281015460046003830154920154926001600160401b03604051958181168752818160401c16602088015260801c1660408601526060850152608084015260a083015260c0820152f35b346105bc5760203660031901126105bc5761561e6160e0565b615626616c9f565b601f80546001600160a01b0319166001600160a01b0392909216919091179055005b346105bc575f3660031901126105bc5760206001600160401b035f5460801c16604051908152f35b346105bc5760603660031901126105bc5761568961610c565b615691616122565b9061569a616138565b906156a3616c9f565b5f54906001600160401b0360c01b9060c01b169060018060c01b0316175f556001600160401b0367ffffffffffffffff60401b6001549260401b169216906fffffffffffffffffffffffffffffffff191617176001555f80f35b346105bc5760203660031901126105bc576157166160e0565b61571e61634a565b5061572761634a565b5060018060a01b03165f526018602052608060405f206001600160401b0360405161575181616186565b825492838252600181015460208301908152606084600360028501549460408701958652015416930192835260405194855251602085015251604084015251166060820152f35b346105bc5760403660031901126105bc576105a96157b46160e0565b6157bc61679b565b6157c461669b565b602435906167c2565b346105bc5760203660031901126105bc5760043563ffffffff60e01b81168091036105bc57602090637965db0b60e01b8114908115615812575b506040519015158152f35b6301ffc9a760e01b14905082615807565b346105bc575f3660031901126105bc5761583b61669b565b5f335f52601560205260405f20905f5b82548110156105a95761585e81846166d3565b50915f546001600160401b038061587f816003880154168460c01c906166ec565b169116106160d05761589661091d6001850161671a565b916158c760018060a01b038554166158b2600287015482618a3c565b906158c16004880154916163c5565b91618a77565b935f5b335f5260136020528560405f20548210156160c15750335f5260136020526158f58160405f2061666e565b50805483546001600160a01b03908116911614806160aa575b61591b57506001016158ca565b93600385979297019660ff885416956159338761615b565b60018714801561608957335f52601460205260405f20835f5260205260405f2060405180602083549182815201925f5260205f20905f915b81600384011061603957936159a79284926159ad96549181811061601f575b818110616002575b818110615fe5575b10615fd75750038261620d565b9861615b565b80615fcd575b615ef0575b60018060a01b038554169760ff60028701549a541697612710906159de6001890161671a565b995f6159e98261615b565b81615ec957506159f88c618fa0565b8b5f52601860205260405f209c335f52601960205260405f208d60018060a01b03165f5260205260405f209b5f9c5f5b335f52601360205260405f2054811015615aa3578f335f526013602052615a528260405f2061666e565b509060018060a01b038254161480615a8b575b615a73575b50600101615a28565b6001919f82615a84920154906165ef565b9e90615a6a565b5060ff600382015416615a9d8161615b565b15615a65565b509d8a9f9e615b27989a9d9f8c9d9f670de0b6b3a764000091615b0f919e969798999a9c9e80615e8a575b5f9860018301615adf8282546163f1565b90556002830180548a81811115615e7b5750505f905b5580821115615e7257615b07916163f1565b905b546163fe565b0490555b615b218785858585336198f5565b33619a34565b615b3b6001600288015493019283546163f1565b8255335f52601060205260405f20905f52602052600160405f2001615b6a81548086115f14615e6b57806163f1565b90555415615cf4575b50615b7d916165ef565b9260018060a01b0382541690600260018060a01b03600185015460081c169301549060405191825260208201527fe4183514c7483039538cd1f9ca20e489b3c411f3af1211cf6b5ad0a00ca4e22860403392a482545f19810190811161097d57615be790846166d3565b50615bf282856166d3565b91909161086d57808203615c3e575b505082548015610eb3575f1901615c1881856166d3565b61086d576004815f8093558260018201558260028201558260038201550155835561584b565b805482546001600160a01b0319166001600160a01b039190911617825560049081906001808201908501828603615cbc575b505060028101546002850155615cb06003850160ff600384016001600160401b0380825416166001600160401b03198454161783555460401c1690616778565b01549101558380615c01565b81615cce60ff615ced94541683616760565b548154610100600160a81b031916610100600160a81b03909116179055565b8780615c70565b905060018060a01b038354165f52600a602052600160405f200163ffffffff815416801561097d57815463ffffffff19165f1991820163ffffffff1617909155335f908152601360205260409020805491820191821161097d57615d6e91615d5b9161666e565b5091335f52601360205260405f2061666e565b61086d57818103615dfd575b5050335f52601360205260405f209081548015610eb3575f190190615d9f828461666e565b92909261086d57615b7d935f600385828b975582600182015582600282015501555560018060a01b03845416615dd58133617bec565b15615de2575b5091615b73565b5f52600d602052615df63360405f2061944b565b5087615ddb565b815481546001600160a01b0319166001600160a01b039190911617815560018083015490820155615e4c9160039060ff9082906002808201908601828703615e53575b50500154169101616760565b8580615d7a565b81615cce86615e6494541683616760565b8b80615e40565b85906163f1565b50505f90615b09565b615e84916163f1565b90615af5565b83615e968284546163fe565b0485548082115f14615ec157615eab916163f1565b615eba600187019182546165ef565b9055615ace565b50505f615eab565b909192939597809d9b8d615eeb615b27989a9d9f849d9f855f918a93336196d5565b615b13565b97939692909491615f076002890154885190616411565b955f5b8851811015615fbe57335f908152601e602090815260408083208d546001600160a01b0316808552925290912060019291906001600160401b0380615f4f858f61674c565b5116165f5260205260405f20548a8181115f14615faf5750505f905b335f52601e60205260405f2090848060a01b03165f526020528a6001600160401b0380615f9c8560405f209461674c565b5116165f5260205260405f205501615f0a565b615fb8916163f1565b90615f6b565b509193979498909295506159b8565b50865115156159b3565b60c01c81526020015f6132d1565b9260206001916001600160401b038560801c16815201930161599a565b9260206001916001600160401b038560401c168152019301615992565b9260206001916001600160401b038516815201930161598a565b92936001608060049286546001600160401b03811682526001600160401b038160401c1660208301526001600160401b0381841c16604083015260c01c606082015201940192019193929361596b565b6159ad60206040519061609c818361620d565b5f8252505f3681379861615b565b50856160bb61091d6002840161671a565b1461590e565b91939050615b7d9294506165ef565b91506160db9061670c565b61584b565b600435906001600160a01b03821682036105bc57565b602435906001600160a01b03821682036105bc57565b600435906001600160401b03821682036105bc57565b602435906001600160401b03821682036105bc57565b604435906001600160401b03821682036105bc57565b9060058210156114615752565b6002111561146157565b60209080516161738161615b565b83528101516001600160a01b0316910152565b608081019081106001600160401b0382111761088057604052565b604081019081106001600160401b0382111761088057604052565b606081019081106001600160401b0382111761088057604052565b60c081019081106001600160401b0382111761088057604052565b60e081019081106001600160401b0382111761088057604052565b90601f801991011681019081106001600160401b0382111761088057604052565b6001600160401b03811161088057601f01601f191660200190565b90602080835192838152019201905f5b8181106162665750505090565b82516001600160401b0316845260209384019390920191600101616259565b60609060031901126105bc576004356001600160a01b03811681036105bc57906024356001600160a01b03811681036105bc579060443590565b9060a06003198301126105bc576004356001600160a01b03811681036105bc57916024356001600160a01b03811681036105bc57916044359160643560028110156105bc57916084356001600160401b0381116105bc57826023820112156105bc578060040135926001600160401b0384116105bc5760248460051b830101116105bc576024019190565b6040519061635782616186565b5f6060838281528260208201528260408201520152565b5f525f80516020619ea1833981519152602052600160405f20015490565b1561639357565b60405162461bcd60e51b815260206004820152600a602482015269557365206e617469766560b01b6044820152606490fd5b6001600160a01b03165f908152600f6020526040902054806163ee5750670de0b6b3a764000090565b90565b9190820391821161097d57565b8181029291811591840414171561097d57565b811561641b570490565b634e487b7160e01b5f52601260045260245ffd5b929190925f9360018060a01b0382165f5260516020526001600160401b0360405f2091165f5260205260405f20906040519261646a846161f2565b82546001600160401b0380821691828752818160401c16602088015260801c166040860152600184015460608601526002840154946080810195865260c0600460038701549660a0840197885201549101521561650e57906164cb91617bec565b91821561650657519051908181116164e257505050565b670de0b6b3a764000093945061650292916164fc916163f1565b906163fe565b0490565b505f93505050565b505f9450505050565b60405190616524826161a1565b5f6020838281520152565b9060405161653c816161a1565b602060018294805484520154910152565b1561655457565b60405162461bcd60e51b815260206004820152600f60248201526e24b73b30b634b21030b230b83a32b960891b6044820152606490fd5b908160209103126105bc575180151581036105bc5790565b156165aa57565b60405162461bcd60e51b815260206004820152601d60248201527f4164617074657220646f65736e277420737570706f727420746f6b656e0000006044820152606490fd5b9190820180921161097d57565b6001600160401b0381116108805760051b60200190565b929161661e826165fc565b9361662c604051958661620d565b602085848152019260051b81019182116105bc57915b81831061664e57505050565b82356001600160401b03811681036105bc57815260209283019201616642565b8054821015616687575f5260205f209060021b01905f90565b634e487b7160e01b5f52603260045260245ffd5b60025f80516020619ee183398151915254146166c45760025f80516020619ee183398151915255565b633ee5aeb560e01b5f5260045ffd5b8054821015616687575f52600560205f20910201905f90565b906001600160401b03809116911601906001600160401b03821161097d57565b5f19811461097d5760010190565b90604051616727816161a1565b602081935460ff81166167398161615b565b835260081c6001600160a01b0316910152565b80518210156166875760209160051b010190565b9061676a8161615b565b60ff80198354169116179055565b906167828161615b565b60ff60401b82549160401b169060ff60401b1916179055565b60ff5f80516020619ec183398151915254166167b357565b63d93c066560e01b5f5260045ffd5b604051916167cf836161a1565b5f83525f60208401526020916040516167e8848261620d565b5f81525f36813782156109b9578051616c90576001600160a01b0382165f90815260098552604090205415616c6f5760018060a01b0382165f52600a8452600160405f20019460ff8654861c16600381101561146157616c515761684b816171ec565b335f526010865260405f20815f52865260405f2092835493616872600182015480966163f1565b878110616c3a57506168848787619ae5565b9485156109b95787616895916165ef565b60018201555f985f805b335f5260138b5260405f2054811015616c2a57335f5260138b526168c68160405f2061666e565b5080546001600160a01b038b811691161480616c13575b6168ea575060010161689f565b91509192939495969798999a5060ff60038201541660025f1015611461576169118161615b565b616c04576001016169238882546165ef565b905560015b616b0b5750335f526013895260405f2054335f5260138a5260405f2060405161695081616186565b6001600160a01b038a1681528b8101898152604082018981529260608301905f82528054600160401b8110156108805761698f9160018201815561666e565b93909361086d57616a21948f600394616a109360018060a01b039060018060a01b03905116166bffffffffffffffffffffffff60a01b885416178755516001870155600286019151906169ec82516169e68161615b565b84616760565b01518154610100600160a81b03191660089190911b610100600160a81b0316179055565b5191616a1b8361615b565b01616760565b335f908152601d8b5260408082206001600160a01b038b1683528c52808220928252918b5220805460ff19166001179055805463ffffffff9081169490851461097d576001616aaa938a9363ffffffff83616ab699011663ffffffff19825416179055818060a01b038a165f52600d8c52616a9f3360405f20618d9b565b505b01549033619b40565b905f8786868933618aea565b60200151604051938452938301526001600160a01b0392909216915f60408301526001600160a01b03169033907f4fe2fde631e986ee26283901b9cc8d6d4a311b750f9fa0d659520deba2995f1f90606090a4565b9050929192335f5260138952600160ff6003616b2a8460405f2061666e565b50015416616b378161615b565b14616b4f575b5086616ab693926001616aaa93616aa1565b979491969295939097335f526014865260405f20905f52855260405f209586548015155f14616bfc57616b829084616411565b975b5f5b8854811015616be857335f908152601e895260408082206001600160a01b038a1683528a529020600191906001600160401b0380616bc4848e616e18565b90549060031b1c16165f52895260405f20616be08c82546165ef565b905501616b86565b509598939750939550909390929186616b3d565b505f97616b84565b630abce6af60e41b5f5260045ffd5b5086616c2461091d6002840161671a565b146168dd565b5090919293949596979899616928565b87906312e1fa3760e11b5f5260045260245260445ffd5b6371ab6ad560e11b5f9081526001600160a01b038416600452602490fd5b5063bd62013360e01b5f9081526001600160a01b0391909116600452602490fd5b6310db86df60e21b5f5260045ffd5b335f9081527fb16e88c42fd4e48df2dd6a2eabd6bc9aec654ec170056b470819f8892cc6431c602052604090205460ff1615616cd757565b63e2517d3f60e01b5f52336004527fa49807205ce4d355092ef5a8a18f56e8913cf4a201fbe287825b095693c2177560245260445ffd5b335f9081527f5bc841a6d925a620866922bada36d16da3dcc9d52290519ea1126e5ca2372139602052604090205460ff1615616d4657565b63e2517d3f60e01b5f52336004527fb1fadd3142ab2ad7f1337ea4d97112bcc8337fc11ce5b20cb04ad038adf9981960245260445ffd5b335f9081525f80516020619e61833981519152602052604090205460ff1615616da257565b63e2517d3f60e01b5f52336004525f80516020619e8183398151915260245260445ffd5b5f8181525f80516020619ea18339815191526020908152604080832033845290915290205460ff1615616df65750565b63e2517d3f60e01b5f523360045260245260445ffd5b60058210156114615752565b9190918054831015616687575f52601860205f208360021c019260031b1690565b6001600160401b03166001600160401b03811461097d5760010190565b6001600160a01b03918216815291166020820152905460a0820193926080916001600160401b03919060ff8116616e8c8161615b565b604086015260081c6001600160a01b0316606085015216910152565b9060038110156114615764ff0000000082549160201b169064ff000000001916179055565b6001600160a01b0381165f9081525f80516020619e61833981519152602052604090205460ff16616f4d576001600160a01b03165f8181525f80516020619e6183398151915260205260408120805460ff191660011790553391905f80516020619e81833981519152905f80516020619e018339815191529080a4600190565b505f90565b6001600160a01b0381165f9081527fb7db2dd08fcb62d0c9e08c51941cae53c267786a0b75803fb7960902fc8ef97d602052604090205460ff16616f4d576001600160a01b03165f8181527fb7db2dd08fcb62d0c9e08c51941cae53c267786a0b75803fb7960902fc8ef97d60205260408120805460ff191660011790553391905f80516020619e018339815191528180a4600190565b6001600160a01b0381165f9081527fb16e88c42fd4e48df2dd6a2eabd6bc9aec654ec170056b470819f8892cc6431c602052604090205460ff16616f4d576001600160a01b03165f8181527fb16e88c42fd4e48df2dd6a2eabd6bc9aec654ec170056b470819f8892cc6431c60205260408120805460ff191660011790553391907fa49807205ce4d355092ef5a8a18f56e8913cf4a201fbe287825b095693c21775905f80516020619e018339815191529080a4600190565b6001600160a01b0381165f9081527f5bc841a6d925a620866922bada36d16da3dcc9d52290519ea1126e5ca2372139602052604090205460ff16616f4d576001600160a01b03165f8181527f5bc841a6d925a620866922bada36d16da3dcc9d52290519ea1126e5ca237213960205260408120805460ff191660011790553391907fb1fadd3142ab2ad7f1337ea4d97112bcc8337fc11ce5b20cb04ad038adf99819905f80516020619e018339815191529080a4600190565b5f8181525f80516020619ea1833981519152602090815260408083206001600160a01b038616845290915290205460ff166171e6575f8181525f80516020619ea1833981519152602090815260408083206001600160a01b0395909516808452949091528120805460ff19166001179055339291905f80516020619e018339815191529080a4600190565b50505f90565b8051906171f88261615b565b602060018060a01b03910151166040519060208201926172178161615b565b835260408201526040815261722d60608261620d565b51902090565b9093929160018060a01b03821691825f52600a60205260405f2090617263845f52600960205260405f2054151590565b1561758d5761727181618de8565b61757a57835f52601860205260405f2096839761729460028554920154826165ef565b94851561756d578510617563575b846172b06172b5928b6163fe565b616411565b916172dc6172d66172c583618e6b565b946172d08185618eca565b9b6163f1565b82618f03565b986172e78a826165ef565b996172f183618e6b565b95617301604051611b13816161a1565b5f526002602052600160405f200154815410617547575b50875f5260526020528a60405f20998a546001600160401b03169a61733c8c616e39565b6001600160401b03166001600160401b0319825416179055878a5f546001600160401b0316936040519461736f866161f2565b85528d60208601996001600160401b0316998a815260408701915f83526060880193845260808801948d865260a0890196875260c089019788525f52605160205260405f20906001600160401b03165f5260205260405f2096516001600160401b03166001600160401b03166001600160401b0319885416178755516001600160401b031661742190879067ffffffffffffffff60401b82549160401b169067ffffffffffffffff60401b1916179055565b51855467ffffffffffffffff60801b191660809190911b67ffffffffffffffff60801b16178555516001850155516002840155516003830155519060040155835f52605360205260405f20885f5260205260405f2080546001600160401b031661748a90616e39565b6001600160401b03166001600160401b03198254161790556127108b02918b8304612710148c15171561097d5761750e89946175087f1508fbe22c9805770740c8f3827567950022729e0096e311dc087990c157fffc9a7f91754b254153861c1e9bc9186484a0bb770823acfa00423044ba1759a01210e796616411565b90618f46565b604080519182526020820192909252908101869052606090a360408051888152602081019290925281019190915280606081015b0390a3565b600101805464ff0000000019166401000000001790555f617318565b93975087936172a2565b505f985050505050505050565b8363b516260d60e01b5f5260045260245ffd5b8363bd62013360e01b5f5260045260245ffd5b6001600160a01b0381165f9081525f80516020619e61833981519152602052604090205460ff1615616f4d576001600160a01b03165f8181525f80516020619e6183398151915260205260408120805460ff191690553391905f80516020619e81833981519152907ff6391f5c32d9c69d2a47ea670b442974b53935d1edc7fd64eb21e047a839171b9080a4600190565b5f8181525f80516020619ea1833981519152602090815260408083206001600160a01b038616845290915290205460ff16156171e6575f8181525f80516020619ea1833981519152602090815260408083206001600160a01b0395909516808452949091528120805460ff19169055339291907ff6391f5c32d9c69d2a47ea670b442974b53935d1edc7fd64eb21e047a839171b9080a4600190565b3d156176f7573d906176de8261622e565b916176ec604051938461620d565b82523d5f602084013e565b606090565b61771b60405161770b816161a1565b5f81525f60208201523490618fef565b565b6001600160a01b03169081156177a257335f52601a60205260405f2054918215617793575f8080858194338352601a6020528260408120555af161775f6176cd565b5015614265576040518281527f106f923f993c2149d49b4255ff723acafa1f2d94393f561d3eda32ae348f724160203392a2565b6373380d9960e01b5f5260045ffd5b63d92e233d60e01b5f5260045ffd5b6001600160a01b0381165f908152600a6020908152604080832060099092529091205494969492939290919015617bcc576001600160a01b0381165f908152601860209081526040808320601b83528184206001600160401b038916855290925290912083546002928301549290910154909491906178349061095d83886165ef565b948515617bbe57898661787592816172b09a9b9c9d11617bb4575b81617864614dfc936172b061786d94876163fe565b9a8b96856163fe565b9384926163f1565b61789d61789561788e61788787618e6b565b9987618eca565b9386618f03565b9189866194fc565b956178ac8761095d84866165ef565b9a8b996178b887618e6b565b976178c8604051611b13816161a1565b5f526002602052600160405f200154815410617b98575b506001600160a01b0387165f90815260526020526040902080546001600160401b03169b8c93918a918d9161791387616e39565b6001600160401b03166001600160401b03198254161790555f546001600160401b03169460405195617944876161f2565b8652602086019a6001600160401b03169a8b815260408701916001600160401b031697888352606088019384526080880194855260a0880195865260c088019687528d600160a01b60019003165f52605160205260405f20906001600160401b03165f5260205260405f2096516001600160401b03166001600160401b03166001600160401b0319885416178755516001600160401b0316617a0990879067ffffffffffffffff60401b82549160401b169067ffffffffffffffff60401b1916179055565b51855467ffffffffffffffff60801b191660809190911b67ffffffffffffffff60801b16178555516001850155516002840155516003830155519060040155845f52605360205260405f20600160a01b6001900387165f5260205260405f2080546001600160401b0316617a7c90616e39565b6001600160401b03166001600160401b03198254161790555f52605460205260405f20600160a01b6001900386165f5260205260405f2080546001600160401b0316617ac790616e39565b6001600160401b03166001600160401b03198254161790556127108b028b8104612710148c15171561097d577f1508fbe22c9805770740c8f3827567950022729e0096e311dc087990c157fffc977f91754b254153861c1e9bc9186484a0bb770823acfa00423044ba1759a01210e79361095d617b488a95617b4e95616411565b89618f46565b6040805194855260208501919091528301526001600160a01b03841691606090a36040805188815260208101959095528401919091526001600160a01b0316918060608101617542565b600101805464ff0000000019166401000000001790555f6178df565b909150819061784f565b505050505050509150505f90565b63bd62013360e01b5f9081526001600160a01b0391909116600452602490fd5b90915f925f5b6001600160a01b0384165f81815260136020526040902054821015617c6857805f526013602052617c268260405f2061666e565b50546001600160a01b03848116911614617c44575b50600101617bf2565b60019195617c61915f526013602052826108f18860405f2061666e565b9490617c3b565b5050509050565b6001600160a01b0381169081156119285761771b92617c8d91619555565b9060405190617c9b826161a1565b600182526020820152618fef565b9190811015616687576060020190565b3561ffff811681036105bc5790565b6001600160a01b0381165f908152600a602090815260408083206009909252909120549598979694959093919291901561822e57881561821e576001600160a01b0383165f908152601860209081526040808320601b83528184206001600160401b03871685529092528220865460029283015492909101549892979192885b8d80821061818e575050881561817e57888311618176575b617d6987618e6b565b99617d788161095d87866165ef565b15618165578992918e915f935f975f935f945b8686106180e4575050505050505092614f20617de4617ddd617dd686614dfc617dce88617dc561095d9a6172b0617dec9e6172b09e6163fe565b9a8b99856163fe565b9889926163f1565b938a618eca565b9489618f03565b9187896194fc565b98617df684618e6b565b94617e06604051611b13816161a1565b5f526002602052600160405f2001548154106180c8575b506001600160a01b0384165f90815260526020526040902080546001600160401b03169890617e4b8a616e39565b6001600160401b03166001600160401b03198254161790555f546001600160401b03169060405191617e7c836161f2565b82528960208301946001600160401b0316948581528d60408501976001600160401b0316978881526060860191825260808601928d845260a08701948c865260c08801968752600160a01b600190038c165f52605160205260405f20906001600160401b03165f5260205260405f2096516001600160401b03166001600160401b03166001600160401b0319885416178755516001600160401b0316617f4590879067ffffffffffffffff60401b82549160401b169067ffffffffffffffff60401b1916179055565b51855467ffffffffffffffff60801b191660809190911b67ffffffffffffffff60801b16178555516001850155516002840155516003830155519060040155815f52605360205260405f20600160a01b6001900385165f5260205260405f2080546001600160401b0316617fb890616e39565b6001600160401b03166001600160401b0319825416179055825f52605460205260405f20600160a01b6001900385165f5260205260405f2080546001600160401b031661800490616e39565b6001600160401b03166001600160401b03198254161790556127108a02958a8704612710148b15171561097d5761805f618065917f1508fbe22c9805770740c8f3827567950022729e0096e311dc087990c157fffc98616411565b85618f46565b604051908a825260208201527feb0d9b34ef071b87da8591ddd82cc67f90c6806201b5c9ddc91f0624677dc815604060018060a01b03861692a46040805188815260208101959095528401919091526001600160a01b0316918060608101617542565b600101805464ff0000000019166401000000001790555f617e1d565b909192939495969997506180f9868884617ca9565b60400161810590617cb9565b61ffff16996181148b866163fe565b6127109004618122916165ef565b9761812d8b856163fe565b612710900461813b916165ef565b9961814690866163fe565b6127109004618154916165ef565b94600101939291908e979695617d8b565b505f9c505050505050505050505050565b889250617d60565b505f9b5050505050505050505050565b8161819c91849c939c617ca9565b80359160028310156105bc578c87866001956181b78161615b565b6181f8579361ffff6181e260406181db6127109661095d6181e9976181f09b6165ef565b9301617cb9565b16906163fe565b04906165ef565b995b01617d48565b9361ffff6181e260406181db6127109661095d6181e9976182189b6165ef565b996181f2565b93945091506163ee9596506177b1565b63bd62013360e01b5f9081526001600160a01b038416600452602490fd5b1561825357565b60405162461bcd60e51b815260206004820152600f60248201526e151c985b9cd9995c8819985a5b1959608a1b6044820152606490fd5b335f52600b60205260405f20908154918215618343575f546001600160401b036001818316930154169060c01c906001600160401b036182ca83836166ec565b168310611ddd5750505081335f52600a60205260405f206182ec8282546163f1565b9055335f52600b6020525f60016040822082815501556183155f80808085335af1611d9f6176cd565b6040519081527fda2b51341079f3dd8e6763a50f329bbc3dc6ca6a51b920fe99fbf89a54ec0e2760203392a2565b505f9150565b60405163a9059cbb60e01b60208201526001600160a01b0392909216602483015260448083019390935291815261771b9161838560648361620d565b619639565b8054821015616687575f52600360205f20910201905f90565b92939291906001600160a01b031680618a2057506040516183c3816161a1565b5f81525f6020820152935b81156109b9576183dd8161615b565b8015948515618a0b578451616c90575b6001600160a01b0384165f81815260096020526040902054909490156189f857845f52600a602052600160405f20019060ff825460201c166003811015611461576189e55761843b836171ec565b96335f52601060205260405f20885f5260205260405f2097600189549901936184668554809b6163f1565b8881106189ce57506184788885619ae5565b998a156109b95788618489916165ef565b85555f9a5f805b335f52601360205260405f20548110156189bc57335f5260136020526184b98160405f2061666e565b5080546001600160a01b03168d14806189a5575b6184da5750600101618490565b91509192939495969798809a9b9c9d5060ff6003830154166184fb8261615b565b6185048161615b565b03616c04576001016185178d82546165ef565b905560015b6188a65750335f90815260136020526040908190208054915191929161854181616186565b8c8152602081018e8152604082018b81529260608301906185618e61615b565b8d82528054600160401b811015610880576185819160018201815561666e565b93909361086d575183546001600160a01b0319166001600160a01b039190911617835590516001830155915180516185ce936003929091616a1091600286019161079b906107958161615b565b6185d78961615b565b156186b557335f52601d60205260405f208a5f5260205260405f20905f5260205260405f20600160ff198254161790555b63ffffffff8154169163ffffffff831461097d578661865f8a8d93618666998e839763ffffffff8f9a6001011663ffffffff198254161790555f52600d6020526186553360405f20618d9b565b505b549033619b40565b9533618aea565b602060018060a01b03910151169360405192835260208301526186888161615b565b60408201527f4fe2fde631e986ee26283901b9cc8d6d4a311b750f9fa0d659520deba2995f1f60603392a4565b9995929794919896939099335f52601460205260405f20905f5260205260405f2088516001600160401b03811161088057600160401b811161088057815481835580821061884c575b5060208a01915f5260205f208160021c915f5b838110618807575060031981169003806187af575b5050895191505080156187a75761873d9087616411565b985b5f5b895181101561879657600190335f52601e60205260405f208a5f526020528a6001600160401b03806187778460405f209461674c565b5116165f5260205260405f2061878e8d82546165ef565b905501618741565b509194979295999093969850618608565b505f9861873f565b925f935f5b8181106187c95750505001555f808080618726565b90919460206187fd6001926001600160401b03895116908560031b6001600160401b03809160031b9316831b921b19161790565b96019291016187b4565b5f805b6004811061881f575083820155600101618711565b86519096916001916020916001600160401b0360068b901b81811b199092169216901b179201960161880a565b825f5260205f20600380840160021c8201920160021c019060188360031b168061888b575b505b81811061888057506186fe565b5f8155600101618873565b5f198201908154905f199060200360031b1c1690555f618871565b9150509390919293335f526013602052600160ff60036188c98460405f2061666e565b500154166188d68161615b565b146188f1575b5086898661865f836186669897968b96618657565b98949197959296939098335f52601460205260405f20905f5260205260405f209687548015155f1461899d576189279087616411565b985b5f5b895481101561898657600190335f52601e60205260405f208a5f526020528a6001600160401b03806189618460405f2094616e18565b90549060031b1c16165f5260205260405f2061897e8d82546165ef565b90550161892b565b5095999698509396509194909391929190866188dc565b505f98618929565b50856189b661091d6002840161671a565b146184cd565b50909192939495969798999a9b61851c565b88906312e1fa3760e11b5f5260045260245260445ffd5b856371ab6ad560e11b5f5260045260245ffd5b8463bd62013360e01b5f5260045260245ffd5b84516183ed57631db6d08b60e11b5f5260045ffd5b60405190618a2d826161a1565b600182526020820152936183ce565b6001600160a01b03165f9081526018602052604090206001810154908115618a70576163ee9260026172b0920154906163fe565b5050505f90565b9181158015618a97575b618a92576172b0906163ee936163fe565b505090565b5081811015618a81565b60058110156114615760018114618ae35760028114618adc5760038114618ad557600414618acf5761271090565b613e8090565b506132c890565b50612ee090565b50612af890565b93969296959195949094618afd8261615b565b81618c6e57618b0b86618fa0565b60018060a01b03861696875f52601860205260405f209660018060a01b03871696875f52601960205260405f208a5f5260205260405f205f995f5b8a5f52601360205260405f2054811015618bc1578a5f526013602052618b6f8160405f2061666e565b5080546001600160a01b03168e1480618ba9575b618b91575b50600101618b46565b6001919c82618ba2920154906165ef565b9b90618b88565b5060ff600382015416618bbb8161615b565b15618b83565b506001989b50670de0b6b3a76400009294969950615b078d618bed61771b9f618c199597999b9e6163f1565b80618c30575b8b8401618c018382546165ef565b905560028401618c128c82546165ef565b90556165ef565b0490555b618c2b8886868686866198f5565b619a34565b85618c3c8286546163fe565b0487548082115f14618c6657618c51916163f1565b618c5f8d89019182546165ef565b9055618bf3565b50505f618c51565b919484618c878760018661771b9c86839a9d989b6196d5565b618c1d565b60018060a01b03165f52601b6020526001600160401b0360405f2091165f5260205260405f206001810154908115618a92576163ee9260026172b0920154906163fe565b8054821015616687575f5260205f2001905f90565b805f52600960205260405f2054155f14616f4d57600854600160401b81101561088057618d34618d1e8260018594016008556008618cd0565b819391549060031b91821b915f19901b19161790565b9055600854905f52600960205260405f2055600190565b805f52600460205260405f2054155f14616f4d57600354600160401b81101561088057618d84618d1e8260018594016003556003618cd0565b9055600354905f52600460205260405f2055600190565b5f8281526001820160205260409020546171e657805490600160401b8210156108805782618dd3618d1e846001809601855584618cd0565b90558054925f520160205260405f2055600190565b6001600160a01b03165f818152600c60205260409020805491908215618a70575f5b838110618e1957505050505f90565b6001600160401b03618e2b8284618cd0565b90549060031b1c16835f52601b6020526001600160401b0360405f2091165f52602052600260405f200154618e6257600101618e0a565b50505050600190565b6001600160a01b03165f9081526018602052604090206001810154908115618ebc576002015490670de0b6b3a7640000820291808304670de0b6b3a7640000149015171561097d576163ee91616411565b5050670de0b6b3a764000090565b6001600160a01b03165f908152600a602052604090208054828110618efa5750618ef58282546163f1565b905590565b5f919392509255565b6001600160a01b03165f908152601860205260409020600201805480158015618f3e575b618a7057828110618efa5750618ef58282546163f1565b508215618f27565b9080158015618f95575b618f9157618f5d826163c5565b906127100390612710821161097d5761271091618f79916163fe565b049060018060a01b03165f52600f60205260405f2055565b5050565b506127108111618f50565b60018060a01b03165f52601860205260405f206001600160401b036003815f5416920191166001600160401b0319825416179055565b8054821015616687575f5260205f209060011b01905f90565b81156109b957618ffe816171ec565b805f52600260205260405f2060ff815416156190f55760028101548085106190de57506003810154801515806190c8575b6190a957506004016190428482546165ef565b9055335f52601060205260405f20905f5260205260405f206190658382546165ef565b9055602001516040519182526001600160a01b0316905f60208201527f754fff2205ca9f1a08ae1f38f487839ba7e18895f0238908ea8b8842d7424fbb60403392a3565b60048592015490634b98504560e01b5f5260045260245260445260645ffd5b50806190d88660048501546165ef565b1161902f565b8490631e2be21160e01b5f5260045260245260445ffd5b602083015163f6f24b8360e01b5f9081526001600160a01b03909116600452602490fd5b81156109b957619128816171ec565b90815f52600260205260405f2060ff815416156192d15760028101548085106190de57506003810154801515806192bb575b6190a9575060040161916d8482546165ef565b9055335f52601060205260405f20825f5260205260405f206191908482546165ef565b9055600584101561146157836191ed575b6020908101516040519384526001600160a01b0316936191c592509083019061614e565b7f754fff2205ca9f1a08ae1f38f487839ba7e18895f0238908ea8b8842d7424fbb60403392a3565b6191f684619c84565b6191ff84619d11565b91335f52601160205260405f20905f5260205261922960405f20926001600160401b0343166166ec565b91604051619236816161bc565b84815260208101916192488784616e0c565b6001600160401b0360408301951685528054600160401b8110156108805761927591600182018155618fd6565b61086d576001915181550190516005811015611461576191c59360ff68ffffffffffffffff008454925160081b1692169068ffffffffffffffffff1916171790556191a1565b50806192cb8660048501546165ef565b1161915a565b506020015163f6f24b8360e01b5f9081526001600160a01b03909116600452602490fd5b5f8181526004602052604090205480156171e6575f19810181811161097d576003545f1981019190821161097d57818103619368575b5050506003548015610eb3575f1901619345816003618cd0565b8154905f199060031b1b191690556003555f5260046020525f6040812055600190565b61938a619379618d1e936003618cd0565b90549060031b1c9283926003618cd0565b90555f52600460205260405f20555f808061932b565b5f8181526009602052604090205480156171e6575f19810181811161097d576008545f1981019190821161097d57818103619413575b5050506008548015610eb3575f19016193f0816008618cd0565b8154905f199060031b1b191690556008555f5260096020525f6040812055600190565b619435619424618d1e936008618cd0565b90549060031b1c9283926008618cd0565b90555f52600960205260405f20555f80806193d6565b906001820191815f528260205260405f20548015155f146194f4575f19810181811161097d5782545f1981019190821161097d578181036194bf575b50505080548015610eb3575f1901906194a08282618cd0565b8154905f199060031b1b19169055555f526020525f6040812055600190565b6194df6194cf618d1e9386618cd0565b90549060031b1c92839286618cd0565b90555f528360205260405f20555f8080619487565b505050505f90565b60018060a01b03165f52601b6020526001600160401b0360405f2091165f52602052600260405f2001805480158015618f3e57618a7057828110618efa5750618ef58282546163f1565b908160209103126105bc575190565b6001600160a01b039081165f818152600660205260409020549091169081156195e257506040516311f9fbc960e21b81523360048201526024810192909252602090829060449082905f905af1908115610d54575f916195b3575090565b90506020813d6020116195da575b816195ce6020938361620d565b810103126105bc575190565b3d91506195c1565b905060ff600754166195fc57816163ee9130903390619691565b63f6f24b8360e01b5f5260045260245ffd5b60ff5f80516020619f018339815191525460401c161561962a57565b631afcd79f60e31b5f5260045ffd5b905f602091828151910182855af115610d54575f513d61968857506001600160a01b0381163b155b6196685750565b635274afe760e01b5f9081526001600160a01b0391909116600452602490fd5b60011415619661565b6040516323b872dd60e01b60208201526001600160a01b03928316602482015292909116604483015260648083019390935291815261771b9161838560848361620d565b95949093929181519081156198eb576196fa916196f191616411565b92825190616411565b905f5b81518110156198eb57806001600160401b0361971b6001938561674c565b5116828060a01b0388165f52601b60205260405f206001600160401b0382165f52602052670de0b6b3a764000061982860405f20858060a01b038d1693845f52601c60205260405f20878060a01b038d165f5260205260405f206001600160401b0382165f5260205260405f20946001600160401b035f54166001600160401b036003850191166001600160401b03198254161790555f52601e60205260405f20878060a01b038d165f526020526001600160401b0360405f2091165f52602052898960405f2054916198dc575b508061989e575b8a15619852578682016198048b82546165ef565b9055600282016198158a82546165ef565b90555b898b1561983157615b07916165ef565b049055016196fd565b50898082111561984a57619844916163f1565b90615b09565b50505f619844565b81870180548b8181111561988f5750505f905b556002820180548a818111156198805750505f905b55619818565b619889916163f1565b9061987a565b619898916163f1565b90619865565b836198aa8284546163fe565b0485548082115f146198d4576198bf916163f1565b6198cd8887019182546165ef565b90556197f0565b50505f6198bf565b6198e5916163f1565b896197e9565b5050505050509050565b601f545f96929491939192916001600160a01b03909116908115619a2a57805161991e8161615b565b6199278161615b565b619a1757505f955b156199b75750601f546001600160a01b031691823b156199b3576040516316f60ec560e11b81526001600160a01b0394851660048201529484166024860152949092166044840152606483019390935261ffff166084820152908290829060a490829084905af161999e575050565b6199a982809261620d565b6199b05750565b80fd5b8680fd5b929194955050813b156105bc5760405162f74bbf60e71b81526001600160a01b039182166004820152928116602484015290931660448201526064810191909152905f908290608490829084905af1619a0d5750565b5f61771b9161620d565b602001516001600160a01b03169561992f565b5050505050505050565b90929694919460205460018060a01b0316948515619ada57853b156105bc57619ac75f98899561ffff93619a9a9c6040519d8e9c8d9b8c9a6308aec52d60e31b8c5260018060a01b031660048c015260018060a01b031660248b015260448a0190616165565b6084880152151560a4870152619aaf8161615b565b60c486015261012060e4860152610124850190616249565b911661010483015203925af1619a0d5750565b505050505050505050565b6001600160a01b03165f908152601860205260409020600181015480158015619b34575b618a9257619b1c600291619b25946163fe565b91015490616411565b908115619b2e57565b60019150565b50600282015415619b09565b9290918115619bf9575f925f9460018060a01b03165f52601160205260405f20905f5260205260405f205f908054915b828110619c1f575050508215619bf95781808210619c1757619b91916163f1565b82811015619c10575b80831115619c0957619bac90836163f1565b80821015619c03575080925b8315619bf95761ffff93610a34619bd5619bf5956172b094616411565b91619bf087619be761271095846163fe565b941691866163f1565b6163fe565b1690565b5050505061271090565b92619bb8565b505f619bac565b5081619b9a565b50505f619b91565b619c298183618fd6565b506001810154436001600160401b038260081c1611619c4d575b5050600101619b70565b97610a34619c7c929861ffff619c74619c6b60ff6001989e16618aa1565b9b5480936165ef565b9a1690619dba565b96905f619c43565b90600582101590816114615782158015619d04575b828115619cf4575b8115619ce4575b8115619cd4575b50619ccf57506114615760ff9063aae758a160e01b5f521660045260245ffd5b915050565b9050611461576004831482619caf565b9050611461576003831482619ca8565b9050611461576002831482619ca1565b505f915060018314619c99565b60058110156114615760018114619d545760028114619d4c5760038114619d4457600414619d3d575f90565b62ed4e0090565b506276a70090565b50624f1a0090565b5062278d0090565b90619d805750805115619d7157805190602001fd5b63d6bda27560e01b5f5260045ffd5b81511580619db1575b619d91575090565b639996b31560e01b5f9081526001600160a01b0391909116600452602490fd5b50803b15619d89565b81810291905f5f19838309848082109103818114619df8570360011115619de657509060019109900390565b634e487b71905260116020526024601cfd5b50505050509056fe2f8788117e7eff1d82e926ec794901d17c78024a50270940304540a733656f0d360894a13ba1a3210667c828492db98dca3e2076cc3735a920a3ca505d382bbce34918ff1c7084970068b53fd71ad6d8b04e9f15d3886cbf006443e6cdc52ea669892194d2f1eb4d48bd09f166bfce1754a681e8e17011b3e12b710cce56a87b12b42e8a160f6064dc959c6f251e3af0750ad213dbecf573b4710d67d6c28e3902dd7bc7dec4dceedda775e58dd541e08a116c6c53815c0bd028192f7b626800cd5ed15c6e187e77e9aee88184c21f4f2182ab5827cb3b7e07fbedcd63f033009b779b17422d0df92223018b32b4d1fa46e071723d6817e2486d003becc55f00f0c57e16840df040f15088dc2f81fe391c3923bec73e23a9662efc9c229c6a00a164736f6c634300081a000a","linkReferences":{}},"methodIdentifiers":{"ADMIN_ROLE()":"75b238fc","ASSET_MANAGER_ROLE()":"a4b32de8","BPS_DENOMINATOR()":"e1a45218","DEFAULT_ADMIN_ROLE()":"a217fddf","LOCK_ONE_MONTH()":"9e870585","LOCK_SIX_MONTHS()":"f3c9b311","LOCK_THREE_MONTHS()":"d27a6f06","LOCK_TWO_MONTHS()":"7df92ada","MULTIPLIER_NONE()":"4962f88f","MULTIPLIER_ONE_MONTH()":"18056dc2","MULTIPLIER_SIX_MONTHS()":"453eccea","MULTIPLIER_THREE_MONTHS()":"a7fa6f98","MULTIPLIER_TWO_MONTHS()":"54de2320","PRECISION()":"aaf5eb68","SLASHER_ROLE()":"5095af64","UPGRADE_INTERFACE_VERSION()":"ad3cb1cc","addBlueprint(uint64)":"c7353025","addBlueprintToDelegation(uint256,uint64)":"23cc2700","addSlasher(address)":"68a9f19c","advanceRound()":"1ba9998b","blueprintSlashCount(uint64,address)":"4e9c929a","claimDelegatorRewards()":"44d1480b","claimOperatorRewards()":"4c4ede2d","claimOperatorRewardsTo(address)":"7d6941c6","completeLeaving()":"d1736ba7","currentRound()":"8a19c8bc","delegate(address,uint256)":"026e402b","delegateWithOptions(address,address,uint256,uint8,uint64[])":"fd7d3dbc","delegationBondLessDelay()":"ba05bbf5","deposit()":"d0e30db0","depositAndDelegate(address)":"461cc23b","depositAndDelegateWithOptions(address,address,uint256,uint8,uint64[])":"fbec4861","depositERC20(address,uint256)":"97feb926","depositERC20WithLock(address,uint256,uint8)":"cb15038b","depositWithLock(uint8)":"f38c7c4e","disableAsset(address)":"70807528","enableAsset(address,uint256,uint256,uint256,uint16)":"354ebef9","enableAssetWithAdapter(address,address,uint256,uint256,uint256,uint16)":"f0b52bb4","executeDelegatorUnstake()":"007910d0","executeOperatorUnstake()":"b0dfce06","executeWithdraw()":"f8fd9795","getAssetAdapter(address)":"8a7fe60f","getAssetConfig(address)":"6ec3ab67","getDelegation(address,address)":"15049a5a","getDelegationBlueprints(address,uint256)":"7b9996c5","getDelegations(address)":"31cc13ba","getDeposit(address,address)":"c35082a9","getLocks(address,address)":"0c8833ce","getOperatorBlueprints(address)":"dc972ccc","getOperatorDelegatedStake(address)":"8c5b4ae7","getOperatorDelegatorCount(address)":"486398c3","getOperatorDelegators(address)":"a299e298","getOperatorMetadata(address)":"2ee663b8","getOperatorRewardPool(address)":"03587c1d","getOperatorSelfStake(address)":"d673e0b9","getOperatorSlashFactor(address)":"615d24de","getOperatorStake(address)":"e4e88de8","getPendingDelegatorRewards(address)":"168f6865","getPendingOperatorRewards(address)":"30224fc8","getPendingUnstakes(address)":"5722d512","getPendingWithdrawals(address)":"f340c0d0","getRoleAdmin(bytes32)":"248a9ca3","getSlashCount(address)":"66c36875","getSlashCountForBlueprint(uint64,address)":"c550d938","getSlashCountForService(uint64,address)":"72b5032d","getSlashImpact(address,uint64,address)":"9494f426","getSlashRecord(address,uint64)":"a457af3d","getSnapshot(uint64,address)":"c07449e2","getTotalDelegation(address)":"fc5e7e09","grantRole(bytes32,address)":"2f2ff15d","hasRole(bytes32,address)":"91d14854","increaseStake()":"d9e257ef","initialize(address,uint256,uint256,uint16)":"cbb6d6bd","isOperator(address)":"6d70f7ae","isOperatorActive(address)":"eb473533","isSlasher(address)":"57601c5d","lastRoundAdvance()":"05d64e38","leaveDelegatorsDelay()":"db8a173a","leaveOperatorsDelay()":"4de8addc","meetsStakeRequirement(address,uint256)":"f46913bb","minOperatorStake()":"d775cb61","nativeEnabled()":"77ab2cf3","nextSlashId(address)":"96085673","notifyReward(address,uint64,uint256)":"a3b9c5c2","notifyRewardForBlueprint(address,uint64,uint64,uint256)":"3dcad9db","operatorAt(uint256)":"26142335","operatorCommissionBps()":"32273f61","operatorCount()":"7c6f3158","pause()":"8456cb59","paused()":"5c975abb","proxiableUUID()":"52d1902d","registerAdapter(address,address)":"d655b92a","registerOperator()":"2acde098","registerOperatorWithAsset(address,uint256)":"e0a5825b","removeAdapter(address)":"585cd34b","removeBlueprint(uint64)":"28e70ecc","removeBlueprintFromDelegation(uint256,uint64)":"859caa18","removeSlasher(address)":"aac6aa9c","renounceRole(bytes32,address)":"36568abe","requireAdapters()":"b54b2b9e","rescueTokens(address,address,uint256)":"cea9d26f","revokeRole(bytes32,address)":"d547741f","rewardsManager()":"defe2053","roundDuration()":"f7cb789a","scheduleDelegatorUnstake(address,address,uint256)":"fc8a91af","scheduleOperatorUnstake(uint256)":"44aff252","scheduleWithdraw(address,uint256)":"e1ee4bcc","serviceFeeDistributor()":"2e40f7fb","serviceSlashCount(uint64,address)":"9722f4b9","setDelays(uint64,uint64,uint64)":"03780211","setOperatorCommission(uint16)":"f3c4d8a0","setRequireAdapters(bool)":"7b76fe5e","setRewardsManager(address)":"0a8ddc5e","setServiceFeeDistributor(address)":"fbcc7b3d","slash(address,uint64,uint256,bytes32)":"356924ea","slashForBlueprint(address,uint64,uint64,uint256,bytes32)":"8d795d50","slashForService(address,uint64,uint64,((uint8,address),uint16)[],uint256,bytes32)":"9e8c49d4","slashHistory(address,uint64)":"0aa8b110","snapshotOperator(address)":"cadd550c","startLeaving()":"87703550","supportsInterface(bytes4)":"01ffc9a7","undelegate(address,uint256)":"4d99dd16","unpause()":"3f4ba83a","upgradeToAndCall(address,bytes)":"4f1ef286"},"id":183}