{"abi":[{"type":"constructor","inputs":[],"stateMutability":"nonpayable"},{"type":"receive","stateMutability":"payable"},{"type":"function","name":"ADMIN_ROLE","inputs":[],"outputs":[{"name":"","type":"bytes32","internalType":"bytes32"}],"stateMutability":"view"},{"type":"function","name":"ASSET_MANAGER_ROLE","inputs":[],"outputs":[{"name":"","type":"bytes32","internalType":"bytes32"}],"stateMutability":"view"},{"type":"function","name":"BPS_DENOMINATOR","inputs":[],"outputs":[{"name":"","type":"uint256","internalType":"uint256"}],"stateMutability":"view"},{"type":"function","name":"DEFAULT_ADMIN_ROLE","inputs":[],"outputs":[{"name":"","type":"bytes32","internalType":"bytes32"}],"stateMutability":"view"},{"type":"function","name":"LOCK_ONE_MONTH","inputs":[],"outputs":[{"name":"","type":"uint64","internalType":"uint64"}],"stateMutability":"view"},{"type":"function","name":"LOCK_SIX_MONTHS","inputs":[],"outputs":[{"name":"","type":"uint64","internalType":"uint64"}],"stateMutability":"view"},{"type":"function","name":"LOCK_THREE_MONTHS","inputs":[],"outputs":[{"name":"","type":"uint64","internalType":"uint64"}],"stateMutability":"view"},{"type":"function","name":"LOCK_TWO_MONTHS","inputs":[],"outputs":[{"name":"","type":"uint64","internalType":"uint64"}],"stateMutability":"view"},{"type":"function","name":"MULTIPLIER_NONE","inputs":[],"outputs":[{"name":"","type":"uint16","internalType":"uint16"}],"stateMutability":"view"},{"type":"function","name":"MULTIPLIER_ONE_MONTH","inputs":[],"outputs":[{"name":"","type":"uint16","internalType":"uint16"}],"stateMutability":"view"},{"type":"function","name":"MULTIPLIER_SIX_MONTHS","inputs":[],"outputs":[{"name":"","type":"uint16","internalType":"uint16"}],"stateMutability":"view"},{"type":"function","name":"MULTIPLIER_THREE_MONTHS","inputs":[],"outputs":[{"name":"","type":"uint16","internalType":"uint16"}],"stateMutability":"view"},{"type":"function","name":"MULTIPLIER_TWO_MONTHS","inputs":[],"outputs":[{"name":"","type":"uint16","internalType":"uint16"}],"stateMutability":"view"},{"type":"function","name":"PRECISION","inputs":[],"outputs":[{"name":"","type":"uint256","internalType":"uint256"}],"stateMutability":"view"},{"type":"function","name":"SLASHER_ROLE","inputs":[],"outputs":[{"name":"","type":"bytes32","internalType":"bytes32"}],"stateMutability":"view"},{"type":"function","name":"UPGRADE_INTERFACE_VERSION","inputs":[],"outputs":[{"name":"","type":"string","internalType":"string"}],"stateMutability":"view"},{"type":"function","name":"addBlueprint","inputs":[{"name":"blueprintId","type":"uint64","internalType":"uint64"}],"outputs":[],"stateMutability":"nonpayable"},{"type":"function","name":"addBlueprintToDelegation","inputs":[{"name":"delegationIndex","type":"uint256","internalType":"uint256"},{"name":"blueprintId","type":"uint64","internalType":"uint64"}],"outputs":[],"stateMutability":"nonpayable"},{"type":"function","name":"addSlasher","inputs":[{"name":"slasher","type":"address","internalType":"address"}],"outputs":[],"stateMutability":"nonpayable"},{"type":"function","name":"advanceRound","inputs":[],"outputs":[],"stateMutability":"nonpayable"},{"type":"function","name":"claimDelegatorRewards","inputs":[],"outputs":[{"name":"totalRewards","type":"uint256","internalType":"uint256"}],"stateMutability":"nonpayable"},{"type":"function","name":"claimOperatorRewards","inputs":[],"outputs":[],"stateMutability":"nonpayable"},{"type":"function","name":"claimOperatorRewardsTo","inputs":[{"name":"recipient","type":"address","internalType":"address payable"}],"outputs":[],"stateMutability":"nonpayable"},{"type":"function","name":"completeLeaving","inputs":[],"outputs":[],"stateMutability":"nonpayable"},{"type":"function","name":"currentRound","inputs":[],"outputs":[{"name":"","type":"uint64","internalType":"uint64"}],"stateMutability":"view"},{"type":"function","name":"delegate","inputs":[{"name":"operator","type":"address","internalType":"address"},{"name":"amount","type":"uint256","internalType":"uint256"}],"outputs":[],"stateMutability":"nonpayable"},{"type":"function","name":"delegateWithOptions","inputs":[{"name":"operator","type":"address","internalType":"address"},{"name":"token","type":"address","internalType":"address"},{"name":"amount","type":"uint256","internalType":"uint256"},{"name":"selectionMode","type":"uint8","internalType":"enum Types.BlueprintSelectionMode"},{"name":"blueprintIds","type":"uint64[]","internalType":"uint64[]"}],"outputs":[],"stateMutability":"nonpayable"},{"type":"function","name":"delegationBondLessDelay","inputs":[],"outputs":[{"name":"","type":"uint64","internalType":"uint64"}],"stateMutability":"view"},{"type":"function","name":"deposit","inputs":[],"outputs":[],"stateMutability":"payable"},{"type":"function","name":"depositAndDelegate","inputs":[{"name":"operator","type":"address","internalType":"address"}],"outputs":[],"stateMutability":"payable"},{"type":"function","name":"depositAndDelegateWithOptions","inputs":[{"name":"operator","type":"address","internalType":"address"},{"name":"token","type":"address","internalType":"address"},{"name":"amount","type":"uint256","internalType":"uint256"},{"name":"selectionMode","type":"uint8","internalType":"enum Types.BlueprintSelectionMode"},{"name":"blueprintIds","type":"uint64[]","internalType":"uint64[]"}],"outputs":[],"stateMutability":"payable"},{"type":"function","name":"depositERC20","inputs":[{"name":"token","type":"address","internalType":"address"},{"name":"amount","type":"uint256","internalType":"uint256"}],"outputs":[],"stateMutability":"nonpayable"},{"type":"function","name":"depositERC20WithLock","inputs":[{"name":"token","type":"address","internalType":"address"},{"name":"amount","type":"uint256","internalType":"uint256"},{"name":"lockMultiplier","type":"uint8","internalType":"enum Types.LockMultiplier"}],"outputs":[],"stateMutability":"nonpayable"},{"type":"function","name":"depositWithLock","inputs":[{"name":"lockMultiplier","type":"uint8","internalType":"enum Types.LockMultiplier"}],"outputs":[],"stateMutability":"payable"},{"type":"function","name":"disableAsset","inputs":[{"name":"token","type":"address","internalType":"address"}],"outputs":[],"stateMutability":"nonpayable"},{"type":"function","name":"enableAsset","inputs":[{"name":"token","type":"address","internalType":"address"},{"name":"_minOperatorStake","type":"uint256","internalType":"uint256"},{"name":"_minDelegation","type":"uint256","internalType":"uint256"},{"name":"_depositCap","type":"uint256","internalType":"uint256"},{"name":"_rewardMultiplierBps","type":"uint16","internalType":"uint16"}],"outputs":[],"stateMutability":"nonpayable"},{"type":"function","name":"enableAssetWithAdapter","inputs":[{"name":"token","type":"address","internalType":"address"},{"name":"adapter","type":"address","internalType":"address"},{"name":"_minOperatorStake","type":"uint256","internalType":"uint256"},{"name":"_minDelegation","type":"uint256","internalType":"uint256"},{"name":"_depositCap","type":"uint256","internalType":"uint256"},{"name":"_rewardMultiplierBps","type":"uint16","internalType":"uint16"}],"outputs":[],"stateMutability":"nonpayable"},{"type":"function","name":"executeDelegatorUnstake","inputs":[],"outputs":[],"stateMutability":"nonpayable"},{"type":"function","name":"executeOperatorUnstake","inputs":[],"outputs":[],"stateMutability":"nonpayable"},{"type":"function","name":"executeWithdraw","inputs":[],"outputs":[],"stateMutability":"nonpayable"},{"type":"function","name":"getAssetAdapter","inputs":[{"name":"token","type":"address","internalType":"address"}],"outputs":[{"name":"","type":"address","internalType":"address"}],"stateMutability":"view"},{"type":"function","name":"getAssetConfig","inputs":[{"name":"token","type":"address","internalType":"address"}],"outputs":[{"name":"","type":"tuple","internalType":"struct Types.AssetConfig","components":[{"name":"enabled","type":"bool","internalType":"bool"},{"name":"minOperatorStake","type":"uint256","internalType":"uint256"},{"name":"minDelegation","type":"uint256","internalType":"uint256"},{"name":"depositCap","type":"uint256","internalType":"uint256"},{"name":"currentDeposits","type":"uint256","internalType":"uint256"},{"name":"rewardMultiplierBps","type":"uint16","internalType":"uint16"}]}],"stateMutability":"view"},{"type":"function","name":"getDelegation","inputs":[{"name":"delegator","type":"address","internalType":"address"},{"name":"operator","type":"address","internalType":"address"}],"outputs":[{"name":"","type":"uint256","internalType":"uint256"}],"stateMutability":"view"},{"type":"function","name":"getDelegationBlueprints","inputs":[{"name":"delegator","type":"address","internalType":"address"},{"name":"idx","type":"uint256","internalType":"uint256"}],"outputs":[{"name":"","type":"uint64[]","internalType":"uint64[]"}],"stateMutability":"view"},{"type":"function","name":"getDelegations","inputs":[{"name":"delegator","type":"address","internalType":"address"}],"outputs":[{"name":"","type":"tuple[]","internalType":"struct Types.BondInfoDelegator[]","components":[{"name":"operator","type":"address","internalType":"address"},{"name":"shares","type":"uint256","internalType":"uint256"},{"name":"asset","type":"tuple","internalType":"struct Types.Asset","components":[{"name":"kind","type":"uint8","internalType":"enum Types.AssetKind"},{"name":"token","type":"address","internalType":"address"}]},{"name":"selectionMode","type":"uint8","internalType":"enum Types.BlueprintSelectionMode"}]}],"stateMutability":"view"},{"type":"function","name":"getDeposit","inputs":[{"name":"delegator","type":"address","internalType":"address"},{"name":"token","type":"address","internalType":"address"}],"outputs":[{"name":"","type":"tuple","internalType":"struct Types.Deposit","components":[{"name":"amount","type":"uint256","internalType":"uint256"},{"name":"delegatedAmount","type":"uint256","internalType":"uint256"}]}],"stateMutability":"view"},{"type":"function","name":"getLocks","inputs":[{"name":"delegator","type":"address","internalType":"address"},{"name":"token","type":"address","internalType":"address"}],"outputs":[{"name":"","type":"tuple[]","internalType":"struct Types.LockInfo[]","components":[{"name":"amount","type":"uint256","internalType":"uint256"},{"name":"multiplier","type":"uint8","internalType":"enum Types.LockMultiplier"},{"name":"expiryBlock","type":"uint64","internalType":"uint64"}]}],"stateMutability":"view"},{"type":"function","name":"getOperatorBlueprints","inputs":[{"name":"operator","type":"address","internalType":"address"}],"outputs":[{"name":"","type":"uint256[]","internalType":"uint256[]"}],"stateMutability":"view"},{"type":"function","name":"getOperatorDelegatedStake","inputs":[{"name":"operator","type":"address","internalType":"address"}],"outputs":[{"name":"","type":"uint256","internalType":"uint256"}],"stateMutability":"view"},{"type":"function","name":"getOperatorDelegatorCount","inputs":[{"name":"operator","type":"address","internalType":"address"}],"outputs":[{"name":"","type":"uint256","internalType":"uint256"}],"stateMutability":"view"},{"type":"function","name":"getOperatorDelegators","inputs":[{"name":"operator","type":"address","internalType":"address"}],"outputs":[{"name":"","type":"address[]","internalType":"address[]"}],"stateMutability":"view"},{"type":"function","name":"getOperatorMetadata","inputs":[{"name":"operator","type":"address","internalType":"address"}],"outputs":[{"name":"","type":"tuple","internalType":"struct Types.OperatorMetadata","components":[{"name":"stake","type":"uint256","internalType":"uint256"},{"name":"delegationCount","type":"uint32","internalType":"uint32"},{"name":"status","type":"uint8","internalType":"enum Types.OperatorStatus"},{"name":"leavingRound","type":"uint64","internalType":"uint64"}]}],"stateMutability":"view"},{"type":"function","name":"getOperatorRewardPool","inputs":[{"name":"operator","type":"address","internalType":"address"}],"outputs":[{"name":"","type":"tuple","internalType":"struct Types.OperatorRewardPool","components":[{"name":"accRewardPerShare","type":"uint256","internalType":"uint256"},{"name":"totalShares","type":"uint256","internalType":"uint256"},{"name":"totalAssets","type":"uint256","internalType":"uint256"},{"name":"lastUpdateRound","type":"uint64","internalType":"uint64"}]}],"stateMutability":"view"},{"type":"function","name":"getOperatorSelfStake","inputs":[{"name":"operator","type":"address","internalType":"address"}],"outputs":[{"name":"","type":"uint256","internalType":"uint256"}],"stateMutability":"view"},{"type":"function","name":"getOperatorStake","inputs":[{"name":"operator","type":"address","internalType":"address"}],"outputs":[{"name":"","type":"uint256","internalType":"uint256"}],"stateMutability":"view"},{"type":"function","name":"getPendingDelegatorRewards","inputs":[{"name":"delegator","type":"address","internalType":"address"}],"outputs":[{"name":"","type":"uint256","internalType":"uint256"}],"stateMutability":"view"},{"type":"function","name":"getPendingOperatorRewards","inputs":[{"name":"operator","type":"address","internalType":"address"}],"outputs":[{"name":"","type":"uint256","internalType":"uint256"}],"stateMutability":"view"},{"type":"function","name":"getPendingUnstakes","inputs":[{"name":"delegator","type":"address","internalType":"address"}],"outputs":[{"name":"","type":"tuple[]","internalType":"struct Types.BondLessRequest[]","components":[{"name":"operator","type":"address","internalType":"address"},{"name":"asset","type":"tuple","internalType":"struct Types.Asset","components":[{"name":"kind","type":"uint8","internalType":"enum Types.AssetKind"},{"name":"token","type":"address","internalType":"address"}]},{"name":"shares","type":"uint256","internalType":"uint256"},{"name":"requestedRound","type":"uint64","internalType":"uint64"},{"name":"selectionMode","type":"uint8","internalType":"enum Types.BlueprintSelectionMode"}]}],"stateMutability":"view"},{"type":"function","name":"getPendingWithdrawals","inputs":[{"name":"delegator","type":"address","internalType":"address"}],"outputs":[{"name":"","type":"tuple[]","internalType":"struct Types.WithdrawRequest[]","components":[{"name":"asset","type":"tuple","internalType":"struct Types.Asset","components":[{"name":"kind","type":"uint8","internalType":"enum Types.AssetKind"},{"name":"token","type":"address","internalType":"address"}]},{"name":"amount","type":"uint256","internalType":"uint256"},{"name":"requestedRound","type":"uint64","internalType":"uint64"}]}],"stateMutability":"view"},{"type":"function","name":"getRoleAdmin","inputs":[{"name":"role","type":"bytes32","internalType":"bytes32"}],"outputs":[{"name":"","type":"bytes32","internalType":"bytes32"}],"stateMutability":"view"},{"type":"function","name":"getSlashCount","inputs":[{"name":"operator","type":"address","internalType":"address"}],"outputs":[{"name":"","type":"uint64","internalType":"uint64"}],"stateMutability":"view"},{"type":"function","name":"getSlashImpact","inputs":[{"name":"operator","type":"address","internalType":"address"},{"name":"slashId","type":"uint64","internalType":"uint64"},{"name":"delegator","type":"address","internalType":"address"}],"outputs":[{"name":"lostAmount","type":"uint256","internalType":"uint256"}],"stateMutability":"view"},{"type":"function","name":"getSlashRecord","inputs":[{"name":"operator","type":"address","internalType":"address"},{"name":"slashId","type":"uint64","internalType":"uint64"}],"outputs":[{"name":"","type":"tuple","internalType":"struct SlashingManager.SlashRecord","components":[{"name":"round","type":"uint64","internalType":"uint64"},{"name":"totalSlashed","type":"uint256","internalType":"uint256"},{"name":"exchangeRateBefore","type":"uint256","internalType":"uint256"},{"name":"exchangeRateAfter","type":"uint256","internalType":"uint256"},{"name":"evidence","type":"bytes32","internalType":"bytes32"}]}],"stateMutability":"view"},{"type":"function","name":"getSnapshot","inputs":[{"name":"round","type":"uint64","internalType":"uint64"},{"name":"operator","type":"address","internalType":"address"}],"outputs":[{"name":"","type":"tuple","internalType":"struct Types.OperatorSnapshot","components":[{"name":"stake","type":"uint256","internalType":"uint256"},{"name":"totalDelegated","type":"uint256","internalType":"uint256"}]}],"stateMutability":"view"},{"type":"function","name":"getTotalDelegation","inputs":[{"name":"delegator","type":"address","internalType":"address"}],"outputs":[{"name":"total","type":"uint256","internalType":"uint256"}],"stateMutability":"view"},{"type":"function","name":"grantRole","inputs":[{"name":"role","type":"bytes32","internalType":"bytes32"},{"name":"account","type":"address","internalType":"address"}],"outputs":[],"stateMutability":"nonpayable"},{"type":"function","name":"hasRole","inputs":[{"name":"role","type":"bytes32","internalType":"bytes32"},{"name":"account","type":"address","internalType":"address"}],"outputs":[{"name":"","type":"bool","internalType":"bool"}],"stateMutability":"view"},{"type":"function","name":"increaseStake","inputs":[],"outputs":[],"stateMutability":"payable"},{"type":"function","name":"initialize","inputs":[{"name":"admin","type":"address","internalType":"address"},{"name":"nativeMinOperatorStake","type":"uint256","internalType":"uint256"},{"name":"nativeMinDelegation","type":"uint256","internalType":"uint256"},{"name":"_operatorCommissionBps","type":"uint16","internalType":"uint16"}],"outputs":[],"stateMutability":"nonpayable"},{"type":"function","name":"isOperator","inputs":[{"name":"operator","type":"address","internalType":"address"}],"outputs":[{"name":"","type":"bool","internalType":"bool"}],"stateMutability":"view"},{"type":"function","name":"isOperatorActive","inputs":[{"name":"operator","type":"address","internalType":"address"}],"outputs":[{"name":"","type":"bool","internalType":"bool"}],"stateMutability":"view"},{"type":"function","name":"isSlasher","inputs":[{"name":"account","type":"address","internalType":"address"}],"outputs":[{"name":"","type":"bool","internalType":"bool"}],"stateMutability":"view"},{"type":"function","name":"leaveDelegatorsDelay","inputs":[],"outputs":[{"name":"","type":"uint64","internalType":"uint64"}],"stateMutability":"view"},{"type":"function","name":"leaveOperatorsDelay","inputs":[],"outputs":[{"name":"","type":"uint64","internalType":"uint64"}],"stateMutability":"view"},{"type":"function","name":"meetsStakeRequirement","inputs":[{"name":"operator","type":"address","internalType":"address"},{"name":"required","type":"uint256","internalType":"uint256"}],"outputs":[{"name":"","type":"bool","internalType":"bool"}],"stateMutability":"view"},{"type":"function","name":"minOperatorStake","inputs":[],"outputs":[{"name":"","type":"uint256","internalType":"uint256"}],"stateMutability":"view"},{"type":"function","name":"nativeEnabled","inputs":[],"outputs":[{"name":"","type":"bool","internalType":"bool"}],"stateMutability":"view"},{"type":"function","name":"nextSlashId","inputs":[{"name":"","type":"address","internalType":"address"}],"outputs":[{"name":"","type":"uint64","internalType":"uint64"}],"stateMutability":"view"},{"type":"function","name":"notifyReward","inputs":[{"name":"operator","type":"address","internalType":"address"},{"name":"serviceId","type":"uint64","internalType":"uint64"},{"name":"amount","type":"uint256","internalType":"uint256"}],"outputs":[],"stateMutability":"nonpayable"},{"type":"function","name":"notifyRewardForBlueprint","inputs":[{"name":"operator","type":"address","internalType":"address"},{"name":"blueprintId","type":"uint64","internalType":"uint64"},{"name":"serviceId","type":"uint64","internalType":"uint64"},{"name":"amount","type":"uint256","internalType":"uint256"}],"outputs":[],"stateMutability":"nonpayable"},{"type":"function","name":"operatorAt","inputs":[{"name":"index","type":"uint256","internalType":"uint256"}],"outputs":[{"name":"","type":"address","internalType":"address"}],"stateMutability":"view"},{"type":"function","name":"operatorCommissionBps","inputs":[],"outputs":[{"name":"","type":"uint16","internalType":"uint16"}],"stateMutability":"view"},{"type":"function","name":"operatorCount","inputs":[],"outputs":[{"name":"","type":"uint256","internalType":"uint256"}],"stateMutability":"view"},{"type":"function","name":"pause","inputs":[],"outputs":[],"stateMutability":"nonpayable"},{"type":"function","name":"paused","inputs":[],"outputs":[{"name":"","type":"bool","internalType":"bool"}],"stateMutability":"view"},{"type":"function","name":"proxiableUUID","inputs":[],"outputs":[{"name":"","type":"bytes32","internalType":"bytes32"}],"stateMutability":"view"},{"type":"function","name":"registerAdapter","inputs":[{"name":"token","type":"address","internalType":"address"},{"name":"adapter","type":"address","internalType":"address"}],"outputs":[],"stateMutability":"nonpayable"},{"type":"function","name":"registerOperator","inputs":[],"outputs":[],"stateMutability":"payable"},{"type":"function","name":"registerOperatorWithAsset","inputs":[{"name":"token","type":"address","internalType":"address"},{"name":"amount","type":"uint256","internalType":"uint256"}],"outputs":[],"stateMutability":"nonpayable"},{"type":"function","name":"removeAdapter","inputs":[{"name":"token","type":"address","internalType":"address"}],"outputs":[],"stateMutability":"nonpayable"},{"type":"function","name":"removeBlueprint","inputs":[{"name":"blueprintId","type":"uint64","internalType":"uint64"}],"outputs":[],"stateMutability":"nonpayable"},{"type":"function","name":"removeBlueprintFromDelegation","inputs":[{"name":"delegationIndex","type":"uint256","internalType":"uint256"},{"name":"blueprintId","type":"uint64","internalType":"uint64"}],"outputs":[],"stateMutability":"nonpayable"},{"type":"function","name":"removeSlasher","inputs":[{"name":"slasher","type":"address","internalType":"address"}],"outputs":[],"stateMutability":"nonpayable"},{"type":"function","name":"renounceRole","inputs":[{"name":"role","type":"bytes32","internalType":"bytes32"},{"name":"callerConfirmation","type":"address","internalType":"address"}],"outputs":[],"stateMutability":"nonpayable"},{"type":"function","name":"requireAdapters","inputs":[],"outputs":[{"name":"","type":"bool","internalType":"bool"}],"stateMutability":"view"},{"type":"function","name":"rescueTokens","inputs":[{"name":"token","type":"address","internalType":"address"},{"name":"to","type":"address","internalType":"address"},{"name":"amount","type":"uint256","internalType":"uint256"}],"outputs":[],"stateMutability":"nonpayable"},{"type":"function","name":"revokeRole","inputs":[{"name":"role","type":"bytes32","internalType":"bytes32"},{"name":"account","type":"address","internalType":"address"}],"outputs":[],"stateMutability":"nonpayable"},{"type":"function","name":"rewardsManager","inputs":[],"outputs":[{"name":"","type":"address","internalType":"address"}],"stateMutability":"view"},{"type":"function","name":"roundDuration","inputs":[],"outputs":[{"name":"","type":"uint64","internalType":"uint64"}],"stateMutability":"view"},{"type":"function","name":"scheduleDelegatorUnstake","inputs":[{"name":"operator","type":"address","internalType":"address"},{"name":"token","type":"address","internalType":"address"},{"name":"amount","type":"uint256","internalType":"uint256"}],"outputs":[],"stateMutability":"nonpayable"},{"type":"function","name":"scheduleOperatorUnstake","inputs":[{"name":"amount","type":"uint256","internalType":"uint256"}],"outputs":[],"stateMutability":"nonpayable"},{"type":"function","name":"scheduleWithdraw","inputs":[{"name":"token","type":"address","internalType":"address"},{"name":"amount","type":"uint256","internalType":"uint256"}],"outputs":[],"stateMutability":"nonpayable"},{"type":"function","name":"serviceFeeDistributor","inputs":[],"outputs":[{"name":"","type":"address","internalType":"address"}],"stateMutability":"view"},{"type":"function","name":"setDelays","inputs":[{"name":"_delegationBondLessDelay","type":"uint64","internalType":"uint64"},{"name":"_leaveDelegatorsDelay","type":"uint64","internalType":"uint64"},{"name":"_leaveOperatorsDelay","type":"uint64","internalType":"uint64"}],"outputs":[],"stateMutability":"nonpayable"},{"type":"function","name":"setOperatorCommission","inputs":[{"name":"bps","type":"uint16","internalType":"uint16"}],"outputs":[],"stateMutability":"nonpayable"},{"type":"function","name":"setRequireAdapters","inputs":[{"name":"required","type":"bool","internalType":"bool"}],"outputs":[],"stateMutability":"nonpayable"},{"type":"function","name":"setRewardsManager","inputs":[{"name":"manager","type":"address","internalType":"address"}],"outputs":[],"stateMutability":"nonpayable"},{"type":"function","name":"setServiceFeeDistributor","inputs":[{"name":"distributor","type":"address","internalType":"address"}],"outputs":[],"stateMutability":"nonpayable"},{"type":"function","name":"slash","inputs":[{"name":"operator","type":"address","internalType":"address"},{"name":"serviceId","type":"uint64","internalType":"uint64"},{"name":"amount","type":"uint256","internalType":"uint256"},{"name":"evidence","type":"bytes32","internalType":"bytes32"}],"outputs":[{"name":"actualSlashed","type":"uint256","internalType":"uint256"}],"stateMutability":"nonpayable"},{"type":"function","name":"slashForBlueprint","inputs":[{"name":"operator","type":"address","internalType":"address"},{"name":"blueprintId","type":"uint64","internalType":"uint64"},{"name":"serviceId","type":"uint64","internalType":"uint64"},{"name":"amount","type":"uint256","internalType":"uint256"},{"name":"evidence","type":"bytes32","internalType":"bytes32"}],"outputs":[{"name":"actualSlashed","type":"uint256","internalType":"uint256"}],"stateMutability":"nonpayable"},{"type":"function","name":"slashHistory","inputs":[{"name":"","type":"address","internalType":"address"},{"name":"","type":"uint64","internalType":"uint64"}],"outputs":[{"name":"round","type":"uint64","internalType":"uint64"},{"name":"totalSlashed","type":"uint256","internalType":"uint256"},{"name":"exchangeRateBefore","type":"uint256","internalType":"uint256"},{"name":"exchangeRateAfter","type":"uint256","internalType":"uint256"},{"name":"evidence","type":"bytes32","internalType":"bytes32"}],"stateMutability":"view"},{"type":"function","name":"snapshotOperator","inputs":[{"name":"operator","type":"address","internalType":"address"}],"outputs":[],"stateMutability":"nonpayable"},{"type":"function","name":"startLeaving","inputs":[],"outputs":[],"stateMutability":"nonpayable"},{"type":"function","name":"supportsInterface","inputs":[{"name":"interfaceId","type":"bytes4","internalType":"bytes4"}],"outputs":[{"name":"","type":"bool","internalType":"bool"}],"stateMutability":"view"},{"type":"function","name":"undelegate","inputs":[{"name":"operator","type":"address","internalType":"address"},{"name":"amount","type":"uint256","internalType":"uint256"}],"outputs":[],"stateMutability":"nonpayable"},{"type":"function","name":"unpause","inputs":[],"outputs":[],"stateMutability":"nonpayable"},{"type":"function","name":"upgradeToAndCall","inputs":[{"name":"newImplementation","type":"address","internalType":"address"},{"name":"data","type":"bytes","internalType":"bytes"}],"outputs":[],"stateMutability":"payable"},{"type":"event","name":"AdapterRegistered","inputs":[{"name":"token","type":"address","indexed":true,"internalType":"address"},{"name":"adapter","type":"address","indexed":true,"internalType":"address"}],"anonymous":false},{"type":"event","name":"AdapterRemoved","inputs":[{"name":"token","type":"address","indexed":true,"internalType":"address"}],"anonymous":false},{"type":"event","name":"AssetDisabled","inputs":[{"name":"token","type":"address","indexed":true,"internalType":"address"}],"anonymous":false},{"type":"event","name":"AssetEnabled","inputs":[{"name":"token","type":"address","indexed":true,"internalType":"address"},{"name":"minOperatorStake","type":"uint256","indexed":false,"internalType":"uint256"},{"name":"minDelegation","type":"uint256","indexed":false,"internalType":"uint256"}],"anonymous":false},{"type":"event","name":"BlueprintAddedToDelegation","inputs":[{"name":"delegator","type":"address","indexed":true,"internalType":"address"},{"name":"delegationIndex","type":"uint256","indexed":true,"internalType":"uint256"},{"name":"blueprintId","type":"uint64","indexed":false,"internalType":"uint64"}],"anonymous":false},{"type":"event","name":"BlueprintRemovedFromDelegation","inputs":[{"name":"delegator","type":"address","indexed":true,"internalType":"address"},{"name":"delegationIndex","type":"uint256","indexed":true,"internalType":"uint256"},{"name":"blueprintId","type":"uint64","indexed":false,"internalType":"uint64"}],"anonymous":false},{"type":"event","name":"Delegated","inputs":[{"name":"delegator","type":"address","indexed":true,"internalType":"address"},{"name":"operator","type":"address","indexed":true,"internalType":"address"},{"name":"token","type":"address","indexed":true,"internalType":"address"},{"name":"amount","type":"uint256","indexed":false,"internalType":"uint256"},{"name":"shares","type":"uint256","indexed":false,"internalType":"uint256"},{"name":"selectionMode","type":"uint8","indexed":false,"internalType":"enum Types.BlueprintSelectionMode"}],"anonymous":false},{"type":"event","name":"DelegatorUnstakeExecuted","inputs":[{"name":"delegator","type":"address","indexed":true,"internalType":"address"},{"name":"operator","type":"address","indexed":true,"internalType":"address"},{"name":"token","type":"address","indexed":true,"internalType":"address"},{"name":"shares","type":"uint256","indexed":false,"internalType":"uint256"},{"name":"amount","type":"uint256","indexed":false,"internalType":"uint256"}],"anonymous":false},{"type":"event","name":"DelegatorUnstakeScheduled","inputs":[{"name":"delegator","type":"address","indexed":true,"internalType":"address"},{"name":"operator","type":"address","indexed":true,"internalType":"address"},{"name":"token","type":"address","indexed":true,"internalType":"address"},{"name":"shares","type":"uint256","indexed":false,"internalType":"uint256"},{"name":"estimatedAmount","type":"uint256","indexed":false,"internalType":"uint256"},{"name":"readyRound","type":"uint64","indexed":false,"internalType":"uint64"}],"anonymous":false},{"type":"event","name":"Deposited","inputs":[{"name":"delegator","type":"address","indexed":true,"internalType":"address"},{"name":"token","type":"address","indexed":true,"internalType":"address"},{"name":"amount","type":"uint256","indexed":false,"internalType":"uint256"},{"name":"lock","type":"uint8","indexed":false,"internalType":"enum Types.LockMultiplier"}],"anonymous":false},{"type":"event","name":"Initialized","inputs":[{"name":"version","type":"uint64","indexed":false,"internalType":"uint64"}],"anonymous":false},{"type":"event","name":"OperatorBlueprintAdded","inputs":[{"name":"operator","type":"address","indexed":true,"internalType":"address"},{"name":"blueprintId","type":"uint64","indexed":true,"internalType":"uint64"}],"anonymous":false},{"type":"event","name":"OperatorBlueprintRemoved","inputs":[{"name":"operator","type":"address","indexed":true,"internalType":"address"},{"name":"blueprintId","type":"uint64","indexed":true,"internalType":"uint64"}],"anonymous":false},{"type":"event","name":"OperatorLeavingScheduled","inputs":[{"name":"operator","type":"address","indexed":true,"internalType":"address"},{"name":"readyRound","type":"uint64","indexed":false,"internalType":"uint64"}],"anonymous":false},{"type":"event","name":"OperatorLeft","inputs":[{"name":"operator","type":"address","indexed":true,"internalType":"address"}],"anonymous":false},{"type":"event","name":"OperatorRegistered","inputs":[{"name":"operator","type":"address","indexed":true,"internalType":"address"},{"name":"stake","type":"uint256","indexed":false,"internalType":"uint256"}],"anonymous":false},{"type":"event","name":"OperatorSlashed","inputs":[{"name":"operator","type":"address","indexed":true,"internalType":"address"},{"name":"serviceId","type":"uint64","indexed":true,"internalType":"uint64"},{"name":"amount","type":"uint256","indexed":false,"internalType":"uint256"},{"name":"evidence","type":"bytes32","indexed":false,"internalType":"bytes32"}],"anonymous":false},{"type":"event","name":"OperatorStakeIncreased","inputs":[{"name":"operator","type":"address","indexed":true,"internalType":"address"},{"name":"amount","type":"uint256","indexed":false,"internalType":"uint256"}],"anonymous":false},{"type":"event","name":"OperatorUnstakeExecuted","inputs":[{"name":"operator","type":"address","indexed":true,"internalType":"address"},{"name":"amount","type":"uint256","indexed":false,"internalType":"uint256"}],"anonymous":false},{"type":"event","name":"OperatorUnstakeScheduled","inputs":[{"name":"operator","type":"address","indexed":true,"internalType":"address"},{"name":"amount","type":"uint256","indexed":false,"internalType":"uint256"},{"name":"readyRound","type":"uint64","indexed":false,"internalType":"uint64"}],"anonymous":false},{"type":"event","name":"Paused","inputs":[{"name":"account","type":"address","indexed":false,"internalType":"address"}],"anonymous":false},{"type":"event","name":"RequireAdaptersUpdated","inputs":[{"name":"required","type":"bool","indexed":false,"internalType":"bool"}],"anonymous":false},{"type":"event","name":"RewardClaimed","inputs":[{"name":"account","type":"address","indexed":true,"internalType":"address"},{"name":"amount","type":"uint256","indexed":false,"internalType":"uint256"}],"anonymous":false},{"type":"event","name":"RewardDistributed","inputs":[{"name":"operator","type":"address","indexed":true,"internalType":"address"},{"name":"amount","type":"uint256","indexed":false,"internalType":"uint256"}],"anonymous":false},{"type":"event","name":"RoleAdminChanged","inputs":[{"name":"role","type":"bytes32","indexed":true,"internalType":"bytes32"},{"name":"previousAdminRole","type":"bytes32","indexed":true,"internalType":"bytes32"},{"name":"newAdminRole","type":"bytes32","indexed":true,"internalType":"bytes32"}],"anonymous":false},{"type":"event","name":"RoleGranted","inputs":[{"name":"role","type":"bytes32","indexed":true,"internalType":"bytes32"},{"name":"account","type":"address","indexed":true,"internalType":"address"},{"name":"sender","type":"address","indexed":true,"internalType":"address"}],"anonymous":false},{"type":"event","name":"RoleRevoked","inputs":[{"name":"role","type":"bytes32","indexed":true,"internalType":"bytes32"},{"name":"account","type":"address","indexed":true,"internalType":"address"},{"name":"sender","type":"address","indexed":true,"internalType":"address"}],"anonymous":false},{"type":"event","name":"RoundAdvanced","inputs":[{"name":"round","type":"uint64","indexed":true,"internalType":"uint64"}],"anonymous":false},{"type":"event","name":"SlashRecorded","inputs":[{"name":"operator","type":"address","indexed":true,"internalType":"address"},{"name":"slashId","type":"uint64","indexed":true,"internalType":"uint64"},{"name":"totalSlashed","type":"uint256","indexed":false,"internalType":"uint256"},{"name":"exchangeRateBefore","type":"uint256","indexed":false,"internalType":"uint256"},{"name":"exchangeRateAfter","type":"uint256","indexed":false,"internalType":"uint256"}],"anonymous":false},{"type":"event","name":"Slashed","inputs":[{"name":"operator","type":"address","indexed":true,"internalType":"address"},{"name":"serviceId","type":"uint64","indexed":true,"internalType":"uint64"},{"name":"operatorSlashed","type":"uint256","indexed":false,"internalType":"uint256"},{"name":"delegatorsSlashed","type":"uint256","indexed":false,"internalType":"uint256"},{"name":"newExchangeRate","type":"uint256","indexed":false,"internalType":"uint256"}],"anonymous":false},{"type":"event","name":"Unpaused","inputs":[{"name":"account","type":"address","indexed":false,"internalType":"address"}],"anonymous":false},{"type":"event","name":"Upgraded","inputs":[{"name":"implementation","type":"address","indexed":true,"internalType":"address"}],"anonymous":false},{"type":"event","name":"WithdrawScheduled","inputs":[{"name":"delegator","type":"address","indexed":true,"internalType":"address"},{"name":"token","type":"address","indexed":true,"internalType":"address"},{"name":"amount","type":"uint256","indexed":false,"internalType":"uint256"},{"name":"readyRound","type":"uint64","indexed":false,"internalType":"uint64"}],"anonymous":false},{"type":"event","name":"Withdrawn","inputs":[{"name":"delegator","type":"address","indexed":true,"internalType":"address"},{"name":"token","type":"address","indexed":true,"internalType":"address"},{"name":"amount","type":"uint256","indexed":false,"internalType":"uint256"}],"anonymous":false},{"type":"error","name":"AccessControlBadConfirmation","inputs":[]},{"type":"error","name":"AccessControlUnauthorizedAccount","inputs":[{"name":"account","type":"address","internalType":"address"},{"name":"neededRole","type":"bytes32","internalType":"bytes32"}]},{"type":"error","name":"AddressEmptyCode","inputs":[{"name":"target","type":"address","internalType":"address"}]},{"type":"error","name":"AllModeDisallowsBlueprints","inputs":[]},{"type":"error","name":"AmountLocked","inputs":[{"name":"locked","type":"uint256","internalType":"uint256"},{"name":"requested","type":"uint256","internalType":"uint256"}]},{"type":"error","name":"AssetNotEnabled","inputs":[{"name":"asset","type":"address","internalType":"address"}]},{"type":"error","name":"BelowMinimumDeposit","inputs":[{"name":"minimum","type":"uint256","internalType":"uint256"},{"name":"provided","type":"uint256","internalType":"uint256"}]},{"type":"error","name":"BlueprintAlreadySelected","inputs":[{"name":"blueprintId","type":"uint64","internalType":"uint64"}]},{"type":"error","name":"BlueprintNotSelected","inputs":[{"name":"blueprintId","type":"uint64","internalType":"uint64"}]},{"type":"error","name":"CannotRemoveLastBlueprint","inputs":[]},{"type":"error","name":"DelegationNotFound","inputs":[{"name":"delegator","type":"address","internalType":"address"},{"name":"operator","type":"address","internalType":"address"}]},{"type":"error","name":"DepositCapExceeded","inputs":[{"name":"cap","type":"uint256","internalType":"uint256"},{"name":"current","type":"uint256","internalType":"uint256"},{"name":"adding","type":"uint256","internalType":"uint256"}]},{"type":"error","name":"ERC1967InvalidImplementation","inputs":[{"name":"implementation","type":"address","internalType":"address"}]},{"type":"error","name":"ERC1967NonPayable","inputs":[]},{"type":"error","name":"EnforcedPause","inputs":[]},{"type":"error","name":"ExpectedPause","inputs":[]},{"type":"error","name":"FailedCall","inputs":[]},{"type":"error","name":"FixedModeRequiresBlueprints","inputs":[]},{"type":"error","name":"InsufficientAvailableBalance","inputs":[{"name":"available","type":"uint256","internalType":"uint256"},{"name":"requested","type":"uint256","internalType":"uint256"}]},{"type":"error","name":"InsufficientDelegation","inputs":[{"name":"available","type":"uint256","internalType":"uint256"},{"name":"requested","type":"uint256","internalType":"uint256"}]},{"type":"error","name":"InsufficientDeposit","inputs":[{"name":"available","type":"uint256","internalType":"uint256"},{"name":"requested","type":"uint256","internalType":"uint256"}]},{"type":"error","name":"InsufficientStake","inputs":[{"name":"required","type":"uint256","internalType":"uint256"},{"name":"provided","type":"uint256","internalType":"uint256"}]},{"type":"error","name":"InvalidDelegationIndex","inputs":[{"name":"index","type":"uint256","internalType":"uint256"}]},{"type":"error","name":"InvalidInitialization","inputs":[]},{"type":"error","name":"InvalidLockMultiplier","inputs":[{"name":"value","type":"uint8","internalType":"uint8"}]},{"type":"error","name":"LeavingTooEarly","inputs":[{"name":"currentRound","type":"uint64","internalType":"uint64"},{"name":"requiredRound","type":"uint64","internalType":"uint64"}]},{"type":"error","name":"LegacySlashRequiresAllMode","inputs":[{"name":"operator","type":"address","internalType":"address"}]},{"type":"error","name":"NoRewardsToClaim","inputs":[]},{"type":"error","name":"NotFixedMode","inputs":[]},{"type":"error","name":"NotInitializing","inputs":[]},{"type":"error","name":"OperatorAlreadyRegistered","inputs":[{"name":"operator","type":"address","internalType":"address"}]},{"type":"error","name":"OperatorNotActive","inputs":[{"name":"operator","type":"address","internalType":"address"}]},{"type":"error","name":"OperatorNotLeaving","inputs":[{"name":"operator","type":"address","internalType":"address"}]},{"type":"error","name":"OperatorNotRegistered","inputs":[{"name":"operator","type":"address","internalType":"address"}]},{"type":"error","name":"ReentrancyGuardReentrantCall","inputs":[]},{"type":"error","name":"SafeERC20FailedOperation","inputs":[{"name":"token","type":"address","internalType":"address"}]},{"type":"error","name":"SelectionModeMismatch","inputs":[]},{"type":"error","name":"TransferFailed","inputs":[]},{"type":"error","name":"UUPSUnauthorizedCallContext","inputs":[]},{"type":"error","name":"UUPSUnsupportedProxiableUUID","inputs":[{"name":"slot","type":"bytes32","internalType":"bytes32"}]},{"type":"error","name":"ZeroAddress","inputs":[]},{"type":"error","name":"ZeroAmount","inputs":[]}],"bytecode":{"object":"0x60a080604052346100e857306080527ff0c57e16840df040f15088dc2f81fe391c3923bec73e23a9662efc9c229c6a005460ff8160401c166100d9576002600160401b03196001600160401b03821601610073575b60405161928b90816100ed823960805181818161370601526137fc0152f35b6001600160401b0319166001600160401b039081177ff0c57e16840df040f15088dc2f81fe391c3923bec73e23a9662efc9c229c6a005581527fc7f505b2f371ae2175ee4913f4499e1f2633a7b5936321eed1cdaeb6115181d290602090a15f80610054565b63f92ee8a960e01b5f5260045ffd5b5f80fdfe6080604052600436101561001a575b3615610018575f80fd5b005b5f3560e01c80627910d0146154d857806301ffc9a714615482578063026e402b1461544d57806303587c1d146153b257806303780211146153375780630a8ddc5e146152f45780630aa8b1101461526c5780630c8833ce146150f857806315049a5a14614fa4578063168f686514614db857806318056dc214614d9c5780631ba9998b14614d4157806323cc27001461497f578063248a9ca314614961578063261423351461492857806328e70ecc146148c75780632acde098146147975780632e40f7fb1461476f5780632ee663b8146146ac5780632f2ff15d1461467b57806330224fc81461464357806331cc13ba1461450c57806332273f61146144e8578063354ebef914614409578063356924ea146143cd57806336568abe146143895780633dcad9db146141c65780633f4ba83a1461414857806344aff2521461400457806344d1480b14613d67578063453eccea14613d4b578063461cc23b14613d15578063486398c314613cdd5780634962f88f146116f15780634c4ede2d14613cbc5780634d99dd16146139b05780634de8addc1461398a5780634f1ef286146137815780635095af641461375a57806352d1902d146136f457806354de2320146136d85780635722d5121461357c57806357601c5d1461352e578063585cd34b1461346e5780635c975abb1461344057806366c36875146129c757806368a9f19c146134175780636d70f7ae146133d55780636ec3ab67146132c3578063708075281461322357806375b238fc146131e957806377ab2cf3146131c75780637b76fe5e146131655780637b9996c5146130135780637c6f315814612ff65780637d6941c614612fc15780637df92ada14612fa45780638456cb5914612f33578063859caa1814612c5a5780638770355014612b825780638a19c8bc14612b5d5780638a7fe60f14612b1d5780638c5b4ae714612ae25780638d795d5014612a9e57806391d1485414612a495780639494f42614612a0857806396085673146129c757806397feb926146129925780639e87058514612975578063a217fddf1461295b578063a299e2981461286e578063a3b9c5c21461275a578063a457af3d1461267e578063a4b32de814612644578063a7fa6f9814612628578063aac6aa9c146125ff578063aaf5eb68146125dd578063ad3cb1cc1461257f578063b0dfce061461254b578063b54b2b9e14612529578063ba05bbf514612501578063c07449e2146124a5578063c35082a9146123db578063c735302514612357578063cadd550c14612287578063cb15038b14612216578063cbb6d6bd14611f70578063cea9d26f14611dc1578063d0e30db014611d9e578063d1736ba714611c75578063d27a6f0614611c58578063d547741f14611c22578063d655b92a14611af9578063d673e0b914611ac1578063d775cb6114611a7b578063d9e257ef146119d7578063db8a173a146119b8578063dc972ccc14611904578063defe2053146118dc578063e0a5825b1461170d578063e1a45218146116f1578063e1ee4bcc1461145b578063e4e88de81461140b578063eb4735331461138b578063f0b52bb41461119b578063f340c0d014611089578063f38c7c4e14611041578063f3c4d8a014610fbe578063f3c9b31114610fa1578063f46913bb14610f64578063f7cb789a14610f3c578063f8fd979514610a7f578063fbcc7b3d14610a3c578063fbec4861146109f1578063fc5e7e091461096c578063fc8a91af146105735763fd7d3dbc0361000e573461056f5761055c61055661053836615f52565b610547969295969493946163d2565b61054f6162eb565b3691616263565b93617790565b60015f8051602061923f83398151915255005b5f80fd5b3461056f5761058136615f18565b919061058b6163d2565b821561095d576001600160a01b03169182610941576040516105ac81615e34565b5f81525f6020820152925b6105c084616e1e565b6001600160a01b0384165f8181526017602052604090206002810154919692919081158015610935575b156108ef57505083905b5f955f5b335f52601260205260405f20548110156108e357335f5260126020526106218160405f206162be565b5080546001600160a01b03168a14806108cc575b61064257506001016105f8565b93949596975050905f90335f52601460205260405f205f918154925b8381106108585750505050610677906001840154616058565b90838210610838575050335f52601460205260405f209060ff60036001600160401b035f541692015416604051926106ae84615e85565b8884526020840195865260408401908582526060850193845260808501926106d581615dee565b83528054600160401b811015610824576106f4916001820181556162be565b949094610811575184546001600160a01b0319166001600160a01b039190911617845594518051899661079d956001600160401b03938493600393916107739160018501919061074d9061074781615dee565b83616397565b602001518154610100600160a81b03191660089190911b610100600160a81b0316179055565b51600282015501935116166001600160401b0319835416178255519061079882615dee565b6163af565b6001600160401b036001946107bb5f5483808260801c169116616323565b9060405193845260208401521660408201527f06325d83435da87657b063c6142a5b91a66a7e811827d082d624287a9953c4ba60603392a45b156107fb57005b6309078cff60e21b5f523360045260245260445ffd5b634e487b7160e01b5f525f60045260245ffd5b634e487b7160e01b5f52604160045260245ffd5b869161084391617e16565b6388c4fe8f60e01b5f5260045260245260445ffd5b8b61086382856162be565b50546001600160a01b031614806108a6575b610882575b60010161065e565b9361089e600191600261089588876162be565b5001549061623f565b94905061087a565b50816108c66108c160016108ba85886162be565b5001616351565b616e1e565b14610875565b50836108dd6108c160028401616351565b14610635565b505050505050506107f4565b81610901600161090693015488616065565b61623f565b5f198101919082116109215761091b91616078565b906105f4565b634e487b7160e01b5f52601160045260245ffd5b506001810154156105ea565b60405161094d81615e34565b60018152836020820152926105b7565b631f2a200560e01b5f5260045ffd5b3461056f57602036600319011261056f57610985615d73565b5f906001600160a01b0316815b815f52601260205260405f20548310156109e6576109de600191835f5260126020526109d86109c48660405f206162be565b5084808060a01b0382541691015490617e16565b9061623f565b920191610992565b602090604051908152f35b61055c610556610a0036615f52565b610a0f969295969493946163d2565b610a176162eb565b6001600160a01b038416610a2d5761054f617256565b610a3785856175fd565b61054f565b3461056f57602036600319011261056f57610a55615d73565b610a5d6168d1565b601f80546001600160a01b0319166001600160a01b0392909216919091179055005b3461056f575f36600319011261056f57610a976162eb565b5f335f52601160205260405f20905f90825492610ab38461624c565b610ac06040519182615ea0565b848152601f19610acf8661624c565b01366020830137610adf8561624c565b94610aed6040519687615ea0565b808652601f19610afc8261624c565b015f5b818110610f19575050610b118161624c565b93610b1f6040519586615ea0565b818552601f19610b2e8361624c565b013660208701375f8054906001600160401b0382169160c01c905b8987868310610e7157898b918983610d1b575b50505f5b828110610b7a5760015f8051602061923f83398151915255005b610b848185616383565b5190610b908184616383565b51918051610b9d81615dee565b610ba681615dee565b610c575750905f80808093335af1610bbc617227565b5015610c19576001905b818060a01b036020610bd88388616383565b51015116610be68285616383565b516040519081527fd1c19fbcd4551a5edfb66d43d2e337c04837afda3482b42bdf569a8fccdae5fb60203392a301610b60565b60405162461bcd60e51b815260206004820152601660248201527513985d1a5d99481d1c985b9cd9995c8819985a5b195960521b6044820152606490fd5b602090810180516001600160a01b039081165f908152600690935260409092205490911692908315610cfc575060405163f3fef3a360e01b8152336004820152602481019190915291602090839060449082905f905af1918215610cf157600192610cc3575b50610bc6565b610ce39060203d8111610cea575b610cdb8183615ea0565b8101906188a4565b5085610cbd565b503d610cd1565b6040513d5f823e3d90fd5b5160019350610d16919033906001600160a01b0316617736565b610bc6565b909192935f945f5b8454811015610e1257610d368185616383565b5115610d45575b600101610d23565b95868103610d61575b610d59600191616343565b969050610d3d565b610d6b8786617777565b50610d768287617777565b929092610811578282610d5993600195141580610d99575b505050915050610d4e565b6001600160401b03600281938193610dd2575b8881015489870155015416920191166001600160401b0319825416179055898080610d8e565b610de060ff82541687616397565b80548654610100600160a81b031916600891821c60a08c901b8c90031690911b610100600160a81b0316178655610dac565b5091509193925b845484811115610e64578015610e50575f1901610e368187617777565b610811576002815f80935582600182015501558555610e19565b634e487b7160e01b5f52603160045260245ffd5b5091935091508380610b5c565b610e93846001600160401b036002610e8a878396617777565b50015416616323565b16841015610ea5575b50600101610b49565b610f0a8a95610ee5849c610f1094610ed5610ecf888f8f610ec960019c8d92616383565b52617777565b50616351565b610edf8383616383565b52616383565b5083610ef18d8c617777565b500154610efe888d616383565b52836108958d8c617777565b94616343565b98905089610e9c565b602090604051610f2881615e34565b5f81525f8382015282828b01015201610aff565b3461056f575f36600319011261056f5760206001600160401b035f5460401c16604051908152f35b3461056f57604036600319011261056f576001600160a01b03610f85615d73565b165f52600a602052602060243560405f20541015604051908152f35b3461056f575f36600319011261056f5760206040516213c6808152f35b3461056f57602036600319011261056f5760043561ffff811680820361056f5761271090610fea6168d1565b1161100e5761ffff60401b6001549160401b169061ffff60401b1916176001555f80f35b60405162461bcd60e51b815260206004820152600b60248201526a496e76616c69642042505360a81b6044820152606490fd5b602036600319011261056f57600435600581101561056f5761055c906110656163d2565b61106d6162eb565b60405161107981615e34565b5f81525f60208201523490618477565b3461056f57602036600319011261056f576001600160a01b036110aa615d73565b165f52601160205260405f208054906110c28261624c565b916110d06040519384615ea0565b8083526020830180925f5260205f205f915b838310611154578486604051918291602083019060208452518091526040830191905f5b818110611114575050500390f35b91935091602060806001926001600160401b0360408851611136848251615df8565b85810151828501520151166060820152019401910191849392611106565b6003602060019260405161116781615e4f565b61117086616351565b815284860154838201526001600160401b0360028701541660408201528152019201920191906110e2565b3461056f5760c036600319011261056f576111b4615d73565b6111bc615d89565b906044356064359060a4359261ffff841680940361056f576111dc616940565b6001600160a01b0316936111f185151561601f565b6001600160a01b03169161120683151561619d565b60405163551c457b60e11b81526004810186905293602085602481875afa938415610cf15760056112c661ffff926112696040987f9a4c59c56153245e23dcb8000e301b9a5e35b8e6693c5cdbf3b6a2aa0f8a37ea9a5f9161135c575b506161f3565b895f526006602052875f20816001600160601b0360a01b8254161790558751908a7fc47df14ad9309b59073546f93dbe3115ed09c8b206d940f8441ddb07f745b10b5f80a36112b781615e34565b60018152896020820152616e1e565b8651906112d282615e6a565b60018252602082018781528883018781526060840191608435835260808501935f855260a086019889525f52600260205261131f8b5f2095511515869060ff801983541691151516179055565b5160018501555160028401555160038301555160048201550191511661ffff1982541617905561134e85618103565b5082519182526020820152a2005b61137e915060203d602011611384575b6113768183615ea0565b8101906161db565b8c611263565b503d61136c565b3461056f57602036600319011261056f576001600160a01b036113ac615d73565b16805f52600960205260405f20541515806113cf575b6020906040519015158152f35b505f52600a60205260ff600160405f20015460201c1660038110156113f757602090156113c2565b634e487b7160e01b5f52602160045260245ffd5b3461056f57602036600319011261056f5760206114536001600160a01b03611431615d73565b16805f52600a835260405f2054905f5260178352600260405f2001549061623f565b604051908152f35b3461056f57604036600319011261056f57611474615d73565b602435906114806163d2565b811561095d576001600160a01b031690816116d6576040516114a181615e34565b5f81525f60208201525b6114b481616e1e565b335f52600f60205260405f20815f5260205260405f20908154906114dc600184015483616058565b905f90335f52601060205260405f20905f5260205260405f205f908054915b82811061168a575050508083111561168357856115188285616058565b1061166c575084811061165557508361153091616058565b9055335f52601160205260405f206001600160401b035f5416906040519261155784615e4f565b83526020830190848252604084019283528054600160401b8110156108245761158591600182018155617777565b939093610811576001600160401b03926002926115d88593516115b281516115ac81615dee565b89616397565b602001518754610100600160a81b03191660089190911b610100600160a81b0316178755565b5160018601555116920191166001600160401b03198254161790557f91eff7d39d2499d76ac21a1903a95a88f31589cb07b1ffdfb61db9f7cd8a397861165061162f5f546001600160401b038160c01c9116616323565b604080519485526001600160401b0390911660208501523393918291820190565b0390a3005b849063adb9e04360e01b5f5260045260245260445ffd5b8590638ec3321160e01b5f5260045260245260445ffd5b855f611518565b6116948183618334565b506001600160401b0360014392015460081c16116116b5575b6001016114fb565b926116ce6001916116c68685618334565b50549061623f565b9390506116ad565b6040516116e281615e34565b600181528260208201526114ab565b3461056f575f36600319011261056f5760206040516127108152f35b3461056f57604036600319011261056f57611726615d73565b602435906117326163d2565b61173a6162eb565b335f52600960205260405f20546118c9576001600160a01b031680156118b65761177860405161176981615e34565b60018152826020820152616e1e565b5f52600260205260405f2060ff815416156118a3576001839101549182821061188c576117a99250309033906189ef565b6117b23361809d565b506040516117bf81615e19565b818152602081015f8152604082015f815263ffffffff80600160608601955f8752335f52600a60205260405f2090518155019351161663ffffffff198354161782555160038110156113f75761184d926118216001600160401b039284616ada565b5182546cffffffffffffffff00000000001916911660281b6cffffffffffffffff000000000016179055565b6040519081527fbc11617e575d658c74e921c8df22f8e48566072fa78145a6cfe18420bf8d0c4e60203392a260015f8051602061923f83398151915255005b50506322df051360e11b5f5260045260245260445ffd5b5063f6f24b8360e01b5f5260045260245ffd5b63f6f24b8360e01b5f525f60045260245ffd5b63866b0dcf60e01b5f523360045260245ffd5b3461056f575f36600319011261056f57601e546040516001600160a01b039091168152602090f35b3461056f57602036600319011261056f576001600160a01b03611925615d73565b165f52600c60205260405f20604051806020835491828152019081935f5260205f20905f5b8181106119a25750505081611960910382615ea0565b604051918291602083019060208452518091526040830191905f5b818110611989575050500390f35b825184528594506020938401939092019160010161197b565b825484526020909301926001928301920161194a565b3461056f575f36600319011261056f5760205f5460c01c604051908152f35b5f36600319011261056f576119ea6163d2565b6119f26162eb565b335f52600a60205260405f2060ff600182015460201c1660038110156113f757611a6857341561095d57611a2734825461623f565b90556040513481527f614a3fa8467eb54cb60af3aab440279837c9fcd75c5a2617fe0af9c6e5e60e8360203392a260015f8051602061923f83398151915255005b6371ab6ad560e11b5f523360045260245ffd5b3461056f575f36600319011261056f57611aa8604051611a9a81615e34565b5f81525f6020820152616e1e565b5f5260026020526020600160405f200154604051908152f35b3461056f57602036600319011261056f576001600160a01b03611ae2615d73565b165f52600a602052602060405f2054604051908152f35b3461056f57604036600319011261056f57611b12615d73565b611b1a615d89565b90611b23616940565b6001600160a01b0316908115611bdd576001600160a01b031690611b4882151561619d565b60405163551c457b60e11b815260048101829052602081602481865afa8015610cf157611b7b915f91611bbe57506161f3565b5f81815260066020526040812080546001600160a01b031916841790557fc47df14ad9309b59073546f93dbe3115ed09c8b206d940f8441ddb07f745b10b9080a3005b611bd7915060203d602011611384576113768183615ea0565b84611263565b60405162461bcd60e51b815260206004820152601d60248201527f43616e6e6f7420736574206164617074657220666f72206e61746976650000006044820152606490fd5b3461056f57604036600319011261056f57610018600435611c41615d89565b90611c53611c4e82616001565b6169f8565b61718b565b3461056f575f36600319011261056f5760206040516209e3408152f35b3461056f575f36600319011261056f57611c8d6162eb565b335f52600a60205260405f2060018101805460ff8160201c1660038110156113f757600203611d8b576001600160401b03805f54169160281c166001600160401b0360015416906001600160401b03611ce68383616323565b168310611d6157611d295f8080808989828254925564010000000064ff0000000019825416179055611d17336186fe565b50335af1611d23617227565b50617637565b337f120599f8830115ed973189f8f4947cc793fcd90a15d47c4d6ad8d1a3f15af7345f80a260015f8051602061923f83398151915255005b6001600160401b039291611d7491616323565b90631b04d91d60e21b5f526004521660245260445ffd5b639923c53960e01b5f523360045260245ffd5b5f36600319011261056f57611db16163d2565b611db96162eb565b61055c617256565b3461056f57611dcf36615f18565b335f9081527fb7db2dd08fcb62d0c9e08c51941cae53c267786a0b75803fb7960902fc8ef97d60205260409020549192909160ff1615611f59576001600160a01b03831615611f20578115611eea576001600160a01b03165f81815260046020526040902054909290611ea5575f838152600660205260409020546001600160a01b0316611e605761001892617736565b60405162461bcd60e51b815260206004820152601b60248201527f43616e6e6f7420726573637565206164617074656420617373657400000000006044820152606490fd5b60405162461bcd60e51b815260206004820152601e60248201527f43616e6e6f7420726573637565207265676973746572656420617373657400006044820152606490fd5b60405162461bcd60e51b815260206004820152600e60248201526d125b9d985b1a5908185b5bdd5b9d60921b6044820152606490fd5b60405162461bcd60e51b8152602060048201526011602482015270125b9d985b1a59081c9958da5c1a595b9d607a1b6044820152606490fd5b63e2517d3f60e01b5f52336004525f60245260445ffd5b3461056f57608036600319011261056f57611f89615d73565b6064359061ffff8216820361056f575f8051602061925f833981519152549160ff8360401c1615926001600160401b0381168015908161220e575b6001149081612204575b1590816121fb575b506121ec5767ffffffffffffffff1981166001175f8051602061925f8339815191525560079261208391856121c0575b5061200f61896c565b61201761896c565b61201f61896c565b61202761896c565b60ff195f8051602061921f83398151915254165f8051602061921f8339815191525561205161896c565b61205961896c565b60015f8051602061923f8339815191525561207381616b84565b5061207d81616c1b565b50616cd4565b50612093604051611a9a81615e34565b61ffff60056040516120a481615e6a565b6001815260208101602435815260408201604435815260608301905f825260808401925f845260a085019761271089525f5260026020526120f860405f2095511515869060ff801983541691151516179055565b5160018501555160028401555160038301555160048201550191511661ffff19825416179055600160ff19600554161760055561ffff60401b60015491780700000000000000070000000000001c2000000000000000015f5560401b169069ffffffffffffffffffff1916171760015561216e57005b60ff60401b195f8051602061925f83398151915254165f8051602061925f833981519152557fc7f505b2f371ae2175ee4913f4499e1f2633a7b5936321eed1cdaeb6115181d2602060405160018152a1005b68ffffffffffffffffff191668010000000000000001175f8051602061925f8339815191525585612006565b63f92ee8a960e01b5f5260045ffd5b90501585611fd6565b303b159150611fce565b859150611fc4565b3461056f57606036600319011261056f5761222f615d73565b604435600581101561056f576122436163d2565b61224b6162eb565b6001600160a01b03821680156118b65761226b61055c93602435906188b3565b906040519061227982615e34565b600182526020820152618477565b3461056f57602036600319011261056f576001600160a01b036122a8615d73565b16805f52600a60205260405f2060ff600182015460201c1660038110156113f757612325576001905491805f526017602052600260405f20015490604051936122f085615e34565b8452602084019182526001600160401b035f54165f52600e60205260405f20905f5260205260405f2092518355519101555f80f35b60405162461bcd60e51b815260206004820152600a6024820152694e6f742061637469766560b01b6044820152606490fd5b3461056f57602036600319011261056f57612370615d9f565b335f52600a60205260ff600160405f20015460201c1660038110156113f757611a6857335f52600c6020526123b36001600160401b0360405f2092168092618153565b50337fb6d5e45d77b8967cff525b375be6e07f99ca5af91d88724ac1237aafe295d50e5f80a3005b3461056f57604036600319011261056f576123f4615d73565b6123fc615d89565b612404616167565b5061240d616167565b506001600160a01b031680612489575060405161242981615e34565b5f81525f6020820152905b6001600160a01b03165f908152600f602052604090209061245490616e1e565b5f5260205261248561246860405f2061617f565b604051918291829190916020806040830194805184520151910152565b0390f35b6040519061249682615e34565b60018252602082015290612434565b3461056f57604036600319011261056f576124be615d9f565b6001600160401b036124ce615d89565b916124d7616167565b50165f52600e60205260405f209060018060a01b03165f5260205261248561246860405f2061617f565b3461056f575f36600319011261056f5760206001600160401b035f5460801c16604051908152f35b3461056f575f36600319011261056f57602060ff600754166040519015158152f35b3461056f575f36600319011261056f576125636162eb565b61256b617675565b5060015f8051602061923f83398151915255005b3461056f575f36600319011261056f57604080519061259e8183615ea0565b600582526020820191640352e302e360dc1b83528151928391602083525180918160208501528484015e5f828201840152601f01601f19168101030190f35b3461056f575f36600319011261056f576020604051670de0b6b3a76400008152f35b3461056f57602036600319011261056f5761001861261b615d73565b6126236168d1565b6170fa565b3461056f575f36600319011261056f5760206040516132c88152f35b3461056f575f36600319011261056f5760206040517fb1fadd3142ab2ad7f1337ea4d97112bcc8337fc11ce5b20cb04ad038adf998198152f35b3461056f57604036600319011261056f57612697615d73565b61269f615db5565b905f60806040516126af81615e85565b828152826020820152826040820152826060820152015260018060a01b03165f5260506020526001600160401b0360405f2091165f5260205260a060405f206040516126fa81615e85565b6001600160401b038254169182825260018101546020830190815260028201549060408401918252608060046003850154946060870195865201549401938452604051948552516020850152516040840152516060830152516080820152f35b3461056f57606036600319011261056f57612773615d73565b61277b615db5565b506044359061271061279661ffff60015460401c1684616065565b04916127ce6127a58483616058565b9260018060a01b03811694855f5260196020526127c760405f2091825461623f565b90556182fe565b825f52601760205260405f20906001820191825415155f1461283d57670de0b6b3a7640000840293808504670de0b6b3a764000014901517156109215761283161282a5f8051602061919f833981519152956020955490616078565b825461623f565b90555b604051908152a2005b50602091505f8051602061919f83398151915292845f526019835261286760405f2091825461623f565b9055612834565b3461056f57602036600319011261056f576001600160a01b0361288f615d73565b16805f52600d60205260405f2054906128a78261624c565b916128b56040519384615ea0565b8083526128c18161624c565b602084019290601f19013684375f5b828110612924578385604051918291602083019060208452518091526040830191905f5b818110612902575050500390f35b82516001600160a01b03168452859450602093840193909201916001016128f4565b600190825f52600d60205261293c8160405f20618088565b838060a01b0391549060031b1c166129548288616383565b52016128d0565b3461056f575f36600319011261056f5760206040515f8152f35b3461056f575f36600319011261056f57602060405162034bc08152f35b3461056f57604036600319011261056f5761055c6129ae615d73565b6129b66163d2565b6129be6162eb565b602435906175fd565b3461056f57602036600319011261056f576001600160a01b036129e8615d73565b165f52605160205260206001600160401b0360405f205416604051908152f35b3461056f57606036600319011261056f57612a21615d73565b612a29615db5565b906044356001600160a01b038116810361056f5760209261145392616096565b3461056f57604036600319011261056f57612a62615d89565b6004355f525f805160206191ff83398151915260205260405f209060018060a01b03165f52602052602060ff60405f2054166040519015158152f35b3461056f5760a036600319011261056f576020611453612abc615d73565b612ac4615db5565b90612acd615dcb565b612ad56169af565b608435926064359261730b565b3461056f57602036600319011261056f576001600160a01b03612b03615d73565b165f5260176020526020600260405f200154604051908152f35b3461056f57602036600319011261056f576001600160a01b03612b3e615d73565b165f526006602052602060018060a01b0360405f205416604051908152f35b3461056f575f36600319011261056f5760206001600160401b035f5416604051908152f35b3461056f575f36600319011261056f57335f52600a602052600160405f200160ff815460201c1660038110156113f757611a6857612c039064020000000064ff00000000198254161781556001600160401b035f54166cffffffffffffffff000000000082549160281b16906cffffffffffffffff00000000001916179055565b612c236001600160401b035f54166001600160401b036001541690616323565b6001600160401b03604051911681527ffd47ed8e653fba5e6e9fcaa947419ca2334b3972ce196132ec69708574d6d35a60203392a2005b3461056f57604036600319011261056f57600435612c76615db5565b90612c7f6163d2565b335f52601260205260405f2054811015612f2157335f526012602052612ca88160405f206162be565b5090600160ff600384015416612cbd81615dee565b03612f1257335f52601360205260405f20815f5260205260405f208054926001841115612f03576001600160401b038516935f1993905f5b818110612ed0575b50505f198414612ebd57335f908152601d6020908152604080832085546001600160a01b0316845282528083208884529091528120805491905583545f198101959190861161092157612d776001600160401b03612d68612d6189612d9595616078565b9888616a4a565b90549060031b1c169286616a4a565b81939154906001600160401b03809160031b9316831b921b19161790565b905582548015610e50575f1901612dac8185616a4a565b6001600160401b0382549160031b1b1916905583555f5b8354811015612e2b57335f908152601d6020908152604080832086546001600160a01b031684529091529020600191906001600160401b0380612e068489616a4a565b90549060031b1c16165f5260205260405f20612e2387825461623f565b905501612dc3565b868383886040519081527fc38cef0d003bc8a9982db0d994b2ea048946028e9255cc061a56abcbb7d548a160203392a3601f546001600160a01b031680612e6e57005b81546001600160a01b031690803b1561056f5760025f8094612ea960405197889687958694632d01c5cb60e01b865201903360048601616a88565b03925af1612eb357005b5f61001891615ea0565b84633062236b60e11b5f5260045260245ffd5b866001600160401b03612ee38388616a4a565b90549060031b1c1614612ef857600101612cf5565b945087905080612cfd565b63301ac92560e21b5f5260045ffd5b63138dfed560e11b5f5260045ffd5b630b21815d60e11b5f5260045260245ffd5b3461056f575f36600319011261056f57612f4b6168d1565b612f536163d2565b600160ff195f8051602061921f8339815191525416175f8051602061921f833981519152557f62e78cea01bee320cd4e420270b5ea74000d11b0c9f74754ebdbfc544b05a2586020604051338152a1005b3461056f575f36600319011261056f576020604051620697808152f35b3461056f57602036600319011261056f576004356001600160a01b038116810361056f5761256b90612ff16162eb565b617277565b3461056f575f36600319011261056f576020600854604051908152f35b3461056f57604036600319011261056f576001600160a01b03613034615d73565b165f52601360205260405f206024355f5260205260405f20604051908190602081549384815201905f5260205f20925f935b81600386011061311957916124859484926130a39454918181106130ff575b8181106130e2575b8181106130c5575b106130b7575b500382615ea0565b604051918291602083526020830190615edc565b60c01c81526020018561309b565b9260206001916001600160401b038560801c168152019301613095565b9260206001916001600160401b038560401c16815201930161308d565b9260206001916001600160401b0385168152019301613085565b916001608060049285546001600160401b03811682526001600160401b038160401c1660208301526001600160401b0381841c16604083015260c01c6060820152019301940193613066565b3461056f57602036600319011261056f5760043580151580910361056f5760207fe2c375ae70efa82f7f1d8e9555f83f2df5c692d66834ebabba9d897fca46f3df916131af616940565b60ff196007541660ff821617600755604051908152a1005b3461056f575f36600319011261056f57602060ff600554166040519015158152f35b3461056f575f36600319011261056f5760206040517fa49807205ce4d355092ef5a8a18f56e8913cf4a201fbe287825b095693c217758152f35b3461056f57602036600319011261056f5761323c615d73565b613244616940565b6001600160a01b0316806132a557613261604051611a9a81615e34565b60ff19600554166005555b5f52600260205260405f2060ff1981541690557ffc9274ad64ab0a7d8dedd8c9297fb4e25d7a17eb057457c6bcf2a8f13dc8859c5f80a2005b6132b460405161176981615e34565b6132bd82618653565b5061326c565b3461056f57602036600319011261056f576132dc615d73565b5f60a06040516132eb81615e6a565b8281526020810183905260408101839052606081018390526080810183905201526001600160a01b0316806133b7575061332a604051611a9a81615e34565b5f52600260205260c060405f2061ffff60405161334681615e6a565b60ff8354161515928382526001810154602083019081526002820154604084019081526003830154916060850192835260a0866005600487015496608089019788520154169501948552604051968752516020870152516040860152516060850152516080840152511660a0820152f35b60405161332a916133c782615e34565b600182526020820152616e1e565b3461056f57602036600319011261056f57602061340d6001600160a01b036133fb615d73565b165f52600960205260405f2054151590565b6040519015158152f35b3461056f57602036600319011261056f57610018613433615d73565b61343b6168d1565b616aff565b3461056f575f36600319011261056f57602060ff5f8051602061921f83398151915254166040519015158152f35b3461056f57602036600319011261056f57613487615d73565b61348f616940565b6001600160a01b039081165f81815260066020526040902054909116156134f1575f81815260066020526040812080546001600160a01b03191690557fdf980d21d8c7bb34800e668dbe003299093bac8e693614151d3c57f73f98a93d9080a2005b60405162461bcd60e51b8152602060048201526015602482015274139bc81859185c1d195c881c9959da5cdd195c9959605a1b6044820152606490fd5b3461056f57602036600319011261056f57613547615d73565b6001600160a01b03165f9081525f805160206191bf833981519152602090815260409182902054915160ff9092161515825290f35b3461056f57602036600319011261056f576001600160a01b0361359d615d73565b165f52601460205260405f208054906135b58261624c565b916135c36040519384615ea0565b8083526020830180925f5260205f205f915b83831061366b578486604051918291602083019060208452518091526040830191905f5b818110613607575050500390f35b91935091602060c060019260808751858060a01b0381511683526136318582015186850190615df8565b604081015160608401526001600160401b0360608201511682840152015161365881615dee565b60a08201520194019101918493926135f9565b6004602060019260405161367e81615e85565b848060a01b038654168152613694858701616351565b838201526002860154604082015260ff60038701546001600160401b038116606084015260401c166136c581615dee565b60808201528152019201920191906135d5565b3461056f575f36600319011261056f576020604051612ee08152f35b3461056f575f36600319011261056f577f00000000000000000000000000000000000000000000000000000000000000006001600160a01b0316300361374b5760206040515f8051602061917f8339815191528152f35b63703e46dd60e11b5f5260045ffd5b3461056f575f36600319011261056f5760206040515f805160206191df8339815191528152f35b604036600319011261056f57613795615d73565b602435906001600160401b03821161056f573660238301121561056f578160040135906137c182615ec1565b916137cf6040519384615ea0565b8083526020830193366024838301011161056f57815f926024602093018737840101526001600160a01b037f000000000000000000000000000000000000000000000000000000000000000016308114908115613968575b5061374b576138346168d1565b6040516352d1902d60e01b81526001600160a01b0382169390602081600481885afa5f9181613934575b506138765784634c9c8ce360e01b5f5260045260245ffd5b805f8051602061917f8339815191528692036139225750823b15613910575f8051602061917f83398151915280546001600160a01b031916821790557fbc7cd75a20ee27fd9adebab32041f755214dbc6bffa90cc0225b39da2e5c2d3b5f80a28251156138f7575f8091610018945190845af46138f1617227565b916190ba565b5050503461390157005b63b398979f60e01b5f5260045ffd5b634c9c8ce360e01b5f5260045260245ffd5b632a87526960e21b5f5260045260245ffd5b9091506020813d602011613960575b8161395060209383615ea0565b8101031261056f5751908661385e565b3d9150613943565b5f8051602061917f833981519152546001600160a01b03161415905084613827565b3461056f575f36600319011261056f5760206001600160401b0360015416604051908152f35b3461056f57604036600319011261056f576139c9615d73565b602435906139d56163d2565b6139dd6162eb565b811561095d57604051916139f083615e34565b5f83525f6020840152613a0283616e1e565b6001600160a01b0383165f81815260176020526040902060028101549195919081158015613cb0575b15613c84575050825b5f945f5b335f52601260205260405f2054811015613c7957335f526012602052613a618160405f206162be565b5080546001600160a01b0316891480613c62575b613a825750600101613a38565b959650509091925f90335f52601460205260405f205f918154925b838110613c035750505050613ab6906001860154616058565b90828210613bf8575050335f52601460205260405f2060ff60036001600160401b035f5416950154169360405194613aed86615e85565b878652602086019485526040860192848452606087019283526080870191613b1481615dee565b82528054600160401b81101561082457613b33916001820181556162be565b939093610811576001600160401b036003613b899582936107738d9a5f9c60018060a01b039060018060a01b03905116166001600160601b0360a01b85541617845560018401905161074d815161074781615dee565b6001600160401b03600194613ba7855483808260801c169116616323565b9060405193845260208401521660408201527f06325d83435da87657b063c6142a5b91a66a7e811827d082d624287a9953c4ba60603392a45b156107fb5760015f8051602061923f83398151915255005b859161084391617e16565b8a613c0e82856162be565b50546001600160a01b03161480613c48575b613c2d575b600101613a9d565b93613c40600191600261089588876162be565b949050613c25565b5081613c5c6108c160016108ba85886162be565b14613c20565b5085613c736108c160028401616351565b14613a75565b505050505050613be0565b816109016001613c9693015487616065565b5f1981019190821161092157613cab91616078565b613a34565b50600181015415613a2b565b3461056f575f36600319011261056f57613cd46162eb565b61256b33617277565b3461056f57602036600319011261056f576001600160a01b03613cfe615d73565b165f52600d602052602060405f2054604051908152f35b602036600319011261056f5761055c613d2c615d73565b613d346163d2565b613d3c6162eb565b613d44617256565b34906163f9565b3461056f575f36600319011261056f576020604051613e808152f35b3461056f575f36600319011261056f57613d7f6162eb565b5f805b335f52601260205260405f2054821015613f8857335f526012602052613dab8260405f206162be565b5060ff600382015416613dbd81615dee565b613e5357613e4290600192670de0b6b3a7640000613e1285808060a01b03855416940154845f52601760205260405f2094335f52601860205260405f2090888060a01b03165f5260205260405f209454616065565b0482548082115f14613e4b57613e289082616058565b925b5f613e3a8783019586549061623f565b94555561623f565b915b0190613d82565b505f92613e2a565b335f9081526013602090815260408083208684529091528120915490916001600160a01b03909116908190835b8154811015613f7257956001876001600160401b03613ea0839a86616a4a565b90549060031b1c16855f52601a60205260405f206001600160401b0382165f52602052670de0b6b3a7640000613f2e60405f20335f52601b60205260405f208a5f5260205260405f206001600160401b0385165f5260205260405f2093335f52601d60205260405f208b5f526020526001600160401b0360405f2091165f5260205260405f20549054616065565b049080548083115f14613f6657613f5a613f495f9285616058565b9a5b6109d88785019c8d549061623f565b99555501909650613e80565b505f613f5a819a613f4b565b50505050613f829060019261623f565b91613e44565b80613faa575b60209060015f8051602061923f83398151915255604051908152f35b5f80808084335af1613fba617227565b5015613ff5576020906040518181527f106f923f993c2149d49b4255ff723acafa1f2d94393f561d3eda32ae348f7241833392a29050613f8e565b6312171d8360e31b5f5260045ffd5b3461056f57602036600319011261056f576004356140206163d2565b335f52600a60205260405f2060ff600182015460201c1660038110156113f757611a6857811561095d57614059604051611a9a81615e34565b5f526002602052600160405f200154335f52600b60205261408060405f2054809354616058565b8161408b8583616058565b10614128578361409b818561623f565b6001600160401b03600181805f5416604051946140b786615e34565b855260208501908152335f52600b60205260405f20945185555116920191166001600160401b03198254161790557ff7e874d9fd42838b0f06a44c7bbe45417b991e6b000e8ca4c5c1f086084a9cd361412361162f5f546001600160401b03808260801c169116616323565b0390a2005b8361413291616058565b906322df051360e11b5f5260045260245260445ffd5b3461056f575f36600319011261056f576141606168d1565b5f8051602061921f8339815191525460ff8116156141b75760ff19165f8051602061921f833981519152557f5db9ee0a495bf2e6ff9c91a7834c1ba4fdd244a5e8aa4e537bd38aeae4b073aa6020604051338152a1005b638dfc202b60e01b5f5260045ffd5b3461056f57608036600319011261056f576141df615d73565b6141e7615db5565b906141f0615dcb565b5060643561271061420a61ffff60015460401c1683616065565b049261423b6142198584616058565b9360018060a01b03811695865f5260196020526127c760405f2091825461623f565b835f52601760205260405f20906001820191825480614353575b5050845f52601a6020526001600160401b0360405f2091165f5260205260405f20906001600160401b035f54166001600160401b036003840191166001600160401b031982541617905560018201548015928315614303575b505092602092915f8051602061919f83398151915294541590816142fb575b506142dd575b50604051908152a2005b845f52601983526142f360405f2091825461623f565b9055846142d3565b9050866142cd565b9392909491670de0b6b3a7640000830294838604670de0b6b3a764000014841517156109215761434661282a5f8051602061919f83398151915298602098616078565b90559194819394506142ae565b670de0b6b3a76400008602868104670de0b6b3a76400001487151715610921576143809161282a91616078565b90558580614255565b3461056f57604036600319011261056f576143a2615d89565b336001600160a01b038216036143be576100189060043561718b565b63334bd91960e11b5f5260045ffd5b3461056f57608036600319011261056f5760206114536143eb615d73565b6143f3615db5565b906143fc6169af565b6064359160443591616e65565b3461056f5760a036600319011261056f57614422615d73565b60243590604435906084359261ffff841680940361056f577f9a4c59c56153245e23dcb8000e301b9a5e35b8e6693c5cdbf3b6a2aa0f8a37ea92604092614467616940565b6001600160a01b03169461447c86151561601f565b61ffff600561448f86516112b781615e34565b86519061449b82615e6a565b60018252602082018781528883018781526060840191606435835260808501935f855260a086019889525f52600260205261131f8b5f2095511515869060ff801983541691151516179055565b3461056f575f36600319011261056f57602061ffff60015460401c16604051908152f35b3461056f57602036600319011261056f576001600160a01b0361452d615d73565b165f52601260205260405f208054906145458261624c565b916145536040519384615ea0565b8083526020830180925f5260205f205f915b8383106145e8578486604051918291602083019060208452518091526040830191905f5b818110614597575050500390f35b91935091602060a0600192606087518580851b03815116835284810151858401526145ca60408201516040850190615df8565b01516145d581615dee565b6080820152019401910191849392614589565b600460206001926040516145fb81615e19565b848060a01b038654168152848601548382015261461a60028701616351565b604082015260ff60038701541661463081615dee565b6060820152815201920192019190614565565b3461056f57602036600319011261056f576001600160a01b03614664615d73565b165f526019602052602060405f2054604051908152f35b3461056f57604036600319011261056f5761001860043561469a615d89565b906146a7611c4e82616001565b616d8d565b3461056f57602036600319011261056f576146c5615d73565b6146cd615fdd565b506146d6615fdd565b5060018060a01b03165f52600a60205260405f206001604051916146f983615e19565b805483520154906020810163ffffffff8316815260ff8360201c16604083019160038210156113f75763ffffffff9183526001600160401b03606085019560281c16855260405193518452511660208301525160038110156113f7576080926001600160401b0391604084015251166060820152f35b3461056f575f36600319011261056f57601f546040516001600160a01b039091168152602090f35b5f36600319011261056f576147aa6163d2565b6147b26162eb565b6147c7335f52600960205260405f2054151590565b6118c9576147da604051611a9a81615e34565b5f52600260205260405f2060ff815416156118b657600101548034106148b1576148033361809d565b5060405161481081615e19565b348152602081015f8152604082015f815263ffffffff80600160608601955f8752335f52600a60205260405f2090518155019351161663ffffffff198354161782555160038110156113f757614872926118216001600160401b039284616ada565b6040513481527fbc11617e575d658c74e921c8df22f8e48566072fa78145a6cfe18420bf8d0c4e60203392a260015f8051602061923f83398151915255005b6322df051360e11b5f526004523460245260445ffd5b3461056f57602036600319011261056f576148e0615d9f565b335f52600c6020526149006001600160401b0360405f20921680926187a9565b50337f4b9bbf2ebc79e9fb39a64920934b3f458a486552d3df95395aa750ece9e970935f80a3005b3461056f57602036600319011261056f5760206149486004356008618088565b905460405160039290921b1c6001600160a01b03168152f35b3461056f57602036600319011261056f576020611453600435616001565b3461056f57604036600319011261056f5760043561499b615db5565b906149a46163d2565b335f52601260205260405f2054811015612f2157335f5260126020526149cd8160405f206162be565b5090600160ff6003840154166149e281615dee565b03612f1257335f52601360205260405f20815f5260205260405f205f9080546001600160401b038616925b818110614d0757506001850154906001810180821161092157614a309083616078565b9181614b7e575b5050335f52601d60205260405f2060018060a01b0386541660018060a01b03165f5260205260405f20835f526020528060405f205560018060a01b038554165f52601a60205260405f20835f52602052614ab8600260405f209260018401614aa082825461623f565b8091558181145f14614b585750925b0191825461623f565b90558054600160401b81101561082457612d778184936001614adc94018155616a4a565b90556040519081527fa7b81e017abeb50ecf2c121cb0db7087dfc4b3cc85cd8d857f9a5f1e81f6484560203392a3601f546001600160a01b031680614b1d57005b81546001600160a01b031690803b1561056f5760025f8094612ea9604051978896879586946367b2734d60e01b865201903360048601616a88565b614b72614b7892614b6c8588015482616065565b92616058565b90616078565b92614aaf565b91614b90614b95928298969794616078565b616058565b935f5b8354811015614cfa57806001600160401b03614bb660019387616a4a565b90549060031b1c16335f52601d60205260405f2090838060a01b0388541691848060a01b0383165f5260205260405f206001600160401b0382165f5260205260405f205491828a115f14614cef57614c0e8380616058565b90335f52601d60205260405f2090868060a01b03165f5260205260405f206001600160401b0383165f5260205260405f2055838060a01b038854165f52601a6020526001600160401b0360405f2091165f5260205260405f208381019081549083821015614c81575b5050505001614b98565b614c8d84600293616058565b809355019182549182151580614ce6575b15614ce057614b7282614cb485614cba95616065565b9261623f565b81811115614cd15750505f905b5589808080614c77565b614cda91616058565b90614cc7565b50614cba565b50801515614c9e565b614c0e8a8094616058565b5092949093508680614a37565b836001600160401b03614d1a8386616a4a565b90549060031b1c1614614d2f57600101614a0d565b8362d00d2f60e11b5f5260045260245ffd5b3461056f575f36600319011261056f575f546001600160401b03614d66818316616a6b565b1680916001600160401b031916175f557f7cee7087baafdfa8f9d1bd39c560782e2eedf861e2648b232a805033537c56955f80a2005b3461056f575f36600319011261056f576020604051612af88152f35b3461056f57602036600319011261056f57614dd1615d73565b5f906001600160a01b0316815b815f52601260205260405f20548310156109e657815f526012602052614e078360405f206162be565b5060ff600382015416614e1981615dee565b614ea8576001916109d8614e9592670de0b6b3a7640000614e73868060a01b0383541692835f52601760205260405f2093895f52601860205260405f2090898060a01b03165f526020528760405f20945491015490616065565b048154908181115f14614e9e578691614e8b91616058565b915b01549061623f565b925b0191614dde565b5050845f91614e8d565b5f8381526013602090815260408083208784529091528120805492549395936001600160a01b03169081905b848410614ee8575050505050600190614e97565b6001614f9781996109d86001600160401b03614f0989879d9a9b9c9d616a4a565b90549060031b1c16865f52601a60205260405f206001600160401b0382165f52602052670de0b6b3a7640000614e7360405f208b5f52601b60205260405f208b5f5260205260405f206001600160401b0385165f5260205260405f20938c5f52601d60205260405f208c5f526020526001600160401b0360405f2091165f5260205260405f20549054616065565b9501939695949750614ed4565b3461056f57604036600319011261056f57614fbd615d73565b614fc5615d89565b6001600160a01b039182169181165f805b845f52601260205260405f20548210156109e657845f526012602052614fff8260405f206162be565b5080546001600160a01b03168490036150ee5760ff60038201541661502381615dee565b615043576001916109d88361503a93015487617e16565b915b0190614fd6565b5090845f52601360205260405f20815f5260205260405f205f8154915b8282106150725750505060019061503c565b91939460016150df8998939597829a5f52601d60205260405f20845f5260205260405f206001600160401b03806150a98a8a616a4a565b90549060031b1c16165f526020526109d860405f20546001600160401b036150d18a8a616a4a565b90549060031b1c168761803f565b94019196975094929391615060565b509060019061503c565b3461056f57604036600319011261056f57615111615d73565b6001600160a01b03615121615d89565b1680615250575060405161513481615e34565b5f81525f6020820152905b6001600160a01b03165f9081526010602052604090209061515f90616e1e565b5f5260205260405f208054906151748261624c565b916151826040519384615ea0565b8083526020830180925f5260205f205f915b838310615207578486604051918291602083019060208452518091526040830191905f5b8181106151c6575050500390f35b91935091602060606001926001600160401b0360408851805184526151f18682015187860190615de1565b01511660408201520194019101918493926151b8565b6002602060019260405161521a81615e4f565b855481526001600160401b038587015461523960ff8216868501616a3e565b60081c166040820152815201920192019190615194565b6040519061525d82615e34565b6001825260208201529061513f565b3461056f57604036600319011261056f57615285615d73565b61528d615db5565b9060018060a01b03165f5260506020526001600160401b0360405f2091165f5260205260a060405f206001600160401b0381541690600181015490600281015460046003830154920154926040519485526020850152604084015260608301526080820152f35b3461056f57602036600319011261056f5761530d615d73565b6153156168d1565b601e80546001600160a01b0319166001600160a01b0392909216919091179055005b3461056f57606036600319011261056f576001600160401b03615358615d9f565b615360615db5565b90615369615dcb565b916153726168d1565b5f80546fffffffffffffffffffffffffffffffff1692851660801b9290921790841660c01b1790556001805467ffffffffffffffff191691909216179055005b3461056f57602036600319011261056f576153cb615d73565b6153d3615fdd565b506153dc615fdd565b5060018060a01b03165f526017602052608060405f206001600160401b0360405161540681615e19565b825492838252600181015460208301908152606084600360028501549460408701958652015416930192835260405194855251602085015251604084015251166060820152f35b3461056f57604036600319011261056f5761055c615469615d73565b6154716163d2565b6154796162eb565b602435906163f9565b3461056f57602036600319011261056f5760043563ffffffff60e01b811680910361056f57602090637965db0b60e01b81149081156154c7575b506040519015158152f35b6301ffc9a760e01b149050826154bc565b3461056f575f36600319011261056f576154f06162eb565b5f335f52601460205260405f20905f5b825481101561055c5761551381846162be565b50915f546001600160401b038061553681600388015416828560801c1690616323565b16911610615d635761554d6108c160018501616351565b83546002850154919391615569916001600160a01b0316617e16565b935f5b335f5260126020528560405f2054821015615d545750335f5260126020526155978160405f206162be565b50805483546001600160a01b0390811691161480615d3d575b6155bd575060010161556c565b93600385979297019660ff885416956155d587615dee565b600187148015615d1c57335f52601360205260405f20835f5260205260405f2060405180602083549182815201925f5260205f20905f915b816003840110615ccc579361564992849261564f965491818110615cb2575b818110615c95575b818110615c78575b10615c6a57500382615ea0565b98615dee565b80615c60575b615b83575b60018060a01b038554169760ff60028701549a5416976127109061568060018901616351565b995f61568b82615dee565b81615b5c575061569a8c6182fe565b8b5f52601760205260405f209c335f52601860205260405f208d60018060a01b03165f5260205260405f209b5f9c5f5b335f52601260205260405f2054811015615745578f335f5260126020526156f48260405f206162be565b509060018060a01b03825416148061572d575b615715575b506001016156ca565b6001919f826157269201549061623f565b9e9061570c565b5060ff60038201541661573f81615dee565b15615707565b509d8a9f9e6157c9989a9d9f8c9d9f670de0b6b3a7640000916157b1919e969798999a9c9e80615b1d575b5f9860018301615781828254616058565b90556002830180548a81811115615b0e5750505f905b5580821115615b05576157a991616058565b905b54616065565b0490555b6157c3878585858533618c53565b33618d92565b6157dd600160028801549301928354616058565b8255335f52600f60205260405f20905f52602052600160405f200161580c81548086115f14615afe5780616058565b90555415615987575b5061581f9161623f565b9260018060a01b0382541690600260018060a01b03600185015460081c169301549060405191825260208201527fe4183514c7483039538cd1f9ca20e489b3c411f3af1211cf6b5ad0a00ca4e22860403392a482545f1981019081116109215761588990846162be565b5061589482856162be565b919091610811578082036158da575b505082548015610e50575f19016158ba81856162be565b610811576003815f80935582600182015582600282015501558355615500565b805482546001600160a01b0319166001600160a01b03919091161782556159499160ff9060039081906001858101908201868303615950575b5050600285015460028201550192016001600160401b0380825416166001600160401b03198454161783555460401c16906163af565b83806158a3565b816159618761598094541683616397565b548154610100600160a81b031916610100600160a81b03909116179055565b8980615913565b905060018060a01b038354165f52600a602052600160405f200163ffffffff815416801561092157815463ffffffff19165f1991820163ffffffff1617909155335f908152601260205260409020805491820191821161092157615a01916159ee916162be565b5091335f52601260205260405f206162be565b61081157818103615a90575b5050335f52601260205260405f209081548015610e50575f190190615a3282846162be565b9290926108115761581f935f600385828b975582600182015582600282015501555560018060a01b03845416615a68813361757a565b15615a75575b5091615815565b5f52600d602052615a893360405f206187a9565b5087615a6e565b815481546001600160a01b0319166001600160a01b039190911617815560018083015490820155615adf9160039060ff9082906002808201908601828703615ae6575b50500154169101616397565b8580615a0d565b8161596186615af794541683616397565b8b80615ad3565b8590616058565b50505f906157ab565b615b1791616058565b90615797565b83615b29828454616065565b0485548082115f14615b5457615b3e91616058565b615b4d6001870191825461623f565b9055615770565b50505f615b3e565b909192939597809d9b8d615b7e6157c9989a9d9f849d9f855f918a9333618a33565b6157b5565b97939692909491615b9a6002890154885190616078565b955f5b8851811015615c5157335f908152601d602090815260408083208d546001600160a01b0316808552925290912060019291906001600160401b0380615be2858f616383565b5116165f5260205260405f20548a8181115f14615c425750505f905b335f52601d60205260405f2090848060a01b03165f526020528a6001600160401b0380615c2f8560405f2094616383565b5116165f5260205260405f205501615b9d565b615c4b91616058565b90615bfe565b5091939794989092955061565a565b5086511515615655565b60c01c81526020015f61309b565b9260206001916001600160401b038560801c16815201930161563c565b9260206001916001600160401b038560401c168152019301615634565b9260206001916001600160401b038516815201930161562c565b92936001608060049286546001600160401b03811682526001600160401b038160401c1660208301526001600160401b0381841c16604083015260c01c606082015201940192019193929361560d565b61564f602060405190615d2f8183615ea0565b5f8252505f36813798615dee565b5085615d4e6108c160028401616351565b146155b0565b9193905061581f92945061623f565b9150615d6e90616343565b615500565b600435906001600160a01b038216820361056f57565b602435906001600160a01b038216820361056f57565b600435906001600160401b038216820361056f57565b602435906001600160401b038216820361056f57565b604435906001600160401b038216820361056f57565b9060058210156113f75752565b600211156113f757565b6020908051615e0681615dee565b83528101516001600160a01b0316910152565b608081019081106001600160401b0382111761082457604052565b604081019081106001600160401b0382111761082457604052565b606081019081106001600160401b0382111761082457604052565b60c081019081106001600160401b0382111761082457604052565b60a081019081106001600160401b0382111761082457604052565b90601f801991011681019081106001600160401b0382111761082457604052565b6001600160401b03811161082457601f01601f191660200190565b90602080835192838152019201905f5b818110615ef95750505090565b82516001600160401b0316845260209384019390920191600101615eec565b606090600319011261056f576004356001600160a01b038116810361056f57906024356001600160a01b038116810361056f579060443590565b9060a060031983011261056f576004356001600160a01b038116810361056f57916024356001600160a01b038116810361056f579160443591606435600281101561056f57916084356001600160401b03811161056f578260238201121561056f578060040135926001600160401b03841161056f5760248460051b8301011161056f576024019190565b60405190615fea82615e19565b5f6060838281528260208201528260408201520152565b5f525f805160206191ff833981519152602052600160405f20015490565b1561602657565b60405162461bcd60e51b815260206004820152600a602482015269557365206e617469766560b01b6044820152606490fd5b9190820391821161092157565b8181029291811591840414171561092157565b8115616082570490565b634e487b7160e01b5f52601260045260245ffd5b929190925f9360018060a01b0382165f5260506020526001600160401b0360405f2091165f5260205260405f2090604051926160d184615e85565b6001600160401b038354168085526001840154602086015260028401549460408101958652608060046003870154966060840197885201549101521561615e579061611b9161757a565b918215616156575190519081811161613257505050565b670de0b6b3a7640000939450616152929161614c91616058565b90616065565b0490565b505f93505050565b505f9450505050565b6040519061617482615e34565b5f6020838281520152565b9060405161618c81615e34565b602060018294805484520154910152565b156161a457565b60405162461bcd60e51b815260206004820152600f60248201526e24b73b30b634b21030b230b83a32b960891b6044820152606490fd5b9081602091031261056f5751801515810361056f5790565b156161fa57565b60405162461bcd60e51b815260206004820152601d60248201527f4164617074657220646f65736e277420737570706f727420746f6b656e0000006044820152606490fd5b9190820180921161092157565b6001600160401b0381116108245760051b60200190565b929161626e8261624c565b9361627c6040519586615ea0565b602085848152019260051b810191821161056f57915b81831061629e57505050565b82356001600160401b038116810361056f57815260209283019201616292565b80548210156162d7575f5260205f209060021b01905f90565b634e487b7160e01b5f52603260045260245ffd5b60025f8051602061923f83398151915254146163145760025f8051602061923f83398151915255565b633ee5aeb560e01b5f5260045ffd5b906001600160401b03809116911601906001600160401b03821161092157565b5f1981146109215760010190565b9060405161635e81615e34565b602081935460ff811661637081615dee565b835260081c6001600160a01b0316910152565b80518210156162d75760209160051b010190565b906163a181615dee565b60ff80198354169116179055565b906163b981615dee565b60ff60401b82549160401b169060ff60401b1916179055565b60ff5f8051602061921f83398151915254166163ea57565b63d93c066560e01b5f5260045ffd5b6040519161640683615e34565b5f83525f602084015260209160405161641f8482615ea0565b5f81525f368137821561095d5780516168c2576001600160a01b0382165f908152600985526040902054156168a15760018060a01b0382165f52600a8452600160405f20019460ff8654861c1660038110156113f7576168835761648281616e1e565b335f52600f865260405f20815f52865260405f20928354936164a960018201548096616058565b87811061686c57506164bb8787618e43565b94851561095d57876164cc9161623f565b60018201555f985f805b335f5260128b5260405f205481101561685c57335f5260128b526164fd8160405f206162be565b5080546001600160a01b038b811691161480616845575b61652157506001016164d6565b91509192939495969798999a5060ff60038201541660025f10156113f75761654881615dee565b6168365760010161655a88825461623f565b905560015b61673d5750335f526012895260405f2054335f5260128a5260405f2060405161658781615e19565b6001600160a01b038a1681528b8101898152604082018981529260608301905f82528054600160401b811015610824576165c6916001820181556162be565b93909361081157616653948f6003946166429360018060a01b039060018060a01b03905116166001600160601b0360a01b8854161787555160018701556002860191519061661e825161661881615dee565b84616397565b01518154610100600160a81b03191660089190911b610100600160a81b0316179055565b519161664d83615dee565b01616397565b335f908152601c8b5260408082206001600160a01b038b1683528c52808220928252918b5220805460ff19166001179055805463ffffffff908116949085146109215760016166dc938a9363ffffffff836166e899011663ffffffff19825416179055818060a01b038a165f52600d8c526166d13360405f20618153565b505b01549033618e9e565b905f8786868933617e9d565b60200151604051938452938301526001600160a01b0392909216915f60408301526001600160a01b03169033907f4fe2fde631e986ee26283901b9cc8d6d4a311b750f9fa0d659520deba2995f1f90606090a4565b9050929192335f5260128952600160ff600361675c8460405f206162be565b5001541661676981615dee565b14616781575b50866166e8939260016166dc936166d3565b979491969295939097335f526013865260405f20905f52855260405f209586548015155f1461682e576167b49084616078565b975b5f5b885481101561681a57335f908152601d895260408082206001600160a01b038a1683528a529020600191906001600160401b03806167f6848e616a4a565b90549060031b1c16165f52895260405f206168128c825461623f565b9055016167b8565b50959893975093955090939092918661676f565b505f976167b6565b630abce6af60e41b5f5260045ffd5b50866168566108c160028401616351565b14616514565b509091929394959697989961655f565b87906312e1fa3760e11b5f5260045260245260445ffd5b6371ab6ad560e11b5f9081526001600160a01b038416600452602490fd5b5063bd62013360e01b5f9081526001600160a01b0391909116600452602490fd5b6310db86df60e21b5f5260045ffd5b335f9081527fb16e88c42fd4e48df2dd6a2eabd6bc9aec654ec170056b470819f8892cc6431c602052604090205460ff161561690957565b63e2517d3f60e01b5f52336004527fa49807205ce4d355092ef5a8a18f56e8913cf4a201fbe287825b095693c2177560245260445ffd5b335f9081527f5bc841a6d925a620866922bada36d16da3dcc9d52290519ea1126e5ca2372139602052604090205460ff161561697857565b63e2517d3f60e01b5f52336004527fb1fadd3142ab2ad7f1337ea4d97112bcc8337fc11ce5b20cb04ad038adf9981960245260445ffd5b335f9081525f805160206191bf833981519152602052604090205460ff16156169d457565b63e2517d3f60e01b5f52336004525f805160206191df83398151915260245260445ffd5b5f8181525f805160206191ff8339815191526020908152604080832033845290915290205460ff1615616a285750565b63e2517d3f60e01b5f523360045260245260445ffd5b60058210156113f75752565b91909180548310156162d7575f52601860205f208360021c019260031b1690565b6001600160401b03166001600160401b0381146109215760010190565b6001600160a01b03918216815291166020820152905460a0820193926080916001600160401b03919060ff8116616abe81615dee565b604086015260081c6001600160a01b0316606085015216910152565b9060038110156113f75764ff0000000082549160201b169064ff000000001916179055565b6001600160a01b0381165f9081525f805160206191bf833981519152602052604090205460ff16616b7f576001600160a01b03165f8181525f805160206191bf83398151915260205260408120805460ff191660011790553391905f805160206191df833981519152905f8051602061915f8339815191529080a4600190565b505f90565b6001600160a01b0381165f9081527fb7db2dd08fcb62d0c9e08c51941cae53c267786a0b75803fb7960902fc8ef97d602052604090205460ff16616b7f576001600160a01b03165f8181527fb7db2dd08fcb62d0c9e08c51941cae53c267786a0b75803fb7960902fc8ef97d60205260408120805460ff191660011790553391905f8051602061915f8339815191528180a4600190565b6001600160a01b0381165f9081527fb16e88c42fd4e48df2dd6a2eabd6bc9aec654ec170056b470819f8892cc6431c602052604090205460ff16616b7f576001600160a01b03165f8181527fb16e88c42fd4e48df2dd6a2eabd6bc9aec654ec170056b470819f8892cc6431c60205260408120805460ff191660011790553391907fa49807205ce4d355092ef5a8a18f56e8913cf4a201fbe287825b095693c21775905f8051602061915f8339815191529080a4600190565b6001600160a01b0381165f9081527f5bc841a6d925a620866922bada36d16da3dcc9d52290519ea1126e5ca2372139602052604090205460ff16616b7f576001600160a01b03165f8181527f5bc841a6d925a620866922bada36d16da3dcc9d52290519ea1126e5ca237213960205260408120805460ff191660011790553391907fb1fadd3142ab2ad7f1337ea4d97112bcc8337fc11ce5b20cb04ad038adf99819905f8051602061915f8339815191529080a4600190565b5f8181525f805160206191ff833981519152602090815260408083206001600160a01b038616845290915290205460ff16616e18575f8181525f805160206191ff833981519152602090815260408083206001600160a01b0395909516808452949091528120805460ff19166001179055339291905f8051602061915f8339815191529080a4600190565b50505f90565b805190616e2a82615dee565b602060018060a01b0391015116604051906020820192616e4981615dee565b8352604082015260408152616e5f606082615ea0565b51902090565b6001600160a01b0381165f818152600a602090815260408083206009909252909120549296959491939092156170e757616e9e876181a0565b6170d457835f52601760205260405f20918092616ec1600286549201548261623f565b9182156170c7579082879392116170bd575b90616ee1616ee69286616065565b616078565b93616f0d616f07616ef68b618223565b96616f01818d618282565b96616058565b8a6182bb565b92616f21616f1b858761623f565b9a618223565b948592616f33604051611a9a81615e34565b5f526002602052600160405f2001548154106170a1575b50835f52605160205260405f209889546001600160401b031699616f6d8b616a6b565b6001600160401b03166001600160401b03198254161790555f546001600160401b03169060405191616f9e83615e85565b8252602082018d8152604083018a8152606084019187835260808501938452885f5260506020528d60405f20906001600160401b03165f5260205260405f2094516001600160401b03166001600160401b03166001600160401b0319865416178555516001850155516002840155516003830155519060040155604051926001600160401b038493169561704392846040919493926060820195825260208201520152565b037f91754b254153861c1e9bc9186484a0bb770823acfa00423044ba1759a01210e791a36040805187815260208101939093528201527f1508fbe22c9805770740c8f3827567950022729e0096e311dc087990c157fffc90606090a3565b600101805464ff0000000019166401000000001790555f616f4a565b9093508390616ed3565b505f985050505050505050565b8363b516260d60e01b5f5260045260245ffd5b8363bd62013360e01b5f5260045260245ffd5b6001600160a01b0381165f9081525f805160206191bf833981519152602052604090205460ff1615616b7f576001600160a01b03165f8181525f805160206191bf83398151915260205260408120805460ff191690553391905f805160206191df833981519152907ff6391f5c32d9c69d2a47ea670b442974b53935d1edc7fd64eb21e047a839171b9080a4600190565b5f8181525f805160206191ff833981519152602090815260408083206001600160a01b038616845290915290205460ff1615616e18575f8181525f805160206191ff833981519152602090815260408083206001600160a01b0395909516808452949091528120805460ff19169055339291907ff6391f5c32d9c69d2a47ea670b442974b53935d1edc7fd64eb21e047a839171b9080a4600190565b3d15617251573d9061723882615ec1565b916172466040519384615ea0565b82523d5f602084013e565b606090565b61727560405161726581615e34565b5f81525f6020820152349061834d565b565b6001600160a01b03169081156172fc57335f52601960205260405f20549182156172ed575f808085819433835260196020528260408120555af16172b9617227565b5015613ff5576040518281527f106f923f993c2149d49b4255ff723acafa1f2d94393f561d3eda32ae348f724160203392a2565b6373380d9960e01b5f5260045ffd5b63d92e233d60e01b5f5260045ffd5b94939260018060a01b03861692835f52600a60205260405f209161733a855f52600960205260405f2054151590565b1561756757845f52601760205260405f2090855f52601a60205260405f206001600160401b0386165f5260205260405f20916173846002808754930154940154610901858461623f565b9081156175595787936173e96173e26173d2868f9b9a97966173f09681616ee19c991161754f575b816173c1614b9093616ee16173ca9487616065565b9c8d9885616065565b9a8b92616058565b926173dc8b618223565b9a618282565b968d6182bb565b968c61885a565b9461740861740287610901848961623f565b9b618223565b95869361741a604051611a9a81615e34565b5f526002602052600160405f200154815410617533575b50845f5260516020528b60405f209a8b546001600160401b03169b6174558d616a6b565b6001600160401b03166001600160401b03198254161790558b5f546001600160401b0316926040519361748785615e85565b84526020840190815260408401908c82526060850192898452608086019485528a5f52605060205260405f20906001600160401b03165f5260205260405f2094516001600160401b03166001600160401b03166001600160401b031986541617855551600185015551600284015551600383015551906004015561750a9161623f565b6040805195865260208601919091528401919091526001600160401b0316918060608101617043565b600101805464ff0000000019166401000000001790555f617431565b90915081906173ac565b505f99505050505050505050565b8463bd62013360e01b5f5260045260245ffd5b90915f925f5b6001600160a01b0384165f818152601260205260409020548210156175f657805f5260126020526175b48260405f206162be565b50546001600160a01b038481169116146175d2575b50600101617580565b600191956175ef915f526012602052826108958860405f206162be565b94906175c9565b5050509050565b6001600160a01b0381169081156118b6576172759261761b916188b3565b906040519061762982615e34565b60018252602082015261834d565b1561763e57565b60405162461bcd60e51b815260206004820152600f60248201526e151c985b9cd9995c8819985a5b1959608a1b6044820152606490fd5b335f52600b60205260405f20908154918215617730575f546001600160401b03806001818416940154169160801c16906001600160401b036176b78383616323565b168310611d615750505081335f52600a60205260405f206176d9828254616058565b9055335f52600b6020525f60016040822082815501556177025f80808085335af1611d23617227565b6040519081527fda2b51341079f3dd8e6763a50f329bbc3dc6ca6a51b920fe99fbf89a54ec0e2760203392a2565b505f9150565b60405163a9059cbb60e01b60208201526001600160a01b0392909216602483015260448083019390935291815261727591617772606483615ea0565b618997565b80548210156162d7575f52600360205f20910201905f90565b92939291906001600160a01b031680617dfa57506040516177b081615e34565b5f81525f6020820152935b811561095d576177ca81615dee565b8015948515617de55784516168c2575b6001600160a01b0384165f818152600960205260409020549094901561756757845f52600a602052600160405f20019060ff825460201c1660038110156113f757617dd25761782883616e1e565b96335f52600f60205260405f20885f5260205260405f2097600189549901936178538554809b616058565b888110617dbb57506178658885618e43565b998a1561095d57886178769161623f565b85555f9a5f805b335f52601260205260405f2054811015617da957335f5260126020526178a68160405f206162be565b5080546001600160a01b03168d1480617d92575b6178c7575060010161787d565b91509192939495969798809a9b9c9d5060ff6003830154166178e882615dee565b6178f181615dee565b03616836576001016179048d825461623f565b905560015b617c935750335f90815260126020526040908190208054915191929161792e81615e19565b8c8152602081018e8152604082018b815292606083019061794e8e615dee565b8d82528054600160401b8110156108245761796e916001820181556162be565b939093610811575183546001600160a01b0319166001600160a01b039190911617835590516001830155915180516179bb93600392909161664291600286019161074d9061074781615dee565b6179c489615dee565b15617aa257335f52601c60205260405f208a5f5260205260405f20905f5260205260405f20600160ff198254161790555b63ffffffff8154169163ffffffff83146109215786617a4c8a8d93617a53998e839763ffffffff8f9a6001011663ffffffff198254161790555f52600d602052617a423360405f20618153565b505b549033618e9e565b9533617e9d565b602060018060a01b0391015116936040519283526020830152617a7581615dee565b60408201527f4fe2fde631e986ee26283901b9cc8d6d4a311b750f9fa0d659520deba2995f1f60603392a4565b9995929794919896939099335f52601360205260405f20905f5260205260405f2088516001600160401b03811161082457600160401b8111610824578154818355808210617c39575b5060208a01915f5260205f208160021c915f5b838110617bf457506003198116900380617b9c575b505089519150508015617b9457617b2a9087616078565b985b5f5b8951811015617b8357600190335f52601d60205260405f208a5f526020528a6001600160401b0380617b648460405f2094616383565b5116165f5260205260405f20617b7b8d825461623f565b905501617b2e565b5091949792959990939698506179f5565b505f98617b2c565b925f935f5b818110617bb65750505001555f808080617b13565b9091946020617bea6001926001600160401b03895116908560031b6001600160401b03809160031b9316831b921b19161790565b9601929101617ba1565b5f805b60048110617c0c575083820155600101617afe565b86519096916001916020916001600160401b0360068b901b81811b199092169216901b1792019601617bf7565b825f5260205f20600380840160021c8201920160021c019060188360031b1680617c78575b505b818110617c6d5750617aeb565b5f8155600101617c60565b5f198201908154905f199060200360031b1c1690555f617c5e565b9150509390919293335f526012602052600160ff6003617cb68460405f206162be565b50015416617cc381615dee565b14617cde575b50868986617a4c83617a539897968b96617a44565b98949197959296939098335f52601360205260405f20905f5260205260405f209687548015155f14617d8a57617d149087616078565b985b5f5b8954811015617d7357600190335f52601d60205260405f208a5f526020528a6001600160401b0380617d4e8460405f2094616a4a565b90549060031b1c16165f5260205260405f20617d6b8d825461623f565b905501617d18565b509599969850939650919490939192919086617cc9565b505f98617d16565b5085617da36108c160028401616351565b146178ba565b50909192939495969798999a9b617909565b88906312e1fa3760e11b5f5260045260245260445ffd5b856371ab6ad560e11b5f5260045260245ffd5b84516177da57631db6d08b60e11b5f5260045ffd5b60405190617e0782615e34565b600182526020820152936177bb565b6001600160a01b03165f9081526017602052604090206001810154908115617e4d57617e4a926002616ee192015490616065565b90565b5050505f90565b60058110156113f75760018114617e965760028114617e8f5760038114617e8857600414617e825761271090565b613e8090565b506132c890565b50612ee090565b50612af890565b93969296959195949094617eb082615dee565b8161802157617ebe866182fe565b60018060a01b03861696875f52601760205260405f209660018060a01b03871696875f52601860205260405f208a5f5260205260405f205f995f5b8a5f52601260205260405f2054811015617f74578a5f526012602052617f228160405f206162be565b5080546001600160a01b03168e1480617f5c575b617f44575b50600101617ef9565b6001919c82617f559201549061623f565b9b90617f3b565b5060ff600382015416617f6e81615dee565b15617f36565b506001989b50670de0b6b3a764000092949699506157a98d617fa06172759f617fcc9597999b9e616058565b80617fe3575b8b8401617fb483825461623f565b905560028401617fc58c825461623f565b905561623f565b0490555b617fde888686868686618c53565b618d92565b85617fef828654616065565b0487548082115f146180195761800491616058565b6180128d890191825461623f565b9055617fa6565b50505f618004565b91948461803a876001866172759c86839a9d989b618a33565b617fd0565b60018060a01b03165f52601a6020526001600160401b0360405f2091165f5260205260405f20600181015490811561808357617e4a926002616ee192015490616065565b505090565b80548210156162d7575f5260205f2001905f90565b805f52600960205260405f2054155f14616b7f57600854600160401b811015610824576180ec6180d68260018594016008556008618088565b819391549060031b91821b915f19901b19161790565b9055600854905f52600960205260405f2055600190565b805f52600460205260405f2054155f14616b7f57600354600160401b8110156108245761813c6180d68260018594016003556003618088565b9055600354905f52600460205260405f2055600190565b5f828152600182016020526040902054616e1857805490600160401b821015610824578261818b6180d6846001809601855584618088565b90558054925f520160205260405f2055600190565b6001600160a01b03165f818152600c60205260409020805491908215617e4d575f5b8381106181d157505050505f90565b6001600160401b036181e38284618088565b90549060031b1c16835f52601a6020526001600160401b0360405f2091165f52602052600260405f20015461821a576001016181c2565b50505050600190565b6001600160a01b03165f9081526017602052604090206001810154908115618274576002015490670de0b6b3a7640000820291808304670de0b6b3a7640000149015171561092157617e4a91616078565b5050670de0b6b3a764000090565b6001600160a01b03165f908152600a6020526040902080548281106182b257506182ad828254616058565b905590565b5f919392509255565b6001600160a01b03165f9081526017602052604090206002018054801580156182f6575b617e4d578281106182b257506182ad828254616058565b5082156182df565b60018060a01b03165f52601760205260405f206001600160401b036003815f5416920191166001600160401b0319825416179055565b80548210156162d7575f5260205f209060011b01905f90565b811561095d5761835c81616e1e565b805f52600260205260405f2060ff8154161561845357600281015480851061843c5750600381015480151580618426575b61840757506004016183a084825461623f565b9055335f52600f60205260405f20905f5260205260405f206183c383825461623f565b9055602001516040519182526001600160a01b0316905f60208201527f754fff2205ca9f1a08ae1f38f487839ba7e18895f0238908ea8b8842d7424fbb60403392a3565b60048592015490634b98504560e01b5f5260045260245260445260645ffd5b508061843686600485015461623f565b1161838d565b8490631e2be21160e01b5f5260045260245260445ffd5b602083015163f6f24b8360e01b5f9081526001600160a01b03909116600452602490fd5b811561095d5761848681616e1e565b90815f52600260205260405f2060ff8154161561862f57600281015480851061843c5750600381015480151580618619575b61840757506004016184cb84825461623f565b9055335f52600f60205260405f20825f5260205260405f206184ee84825461623f565b905560058410156113f7578361854b575b6020908101516040519384526001600160a01b031693618523925090830190615de1565b7f754fff2205ca9f1a08ae1f38f487839ba7e18895f0238908ea8b8842d7424fbb60403392a3565b61855484618fe2565b61855d8461906f565b91335f52601060205260405f20905f5260205261858760405f20926001600160401b034316616323565b9160405161859481615e4f565b84815260208101916185a68784616a3e565b6001600160401b0360408301951685528054600160401b811015610824576185d391600182018155618334565b6108115760019151815501905160058110156113f7576185239360ff68ffffffffffffffff008454925160081b1692169068ffffffffffffffffff1916171790556184ff565b508061862986600485015461623f565b116184b8565b506020015163f6f24b8360e01b5f9081526001600160a01b03909116600452602490fd5b5f818152600460205260409020548015616e18575f198101818111610921576003545f19810191908211610921578181036186c6575b5050506003548015610e50575f19016186a3816003618088565b8154905f199060031b1b191690556003555f5260046020525f6040812055600190565b6186e86186d76180d6936003618088565b90549060031b1c9283926003618088565b90555f52600460205260405f20555f8080618689565b5f818152600960205260409020548015616e18575f198101818111610921576008545f1981019190821161092157818103618771575b5050506008548015610e50575f190161874e816008618088565b8154905f199060031b1b191690556008555f5260096020525f6040812055600190565b6187936187826180d6936008618088565b90549060031b1c9283926008618088565b90555f52600960205260405f20555f8080618734565b906001820191815f528260205260405f20548015155f14618852575f1981018181116109215782545f198101919082116109215781810361881d575b50505080548015610e50575f1901906187fe8282618088565b8154905f199060031b1b19169055555f526020525f6040812055600190565b61883d61882d6180d69386618088565b90549060031b1c92839286618088565b90555f528360205260405f20555f80806187e5565b505050505f90565b60018060a01b03165f52601a6020526001600160401b0360405f2091165f52602052600260405f20018054801580156182f657617e4d578281106182b257506182ad828254616058565b9081602091031261056f575190565b6001600160a01b039081165f8181526006602052604090205490911690811561894057506040516311f9fbc960e21b81523360048201526024810192909252602090829060449082905f905af1908115610cf1575f91618911575090565b90506020813d602011618938575b8161892c60209383615ea0565b8101031261056f575190565b3d915061891f565b905060ff6007541661895a5781617e4a91309033906189ef565b63f6f24b8360e01b5f5260045260245ffd5b60ff5f8051602061925f8339815191525460401c161561898857565b631afcd79f60e31b5f5260045ffd5b905f602091828151910182855af115610cf1575f513d6189e657506001600160a01b0381163b155b6189c65750565b635274afe760e01b5f9081526001600160a01b0391909116600452602490fd5b600114156189bf565b6040516323b872dd60e01b60208201526001600160a01b03928316602482015292909116604483015260648083019390935291815261727591617772608483615ea0565b9594909392918151908115618c4957618a5891618a4f91616078565b92825190616078565b905f5b8151811015618c4957806001600160401b03618a7960019385616383565b5116828060a01b0388165f52601a60205260405f206001600160401b0382165f52602052670de0b6b3a7640000618b8660405f20858060a01b038d1693845f52601b60205260405f20878060a01b038d165f5260205260405f206001600160401b0382165f5260205260405f20946001600160401b035f54166001600160401b036003850191166001600160401b03198254161790555f52601d60205260405f20878060a01b038d165f526020526001600160401b0360405f2091165f52602052898960405f205491618c3a575b5080618bfc575b8a15618bb057868201618b628b825461623f565b905560028201618b738a825461623f565b90555b898b15618b8f576157a99161623f565b04905501618a5b565b508980821115618ba857618ba291616058565b906157ab565b50505f618ba2565b81870180548b81811115618bed5750505f905b556002820180548a81811115618bde5750505f905b55618b76565b618be791616058565b90618bd8565b618bf691616058565b90618bc3565b83618c08828454616065565b0485548082115f14618c3257618c1d91616058565b618c2b88870191825461623f565b9055618b4e565b50505f618c1d565b618c4391616058565b89618b47565b5050505050509050565b601e545f96929491939192916001600160a01b03909116908115618d88578051618c7c81615dee565b618c8581615dee565b618d7557505f955b15618d155750601e546001600160a01b031691823b15618d11576040516316f60ec560e11b81526001600160a01b0394851660048201529484166024860152949092166044840152606483019390935261ffff166084820152908290829060a490829084905af1618cfc575050565b618d07828092615ea0565b618d0e5750565b80fd5b8680fd5b929194955050813b1561056f5760405162f74bbf60e71b81526001600160a01b039182166004820152928116602484015290931660448201526064810191909152905f908290608490829084905af1618d6b5750565b5f61727591615ea0565b602001516001600160a01b031695618c8d565b5050505050505050565b909296949194601f5460018060a01b0316948515618e3857853b1561056f57618e255f98899561ffff93618df89c6040519d8e9c8d9b8c9a6308aec52d60e31b8c5260018060a01b031660048c015260018060a01b031660248b015260448a0190615df8565b6084880152151560a4870152618e0d81615dee565b60c486015261012060e4860152610124850190615edc565b911661010483015203925af1618d6b5750565b505050505050505050565b6001600160a01b03165f908152601760205260409020600181015480158015618e92575b61808357618e7a600291618e8394616065565b91015490616078565b908115618e8c57565b60019150565b50600282015415618e67565b9290918115618f57575f925f9460018060a01b03165f52601060205260405f20905f5260205260405f205f908054915b828110618f7d575050508215618f575781808210618f7557618eef91616058565b82811015618f6e575b80831115618f6757618f0a9083616058565b80821015618f61575080925b8315618f575761ffff936109d8618f33618f5395616ee194616078565b91618f4e87618f456127109584616065565b94169186616058565b616065565b1690565b5050505061271090565b92618f16565b505f618f0a565b5081618ef8565b50505f618eef565b618f878183618334565b506001810154436001600160401b038260081c1611618fab575b5050600101618ece565b976109d8618fda929861ffff618fd2618fc960ff6001989e16617e54565b9b54809361623f565b9a1690619118565b96905f618fa1565b90600582101590816113f75782158015619062575b828115619052575b8115619042575b8115619032575b5061902d57506113f75760ff9063aae758a160e01b5f521660045260245ffd5b915050565b90506113f757600483148261900d565b90506113f7576003831482619006565b90506113f7576002831482618fff565b505f915060018314618ff7565b60058110156113f757600181146190b257600281146190aa57600381146190a25760041461909b575f90565b6213c68090565b506209e34090565b506206978090565b5062034bc090565b906190de57508051156190cf57805190602001fd5b63d6bda27560e01b5f5260045ffd5b8151158061910f575b6190ef575090565b639996b31560e01b5f9081526001600160a01b0391909116600452602490fd5b50803b156190e7565b81810291905f5f1983830984808210910381811461915657036001111561914457509060019109900390565b634e487b71905260116020526024601cfd5b50505050509056fe2f8788117e7eff1d82e926ec794901d17c78024a50270940304540a733656f0d360894a13ba1a3210667c828492db98dca3e2076cc3735a920a3ca505d382bbce34918ff1c7084970068b53fd71ad6d8b04e9f15d3886cbf006443e6cdc52ea669892194d2f1eb4d48bd09f166bfce1754a681e8e17011b3e12b710cce56a87b12b42e8a160f6064dc959c6f251e3af0750ad213dbecf573b4710d67d6c28e3902dd7bc7dec4dceedda775e58dd541e08a116c6c53815c0bd028192f7b626800cd5ed15c6e187e77e9aee88184c21f4f2182ab5827cb3b7e07fbedcd63f033009b779b17422d0df92223018b32b4d1fa46e071723d6817e2486d003becc55f00f0c57e16840df040f15088dc2f81fe391c3923bec73e23a9662efc9c229c6a00a164736f6c634300081a000a","linkReferences":{}},"methodIdentifiers":{"ADMIN_ROLE()":"75b238fc","ASSET_MANAGER_ROLE()":"a4b32de8","BPS_DENOMINATOR()":"e1a45218","DEFAULT_ADMIN_ROLE()":"a217fddf","LOCK_ONE_MONTH()":"9e870585","LOCK_SIX_MONTHS()":"f3c9b311","LOCK_THREE_MONTHS()":"d27a6f06","LOCK_TWO_MONTHS()":"7df92ada","MULTIPLIER_NONE()":"4962f88f","MULTIPLIER_ONE_MONTH()":"18056dc2","MULTIPLIER_SIX_MONTHS()":"453eccea","MULTIPLIER_THREE_MONTHS()":"a7fa6f98","MULTIPLIER_TWO_MONTHS()":"54de2320","PRECISION()":"aaf5eb68","SLASHER_ROLE()":"5095af64","UPGRADE_INTERFACE_VERSION()":"ad3cb1cc","addBlueprint(uint64)":"c7353025","addBlueprintToDelegation(uint256,uint64)":"23cc2700","addSlasher(address)":"68a9f19c","advanceRound()":"1ba9998b","claimDelegatorRewards()":"44d1480b","claimOperatorRewards()":"4c4ede2d","claimOperatorRewardsTo(address)":"7d6941c6","completeLeaving()":"d1736ba7","currentRound()":"8a19c8bc","delegate(address,uint256)":"026e402b","delegateWithOptions(address,address,uint256,uint8,uint64[])":"fd7d3dbc","delegationBondLessDelay()":"ba05bbf5","deposit()":"d0e30db0","depositAndDelegate(address)":"461cc23b","depositAndDelegateWithOptions(address,address,uint256,uint8,uint64[])":"fbec4861","depositERC20(address,uint256)":"97feb926","depositERC20WithLock(address,uint256,uint8)":"cb15038b","depositWithLock(uint8)":"f38c7c4e","disableAsset(address)":"70807528","enableAsset(address,uint256,uint256,uint256,uint16)":"354ebef9","enableAssetWithAdapter(address,address,uint256,uint256,uint256,uint16)":"f0b52bb4","executeDelegatorUnstake()":"007910d0","executeOperatorUnstake()":"b0dfce06","executeWithdraw()":"f8fd9795","getAssetAdapter(address)":"8a7fe60f","getAssetConfig(address)":"6ec3ab67","getDelegation(address,address)":"15049a5a","getDelegationBlueprints(address,uint256)":"7b9996c5","getDelegations(address)":"31cc13ba","getDeposit(address,address)":"c35082a9","getLocks(address,address)":"0c8833ce","getOperatorBlueprints(address)":"dc972ccc","getOperatorDelegatedStake(address)":"8c5b4ae7","getOperatorDelegatorCount(address)":"486398c3","getOperatorDelegators(address)":"a299e298","getOperatorMetadata(address)":"2ee663b8","getOperatorRewardPool(address)":"03587c1d","getOperatorSelfStake(address)":"d673e0b9","getOperatorStake(address)":"e4e88de8","getPendingDelegatorRewards(address)":"168f6865","getPendingOperatorRewards(address)":"30224fc8","getPendingUnstakes(address)":"5722d512","getPendingWithdrawals(address)":"f340c0d0","getRoleAdmin(bytes32)":"248a9ca3","getSlashCount(address)":"66c36875","getSlashImpact(address,uint64,address)":"9494f426","getSlashRecord(address,uint64)":"a457af3d","getSnapshot(uint64,address)":"c07449e2","getTotalDelegation(address)":"fc5e7e09","grantRole(bytes32,address)":"2f2ff15d","hasRole(bytes32,address)":"91d14854","increaseStake()":"d9e257ef","initialize(address,uint256,uint256,uint16)":"cbb6d6bd","isOperator(address)":"6d70f7ae","isOperatorActive(address)":"eb473533","isSlasher(address)":"57601c5d","leaveDelegatorsDelay()":"db8a173a","leaveOperatorsDelay()":"4de8addc","meetsStakeRequirement(address,uint256)":"f46913bb","minOperatorStake()":"d775cb61","nativeEnabled()":"77ab2cf3","nextSlashId(address)":"96085673","notifyReward(address,uint64,uint256)":"a3b9c5c2","notifyRewardForBlueprint(address,uint64,uint64,uint256)":"3dcad9db","operatorAt(uint256)":"26142335","operatorCommissionBps()":"32273f61","operatorCount()":"7c6f3158","pause()":"8456cb59","paused()":"5c975abb","proxiableUUID()":"52d1902d","registerAdapter(address,address)":"d655b92a","registerOperator()":"2acde098","registerOperatorWithAsset(address,uint256)":"e0a5825b","removeAdapter(address)":"585cd34b","removeBlueprint(uint64)":"28e70ecc","removeBlueprintFromDelegation(uint256,uint64)":"859caa18","removeSlasher(address)":"aac6aa9c","renounceRole(bytes32,address)":"36568abe","requireAdapters()":"b54b2b9e","rescueTokens(address,address,uint256)":"cea9d26f","revokeRole(bytes32,address)":"d547741f","rewardsManager()":"defe2053","roundDuration()":"f7cb789a","scheduleDelegatorUnstake(address,address,uint256)":"fc8a91af","scheduleOperatorUnstake(uint256)":"44aff252","scheduleWithdraw(address,uint256)":"e1ee4bcc","serviceFeeDistributor()":"2e40f7fb","setDelays(uint64,uint64,uint64)":"03780211","setOperatorCommission(uint16)":"f3c4d8a0","setRequireAdapters(bool)":"7b76fe5e","setRewardsManager(address)":"0a8ddc5e","setServiceFeeDistributor(address)":"fbcc7b3d","slash(address,uint64,uint256,bytes32)":"356924ea","slashForBlueprint(address,uint64,uint64,uint256,bytes32)":"8d795d50","slashHistory(address,uint64)":"0aa8b110","snapshotOperator(address)":"cadd550c","startLeaving()":"87703550","supportsInterface(bytes4)":"01ffc9a7","undelegate(address,uint256)":"4d99dd16","unpause()":"3f4ba83a","upgradeToAndCall(address,bytes)":"4f1ef286"},"id":183}