{"abi":[{"type":"constructor","inputs":[],"stateMutability":"nonpayable"},{"type":"fallback","stateMutability":"payable"},{"type":"receive","stateMutability":"payable"},{"type":"function","name":"ADMIN_ROLE","inputs":[],"outputs":[{"name":"","type":"bytes32","internalType":"bytes32"}],"stateMutability":"view"},{"type":"function","name":"ASSET_MANAGER_ROLE","inputs":[],"outputs":[{"name":"","type":"bytes32","internalType":"bytes32"}],"stateMutability":"view"},{"type":"function","name":"BPS_DENOMINATOR","inputs":[],"outputs":[{"name":"","type":"uint256","internalType":"uint256"}],"stateMutability":"view"},{"type":"function","name":"COMMISSION_CHANGE_DELAY","inputs":[],"outputs":[{"name":"","type":"uint64","internalType":"uint64"}],"stateMutability":"view"},{"type":"function","name":"DEFAULT_ADMIN_ROLE","inputs":[],"outputs":[{"name":"","type":"bytes32","internalType":"bytes32"}],"stateMutability":"view"},{"type":"function","name":"LOCK_ONE_MONTH","inputs":[],"outputs":[{"name":"","type":"uint64","internalType":"uint64"}],"stateMutability":"view"},{"type":"function","name":"LOCK_SIX_MONTHS","inputs":[],"outputs":[{"name":"","type":"uint64","internalType":"uint64"}],"stateMutability":"view"},{"type":"function","name":"LOCK_THREE_MONTHS","inputs":[],"outputs":[{"name":"","type":"uint64","internalType":"uint64"}],"stateMutability":"view"},{"type":"function","name":"LOCK_TWO_MONTHS","inputs":[],"outputs":[{"name":"","type":"uint64","internalType":"uint64"}],"stateMutability":"view"},{"type":"function","name":"MAX_REWARD_MULTIPLIER_BPS","inputs":[],"outputs":[{"name":"","type":"uint16","internalType":"uint16"}],"stateMutability":"view"},{"type":"function","name":"MIN_LOCK_AMOUNT","inputs":[],"outputs":[{"name":"","type":"uint256","internalType":"uint256"}],"stateMutability":"view"},{"type":"function","name":"MULTIPLIER_NONE","inputs":[],"outputs":[{"name":"","type":"uint16","internalType":"uint16"}],"stateMutability":"view"},{"type":"function","name":"MULTIPLIER_ONE_MONTH","inputs":[],"outputs":[{"name":"","type":"uint16","internalType":"uint16"}],"stateMutability":"view"},{"type":"function","name":"MULTIPLIER_SIX_MONTHS","inputs":[],"outputs":[{"name":"","type":"uint16","internalType":"uint16"}],"stateMutability":"view"},{"type":"function","name":"MULTIPLIER_THREE_MONTHS","inputs":[],"outputs":[{"name":"","type":"uint16","internalType":"uint16"}],"stateMutability":"view"},{"type":"function","name":"MULTIPLIER_TWO_MONTHS","inputs":[],"outputs":[{"name":"","type":"uint16","internalType":"uint16"}],"stateMutability":"view"},{"type":"function","name":"PRECISION","inputs":[],"outputs":[{"name":"","type":"uint256","internalType":"uint256"}],"stateMutability":"view"},{"type":"function","name":"SLASHER_ROLE","inputs":[],"outputs":[{"name":"","type":"bytes32","internalType":"bytes32"}],"stateMutability":"view"},{"type":"function","name":"TANGLE_ROLE","inputs":[],"outputs":[{"name":"","type":"bytes32","internalType":"bytes32"}],"stateMutability":"view"},{"type":"function","name":"UPGRADER_ROLE","inputs":[],"outputs":[{"name":"","type":"bytes32","internalType":"bytes32"}],"stateMutability":"view"},{"type":"function","name":"UPGRADE_INTERFACE_VERSION","inputs":[],"outputs":[{"name":"","type":"string","internalType":"string"}],"stateMutability":"view"},{"type":"function","name":"VIRTUAL_ASSETS","inputs":[],"outputs":[{"name":"","type":"uint256","internalType":"uint256"}],"stateMutability":"view"},{"type":"function","name":"VIRTUAL_SHARES","inputs":[],"outputs":[{"name":"","type":"uint256","internalType":"uint256"}],"stateMutability":"view"},{"type":"function","name":"blueprintSlashCount","inputs":[{"name":"","type":"uint64","internalType":"uint64"},{"name":"","type":"address","internalType":"address"}],"outputs":[{"name":"","type":"uint64","internalType":"uint64"}],"stateMutability":"view"},{"type":"function","name":"clearFacetSelectors","inputs":[{"name":"selectors","type":"bytes4[]","internalType":"bytes4[]"}],"outputs":[],"stateMutability":"nonpayable"},{"type":"function","name":"currentRound","inputs":[],"outputs":[{"name":"","type":"uint64","internalType":"uint64"}],"stateMutability":"view"},{"type":"function","name":"delegationBondLessDelay","inputs":[],"outputs":[{"name":"","type":"uint64","internalType":"uint64"}],"stateMutability":"view"},{"type":"function","name":"facetForSelector","inputs":[{"name":"selector","type":"bytes4","internalType":"bytes4"}],"outputs":[{"name":"","type":"address","internalType":"address"}],"stateMutability":"view"},{"type":"function","name":"getAccumulatedDust","inputs":[{"name":"token","type":"address","internalType":"address"}],"outputs":[{"name":"","type":"uint256","internalType":"uint256"}],"stateMutability":"view"},{"type":"function","name":"getAssetAdapter","inputs":[{"name":"token","type":"address","internalType":"address"}],"outputs":[{"name":"","type":"address","internalType":"address"}],"stateMutability":"view"},{"type":"function","name":"getOperatorSlashFactor","inputs":[{"name":"operator","type":"address","internalType":"address"},{"name":"assetHash","type":"bytes32","internalType":"bytes32"}],"outputs":[{"name":"","type":"uint256","internalType":"uint256"}],"stateMutability":"view"},{"type":"function","name":"getPendingSlashCount","inputs":[{"name":"operator","type":"address","internalType":"address"}],"outputs":[{"name":"","type":"uint64","internalType":"uint64"}],"stateMutability":"view"},{"type":"function","name":"getRoleAdmin","inputs":[{"name":"role","type":"bytes32","internalType":"bytes32"}],"outputs":[{"name":"","type":"bytes32","internalType":"bytes32"}],"stateMutability":"view"},{"type":"function","name":"getSlashCount","inputs":[{"name":"operator","type":"address","internalType":"address"}],"outputs":[{"name":"","type":"uint64","internalType":"uint64"}],"stateMutability":"view"},{"type":"function","name":"getSlashCountForBlueprint","inputs":[{"name":"blueprintId","type":"uint64","internalType":"uint64"},{"name":"operator","type":"address","internalType":"address"}],"outputs":[{"name":"","type":"uint64","internalType":"uint64"}],"stateMutability":"view"},{"type":"function","name":"getSlashCountForService","inputs":[{"name":"serviceId","type":"uint64","internalType":"uint64"},{"name":"operator","type":"address","internalType":"address"}],"outputs":[{"name":"","type":"uint64","internalType":"uint64"}],"stateMutability":"view"},{"type":"function","name":"getSlashImpact","inputs":[{"name":"operator","type":"address","internalType":"address"},{"name":"slashId","type":"uint64","internalType":"uint64"},{"name":"delegator","type":"address","internalType":"address"}],"outputs":[{"name":"lostAmount","type":"uint256","internalType":"uint256"}],"stateMutability":"view"},{"type":"function","name":"getSlashRecord","inputs":[{"name":"operator","type":"address","internalType":"address"},{"name":"slashId","type":"uint64","internalType":"uint64"}],"outputs":[{"name":"","type":"tuple","internalType":"struct SlashingManager.SlashRecord","components":[{"name":"round","type":"uint64","internalType":"uint64"},{"name":"serviceId","type":"uint64","internalType":"uint64"},{"name":"blueprintId","type":"uint64","internalType":"uint64"},{"name":"assetHash","type":"bytes32","internalType":"bytes32"},{"name":"slashBps","type":"uint16","internalType":"uint16"},{"name":"totalSlashed","type":"uint256","internalType":"uint256"},{"name":"exchangeRateBefore","type":"uint256","internalType":"uint256"},{"name":"exchangeRateAfter","type":"uint256","internalType":"uint256"},{"name":"evidence","type":"bytes32","internalType":"bytes32"}]}],"stateMutability":"view"},{"type":"function","name":"getSnapshot","inputs":[{"name":"round","type":"uint64","internalType":"uint64"},{"name":"operator","type":"address","internalType":"address"}],"outputs":[{"name":"","type":"tuple","internalType":"struct Types.OperatorSnapshot","components":[{"name":"stake","type":"uint256","internalType":"uint256"},{"name":"totalDelegated","type":"uint256","internalType":"uint256"}]}],"stateMutability":"view"},{"type":"function","name":"grantRole","inputs":[{"name":"role","type":"bytes32","internalType":"bytes32"},{"name":"account","type":"address","internalType":"address"}],"outputs":[],"stateMutability":"nonpayable"},{"type":"function","name":"hasRole","inputs":[{"name":"role","type":"bytes32","internalType":"bytes32"},{"name":"account","type":"address","internalType":"address"}],"outputs":[{"name":"","type":"bool","internalType":"bool"}],"stateMutability":"view"},{"type":"function","name":"initialize","inputs":[{"name":"admin","type":"address","internalType":"address"},{"name":"nativeMinOperatorStake","type":"uint256","internalType":"uint256"},{"name":"nativeMinDelegation","type":"uint256","internalType":"uint256"},{"name":"_operatorCommissionBps","type":"uint16","internalType":"uint16"}],"outputs":[],"stateMutability":"nonpayable"},{"type":"function","name":"lastRoundAdvance","inputs":[],"outputs":[{"name":"","type":"uint64","internalType":"uint64"}],"stateMutability":"view"},{"type":"function","name":"leaveDelegatorsDelay","inputs":[],"outputs":[{"name":"","type":"uint64","internalType":"uint64"}],"stateMutability":"view"},{"type":"function","name":"leaveOperatorsDelay","inputs":[],"outputs":[{"name":"","type":"uint64","internalType":"uint64"}],"stateMutability":"view"},{"type":"function","name":"nativeEnabled","inputs":[],"outputs":[{"name":"","type":"bool","internalType":"bool"}],"stateMutability":"view"},{"type":"function","name":"nextSlashId","inputs":[{"name":"","type":"address","internalType":"address"}],"outputs":[{"name":"","type":"uint64","internalType":"uint64"}],"stateMutability":"view"},{"type":"function","name":"operatorCommissionBps","inputs":[],"outputs":[{"name":"","type":"uint16","internalType":"uint16"}],"stateMutability":"view"},{"type":"function","name":"paused","inputs":[],"outputs":[{"name":"","type":"bool","internalType":"bool"}],"stateMutability":"view"},{"type":"function","name":"proxiableUUID","inputs":[],"outputs":[{"name":"","type":"bytes32","internalType":"bytes32"}],"stateMutability":"view"},{"type":"function","name":"registerFacet","inputs":[{"name":"facet","type":"address","internalType":"address"}],"outputs":[],"stateMutability":"nonpayable"},{"type":"function","name":"registerFacetSelectors","inputs":[{"name":"facet","type":"address","internalType":"address"},{"name":"selectors","type":"bytes4[]","internalType":"bytes4[]"}],"outputs":[],"stateMutability":"nonpayable"},{"type":"function","name":"renounceRole","inputs":[{"name":"role","type":"bytes32","internalType":"bytes32"},{"name":"callerConfirmation","type":"address","internalType":"address"}],"outputs":[],"stateMutability":"nonpayable"},{"type":"function","name":"requireAdapters","inputs":[],"outputs":[{"name":"","type":"bool","internalType":"bool"}],"stateMutability":"view"},{"type":"function","name":"resetPendingSlashCount","inputs":[{"name":"operator","type":"address","internalType":"address"},{"name":"count","type":"uint64","internalType":"uint64"}],"outputs":[],"stateMutability":"nonpayable"},{"type":"function","name":"revokeRole","inputs":[{"name":"role","type":"bytes32","internalType":"bytes32"},{"name":"account","type":"address","internalType":"address"}],"outputs":[],"stateMutability":"nonpayable"},{"type":"function","name":"roundDuration","inputs":[],"outputs":[{"name":"","type":"uint64","internalType":"uint64"}],"stateMutability":"view"},{"type":"function","name":"serviceSlashCount","inputs":[{"name":"","type":"uint64","internalType":"uint64"},{"name":"","type":"address","internalType":"address"}],"outputs":[{"name":"","type":"uint64","internalType":"uint64"}],"stateMutability":"view"},{"type":"function","name":"slashHistory","inputs":[{"name":"","type":"address","internalType":"address"},{"name":"","type":"uint64","internalType":"uint64"}],"outputs":[{"name":"round","type":"uint64","internalType":"uint64"},{"name":"serviceId","type":"uint64","internalType":"uint64"},{"name":"blueprintId","type":"uint64","internalType":"uint64"},{"name":"assetHash","type":"bytes32","internalType":"bytes32"},{"name":"slashBps","type":"uint16","internalType":"uint16"},{"name":"totalSlashed","type":"uint256","internalType":"uint256"},{"name":"exchangeRateBefore","type":"uint256","internalType":"uint256"},{"name":"exchangeRateAfter","type":"uint256","internalType":"uint256"},{"name":"evidence","type":"bytes32","internalType":"bytes32"}],"stateMutability":"view"},{"type":"function","name":"supportsInterface","inputs":[{"name":"interfaceId","type":"bytes4","internalType":"bytes4"}],"outputs":[{"name":"","type":"bool","internalType":"bool"}],"stateMutability":"view"},{"type":"function","name":"upgradeToAndCall","inputs":[{"name":"newImplementation","type":"address","internalType":"address"},{"name":"data","type":"bytes","internalType":"bytes"}],"outputs":[],"stateMutability":"payable"},{"type":"event","name":"BlueprintAddedToDelegation","inputs":[{"name":"delegator","type":"address","indexed":true,"internalType":"address"},{"name":"delegationIndex","type":"uint256","indexed":true,"internalType":"uint256"},{"name":"blueprintId","type":"uint64","indexed":false,"internalType":"uint64"}],"anonymous":false},{"type":"event","name":"BlueprintRemovedFromDelegation","inputs":[{"name":"delegator","type":"address","indexed":true,"internalType":"address"},{"name":"delegationIndex","type":"uint256","indexed":true,"internalType":"uint256"},{"name":"blueprintId","type":"uint64","indexed":false,"internalType":"uint64"}],"anonymous":false},{"type":"event","name":"Delegated","inputs":[{"name":"delegator","type":"address","indexed":true,"internalType":"address"},{"name":"operator","type":"address","indexed":true,"internalType":"address"},{"name":"token","type":"address","indexed":true,"internalType":"address"},{"name":"amount","type":"uint256","indexed":false,"internalType":"uint256"},{"name":"shares","type":"uint256","indexed":false,"internalType":"uint256"},{"name":"selectionMode","type":"uint8","indexed":false,"internalType":"enum Types.BlueprintSelectionMode"}],"anonymous":false},{"type":"event","name":"DelegatorUnstakeExecuted","inputs":[{"name":"delegator","type":"address","indexed":true,"internalType":"address"},{"name":"operator","type":"address","indexed":true,"internalType":"address"},{"name":"token","type":"address","indexed":true,"internalType":"address"},{"name":"shares","type":"uint256","indexed":false,"internalType":"uint256"},{"name":"amount","type":"uint256","indexed":false,"internalType":"uint256"}],"anonymous":false},{"type":"event","name":"DelegatorUnstakeScheduled","inputs":[{"name":"delegator","type":"address","indexed":true,"internalType":"address"},{"name":"operator","type":"address","indexed":true,"internalType":"address"},{"name":"token","type":"address","indexed":true,"internalType":"address"},{"name":"shares","type":"uint256","indexed":false,"internalType":"uint256"},{"name":"estimatedAmount","type":"uint256","indexed":false,"internalType":"uint256"},{"name":"readyRound","type":"uint64","indexed":false,"internalType":"uint64"}],"anonymous":false},{"type":"event","name":"Deposited","inputs":[{"name":"delegator","type":"address","indexed":true,"internalType":"address"},{"name":"token","type":"address","indexed":true,"internalType":"address"},{"name":"amount","type":"uint256","indexed":false,"internalType":"uint256"},{"name":"lock","type":"uint8","indexed":false,"internalType":"enum Types.LockMultiplier"}],"anonymous":false},{"type":"event","name":"DustAccumulated","inputs":[{"name":"token","type":"address","indexed":true,"internalType":"address"},{"name":"amount","type":"uint256","indexed":false,"internalType":"uint256"},{"name":"totalDust","type":"uint256","indexed":false,"internalType":"uint256"}],"anonymous":false},{"type":"event","name":"DustSwept","inputs":[{"name":"token","type":"address","indexed":true,"internalType":"address"},{"name":"recipient","type":"address","indexed":true,"internalType":"address"},{"name":"amount","type":"uint256","indexed":false,"internalType":"uint256"}],"anonymous":false},{"type":"event","name":"ExpiredLocksHarvested","inputs":[{"name":"delegator","type":"address","indexed":true,"internalType":"address"},{"name":"token","type":"address","indexed":true,"internalType":"address"},{"name":"count","type":"uint256","indexed":false,"internalType":"uint256"},{"name":"totalAmount","type":"uint256","indexed":false,"internalType":"uint256"}],"anonymous":false},{"type":"event","name":"FacetRegistered","inputs":[{"name":"facet","type":"address","indexed":true,"internalType":"address"}],"anonymous":false},{"type":"event","name":"FacetSelectorCleared","inputs":[{"name":"selector","type":"bytes4","indexed":true,"internalType":"bytes4"}],"anonymous":false},{"type":"event","name":"FacetSelectorSet","inputs":[{"name":"selector","type":"bytes4","indexed":true,"internalType":"bytes4"},{"name":"facet","type":"address","indexed":true,"internalType":"address"}],"anonymous":false},{"type":"event","name":"Initialized","inputs":[{"name":"version","type":"uint64","indexed":false,"internalType":"uint64"}],"anonymous":false},{"type":"event","name":"OperatorBlueprintAdded","inputs":[{"name":"operator","type":"address","indexed":true,"internalType":"address"},{"name":"blueprintId","type":"uint64","indexed":true,"internalType":"uint64"}],"anonymous":false},{"type":"event","name":"OperatorBlueprintRemoved","inputs":[{"name":"operator","type":"address","indexed":true,"internalType":"address"},{"name":"blueprintId","type":"uint64","indexed":true,"internalType":"uint64"}],"anonymous":false},{"type":"event","name":"OperatorDelegationModeSet","inputs":[{"name":"operator","type":"address","indexed":true,"internalType":"address"},{"name":"mode","type":"uint8","indexed":false,"internalType":"enum Types.DelegationMode"}],"anonymous":false},{"type":"event","name":"OperatorLeavingScheduled","inputs":[{"name":"operator","type":"address","indexed":true,"internalType":"address"},{"name":"readyRound","type":"uint64","indexed":false,"internalType":"uint64"}],"anonymous":false},{"type":"event","name":"OperatorLeft","inputs":[{"name":"operator","type":"address","indexed":true,"internalType":"address"}],"anonymous":false},{"type":"event","name":"OperatorRegistered","inputs":[{"name":"operator","type":"address","indexed":true,"internalType":"address"},{"name":"stake","type":"uint256","indexed":false,"internalType":"uint256"}],"anonymous":false},{"type":"event","name":"OperatorStakeIncreased","inputs":[{"name":"operator","type":"address","indexed":true,"internalType":"address"},{"name":"amount","type":"uint256","indexed":false,"internalType":"uint256"}],"anonymous":false},{"type":"event","name":"OperatorUnstakeExecuted","inputs":[{"name":"operator","type":"address","indexed":true,"internalType":"address"},{"name":"amount","type":"uint256","indexed":false,"internalType":"uint256"}],"anonymous":false},{"type":"event","name":"OperatorUnstakeScheduled","inputs":[{"name":"operator","type":"address","indexed":true,"internalType":"address"},{"name":"amount","type":"uint256","indexed":false,"internalType":"uint256"},{"name":"readyRound","type":"uint64","indexed":false,"internalType":"uint64"}],"anonymous":false},{"type":"event","name":"OperatorWhitelistUpdated","inputs":[{"name":"operator","type":"address","indexed":true,"internalType":"address"},{"name":"delegator","type":"address","indexed":true,"internalType":"address"},{"name":"approved","type":"bool","indexed":false,"internalType":"bool"}],"anonymous":false},{"type":"event","name":"Paused","inputs":[{"name":"account","type":"address","indexed":false,"internalType":"address"}],"anonymous":false},{"type":"event","name":"PendingSlashCountReset","inputs":[{"name":"operator","type":"address","indexed":true,"internalType":"address"},{"name":"newCount","type":"uint64","indexed":false,"internalType":"uint64"}],"anonymous":false},{"type":"event","name":"PendingSlashDecremented","inputs":[{"name":"operator","type":"address","indexed":true,"internalType":"address"},{"name":"newCount","type":"uint64","indexed":false,"internalType":"uint64"}],"anonymous":false},{"type":"event","name":"PendingSlashIncremented","inputs":[{"name":"operator","type":"address","indexed":true,"internalType":"address"},{"name":"newCount","type":"uint64","indexed":false,"internalType":"uint64"}],"anonymous":false},{"type":"event","name":"RoleAdminChanged","inputs":[{"name":"role","type":"bytes32","indexed":true,"internalType":"bytes32"},{"name":"previousAdminRole","type":"bytes32","indexed":true,"internalType":"bytes32"},{"name":"newAdminRole","type":"bytes32","indexed":true,"internalType":"bytes32"}],"anonymous":false},{"type":"event","name":"RoleGranted","inputs":[{"name":"role","type":"bytes32","indexed":true,"internalType":"bytes32"},{"name":"account","type":"address","indexed":true,"internalType":"address"},{"name":"sender","type":"address","indexed":true,"internalType":"address"}],"anonymous":false},{"type":"event","name":"RoleRevoked","inputs":[{"name":"role","type":"bytes32","indexed":true,"internalType":"bytes32"},{"name":"account","type":"address","indexed":true,"internalType":"address"},{"name":"sender","type":"address","indexed":true,"internalType":"address"}],"anonymous":false},{"type":"event","name":"SlashRecorded","inputs":[{"name":"operator","type":"address","indexed":true,"internalType":"address"},{"name":"slashId","type":"uint64","indexed":true,"internalType":"uint64"},{"name":"assetHash","type":"bytes32","indexed":false,"internalType":"bytes32"},{"name":"slashBps","type":"uint16","indexed":false,"internalType":"uint16"},{"name":"totalSlashed","type":"uint256","indexed":false,"internalType":"uint256"},{"name":"exchangeRateBefore","type":"uint256","indexed":false,"internalType":"uint256"},{"name":"exchangeRateAfter","type":"uint256","indexed":false,"internalType":"uint256"}],"anonymous":false},{"type":"event","name":"Slashed","inputs":[{"name":"operator","type":"address","indexed":true,"internalType":"address"},{"name":"serviceId","type":"uint64","indexed":true,"internalType":"uint64"},{"name":"blueprintId","type":"uint64","indexed":true,"internalType":"uint64"},{"name":"assetHash","type":"bytes32","indexed":false,"internalType":"bytes32"},{"name":"slashBps","type":"uint16","indexed":false,"internalType":"uint16"},{"name":"operatorSlashed","type":"uint256","indexed":false,"internalType":"uint256"},{"name":"delegatorsSlashed","type":"uint256","indexed":false,"internalType":"uint256"},{"name":"exchangeRateAfter","type":"uint256","indexed":false,"internalType":"uint256"}],"anonymous":false},{"type":"event","name":"SlashedForService","inputs":[{"name":"operator","type":"address","indexed":true,"internalType":"address"},{"name":"serviceId","type":"uint64","indexed":true,"internalType":"uint64"},{"name":"blueprintId","type":"uint64","indexed":true,"internalType":"uint64"},{"name":"totalSlashed","type":"uint256","indexed":false,"internalType":"uint256"},{"name":"commitmentCount","type":"uint256","indexed":false,"internalType":"uint256"}],"anonymous":false},{"type":"event","name":"SlashedPrincipalReconciled","inputs":[{"name":"delegator","type":"address","indexed":true,"internalType":"address"},{"name":"assetHash","type":"bytes32","indexed":true,"internalType":"bytes32"},{"name":"amount","type":"uint256","indexed":false,"internalType":"uint256"}],"anonymous":false},{"type":"event","name":"Unpaused","inputs":[{"name":"account","type":"address","indexed":false,"internalType":"address"}],"anonymous":false},{"type":"event","name":"Upgraded","inputs":[{"name":"implementation","type":"address","indexed":true,"internalType":"address"}],"anonymous":false},{"type":"event","name":"WithdrawScheduled","inputs":[{"name":"delegator","type":"address","indexed":true,"internalType":"address"},{"name":"token","type":"address","indexed":true,"internalType":"address"},{"name":"amount","type":"uint256","indexed":false,"internalType":"uint256"},{"name":"readyRound","type":"uint64","indexed":false,"internalType":"uint64"}],"anonymous":false},{"type":"event","name":"Withdrawn","inputs":[{"name":"delegator","type":"address","indexed":true,"internalType":"address"},{"name":"token","type":"address","indexed":true,"internalType":"address"},{"name":"amount","type":"uint256","indexed":false,"internalType":"uint256"}],"anonymous":false},{"type":"error","name":"AccessControlBadConfirmation","inputs":[]},{"type":"error","name":"AccessControlUnauthorizedAccount","inputs":[{"name":"account","type":"address","internalType":"address"},{"name":"neededRole","type":"bytes32","internalType":"bytes32"}]},{"type":"error","name":"AddressEmptyCode","inputs":[{"name":"target","type":"address","internalType":"address"}]},{"type":"error","name":"BlueprintNotRegisteredForOperator","inputs":[{"name":"operator","type":"address","internalType":"address"},{"name":"blueprintId","type":"uint64","internalType":"uint64"}]},{"type":"error","name":"ERC1967InvalidImplementation","inputs":[{"name":"implementation","type":"address","internalType":"address"}]},{"type":"error","name":"ERC1967NonPayable","inputs":[]},{"type":"error","name":"EnforcedPause","inputs":[]},{"type":"error","name":"ExpectedPause","inputs":[]},{"type":"error","name":"FailedCall","inputs":[]},{"type":"error","name":"InvalidInitialization","inputs":[]},{"type":"error","name":"NotAContract","inputs":[{"name":"account","type":"address","internalType":"address"}]},{"type":"error","name":"NotInitializing","inputs":[]},{"type":"error","name":"ReentrancyGuardReentrantCall","inputs":[]},{"type":"error","name":"SelectorAlreadyRegistered","inputs":[{"name":"selector","type":"bytes4","internalType":"bytes4"},{"name":"existingFacet","type":"address","internalType":"address"}]},{"type":"error","name":"UUPSUnauthorizedCallContext","inputs":[]},{"type":"error","name":"UUPSUnsupportedProxiableUUID","inputs":[{"name":"slot","type":"bytes32","internalType":"bytes32"}]},{"type":"error","name":"UnknownSelector","inputs":[{"name":"selector","type":"bytes4","internalType":"bytes4"}]},{"type":"error","name":"ZeroAddress","inputs":[]}],"bytecode":{"object":"0x60a06040523461003e5761001161004d565b610019610043565b6145596103078239608051818181613984015281816139e90152613b98015261455990f35b610049565b60405190565b5f80fd5b61005561005f565b61005d61022a565b565b610067610069565b565b610071610073565b565b61007b61007d565b565b610085610087565b565b61008f610091565b565b61009961009b565b565b6100a36100a5565b565b6100ad6100af565b565b6100b76100b9565b565b6100c16100c3565b565b6100cb6100cd565b565b6100d56100d7565b565b6100df6100e1565b565b6100e961012d565b565b60018060a01b031690565b90565b61010d610108610112926100eb565b6100f6565b6100eb565b90565b61011e906100f9565b90565b61012a90610115565b90565b61013630610121565b608052565b60401c90565b60ff1690565b6101536101589161013b565b610141565b90565b6101659054610147565b90565b5f0190565b5f1c90565b60018060401b031690565b61018961018e9161016d565b610172565b90565b61019b905461017d565b90565b60018060401b031690565b5f1b90565b906101bf60018060401b03916101a9565b9181191691161790565b6101dd6101d86101e29261019e565b6100f6565b61019e565b90565b90565b906101fd6101f8610204926101c9565b6101e5565b82546101ae565b9055565b6102119061019e565b9052565b9190610228905f60208501940190610208565b565b6102326102e2565b61023d5f820161015b565b6102c65761024c5f8201610191565b61026461025e60018060401b0361019e565b9161019e565b0361026d575b50565b610280905f60018060401b0391016101e8565b60018060401b036102bd7fc7f505b2f371ae2175ee4913f4499e1f2633a7b5936321eed1cdaeb6115181d2916102b4610043565b91829182610215565b0390a15f61026a565b5f63f92ee8a960e01b8152806102de60048201610168565b0390fd5b7ff0c57e16840df040f15088dc2f81fe391c3923bec73e23a9662efc9c229c6a009056fe60806040526004361015610015575b366135d257005b61001f5f356103ee565b806301ffc9a7146103e957806305d64e38146103e45780630aa8b110146103df57806312d91c88146103da57806318056dc2146103d557806319e82e61146103d0578063248a9ca3146103cb5780632f2ff15d146103c657806332273f61146103c157806336568abe146103bc578063453eccea146103b757806346d163aa146103b257806349147411146103ad5780634962f88f146103a85780634de8addc146103a35780634e9c929a1461039e5780634f1ef286146103995780635095af641461039457806352d1902d1461038f57806354de23201461038a5780635c975abb14610385578063602356e31461038057806366c368751461037b57806372b5032d1461037657806375b238fc1461037157806377ab2cf31461036c5780637df92ada1461036757806388c47f68146103625780638a19c8bc1461035d5780638a7fe60f1461035857806390837ff41461035357806391d148541461034e5780639480e4dd146103495780639494f42614610344578063960856731461033f5780639722f4b91461033a5780639e87058514610335578063a217fddf14610330578063a457af3d1461032b578063a4b32de814610326578063a7fa6f9814610321578063aaf5eb681461031c578063ad3cb1cc14610317578063b54b2b9e14610312578063b5e2a87a1461030d578063b660840914610308578063ba05bbf514610303578063c07449e2146102fe578063c550d938146102f9578063cbb6d6bd146102f4578063d27a6f06146102ef578063d45ff582146102ea578063d547741f146102e5578063db8a173a146102e0578063dd764abf146102db578063e07dec29146102d6578063e1a45218146102d1578063e27e05c1146102cc578063f3c9b311146102c7578063f72c0d8b146102c25763f7cb789a0361000e576120b5565b612071565b61200d565b611fa0565b611f6b565b611f02565b611e99565b611e27565b611de4565b611daf565b611d41565b611cd1565b611c0f565b611bd9565b611b6b565b611b27565b611abb565b611a4e565b611a0a565b6118db565b611868565b6117fb565b611796565b611674565b611604565b611595565b61153f565b6114f0565b611481565b61144b565b611416565b6113e1565b61138a565b611348565b6112d9565b61126b565b6111fb565b611196565b611161565b61112c565b6110c8565b611093565b611026565b610ff1565b610f98565b610e3c565b610d8d565b610d48565b610cdb565b610ca8565b610c55565b610be9565b610bb4565b610b4a565b610ae8565b610a81565b6109ba565b610937565b610892565b61052f565b61047a565b60e01c90565b60405190565b5f80fd5b5f80fd5b5f80fd5b63ffffffff60e01b1690565b61041b81610406565b0361042257565b5f80fd5b9050359061043382610412565b565b9060208282031261044e5761044b915f01610426565b90565b6103fe565b151590565b61046190610453565b9052565b9190610478905f60208501940190610458565b565b346104aa576104a6610495610490366004610435565b6120ee565b61049d6103f4565b91829182610465565b0390f35b6103fa565b5f9103126104b957565b6103fe565b1c90565b60018060401b031690565b6104dd9060086104e293026104be565b6104c2565b90565b906104f091546104cd565b90565b6104ff5f6010906104e5565b90565b60018060401b031690565b61051690610502565b9052565b919061052d905f6020850194019061050d565b565b3461055f5761053f3660046104af565b61055b61054a6104f3565b6105526103f4565b9182918261051a565b0390f35b6103fa565b60018060a01b031690565b61057890610564565b90565b6105848161056f565b0361058b57565b5f80fd5b9050359061059c8261057b565b565b6105a781610502565b036105ae57565b5f80fd5b905035906105bf8261059e565b565b91906040838203126105e957806105dd6105e6925f860161058f565b936020016105b2565b90565b6103fe565b90565b61060561060061060a92610564565b6105ee565b610564565b90565b610616906105f1565b90565b6106229061060d565b90565b9061062f90610619565b5f5260205260405f2090565b61064f61064a61065492610502565b6105ee565b610502565b90565b906106619061063b565b5f5260205260405f2090565b5f1c90565b61067e6106839161066d565b6104c2565b90565b6106909054610672565b90565b60401c90565b6106a56106aa91610693565b6104c2565b90565b6106b79054610699565b90565b60801c90565b6106cc6106d1916106ba565b6104c2565b90565b6106de90546106c0565b90565b90565b6106f06106f59161066d565b6106e1565b90565b61070290546106e4565b90565b61ffff1690565b61071861071d9161066d565b610705565b90565b61072a905461070c565b90565b90565b61073c6107419161066d565b61072d565b90565b61074e9054610730565b90565b90610760610765926055610625565b610657565b6107705f8201610686565b9161077c5f83016106ad565b916107885f82016106d4565b91610795600183016106f8565b916107a260028201610720565b916107af60038301610744565b916107bc60048201610744565b916107d560066107ce60058501610744565b93016106f8565b90565b90565b6107e4906107d8565b9052565b61ffff1690565b6107f8906107e8565b9052565b90565b610808906107fc565b9052565b9694929099989795939161012088019a5f89016108289161050d565b602088016108359161050d565b604087016108429161050d565b6060860161084f916107db565b6080850161085c916107ef565b60a08401610869916107ff565b60c08301610876916107ff565b60e08201610883916107ff565b61010001610890916107db565b565b346108cd576108c96108ae6108a83660046105c1565b90610751565b956108c09997999591959492946103f4565b998a998a61080c565b0390f35b6103fa565b6108db816107d8565b036108e257565b5f80fd5b905035906108f3826108d2565b565b919060408382031261091d578061091161091a925f860161058f565b936020016108e6565b90565b6103fe565b9190610935905f602085019401906107ff565b565b346109685761096461095361094d3660046108f5565b90612186565b61095b6103f4565b91829182610922565b0390f35b6103fa565b90565b61098461097f6109899261096d565b6105ee565b6107e8565b90565b610997612af8610970565b90565b6109a261098c565b90565b91906109b8905f602085019401906107ef565b565b346109ea576109ca3660046104af565b6109e66109d561099a565b6109dd6103f4565b918291826109a5565b0390f35b6103fa565b5f80fd5b5f80fd5b5f80fd5b909182601f83011215610a335781359160018060401b038311610a2e576020019260208302840111610a2957565b6109f7565b6109f3565b6109ef565b919091604081840312610a7757610a51835f830161058f565b92602082013560018060401b038111610a7257610a6e92016109fb565b9091565b610402565b6103fe565b5f0190565b34610ab057610a9a610a94366004610a38565b91612257565b610aa26103f4565b80610aac81610a7c565b0390f35b6103fa565b90602082820312610ace57610acb915f016108e6565b90565b6103fe565b9190610ae6905f602085019401906107db565b565b34610b1857610b14610b03610afe366004610ab5565b61228f565b610b0b6103f4565b91829182610ad3565b0390f35b6103fa565b9190604083820312610b455780610b39610b42925f86016108e6565b9360200161058f565b90565b6103fe565b34610b7957610b63610b5d366004610b1d565b906122e3565b610b6b6103f4565b80610b7581610a7c565b0390f35b6103fa565b610b8e906008610b9393026104be565b610705565b90565b90610ba19154610b7e565b90565b610bb16001601090610b96565b90565b34610be457610bc43660046104af565b610be0610bcf610ba4565b610bd76103f4565b918291826109a5565b0390f35b6103fa565b34610c1857610c02610bfc366004610b1d565b906122ef565b610c0a6103f4565b80610c1481610a7c565b0390f35b6103fa565b90565b610c34610c2f610c3992610c1d565b6105ee565b6107e8565b90565b610c47614650610c20565b90565b610c52610c3c565b90565b34610c8557610c653660046104af565b610c81610c70610c4a565b610c786103f4565b918291826109a5565b0390f35b6103fa565b90602082820312610ca357610ca0915f0161058f565b90565b6103fe565b34610cd657610cc0610cbb366004610c8a565b61242d565b610cc86103f4565b80610cd281610a7c565b0390f35b6103fa565b34610d0b57610d07610cf6610cf1366004610c8a565b61250b565b610cfe6103f4565b91829182610922565b0390f35b6103fa565b90565b610d27610d22610d2c92610d10565b6105ee565b6107e8565b90565b610d3a612710610d13565b90565b610d45610d2f565b90565b34610d7857610d583660046104af565b610d74610d63610d3d565b610d6b6103f4565b918291826109a5565b0390f35b6103fa565b610d8a60016008906104e5565b90565b34610dbd57610d9d3660046104af565b610db9610da8610d7d565b610db06103f4565b9182918261051a565b0390f35b6103fa565b9190604083820312610dea5780610dde610de7925f86016105b2565b9360200161058f565b90565b6103fe565b90610df99061063b565b5f5260205260405f2090565b90610e0f90610619565b5f5260205260405f2090565b610e34610e3992610e2f6058935f94610def565b610e05565b6104e5565b90565b34610e6d57610e69610e58610e52366004610dc2565b90610e1b565b610e606103f4565b9182918261051a565b0390f35b6103fa565b5f80fd5b601f801991011690565b634e487b7160e01b5f52604160045260245ffd5b90610e9e90610e76565b810190811060018060401b03821117610eb657604052565b610e80565b90610ece610ec76103f4565b9283610e94565b565b60018060401b038111610eec57610ee8602091610e76565b0190565b610e80565b90825f939282370152565b90929192610f11610f0c82610ed0565b610ebb565b93818552602085019082840111610f2d57610f2b92610ef1565b565b610e72565b9080601f83011215610f5057816020610f4d93359101610efc565b90565b6109ef565b919091604081840312610f9357610f6e835f830161058f565b92602082013560018060401b038111610f8e57610f8b9201610f32565b90565b610402565b6103fe565b610fac610fa6366004610f55565b90612553565b610fb46103f4565b80610fbe81610a7c565b0390f35b7f12b42e8a160f6064dc959c6f251e3af0750ad213dbecf573b4710d67d6c28e3990565b610fee610fc2565b90565b34611021576110013660046104af565b61101d61100c610fe6565b6110146103f4565b91829182610ad3565b0390f35b6103fa565b34611056576110363660046104af565b6110526110416125ca565b6110496103f4565b91829182610ad3565b0390f35b6103fa565b90565b61107261106d6110779261105b565b6105ee565b6107e8565b90565b6110856130d461105e565b90565b61109061107a565b90565b346110c3576110a33660046104af565b6110bf6110ae611088565b6110b66103f4565b918291826109a5565b0390f35b6103fa565b346110f8576110d83660046104af565b6110f46110e36125fe565b6110eb6103f4565b91829182610465565b0390f35b6103fa565b7f19449a4ad57e40a5aa77e785b4539e53ba9e7fedbf7076388ee3fb1bc2ddea1b90565b6111296110fd565b90565b3461115c5761113c3660046104af565b611158611147611121565b61114f6103f4565b91829182610ad3565b0390f35b6103fa565b346111915761118d61117c611177366004610c8a565b612620565b6111846103f4565b9182918261051a565b0390f35b6103fa565b346111c7576111c36111b26111ac366004610dc2565b9061263f565b6111ba6103f4565b9182918261051a565b0390f35b6103fa565b7fa49807205ce4d355092ef5a8a18f56e8913cf4a201fbe287825b095693c2177590565b6111f86111cc565b90565b3461122b5761120b3660046104af565b6112276112166111f0565b61121e6103f4565b91829182610ad3565b0390f35b6103fa565b60ff1690565b61124690600861124b93026104be565b611230565b90565b906112599154611236565b90565b61126860055f9061124e565b90565b3461129b5761127b3660046104af565b61129761128661125c565b61128e6103f4565b91829182610465565b0390f35b6103fa565b90565b6112b76112b26112bc926112a0565b6105ee565b610502565b90565b6112cb624f1a006112a3565b90565b6112d66112bf565b90565b34611309576112e93660046104af565b6113056112f46112ce565b6112fc6103f4565b9182918261051a565b0390f35b6103fa565b90565b61132561132061132a9261130e565b6105ee565b6107fc565b90565b61133a6305f5e100611311565b90565b61134561132d565b90565b34611378576113583660046104af565b61137461136361133d565b61136b6103f4565b91829182610922565b0390f35b6103fa565b6113875f806104e5565b90565b346113ba5761139a3660046104af565b6113b66113a561137d565b6113ad6103f4565b9182918261051a565b0390f35b6103fa565b6113c89061056f565b9052565b91906113df905f602085019401906113bf565b565b346114115761140d6113fc6113f7366004610c8a565b6126ad565b6114046103f4565b918291826113cc565b0390f35b6103fa565b346114465761144261143161142c366004610435565b6126cc565b6114396103f4565b918291826113cc565b0390f35b6103fa565b3461147c57611478611467611461366004610b1d565b906126f7565b61146f6103f4565b91829182610465565b0390f35b6103fa565b346114b1576114ad61149c611497366004610c8a565b612729565b6114a46103f4565b9182918261051a565b0390f35b6103fa565b90916060828403126114eb576114e86114d1845f850161058f565b936114df81602086016105b2565b9360400161058f565b90565b6103fe565b346115215761151d61150c6115063660046114b6565b91612961565b6115146103f4565b91829182610922565b0390f35b6103fa565b61153c906115376056915f92610e05565b6104e5565b90565b3461156f5761156b61155a611555366004610c8a565b611526565b6115626103f4565b9182918261051a565b0390f35b6103fa565b61158d611592926115886057935f94610def565b610e05565b6104e5565b90565b346115c6576115c26115b16115ab366004610dc2565b90611574565b6115b96103f4565b9182918261051a565b0390f35b6103fa565b90565b6115e26115dd6115e7926115cb565b6105ee565b610502565b90565b6115f662278d006115ce565b90565b6116016115ea565b90565b34611634576116143660046104af565b61163061161f6115f9565b6116276103f4565b9182918261051a565b0390f35b6103fa565b90565b5f1b90565b61165561165061165a92611639565b61163c565b6107d8565b90565b6116665f611641565b90565b61167161165d565b90565b346116a4576116843660046104af565b6116a061168f611669565b6116976103f4565b91829182610ad3565b0390f35b6103fa565b6116b290610502565b9052565b6116bf906107d8565b9052565b6116cc906107e8565b9052565b6116d9906107fc565b9052565b906101008061177e936116f65f8201515f8601906116a9565b611708602082015160208601906116a9565b61171a604082015160408601906116a9565b61172c606082015160608601906116b6565b61173e608082015160808601906116c3565b61175060a082015160a08601906116d0565b61176260c082015160c08601906116d0565b61177460e082015160e08601906116d0565b01519101906116b6565b565b9190611794905f61012085019401906116dd565b565b346117c7576117c36117b26117ac3660046105c1565b90612b0f565b6117ba6103f4565b91829182611780565b0390f35b6103fa565b7fb1fadd3142ab2ad7f1337ea4d97112bcc8337fc11ce5b20cb04ad038adf9981990565b6117f86117cc565b90565b3461182b5761180b3660046104af565b6118276118166117f0565b61181e6103f4565b91829182610ad3565b0390f35b6103fa565b90565b61184761184261184c92611830565b6105ee565b6107e8565b90565b61185a6138a4611833565b90565b61186561184f565b90565b34611898576118783660046104af565b61189461188361185d565b61188b6103f4565b918291826109a5565b0390f35b6103fa565b90565b6118b46118af6118b99261189d565b6105ee565b6107fc565b90565b6118cd670de0b6b3a76400006118a0565b90565b6118d86118bc565b90565b3461190b576118eb3660046104af565b6119076118f66118d0565b6118fe6103f4565b91829182610922565b0390f35b6103fa565b60018060401b03811161192c57611928602091610e76565b0190565b610e80565b9061194361193e83611910565b610ebb565b918252565b5f7f352e302e30000000000000000000000000000000000000000000000000000000910152565b6119796005611931565b9061198660208301611948565b565b61199061196f565b90565b61199b611988565b90565b6119a6611993565b90565b5190565b60209181520190565b90825f9392825e0152565b6119e06119e96020936119ee936119d7816119a9565b938480936119ad565b958691016119b6565b610e76565b0190565b611a079160208201915f8184039101526119c1565b90565b34611a3a57611a1a3660046104af565b611a36611a2561199e565b611a2d6103f4565b918291826119f2565b0390f35b6103fa565b611a4b60075f9061124e565b90565b34611a7e57611a5e3660046104af565b611a7a611a69611a3f565b611a716103f4565b91829182610465565b0390f35b6103fa565b90565b611a9a611a95611a9f92611a83565b6105ee565b6107e8565b90565b611aad614e20611a86565b90565b611ab8611aa2565b90565b34611aeb57611acb3660046104af565b611ae7611ad6611ab0565b611ade6103f4565b918291826109a5565b0390f35b6103fa565b90565b611b07611b02611b0c92611af0565b6105ee565b6107fc565b90565b611b196001611af3565b90565b611b24611b0f565b90565b34611b5757611b373660046104af565b611b53611b42611b1c565b611b4a6103f4565b91829182610922565b0390f35b6103fa565b611b685f6018906104e5565b90565b34611b9b57611b7b3660046104af565b611b97611b86611b5c565b611b8e6103f4565b9182918261051a565b0390f35b6103fa565b90602080611bc293611bb85f8201515f8601906116d0565b01519101906116d0565b565b9190611bd7905f60408501940190611ba0565b565b34611c0a57611c06611bf5611bef366004610dc2565b90612be6565b611bfd6103f4565b91829182611bc4565b0390f35b6103fa565b34611c4057611c3c611c2b611c25366004610dc2565b90612c0e565b611c336103f4565b9182918261051a565b0390f35b6103fa565b611c4e816107fc565b03611c5557565b5f80fd5b90503590611c6682611c45565b565b611c71816107e8565b03611c7857565b5f80fd5b90503590611c8982611c68565b565b608081830312611ccc57611ca1825f830161058f565b92611cc9611cb28460208501611c59565b93611cc08160408601611c59565b93606001611c7c565b90565b6103fe565b34611d0357611ced611ce4366004611c8b565b929190916133fc565b611cf56103f4565b80611cff81610a7c565b0390f35b6103fa565b90565b611d1f611d1a611d2492611d08565b6105ee565b610502565b90565b611d336276a700611d0b565b90565b611d3e611d27565b90565b34611d7157611d513660046104af565b611d6d611d5c611d36565b611d646103f4565b9182918261051a565b0390f35b6103fa565b90565b611d8d611d88611d9292611d76565b6105ee565b610502565b90565b611da162127500611d79565b90565b611dac611d95565b90565b34611ddf57611dbf3660046104af565b611ddb611dca611da4565b611dd26103f4565b9182918261051a565b0390f35b6103fa565b34611e1357611dfd611df7366004610b1d565b90613434565b611e056103f4565b80611e0f81610a7c565b0390f35b6103fa565b611e2460015f906104e5565b90565b34611e5757611e373660046104af565b611e53611e42611e18565b611e4a6103f4565b9182918261051a565b0390f35b6103fa565b90565b611e73611e6e611e7892611e5c565b6105ee565b6107fc565b90565b611e8b662386f26fc10000611e5f565b90565b611e96611e7b565b90565b34611ec957611ea93660046104af565b611ec5611eb4611e8e565b611ebc6103f4565b91829182610922565b0390f35b6103fa565b90602082820312611efd575f82013560018060401b038111611ef857611ef492016109fb565b9091565b610402565b6103fe565b34611f3157611f1b611f15366004611ece565b90613495565b611f236103f4565b80611f2d81610a7c565b0390f35b6103fa565b611f4a611f45611f4f92610d10565b6105ee565b6107fc565b90565b611f5d612710611f36565b90565b611f68611f52565b90565b34611f9b57611f7b3660046104af565b611f97611f86611f60565b611f8e6103f4565b91829182610922565b0390f35b6103fa565b34611fcf57611fb9611fb33660046105c1565b906135c6565b611fc16103f4565b80611fcb81610a7c565b0390f35b6103fa565b90565b611feb611fe6611ff092611fd4565b6105ee565b610502565b90565b611fff62ed4e00611fd7565b90565b61200a611ff3565b90565b3461203d5761201d3660046104af565b612039612028612002565b6120306103f4565b9182918261051a565b0390f35b6103fa565b7f189ab7a9244df0848122154315af71fe140f3db0fe014031783b0946b8c9d2e390565b61206e612042565b90565b346120a1576120813660046104af565b61209d61208c612066565b6120946103f4565b91829182610ad3565b0390f35b6103fa565b6120b25f6008906104e5565b90565b346120e5576120c53660046104af565b6120e16120d06120a6565b6120d86103f4565b9182918261051a565b0390f35b6103fa565b5f90565b6120f66120ea565b508061211161210b637965db0b60e01b610406565b91610406565b1490811561211e575b5090565b61212891506135d7565b5f61211a565b5f90565b9061213c90610619565b5f5260205260405f2090565b612151906107d8565b90565b9061215e90612148565b5f5260205260405f2090565b61217e61217961218392611639565b6105ee565b6107fc565b90565b6121ab916121a16121a69261219961212e565b506011612132565b612154565b610744565b806121be6121b85f61216a565b916107fc565b145f146121d257506121ce6118bc565b5b90565b6121cf565b60018060401b0381116121ed5760208091020190565b610e80565b90929192612207612202826121d7565b610ebb565b938185526020808601920283019281841161224457915b83831061222b5750505050565b602080916122398486610426565b81520192019161221e565b6109f7565b6122549136916121f2565b90565b6122739261226d9161226761360f565b92612249565b9061364a565b565b5f90565b9061228390612148565b5f5260205260405f2090565b60016122b06122b6926122a0612275565b505f6122aa6137be565b01612279565b016106f8565b90565b906122d4916122cf6122ca8261228f565b6137e2565b6122d6565b565b906122e0916137f6565b50565b906122ed916122b9565b565b908061230a6123046122ff6138ad565b61056f565b9161056f565b0361231b57612318916138ba565b50565b5f63334bd91960e11b81528061233360048201610a7c565b0390fd5b612340906105f1565b90565b61234c90612337565b90565b6123589061060d565b90565b60e01b90565b9050519061236e82610412565b565b90929192612385612380826121d7565b610ebb565b93818552602080860192028301928184116123c257915b8383106123a95750505050565b602080916123b78486612361565b81520192019161239c565b6109f7565b9080601f830112156123e5578160206123e293519101612370565b90565b6109ef565b90602082820312612418575f82015160018060401b0381116124135761241092016123c7565b90565b610402565b6103fe565b6124256103f4565b3d5f823e3d90fd5b61243561360f565b6124605f61244a61244584612343565b61234f565b636e25b978906124586103f4565b93849261235b565b8252818061247060048201610a7c565b03915afa80156124f05761248c915f916124ce575b508261364a565b6124b67f4d3c30f5993f1922a779345a0f7ec1a170f1e52e9d230824f9c17e63596c906d91610619565b906124bf6103f4565b806124c981610a7c565b0390a2565b6124ea91503d805f833e6124e28183610e94565b8101906123ea565b5f612485565b61241d565b906124ff90610619565b5f5260205260405f2090565b6125226125279161251a61212e565b50601b6124f5565b610744565b90565b9061253c91612537613973565b61253e565b565b906125519161254c81613a2d565b613a89565b565b9061255d9161252a565b565b6125709061256b613b87565b6125be565b90565b90565b61258a61258561258f92612573565b61163c565b6107d8565b90565b6125bb7f360894a13ba1a3210667c828492db98dca3e2076cc3735a920a3ca505d382bbc612576565b90565b506125c7612592565b90565b6125da6125d5612275565b61255f565b90565b6125e96125ee9161066d565b611230565b90565b6125fb90546125dd565b90565b6126066120ea565b506126195f612613613be5565b016125f1565b90565b5f90565b61263761263c9161262f61261c565b506056610e05565b610686565b90565b6126649161265a61265f9261265261261c565b506057610def565b610e05565b610686565b90565b5f90565b9061267590610619565b5f5260205260405f2090565b60018060a01b031690565b61269861269d9161066d565b612681565b90565b6126aa905461268c565b90565b6126c46126c9916126bc612667565b50600661266b565b6126a0565b90565b6126de906126d8612667565b50613c1f565b90565b906126eb90610619565b5f5260205260405f2090565b612726915f61271b6127219361270b6120ea565b50826127156137be565b01612279565b016126e1565b6125f1565b90565b6127406127459161273861261c565b506023610e05565b610686565b90565b9061275290610502565b9052565b90612760906107d8565b9052565b9061276e906107e8565b9052565b9061277c906107fc565b9052565b61278b610120610ebb565b90565b9061286c612862600661279f612780565b946127b66127ae5f8301610686565b5f8801612748565b6127cd6127c45f83016106ad565b60208801612748565b6127e46127db5f83016106d4565b60408801612748565b6127fc6127f3600183016106f8565b60608801612756565b61281461280b60028301610720565b60808801612764565b61282c61282360038301610744565b60a08801612772565b61284461283b60048301610744565b60c08801612772565b61285c61285360058301610744565b60e08801612772565b016106f8565b6101008401612756565b565b6128779061278e565b90565b6128849051610502565b90565b61289b6128966128a092611639565b6105ee565b610502565b90565b6128ad90516107d8565b90565b6128ba90516107fc565b90565b634e487b7160e01b5f52601160045260245ffd5b6128e06128e6919392936107fc565b926107fc565b82039182116128f157565b6128bd565b61290561290b919392936107fc565b926107fc565b916129178382026107fc565b92818404149015171561292657565b6128bd565b634e487b7160e01b5f52601260045260245ffd5b61294b612951916107fc565b916107fc565b90811561295c570490565b61292b565b9291909261298a61298561297361212e565b9561298060558590610625565b610657565b61286e565b916129965f840161287a565b6129a86129a25f612887565b91610502565b14612a6957906129c591906129bf606085016128a3565b91613d53565b90816129d96129d35f61216a565b916107fc565b14612a59576129ea60c082016128b0565b612a07612a016129fc60e085016128b0565b6107fc565b916107fc565b11612a11575b5050565b612a5192935090612a3d82612a3760e0612a3060c0612a4397016128b0565b92016128b0565b906128d1565b906128f6565b612a4b6118bc565b9061293f565b905f80612a0d565b50509050612a665f61216a565b90565b5050509050612a775f61216a565b90565b5f90565b5f90565b5f90565b5f90565b612a92612780565b90602080808080808080808a612aa6612a7a565b815201612ab1612a7a565b815201612abc612a7a565b815201612ac7612a7e565b815201612ad2612a82565b815201612add612a86565b815201612ae8612a86565b815201612af3612a86565b815201612afe612a7e565b81525050565b612b0c612a8a565b90565b612b3491612b2a612b2f92612b22612b04565b506055610625565b610657565b61286e565b90565b612b416040610ebb565b90565b612b4c612b37565b9060208083612b59612a86565b815201612b64612a86565b81525050565b612b72612b44565b90565b90612b7f9061063b565b5f5260205260405f2090565b90612b9590610619565b5f5260205260405f2090565b90612bd8612bcf6001612bb2612b37565b94612bc9612bc15f8301610744565b5f8801612772565b01610744565b60208401612772565b565b612be390612ba1565b90565b612c0b91612c01612c0692612bf9612b6a565b506010612b75565b612b8b565b612bda565b90565b612c3391612c29612c2e92612c2161261c565b506058610def565b610e05565b610686565b90565b612c42612c4791610693565b611230565b90565b612c549054612c36565b90565b612c6b612c66612c7092611af0565b6105ee565b610502565b90565b612c7c9061060d565b90565b90612c9060018060401b039161163c565b9181191691161790565b90565b90612cb2612cad612cb99261063b565b612c9a565b8254612c7f565b9055565b60401b90565b90612cd260ff60401b91612cbd565b9181191691161790565b612ce590610453565b90565b90565b90612d00612cfb612d0792612cdc565b612ce8565b8254612cc3565b9055565b612d1490612c57565b9052565b9190612d2b905f60208501940190612d0b565b565b909192612d38613e42565b93612d4d612d475f8701612c4a565b15610453565b93612d595f8701610686565b80612d6c612d665f612887565b91610502565b1480612e86575b90612d87612d816001612c57565b91610502565b1480612e5e575b612d99909115610453565b9081612e4d575b50612e3157612dc993612dbe612db66001612c57565b5f8901612c9d565b85612e1f575b61323e565b612dd1575b50565b612dde905f809101612ceb565b6001612e167fc7f505b2f371ae2175ee4913f4499e1f2633a7b5936321eed1cdaeb6115181d291612e0d6103f4565b91829182612d18565b0390a15f612dce565b612e2c60015f8901612ceb565b612dc4565b5f63f92ee8a960e01b815280612e4960048201610a7c565b0390fd5b612e58915015610453565b5f612da0565b50612d99612e6b30612c73565b3b612e7e612e785f61216a565b916107fc565b149050612d8e565b5085612d73565b612ea1612e9c612ea692611639565b6105ee565b610564565b90565b612eb290612e8d565b90565b612ebf6040610ebb565b90565b634e487b7160e01b5f52602160045260245ffd5b60021115612ee057565b612ec2565b90612eef82612ed6565b565b90612efb90612ee5565b9052565b90612f099061056f565b9052565b612f21612f1c612f26926107fc565b6105ee565b6107e8565b90565b612f3360c0610ebb565b90565b90612f4090610453565b9052565b90612f4e90612148565b5f5260205260405f2090565b612f649051610453565b90565b90612f7360ff9161163c565b9181191691161790565b90612f92612f8d612f9992612cdc565b612ce8565b8254612f67565b9055565b90612fa95f199161163c565b9181191691161790565b612fc7612fc2612fcc926107fc565b6105ee565b6107fc565b90565b90565b90612fe7612fe2612fee92612fb3565b612fcf565b8254612f9d565b9055565b612ffc90516107e8565b90565b9061300c61ffff9161163c565b9181191691161790565b61302a61302561302f926107e8565b6105ee565b6107e8565b90565b90565b9061304a61304561305192613016565b613032565b8254612fff565b9055565b906130e460a060056130ea946130785f82016130725f8801612f5a565b90612f7d565b6130916001820161308b602088016128b0565b90612fd2565b6130aa600282016130a4604088016128b0565b90612fd2565b6130c3600382016130bd606088016128b0565b90612fd2565b6130dc600482016130d6608088016128b0565b90612fd2565b019201612ff2565b90613035565b565b906130f691613055565b565b60801b90565b9061310e61ffff60801b916130f8565b9181191691161790565b9061312d61312861313492613016565b613032565b82546130fe565b9055565b90565b61314f61314a61315492613138565b6105ee565b610502565b90565b61316261546061313b565b90565b9061317a600160401b600160801b0391612cbd565b9181191691161790565b906131996131946131a09261063b565b612c9a565b8254613165565b9055565b90565b6131bb6131b66131c0926131a4565b6105ee565b610502565b90565b6131cd601c6131a7565b90565b60c01b90565b906131e860018060c01b0319916131d0565b9181191691161790565b9061320761320261320e9261063b565b612c9a565b82546131d6565b9055565b90565b61322961322461322e92613212565b6105ee565b610502565b90565b61323b6038613215565b90565b919091613249613e70565b613251613e84565b613259613eaa565b613261613ed0565b61326961165d565b81613273916137f6565b5061327c6111cc565b81613286916137f6565b5061328f6117cc565b81613299916137f6565b506132a2612042565b906132ac916137f6565b505f806132b890612ea9565b6132c0612eb5565b915f8301906132ce91612ef1565b60208201906132dc91612eff565b6132e590613f3a565b90600192905f80916132f5611f52565b6132fe90612f0d565b93613307612f29565b965f88019061331591612f36565b602087019061332391612772565b604086019061333191612772565b61333a9061216a565b606085019061334891612772565b6133519061216a565b608084019061335f91612772565b60a083019061336d91612764565b60029061337991612f44565b90613383916130ec565b6001613390906005612f7d565b61339b906001613118565b60016133a690612c57565b6133b0905f612c9d565b6133b8613157565b6133c2905f613184565b6133ca6131c3565b6133d4905f6131f2565b6133dc6131c3565b6133e7906001612c9d565b6133ef613231565b6133fa906001613184565b565b90613408939291612d2d565b565b906134259161342061341b8261228f565b6137e2565b613427565b565b90613431916138ba565b50565b9061343e9161340a565b565b600161344c91016107fc565b90565b5090565b634e487b7160e01b5f52603260045260245ffd5b9190811015613477576020020190565b613453565b3561348681610412565b90565b61349290610406565b90565b9190916134a061360f565b6134a95f61216a565b5b806134c76134c16134bc85889061344f565b6107fc565b916107fc565b101561354b57613546906134ed6134e86134e385888591613467565b61347c565b614001565b6135016134fc84878491613467565b61347c565b61352b7fbeb27701828f515b03069d44da6519b6c491da13ef1ca7082e619959d1f48ddb91613489565b906135346103f4565b8061353e81610a7c565b0390a2613440565b6134aa565b50509050565b9061356b916135666135616111cc565b6137e2565b61356d565b565b6135828261357d60238490610e05565b612c9d565b6135c16135af7f90b37e59a942c5413ce00a3a844a47c20094979897cc653606d925e909885f3592610619565b926135b86103f4565b9182918261051a565b0390a2565b906135d091613551565b565b614017565b6135df6120ea565b506135f96135f36301ffc9a760e01b610406565b91610406565b1490565b61360d613608612042565b6137e2565b565b6136176135fd565b565b5190565b9061362782613619565b811015613638576020809102010190565b613453565b6136479051610406565b90565b91908261366761366161365c5f612ea9565b61056f565b9161056f565b146137b957823b61368061367a5f61216a565b916107fc565b146137b35761368e5f61216a565b5b806136aa6136a461369f85613619565b6107fc565b916107fc565b10156137ad576136cb6136c66136c184849061361d565b61363d565b613c1f565b806136e66136e06136db5f612ea9565b61056f565b9161056f565b141580613792575b61377b57506137769061371461370d61370885849061361d565b61363d565b869061411e565b61372761372284839061361d565b61363d565b8561375b6137557f12557f25e458d9682d7c959b5a960bc9332e8b7af1120b54a333bfc1ff282b3993613489565b91610619565b916137646103f4565b8061376e81610a7c565b0390a3613440565b61368f565b61378d613788838561361d565b61363d565b6140c5565b50806137a66137a08761056f565b9161056f565b14156136ee565b50509050565b82614076565b61405a565b7f02dd7bc7dec4dceedda775e58dd541e08a116c6c53815c0bd028192f7b62680090565b6137f4906137ee6138ad565b90614157565b565b6137fe6120ea565b506138076137be565b61381b6138158385906126f7565b15610453565b5f146138a657613845906138405f61383881600194018690612279565b0185906126e1565b612f7d565b9061384e6138ad565b9061388b61388561387f7f2f8788117e7eff1d82e926ec794901d17c78024a50270940304540a733656f0d95612148565b92610619565b92610619565b926138946103f4565b8061389e81610a7c565b0390a4600190565b5050505f90565b6138b5612667565b503390565b6138c26120ea565b506138cb6137be565b6138d68284906126f7565b5f14613960576138ff906138fa5f6138f2818094018690612279565b0185906126e1565b612f7d565b906139086138ad565b9061394561393f6139397ff6391f5c32d9c69d2a47ea670b442974b53935d1edc7fd64eb21e047a839171b95612148565b92610619565b92610619565b9261394e6103f4565b8061395881610a7c565b0390a4600190565b5050505f90565b6139709061060d565b90565b61397c30613967565b6139ae6139a87f000000000000000000000000000000000000000000000000000000000000000061056f565b9161056f565b1480156139d8575b6139bc57565b5f63703e46dd60e11b8152806139d460048201610a7c565b0390fd5b506139e1614192565b613a13613a0d7f000000000000000000000000000000000000000000000000000000000000000061056f565b9161056f565b14156139b6565b50613a2b613a26612042565b6137e2565b565b613a3690613a1a565b565b613a41906105f1565b90565b613a4d90613a38565b90565b613a599061060d565b90565b90505190613a69826108d2565b565b90602082820312613a8457613a81915f01613a5c565b90565b6103fe565b9190613ab76020613aa1613a9c86613a44565b613a50565b6352d1902d90613aaf6103f4565b93849261235b565b82528180613ac760048201610a7c565b03915afa80915f92613b57575b50155f14613b08575050906001613ae957505b565b613b04905f918291634c9c8ce360e01b8352600483016113cc565b0390fd5b9283613b23613b1d613b18612592565b6107d8565b916107d8565b03613b3857613b339293506141b8565b613ae7565b613b53845f918291632a87526960e21b835260048301610ad3565b0390fd5b613b7991925060203d8111613b80575b613b718183610e94565b810190613a6b565b905f613ad4565b503d613b67565b613b9030613967565b613bc2613bbc7f000000000000000000000000000000000000000000000000000000000000000061056f565b9161056f565b03613bc957565b5f63703e46dd60e11b815280613be160048201610a7c565b0390fd5b7fcd5ed15c6e187e77e9aee88184c21f4f2182ab5827cb3b7e07fbedcd63f0330090565b90613c1390613489565b5f5260205260405f2090565b613c36613c3b91613c2e612667565b506021613c09565b6126a0565b90565b90613c4890610619565b5f5260205260405f2090565b90565b5490565b5f5260205f2090565b613c6d81613c57565b821015613c8757613c7f600491613c5b565b910201905f90565b613453565b90565b60ff1690565b613ca1613ca69161066d565b613c8f565b90565b613cb39054613c95565b90565b60081c90565b613cc8613ccd91613cb6565b612681565b90565b613cda9054613cbc565b90565b613ce76040610ebb565b90565b90613d20613d175f613cfa613cdd565b94613d11613d09838301613ca9565b838801612ef1565b01613cd0565b60208401612eff565b565b613d2b90613cea565b90565b613d3d613d43919392936107fc565b926107fc565b8201809211613d4e57565b6128bd565b929192613d71613d6c613d6461212e565b926015613c3e565b613c54565b93613d7b85613c57565b93613d855f61216a565b5b80613d99613d93886107fc565b916107fc565b1015613e3957613db3613dad888390613c64565b50613c8c565b613dbe5f82016126a0565b613dd0613dca8861056f565b9161056f565b1480613e0c575b613deb575b50613de690613440565b613d86565b613de69194613dff6001613e059301610744565b90613d2e565b9390613ddc565b50613e21613e1c60028301613d22565b613f3a565b613e33613e2d866107d8565b916107d8565b14613dd7565b50935050925050565b7ff0c57e16840df040f15088dc2f81fe391c3923bec73e23a9662efc9c229c6a0090565b613e6e614241565b565b613e78613e66565b565b613e82614241565b565b613e8c613e7a565b565b613e96614241565b613e9e613ea0565b565b613ea861429c565b565b613eb2613e8e565b565b613ebc614241565b613ec4613ec6565b565b613ece6142e2565b565b613ed8613eb4565b565b613ee49051612ee5565b90565b613ef1905161056f565b90565b613efd90612ee5565b90565b613f0990613ef4565b9052565b916020613f2e929493613f2760408201965f830190613f00565b01906113bf565b565b60200190565b5190565b613f42612275565b50613f84613f5d6020613f565f8501613eda565b9301613ee7565b91613f75613f696103f4565b93849260208401613f0d565b60208201810382520382610e94565b613f96613f9082613f36565b91613f30565b2090565b1b90565b91906008613fbe910291613fb860018060a01b0384613f9a565b92613f9a565b9181191691161790565b90565b9190613fe1613fdc613fe993610619565b613fc8565b908354613f9e565b9055565b613fff91613ff9612667565b91613fcb565b565b5f614010614015926021613c09565b613fed565b565b61402a63ffffffff60e01b5f3516613c1f565b8061404561403f61403a5f612ea9565b61056f565b9161056f565b036143205763ffffffff60e01b5f3516614301565b5f63d92e233d60e01b81528061407260048201610a7c565b0390fd5b614091905f9182916322a2d07b60e21b8352600483016113cc565b0390fd5b61409e90610406565b9052565b9160206140c39294936140bc60408201965f830190614095565b01906113bf565b565b6140df5f9283926310ae11a960e31b8452600484016140a2565b0390fd5b906140f460018060a01b039161163c565b9181191691161790565b9061411361410e61411a92610619565b613fc8565b82546140e3565b9055565b61412d61413292916021613c09565b6140fe565b565b91602061415592949361414e60408201965f8301906113bf565b01906107db565b565b9061416c6141668383906126f7565b15610453565b614174575050565b61418e5f92839263e2517d3f60e01b845260048401614134565b0390fd5b61419a612667565b506141b55f6141af6141aa612592565b61433e565b016126a0565b90565b906141c282614341565b816141ed7fbc7cd75a20ee27fd9adebab32041f755214dbc6bffa90cc0225b39da2e5c2d3b91610619565b906141f66103f4565b8061420081610a7c565b0390a261420c81613f36565b61421e6142185f61216a565b916107fc565b115f146142325761422e91614411565b505b565b505061423c614396565b614230565b61425261424c614440565b15610453565b61425857565b5f631afcd79f60e31b81528061427060048201610a7c565b0390fd5b61427c614241565b614284614286565b565b61429a614291613be5565b5f809101612f7d565b565b6142a4614274565b565b6142ae614241565b6142b66142c5565b565b6142c26001611af3565b90565b6142e06142d061445e565b5f6142d96142b8565b9101612fd2565b565b6142ea6142a6565b565b91906142ff905f60208501940190614095565b565b61431c905f91829163c2a825f560e01b8352600483016142ec565b0390fd5b5f8091368280378136915af43d5f803e5f1461433a573d5ff35b3d5ffd5b90565b803b61435561434f5f61216a565b916107fc565b1461437757614375905f61436f61436a612592565b61433e565b016140fe565b565b614392905f918291634c9c8ce360e01b8352600483016113cc565b0390fd5b346143a96143a35f61216a565b916107fc565b116143b057565b5f63b398979f60e01b8152806143c860048201610a7c565b0390fd5b606090565b906143e36143de83610ed0565b610ebb565b918252565b3d5f14614403576143f83d6143d1565b903d5f602084013e5b565b61440b6143cc565b90614401565b5f8061443d9361441f6143cc565b508390602081019051915af4906144346143e8565b90919091614482565b90565b6144486120ea565b5061445b5f614455613e42565b01612c4a565b90565b7f9b779b17422d0df92223018b32b4d1fa46e071723d6817e2486d003becc55f0090565b906144969061448f6143cc565b5015610453565b5f146144a25750614506565b6144ab82613f36565b6144bd6144b75f61216a565b916107fc565b14806144eb575b6144cc575090565b6144e7905f918291639996b31560e01b8352600483016113cc565b0390fd5b50803b6145006144fa5f61216a565b916107fc565b146144c4565b61450f81613f36565b61452161451b5f61216a565b916107fc565b115f1461453057805190602001fd5b5f63d6bda27560e01b81528061454860048201610a7c565b0390fdfea164736f6c634300081a000a","linkReferences":{}},"methodIdentifiers":{"ADMIN_ROLE()":"75b238fc","ASSET_MANAGER_ROLE()":"a4b32de8","BPS_DENOMINATOR()":"e1a45218","COMMISSION_CHANGE_DELAY()":"d45ff582","DEFAULT_ADMIN_ROLE()":"a217fddf","LOCK_ONE_MONTH()":"9e870585","LOCK_SIX_MONTHS()":"f3c9b311","LOCK_THREE_MONTHS()":"d27a6f06","LOCK_TWO_MONTHS()":"7df92ada","MAX_REWARD_MULTIPLIER_BPS()":"b5e2a87a","MIN_LOCK_AMOUNT()":"dd764abf","MULTIPLIER_NONE()":"4962f88f","MULTIPLIER_ONE_MONTH()":"18056dc2","MULTIPLIER_SIX_MONTHS()":"453eccea","MULTIPLIER_THREE_MONTHS()":"a7fa6f98","MULTIPLIER_TWO_MONTHS()":"54de2320","PRECISION()":"aaf5eb68","SLASHER_ROLE()":"5095af64","TANGLE_ROLE()":"602356e3","UPGRADER_ROLE()":"f72c0d8b","UPGRADE_INTERFACE_VERSION()":"ad3cb1cc","VIRTUAL_ASSETS()":"b6608409","VIRTUAL_SHARES()":"88c47f68","blueprintSlashCount(uint64,address)":"4e9c929a","clearFacetSelectors(bytes4[])":"e07dec29","currentRound()":"8a19c8bc","delegationBondLessDelay()":"ba05bbf5","facetForSelector(bytes4)":"90837ff4","getAccumulatedDust(address)":"49147411","getAssetAdapter(address)":"8a7fe60f","getOperatorSlashFactor(address,bytes32)":"12d91c88","getPendingSlashCount(address)":"9480e4dd","getRoleAdmin(bytes32)":"248a9ca3","getSlashCount(address)":"66c36875","getSlashCountForBlueprint(uint64,address)":"c550d938","getSlashCountForService(uint64,address)":"72b5032d","getSlashImpact(address,uint64,address)":"9494f426","getSlashRecord(address,uint64)":"a457af3d","getSnapshot(uint64,address)":"c07449e2","grantRole(bytes32,address)":"2f2ff15d","hasRole(bytes32,address)":"91d14854","initialize(address,uint256,uint256,uint16)":"cbb6d6bd","lastRoundAdvance()":"05d64e38","leaveDelegatorsDelay()":"db8a173a","leaveOperatorsDelay()":"4de8addc","nativeEnabled()":"77ab2cf3","nextSlashId(address)":"96085673","operatorCommissionBps()":"32273f61","paused()":"5c975abb","proxiableUUID()":"52d1902d","registerFacet(address)":"46d163aa","registerFacetSelectors(address,bytes4[])":"19e82e61","renounceRole(bytes32,address)":"36568abe","requireAdapters()":"b54b2b9e","resetPendingSlashCount(address,uint64)":"e27e05c1","revokeRole(bytes32,address)":"d547741f","roundDuration()":"f7cb789a","serviceSlashCount(uint64,address)":"9722f4b9","slashHistory(address,uint64)":"0aa8b110","supportsInterface(bytes4)":"01ffc9a7","upgradeToAndCall(address,bytes)":"4f1ef286"},"id":196}