{"abi":[{"type":"constructor","inputs":[],"stateMutability":"nonpayable"},{"type":"receive","stateMutability":"payable"},{"type":"function","name":"ADMIN_ROLE","inputs":[],"outputs":[{"name":"","type":"bytes32","internalType":"bytes32"}],"stateMutability":"view"},{"type":"function","name":"ASSET_MANAGER_ROLE","inputs":[],"outputs":[{"name":"","type":"bytes32","internalType":"bytes32"}],"stateMutability":"view"},{"type":"function","name":"BPS_DENOMINATOR","inputs":[],"outputs":[{"name":"","type":"uint256","internalType":"uint256"}],"stateMutability":"view"},{"type":"function","name":"DEFAULT_ADMIN_ROLE","inputs":[],"outputs":[{"name":"","type":"bytes32","internalType":"bytes32"}],"stateMutability":"view"},{"type":"function","name":"LOCK_ONE_MONTH","inputs":[],"outputs":[{"name":"","type":"uint64","internalType":"uint64"}],"stateMutability":"view"},{"type":"function","name":"LOCK_SIX_MONTHS","inputs":[],"outputs":[{"name":"","type":"uint64","internalType":"uint64"}],"stateMutability":"view"},{"type":"function","name":"LOCK_THREE_MONTHS","inputs":[],"outputs":[{"name":"","type":"uint64","internalType":"uint64"}],"stateMutability":"view"},{"type":"function","name":"LOCK_TWO_MONTHS","inputs":[],"outputs":[{"name":"","type":"uint64","internalType":"uint64"}],"stateMutability":"view"},{"type":"function","name":"MULTIPLIER_NONE","inputs":[],"outputs":[{"name":"","type":"uint16","internalType":"uint16"}],"stateMutability":"view"},{"type":"function","name":"MULTIPLIER_ONE_MONTH","inputs":[],"outputs":[{"name":"","type":"uint16","internalType":"uint16"}],"stateMutability":"view"},{"type":"function","name":"MULTIPLIER_SIX_MONTHS","inputs":[],"outputs":[{"name":"","type":"uint16","internalType":"uint16"}],"stateMutability":"view"},{"type":"function","name":"MULTIPLIER_THREE_MONTHS","inputs":[],"outputs":[{"name":"","type":"uint16","internalType":"uint16"}],"stateMutability":"view"},{"type":"function","name":"MULTIPLIER_TWO_MONTHS","inputs":[],"outputs":[{"name":"","type":"uint16","internalType":"uint16"}],"stateMutability":"view"},{"type":"function","name":"PRECISION","inputs":[],"outputs":[{"name":"","type":"uint256","internalType":"uint256"}],"stateMutability":"view"},{"type":"function","name":"SLASHER_ROLE","inputs":[],"outputs":[{"name":"","type":"bytes32","internalType":"bytes32"}],"stateMutability":"view"},{"type":"function","name":"UPGRADE_INTERFACE_VERSION","inputs":[],"outputs":[{"name":"","type":"string","internalType":"string"}],"stateMutability":"view"},{"type":"function","name":"addBlueprint","inputs":[{"name":"blueprintId","type":"uint64","internalType":"uint64"}],"outputs":[],"stateMutability":"nonpayable"},{"type":"function","name":"addBlueprintToDelegation","inputs":[{"name":"delegationIndex","type":"uint256","internalType":"uint256"},{"name":"blueprintId","type":"uint64","internalType":"uint64"}],"outputs":[],"stateMutability":"nonpayable"},{"type":"function","name":"addSlasher","inputs":[{"name":"slasher","type":"address","internalType":"address"}],"outputs":[],"stateMutability":"nonpayable"},{"type":"function","name":"advanceRound","inputs":[],"outputs":[],"stateMutability":"nonpayable"},{"type":"function","name":"claimDelegatorRewards","inputs":[],"outputs":[],"stateMutability":"nonpayable"},{"type":"function","name":"claimOperatorRewards","inputs":[],"outputs":[],"stateMutability":"nonpayable"},{"type":"function","name":"claimOperatorRewardsTo","inputs":[{"name":"recipient","type":"address","internalType":"address payable"}],"outputs":[],"stateMutability":"nonpayable"},{"type":"function","name":"completeLeaving","inputs":[],"outputs":[],"stateMutability":"nonpayable"},{"type":"function","name":"currentRound","inputs":[],"outputs":[{"name":"","type":"uint64","internalType":"uint64"}],"stateMutability":"view"},{"type":"function","name":"delegate","inputs":[{"name":"operator","type":"address","internalType":"address"},{"name":"amount","type":"uint256","internalType":"uint256"}],"outputs":[],"stateMutability":"nonpayable"},{"type":"function","name":"delegateWithOptions","inputs":[{"name":"operator","type":"address","internalType":"address"},{"name":"token","type":"address","internalType":"address"},{"name":"amount","type":"uint256","internalType":"uint256"},{"name":"selectionMode","type":"uint8","internalType":"enum Types.BlueprintSelectionMode"},{"name":"blueprintIds","type":"uint64[]","internalType":"uint64[]"}],"outputs":[],"stateMutability":"nonpayable"},{"type":"function","name":"delegationBondLessDelay","inputs":[],"outputs":[{"name":"","type":"uint64","internalType":"uint64"}],"stateMutability":"view"},{"type":"function","name":"deposit","inputs":[],"outputs":[],"stateMutability":"payable"},{"type":"function","name":"depositAndDelegate","inputs":[{"name":"operator","type":"address","internalType":"address"}],"outputs":[],"stateMutability":"payable"},{"type":"function","name":"depositAndDelegateWithOptions","inputs":[{"name":"operator","type":"address","internalType":"address"},{"name":"token","type":"address","internalType":"address"},{"name":"amount","type":"uint256","internalType":"uint256"},{"name":"selectionMode","type":"uint8","internalType":"enum Types.BlueprintSelectionMode"},{"name":"blueprintIds","type":"uint64[]","internalType":"uint64[]"}],"outputs":[],"stateMutability":"payable"},{"type":"function","name":"depositERC20","inputs":[{"name":"token","type":"address","internalType":"address"},{"name":"amount","type":"uint256","internalType":"uint256"}],"outputs":[],"stateMutability":"nonpayable"},{"type":"function","name":"depositERC20WithLock","inputs":[{"name":"token","type":"address","internalType":"address"},{"name":"amount","type":"uint256","internalType":"uint256"},{"name":"lockMultiplier","type":"uint8","internalType":"enum Types.LockMultiplier"}],"outputs":[],"stateMutability":"nonpayable"},{"type":"function","name":"depositWithLock","inputs":[{"name":"lockMultiplier","type":"uint8","internalType":"enum Types.LockMultiplier"}],"outputs":[],"stateMutability":"payable"},{"type":"function","name":"disableAsset","inputs":[{"name":"token","type":"address","internalType":"address"}],"outputs":[],"stateMutability":"nonpayable"},{"type":"function","name":"enableAsset","inputs":[{"name":"token","type":"address","internalType":"address"},{"name":"_minOperatorStake","type":"uint256","internalType":"uint256"},{"name":"_minDelegation","type":"uint256","internalType":"uint256"},{"name":"_depositCap","type":"uint256","internalType":"uint256"},{"name":"_rewardMultiplierBps","type":"uint16","internalType":"uint16"}],"outputs":[],"stateMutability":"nonpayable"},{"type":"function","name":"executeDelegatorUnstake","inputs":[],"outputs":[],"stateMutability":"nonpayable"},{"type":"function","name":"executeOperatorUnstake","inputs":[],"outputs":[],"stateMutability":"nonpayable"},{"type":"function","name":"executeWithdraw","inputs":[],"outputs":[],"stateMutability":"nonpayable"},{"type":"function","name":"getAssetConfig","inputs":[{"name":"token","type":"address","internalType":"address"}],"outputs":[{"name":"","type":"tuple","internalType":"struct Types.AssetConfig","components":[{"name":"enabled","type":"bool","internalType":"bool"},{"name":"minOperatorStake","type":"uint256","internalType":"uint256"},{"name":"minDelegation","type":"uint256","internalType":"uint256"},{"name":"depositCap","type":"uint256","internalType":"uint256"},{"name":"currentDeposits","type":"uint256","internalType":"uint256"},{"name":"rewardMultiplierBps","type":"uint16","internalType":"uint16"}]}],"stateMutability":"view"},{"type":"function","name":"getDelegation","inputs":[{"name":"delegator","type":"address","internalType":"address"},{"name":"operator","type":"address","internalType":"address"}],"outputs":[{"name":"","type":"uint256","internalType":"uint256"}],"stateMutability":"view"},{"type":"function","name":"getDelegationBlueprints","inputs":[{"name":"delegator","type":"address","internalType":"address"},{"name":"idx","type":"uint256","internalType":"uint256"}],"outputs":[{"name":"","type":"uint64[]","internalType":"uint64[]"}],"stateMutability":"view"},{"type":"function","name":"getDelegations","inputs":[{"name":"delegator","type":"address","internalType":"address"}],"outputs":[{"name":"","type":"tuple[]","internalType":"struct Types.BondInfoDelegator[]","components":[{"name":"operator","type":"address","internalType":"address"},{"name":"shares","type":"uint256","internalType":"uint256"},{"name":"asset","type":"tuple","internalType":"struct Types.Asset","components":[{"name":"kind","type":"uint8","internalType":"enum Types.AssetKind"},{"name":"token","type":"address","internalType":"address"}]},{"name":"selectionMode","type":"uint8","internalType":"enum Types.BlueprintSelectionMode"}]}],"stateMutability":"view"},{"type":"function","name":"getDeposit","inputs":[{"name":"delegator","type":"address","internalType":"address"},{"name":"token","type":"address","internalType":"address"}],"outputs":[{"name":"","type":"tuple","internalType":"struct Types.Deposit","components":[{"name":"amount","type":"uint256","internalType":"uint256"},{"name":"delegatedAmount","type":"uint256","internalType":"uint256"}]}],"stateMutability":"view"},{"type":"function","name":"getLocks","inputs":[{"name":"delegator","type":"address","internalType":"address"},{"name":"token","type":"address","internalType":"address"}],"outputs":[{"name":"","type":"tuple[]","internalType":"struct Types.LockInfo[]","components":[{"name":"amount","type":"uint256","internalType":"uint256"},{"name":"multiplier","type":"uint8","internalType":"enum Types.LockMultiplier"},{"name":"expiryBlock","type":"uint64","internalType":"uint64"}]}],"stateMutability":"view"},{"type":"function","name":"getOperatorBlueprints","inputs":[{"name":"operator","type":"address","internalType":"address"}],"outputs":[{"name":"","type":"uint256[]","internalType":"uint256[]"}],"stateMutability":"view"},{"type":"function","name":"getOperatorDelegatedStake","inputs":[{"name":"operator","type":"address","internalType":"address"}],"outputs":[{"name":"","type":"uint256","internalType":"uint256"}],"stateMutability":"view"},{"type":"function","name":"getOperatorDelegatorCount","inputs":[{"name":"operator","type":"address","internalType":"address"}],"outputs":[{"name":"","type":"uint256","internalType":"uint256"}],"stateMutability":"view"},{"type":"function","name":"getOperatorDelegators","inputs":[{"name":"operator","type":"address","internalType":"address"}],"outputs":[{"name":"","type":"address[]","internalType":"address[]"}],"stateMutability":"view"},{"type":"function","name":"getOperatorMetadata","inputs":[{"name":"operator","type":"address","internalType":"address"}],"outputs":[{"name":"","type":"tuple","internalType":"struct Types.OperatorMetadata","components":[{"name":"stake","type":"uint256","internalType":"uint256"},{"name":"delegationCount","type":"uint32","internalType":"uint32"},{"name":"status","type":"uint8","internalType":"enum Types.OperatorStatus"},{"name":"leavingRound","type":"uint64","internalType":"uint64"}]}],"stateMutability":"view"},{"type":"function","name":"getOperatorRewardPool","inputs":[{"name":"operator","type":"address","internalType":"address"}],"outputs":[{"name":"","type":"tuple","internalType":"struct Types.OperatorRewardPool","components":[{"name":"accRewardPerShare","type":"uint256","internalType":"uint256"},{"name":"totalShares","type":"uint256","internalType":"uint256"},{"name":"totalAssets","type":"uint256","internalType":"uint256"},{"name":"lastUpdateRound","type":"uint64","internalType":"uint64"}]}],"stateMutability":"view"},{"type":"function","name":"getOperatorSelfStake","inputs":[{"name":"operator","type":"address","internalType":"address"}],"outputs":[{"name":"","type":"uint256","internalType":"uint256"}],"stateMutability":"view"},{"type":"function","name":"getOperatorStake","inputs":[{"name":"operator","type":"address","internalType":"address"}],"outputs":[{"name":"","type":"uint256","internalType":"uint256"}],"stateMutability":"view"},{"type":"function","name":"getPendingDelegatorRewards","inputs":[{"name":"delegator","type":"address","internalType":"address"}],"outputs":[{"name":"","type":"uint256","internalType":"uint256"}],"stateMutability":"view"},{"type":"function","name":"getPendingOperatorRewards","inputs":[{"name":"operator","type":"address","internalType":"address"}],"outputs":[{"name":"","type":"uint256","internalType":"uint256"}],"stateMutability":"view"},{"type":"function","name":"getPendingUnstakes","inputs":[{"name":"delegator","type":"address","internalType":"address"}],"outputs":[{"name":"","type":"tuple[]","internalType":"struct Types.BondLessRequest[]","components":[{"name":"operator","type":"address","internalType":"address"},{"name":"asset","type":"tuple","internalType":"struct Types.Asset","components":[{"name":"kind","type":"uint8","internalType":"enum Types.AssetKind"},{"name":"token","type":"address","internalType":"address"}]},{"name":"shares","type":"uint256","internalType":"uint256"},{"name":"requestedRound","type":"uint64","internalType":"uint64"},{"name":"selectionMode","type":"uint8","internalType":"enum Types.BlueprintSelectionMode"}]}],"stateMutability":"view"},{"type":"function","name":"getPendingWithdrawals","inputs":[{"name":"delegator","type":"address","internalType":"address"}],"outputs":[{"name":"","type":"tuple[]","internalType":"struct Types.WithdrawRequest[]","components":[{"name":"asset","type":"tuple","internalType":"struct Types.Asset","components":[{"name":"kind","type":"uint8","internalType":"enum Types.AssetKind"},{"name":"token","type":"address","internalType":"address"}]},{"name":"amount","type":"uint256","internalType":"uint256"},{"name":"requestedRound","type":"uint64","internalType":"uint64"}]}],"stateMutability":"view"},{"type":"function","name":"getRoleAdmin","inputs":[{"name":"role","type":"bytes32","internalType":"bytes32"}],"outputs":[{"name":"","type":"bytes32","internalType":"bytes32"}],"stateMutability":"view"},{"type":"function","name":"getSlashCount","inputs":[{"name":"operator","type":"address","internalType":"address"}],"outputs":[{"name":"","type":"uint64","internalType":"uint64"}],"stateMutability":"view"},{"type":"function","name":"getSlashImpact","inputs":[{"name":"operator","type":"address","internalType":"address"},{"name":"slashId","type":"uint64","internalType":"uint64"},{"name":"delegator","type":"address","internalType":"address"}],"outputs":[{"name":"lostAmount","type":"uint256","internalType":"uint256"}],"stateMutability":"view"},{"type":"function","name":"getSlashRecord","inputs":[{"name":"operator","type":"address","internalType":"address"},{"name":"slashId","type":"uint64","internalType":"uint64"}],"outputs":[{"name":"","type":"tuple","internalType":"struct SlashingManager.SlashRecord","components":[{"name":"round","type":"uint64","internalType":"uint64"},{"name":"totalSlashed","type":"uint256","internalType":"uint256"},{"name":"exchangeRateBefore","type":"uint256","internalType":"uint256"},{"name":"exchangeRateAfter","type":"uint256","internalType":"uint256"},{"name":"evidence","type":"bytes32","internalType":"bytes32"}]}],"stateMutability":"view"},{"type":"function","name":"getSnapshot","inputs":[{"name":"round","type":"uint64","internalType":"uint64"},{"name":"operator","type":"address","internalType":"address"}],"outputs":[{"name":"","type":"tuple","internalType":"struct Types.OperatorSnapshot","components":[{"name":"stake","type":"uint256","internalType":"uint256"},{"name":"totalDelegated","type":"uint256","internalType":"uint256"}]}],"stateMutability":"view"},{"type":"function","name":"getTotalDelegation","inputs":[{"name":"delegator","type":"address","internalType":"address"}],"outputs":[{"name":"total","type":"uint256","internalType":"uint256"}],"stateMutability":"view"},{"type":"function","name":"grantRole","inputs":[{"name":"role","type":"bytes32","internalType":"bytes32"},{"name":"account","type":"address","internalType":"address"}],"outputs":[],"stateMutability":"nonpayable"},{"type":"function","name":"hasRole","inputs":[{"name":"role","type":"bytes32","internalType":"bytes32"},{"name":"account","type":"address","internalType":"address"}],"outputs":[{"name":"","type":"bool","internalType":"bool"}],"stateMutability":"view"},{"type":"function","name":"increaseStake","inputs":[],"outputs":[],"stateMutability":"payable"},{"type":"function","name":"initialize","inputs":[{"name":"admin","type":"address","internalType":"address"},{"name":"nativeMinOperatorStake","type":"uint256","internalType":"uint256"},{"name":"nativeMinDelegation","type":"uint256","internalType":"uint256"},{"name":"_operatorCommissionBps","type":"uint16","internalType":"uint16"}],"outputs":[],"stateMutability":"nonpayable"},{"type":"function","name":"isOperator","inputs":[{"name":"operator","type":"address","internalType":"address"}],"outputs":[{"name":"","type":"bool","internalType":"bool"}],"stateMutability":"view"},{"type":"function","name":"isOperatorActive","inputs":[{"name":"operator","type":"address","internalType":"address"}],"outputs":[{"name":"","type":"bool","internalType":"bool"}],"stateMutability":"view"},{"type":"function","name":"isSlasher","inputs":[{"name":"account","type":"address","internalType":"address"}],"outputs":[{"name":"","type":"bool","internalType":"bool"}],"stateMutability":"view"},{"type":"function","name":"leaveDelegatorsDelay","inputs":[],"outputs":[{"name":"","type":"uint64","internalType":"uint64"}],"stateMutability":"view"},{"type":"function","name":"leaveOperatorsDelay","inputs":[],"outputs":[{"name":"","type":"uint64","internalType":"uint64"}],"stateMutability":"view"},{"type":"function","name":"meetsStakeRequirement","inputs":[{"name":"operator","type":"address","internalType":"address"},{"name":"required","type":"uint256","internalType":"uint256"}],"outputs":[{"name":"","type":"bool","internalType":"bool"}],"stateMutability":"view"},{"type":"function","name":"minOperatorStake","inputs":[],"outputs":[{"name":"","type":"uint256","internalType":"uint256"}],"stateMutability":"view"},{"type":"function","name":"nativeEnabled","inputs":[],"outputs":[{"name":"","type":"bool","internalType":"bool"}],"stateMutability":"view"},{"type":"function","name":"nextSlashId","inputs":[{"name":"","type":"address","internalType":"address"}],"outputs":[{"name":"","type":"uint64","internalType":"uint64"}],"stateMutability":"view"},{"type":"function","name":"notifyReward","inputs":[{"name":"operator","type":"address","internalType":"address"},{"name":"serviceId","type":"uint64","internalType":"uint64"},{"name":"amount","type":"uint256","internalType":"uint256"}],"outputs":[],"stateMutability":"nonpayable"},{"type":"function","name":"notifyRewardForBlueprint","inputs":[{"name":"operator","type":"address","internalType":"address"},{"name":"blueprintId","type":"uint64","internalType":"uint64"},{"name":"serviceId","type":"uint64","internalType":"uint64"},{"name":"amount","type":"uint256","internalType":"uint256"}],"outputs":[],"stateMutability":"nonpayable"},{"type":"function","name":"operatorAt","inputs":[{"name":"index","type":"uint256","internalType":"uint256"}],"outputs":[{"name":"","type":"address","internalType":"address"}],"stateMutability":"view"},{"type":"function","name":"operatorCommissionBps","inputs":[],"outputs":[{"name":"","type":"uint16","internalType":"uint16"}],"stateMutability":"view"},{"type":"function","name":"operatorCount","inputs":[],"outputs":[{"name":"","type":"uint256","internalType":"uint256"}],"stateMutability":"view"},{"type":"function","name":"pause","inputs":[],"outputs":[],"stateMutability":"nonpayable"},{"type":"function","name":"paused","inputs":[],"outputs":[{"name":"","type":"bool","internalType":"bool"}],"stateMutability":"view"},{"type":"function","name":"proxiableUUID","inputs":[],"outputs":[{"name":"","type":"bytes32","internalType":"bytes32"}],"stateMutability":"view"},{"type":"function","name":"registerOperator","inputs":[],"outputs":[],"stateMutability":"payable"},{"type":"function","name":"registerOperatorWithAsset","inputs":[{"name":"token","type":"address","internalType":"address"},{"name":"amount","type":"uint256","internalType":"uint256"}],"outputs":[],"stateMutability":"nonpayable"},{"type":"function","name":"removeBlueprint","inputs":[{"name":"blueprintId","type":"uint64","internalType":"uint64"}],"outputs":[],"stateMutability":"nonpayable"},{"type":"function","name":"removeBlueprintFromDelegation","inputs":[{"name":"delegationIndex","type":"uint256","internalType":"uint256"},{"name":"blueprintId","type":"uint64","internalType":"uint64"}],"outputs":[],"stateMutability":"nonpayable"},{"type":"function","name":"removeSlasher","inputs":[{"name":"slasher","type":"address","internalType":"address"}],"outputs":[],"stateMutability":"nonpayable"},{"type":"function","name":"renounceRole","inputs":[{"name":"role","type":"bytes32","internalType":"bytes32"},{"name":"callerConfirmation","type":"address","internalType":"address"}],"outputs":[],"stateMutability":"nonpayable"},{"type":"function","name":"revokeRole","inputs":[{"name":"role","type":"bytes32","internalType":"bytes32"},{"name":"account","type":"address","internalType":"address"}],"outputs":[],"stateMutability":"nonpayable"},{"type":"function","name":"rewardsManager","inputs":[],"outputs":[{"name":"","type":"address","internalType":"address"}],"stateMutability":"view"},{"type":"function","name":"roundDuration","inputs":[],"outputs":[{"name":"","type":"uint64","internalType":"uint64"}],"stateMutability":"view"},{"type":"function","name":"scheduleDelegatorUnstake","inputs":[{"name":"operator","type":"address","internalType":"address"},{"name":"token","type":"address","internalType":"address"},{"name":"amount","type":"uint256","internalType":"uint256"}],"outputs":[],"stateMutability":"nonpayable"},{"type":"function","name":"scheduleOperatorUnstake","inputs":[{"name":"amount","type":"uint256","internalType":"uint256"}],"outputs":[],"stateMutability":"nonpayable"},{"type":"function","name":"scheduleWithdraw","inputs":[{"name":"token","type":"address","internalType":"address"},{"name":"amount","type":"uint256","internalType":"uint256"}],"outputs":[],"stateMutability":"nonpayable"},{"type":"function","name":"setDelays","inputs":[{"name":"_delegationBondLessDelay","type":"uint64","internalType":"uint64"},{"name":"_leaveDelegatorsDelay","type":"uint64","internalType":"uint64"},{"name":"_leaveOperatorsDelay","type":"uint64","internalType":"uint64"}],"outputs":[],"stateMutability":"nonpayable"},{"type":"function","name":"setOperatorCommission","inputs":[{"name":"bps","type":"uint16","internalType":"uint16"}],"outputs":[],"stateMutability":"nonpayable"},{"type":"function","name":"setRewardsManager","inputs":[{"name":"manager","type":"address","internalType":"address"}],"outputs":[],"stateMutability":"nonpayable"},{"type":"function","name":"slash","inputs":[{"name":"operator","type":"address","internalType":"address"},{"name":"serviceId","type":"uint64","internalType":"uint64"},{"name":"amount","type":"uint256","internalType":"uint256"},{"name":"evidence","type":"bytes32","internalType":"bytes32"}],"outputs":[{"name":"actualSlashed","type":"uint256","internalType":"uint256"}],"stateMutability":"nonpayable"},{"type":"function","name":"slashForBlueprint","inputs":[{"name":"operator","type":"address","internalType":"address"},{"name":"blueprintId","type":"uint64","internalType":"uint64"},{"name":"serviceId","type":"uint64","internalType":"uint64"},{"name":"amount","type":"uint256","internalType":"uint256"},{"name":"evidence","type":"bytes32","internalType":"bytes32"}],"outputs":[{"name":"actualSlashed","type":"uint256","internalType":"uint256"}],"stateMutability":"nonpayable"},{"type":"function","name":"slashHistory","inputs":[{"name":"","type":"address","internalType":"address"},{"name":"","type":"uint64","internalType":"uint64"}],"outputs":[{"name":"round","type":"uint64","internalType":"uint64"},{"name":"totalSlashed","type":"uint256","internalType":"uint256"},{"name":"exchangeRateBefore","type":"uint256","internalType":"uint256"},{"name":"exchangeRateAfter","type":"uint256","internalType":"uint256"},{"name":"evidence","type":"bytes32","internalType":"bytes32"}],"stateMutability":"view"},{"type":"function","name":"snapshotOperator","inputs":[{"name":"operator","type":"address","internalType":"address"}],"outputs":[],"stateMutability":"nonpayable"},{"type":"function","name":"startLeaving","inputs":[],"outputs":[],"stateMutability":"nonpayable"},{"type":"function","name":"supportsInterface","inputs":[{"name":"interfaceId","type":"bytes4","internalType":"bytes4"}],"outputs":[{"name":"","type":"bool","internalType":"bool"}],"stateMutability":"view"},{"type":"function","name":"undelegate","inputs":[{"name":"operator","type":"address","internalType":"address"},{"name":"amount","type":"uint256","internalType":"uint256"}],"outputs":[],"stateMutability":"nonpayable"},{"type":"function","name":"unpause","inputs":[],"outputs":[],"stateMutability":"nonpayable"},{"type":"function","name":"upgradeToAndCall","inputs":[{"name":"newImplementation","type":"address","internalType":"address"},{"name":"data","type":"bytes","internalType":"bytes"}],"outputs":[],"stateMutability":"payable"},{"type":"event","name":"AssetDisabled","inputs":[{"name":"token","type":"address","indexed":true,"internalType":"address"}],"anonymous":false},{"type":"event","name":"AssetEnabled","inputs":[{"name":"token","type":"address","indexed":true,"internalType":"address"},{"name":"minOperatorStake","type":"uint256","indexed":false,"internalType":"uint256"},{"name":"minDelegation","type":"uint256","indexed":false,"internalType":"uint256"}],"anonymous":false},{"type":"event","name":"BlueprintAddedToDelegation","inputs":[{"name":"delegator","type":"address","indexed":true,"internalType":"address"},{"name":"delegationIndex","type":"uint256","indexed":true,"internalType":"uint256"},{"name":"blueprintId","type":"uint64","indexed":false,"internalType":"uint64"}],"anonymous":false},{"type":"event","name":"BlueprintRemovedFromDelegation","inputs":[{"name":"delegator","type":"address","indexed":true,"internalType":"address"},{"name":"delegationIndex","type":"uint256","indexed":true,"internalType":"uint256"},{"name":"blueprintId","type":"uint64","indexed":false,"internalType":"uint64"}],"anonymous":false},{"type":"event","name":"Delegated","inputs":[{"name":"delegator","type":"address","indexed":true,"internalType":"address"},{"name":"operator","type":"address","indexed":true,"internalType":"address"},{"name":"token","type":"address","indexed":true,"internalType":"address"},{"name":"amount","type":"uint256","indexed":false,"internalType":"uint256"},{"name":"shares","type":"uint256","indexed":false,"internalType":"uint256"},{"name":"selectionMode","type":"uint8","indexed":false,"internalType":"enum Types.BlueprintSelectionMode"}],"anonymous":false},{"type":"event","name":"DelegatorUnstakeExecuted","inputs":[{"name":"delegator","type":"address","indexed":true,"internalType":"address"},{"name":"operator","type":"address","indexed":true,"internalType":"address"},{"name":"token","type":"address","indexed":true,"internalType":"address"},{"name":"shares","type":"uint256","indexed":false,"internalType":"uint256"},{"name":"amount","type":"uint256","indexed":false,"internalType":"uint256"}],"anonymous":false},{"type":"event","name":"DelegatorUnstakeScheduled","inputs":[{"name":"delegator","type":"address","indexed":true,"internalType":"address"},{"name":"operator","type":"address","indexed":true,"internalType":"address"},{"name":"token","type":"address","indexed":true,"internalType":"address"},{"name":"shares","type":"uint256","indexed":false,"internalType":"uint256"},{"name":"estimatedAmount","type":"uint256","indexed":false,"internalType":"uint256"},{"name":"readyRound","type":"uint64","indexed":false,"internalType":"uint64"}],"anonymous":false},{"type":"event","name":"Deposited","inputs":[{"name":"delegator","type":"address","indexed":true,"internalType":"address"},{"name":"token","type":"address","indexed":true,"internalType":"address"},{"name":"amount","type":"uint256","indexed":false,"internalType":"uint256"},{"name":"lock","type":"uint8","indexed":false,"internalType":"enum Types.LockMultiplier"}],"anonymous":false},{"type":"event","name":"Initialized","inputs":[{"name":"version","type":"uint64","indexed":false,"internalType":"uint64"}],"anonymous":false},{"type":"event","name":"OperatorBlueprintAdded","inputs":[{"name":"operator","type":"address","indexed":true,"internalType":"address"},{"name":"blueprintId","type":"uint64","indexed":true,"internalType":"uint64"}],"anonymous":false},{"type":"event","name":"OperatorBlueprintRemoved","inputs":[{"name":"operator","type":"address","indexed":true,"internalType":"address"},{"name":"blueprintId","type":"uint64","indexed":true,"internalType":"uint64"}],"anonymous":false},{"type":"event","name":"OperatorLeavingScheduled","inputs":[{"name":"operator","type":"address","indexed":true,"internalType":"address"},{"name":"readyRound","type":"uint64","indexed":false,"internalType":"uint64"}],"anonymous":false},{"type":"event","name":"OperatorLeft","inputs":[{"name":"operator","type":"address","indexed":true,"internalType":"address"}],"anonymous":false},{"type":"event","name":"OperatorRegistered","inputs":[{"name":"operator","type":"address","indexed":true,"internalType":"address"},{"name":"stake","type":"uint256","indexed":false,"internalType":"uint256"}],"anonymous":false},{"type":"event","name":"OperatorSlashed","inputs":[{"name":"operator","type":"address","indexed":true,"internalType":"address"},{"name":"serviceId","type":"uint64","indexed":true,"internalType":"uint64"},{"name":"amount","type":"uint256","indexed":false,"internalType":"uint256"},{"name":"evidence","type":"bytes32","indexed":false,"internalType":"bytes32"}],"anonymous":false},{"type":"event","name":"OperatorStakeIncreased","inputs":[{"name":"operator","type":"address","indexed":true,"internalType":"address"},{"name":"amount","type":"uint256","indexed":false,"internalType":"uint256"}],"anonymous":false},{"type":"event","name":"OperatorUnstakeExecuted","inputs":[{"name":"operator","type":"address","indexed":true,"internalType":"address"},{"name":"amount","type":"uint256","indexed":false,"internalType":"uint256"}],"anonymous":false},{"type":"event","name":"OperatorUnstakeScheduled","inputs":[{"name":"operator","type":"address","indexed":true,"internalType":"address"},{"name":"amount","type":"uint256","indexed":false,"internalType":"uint256"},{"name":"readyRound","type":"uint64","indexed":false,"internalType":"uint64"}],"anonymous":false},{"type":"event","name":"Paused","inputs":[{"name":"account","type":"address","indexed":false,"internalType":"address"}],"anonymous":false},{"type":"event","name":"RewardClaimed","inputs":[{"name":"account","type":"address","indexed":true,"internalType":"address"},{"name":"amount","type":"uint256","indexed":false,"internalType":"uint256"}],"anonymous":false},{"type":"event","name":"RewardDistributed","inputs":[{"name":"operator","type":"address","indexed":true,"internalType":"address"},{"name":"amount","type":"uint256","indexed":false,"internalType":"uint256"}],"anonymous":false},{"type":"event","name":"RoleAdminChanged","inputs":[{"name":"role","type":"bytes32","indexed":true,"internalType":"bytes32"},{"name":"previousAdminRole","type":"bytes32","indexed":true,"internalType":"bytes32"},{"name":"newAdminRole","type":"bytes32","indexed":true,"internalType":"bytes32"}],"anonymous":false},{"type":"event","name":"RoleGranted","inputs":[{"name":"role","type":"bytes32","indexed":true,"internalType":"bytes32"},{"name":"account","type":"address","indexed":true,"internalType":"address"},{"name":"sender","type":"address","indexed":true,"internalType":"address"}],"anonymous":false},{"type":"event","name":"RoleRevoked","inputs":[{"name":"role","type":"bytes32","indexed":true,"internalType":"bytes32"},{"name":"account","type":"address","indexed":true,"internalType":"address"},{"name":"sender","type":"address","indexed":true,"internalType":"address"}],"anonymous":false},{"type":"event","name":"RoundAdvanced","inputs":[{"name":"round","type":"uint64","indexed":true,"internalType":"uint64"}],"anonymous":false},{"type":"event","name":"SlashRecorded","inputs":[{"name":"operator","type":"address","indexed":true,"internalType":"address"},{"name":"slashId","type":"uint64","indexed":true,"internalType":"uint64"},{"name":"totalSlashed","type":"uint256","indexed":false,"internalType":"uint256"},{"name":"exchangeRateBefore","type":"uint256","indexed":false,"internalType":"uint256"},{"name":"exchangeRateAfter","type":"uint256","indexed":false,"internalType":"uint256"}],"anonymous":false},{"type":"event","name":"Slashed","inputs":[{"name":"operator","type":"address","indexed":true,"internalType":"address"},{"name":"serviceId","type":"uint64","indexed":true,"internalType":"uint64"},{"name":"operatorSlashed","type":"uint256","indexed":false,"internalType":"uint256"},{"name":"delegatorsSlashed","type":"uint256","indexed":false,"internalType":"uint256"},{"name":"newExchangeRate","type":"uint256","indexed":false,"internalType":"uint256"}],"anonymous":false},{"type":"event","name":"Unpaused","inputs":[{"name":"account","type":"address","indexed":false,"internalType":"address"}],"anonymous":false},{"type":"event","name":"Upgraded","inputs":[{"name":"implementation","type":"address","indexed":true,"internalType":"address"}],"anonymous":false},{"type":"event","name":"WithdrawScheduled","inputs":[{"name":"delegator","type":"address","indexed":true,"internalType":"address"},{"name":"token","type":"address","indexed":true,"internalType":"address"},{"name":"amount","type":"uint256","indexed":false,"internalType":"uint256"},{"name":"readyRound","type":"uint64","indexed":false,"internalType":"uint64"}],"anonymous":false},{"type":"event","name":"Withdrawn","inputs":[{"name":"delegator","type":"address","indexed":true,"internalType":"address"},{"name":"token","type":"address","indexed":true,"internalType":"address"},{"name":"amount","type":"uint256","indexed":false,"internalType":"uint256"}],"anonymous":false},{"type":"error","name":"AccessControlBadConfirmation","inputs":[]},{"type":"error","name":"AccessControlUnauthorizedAccount","inputs":[{"name":"account","type":"address","internalType":"address"},{"name":"neededRole","type":"bytes32","internalType":"bytes32"}]},{"type":"error","name":"AddressEmptyCode","inputs":[{"name":"target","type":"address","internalType":"address"}]},{"type":"error","name":"AmountLocked","inputs":[{"name":"locked","type":"uint256","internalType":"uint256"},{"name":"requested","type":"uint256","internalType":"uint256"}]},{"type":"error","name":"AssetNotEnabled","inputs":[{"name":"asset","type":"address","internalType":"address"}]},{"type":"error","name":"BelowMinimumDeposit","inputs":[{"name":"minimum","type":"uint256","internalType":"uint256"},{"name":"provided","type":"uint256","internalType":"uint256"}]},{"type":"error","name":"BlueprintAlreadySelected","inputs":[{"name":"blueprintId","type":"uint64","internalType":"uint64"}]},{"type":"error","name":"BlueprintNotSelected","inputs":[{"name":"blueprintId","type":"uint64","internalType":"uint64"}]},{"type":"error","name":"CannotRemoveLastBlueprint","inputs":[]},{"type":"error","name":"DelegationNotFound","inputs":[{"name":"delegator","type":"address","internalType":"address"},{"name":"operator","type":"address","internalType":"address"}]},{"type":"error","name":"DepositCapExceeded","inputs":[{"name":"cap","type":"uint256","internalType":"uint256"},{"name":"current","type":"uint256","internalType":"uint256"},{"name":"adding","type":"uint256","internalType":"uint256"}]},{"type":"error","name":"ERC1967InvalidImplementation","inputs":[{"name":"implementation","type":"address","internalType":"address"}]},{"type":"error","name":"ERC1967NonPayable","inputs":[]},{"type":"error","name":"EnforcedPause","inputs":[]},{"type":"error","name":"ExpectedPause","inputs":[]},{"type":"error","name":"FailedCall","inputs":[]},{"type":"error","name":"InsufficientAvailableBalance","inputs":[{"name":"available","type":"uint256","internalType":"uint256"},{"name":"requested","type":"uint256","internalType":"uint256"}]},{"type":"error","name":"InsufficientDelegation","inputs":[{"name":"available","type":"uint256","internalType":"uint256"},{"name":"requested","type":"uint256","internalType":"uint256"}]},{"type":"error","name":"InsufficientDeposit","inputs":[{"name":"available","type":"uint256","internalType":"uint256"},{"name":"requested","type":"uint256","internalType":"uint256"}]},{"type":"error","name":"InsufficientStake","inputs":[{"name":"required","type":"uint256","internalType":"uint256"},{"name":"provided","type":"uint256","internalType":"uint256"}]},{"type":"error","name":"InvalidDelegationIndex","inputs":[{"name":"index","type":"uint256","internalType":"uint256"}]},{"type":"error","name":"InvalidInitialization","inputs":[]},{"type":"error","name":"InvalidLockMultiplier","inputs":[{"name":"value","type":"uint8","internalType":"uint8"}]},{"type":"error","name":"LeavingTooEarly","inputs":[{"name":"currentRound","type":"uint64","internalType":"uint64"},{"name":"requiredRound","type":"uint64","internalType":"uint64"}]},{"type":"error","name":"LegacySlashRequiresAllMode","inputs":[{"name":"operator","type":"address","internalType":"address"}]},{"type":"error","name":"NoRewardsToClaim","inputs":[]},{"type":"error","name":"NotFixedMode","inputs":[]},{"type":"error","name":"NotInitializing","inputs":[]},{"type":"error","name":"OperatorAlreadyRegistered","inputs":[{"name":"operator","type":"address","internalType":"address"}]},{"type":"error","name":"OperatorNotActive","inputs":[{"name":"operator","type":"address","internalType":"address"}]},{"type":"error","name":"OperatorNotLeaving","inputs":[{"name":"operator","type":"address","internalType":"address"}]},{"type":"error","name":"OperatorNotRegistered","inputs":[{"name":"operator","type":"address","internalType":"address"}]},{"type":"error","name":"ReentrancyGuardReentrantCall","inputs":[]},{"type":"error","name":"SafeERC20FailedOperation","inputs":[{"name":"token","type":"address","internalType":"address"}]},{"type":"error","name":"TransferFailed","inputs":[]},{"type":"error","name":"UUPSUnauthorizedCallContext","inputs":[]},{"type":"error","name":"UUPSUnsupportedProxiableUUID","inputs":[{"name":"slot","type":"bytes32","internalType":"bytes32"}]},{"type":"error","name":"ZeroAddress","inputs":[]},{"type":"error","name":"ZeroAmount","inputs":[]}],"bytecode":{"object":"0x60a080604052346100e857306080527ff0c57e16840df040f15088dc2f81fe391c3923bec73e23a9662efc9c229c6a005460ff8160401c166100d9576002600160401b03196001600160401b03821601610073575b6040516187da90816100ed8239608051818181612f98015261308e0152f35b6001600160401b0319166001600160401b039081177ff0c57e16840df040f15088dc2f81fe391c3923bec73e23a9662efc9c229c6a005581527fc7f505b2f371ae2175ee4913f4499e1f2633a7b5936321eed1cdaeb6115181d290602090a15f80610054565b63f92ee8a960e01b5f5260045ffd5b5f80fdfe6080604052600436101561001a575b3615610018575f80fd5b005b5f3560e01c80627910d014614d6957806301ffc9a714614d13578063026e402b14614cde57806303587c1d14614c435780630378021114614bc85780630a8ddc5e14614b855780630aa8b11014614afd5780630c8833ce1461498957806315049a5a14614835578063168f68651461464957806318056dc21461462d5780631ba9998b146145d257806323cc27001461425a578063248a9ca31461423c578063261423351461420357806328e70ecc146141a25780632acde098146140725780632ee663b814613faf5780632f2ff15d14613f7e57806330224fc814613f4657806331cc13ba14613e0f57806332273f6114613deb578063354ebef914613c93578063356924ea14613c5757806336568abe14613c135780633dcad9db14613a505780633f4ba83a146139d257806344aff2521461388e57806344d1480b146135fe578063453eccea146135e2578063461cc23b146135ac578063486398c3146135745780634962f88f146113fa5780634c4ede2d146135535780634d99dd16146132425780634de8addc1461321c5780634f1ef286146130135780635095af6414612fec57806352d1902d14612f8657806354de232014612f6a5780635722d51214612e0e57806357601c5d14612dc05780635c975abb14612d9257806366c36875146123e257806368a9f19c14612d695780636d70f7ae14612d275780636ec3ab6714612c155780637080752814612b7557806375b238fc14612b3b57806377ab2cf314612b195780637b9996c51461298d5780637c6f3158146129705780637d6941c61461293b5780637df92ada1461291e5780638456cb59146128ad578063859caa1814612635578063877035501461255d5780638a19c8bc146125385780638c5b4ae7146124fd5780638d795d50146124b957806391d14854146124645780639494f4261461242357806396085673146123e257806397feb926146123ad5780639e87058514612390578063a217fddf14612376578063a299e29814612289578063a3b9c5c214612175578063a457af3d14612099578063a4b32de81461205f578063a7fa6f9814612043578063aac6aa9c1461201a578063aaf5eb6814611ff8578063ad3cb1cc14611f9a578063b0dfce0614611f66578063ba05bbf514611f3e578063c07449e214611ee2578063c35082a914611e18578063c735302514611d94578063cadd550c14611cc4578063cb15038b14611c4f578063cbb6d6bd146119a9578063d0e30db014611986578063d1736ba71461185d578063d27a6f0614611840578063d547741f1461180a578063d673e0b9146117d2578063d775cb611461178c578063d9e257ef146116e8578063db8a173a146116c9578063dc972ccc14611615578063defe2053146115ed578063e0a5825b14611416578063e1a45218146113fa578063e1ee4bcc14611164578063e4e88de814611114578063eb4735331461108e578063f340c0d014610f7c578063f38c7c4e14610f34578063f3c4d8a014610eb1578063f3c9b31114610e94578063f46913bb14610e57578063f7cb789a14610e2f578063f8fd9795146109ef578063fbec4861146109a4578063fc5e7e091461091f578063fc8a91af146105105763fd7d3dbc0361000e573461050c576104f96104f36104d53661575a565b6104e496929596949394615aff565b6104ec615a18565b3691615990565b93616e5e565b60015f8051602061878e83398151915255005b5f80fd5b3461050c57606036600319011261050c576105296155f1565b610531615607565b906044359161053e615aff565b8215610910576001600160a01b031691826108f45760405161055f816156b2565b5f81525f6020820152925b6105738461652b565b6001600160a01b0384165f81815260156020526040902060028101549196929190811580156108e8575b156108a257505083905b5f955f5b335f52601060205260405f205481101561089657335f5260106020526105d48160405f206159eb565b5080546001600160a01b03168a148061087f575b6105f557506001016105ab565b93949596975050905f90335f52601260205260405f205f918154925b83811061080b575050505061062a906001840154615827565b908382106107eb575050335f52601260205260405f209060ff60036001600160401b035f5416920154166040519261066184615703565b8884526020840195865260408401908582526060850193845260808501926106888161566c565b83528054600160401b8110156107d7576106a7916001820181556159eb565b9490946107c4575184546001600160a01b0319166001600160a01b0391909116178455945180518996610750956001600160401b039384936003939161072691600185019190610700906106fa8161566c565b83615ac4565b602001518154610100600160a81b03191660089190911b610100600160a81b0316179055565b51600282015501935116166001600160401b0319835416178255519061074b8261566c565b615adc565b6001600160401b0360019461076e5f5483808260801c169116615a50565b9060405193845260208401521660408201527f06325d83435da87657b063c6142a5b91a66a7e811827d082d624287a9953c4ba60603392a45b156107ae57005b6309078cff60e21b5f523360045260245260445ffd5b634e487b7160e01b5f525f60045260245ffd5b634e487b7160e01b5f52604160045260245ffd5b86916107f6916174e6565b6388c4fe8f60e01b5f5260045260245260445ffd5b8b61081682856159eb565b50546001600160a01b03161480610859575b610835575b600101610611565b93610851600191600261084888876159eb565b5001549061596c565b94905061082d565b5081610879610874600161086d85886159eb565b5001615a7e565b61652b565b14610828565b508361089061087460028401615a7e565b146105e8565b505050505050506107a7565b816108b460016108b993015488615834565b61596c565b5f198101919082116108d4576108ce91615847565b906105a7565b634e487b7160e01b5f52601160045260245ffd5b5060018101541561059d565b604051610900816156b2565b600181528360208201529261056a565b631f2a200560e01b5f5260045ffd5b3461050c57602036600319011261050c576109386155f1565b5f906001600160a01b0316815b815f52601060205260405f205483101561099957610991600191835f52601060205261098b6109778660405f206159eb565b5084808060a01b03825416910154906174e6565b9061596c565b920191610945565b602090604051908152f35b6104f96104f36109b33661575a565b6109c296929596949394615aff565b6109ca615a18565b6001600160a01b0384166109e0576104ec616964565b6109ea8585616d0b565b6104ec565b3461050c575f36600319011261050c57610a07615a18565b5f335f52600f60205260405f20905f90825492610a2384615979565b610a30604051918261571e565b848152601f19610a3f86615979565b01366020830137610a4f85615979565b94610a5d604051968761571e565b808652601f19610a6c82615979565b015f5b818110610e0c575050610a8181615979565b93610a8f604051958661571e565b818552601f19610a9e83615979565b013660208701375f8054906001600160401b0382169160c01c905b8987868310610d6457898b918983610c0e575b50505f5b828110610aea5760015f8051602061878e83398151915255005b610af48185615ab0565b51610aff8284615ab0565b51908051610b0c8161566c565b610b158161566c565b610bc557505f80808093335af1610b2a616935565b5015610b87576001905b818060a01b036020610b468388615ab0565b51015116610b548285615ab0565b516040519081527fd1c19fbcd4551a5edfb66d43d2e337c04837afda3482b42bdf569a8fccdae5fb60203392a301610ad0565b60405162461bcd60e51b815260206004820152601660248201527513985d1a5d99481d1c985b9cd9995c8819985a5b195960521b6044820152606490fd5b60019291610c09916020858060a01b03910151166040519163a9059cbb60e01b6020840152336024840152604483015260448252610c0460648361571e565b6185a6565b610b34565b909192935f945f5b8454811015610d0557610c298185615ab0565b5115610c38575b600101610c16565b95868103610c54575b610c4c600191615a70565b969050610c30565b610c5e8786616e45565b50610c698287616e45565b9290926107c4578282610c4c93600195141580610c8c575b505050915050610c41565b6001600160401b03600281938193610cc5575b8881015489870155015416920191166001600160401b0319825416179055898080610c81565b610cd360ff82541687615ac4565b80548654610100600160a81b031916600891821c60a08c901b8c90031690911b610100600160a81b0316178655610c9f565b5091509193925b845484811115610d57578015610d43575f1901610d298187616e45565b6107c4576002815f80935582600182015501558555610d0c565b634e487b7160e01b5f52603160045260245ffd5b5091935091508380610acc565b610d86846001600160401b036002610d7d878396616e45565b50015416615a50565b16841015610d98575b50600101610ab9565b610dfd8a95610dd8849c610e0394610dc8610dc2888f8f610dbc60019c8d92615ab0565b52616e45565b50615a7e565b610dd28383615ab0565b52615ab0565b5083610de48d8c616e45565b500154610df1888d615ab0565b52836108488d8c616e45565b94615a70565b98905089610d8f565b602090604051610e1b816156b2565b5f81525f8382015282828b01015201610a6f565b3461050c575f36600319011261050c5760206001600160401b035f5460401c16604051908152f35b3461050c57604036600319011261050c576001600160a01b03610e786155f1565b165f526008602052602060243560405f20541015604051908152f35b3461050c575f36600319011261050c5760206040516213c6808152f35b3461050c57602036600319011261050c5760043561ffff811680820361050c5761271090610edd616030565b11610f015761ffff60401b6001549160401b169061ffff60401b1916176001555f80f35b60405162461bcd60e51b815260206004820152600b60248201526a496e76616c69642042505360a81b6044820152606490fd5b602036600319011261050c57600435600581101561050c576104f990610f58615aff565b610f60615a18565b604051610f6c816156b2565b5f81525f60208201523490617b34565b3461050c57602036600319011261050c576001600160a01b03610f9d6155f1565b165f52600f60205260405f20805490610fb582615979565b91610fc3604051938461571e565b8083526020830180925f5260205f205f915b838310611047578486604051918291602083019060208452518091526040830191905f5b818110611007575050500390f35b91935091602060806001926001600160401b0360408851611029848251615676565b85810151828501520151166060820152019401910191849392610ff9565b6003602060019260405161105a816156cd565b61106386615a7e565b815284860154838201526001600160401b036002870154166040820152815201920192019190610fd5565b3461050c57602036600319011261050c576001600160a01b036110af6155f1565b166110c5815f52600760205260405f2054151590565b806110d8575b6020906040519015158152f35b505f52600860205260ff600160405f20015460201c16600381101561110057602090156110cb565b634e487b7160e01b5f52602160045260245ffd5b3461050c57602036600319011261050c57602061115c6001600160a01b0361113a6155f1565b16805f526008835260405f2054905f5260158352600260405f2001549061596c565b604051908152f35b3461050c57604036600319011261050c5761117d6155f1565b60243590611189615aff565b8115610910576001600160a01b031690816113df576040516111aa816156b2565b5f81525f60208201525b6111bd8161652b565b335f52600d60205260405f20815f5260205260405f20908154906111e5600184015483615827565b905f90335f52600e60205260405f20905f5260205260405f205f908054915b828110611393575050508083111561138c57856112218285615827565b10611375575084811061135e57508361123991615827565b9055335f52600f60205260405f206001600160401b035f54169060405192611260846156cd565b83526020830190848252604084019283528054600160401b8110156107d75761128e91600182018155616e45565b9390936107c4576001600160401b03926002926112e18593516112bb81516112b58161566c565b89615ac4565b602001518754610100600160a81b03191660089190911b610100600160a81b0316178755565b5160018601555116920191166001600160401b03198254161790557f91eff7d39d2499d76ac21a1903a95a88f31589cb07b1ffdfb61db9f7cd8a39786113596113385f546001600160401b038160c01c9116615a50565b604080519485526001600160401b0390911660208501523393918291820190565b0390a3005b849063adb9e04360e01b5f5260045260245260445ffd5b8590638ec3321160e01b5f5260045260245260445ffd5b855f611221565b61139d81836179f1565b506001600160401b0360014392015460081c16116113be575b600101611204565b926113d76001916113cf86856179f1565b50549061596c565b9390506113b6565b6040516113eb816156b2565b600181528260208201526111b4565b3461050c575f36600319011261050c5760206040516127108152f35b3461050c57604036600319011261050c5761142f6155f1565b6024359061143b615aff565b611443615a18565b611458335f52600760205260405f2054151590565b6115da576001600160a01b031680156115c75761148960405161147a816156b2565b6001815282602082015261652b565b5f52600260205260405f2060ff815416156115b4576001839101549182821061159d576114ba925030903390617f61565b6114c33361775a565b506040516114d081615697565b818152602081015f8152604082015f815263ffffffff80600160608601955f8752335f52600860205260405f2090518155019351161663ffffffff198354161782555160038110156111005761155e926115326001600160401b0392846161e7565b5182546cffffffffffffffff00000000001916911660281b6cffffffffffffffff000000000016179055565b6040519081527fbc11617e575d658c74e921c8df22f8e48566072fa78145a6cfe18420bf8d0c4e60203392a260015f8051602061878e83398151915255005b50506322df051360e11b5f5260045260245260445ffd5b5063f6f24b8360e01b5f5260045260245ffd5b63f6f24b8360e01b5f525f60045260245ffd5b63866b0dcf60e01b5f523360045260245ffd5b3461050c575f36600319011261050c57601c546040516001600160a01b039091168152602090f35b3461050c57602036600319011261050c576001600160a01b036116366155f1565b165f52600a60205260405f20604051806020835491828152019081935f5260205f20905f5b8181106116b3575050508161167191038261571e565b604051918291602083019060208452518091526040830191905f5b81811061169a575050500390f35b825184528594506020938401939092019160010161168c565b825484526020909301926001928301920161165b565b3461050c575f36600319011261050c5760205f5460c01c604051908152f35b5f36600319011261050c576116fb615aff565b611703615a18565b335f52600860205260405f2060ff600182015460201c166003811015611100576117795734156109105761173834825461596c565b90556040513481527f614a3fa8467eb54cb60af3aab440279837c9fcd75c5a2617fe0af9c6e5e60e8360203392a260015f8051602061878e83398151915255005b6371ab6ad560e11b5f523360045260245ffd5b3461050c575f36600319011261050c576117b96040516117ab816156b2565b5f81525f602082015261652b565b5f5260026020526020600160405f200154604051908152f35b3461050c57602036600319011261050c576001600160a01b036117f36155f1565b165f526008602052602060405f2054604051908152f35b3461050c57604036600319011261050c57610018600435611829615607565b9061183b61183682615809565b616157565b616899565b3461050c575f36600319011261050c5760206040516209e3408152f35b3461050c575f36600319011261050c57611875615a18565b335f52600860205260405f2060018101805460ff8160201c16600381101561110057600203611973576001600160401b03805f54169160281c166001600160401b0360015416906001600160401b036118ce8383615a50565b168310611949576119115f8080808989828254925564010000000064ff00000000198254161790556118ff33617dbb565b50335af161190b616935565b50616d46565b337f120599f8830115ed973189f8f4947cc793fcd90a15d47c4d6ad8d1a3f15af7345f80a260015f8051602061878e83398151915255005b6001600160401b03929161195c91615a50565b90631b04d91d60e21b5f526004521660245260445ffd5b639923c53960e01b5f523360045260245ffd5b5f36600319011261050c57611999615aff565b6119a1615a18565b6104f9616964565b3461050c57608036600319011261050c576119c26155f1565b6064359061ffff8216820361050c575f805160206187ae833981519152549160ff8360401c1615926001600160401b03811680159081611c47575b6001149081611c3d575b159081611c34575b50611c255767ffffffffffffffff1981166001175f805160206187ae83398151915255600792611abc9185611bf9575b50611a48617fa5565b611a50617fa5565b611a58617fa5565b611a60617fa5565b60ff195f8051602061876e83398151915254165f8051602061876e83398151915255611a8a617fa5565b611a92617fa5565b60015f8051602061878e83398151915255611aac81616291565b50611ab681616328565b506163e1565b50611acc6040516117ab816156b2565b61ffff6005604051611add816156e8565b6001815260208101602435815260408201604435815260608301905f825260808401925f845260a085019761271089525f526002602052611b3160405f2095511515869060ff801983541691151516179055565b5160018501555160028401555160038301555160048201550191511661ffff19825416179055600160ff19600554161760055561ffff60401b60015491780700000000000000070000000000001c2000000000000000015f5560401b169069ffffffffffffffffffff19161717600155611ba757005b60ff60401b195f805160206187ae83398151915254165f805160206187ae833981519152557fc7f505b2f371ae2175ee4913f4499e1f2633a7b5936321eed1cdaeb6115181d2602060405160018152a1005b68ffffffffffffffffff191668010000000000000001175f805160206187ae8339815191525585611a3f565b63f92ee8a960e01b5f5260045ffd5b90501585611a0f565b303b159150611a07565b8591506119fd565b3461050c57606036600319011261050c57611c686155f1565b6024359060443590600582101561050c57611c81615aff565b611c89615a18565b6001600160a01b03169182156115c7576104f992611ca982303384617f61565b60405190611cb6826156b2565b600182526020820152617b34565b3461050c57602036600319011261050c576001600160a01b03611ce56155f1565b16805f52600860205260405f2060ff600182015460201c16600381101561110057611d62576001905491805f526015602052600260405f2001549060405193611d2d856156b2565b8452602084019182526001600160401b035f54165f52600c60205260405f20905f5260205260405f2092518355519101555f80f35b60405162461bcd60e51b815260206004820152600a6024820152694e6f742061637469766560b01b6044820152606490fd5b3461050c57602036600319011261050c57611dad61561d565b335f52600860205260ff600160405f20015460201c1660038110156111005761177957335f52600a602052611df06001600160401b0360405f2092168092617810565b50337fb6d5e45d77b8967cff525b375be6e07f99ca5af91d88724ac1237aafe295d50e5f80a3005b3461050c57604036600319011261050c57611e316155f1565b611e39615607565b611e41615936565b50611e4a615936565b506001600160a01b031680611ec65750604051611e66816156b2565b5f81525f6020820152905b6001600160a01b03165f908152600d6020526040902090611e919061652b565b5f52602052611ec2611ea560405f2061594e565b604051918291829190916020806040830194805184520151910152565b0390f35b60405190611ed3826156b2565b60018252602082015290611e71565b3461050c57604036600319011261050c57611efb61561d565b6001600160401b03611f0b615607565b91611f14615936565b50165f52600c60205260405f209060018060a01b03165f52602052611ec2611ea560405f2061594e565b3461050c575f36600319011261050c5760206001600160401b035f5460801c16604051908152f35b3461050c575f36600319011261050c57611f7e615a18565b611f86616d84565b5060015f8051602061878e83398151915255005b3461050c575f36600319011261050c576040805190611fb9818361571e565b600582526020820191640352e302e360dc1b83528151928391602083525180918160208501528484015e5f828201840152601f01601f19168101030190f35b3461050c575f36600319011261050c576020604051670de0b6b3a76400008152f35b3461050c57602036600319011261050c576100186120366155f1565b61203e616030565b616808565b3461050c575f36600319011261050c5760206040516132c88152f35b3461050c575f36600319011261050c5760206040517fb1fadd3142ab2ad7f1337ea4d97112bcc8337fc11ce5b20cb04ad038adf998198152f35b3461050c57604036600319011261050c576120b26155f1565b6120ba615633565b905f60806040516120ca81615703565b828152826020820152826040820152826060820152015260018060a01b03165f52604e6020526001600160401b0360405f2091165f5260205260a060405f2060405161211581615703565b6001600160401b038254169182825260018101546020830190815260028201549060408401918252608060046003850154946060870195865201549401938452604051948552516020850152516040840152516060830152516080820152f35b3461050c57606036600319011261050c5761218e6155f1565b612196615633565b50604435906127106121b161ffff60015460401c1684615834565b04916121e96121c08483615827565b9260018060a01b03811694855f5260176020526121e260405f2091825461596c565b90556179bb565b825f52601560205260405f20906001820191825415155f1461225857670de0b6b3a7640000840293808504670de0b6b3a764000014901517156108d45761224c6122455f805160206186ee833981519152956020955490615847565b825461596c565b90555b604051908152a2005b50602091505f805160206186ee83398151915292845f526017835261228260405f2091825461596c565b905561224f565b3461050c57602036600319011261050c576001600160a01b036122aa6155f1565b16805f52600b60205260405f2054906122c282615979565b916122d0604051938461571e565b8083526122dc81615979565b602084019290601f19013684375f5b82811061233f578385604051918291602083019060208452518091526040830191905f5b81811061231d575050500390f35b82516001600160a01b031684528594506020938401939092019160010161230f565b600190825f52600b6020526123578160405f20617745565b838060a01b0391549060031b1c1661236f8288615ab0565b52016122eb565b3461050c575f36600319011261050c5760206040515f8152f35b3461050c575f36600319011261050c57602060405162034bc08152f35b3461050c57604036600319011261050c576104f96123c96155f1565b6123d1615aff565b6123d9615a18565b60243590616d0b565b3461050c57602036600319011261050c576001600160a01b036124036155f1565b165f52604f60205260206001600160401b0360405f205416604051908152f35b3461050c57606036600319011261050c5761243c6155f1565b612444615633565b906044356001600160a01b038116810361050c5760209261115c92615865565b3461050c57604036600319011261050c5761247d615607565b6004355f525f8051602061874e83398151915260205260405f209060018060a01b03165f52602052602060ff60405f2054166040519015158152f35b3461050c5760a036600319011261050c57602061115c6124d76155f1565b6124df615633565b906124e8615649565b6124f061610e565b6084359260643592616a19565b3461050c57602036600319011261050c576001600160a01b0361251e6155f1565b165f5260156020526020600260405f200154604051908152f35b3461050c575f36600319011261050c5760206001600160401b035f5416604051908152f35b3461050c575f36600319011261050c57335f526008602052600160405f200160ff815460201c16600381101561110057611779576125de9064020000000064ff00000000198254161781556001600160401b035f54166cffffffffffffffff000000000082549160281b16906cffffffffffffffff00000000001916179055565b6125fe6001600160401b035f54166001600160401b036001541690615a50565b6001600160401b03604051911681527ffd47ed8e653fba5e6e9fcaa947419ca2334b3972ce196132ec69708574d6d35a60203392a2005b3461050c57604036600319011261050c57600435612651615633565b612659615aff565b335f52601060205260405f205482101561289a57335f5260106020526126828260405f206159eb565b5090600160ff6003840154166126978161566c565b0361288b57335f52601160205260405f20835f5260205260405f20805492600184111561287c576001600160401b03909216925f1992905f5b818110612849575b50505f19831461283657335f908152601b6020908152604080832084546001600160a01b0316845282528083208784529091528120805491905582545f19810194919085116108d4576127526001600160401b0361274361273c8861277095615847565b97876161a9565b90549060031b1c1692856161a9565b81939154906001600160401b03809160031b9316831b921b19161790565b905581548015610d43575f190161278781846161a9565b6001600160401b0382549160031b1b1916905582555f5b825481101561280657335f908152601b6020908152604080832085546001600160a01b031684529091529020600191906001600160401b03806127e184886161a9565b90549060031b1c16165f5260205260405f206127fe86825461596c565b90550161279e565b85856040519081527fc38cef0d003bc8a9982db0d994b2ea048946028e9255cc061a56abcbb7d548a160203392a3005b83633062236b60e11b5f5260045260245ffd5b856001600160401b0361285c83876161a9565b90549060031b1c1614612871576001016126d0565b9350869050806126d8565b63301ac92560e21b5f5260045ffd5b63138dfed560e11b5f5260045ffd5b50630b21815d60e11b5f5260045260245ffd5b3461050c575f36600319011261050c576128c5616030565b6128cd615aff565b600160ff195f8051602061876e8339815191525416175f8051602061876e833981519152557f62e78cea01bee320cd4e420270b5ea74000d11b0c9f74754ebdbfc544b05a2586020604051338152a1005b3461050c575f36600319011261050c576020604051620697808152f35b3461050c57602036600319011261050c576004356001600160a01b038116810361050c57611f869061296b615a18565b616985565b3461050c575f36600319011261050c576020600654604051908152f35b3461050c57604036600319011261050c576001600160a01b036129ae6155f1565b165f52601160205260405f206024355f5260205260405f2060405190818260208354928381520180935f5260205f20925f905b806003830110612ac757612a1a945491818110612aad575b818110612a90575b818110612a73575b10612a65575b50939293038261571e565b604051918291602083019060208452518091526040830191905f5b818110612a43575050500390f35b82516001600160401b0316845285945060209384019390920191600101612a35565b60c01c815260200185612a0f565b9260206001916001600160401b038560801c168152019301612a09565b9260206001916001600160401b038560401c168152019301612a01565b9260206001916001600160401b03851681520193016129f9565b916004919350608060019186546001600160401b03811682526001600160401b038160401c1660208301526001600160401b0381841c16604083015260c01c60608201520194019201859293916129e1565b3461050c575f36600319011261050c57602060ff600554166040519015158152f35b3461050c575f36600319011261050c5760206040517fa49807205ce4d355092ef5a8a18f56e8913cf4a201fbe287825b095693c217758152f35b3461050c57602036600319011261050c57612b8e6155f1565b612b9661609f565b6001600160a01b031680612bf757612bb36040516117ab816156b2565b60ff19600554166005555b5f52600260205260405f2060ff1981541690557ffc9274ad64ab0a7d8dedd8c9297fb4e25d7a17eb057457c6bcf2a8f13dc8859c5f80a2005b612c0660405161147a816156b2565b612c0f82617d10565b50612bbe565b3461050c57602036600319011261050c57612c2e6155f1565b5f60a0604051612c3d816156e8565b8281526020810183905260408101839052606081018390526080810183905201526001600160a01b031680612d095750612c7c6040516117ab816156b2565b5f52600260205260c060405f2061ffff604051612c98816156e8565b60ff8354161515928382526001810154602083019081526002820154604084019081526003830154916060850192835260a0866005600487015496608089019788520154169501948552604051968752516020870152516040860152516060850152516080840152511660a0820152f35b604051612c7c91612d19826156b2565b60018252602082015261652b565b3461050c57602036600319011261050c576020612d5f6001600160a01b03612d4d6155f1565b165f52600760205260405f2054151590565b6040519015158152f35b3461050c57602036600319011261050c57610018612d856155f1565b612d8d616030565b61620c565b3461050c575f36600319011261050c57602060ff5f8051602061876e83398151915254166040519015158152f35b3461050c57602036600319011261050c57612dd96155f1565b6001600160a01b03165f9081525f8051602061870e833981519152602090815260409182902054915160ff9092161515825290f35b3461050c57602036600319011261050c576001600160a01b03612e2f6155f1565b165f52601260205260405f20805490612e4782615979565b91612e55604051938461571e565b8083526020830180925f5260205f205f915b838310612efd578486604051918291602083019060208452518091526040830191905f5b818110612e99575050500390f35b91935091602060c060019260808751858060a01b038151168352612ec38582015186850190615676565b604081015160608401526001600160401b03606082015116828401520151612eea8161566c565b60a0820152019401910191849392612e8b565b60046020600192604051612f1081615703565b848060a01b038654168152612f26858701615a7e565b838201526002860154604082015260ff60038701546001600160401b038116606084015260401c16612f578161566c565b6080820152815201920192019190612e67565b3461050c575f36600319011261050c576020604051612ee08152f35b3461050c575f36600319011261050c577f00000000000000000000000000000000000000000000000000000000000000006001600160a01b03163003612fdd5760206040515f805160206186ce8339815191528152f35b63703e46dd60e11b5f5260045ffd5b3461050c575f36600319011261050c5760206040515f8051602061872e8339815191528152f35b604036600319011261050c576130276155f1565b602435906001600160401b03821161050c573660238301121561050c578160040135906130538261573f565b91613061604051938461571e565b8083526020830193366024838301011161050c57815f926024602093018737840101526001600160a01b037f0000000000000000000000000000000000000000000000000000000000000000163081149081156131fa575b50612fdd576130c6616030565b6040516352d1902d60e01b81526001600160a01b0382169390602081600481885afa5f91816131c6575b506131085784634c9c8ce360e01b5f5260045260245ffd5b805f805160206186ce8339815191528692036131b45750823b156131a2575f805160206186ce83398151915280546001600160a01b031916821790557fbc7cd75a20ee27fd9adebab32041f755214dbc6bffa90cc0225b39da2e5c2d3b5f80a2825115613189575f8091610018945190845af4613183616935565b91618609565b5050503461319357005b63b398979f60e01b5f5260045ffd5b634c9c8ce360e01b5f5260045260245ffd5b632a87526960e21b5f5260045260245ffd5b9091506020813d6020116131f2575b816131e26020938361571e565b8101031261050c575190866130f0565b3d91506131d5565b5f805160206186ce833981519152546001600160a01b031614159050846130b9565b3461050c575f36600319011261050c5760206001600160401b0360015416604051908152f35b3461050c57604036600319011261050c5761325b6155f1565b60243590613267615aff565b61326f615a18565b81156109105760405191613282836156b2565b5f83525f60208401526132948361652b565b6001600160a01b0383165f81815260156020526040902060028101549195919081158015613547575b1561351b575050825b5f945f5b335f52601060205260405f205481101561351057335f5260106020526132f38160405f206159eb565b5080546001600160a01b03168914806134f9575b61331457506001016132ca565b959650509091925f90335f52601260205260405f205f918154925b83811061349a5750505050613348906001860154615827565b9082821061348f575050335f52601260205260405f2060ff60036001600160401b035f541695015416936040519461337f86615703565b8786526020860194855260408601928484526060870192835260808701916133a68161566c565b82528054600160401b8110156107d7576133c5916001820181556159eb565b9390936107c4576001600160401b0360036134209582936107268d9a5f9c60018060a01b039060018060a01b03905116166bffffffffffffffffffffffff60a01b85541617845560018401905161070081516106fa8161566c565b6001600160401b0360019461343e855483808260801c169116615a50565b9060405193845260208401521660408201527f06325d83435da87657b063c6142a5b91a66a7e811827d082d624287a9953c4ba60603392a45b156107ae5760015f8051602061878e83398151915255005b85916107f6916174e6565b8a6134a582856159eb565b50546001600160a01b031614806134df575b6134c4575b60010161332f565b936134d7600191600261084888876159eb565b9490506134bc565b50816134f3610874600161086d85886159eb565b146134b7565b508561350a61087460028401615a7e565b14613307565b505050505050613477565b816108b4600161352d93015487615834565b5f198101919082116108d45761354291615847565b6132c6565b506001810154156132bd565b3461050c575f36600319011261050c5761356b615a18565b611f8633616985565b3461050c57602036600319011261050c576001600160a01b036135956155f1565b165f52600b602052602060405f2054604051908152f35b602036600319011261050c576104f96135c36155f1565b6135cb615aff565b6135d3615a18565b6135db616964565b3490615b26565b3461050c575f36600319011261050c576020604051613e808152f35b3461050c575f36600319011261050c57613616615a18565b5f805b335f52601060205260405f205482101561381f57335f5260106020526136428260405f206159eb565b5060ff6003820154166136548161566c565b6136ea576136d990600192670de0b6b3a76400006136a985808060a01b03855416940154845f52601560205260405f2094335f52601660205260405f2090888060a01b03165f5260205260405f209454615834565b0482548082115f146136e2576136bf9082615827565b925b5f6136d18783019586549061596c565b94555561596c565b915b0190613619565b505f926136c1565b335f9081526011602090815260408083208684529091528120915490916001600160a01b03909116908190835b815481101561380957956001876001600160401b03613737839a866161a9565b90549060031b1c16855f52601860205260405f206001600160401b0382165f52602052670de0b6b3a76400006137c560405f20335f52601960205260405f208a5f5260205260405f206001600160401b0385165f5260205260405f2093335f52601b60205260405f208b5f526020526001600160401b0360405f2091165f5260205260405f20549054615834565b049080548083115f146137fd576137f16137e05f9285615827565b9a5b61098b8785019c8d549061596c565b99555501909650613717565b505f6137f1819a6137e2565b505050506138199060019261596c565b916136db565b806138375760015f8051602061878e83398151915255005b5f80808084335af1613847616935565b501561387f576040519081527f106f923f993c2149d49b4255ff723acafa1f2d94393f561d3eda32ae348f724160203392a2806104f9565b6312171d8360e31b5f5260045ffd5b3461050c57602036600319011261050c576004356138aa615aff565b335f52600860205260405f2060ff600182015460201c16600381101561110057611779578115610910576138e36040516117ab816156b2565b5f526002602052600160405f200154335f52600960205261390a60405f2054809354615827565b816139158583615827565b106139b25783613925818561596c565b6001600160401b03600181805f541660405194613941866156b2565b855260208501908152335f52600960205260405f20945185555116920191166001600160401b03198254161790557ff7e874d9fd42838b0f06a44c7bbe45417b991e6b000e8ca4c5c1f086084a9cd36139ad6113385f546001600160401b03808260801c169116615a50565b0390a2005b836139bc91615827565b906322df051360e11b5f5260045260245260445ffd5b3461050c575f36600319011261050c576139ea616030565b5f8051602061876e8339815191525460ff811615613a415760ff19165f8051602061876e833981519152557f5db9ee0a495bf2e6ff9c91a7834c1ba4fdd244a5e8aa4e537bd38aeae4b073aa6020604051338152a1005b638dfc202b60e01b5f5260045ffd5b3461050c57608036600319011261050c57613a696155f1565b613a71615633565b90613a7a615649565b50606435612710613a9461ffff60015460401c1683615834565b0492613ac5613aa38584615827565b9360018060a01b03811695865f5260176020526121e260405f2091825461596c565b835f52601560205260405f20906001820191825480613bdd575b5050845f5260186020526001600160401b0360405f2091165f5260205260405f20906001600160401b035f54166001600160401b036003840191166001600160401b031982541617905560018201548015928315613b8d575b505092602092915f805160206186ee8339815191529454159081613b85575b50613b67575b50604051908152a2005b845f5260178352613b7d60405f2091825461596c565b905584613b5d565b905086613b57565b9392909491670de0b6b3a7640000830294838604670de0b6b3a764000014841517156108d457613bd06122455f805160206186ee83398151915298602098615847565b9055919481939450613b38565b670de0b6b3a76400008602868104670de0b6b3a764000014871517156108d457613c0a9161224591615847565b90558580613adf565b3461050c57604036600319011261050c57613c2c615607565b336001600160a01b03821603613c485761001890600435616899565b63334bd91960e11b5f5260045ffd5b3461050c57608036600319011261050c57602061115c613c756155f1565b613c7d615633565b90613c8661610e565b6064359160443591616572565b3461050c5760a036600319011261050c57613cac6155f1565b60243590604435906084359061ffff821680920361050c57613ccc61609f565b6001600160a01b0316928315613db9577f9a4c59c56153245e23dcb8000e301b9a5e35b8e6693c5cdbf3b6a2aa0f8a37ea9260409261ffff6005613d238651613d14816156b2565b6001815289602082015261652b565b865190613d2f826156e8565b60018252602082018781528883018781526060840191606435835260808501935f855260a086019889525f526002602052613d7c8b5f2095511515869060ff801983541691151516179055565b5160018501555160028401555160038301555160048201550191511661ffff19825416179055613dab856177c0565b5082519182526020820152a2005b60405162461bcd60e51b815260206004820152600a602482015269557365206e617469766560b01b6044820152606490fd5b3461050c575f36600319011261050c57602061ffff60015460401c16604051908152f35b3461050c57602036600319011261050c576001600160a01b03613e306155f1565b165f52601060205260405f20805490613e4882615979565b91613e56604051938461571e565b8083526020830180925f5260205f205f915b838310613eeb578486604051918291602083019060208452518091526040830191905f5b818110613e9a575050500390f35b91935091602060a0600192606087518580851b0381511683528481015185840152613ecd60408201516040850190615676565b0151613ed88161566c565b6080820152019401910191849392613e8c565b60046020600192604051613efe81615697565b848060a01b0386541681528486015483820152613f1d60028701615a7e565b604082015260ff600387015416613f338161566c565b6060820152815201920192019190613e68565b3461050c57602036600319011261050c576001600160a01b03613f676155f1565b165f526017602052602060405f2054604051908152f35b3461050c57604036600319011261050c57610018600435613f9d615607565b90613faa61183682615809565b61649a565b3461050c57602036600319011261050c57613fc86155f1565b613fd06157e5565b50613fd96157e5565b5060018060a01b03165f52600860205260405f20600160405191613ffc83615697565b805483520154906020810163ffffffff8316815260ff8360201c16604083019160038210156111005763ffffffff9183526001600160401b03606085019560281c1685526040519351845251166020830152516003811015611100576080926001600160401b0391604084015251166060820152f35b5f36600319011261050c57614085615aff565b61408d615a18565b6140a2335f52600760205260405f2054151590565b6115da576140b56040516117ab816156b2565b5f52600260205260405f2060ff815416156115c7576001015480341061418c576140de3361775a565b506040516140eb81615697565b348152602081015f8152604082015f815263ffffffff80600160608601955f8752335f52600860205260405f2090518155019351161663ffffffff198354161782555160038110156111005761414d926115326001600160401b0392846161e7565b6040513481527fbc11617e575d658c74e921c8df22f8e48566072fa78145a6cfe18420bf8d0c4e60203392a260015f8051602061878e83398151915255005b6322df051360e11b5f526004523460245260445ffd5b3461050c57602036600319011261050c576141bb61561d565b335f52600a6020526141db6001600160401b0360405f2092168092617e66565b50337f4b9bbf2ebc79e9fb39a64920934b3f458a486552d3df95395aa750ece9e970935f80a3005b3461050c57602036600319011261050c5760206142236004356006617745565b905460405160039290921b1c6001600160a01b03168152f35b3461050c57602036600319011261050c57602061115c600435615809565b3461050c57604036600319011261050c57600435614276615633565b61427e615aff565b335f52601060205260405f205482101561289a57335f5260106020526142a78260405f206159eb565b5090600160ff6003840154166142bc8161566c565b0361288b57335f52601160205260405f20835f5260205260405f20905f926001600160401b0383549216935b8281106145985750600181015491600181018082116108d45761430b9084615847565b928161440d575b5050335f52601b60205260405f2060018060a01b0382541660018060a01b03165f5260205260405f20845f526020528160405f205560018060a01b039054165f52601860205260405f20835f52602052614393600260405f20926001840161437b82825461596c565b8091558181145f146143e75750925b0191825461596c565b90558054600160401b8110156107d75761275281849360016143b7940181556161a9565b90556040519081527fa7b81e017abeb50ecf2c121cb0db7087dfc4b3cc85cd8d857f9a5f1e81f6484560203392a3005b614401614407926143fb8588015482615834565b92615827565b90615847565b9261438a565b926144216144269282979695989498615847565b615827565b925f5b835481101561458b57806001600160401b03614447600193876161a9565b90549060031b1c16335f52601b60205260405f2090838060a01b038a541691848060a01b0383165f5260205260405f206001600160401b0382165f5260205260405f2054918289115f146145805761449f8380615827565b90335f52601b60205260405f2090868060a01b03165f5260205260405f206001600160401b0383165f5260205260405f2055838060a01b038a54165f5260186020526001600160401b0360405f2091165f5260205260405f208381019081549083821015614512575b5050505001614429565b61451e84600293615827565b809355019182549182151580614577575b1561457157614401826145458561454b95615834565b9261596c565b818111156145625750505f905b5588808080614508565b61456b91615827565b90614558565b5061454b565b5080151561452f565b61449f898094615827565b5093919250938580614312565b846001600160401b036145ab83876161a9565b90549060031b1c16146145c0576001016142e8565b8462d00d2f60e11b5f5260045260245ffd5b3461050c575f36600319011261050c575f546001600160401b036145f78183166161ca565b1680916001600160401b031916175f557f7cee7087baafdfa8f9d1bd39c560782e2eedf861e2648b232a805033537c56955f80a2005b3461050c575f36600319011261050c576020604051612af88152f35b3461050c57602036600319011261050c576146626155f1565b5f906001600160a01b0316815b815f52601060205260405f205483101561099957815f5260106020526146988360405f206159eb565b5060ff6003820154166146aa8161566c565b6147395760019161098b61472692670de0b6b3a7640000614704868060a01b0383541692835f52601560205260405f2093895f52601660205260405f2090898060a01b03165f526020528760405f20945491015490615834565b048154908181115f1461472f57869161471c91615827565b915b01549061596c565b925b019161466f565b5050845f9161471e565b5f8381526011602090815260408083208784529091528120805492549395936001600160a01b03169081905b848410614779575050505050600190614728565b6001614828819961098b6001600160401b0361479a89879d9a9b9c9d6161a9565b90549060031b1c16865f52601860205260405f206001600160401b0382165f52602052670de0b6b3a764000061470460405f208b5f52601960205260405f208b5f5260205260405f206001600160401b0385165f5260205260405f20938c5f52601b60205260405f208c5f526020526001600160401b0360405f2091165f5260205260405f20549054615834565b9501939695949750614765565b3461050c57604036600319011261050c5761484e6155f1565b614856615607565b6001600160a01b039182169181165f805b845f52601060205260405f205482101561099957845f5260106020526148908260405f206159eb565b5080546001600160a01b031684900361497f5760ff6003820154166148b48161566c565b6148d45760019161098b836148cb930154876174e6565b915b0190614867565b5090845f52601160205260405f20815f5260205260405f205f8154915b828210614903575050506001906148cd565b91939460016149708998939597829a5f52601b60205260405f20845f5260205260405f206001600160401b038061493a8a8a6161a9565b90549060031b1c16165f5260205261098b60405f20546001600160401b036149628a8a6161a9565b90549060031b1c16876176fc565b940191969750949293916148f1565b50906001906148cd565b3461050c57604036600319011261050c576149a26155f1565b6001600160a01b036149b2615607565b1680614ae157506040516149c5816156b2565b5f81525f6020820152905b6001600160a01b03165f908152600e60205260409020906149f09061652b565b5f5260205260405f20805490614a0582615979565b91614a13604051938461571e565b8083526020830180925f5260205f205f915b838310614a98578486604051918291602083019060208452518091526040830191905f5b818110614a57575050500390f35b91935091602060606001926001600160401b036040885180518452614a82868201518786019061565f565b0151166040820152019401910191849392614a49565b60026020600192604051614aab816156cd565b855481526001600160401b0385870154614aca60ff821686850161619d565b60081c166040820152815201920192019190614a25565b60405190614aee826156b2565b600182526020820152906149d0565b3461050c57604036600319011261050c57614b166155f1565b614b1e615633565b9060018060a01b03165f52604e6020526001600160401b0360405f2091165f5260205260a060405f206001600160401b0381541690600181015490600281015460046003830154920154926040519485526020850152604084015260608301526080820152f35b3461050c57602036600319011261050c57614b9e6155f1565b614ba6616030565b601c80546001600160a01b0319166001600160a01b0392909216919091179055005b3461050c57606036600319011261050c576001600160401b03614be961561d565b614bf1615633565b90614bfa615649565b91614c03616030565b5f80546fffffffffffffffffffffffffffffffff1692851660801b9290921790841660c01b1790556001805467ffffffffffffffff191691909216179055005b3461050c57602036600319011261050c57614c5c6155f1565b614c646157e5565b50614c6d6157e5565b5060018060a01b03165f526015602052608060405f206001600160401b03604051614c9781615697565b825492838252600181015460208301908152606084600360028501549460408701958652015416930192835260405194855251602085015251604084015251166060820152f35b3461050c57604036600319011261050c576104f9614cfa6155f1565b614d02615aff565b614d0a615a18565b60243590615b26565b3461050c57602036600319011261050c5760043563ffffffff60e01b811680910361050c57602090637965db0b60e01b8114908115614d58575b506040519015158152f35b6301ffc9a760e01b14905082614d4d565b3461050c575f36600319011261050c57614d81615a18565b5f335f52601260205260405f20905f5b82548110156104f957614da481846159eb565b50915f546001600160401b0380614dc781600388015416828560801c1690615a50565b169116106155e157614dde61087460018501615a7e565b9160018060a01b03845416614df960028601918254906174e6565b945f5b335f5260106020528660405f20548210156155d25750335f526010602052614e278160405f206159eb565b50805483546001600160a01b03908116911614806155bb575b614e4d5750600101614dfc565b94600386989298019760ff89541696614e658861566c565b60018814801561559a57335f52601160205260405f20835f5260205260405f206040519081602082549182815201915f5260205f20905f915b8160038401106155485792614edd92859492614ee39693549181811061552e575b818110615511575b8181106154f4575b106154e6575b50038261571e565b9961566c565b806154dc575b6153fe575b60018060a01b038554169860ff87549b541661271090614f1060018901615a7e565b9a5f91614f1c8161566c565b6153d7575050614f2b8b6179bb565b8a5f52601560205260405f209b335f52601660205260405f2060018060a01b038d165f5260205260405f209a5f9b5f5b335f52601060205260405f2054811015614fd6578e335f526010602052614f858260405f206159eb565b509060018060a01b038254161480614fbe575b614fa6575b50600101614f5b565b6001919e82614fb79201549061596c565b9d90614f9d565b5060ff600382015416614fd08161566c565b15614f98565b509c889e9d670de0b6b3a76400008a9b9d9f61504b989a9d9f90615041919c9697989a9c80615398575b5f9860018301615011828254615827565b90556002830180548a818111156153895750505f905b55808211156153805761503991615827565b905b54615834565b0490555b336181f0565b61505c600188549301928354615827565b8255335f52600d60205260405f20905f52602052600160405f200161508b81548086115f146153795780615827565b90555415615202575b5061509e9161596c565b9360018060a01b03825416916001808060a01b0391015460081c1692549060405191825260208201527fe4183514c7483039538cd1f9ca20e489b3c411f3af1211cf6b5ad0a00ca4e22860403392a482545f1981019081116108d45761510490846159eb565b5061510f82856159eb565b9190916107c457808203615155575b505082548015610d43575f190161513581856159eb565b6107c4576003815f80935582600182015582600282015501558355614d91565b805482546001600160a01b0319166001600160a01b03919091161782556151c49160ff90600390819060018581019082018683036151cb575b5050600285015460028201550192016001600160401b0380825416166001600160401b03198454161783555460401c1690615adc565b838061511e565b816151dc876151fb94541683615ac4565b548154610100600160a81b031916610100600160a81b03909116179055565b898061518e565b905060018060a01b038354165f526008602052600160405f200163ffffffff81541680156108d457815463ffffffff19165f1991820163ffffffff1617909155335f90815260106020526040902080549182019182116108d45761527c91615269916159eb565b5091335f52601060205260405f206159eb565b6107c45781810361530b575b5050335f52601060205260405f209081548015610d43575f1901906152ad82846159eb565b9290926107c45761509e935f600385828c975582600182015582600282015501555560018060a01b038454166152e38133616c88565b156152f0575b5091615094565b5f52600b6020526153043360405f20617e66565b50886152e9565b815481546001600160a01b0319166001600160a01b03919091161781556001808301549082015561535a9160039060ff9082906002808201908601828703615361575b50500154169101615ac4565b8680615288565b816151dc8661537294541683615ac4565b8c8061534e565b8590615827565b50505f9061503b565b61539291615827565b90615027565b836153a4828454615834565b0485548082115f146153cf576153b991615827565b6153c86001870191825461596c565b9055615000565b50505f6153b9565b9a8c6153f9899f9d8a9b9d9f61504b989a9d9f9b809697989a9c5f9233617fd0565b615045565b9893979491615414839794929754895190615847565b965f5b89518110156154cd57600190335f52601b60205260405f20828060a01b038d541690838060a01b0382165f526020528b6001600160401b038061545e8560405f2094615ab0565b5116165f5260205260405f20548b8181115f146154be5750505f905b335f52601b60205260405f2090848060a01b03165f526020528b6001600160401b03806154ab8560405f2094615ab0565b5116165f5260205260405f205501615417565b6154c791615827565b9061547a565b50919396509194979398614eee565b5087511515614ee9565b60c01c81526020015f614ed5565b9260206001916001600160401b038560801c168152019301614ecf565b9260206001916001600160401b038560401c168152019301614ec7565b9260206001916001600160401b0385168152019301614ebf565b929d9e9d6001608060049286546001600160401b03811682526001600160401b038160401c1660208301526001600160401b0381841c16604083015260c01c60608201520194019201919e9d9e614e9e565b614ee36020604051906155ad818361571e565b5f8252505f3681379961566c565b50866155cc61087460028401615a7e565b14614e40565b919395505061509e919361596c565b91506155ec90615a70565b614d91565b600435906001600160a01b038216820361050c57565b602435906001600160a01b038216820361050c57565b600435906001600160401b038216820361050c57565b602435906001600160401b038216820361050c57565b604435906001600160401b038216820361050c57565b9060058210156111005752565b6002111561110057565b60209080516156848161566c565b83528101516001600160a01b0316910152565b608081019081106001600160401b038211176107d757604052565b604081019081106001600160401b038211176107d757604052565b606081019081106001600160401b038211176107d757604052565b60c081019081106001600160401b038211176107d757604052565b60a081019081106001600160401b038211176107d757604052565b90601f801991011681019081106001600160401b038211176107d757604052565b6001600160401b0381116107d757601f01601f191660200190565b9060a060031983011261050c576004356001600160a01b038116810361050c57916024356001600160a01b038116810361050c579160443591606435600281101561050c57916084356001600160401b03811161050c578260238201121561050c578060040135926001600160401b03841161050c5760248460051b8301011161050c576024019190565b604051906157f282615697565b5f6060838281528260208201528260408201520152565b5f525f8051602061874e833981519152602052600160405f20015490565b919082039182116108d457565b818102929181159184041417156108d457565b8115615851570490565b634e487b7160e01b5f52601260045260245ffd5b929190925f9360018060a01b0382165f52604e6020526001600160401b0360405f2091165f5260205260405f2090604051926158a084615703565b6001600160401b038354168085526001840154602086015260028401549460408101958652608060046003870154966060840197885201549101521561592d57906158ea91616c88565b918215615925575190519081811161590157505050565b670de0b6b3a7640000939450615921929161591b91615827565b90615834565b0490565b505f93505050565b505f9450505050565b60405190615943826156b2565b5f6020838281520152565b9060405161595b816156b2565b602060018294805484520154910152565b919082018092116108d457565b6001600160401b0381116107d75760051b60200190565b929161599b82615979565b936159a9604051958661571e565b602085848152019260051b810191821161050c57915b8183106159cb57505050565b82356001600160401b038116810361050c578152602092830192016159bf565b8054821015615a04575f5260205f209060021b01905f90565b634e487b7160e01b5f52603260045260245ffd5b60025f8051602061878e8339815191525414615a415760025f8051602061878e83398151915255565b633ee5aeb560e01b5f5260045ffd5b906001600160401b03809116911601906001600160401b0382116108d457565b5f1981146108d45760010190565b90604051615a8b816156b2565b602081935460ff8116615a9d8161566c565b835260081c6001600160a01b0316910152565b8051821015615a045760209160051b010190565b90615ace8161566c565b60ff80198354169116179055565b90615ae68161566c565b60ff60401b82549160401b169060ff60401b1916179055565b60ff5f8051602061876e8339815191525416615b1757565b63d93c066560e01b5f5260045ffd5b60405191615b33836156b2565b5f83525f6020840152602091604051615b4c848261571e565b5f81525f3681378215610910576001600160a01b0382165f908152600760205260409020541561600f5760018060a01b0382165f5260088452600160405f20019460ff8654861c16600381101561110057615ff157615baa8161652b565b335f52600d865260405f20815f52865260405f2092835493615bd160018201548096615827565b878110615fda5750615be3878761832f565b9485156109105787615bf49161596c565b60018201555f985f5b335f5260108a5260405f2054811015615fcb57335f5260108a52615c248160405f206159eb565b5080546001600160a01b038a811691161480615fb4575b615c485750600101615bfd565b905060019192939495969798999a5001615c6387825461596c565b905560015b615e4a57335f526010895260405f2054335f5260108a5260405f20604051615c8f81615697565b6001600160a01b038a1681528b8101898152604082018981529260608301905f82528054600160401b8110156107d757615cce916001820181556159eb565b9390936107c457615d60948f600394615d4f9360018060a01b039060018060a01b03905116166bffffffffffffffffffffffff60a01b88541617875551600187015560028601915190615d2b8251615d258161566c565b84615ac4565b01518154610100600160a81b03191660089190911b610100600160a81b0316179055565b5191615d5a8361566c565b01615ac4565b335f908152601a8b5260408082206001600160a01b038b1683528c52808220928252918b5220805460ff19166001179055805463ffffffff908116949085146108d4576001615de9938a9363ffffffff83615df599011663ffffffff19825416179055818060a01b038a165f52600b8c52615dde3360405f20617810565b505b0154903361838a565b905f878686893361756d565b60200151604051938452938301526001600160a01b0392909216915f60408301526001600160a01b03169033907f4fe2fde631e986ee26283901b9cc8d6d4a311b750f9fa0d659520deba2995f1f90606090a4565b509695949392915f5b335f526010885260405f2054811015615f9e57335f5260108852615e7a8160405f206159eb565b5080546001600160a01b0388811691161480615f87575b615e9e5750600101615e53565b60ff60036001929b9495969798999a9b015416615eba8161566c565b14615ed2575b5086615df593926001615de993615de0565b979491969295939097335f526011865260405f20905f52855260405f209586548015155f14615f7f57615f059084615847565b975b5f5b8854811015615f6b57335f908152601b895260408082206001600160a01b038a1683528a529020600191906001600160401b0380615f47848e6161a9565b90549060031b1c16165f52895260405f20615f638c825461596c565b905501615f09565b509598939750939550909390929186615ec0565b505f97615f07565b5082615f9861087460028401615a7e565b14615e91565b5085615de9916001615df595969798999a615de0565b5085615fc561087460028401615a7e565b14615c3b565b50909192939495969798615c68565b87906312e1fa3760e11b5f5260045260245260445ffd5b6371ab6ad560e11b5f9081526001600160a01b038416600452602490fd5b5063bd62013360e01b5f9081526001600160a01b0391909116600452602490fd5b335f9081527fb16e88c42fd4e48df2dd6a2eabd6bc9aec654ec170056b470819f8892cc6431c602052604090205460ff161561606857565b63e2517d3f60e01b5f52336004527fa49807205ce4d355092ef5a8a18f56e8913cf4a201fbe287825b095693c2177560245260445ffd5b335f9081527f5bc841a6d925a620866922bada36d16da3dcc9d52290519ea1126e5ca2372139602052604090205460ff16156160d757565b63e2517d3f60e01b5f52336004527fb1fadd3142ab2ad7f1337ea4d97112bcc8337fc11ce5b20cb04ad038adf9981960245260445ffd5b335f9081525f8051602061870e833981519152602052604090205460ff161561613357565b63e2517d3f60e01b5f52336004525f8051602061872e83398151915260245260445ffd5b5f8181525f8051602061874e8339815191526020908152604080832033845290915290205460ff16156161875750565b63e2517d3f60e01b5f523360045260245260445ffd5b60058210156111005752565b9190918054831015615a04575f52601860205f208360021c019260031b1690565b6001600160401b03166001600160401b0381146108d45760010190565b9060038110156111005764ff0000000082549160201b169064ff000000001916179055565b6001600160a01b0381165f9081525f8051602061870e833981519152602052604090205460ff1661628c576001600160a01b03165f8181525f8051602061870e83398151915260205260408120805460ff191660011790553391905f8051602061872e833981519152905f805160206186ae8339815191529080a4600190565b505f90565b6001600160a01b0381165f9081527fb7db2dd08fcb62d0c9e08c51941cae53c267786a0b75803fb7960902fc8ef97d602052604090205460ff1661628c576001600160a01b03165f8181527fb7db2dd08fcb62d0c9e08c51941cae53c267786a0b75803fb7960902fc8ef97d60205260408120805460ff191660011790553391905f805160206186ae8339815191528180a4600190565b6001600160a01b0381165f9081527fb16e88c42fd4e48df2dd6a2eabd6bc9aec654ec170056b470819f8892cc6431c602052604090205460ff1661628c576001600160a01b03165f8181527fb16e88c42fd4e48df2dd6a2eabd6bc9aec654ec170056b470819f8892cc6431c60205260408120805460ff191660011790553391907fa49807205ce4d355092ef5a8a18f56e8913cf4a201fbe287825b095693c21775905f805160206186ae8339815191529080a4600190565b6001600160a01b0381165f9081527f5bc841a6d925a620866922bada36d16da3dcc9d52290519ea1126e5ca2372139602052604090205460ff1661628c576001600160a01b03165f8181527f5bc841a6d925a620866922bada36d16da3dcc9d52290519ea1126e5ca237213960205260408120805460ff191660011790553391907fb1fadd3142ab2ad7f1337ea4d97112bcc8337fc11ce5b20cb04ad038adf99819905f805160206186ae8339815191529080a4600190565b5f8181525f8051602061874e833981519152602090815260408083206001600160a01b038616845290915290205460ff16616525575f8181525f8051602061874e833981519152602090815260408083206001600160a01b0395909516808452949091528120805460ff19166001179055339291905f805160206186ae8339815191529080a4600190565b50505f90565b8051906165378261566c565b602060018060a01b03910151166040519060208201926165568161566c565b835260408201526040815261656c60608261571e565b51902090565b93929160018060a01b03851691825f52600860205260405f20906165a1845f52600760205260405f2054151590565b156167f5576165af8761785d565b6167e257835f52601560205260405f206165cf600284549201548261596c565b9081156167d6579085918186116167cc575b6165fe916165f26165f79288615834565b615847565b8095615827565b9261661c61661561660e8b6178e0565b968b61793f565b948a617978565b9261663061662a858761596c565b9a6178e0565b9485926166426040516117ab816156b2565b5f526002602052600160405f2001548154106167b0575b50835f52604f60205260405f209889546001600160401b03169961667c8b6161ca565b6001600160401b03166001600160401b03198254161790555f546001600160401b031690604051916166ad83615703565b8252602082018d8152604083018a8152606084019187835260808501938452885f52604e6020528d60405f20906001600160401b03165f5260205260405f2094516001600160401b03166001600160401b03166001600160401b0319865416178555516001850155516002840155516003830155519060040155604051926001600160401b038493169561675292846040919493926060820195825260208201520152565b037f91754b254153861c1e9bc9186484a0bb770823acfa00423044ba1759a01210e791a36040805187815260208101939093528201527f1508fbe22c9805770740c8f3827567950022729e0096e311dc087990c157fffc90606090a3565b600101805464ff0000000019166401000000001790555f616659565b90945084906165e1565b505f9750505050505050565b8363b516260d60e01b5f5260045260245ffd5b8363bd62013360e01b5f5260045260245ffd5b6001600160a01b0381165f9081525f8051602061870e833981519152602052604090205460ff161561628c576001600160a01b03165f8181525f8051602061870e83398151915260205260408120805460ff191690553391905f8051602061872e833981519152907ff6391f5c32d9c69d2a47ea670b442974b53935d1edc7fd64eb21e047a839171b9080a4600190565b5f8181525f8051602061874e833981519152602090815260408083206001600160a01b038616845290915290205460ff1615616525575f8181525f8051602061874e833981519152602090815260408083206001600160a01b0395909516808452949091528120805460ff19169055339291907ff6391f5c32d9c69d2a47ea670b442974b53935d1edc7fd64eb21e047a839171b9080a4600190565b3d1561695f573d906169468261573f565b91616954604051938461571e565b82523d5f602084013e565b606090565b616983604051616973816156b2565b5f81525f60208201523490617a0a565b565b6001600160a01b0316908115616a0a57335f52601760205260405f20549182156169fb575f808085819433835260176020528260408120555af16169c7616935565b501561387f576040518281527f106f923f993c2149d49b4255ff723acafa1f2d94393f561d3eda32ae348f724160203392a2565b6373380d9960e01b5f5260045ffd5b63d92e233d60e01b5f5260045ffd5b94939260018060a01b03861692835f52600860205260405f2091616a48855f52600760205260405f2054151590565b15616c7557845f52601560205260405f2090855f52601860205260405f206001600160401b0386165f5260205260405f2091616a9260028087549301549401546108b4858461596c565b908115616c67578793616af7616af0616ae0868f9b9a9796616afe96816165f29c9911616c5d575b81616acf614421936165f2616ad89487615834565b9c8d9885615834565b9a8b92615827565b92616aea8b6178e0565b9a61793f565b968d617978565b968c617f17565b94616b16616b10876108b4848961596c565b9b6178e0565b958693616b286040516117ab816156b2565b5f526002602052600160405f200154815410616c41575b50845f52604f6020528b60405f209a8b546001600160401b03169b616b638d6161ca565b6001600160401b03166001600160401b03198254161790558b5f546001600160401b03169260405193616b9585615703565b84526020840190815260408401908c82526060850192898452608086019485528a5f52604e60205260405f20906001600160401b03165f5260205260405f2094516001600160401b03166001600160401b03166001600160401b0319865416178555516001850155516002840155516003830155519060040155616c189161596c565b6040805195865260208601919091528401919091526001600160401b0316918060608101616752565b600101805464ff0000000019166401000000001790555f616b3f565b9091508190616aba565b505f99505050505050505050565b8463bd62013360e01b5f5260045260245ffd5b90915f925f5b6001600160a01b0384165f81815260106020526040902054821015616d0457805f526010602052616cc28260405f206159eb565b50546001600160a01b03848116911614616ce0575b50600101616c8e565b60019195616cfd915f526010602052826108488860405f206159eb565b9490616cd7565b5050509050565b6001600160a01b03169081156115c75761698391616d2b82303384617f61565b60405190616d38826156b2565b600182526020820152617a0a565b15616d4d57565b60405162461bcd60e51b815260206004820152600f60248201526e151c985b9cd9995c8819985a5b1959608a1b6044820152606490fd5b335f52600960205260405f20908154918215616e3f575f546001600160401b03806001818416940154169160801c16906001600160401b03616dc68383615a50565b1683106119495750505081335f52600860205260405f20616de8828254615827565b9055335f5260096020525f6001604082208281550155616e115f80808085335af161190b616935565b6040519081527fda2b51341079f3dd8e6763a50f329bbc3dc6ca6a51b920fe99fbf89a54ec0e2760203392a2565b505f9150565b8054821015615a04575f52600360205f20910201905f90565b939291906001600160a01b0316806174ca5750604051616e7d816156b2565b5f81525f6020820152915b8115610910576001600160a01b0385165f81815260076020526040902054909390156167f557835f526008602052600160405f20019560ff875460201c166003811015611100576174b757616edc8261652b565b90335f52600d60205260405f20825f5260205260405f209660018854980192616f078454809a615827565b878110615fda5750616f19878461832f565b9889156109105787616f2a9161596c565b84555f995f5b335f52601060205260405f20548110156174a757335f526010602052616f598160405f206159eb565b5080546001600160a01b03168b1480617490575b616f7a5750600101616f30565b905060019192939495969798999a9b5001616f968b825461596c565b905560015b61732157335f908152601060205260409081902080549151616fbc81615697565b8b8152602081018d815260408201928a84526060830190616fdc8d61566c565b8c82528054600160401b8110156107d757616ffc916001820181556159eb565b9390936107c4575183546001600160a01b0319166001600160a01b03919091161783559051600183015591518051617049936003929091615d4f916002860191610700906106fa8161566c565b6170528861566c565b8761713057335f52601a60205260405f208a5f5260205260405f20905f5260205260405f20600160ff198254161790555b63ffffffff8154169163ffffffff83146108d457866170da8a8d936170e1998e839763ffffffff8f9a6001011663ffffffff198254161790555f52600b6020526170d03360405f20617810565b505b54903361838a565b953361756d565b602060018060a01b03910151169360405192835260208301526171038161566c565b60408201527f4fe2fde631e986ee26283901b9cc8d6d4a311b750f9fa0d659520deba2995f1f60603392a4565b9995929794919896939099335f52601160205260405f20905f5260205260405f2088516001600160401b0381116107d757600160401b81116107d75781548183558082106172c7575b5060208a01915f5260205f208160021c915f5b8381106172825750600319811690038061722a575b505089519150508015617222576171b89087615847565b985b5f5b895181101561721157600190335f52601b60205260405f208a5f526020528a6001600160401b03806171f28460405f2094615ab0565b5116165f5260205260405f206172098d825461596c565b9055016171bc565b509194979295999093969850617083565b505f986171ba565b925f935f5b8181106172445750505001555f8080806171a1565b90919460206172786001926001600160401b03895116908560031b6001600160401b03809160031b9316831b921b19161790565b960192910161722f565b5f805b6004811061729a57508382015560010161718c565b86519096916001916020916001600160401b0360068b901b81811b199092169216901b1792019601617285565b825f5260205f20600380840160021c8201920160021c019060188360031b1680617306575b505b8181106172fb5750617179565b5f81556001016172ee565b5f198201908154905f199060200360031b1c1690555f6172ec565b505f989796959493985b335f52601060205260405f205481101561747857335f5260106020526173548160405f206159eb565b5080546001600160a01b0316891480617461575b617375575060010161732b565b60ff60036001929c9495969798999a9b9c0154166173928161566c565b146173ad575b508689866170da836170e19897968b966170d2565b98949197959296939098335f52601160205260405f20905f5260205260405f209687548015155f14617459576173e39087615847565b985b5f5b895481101561744257600190335f52601b60205260405f208a5f526020528a6001600160401b038061741d8460405f20946161a9565b90549060031b1c16165f5260205260405f2061743a8d825461596c565b9055016173e7565b509599969850939650919490939192919086617398565b505f986173e5565b508261747261087460028401615a7e565b14617368565b50938588856170da836170e19899869b9c9d9e6170d2565b50836174a161087460028401615a7e565b14616f6d565b5090919293949596979899616f9b565b846371ab6ad560e11b5f5260045260245ffd5b604051906174d7826156b2565b60018252602082015291616e88565b6001600160a01b03165f908152601560205260409020600181015490811561751d5761751a9260026165f292015490615834565b90565b5050505f90565b60058110156111005760018114617566576002811461755f5760038114617558576004146175525761271090565b613e8090565b506132c890565b50612ee090565b50612af890565b939195909496929661757e8161566c565b6176de575061758c846179bb565b60018060a01b03841694855f52601560205260405f209460018060a01b03851694855f52601660205260405f20885f5260205260405f205f975f5b885f52601060205260405f205481101561764257885f5260106020526175f08160405f206159eb565b5080546001600160a01b03168c148061762a575b617612575b506001016175c7565b6001919a826176239201549061596c565b9990617609565b5060ff60038201541661763c8161566c565b15617604565b50670de0b6b3a7640000929496995061769891939597506150398b61766c6169839d60019c615827565b806176a0575b8b840161768083825461596c565b9055600284016176918c825461596c565b905561596c565b0490556181f0565b856176ac828654615834565b0487548082115f146176d6576176c191615827565b6176cf8d890191825461596c565b9055617672565b50505f6176c1565b926176f78294600187946169839a8299869b989b617fd0565b6181f0565b60018060a01b03165f5260186020526001600160401b0360405f2091165f5260205260405f2060018101549081156177405761751a9260026165f292015490615834565b505090565b8054821015615a04575f5260205f2001905f90565b805f52600760205260405f2054155f1461628c57600654600160401b8110156107d7576177a96177938260018594016006556006617745565b819391549060031b91821b915f19901b19161790565b9055600654905f52600760205260405f2055600190565b805f52600460205260405f2054155f1461628c57600354600160401b8110156107d7576177f96177938260018594016003556003617745565b9055600354905f52600460205260405f2055600190565b5f82815260018201602052604090205461652557805490600160401b8210156107d75782617848617793846001809601855584617745565b90558054925f520160205260405f2055600190565b6001600160a01b03165f818152600a6020526040902080549190821561751d575f5b83811061788e57505050505f90565b6001600160401b036178a08284617745565b90549060031b1c16835f5260186020526001600160401b0360405f2091165f52602052600260405f2001546178d75760010161787f565b50505050600190565b6001600160a01b03165f9081526015602052604090206001810154908115617931576002015490670de0b6b3a7640000820291808304670de0b6b3a764000014901517156108d45761751a91615847565b5050670de0b6b3a764000090565b6001600160a01b03165f908152600860205260409020805482811061796f575061796a828254615827565b905590565b5f919392509255565b6001600160a01b03165f9081526015602052604090206002018054801580156179b3575b61751d5782811061796f575061796a828254615827565b50821561799c565b60018060a01b03165f52601560205260405f206001600160401b036003815f5416920191166001600160401b0319825416179055565b8054821015615a04575f5260205f209060011b01905f90565b811561091057617a198161652b565b805f52600260205260405f2060ff81541615617b10576002810154808510617af95750600381015480151580617ae3575b617ac45750600401617a5d84825461596c565b9055335f52600d60205260405f20905f5260205260405f20617a8083825461596c565b9055602001516040519182526001600160a01b0316905f60208201527f754fff2205ca9f1a08ae1f38f487839ba7e18895f0238908ea8b8842d7424fbb60403392a3565b60048592015490634b98504560e01b5f5260045260245260445260645ffd5b5080617af386600485015461596c565b11617a4a565b8490631e2be21160e01b5f5260045260245260445ffd5b602083015163f6f24b8360e01b5f9081526001600160a01b03909116600452602490fd5b811561091057617b438161652b565b90815f52600260205260405f2060ff81541615617cec576002810154808510617af95750600381015480151580617cd6575b617ac45750600401617b8884825461596c565b9055335f52600d60205260405f20825f5260205260405f20617bab84825461596c565b905560058410156111005783617c08575b6020908101516040519384526001600160a01b031693617be092509083019061565f565b7f754fff2205ca9f1a08ae1f38f487839ba7e18895f0238908ea8b8842d7424fbb60403392a3565b617c11846184ce565b617c1a8461855b565b91335f52600e60205260405f20905f52602052617c4460405f20926001600160401b034316615a50565b91604051617c51816156cd565b8481526020810191617c63878461619d565b6001600160401b0360408301951685528054600160401b8110156107d757617c90916001820181556179f1565b6107c457600191518155019051600581101561110057617be09360ff68ffffffffffffffff008454925160081b1692169068ffffffffffffffffff191617179055617bbc565b5080617ce686600485015461596c565b11617b75565b506020015163f6f24b8360e01b5f9081526001600160a01b03909116600452602490fd5b5f818152600460205260409020548015616525575f1981018181116108d4576003545f198101919082116108d457818103617d83575b5050506003548015610d43575f1901617d60816003617745565b8154905f199060031b1b191690556003555f5260046020525f6040812055600190565b617da5617d94617793936003617745565b90549060031b1c9283926003617745565b90555f52600460205260405f20555f8080617d46565b5f818152600760205260409020548015616525575f1981018181116108d4576006545f198101919082116108d457818103617e2e575b5050506006548015610d43575f1901617e0b816006617745565b8154905f199060031b1b191690556006555f5260076020525f6040812055600190565b617e50617e3f617793936006617745565b90549060031b1c9283926006617745565b90555f52600760205260405f20555f8080617df1565b906001820191815f528260205260405f20548015155f14617f0f575f1981018181116108d45782545f198101919082116108d457818103617eda575b50505080548015610d43575f190190617ebb8282617745565b8154905f199060031b1b19169055555f526020525f6040812055600190565b617efa617eea6177939386617745565b90549060031b1c92839286617745565b90555f528360205260405f20555f8080617ea2565b505050505f90565b60018060a01b03165f5260186020526001600160401b0360405f2091165f52602052600260405f20018054801580156179b35761751d5782811061796f575061796a828254615827565b6040516323b872dd60e01b60208201526001600160a01b03928316602482015292909116604483015260648083019390935291815261698391610c0460848361571e565b60ff5f805160206187ae8339815191525460401c1615617fc157565b631afcd79f60e31b5f5260045ffd5b95949093929181519081156181e657617ff591617fec91615847565b92825190615847565b905f5b81518110156181e657806001600160401b0361801660019385615ab0565b5116828060a01b0388165f52601860205260405f206001600160401b0382165f52602052670de0b6b3a764000061812360405f20858060a01b038d1693845f52601960205260405f20878060a01b038d165f5260205260405f206001600160401b0382165f5260205260405f20946001600160401b035f54166001600160401b036003850191166001600160401b03198254161790555f52601b60205260405f20878060a01b038d165f526020526001600160401b0360405f2091165f52602052898960405f2054916181d7575b5080618199575b8a1561814d578682016180ff8b825461596c565b9055600282016181108a825461596c565b90555b898b1561812c576150399161596c565b04905501617ff8565b5089808211156181455761813f91615827565b9061503b565b50505f61813f565b81870180548b8181111561818a5750505f905b556002820180548a8181111561817b5750505f905b55618113565b61818491615827565b90618175565b61819391615827565b90618160565b836181a5828454615834565b0485548082115f146181cf576181ba91615827565b6181c888870191825461596c565b90556180eb565b50505f6181ba565b6181e091615827565b896180e4565b5050505050509050565b601c545f96929491939192916001600160a01b039091169081156183255780516182198161566c565b6182228161566c565b61831257505f955b156182b25750601c546001600160a01b031691823b156182ae576040516316f60ec560e11b81526001600160a01b0394851660048201529484166024860152949092166044840152606483019390935261ffff166084820152908290829060a490829084905af1618299575050565b6182a482809261571e565b6182ab5750565b80fd5b8680fd5b929194955050813b1561050c5760405162f74bbf60e71b81526001600160a01b039182166004820152928116602484015290931660448201526064810191909152905f908290608490829084905af16183085750565b5f6169839161571e565b602001516001600160a01b03169561822a565b5050505050505050565b6001600160a01b03165f90815260156020526040902060018101548015801561837e575b6177405761836660029161836f94615834565b91015490615847565b90811561837857565b60019150565b50600282015415618353565b9290918115618443575f925f9460018060a01b03165f52600e60205260405f20905f5260205260405f205f908054915b8281106184695750505082156184435781808210618461576183db91615827565b8281101561845a575b80831115618453576183f69083615827565b8082101561844d575080925b83156184435761ffff9361098b61841f61843f956165f294615847565b9161843a876184316127109584615834565b94169186615827565b615834565b1690565b5050505061271090565b92618402565b505f6183f6565b50816183e4565b50505f6183db565b61847381836179f1565b506001810154436001600160401b038260081c1611618497575b50506001016183ba565b9761098b6184c6929861ffff6184be6184b560ff6001989e16617524565b9b54809361596c565b9a1690618667565b96905f61848d565b9060058210159081611100578215801561854e575b82811561853e575b811561852e575b811561851e575b5061851957506111005760ff9063aae758a160e01b5f521660045260245ffd5b915050565b90506111005760048314826184f9565b90506111005760038314826184f2565b90506111005760028314826184eb565b505f9150600183146184e3565b6005811015611100576001811461859e5760028114618596576003811461858e57600414618587575f90565b6213c68090565b506209e34090565b506206978090565b5062034bc090565b905f602091828151910182855af1156185fe575f513d6185f557506001600160a01b0381163b155b6185d55750565b635274afe760e01b5f9081526001600160a01b0391909116600452602490fd5b600114156185ce565b6040513d5f823e3d90fd5b9061862d575080511561861e57805190602001fd5b63d6bda27560e01b5f5260045ffd5b8151158061865e575b61863e575090565b639996b31560e01b5f9081526001600160a01b0391909116600452602490fd5b50803b15618636565b81810291905f5f198383098480821091038181146186a557036001111561869357509060019109900390565b634e487b71905260116020526024601cfd5b50505050509056fe2f8788117e7eff1d82e926ec794901d17c78024a50270940304540a733656f0d360894a13ba1a3210667c828492db98dca3e2076cc3735a920a3ca505d382bbce34918ff1c7084970068b53fd71ad6d8b04e9f15d3886cbf006443e6cdc52ea669892194d2f1eb4d48bd09f166bfce1754a681e8e17011b3e12b710cce56a87b12b42e8a160f6064dc959c6f251e3af0750ad213dbecf573b4710d67d6c28e3902dd7bc7dec4dceedda775e58dd541e08a116c6c53815c0bd028192f7b626800cd5ed15c6e187e77e9aee88184c21f4f2182ab5827cb3b7e07fbedcd63f033009b779b17422d0df92223018b32b4d1fa46e071723d6817e2486d003becc55f00f0c57e16840df040f15088dc2f81fe391c3923bec73e23a9662efc9c229c6a00a164736f6c634300081a000a","linkReferences":{}},"methodIdentifiers":{"ADMIN_ROLE()":"75b238fc","ASSET_MANAGER_ROLE()":"a4b32de8","BPS_DENOMINATOR()":"e1a45218","DEFAULT_ADMIN_ROLE()":"a217fddf","LOCK_ONE_MONTH()":"9e870585","LOCK_SIX_MONTHS()":"f3c9b311","LOCK_THREE_MONTHS()":"d27a6f06","LOCK_TWO_MONTHS()":"7df92ada","MULTIPLIER_NONE()":"4962f88f","MULTIPLIER_ONE_MONTH()":"18056dc2","MULTIPLIER_SIX_MONTHS()":"453eccea","MULTIPLIER_THREE_MONTHS()":"a7fa6f98","MULTIPLIER_TWO_MONTHS()":"54de2320","PRECISION()":"aaf5eb68","SLASHER_ROLE()":"5095af64","UPGRADE_INTERFACE_VERSION()":"ad3cb1cc","addBlueprint(uint64)":"c7353025","addBlueprintToDelegation(uint256,uint64)":"23cc2700","addSlasher(address)":"68a9f19c","advanceRound()":"1ba9998b","claimDelegatorRewards()":"44d1480b","claimOperatorRewards()":"4c4ede2d","claimOperatorRewardsTo(address)":"7d6941c6","completeLeaving()":"d1736ba7","currentRound()":"8a19c8bc","delegate(address,uint256)":"026e402b","delegateWithOptions(address,address,uint256,uint8,uint64[])":"fd7d3dbc","delegationBondLessDelay()":"ba05bbf5","deposit()":"d0e30db0","depositAndDelegate(address)":"461cc23b","depositAndDelegateWithOptions(address,address,uint256,uint8,uint64[])":"fbec4861","depositERC20(address,uint256)":"97feb926","depositERC20WithLock(address,uint256,uint8)":"cb15038b","depositWithLock(uint8)":"f38c7c4e","disableAsset(address)":"70807528","enableAsset(address,uint256,uint256,uint256,uint16)":"354ebef9","executeDelegatorUnstake()":"007910d0","executeOperatorUnstake()":"b0dfce06","executeWithdraw()":"f8fd9795","getAssetConfig(address)":"6ec3ab67","getDelegation(address,address)":"15049a5a","getDelegationBlueprints(address,uint256)":"7b9996c5","getDelegations(address)":"31cc13ba","getDeposit(address,address)":"c35082a9","getLocks(address,address)":"0c8833ce","getOperatorBlueprints(address)":"dc972ccc","getOperatorDelegatedStake(address)":"8c5b4ae7","getOperatorDelegatorCount(address)":"486398c3","getOperatorDelegators(address)":"a299e298","getOperatorMetadata(address)":"2ee663b8","getOperatorRewardPool(address)":"03587c1d","getOperatorSelfStake(address)":"d673e0b9","getOperatorStake(address)":"e4e88de8","getPendingDelegatorRewards(address)":"168f6865","getPendingOperatorRewards(address)":"30224fc8","getPendingUnstakes(address)":"5722d512","getPendingWithdrawals(address)":"f340c0d0","getRoleAdmin(bytes32)":"248a9ca3","getSlashCount(address)":"66c36875","getSlashImpact(address,uint64,address)":"9494f426","getSlashRecord(address,uint64)":"a457af3d","getSnapshot(uint64,address)":"c07449e2","getTotalDelegation(address)":"fc5e7e09","grantRole(bytes32,address)":"2f2ff15d","hasRole(bytes32,address)":"91d14854","increaseStake()":"d9e257ef","initialize(address,uint256,uint256,uint16)":"cbb6d6bd","isOperator(address)":"6d70f7ae","isOperatorActive(address)":"eb473533","isSlasher(address)":"57601c5d","leaveDelegatorsDelay()":"db8a173a","leaveOperatorsDelay()":"4de8addc","meetsStakeRequirement(address,uint256)":"f46913bb","minOperatorStake()":"d775cb61","nativeEnabled()":"77ab2cf3","nextSlashId(address)":"96085673","notifyReward(address,uint64,uint256)":"a3b9c5c2","notifyRewardForBlueprint(address,uint64,uint64,uint256)":"3dcad9db","operatorAt(uint256)":"26142335","operatorCommissionBps()":"32273f61","operatorCount()":"7c6f3158","pause()":"8456cb59","paused()":"5c975abb","proxiableUUID()":"52d1902d","registerOperator()":"2acde098","registerOperatorWithAsset(address,uint256)":"e0a5825b","removeBlueprint(uint64)":"28e70ecc","removeBlueprintFromDelegation(uint256,uint64)":"859caa18","removeSlasher(address)":"aac6aa9c","renounceRole(bytes32,address)":"36568abe","revokeRole(bytes32,address)":"d547741f","rewardsManager()":"defe2053","roundDuration()":"f7cb789a","scheduleDelegatorUnstake(address,address,uint256)":"fc8a91af","scheduleOperatorUnstake(uint256)":"44aff252","scheduleWithdraw(address,uint256)":"e1ee4bcc","setDelays(uint64,uint64,uint64)":"03780211","setOperatorCommission(uint16)":"f3c4d8a0","setRewardsManager(address)":"0a8ddc5e","slash(address,uint64,uint256,bytes32)":"356924ea","slashForBlueprint(address,uint64,uint64,uint256,bytes32)":"8d795d50","slashHistory(address,uint64)":"0aa8b110","snapshotOperator(address)":"cadd550c","startLeaving()":"87703550","supportsInterface(bytes4)":"01ffc9a7","undelegate(address,uint256)":"4d99dd16","unpause()":"3f4ba83a","upgradeToAndCall(address,bytes)":"4f1ef286"},"id":169}