{"abi":[{"type":"constructor","inputs":[],"stateMutability":"nonpayable"},{"type":"fallback","stateMutability":"payable"},{"type":"receive","stateMutability":"payable"},{"type":"function","name":"ADMIN_ROLE","inputs":[],"outputs":[{"name":"","type":"bytes32","internalType":"bytes32"}],"stateMutability":"view"},{"type":"function","name":"ASSET_MANAGER_ROLE","inputs":[],"outputs":[{"name":"","type":"bytes32","internalType":"bytes32"}],"stateMutability":"view"},{"type":"function","name":"BPS_DENOMINATOR","inputs":[],"outputs":[{"name":"","type":"uint256","internalType":"uint256"}],"stateMutability":"view"},{"type":"function","name":"COMMISSION_CHANGE_DELAY","inputs":[],"outputs":[{"name":"","type":"uint64","internalType":"uint64"}],"stateMutability":"view"},{"type":"function","name":"DEFAULT_ADMIN_ROLE","inputs":[],"outputs":[{"name":"","type":"bytes32","internalType":"bytes32"}],"stateMutability":"view"},{"type":"function","name":"LOCK_ONE_MONTH","inputs":[],"outputs":[{"name":"","type":"uint64","internalType":"uint64"}],"stateMutability":"view"},{"type":"function","name":"LOCK_SIX_MONTHS","inputs":[],"outputs":[{"name":"","type":"uint64","internalType":"uint64"}],"stateMutability":"view"},{"type":"function","name":"LOCK_THREE_MONTHS","inputs":[],"outputs":[{"name":"","type":"uint64","internalType":"uint64"}],"stateMutability":"view"},{"type":"function","name":"LOCK_TWO_MONTHS","inputs":[],"outputs":[{"name":"","type":"uint64","internalType":"uint64"}],"stateMutability":"view"},{"type":"function","name":"MIN_LOCK_AMOUNT","inputs":[],"outputs":[{"name":"","type":"uint256","internalType":"uint256"}],"stateMutability":"view"},{"type":"function","name":"MULTIPLIER_NONE","inputs":[],"outputs":[{"name":"","type":"uint16","internalType":"uint16"}],"stateMutability":"view"},{"type":"function","name":"MULTIPLIER_ONE_MONTH","inputs":[],"outputs":[{"name":"","type":"uint16","internalType":"uint16"}],"stateMutability":"view"},{"type":"function","name":"MULTIPLIER_SIX_MONTHS","inputs":[],"outputs":[{"name":"","type":"uint16","internalType":"uint16"}],"stateMutability":"view"},{"type":"function","name":"MULTIPLIER_THREE_MONTHS","inputs":[],"outputs":[{"name":"","type":"uint16","internalType":"uint16"}],"stateMutability":"view"},{"type":"function","name":"MULTIPLIER_TWO_MONTHS","inputs":[],"outputs":[{"name":"","type":"uint16","internalType":"uint16"}],"stateMutability":"view"},{"type":"function","name":"PRECISION","inputs":[],"outputs":[{"name":"","type":"uint256","internalType":"uint256"}],"stateMutability":"view"},{"type":"function","name":"SLASHER_ROLE","inputs":[],"outputs":[{"name":"","type":"bytes32","internalType":"bytes32"}],"stateMutability":"view"},{"type":"function","name":"TANGLE_ROLE","inputs":[],"outputs":[{"name":"","type":"bytes32","internalType":"bytes32"}],"stateMutability":"view"},{"type":"function","name":"UPGRADE_INTERFACE_VERSION","inputs":[],"outputs":[{"name":"","type":"string","internalType":"string"}],"stateMutability":"view"},{"type":"function","name":"VIRTUAL_ASSETS","inputs":[],"outputs":[{"name":"","type":"uint256","internalType":"uint256"}],"stateMutability":"view"},{"type":"function","name":"VIRTUAL_SHARES","inputs":[],"outputs":[{"name":"","type":"uint256","internalType":"uint256"}],"stateMutability":"view"},{"type":"function","name":"blueprintSlashCount","inputs":[{"name":"","type":"uint64","internalType":"uint64"},{"name":"","type":"address","internalType":"address"}],"outputs":[{"name":"","type":"uint64","internalType":"uint64"}],"stateMutability":"view"},{"type":"function","name":"clearFacetSelectors","inputs":[{"name":"selectors","type":"bytes4[]","internalType":"bytes4[]"}],"outputs":[],"stateMutability":"nonpayable"},{"type":"function","name":"currentRound","inputs":[],"outputs":[{"name":"","type":"uint64","internalType":"uint64"}],"stateMutability":"view"},{"type":"function","name":"delegationBondLessDelay","inputs":[],"outputs":[{"name":"","type":"uint64","internalType":"uint64"}],"stateMutability":"view"},{"type":"function","name":"facetForSelector","inputs":[{"name":"selector","type":"bytes4","internalType":"bytes4"}],"outputs":[{"name":"","type":"address","internalType":"address"}],"stateMutability":"view"},{"type":"function","name":"getAccumulatedDust","inputs":[{"name":"token","type":"address","internalType":"address"}],"outputs":[{"name":"","type":"uint256","internalType":"uint256"}],"stateMutability":"view"},{"type":"function","name":"getAssetAdapter","inputs":[{"name":"token","type":"address","internalType":"address"}],"outputs":[{"name":"","type":"address","internalType":"address"}],"stateMutability":"view"},{"type":"function","name":"getOperatorSlashFactor","inputs":[{"name":"operator","type":"address","internalType":"address"},{"name":"assetHash","type":"bytes32","internalType":"bytes32"}],"outputs":[{"name":"","type":"uint256","internalType":"uint256"}],"stateMutability":"view"},{"type":"function","name":"getPendingSlashCount","inputs":[{"name":"operator","type":"address","internalType":"address"}],"outputs":[{"name":"","type":"uint64","internalType":"uint64"}],"stateMutability":"view"},{"type":"function","name":"getRoleAdmin","inputs":[{"name":"role","type":"bytes32","internalType":"bytes32"}],"outputs":[{"name":"","type":"bytes32","internalType":"bytes32"}],"stateMutability":"view"},{"type":"function","name":"getSlashCount","inputs":[{"name":"operator","type":"address","internalType":"address"}],"outputs":[{"name":"","type":"uint64","internalType":"uint64"}],"stateMutability":"view"},{"type":"function","name":"getSlashCountForBlueprint","inputs":[{"name":"blueprintId","type":"uint64","internalType":"uint64"},{"name":"operator","type":"address","internalType":"address"}],"outputs":[{"name":"","type":"uint64","internalType":"uint64"}],"stateMutability":"view"},{"type":"function","name":"getSlashCountForService","inputs":[{"name":"serviceId","type":"uint64","internalType":"uint64"},{"name":"operator","type":"address","internalType":"address"}],"outputs":[{"name":"","type":"uint64","internalType":"uint64"}],"stateMutability":"view"},{"type":"function","name":"getSlashImpact","inputs":[{"name":"operator","type":"address","internalType":"address"},{"name":"slashId","type":"uint64","internalType":"uint64"},{"name":"delegator","type":"address","internalType":"address"}],"outputs":[{"name":"lostAmount","type":"uint256","internalType":"uint256"}],"stateMutability":"view"},{"type":"function","name":"getSlashRecord","inputs":[{"name":"operator","type":"address","internalType":"address"},{"name":"slashId","type":"uint64","internalType":"uint64"}],"outputs":[{"name":"","type":"tuple","internalType":"struct SlashingManager.SlashRecord","components":[{"name":"round","type":"uint64","internalType":"uint64"},{"name":"serviceId","type":"uint64","internalType":"uint64"},{"name":"blueprintId","type":"uint64","internalType":"uint64"},{"name":"assetHash","type":"bytes32","internalType":"bytes32"},{"name":"slashBps","type":"uint16","internalType":"uint16"},{"name":"totalSlashed","type":"uint256","internalType":"uint256"},{"name":"exchangeRateBefore","type":"uint256","internalType":"uint256"},{"name":"exchangeRateAfter","type":"uint256","internalType":"uint256"},{"name":"evidence","type":"bytes32","internalType":"bytes32"}]}],"stateMutability":"view"},{"type":"function","name":"getSnapshot","inputs":[{"name":"round","type":"uint64","internalType":"uint64"},{"name":"operator","type":"address","internalType":"address"}],"outputs":[{"name":"","type":"tuple","internalType":"struct Types.OperatorSnapshot","components":[{"name":"stake","type":"uint256","internalType":"uint256"},{"name":"totalDelegated","type":"uint256","internalType":"uint256"}]}],"stateMutability":"view"},{"type":"function","name":"grantRole","inputs":[{"name":"role","type":"bytes32","internalType":"bytes32"},{"name":"account","type":"address","internalType":"address"}],"outputs":[],"stateMutability":"nonpayable"},{"type":"function","name":"hasRole","inputs":[{"name":"role","type":"bytes32","internalType":"bytes32"},{"name":"account","type":"address","internalType":"address"}],"outputs":[{"name":"","type":"bool","internalType":"bool"}],"stateMutability":"view"},{"type":"function","name":"initialize","inputs":[{"name":"admin","type":"address","internalType":"address"},{"name":"nativeMinOperatorStake","type":"uint256","internalType":"uint256"},{"name":"nativeMinDelegation","type":"uint256","internalType":"uint256"},{"name":"_operatorCommissionBps","type":"uint16","internalType":"uint16"}],"outputs":[],"stateMutability":"nonpayable"},{"type":"function","name":"lastRoundAdvance","inputs":[],"outputs":[{"name":"","type":"uint64","internalType":"uint64"}],"stateMutability":"view"},{"type":"function","name":"leaveDelegatorsDelay","inputs":[],"outputs":[{"name":"","type":"uint64","internalType":"uint64"}],"stateMutability":"view"},{"type":"function","name":"leaveOperatorsDelay","inputs":[],"outputs":[{"name":"","type":"uint64","internalType":"uint64"}],"stateMutability":"view"},{"type":"function","name":"nativeEnabled","inputs":[],"outputs":[{"name":"","type":"bool","internalType":"bool"}],"stateMutability":"view"},{"type":"function","name":"nextSlashId","inputs":[{"name":"","type":"address","internalType":"address"}],"outputs":[{"name":"","type":"uint64","internalType":"uint64"}],"stateMutability":"view"},{"type":"function","name":"operatorCommissionBps","inputs":[],"outputs":[{"name":"","type":"uint16","internalType":"uint16"}],"stateMutability":"view"},{"type":"function","name":"paused","inputs":[],"outputs":[{"name":"","type":"bool","internalType":"bool"}],"stateMutability":"view"},{"type":"function","name":"proxiableUUID","inputs":[],"outputs":[{"name":"","type":"bytes32","internalType":"bytes32"}],"stateMutability":"view"},{"type":"function","name":"registerFacet","inputs":[{"name":"facet","type":"address","internalType":"address"}],"outputs":[],"stateMutability":"nonpayable"},{"type":"function","name":"registerFacetSelectors","inputs":[{"name":"facet","type":"address","internalType":"address"},{"name":"selectors","type":"bytes4[]","internalType":"bytes4[]"}],"outputs":[],"stateMutability":"nonpayable"},{"type":"function","name":"renounceRole","inputs":[{"name":"role","type":"bytes32","internalType":"bytes32"},{"name":"callerConfirmation","type":"address","internalType":"address"}],"outputs":[],"stateMutability":"nonpayable"},{"type":"function","name":"requireAdapters","inputs":[],"outputs":[{"name":"","type":"bool","internalType":"bool"}],"stateMutability":"view"},{"type":"function","name":"revokeRole","inputs":[{"name":"role","type":"bytes32","internalType":"bytes32"},{"name":"account","type":"address","internalType":"address"}],"outputs":[],"stateMutability":"nonpayable"},{"type":"function","name":"roundDuration","inputs":[],"outputs":[{"name":"","type":"uint64","internalType":"uint64"}],"stateMutability":"view"},{"type":"function","name":"serviceSlashCount","inputs":[{"name":"","type":"uint64","internalType":"uint64"},{"name":"","type":"address","internalType":"address"}],"outputs":[{"name":"","type":"uint64","internalType":"uint64"}],"stateMutability":"view"},{"type":"function","name":"slashHistory","inputs":[{"name":"","type":"address","internalType":"address"},{"name":"","type":"uint64","internalType":"uint64"}],"outputs":[{"name":"round","type":"uint64","internalType":"uint64"},{"name":"serviceId","type":"uint64","internalType":"uint64"},{"name":"blueprintId","type":"uint64","internalType":"uint64"},{"name":"assetHash","type":"bytes32","internalType":"bytes32"},{"name":"slashBps","type":"uint16","internalType":"uint16"},{"name":"totalSlashed","type":"uint256","internalType":"uint256"},{"name":"exchangeRateBefore","type":"uint256","internalType":"uint256"},{"name":"exchangeRateAfter","type":"uint256","internalType":"uint256"},{"name":"evidence","type":"bytes32","internalType":"bytes32"}],"stateMutability":"view"},{"type":"function","name":"supportsInterface","inputs":[{"name":"interfaceId","type":"bytes4","internalType":"bytes4"}],"outputs":[{"name":"","type":"bool","internalType":"bool"}],"stateMutability":"view"},{"type":"function","name":"upgradeToAndCall","inputs":[{"name":"newImplementation","type":"address","internalType":"address"},{"name":"data","type":"bytes","internalType":"bytes"}],"outputs":[],"stateMutability":"payable"},{"type":"event","name":"BlueprintAddedToDelegation","inputs":[{"name":"delegator","type":"address","indexed":true,"internalType":"address"},{"name":"delegationIndex","type":"uint256","indexed":true,"internalType":"uint256"},{"name":"blueprintId","type":"uint64","indexed":false,"internalType":"uint64"}],"anonymous":false},{"type":"event","name":"BlueprintRemovedFromDelegation","inputs":[{"name":"delegator","type":"address","indexed":true,"internalType":"address"},{"name":"delegationIndex","type":"uint256","indexed":true,"internalType":"uint256"},{"name":"blueprintId","type":"uint64","indexed":false,"internalType":"uint64"}],"anonymous":false},{"type":"event","name":"Delegated","inputs":[{"name":"delegator","type":"address","indexed":true,"internalType":"address"},{"name":"operator","type":"address","indexed":true,"internalType":"address"},{"name":"token","type":"address","indexed":true,"internalType":"address"},{"name":"amount","type":"uint256","indexed":false,"internalType":"uint256"},{"name":"shares","type":"uint256","indexed":false,"internalType":"uint256"},{"name":"selectionMode","type":"uint8","indexed":false,"internalType":"enum Types.BlueprintSelectionMode"}],"anonymous":false},{"type":"event","name":"DelegatorUnstakeExecuted","inputs":[{"name":"delegator","type":"address","indexed":true,"internalType":"address"},{"name":"operator","type":"address","indexed":true,"internalType":"address"},{"name":"token","type":"address","indexed":true,"internalType":"address"},{"name":"shares","type":"uint256","indexed":false,"internalType":"uint256"},{"name":"amount","type":"uint256","indexed":false,"internalType":"uint256"}],"anonymous":false},{"type":"event","name":"DelegatorUnstakeScheduled","inputs":[{"name":"delegator","type":"address","indexed":true,"internalType":"address"},{"name":"operator","type":"address","indexed":true,"internalType":"address"},{"name":"token","type":"address","indexed":true,"internalType":"address"},{"name":"shares","type":"uint256","indexed":false,"internalType":"uint256"},{"name":"estimatedAmount","type":"uint256","indexed":false,"internalType":"uint256"},{"name":"readyRound","type":"uint64","indexed":false,"internalType":"uint64"}],"anonymous":false},{"type":"event","name":"Deposited","inputs":[{"name":"delegator","type":"address","indexed":true,"internalType":"address"},{"name":"token","type":"address","indexed":true,"internalType":"address"},{"name":"amount","type":"uint256","indexed":false,"internalType":"uint256"},{"name":"lock","type":"uint8","indexed":false,"internalType":"enum Types.LockMultiplier"}],"anonymous":false},{"type":"event","name":"DustAccumulated","inputs":[{"name":"token","type":"address","indexed":true,"internalType":"address"},{"name":"amount","type":"uint256","indexed":false,"internalType":"uint256"},{"name":"totalDust","type":"uint256","indexed":false,"internalType":"uint256"}],"anonymous":false},{"type":"event","name":"DustSwept","inputs":[{"name":"token","type":"address","indexed":true,"internalType":"address"},{"name":"recipient","type":"address","indexed":true,"internalType":"address"},{"name":"amount","type":"uint256","indexed":false,"internalType":"uint256"}],"anonymous":false},{"type":"event","name":"ExpiredLocksHarvested","inputs":[{"name":"delegator","type":"address","indexed":true,"internalType":"address"},{"name":"token","type":"address","indexed":true,"internalType":"address"},{"name":"count","type":"uint256","indexed":false,"internalType":"uint256"},{"name":"totalAmount","type":"uint256","indexed":false,"internalType":"uint256"}],"anonymous":false},{"type":"event","name":"FacetRegistered","inputs":[{"name":"facet","type":"address","indexed":true,"internalType":"address"}],"anonymous":false},{"type":"event","name":"FacetSelectorCleared","inputs":[{"name":"selector","type":"bytes4","indexed":true,"internalType":"bytes4"}],"anonymous":false},{"type":"event","name":"FacetSelectorSet","inputs":[{"name":"selector","type":"bytes4","indexed":true,"internalType":"bytes4"},{"name":"facet","type":"address","indexed":true,"internalType":"address"}],"anonymous":false},{"type":"event","name":"Initialized","inputs":[{"name":"version","type":"uint64","indexed":false,"internalType":"uint64"}],"anonymous":false},{"type":"event","name":"OperatorBlueprintAdded","inputs":[{"name":"operator","type":"address","indexed":true,"internalType":"address"},{"name":"blueprintId","type":"uint64","indexed":true,"internalType":"uint64"}],"anonymous":false},{"type":"event","name":"OperatorBlueprintRemoved","inputs":[{"name":"operator","type":"address","indexed":true,"internalType":"address"},{"name":"blueprintId","type":"uint64","indexed":true,"internalType":"uint64"}],"anonymous":false},{"type":"event","name":"OperatorLeavingScheduled","inputs":[{"name":"operator","type":"address","indexed":true,"internalType":"address"},{"name":"readyRound","type":"uint64","indexed":false,"internalType":"uint64"}],"anonymous":false},{"type":"event","name":"OperatorLeft","inputs":[{"name":"operator","type":"address","indexed":true,"internalType":"address"}],"anonymous":false},{"type":"event","name":"OperatorRegistered","inputs":[{"name":"operator","type":"address","indexed":true,"internalType":"address"},{"name":"stake","type":"uint256","indexed":false,"internalType":"uint256"}],"anonymous":false},{"type":"event","name":"OperatorStakeIncreased","inputs":[{"name":"operator","type":"address","indexed":true,"internalType":"address"},{"name":"amount","type":"uint256","indexed":false,"internalType":"uint256"}],"anonymous":false},{"type":"event","name":"OperatorUnstakeExecuted","inputs":[{"name":"operator","type":"address","indexed":true,"internalType":"address"},{"name":"amount","type":"uint256","indexed":false,"internalType":"uint256"}],"anonymous":false},{"type":"event","name":"OperatorUnstakeScheduled","inputs":[{"name":"operator","type":"address","indexed":true,"internalType":"address"},{"name":"amount","type":"uint256","indexed":false,"internalType":"uint256"},{"name":"readyRound","type":"uint64","indexed":false,"internalType":"uint64"}],"anonymous":false},{"type":"event","name":"Paused","inputs":[{"name":"account","type":"address","indexed":false,"internalType":"address"}],"anonymous":false},{"type":"event","name":"PendingSlashDecremented","inputs":[{"name":"operator","type":"address","indexed":true,"internalType":"address"},{"name":"newCount","type":"uint64","indexed":false,"internalType":"uint64"}],"anonymous":false},{"type":"event","name":"PendingSlashIncremented","inputs":[{"name":"operator","type":"address","indexed":true,"internalType":"address"},{"name":"newCount","type":"uint64","indexed":false,"internalType":"uint64"}],"anonymous":false},{"type":"event","name":"RoleAdminChanged","inputs":[{"name":"role","type":"bytes32","indexed":true,"internalType":"bytes32"},{"name":"previousAdminRole","type":"bytes32","indexed":true,"internalType":"bytes32"},{"name":"newAdminRole","type":"bytes32","indexed":true,"internalType":"bytes32"}],"anonymous":false},{"type":"event","name":"RoleGranted","inputs":[{"name":"role","type":"bytes32","indexed":true,"internalType":"bytes32"},{"name":"account","type":"address","indexed":true,"internalType":"address"},{"name":"sender","type":"address","indexed":true,"internalType":"address"}],"anonymous":false},{"type":"event","name":"RoleRevoked","inputs":[{"name":"role","type":"bytes32","indexed":true,"internalType":"bytes32"},{"name":"account","type":"address","indexed":true,"internalType":"address"},{"name":"sender","type":"address","indexed":true,"internalType":"address"}],"anonymous":false},{"type":"event","name":"SlashRecorded","inputs":[{"name":"operator","type":"address","indexed":true,"internalType":"address"},{"name":"slashId","type":"uint64","indexed":true,"internalType":"uint64"},{"name":"assetHash","type":"bytes32","indexed":false,"internalType":"bytes32"},{"name":"slashBps","type":"uint16","indexed":false,"internalType":"uint16"},{"name":"totalSlashed","type":"uint256","indexed":false,"internalType":"uint256"},{"name":"exchangeRateBefore","type":"uint256","indexed":false,"internalType":"uint256"},{"name":"exchangeRateAfter","type":"uint256","indexed":false,"internalType":"uint256"}],"anonymous":false},{"type":"event","name":"Slashed","inputs":[{"name":"operator","type":"address","indexed":true,"internalType":"address"},{"name":"serviceId","type":"uint64","indexed":true,"internalType":"uint64"},{"name":"blueprintId","type":"uint64","indexed":true,"internalType":"uint64"},{"name":"assetHash","type":"bytes32","indexed":false,"internalType":"bytes32"},{"name":"slashBps","type":"uint16","indexed":false,"internalType":"uint16"},{"name":"operatorSlashed","type":"uint256","indexed":false,"internalType":"uint256"},{"name":"delegatorsSlashed","type":"uint256","indexed":false,"internalType":"uint256"},{"name":"exchangeRateAfter","type":"uint256","indexed":false,"internalType":"uint256"}],"anonymous":false},{"type":"event","name":"SlashedForService","inputs":[{"name":"operator","type":"address","indexed":true,"internalType":"address"},{"name":"serviceId","type":"uint64","indexed":true,"internalType":"uint64"},{"name":"blueprintId","type":"uint64","indexed":true,"internalType":"uint64"},{"name":"totalSlashed","type":"uint256","indexed":false,"internalType":"uint256"},{"name":"commitmentCount","type":"uint256","indexed":false,"internalType":"uint256"}],"anonymous":false},{"type":"event","name":"Unpaused","inputs":[{"name":"account","type":"address","indexed":false,"internalType":"address"}],"anonymous":false},{"type":"event","name":"Upgraded","inputs":[{"name":"implementation","type":"address","indexed":true,"internalType":"address"}],"anonymous":false},{"type":"event","name":"WithdrawScheduled","inputs":[{"name":"delegator","type":"address","indexed":true,"internalType":"address"},{"name":"token","type":"address","indexed":true,"internalType":"address"},{"name":"amount","type":"uint256","indexed":false,"internalType":"uint256"},{"name":"readyRound","type":"uint64","indexed":false,"internalType":"uint64"}],"anonymous":false},{"type":"event","name":"Withdrawn","inputs":[{"name":"delegator","type":"address","indexed":true,"internalType":"address"},{"name":"token","type":"address","indexed":true,"internalType":"address"},{"name":"amount","type":"uint256","indexed":false,"internalType":"uint256"}],"anonymous":false},{"type":"error","name":"AccessControlBadConfirmation","inputs":[]},{"type":"error","name":"AccessControlUnauthorizedAccount","inputs":[{"name":"account","type":"address","internalType":"address"},{"name":"neededRole","type":"bytes32","internalType":"bytes32"}]},{"type":"error","name":"AddressEmptyCode","inputs":[{"name":"target","type":"address","internalType":"address"}]},{"type":"error","name":"ERC1967InvalidImplementation","inputs":[{"name":"implementation","type":"address","internalType":"address"}]},{"type":"error","name":"ERC1967NonPayable","inputs":[]},{"type":"error","name":"EnforcedPause","inputs":[]},{"type":"error","name":"ExpectedPause","inputs":[]},{"type":"error","name":"FailedCall","inputs":[]},{"type":"error","name":"InvalidInitialization","inputs":[]},{"type":"error","name":"NotAContract","inputs":[{"name":"account","type":"address","internalType":"address"}]},{"type":"error","name":"NotInitializing","inputs":[]},{"type":"error","name":"ReentrancyGuardReentrantCall","inputs":[]},{"type":"error","name":"SelectorAlreadyRegistered","inputs":[{"name":"selector","type":"bytes4","internalType":"bytes4"},{"name":"existingFacet","type":"address","internalType":"address"}]},{"type":"error","name":"UUPSUnauthorizedCallContext","inputs":[]},{"type":"error","name":"UUPSUnsupportedProxiableUUID","inputs":[{"name":"slot","type":"bytes32","internalType":"bytes32"}]},{"type":"error","name":"UnknownSelector","inputs":[{"name":"selector","type":"bytes4","internalType":"bytes4"}]},{"type":"error","name":"ZeroAddress","inputs":[]}],"bytecode":{"object":"0x60a080604052346100e857306080527ff0c57e16840df040f15088dc2f81fe391c3923bec73e23a9662efc9c229c6a005460ff8160401c166100d9576002600160401b03196001600160401b03821601610073575b60405161242890816100ed8239608051818181610aff01526115fd0152f35b6001600160401b0319166001600160401b039081177ff0c57e16840df040f15088dc2f81fe391c3923bec73e23a9662efc9c229c6a005581527fc7f505b2f371ae2175ee4913f4499e1f2633a7b5936321eed1cdaeb6115181d290602090a15f80610054565b63f92ee8a960e01b5f5260045ffd5b5f80fdfe60806040526004361015610015575b36611add57005b5f3560e01c806301ffc9a7146103a057806305d64e381461039b5780630aa8b1101461039657806312d91c881461039157806318056dc21461038c57806319e82e6114610387578063248a9ca3146103825780632f2ff15d1461037d57806332273f611461037857806336568abe14610373578063453eccea1461036e57806346d163aa1461036957806349147411146103645780634962f88f146102a15780634de8addc1461035f5780634e9c929a146102c95780634f1ef2861461035a5780635095af641461035557806352d1902d1461035057806354de23201461034b5780635c975abb14610346578063602356e31461034157806366c368751461030a57806372b5032d1461030557806375b238fc1461033c57806377ab2cf3146103375780637df92ada1461033257806388c47f681461032d5780638a19c8bc146103285780638a7fe60f1461032357806390837ff41461031e57806391d14854146103195780639480e4dd146103145780639494f4261461030f578063960856731461030a5780639722f4b9146103055780639e87058514610300578063a217fddf146102fb578063a457af3d146102f6578063a4b32de8146102f1578063a7fa6f98146102ec578063aaf5eb68146102e7578063ad3cb1cc146102e2578063b54b2b9e146102dd578063b6608409146102d8578063ba05bbf5146102d3578063c07449e2146102ce578063c550d938146102c9578063cbb6d6bd146102c4578063d27a6f06146102bf578063d45ff582146102ba578063d547741f146102b5578063db8a173a146102b0578063dd764abf146102ab578063e07dec29146102a6578063e1a45218146102a1578063f3c9b3111461029c5763f7cb789a0361000e57611594565b611577565b6108e2565b6114aa565b611489565b611463565b611432565b611415565b6113f8565b611277565b610927565b6111db565b6111bc565b6111a1565b61117f565b611121565b6110ff565b6110e3565b6110a9565b610f5a565b610eb5565b610e98565b610c2b565b610bea565b610e57565b610e16565b610dbb565b610d77565b610d37565b610d12565b610cf4565b610cd7565b610cb5565b610c7b565b610bb0565b610b6f565b610b53565b610aed565b610ab3565b610a3d565b6108fe565b6108aa565b610781565b610765565b610721565b6106fd565b6106c7565b6106a9565b61060d565b6105c1565b610562565b610491565b610411565b6103bb565b6001600160e01b03198116036103b757565b5f80fd5b346103b75760203660031901126103b75760206004356103da816103a5565b63ffffffff60e01b16637965db0b60e01b8114908115610400575b506040519015158152f35b6301ffc9a760e01b1490505f6103f5565b346103b7575f3660031901126103b75760206001600160401b035f5460801c16604051908152f35b600435906001600160a01b03821682036103b757565b602435906001600160a01b03821682036103b757565b602435906001600160401b03821682036103b757565b600435906001600160401b03821682036103b757565b346103b75760403660031901126103b7576104df6104ad610439565b6104b5610465565b9060018060a01b03165f52605560205260405f20906001600160401b03165f5260205260405f2090565b805460018201546002830154600384015460048501546005860154600690960154604080516001600160401b03808916825288831c81166020830152608098891c1691810191909152606081019590955261ffff9093169484019490945260a083015260c082019290925260e081019290925261010082015261012090f35b0390f35b346103b75760403660031901126103b75761057b610439565b6001600160a01b03165f9081526011602090815260408083206024358452909152902054806105b957506020670de0b6b3a76400005b604051908152f35b6020906105b1565b346103b7575f3660031901126103b7576020604051612af88152f35b9181601f840112156103b7578235916001600160401b0383116103b7576020808501948460051b0101116103b757565b346103b75760403660031901126103b757610626610439565b6024356001600160401b0381116103b7576106459036906004016105dd565b9161064e611b37565b610657836115bc565b9161066560405193846109d1565b838352602083019360051b8101903682116103b757935b81851061068f5761068d8484611c00565b005b60208091863561069e816103a5565b81520194019361067c565b346103b75760203660031901126103b75760206105b16004356115d3565b346103b75760403660031901126103b75761068d6004356106e661044f565b906106f86106f3826115d3565b611ba6565b611f8b565b346103b7575f3660031901126103b757602061ffff60015460801c16604051908152f35b346103b75760403660031901126103b75760043561073d61044f565b336001600160a01b038216036107565761068d91612020565b63334bd91960e11b5f5260045ffd5b346103b7575f3660031901126103b7576020604051613e808152f35b346103b75760203660031901126103b75761079a610439565b6107a2611b37565b604051630dc4b72f60e31b8152906001600160a01b038116905f83600481855afa90811561089f575f91610801575b906107db91611c00565b7f4d3c30f5993f1922a779345a0f7ec1a170f1e52e9d230824f9c17e63596c906d5f80a2005b90503d805f853e61081281856109d1565b8301926020818503126103b7578051906001600160401b0382116103b7570183601f820112156103b757805193610848856115bc565b9161085660405193846109d1565b85835260208084019660051b8201019182116103b757602001945b8186106108855750929350839250906107d1565b602080918751610894816103a5565b815201950194610871565b6040513d5f823e3d90fd5b346103b75760203660031901126103b7576001600160a01b036108cb610439565b165f52601b602052602060405f2054604051908152f35b346103b7575f3660031901126103b75760206040516127108152f35b346103b7575f3660031901126103b75760206001600160401b0360015460401c16604051908152f35b346103b75760403660031901126103b75760206001600160401b0361097761094d61047b565b8261095661044f565b91165f526058845260405f209060018060a01b03165f5260205260405f2090565b5416604051908152f35b634e487b7160e01b5f52604160045260245ffd5b61012081019081106001600160401b038211176109b157604052565b610981565b604081019081106001600160401b038211176109b157604052565b90601f801991011681019081106001600160401b038211176109b157604052565b60405190610a02610120836109d1565b565b60405190610a026040836109d1565b60405190610a0260c0836109d1565b6001600160401b0381116109b157601f01601f191660200190565b60403660031901126103b757610a51610439565b602435906001600160401b0382116103b757366023830112156103b757816004013590610a7d82610a22565b91610a8b60405193846109d1565b80835236602482860101116103b7576020815f92602461068d970183870137840101526115f1565b346103b7575f3660031901126103b75760206040517f12b42e8a160f6064dc959c6f251e3af0750ad213dbecf573b4710d67d6c28e398152f35b346103b7575f3660031901126103b7577f00000000000000000000000000000000000000000000000000000000000000006001600160a01b03163003610b445760206040515f805160206123bc8339815191528152f35b63703e46dd60e11b5f5260045ffd5b346103b7575f3660031901126103b7576020604051612ee08152f35b346103b7575f3660031901126103b757602060ff7fcd5ed15c6e187e77e9aee88184c21f4f2182ab5827cb3b7e07fbedcd63f0330054166040519015158152f35b346103b7575f3660031901126103b75760206040517f19449a4ad57e40a5aa77e785b4539e53ba9e7fedbf7076388ee3fb1bc2ddea1b8152f35b346103b75760203660031901126103b7576001600160a01b03610c0b610439565b165f52605660205260206001600160401b0360405f205416604051908152f35b346103b75760403660031901126103b75760206001600160401b03610977610c5161047b565b82610c5a61044f565b91165f526057845260405f209060018060a01b03165f5260205260405f2090565b346103b7575f3660031901126103b75760206040517fa49807205ce4d355092ef5a8a18f56e8913cf4a201fbe287825b095693c217758152f35b346103b7575f3660031901126103b757602060ff600554166040519015158152f35b346103b7575f3660031901126103b7576020604051624f1a008152f35b346103b7575f3660031901126103b75760206040516305f5e1008152f35b346103b7575f3660031901126103b75760206001600160401b035f5416604051908152f35b346103b75760203660031901126103b7576001600160a01b03610d58610439565b165f526006602052602060018060a01b0360405f205416604051908152f35b346103b75760203660031901126103b757600435610d94816103a5565b63ffffffff60e01b165f526021602052602060018060a01b0360405f205416604051908152f35b346103b75760403660031901126103b757602060ff610e0a600435610dde61044f565b905f525f805160206123dc833981519152845260405f209060018060a01b03165f5260205260405f2090565b54166040519015158152f35b346103b75760203660031901126103b7576001600160a01b03610e37610439565b165f52602360205260206001600160401b0360405f205416604051908152f35b346103b75760603660031901126103b757610e70610439565b610e78610465565b906044356001600160a01b03811681036103b7576020926105b192611742565b346103b7575f3660031901126103b757602060405162278d008152f35b346103b7575f3660031901126103b75760206040515f8152f35b919091610100806101208301946001600160401b0381511684526001600160401b036020820151166020850152610f16604082015160408601906001600160401b03169052565b60608101516060850152610f356080820151608086019061ffff169052565b60a081015160a085015260c081015160c085015260e081015160e08501520151910152565b346103b75760403660031901126103b75761055e610fea610f79610439565b610f81610465565b905f610100604051610f9281610995565b8281528260208201528260408201528260608201528260808201528260a08201528260c08201528260e0820152015260018060a01b03165f52605560205260405f20906001600160401b03165f5260205260405f2090565b6006610ff46109f2565b91611050611040825461101d611010826001600160401b031690565b6001600160401b03168752565b6001600160401b03604082901c1660208701525b60801c6001600160401b031690565b6001600160401b03166040850152565b6001810154606084015261107761106c600283015461ffff1690565b61ffff166080850152565b600381015460a0840152600481015460c0840152600581015460e0840152015461010082015260405191829182610ecf565b346103b7575f3660031901126103b75760206040517fb1fadd3142ab2ad7f1337ea4d97112bcc8337fc11ce5b20cb04ad038adf998198152f35b346103b7575f3660031901126103b75760206040516132c88152f35b346103b7575f3660031901126103b7576020604051670de0b6b3a76400008152f35b346103b7575f3660031901126103b757604080519061114081836109d1565b600582526020820191640352e302e360dc1b83528151928391602083525180918160208501528484015e5f828201840152601f01601f19168101030190f35b346103b7575f3660031901126103b757602060ff600754166040519015158152f35b346103b7575f3660031901126103b757602060405160018152f35b346103b7575f3660031901126103b75760205f5460c01c604051908152f35b346103b75760403660031901126103b75761055e6112406111fa61047b565b6001600160401b0361120a61044f565b915f602060405161121a816109b6565b8281520152165f52601060205260405f209060018060a01b03165f5260205260405f2090565b60016040519161124f836109b6565b8054835201546020820152604051918291829190916020806040830194805184520151910152565b346103b75760803660031901126103b757611290610439565b6024359060643560443561ffff821682036103b7575f805160206123fc83398151915254936001600160401b036112d660ff604088901c1615966001600160401b031690565b16801590816113f0575b60011490816113e6575b1590816113dd575b506113ce57611335938561132c60016001600160401b03195f805160206123fc8339815191525416175f805160206123fc83398151915255565b611394576118a4565b61133b57005b61136560ff60401b195f805160206123fc83398151915254165f805160206123fc83398151915255565b604051600181527fc7f505b2f371ae2175ee4913f4499e1f2633a7b5936321eed1cdaeb6115181d290602090a1005b6113c96801000000000000000060ff60401b195f805160206123fc8339815191525416175f805160206123fc83398151915255565b6118a4565b63f92ee8a960e01b5f5260045ffd5b9050155f6112f2565b303b1591506112ea565b8691506112e0565b346103b7575f3660031901126103b75760206040516276a7008152f35b346103b7575f3660031901126103b757602060405162093a808152f35b346103b75760403660031901126103b75761068d60043561145161044f565b9061145e6106f3826115d3565b612020565b346103b7575f3660031901126103b75760206001600160401b0360015416604051908152f35b346103b7575f3660031901126103b7576020604051662386f26fc100008152f35b346103b75760203660031901126103b7576004356001600160401b0381116103b7576114da9036906004016105dd565b6114e2611b37565b5f5b8181106114ed57005b806114fb6001928486611abe565b35611505816103a5565b6001600160e01b0319165f90815260216020526040902080546001600160a01b031916905561154d61154061153b838688611abe565b611ad3565b6001600160e01b03191690565b7fbeb27701828f515b03069d44da6519b6c491da13ef1ca7082e619959d1f48ddb5f80a2016114e4565b346103b7575f3660031901126103b757602060405162ed4e008152f35b346103b7575f3660031901126103b75760206001600160401b035f5460401c16604051908152f35b6001600160401b0381116109b15760051b60200190565b5f525f805160206123dc833981519152602052600160405f20015490565b90916001600160a01b037f0000000000000000000000000000000000000000000000000000000000000000163081149081156116e7575b50610b4457611635611b37565b6040516352d1902d60e01b8152926020846004816001600160a01b0387165afa5f94816116b6575b5061168157634c9c8ce360e01b5f526001600160a01b03831660045260245ffd5b5ffd5b90915f805160206123bc83398151915284036116a257610a02929350612230565b632a87526960e21b5f52600484905260245ffd5b6116d991955060203d6020116116e0575b6116d181836109d1565b8101906120c0565b935f61165d565b503d6116c7565b5f805160206123bc833981519152546001600160a01b0316141590505f611628565b634e487b7160e01b5f52601160045260245ffd5b9190820391821161172a57565b611709565b8181029291811591840414171561172a57565b9092916117745f9460018060a01b0384165f52605560205260405f20906001600160401b03165f5260205260405f2090565b9061177d6109f2565b926117ce6117be84546117a6611799826001600160401b031690565b6001600160401b03168852565b6001600160401b03604082901c166020880152611031565b6001600160401b03166040860152565b6001830154606085019081526117f76117ec600286015461ffff1690565b61ffff166080870152565b600384015460a08601526001600160401b0361183d60048601549660c08101978852600660058801549760e083019889520154610100820152516001600160401b031690565b161561189a579061185092915191612126565b918215611892575190519081811161186757505050565b61188f939450611881929161187b9161171d565b9061172f565b670de0b6b3a7640000900490565b90565b505f93505050565b505f955050505050565b90611997611a21949361193d6119ee946118bc6122d2565b6118c46122d2565b6118cc6122d2565b6118d46122d2565b60ff197fcd5ed15c6e187e77e9aee88184c21f4f2182ab5827cb3b7e07fbedcd63f0330054167fcd5ed15c6e187e77e9aee88184c21f4f2182ab5827cb3b7e07fbedcd63f03300556119246121bc565b61192d81611d6d565b5061193781611e09565b50611eca565b50611957611949610a04565b5f81525f60208201526121f2565b90611960610a13565b6001815293602085015260408401525f60608401525f608084015261198960a084016127109052565b5f52600260205260405f2090565b90600561ffff60a081938051151560ff801988541691151516178655602081015160018701556040810151600287015560608101516003870155608081015160048701550151169201911661ffff19825416179055565b611a00600160ff196005541617600555565b6001805461ffff60801b191660809290921b61ffff60801b16919091179055565b611a3760016001600160401b03195f5416175f55565b611a5a695460000000000000000067ffffffffffffffff60401b195f5416175f55565b5f80546001600160c01b0316600760c21b179055611a86601c6001600160401b03196001541617600155565b610a026838000000000000000067ffffffffffffffff60401b196001541617600155565b634e487b7160e01b5f52603260045260245ffd5b9190811015611ace5760051b0190565b611aaa565b3561188f816103a5565b5f80356001600160e01b03191680825260216020526040909120546001600160a01b0316908115611b25575f8083368280378136915af43d5f803e15611b21573d5ff35b3d5ffd5b63c2a825f560e01b5f5260045260245ffd5b335f9081527fb16e88c42fd4e48df2dd6a2eabd6bc9aec654ec170056b470819f8892cc6431c602052604090205460ff1615611b6f57565b63e2517d3f60e01b5f52336004527fa49807205ce4d355092ef5a8a18f56e8913cf4a201fbe287825b095693c2177560245260445ffd5b5f8181525f805160206123dc8339815191526020908152604080832033845290915290205460ff1615611bd65750565b63e2517d3f60e01b5f523360045260245260445ffd5b8051821015611ace5760209160051b010190565b9091906001600160a01b038116908115611d5e57803b15611d43575f5b8451811015611d3c57611c6b611c5e611c47611c398489611bec565b516001600160e01b03191690565b63ffffffff60e01b165f52602160205260405f2090565b546001600160a01b031690565b6001600160a01b03811680151590859082611d31575b5050611cf9575080611cbe83611c9f611c47611c396001968b611bec565b80546001600160a01b0319166001600160a01b03909216919091179055565b83611ccf611540611c39848a611bec565b7f12557f25e458d9682d7c959b5a960bc9332e8b7af1120b54a333bfc1ff282b395f80a301611c1d565b611d09611c3961167e9388611bec565b6310ae11a960e31b5f526001600160e01b0319166004526001600160a01b0316602452604490565b14159050845f611c81565b5050509050565b6322a2d07b60e21b5f526001600160a01b031660045260245ffd5b63d92e233d60e01b5f5260045ffd5b6001600160a01b0381165f9081527fb7db2dd08fcb62d0c9e08c51941cae53c267786a0b75803fb7960902fc8ef97d602052604090205460ff16611e04576001600160a01b03165f8181527fb7db2dd08fcb62d0c9e08c51941cae53c267786a0b75803fb7960902fc8ef97d60205260408120805460ff191660011790553391905f8051602061239c8339815191528180a4600190565b505f90565b6001600160a01b0381165f9081527fb16e88c42fd4e48df2dd6a2eabd6bc9aec654ec170056b470819f8892cc6431c602052604090205460ff16611e04576001600160a01b0381165f9081527fb16e88c42fd4e48df2dd6a2eabd6bc9aec654ec170056b470819f8892cc6431c60205260409020805460ff1916600117905533906001600160a01b03167fa49807205ce4d355092ef5a8a18f56e8913cf4a201fbe287825b095693c217755f8051602061239c8339815191525f80a4600190565b6001600160a01b0381165f9081527f5bc841a6d925a620866922bada36d16da3dcc9d52290519ea1126e5ca2372139602052604090205460ff16611e04576001600160a01b0381165f9081527f5bc841a6d925a620866922bada36d16da3dcc9d52290519ea1126e5ca237213960205260409020805460ff1916600117905533906001600160a01b03167fb1fadd3142ab2ad7f1337ea4d97112bcc8337fc11ce5b20cb04ad038adf998195f8051602061239c8339815191525f80a4600190565b5f8181525f805160206123dc833981519152602090815260408083206001600160a01b038616845290915290205460ff1661201a575f8181525f805160206123dc833981519152602090815260408083206001600160a01b03861684529091529020805460ff1916600117905533916001600160a01b0316905f8051602061239c8339815191525f80a4600190565b50505f90565b5f8181525f805160206123dc833981519152602090815260408083206001600160a01b038616845290915290205460ff161561201a575f8181525f805160206123dc833981519152602090815260408083206001600160a01b03861684529091529020805460ff1916905533916001600160a01b0316907ff6391f5c32d9c69d2a47ea670b442974b53935d1edc7fd64eb21e047a839171b5f80a4600190565b908160209103126103b7575190565b906040516120dc816109b6565b80925460ff81169060028210156121055790825260081c6001600160a01b031660209190910152565b634e487b7160e01b5f52602160045260245ffd5b9190820180921161172a57565b6001600160a01b03165f90815260156020526040812080549094909390825b858110156121b3575f87815260209020600282901b0180546001600160a01b0387811691161480612197575b61217f575b50600101612145565b600191948261219092015490612119565b9390612176565b50836121ad6121a8600284016120cf565b6121f2565b14612171565b50935050925050565b6121c46122d2565b6121cc6122d2565b60017f9b779b17422d0df92223018b32b4d1fa46e071723d6817e2486d003becc55f0055565b805190600282101561210557602090810151604080519283019384526001600160a01b0390911682820152815261222a6060826109d1565b51902090565b90813b156122b1575f805160206123bc83398151915280546001600160a01b0319166001600160a01b0384169081179091557fbc7cd75a20ee27fd9adebab32041f755214dbc6bffa90cc0225b39da2e5c2d3b5f80a280511561229957612296916122fd565b50565b5050346122a257565b63b398979f60e01b5f5260045ffd5b50634c9c8ce360e01b5f9081526001600160a01b0391909116600452602490fd5b60ff5f805160206123fc8339815191525460401c16156122ee57565b631afcd79f60e31b5f5260045ffd5b5f8061188f93602081519101845af43d15612339573d9161231d83610a22565b9261232b60405194856109d1565b83523d5f602085013e61233d565b6060915b90612361575080511561235257805190602001fd5b63d6bda27560e01b5f5260045ffd5b81511580612392575b612372575090565b639996b31560e01b5f9081526001600160a01b0391909116600452602490fd5b50803b1561236a56fe2f8788117e7eff1d82e926ec794901d17c78024a50270940304540a733656f0d360894a13ba1a3210667c828492db98dca3e2076cc3735a920a3ca505d382bbc02dd7bc7dec4dceedda775e58dd541e08a116c6c53815c0bd028192f7b626800f0c57e16840df040f15088dc2f81fe391c3923bec73e23a9662efc9c229c6a00a164736f6c634300081a000a","linkReferences":{}},"methodIdentifiers":{"ADMIN_ROLE()":"75b238fc","ASSET_MANAGER_ROLE()":"a4b32de8","BPS_DENOMINATOR()":"e1a45218","COMMISSION_CHANGE_DELAY()":"d45ff582","DEFAULT_ADMIN_ROLE()":"a217fddf","LOCK_ONE_MONTH()":"9e870585","LOCK_SIX_MONTHS()":"f3c9b311","LOCK_THREE_MONTHS()":"d27a6f06","LOCK_TWO_MONTHS()":"7df92ada","MIN_LOCK_AMOUNT()":"dd764abf","MULTIPLIER_NONE()":"4962f88f","MULTIPLIER_ONE_MONTH()":"18056dc2","MULTIPLIER_SIX_MONTHS()":"453eccea","MULTIPLIER_THREE_MONTHS()":"a7fa6f98","MULTIPLIER_TWO_MONTHS()":"54de2320","PRECISION()":"aaf5eb68","SLASHER_ROLE()":"5095af64","TANGLE_ROLE()":"602356e3","UPGRADE_INTERFACE_VERSION()":"ad3cb1cc","VIRTUAL_ASSETS()":"b6608409","VIRTUAL_SHARES()":"88c47f68","blueprintSlashCount(uint64,address)":"4e9c929a","clearFacetSelectors(bytes4[])":"e07dec29","currentRound()":"8a19c8bc","delegationBondLessDelay()":"ba05bbf5","facetForSelector(bytes4)":"90837ff4","getAccumulatedDust(address)":"49147411","getAssetAdapter(address)":"8a7fe60f","getOperatorSlashFactor(address,bytes32)":"12d91c88","getPendingSlashCount(address)":"9480e4dd","getRoleAdmin(bytes32)":"248a9ca3","getSlashCount(address)":"66c36875","getSlashCountForBlueprint(uint64,address)":"c550d938","getSlashCountForService(uint64,address)":"72b5032d","getSlashImpact(address,uint64,address)":"9494f426","getSlashRecord(address,uint64)":"a457af3d","getSnapshot(uint64,address)":"c07449e2","grantRole(bytes32,address)":"2f2ff15d","hasRole(bytes32,address)":"91d14854","initialize(address,uint256,uint256,uint16)":"cbb6d6bd","lastRoundAdvance()":"05d64e38","leaveDelegatorsDelay()":"db8a173a","leaveOperatorsDelay()":"4de8addc","nativeEnabled()":"77ab2cf3","nextSlashId(address)":"96085673","operatorCommissionBps()":"32273f61","paused()":"5c975abb","proxiableUUID()":"52d1902d","registerFacet(address)":"46d163aa","registerFacetSelectors(address,bytes4[])":"19e82e61","renounceRole(bytes32,address)":"36568abe","requireAdapters()":"b54b2b9e","revokeRole(bytes32,address)":"d547741f","roundDuration()":"f7cb789a","serviceSlashCount(uint64,address)":"9722f4b9","slashHistory(address,uint64)":"0aa8b110","supportsInterface(bytes4)":"01ffc9a7","upgradeToAndCall(address,bytes)":"4f1ef286"},"id":173}