{"abi":[{"type":"constructor","inputs":[],"stateMutability":"nonpayable"},{"type":"receive","stateMutability":"payable"},{"type":"function","name":"ADMIN_ROLE","inputs":[],"outputs":[{"name":"","type":"bytes32","internalType":"bytes32"}],"stateMutability":"view"},{"type":"function","name":"ASSET_MANAGER_ROLE","inputs":[],"outputs":[{"name":"","type":"bytes32","internalType":"bytes32"}],"stateMutability":"view"},{"type":"function","name":"BPS_DENOMINATOR","inputs":[],"outputs":[{"name":"","type":"uint256","internalType":"uint256"}],"stateMutability":"view"},{"type":"function","name":"DEFAULT_ADMIN_ROLE","inputs":[],"outputs":[{"name":"","type":"bytes32","internalType":"bytes32"}],"stateMutability":"view"},{"type":"function","name":"LOCK_ONE_MONTH","inputs":[],"outputs":[{"name":"","type":"uint64","internalType":"uint64"}],"stateMutability":"view"},{"type":"function","name":"LOCK_SIX_MONTHS","inputs":[],"outputs":[{"name":"","type":"uint64","internalType":"uint64"}],"stateMutability":"view"},{"type":"function","name":"LOCK_THREE_MONTHS","inputs":[],"outputs":[{"name":"","type":"uint64","internalType":"uint64"}],"stateMutability":"view"},{"type":"function","name":"LOCK_TWO_MONTHS","inputs":[],"outputs":[{"name":"","type":"uint64","internalType":"uint64"}],"stateMutability":"view"},{"type":"function","name":"MULTIPLIER_NONE","inputs":[],"outputs":[{"name":"","type":"uint16","internalType":"uint16"}],"stateMutability":"view"},{"type":"function","name":"MULTIPLIER_ONE_MONTH","inputs":[],"outputs":[{"name":"","type":"uint16","internalType":"uint16"}],"stateMutability":"view"},{"type":"function","name":"MULTIPLIER_SIX_MONTHS","inputs":[],"outputs":[{"name":"","type":"uint16","internalType":"uint16"}],"stateMutability":"view"},{"type":"function","name":"MULTIPLIER_THREE_MONTHS","inputs":[],"outputs":[{"name":"","type":"uint16","internalType":"uint16"}],"stateMutability":"view"},{"type":"function","name":"MULTIPLIER_TWO_MONTHS","inputs":[],"outputs":[{"name":"","type":"uint16","internalType":"uint16"}],"stateMutability":"view"},{"type":"function","name":"PRECISION","inputs":[],"outputs":[{"name":"","type":"uint256","internalType":"uint256"}],"stateMutability":"view"},{"type":"function","name":"SLASHER_ROLE","inputs":[],"outputs":[{"name":"","type":"bytes32","internalType":"bytes32"}],"stateMutability":"view"},{"type":"function","name":"UPGRADE_INTERFACE_VERSION","inputs":[],"outputs":[{"name":"","type":"string","internalType":"string"}],"stateMutability":"view"},{"type":"function","name":"addBlueprint","inputs":[{"name":"blueprintId","type":"uint64","internalType":"uint64"}],"outputs":[],"stateMutability":"nonpayable"},{"type":"function","name":"addBlueprintToDelegation","inputs":[{"name":"delegationIndex","type":"uint256","internalType":"uint256"},{"name":"blueprintId","type":"uint64","internalType":"uint64"}],"outputs":[],"stateMutability":"nonpayable"},{"type":"function","name":"addSlasher","inputs":[{"name":"slasher","type":"address","internalType":"address"}],"outputs":[],"stateMutability":"nonpayable"},{"type":"function","name":"advanceRound","inputs":[],"outputs":[],"stateMutability":"nonpayable"},{"type":"function","name":"claimDelegatorRewards","inputs":[],"outputs":[],"stateMutability":"nonpayable"},{"type":"function","name":"claimOperatorRewards","inputs":[],"outputs":[],"stateMutability":"nonpayable"},{"type":"function","name":"completeLeaving","inputs":[],"outputs":[],"stateMutability":"nonpayable"},{"type":"function","name":"currentRound","inputs":[],"outputs":[{"name":"","type":"uint64","internalType":"uint64"}],"stateMutability":"view"},{"type":"function","name":"delegate","inputs":[{"name":"operator","type":"address","internalType":"address"},{"name":"amount","type":"uint256","internalType":"uint256"}],"outputs":[],"stateMutability":"nonpayable"},{"type":"function","name":"delegateWithOptions","inputs":[{"name":"operator","type":"address","internalType":"address"},{"name":"token","type":"address","internalType":"address"},{"name":"amount","type":"uint256","internalType":"uint256"},{"name":"selectionMode","type":"uint8","internalType":"enum Types.BlueprintSelectionMode"},{"name":"blueprintIds","type":"uint64[]","internalType":"uint64[]"}],"outputs":[],"stateMutability":"nonpayable"},{"type":"function","name":"delegationBondLessDelay","inputs":[],"outputs":[{"name":"","type":"uint64","internalType":"uint64"}],"stateMutability":"view"},{"type":"function","name":"deposit","inputs":[],"outputs":[],"stateMutability":"payable"},{"type":"function","name":"depositAndDelegate","inputs":[{"name":"operator","type":"address","internalType":"address"}],"outputs":[],"stateMutability":"payable"},{"type":"function","name":"depositAndDelegateWithOptions","inputs":[{"name":"operator","type":"address","internalType":"address"},{"name":"token","type":"address","internalType":"address"},{"name":"amount","type":"uint256","internalType":"uint256"},{"name":"selectionMode","type":"uint8","internalType":"enum Types.BlueprintSelectionMode"},{"name":"blueprintIds","type":"uint64[]","internalType":"uint64[]"}],"outputs":[],"stateMutability":"payable"},{"type":"function","name":"depositERC20","inputs":[{"name":"token","type":"address","internalType":"address"},{"name":"amount","type":"uint256","internalType":"uint256"}],"outputs":[],"stateMutability":"nonpayable"},{"type":"function","name":"depositERC20WithLock","inputs":[{"name":"token","type":"address","internalType":"address"},{"name":"amount","type":"uint256","internalType":"uint256"},{"name":"lockMultiplier","type":"uint8","internalType":"enum Types.LockMultiplier"}],"outputs":[],"stateMutability":"nonpayable"},{"type":"function","name":"depositWithLock","inputs":[{"name":"lockMultiplier","type":"uint8","internalType":"enum Types.LockMultiplier"}],"outputs":[],"stateMutability":"payable"},{"type":"function","name":"disableAsset","inputs":[{"name":"token","type":"address","internalType":"address"}],"outputs":[],"stateMutability":"nonpayable"},{"type":"function","name":"enableAsset","inputs":[{"name":"token","type":"address","internalType":"address"},{"name":"_minOperatorStake","type":"uint256","internalType":"uint256"},{"name":"_minDelegation","type":"uint256","internalType":"uint256"},{"name":"_depositCap","type":"uint256","internalType":"uint256"},{"name":"_rewardMultiplierBps","type":"uint16","internalType":"uint16"}],"outputs":[],"stateMutability":"nonpayable"},{"type":"function","name":"executeDelegatorUnstake","inputs":[],"outputs":[],"stateMutability":"nonpayable"},{"type":"function","name":"executeOperatorUnstake","inputs":[],"outputs":[],"stateMutability":"nonpayable"},{"type":"function","name":"executeWithdraw","inputs":[],"outputs":[],"stateMutability":"nonpayable"},{"type":"function","name":"getAssetConfig","inputs":[{"name":"token","type":"address","internalType":"address"}],"outputs":[{"name":"","type":"tuple","internalType":"struct Types.AssetConfig","components":[{"name":"enabled","type":"bool","internalType":"bool"},{"name":"minOperatorStake","type":"uint256","internalType":"uint256"},{"name":"minDelegation","type":"uint256","internalType":"uint256"},{"name":"depositCap","type":"uint256","internalType":"uint256"},{"name":"currentDeposits","type":"uint256","internalType":"uint256"},{"name":"rewardMultiplierBps","type":"uint16","internalType":"uint16"}]}],"stateMutability":"view"},{"type":"function","name":"getDelegation","inputs":[{"name":"delegator","type":"address","internalType":"address"},{"name":"operator","type":"address","internalType":"address"}],"outputs":[{"name":"","type":"uint256","internalType":"uint256"}],"stateMutability":"view"},{"type":"function","name":"getDelegationBlueprints","inputs":[{"name":"delegator","type":"address","internalType":"address"},{"name":"idx","type":"uint256","internalType":"uint256"}],"outputs":[{"name":"","type":"uint64[]","internalType":"uint64[]"}],"stateMutability":"view"},{"type":"function","name":"getDelegations","inputs":[{"name":"delegator","type":"address","internalType":"address"}],"outputs":[{"name":"","type":"tuple[]","internalType":"struct Types.BondInfoDelegator[]","components":[{"name":"operator","type":"address","internalType":"address"},{"name":"shares","type":"uint256","internalType":"uint256"},{"name":"asset","type":"tuple","internalType":"struct Types.Asset","components":[{"name":"kind","type":"uint8","internalType":"enum Types.AssetKind"},{"name":"token","type":"address","internalType":"address"}]},{"name":"selectionMode","type":"uint8","internalType":"enum Types.BlueprintSelectionMode"}]}],"stateMutability":"view"},{"type":"function","name":"getDeposit","inputs":[{"name":"delegator","type":"address","internalType":"address"},{"name":"token","type":"address","internalType":"address"}],"outputs":[{"name":"","type":"tuple","internalType":"struct Types.Deposit","components":[{"name":"amount","type":"uint256","internalType":"uint256"},{"name":"delegatedAmount","type":"uint256","internalType":"uint256"}]}],"stateMutability":"view"},{"type":"function","name":"getLocks","inputs":[{"name":"delegator","type":"address","internalType":"address"},{"name":"token","type":"address","internalType":"address"}],"outputs":[{"name":"","type":"tuple[]","internalType":"struct Types.LockInfo[]","components":[{"name":"amount","type":"uint256","internalType":"uint256"},{"name":"multiplier","type":"uint8","internalType":"enum Types.LockMultiplier"},{"name":"expiryBlock","type":"uint64","internalType":"uint64"}]}],"stateMutability":"view"},{"type":"function","name":"getOperatorBlueprints","inputs":[{"name":"operator","type":"address","internalType":"address"}],"outputs":[{"name":"","type":"uint256[]","internalType":"uint256[]"}],"stateMutability":"view"},{"type":"function","name":"getOperatorDelegatedStake","inputs":[{"name":"operator","type":"address","internalType":"address"}],"outputs":[{"name":"","type":"uint256","internalType":"uint256"}],"stateMutability":"view"},{"type":"function","name":"getOperatorDelegatorCount","inputs":[{"name":"operator","type":"address","internalType":"address"}],"outputs":[{"name":"","type":"uint256","internalType":"uint256"}],"stateMutability":"view"},{"type":"function","name":"getOperatorDelegators","inputs":[{"name":"operator","type":"address","internalType":"address"}],"outputs":[{"name":"","type":"address[]","internalType":"address[]"}],"stateMutability":"view"},{"type":"function","name":"getOperatorMetadata","inputs":[{"name":"operator","type":"address","internalType":"address"}],"outputs":[{"name":"","type":"tuple","internalType":"struct Types.OperatorMetadata","components":[{"name":"stake","type":"uint256","internalType":"uint256"},{"name":"delegationCount","type":"uint32","internalType":"uint32"},{"name":"status","type":"uint8","internalType":"enum Types.OperatorStatus"},{"name":"leavingRound","type":"uint64","internalType":"uint64"}]}],"stateMutability":"view"},{"type":"function","name":"getOperatorRewardPool","inputs":[{"name":"operator","type":"address","internalType":"address"}],"outputs":[{"name":"","type":"tuple","internalType":"struct Types.OperatorRewardPool","components":[{"name":"accRewardPerShare","type":"uint256","internalType":"uint256"},{"name":"totalShares","type":"uint256","internalType":"uint256"},{"name":"totalAssets","type":"uint256","internalType":"uint256"},{"name":"lastUpdateRound","type":"uint64","internalType":"uint64"}]}],"stateMutability":"view"},{"type":"function","name":"getOperatorSelfStake","inputs":[{"name":"operator","type":"address","internalType":"address"}],"outputs":[{"name":"","type":"uint256","internalType":"uint256"}],"stateMutability":"view"},{"type":"function","name":"getOperatorStake","inputs":[{"name":"operator","type":"address","internalType":"address"}],"outputs":[{"name":"","type":"uint256","internalType":"uint256"}],"stateMutability":"view"},{"type":"function","name":"getPendingDelegatorRewards","inputs":[{"name":"delegator","type":"address","internalType":"address"}],"outputs":[{"name":"","type":"uint256","internalType":"uint256"}],"stateMutability":"view"},{"type":"function","name":"getPendingOperatorRewards","inputs":[{"name":"operator","type":"address","internalType":"address"}],"outputs":[{"name":"","type":"uint256","internalType":"uint256"}],"stateMutability":"view"},{"type":"function","name":"getPendingUnstakes","inputs":[{"name":"delegator","type":"address","internalType":"address"}],"outputs":[{"name":"","type":"tuple[]","internalType":"struct Types.BondLessRequest[]","components":[{"name":"operator","type":"address","internalType":"address"},{"name":"asset","type":"tuple","internalType":"struct Types.Asset","components":[{"name":"kind","type":"uint8","internalType":"enum Types.AssetKind"},{"name":"token","type":"address","internalType":"address"}]},{"name":"shares","type":"uint256","internalType":"uint256"},{"name":"requestedRound","type":"uint64","internalType":"uint64"},{"name":"selectionMode","type":"uint8","internalType":"enum Types.BlueprintSelectionMode"}]}],"stateMutability":"view"},{"type":"function","name":"getPendingWithdrawals","inputs":[{"name":"delegator","type":"address","internalType":"address"}],"outputs":[{"name":"","type":"tuple[]","internalType":"struct Types.WithdrawRequest[]","components":[{"name":"asset","type":"tuple","internalType":"struct Types.Asset","components":[{"name":"kind","type":"uint8","internalType":"enum Types.AssetKind"},{"name":"token","type":"address","internalType":"address"}]},{"name":"amount","type":"uint256","internalType":"uint256"},{"name":"requestedRound","type":"uint64","internalType":"uint64"}]}],"stateMutability":"view"},{"type":"function","name":"getRoleAdmin","inputs":[{"name":"role","type":"bytes32","internalType":"bytes32"}],"outputs":[{"name":"","type":"bytes32","internalType":"bytes32"}],"stateMutability":"view"},{"type":"function","name":"getSlashCount","inputs":[{"name":"operator","type":"address","internalType":"address"}],"outputs":[{"name":"","type":"uint64","internalType":"uint64"}],"stateMutability":"view"},{"type":"function","name":"getSlashImpact","inputs":[{"name":"operator","type":"address","internalType":"address"},{"name":"slashId","type":"uint64","internalType":"uint64"},{"name":"delegator","type":"address","internalType":"address"}],"outputs":[{"name":"lostAmount","type":"uint256","internalType":"uint256"}],"stateMutability":"view"},{"type":"function","name":"getSlashRecord","inputs":[{"name":"operator","type":"address","internalType":"address"},{"name":"slashId","type":"uint64","internalType":"uint64"}],"outputs":[{"name":"","type":"tuple","internalType":"struct SlashingManager.SlashRecord","components":[{"name":"round","type":"uint64","internalType":"uint64"},{"name":"totalSlashed","type":"uint256","internalType":"uint256"},{"name":"exchangeRateBefore","type":"uint256","internalType":"uint256"},{"name":"exchangeRateAfter","type":"uint256","internalType":"uint256"},{"name":"evidence","type":"bytes32","internalType":"bytes32"}]}],"stateMutability":"view"},{"type":"function","name":"getSnapshot","inputs":[{"name":"round","type":"uint64","internalType":"uint64"},{"name":"operator","type":"address","internalType":"address"}],"outputs":[{"name":"","type":"tuple","internalType":"struct Types.OperatorSnapshot","components":[{"name":"stake","type":"uint256","internalType":"uint256"},{"name":"totalDelegated","type":"uint256","internalType":"uint256"}]}],"stateMutability":"view"},{"type":"function","name":"getTotalDelegation","inputs":[{"name":"delegator","type":"address","internalType":"address"}],"outputs":[{"name":"total","type":"uint256","internalType":"uint256"}],"stateMutability":"view"},{"type":"function","name":"grantRole","inputs":[{"name":"role","type":"bytes32","internalType":"bytes32"},{"name":"account","type":"address","internalType":"address"}],"outputs":[],"stateMutability":"nonpayable"},{"type":"function","name":"hasRole","inputs":[{"name":"role","type":"bytes32","internalType":"bytes32"},{"name":"account","type":"address","internalType":"address"}],"outputs":[{"name":"","type":"bool","internalType":"bool"}],"stateMutability":"view"},{"type":"function","name":"increaseStake","inputs":[],"outputs":[],"stateMutability":"payable"},{"type":"function","name":"initialize","inputs":[{"name":"admin","type":"address","internalType":"address"},{"name":"nativeMinOperatorStake","type":"uint256","internalType":"uint256"},{"name":"nativeMinDelegation","type":"uint256","internalType":"uint256"},{"name":"_operatorCommissionBps","type":"uint16","internalType":"uint16"}],"outputs":[],"stateMutability":"nonpayable"},{"type":"function","name":"isOperator","inputs":[{"name":"operator","type":"address","internalType":"address"}],"outputs":[{"name":"","type":"bool","internalType":"bool"}],"stateMutability":"view"},{"type":"function","name":"isOperatorActive","inputs":[{"name":"operator","type":"address","internalType":"address"}],"outputs":[{"name":"","type":"bool","internalType":"bool"}],"stateMutability":"view"},{"type":"function","name":"isSlasher","inputs":[{"name":"account","type":"address","internalType":"address"}],"outputs":[{"name":"","type":"bool","internalType":"bool"}],"stateMutability":"view"},{"type":"function","name":"leaveDelegatorsDelay","inputs":[],"outputs":[{"name":"","type":"uint64","internalType":"uint64"}],"stateMutability":"view"},{"type":"function","name":"leaveOperatorsDelay","inputs":[],"outputs":[{"name":"","type":"uint64","internalType":"uint64"}],"stateMutability":"view"},{"type":"function","name":"meetsStakeRequirement","inputs":[{"name":"operator","type":"address","internalType":"address"},{"name":"required","type":"uint256","internalType":"uint256"}],"outputs":[{"name":"","type":"bool","internalType":"bool"}],"stateMutability":"view"},{"type":"function","name":"minOperatorStake","inputs":[],"outputs":[{"name":"","type":"uint256","internalType":"uint256"}],"stateMutability":"view"},{"type":"function","name":"nativeEnabled","inputs":[],"outputs":[{"name":"","type":"bool","internalType":"bool"}],"stateMutability":"view"},{"type":"function","name":"nextSlashId","inputs":[{"name":"","type":"address","internalType":"address"}],"outputs":[{"name":"","type":"uint64","internalType":"uint64"}],"stateMutability":"view"},{"type":"function","name":"notifyReward","inputs":[{"name":"operator","type":"address","internalType":"address"},{"name":"serviceId","type":"uint64","internalType":"uint64"},{"name":"amount","type":"uint256","internalType":"uint256"}],"outputs":[],"stateMutability":"nonpayable"},{"type":"function","name":"notifyRewardForBlueprint","inputs":[{"name":"operator","type":"address","internalType":"address"},{"name":"blueprintId","type":"uint64","internalType":"uint64"},{"name":"serviceId","type":"uint64","internalType":"uint64"},{"name":"amount","type":"uint256","internalType":"uint256"}],"outputs":[],"stateMutability":"nonpayable"},{"type":"function","name":"operatorAt","inputs":[{"name":"index","type":"uint256","internalType":"uint256"}],"outputs":[{"name":"","type":"address","internalType":"address"}],"stateMutability":"view"},{"type":"function","name":"operatorCommissionBps","inputs":[],"outputs":[{"name":"","type":"uint16","internalType":"uint16"}],"stateMutability":"view"},{"type":"function","name":"operatorCount","inputs":[],"outputs":[{"name":"","type":"uint256","internalType":"uint256"}],"stateMutability":"view"},{"type":"function","name":"pause","inputs":[],"outputs":[],"stateMutability":"nonpayable"},{"type":"function","name":"paused","inputs":[],"outputs":[{"name":"","type":"bool","internalType":"bool"}],"stateMutability":"view"},{"type":"function","name":"proxiableUUID","inputs":[],"outputs":[{"name":"","type":"bytes32","internalType":"bytes32"}],"stateMutability":"view"},{"type":"function","name":"registerOperator","inputs":[],"outputs":[],"stateMutability":"payable"},{"type":"function","name":"registerOperatorWithAsset","inputs":[{"name":"token","type":"address","internalType":"address"},{"name":"amount","type":"uint256","internalType":"uint256"}],"outputs":[],"stateMutability":"nonpayable"},{"type":"function","name":"removeBlueprint","inputs":[{"name":"blueprintId","type":"uint64","internalType":"uint64"}],"outputs":[],"stateMutability":"nonpayable"},{"type":"function","name":"removeBlueprintFromDelegation","inputs":[{"name":"delegationIndex","type":"uint256","internalType":"uint256"},{"name":"blueprintId","type":"uint64","internalType":"uint64"}],"outputs":[],"stateMutability":"nonpayable"},{"type":"function","name":"removeSlasher","inputs":[{"name":"slasher","type":"address","internalType":"address"}],"outputs":[],"stateMutability":"nonpayable"},{"type":"function","name":"renounceRole","inputs":[{"name":"role","type":"bytes32","internalType":"bytes32"},{"name":"callerConfirmation","type":"address","internalType":"address"}],"outputs":[],"stateMutability":"nonpayable"},{"type":"function","name":"revokeRole","inputs":[{"name":"role","type":"bytes32","internalType":"bytes32"},{"name":"account","type":"address","internalType":"address"}],"outputs":[],"stateMutability":"nonpayable"},{"type":"function","name":"rewardsManager","inputs":[],"outputs":[{"name":"","type":"address","internalType":"address"}],"stateMutability":"view"},{"type":"function","name":"roundDuration","inputs":[],"outputs":[{"name":"","type":"uint64","internalType":"uint64"}],"stateMutability":"view"},{"type":"function","name":"scheduleDelegatorUnstake","inputs":[{"name":"operator","type":"address","internalType":"address"},{"name":"token","type":"address","internalType":"address"},{"name":"amount","type":"uint256","internalType":"uint256"}],"outputs":[],"stateMutability":"nonpayable"},{"type":"function","name":"scheduleOperatorUnstake","inputs":[{"name":"amount","type":"uint256","internalType":"uint256"}],"outputs":[],"stateMutability":"nonpayable"},{"type":"function","name":"scheduleWithdraw","inputs":[{"name":"token","type":"address","internalType":"address"},{"name":"amount","type":"uint256","internalType":"uint256"}],"outputs":[],"stateMutability":"nonpayable"},{"type":"function","name":"setDelays","inputs":[{"name":"_delegationBondLessDelay","type":"uint64","internalType":"uint64"},{"name":"_leaveDelegatorsDelay","type":"uint64","internalType":"uint64"},{"name":"_leaveOperatorsDelay","type":"uint64","internalType":"uint64"}],"outputs":[],"stateMutability":"nonpayable"},{"type":"function","name":"setOperatorCommission","inputs":[{"name":"bps","type":"uint16","internalType":"uint16"}],"outputs":[],"stateMutability":"nonpayable"},{"type":"function","name":"setRewardsManager","inputs":[{"name":"manager","type":"address","internalType":"address"}],"outputs":[],"stateMutability":"nonpayable"},{"type":"function","name":"slash","inputs":[{"name":"operator","type":"address","internalType":"address"},{"name":"serviceId","type":"uint64","internalType":"uint64"},{"name":"amount","type":"uint256","internalType":"uint256"},{"name":"evidence","type":"bytes32","internalType":"bytes32"}],"outputs":[{"name":"actualSlashed","type":"uint256","internalType":"uint256"}],"stateMutability":"nonpayable"},{"type":"function","name":"slashForBlueprint","inputs":[{"name":"operator","type":"address","internalType":"address"},{"name":"blueprintId","type":"uint64","internalType":"uint64"},{"name":"serviceId","type":"uint64","internalType":"uint64"},{"name":"amount","type":"uint256","internalType":"uint256"},{"name":"evidence","type":"bytes32","internalType":"bytes32"}],"outputs":[{"name":"actualSlashed","type":"uint256","internalType":"uint256"}],"stateMutability":"nonpayable"},{"type":"function","name":"slashHistory","inputs":[{"name":"","type":"address","internalType":"address"},{"name":"","type":"uint64","internalType":"uint64"}],"outputs":[{"name":"round","type":"uint64","internalType":"uint64"},{"name":"totalSlashed","type":"uint256","internalType":"uint256"},{"name":"exchangeRateBefore","type":"uint256","internalType":"uint256"},{"name":"exchangeRateAfter","type":"uint256","internalType":"uint256"},{"name":"evidence","type":"bytes32","internalType":"bytes32"}],"stateMutability":"view"},{"type":"function","name":"snapshotOperator","inputs":[{"name":"operator","type":"address","internalType":"address"}],"outputs":[],"stateMutability":"nonpayable"},{"type":"function","name":"startLeaving","inputs":[],"outputs":[],"stateMutability":"nonpayable"},{"type":"function","name":"supportsInterface","inputs":[{"name":"interfaceId","type":"bytes4","internalType":"bytes4"}],"outputs":[{"name":"","type":"bool","internalType":"bool"}],"stateMutability":"view"},{"type":"function","name":"undelegate","inputs":[{"name":"operator","type":"address","internalType":"address"},{"name":"amount","type":"uint256","internalType":"uint256"}],"outputs":[],"stateMutability":"nonpayable"},{"type":"function","name":"unpause","inputs":[],"outputs":[],"stateMutability":"nonpayable"},{"type":"function","name":"upgradeToAndCall","inputs":[{"name":"newImplementation","type":"address","internalType":"address"},{"name":"data","type":"bytes","internalType":"bytes"}],"outputs":[],"stateMutability":"payable"},{"type":"event","name":"AssetDisabled","inputs":[{"name":"token","type":"address","indexed":true,"internalType":"address"}],"anonymous":false},{"type":"event","name":"AssetEnabled","inputs":[{"name":"token","type":"address","indexed":true,"internalType":"address"},{"name":"minOperatorStake","type":"uint256","indexed":false,"internalType":"uint256"},{"name":"minDelegation","type":"uint256","indexed":false,"internalType":"uint256"}],"anonymous":false},{"type":"event","name":"BlueprintAddedToDelegation","inputs":[{"name":"delegator","type":"address","indexed":true,"internalType":"address"},{"name":"delegationIndex","type":"uint256","indexed":true,"internalType":"uint256"},{"name":"blueprintId","type":"uint64","indexed":false,"internalType":"uint64"}],"anonymous":false},{"type":"event","name":"BlueprintRemovedFromDelegation","inputs":[{"name":"delegator","type":"address","indexed":true,"internalType":"address"},{"name":"delegationIndex","type":"uint256","indexed":true,"internalType":"uint256"},{"name":"blueprintId","type":"uint64","indexed":false,"internalType":"uint64"}],"anonymous":false},{"type":"event","name":"Delegated","inputs":[{"name":"delegator","type":"address","indexed":true,"internalType":"address"},{"name":"operator","type":"address","indexed":true,"internalType":"address"},{"name":"token","type":"address","indexed":true,"internalType":"address"},{"name":"amount","type":"uint256","indexed":false,"internalType":"uint256"},{"name":"shares","type":"uint256","indexed":false,"internalType":"uint256"},{"name":"selectionMode","type":"uint8","indexed":false,"internalType":"enum Types.BlueprintSelectionMode"}],"anonymous":false},{"type":"event","name":"DelegatorUnstakeExecuted","inputs":[{"name":"delegator","type":"address","indexed":true,"internalType":"address"},{"name":"operator","type":"address","indexed":true,"internalType":"address"},{"name":"token","type":"address","indexed":true,"internalType":"address"},{"name":"shares","type":"uint256","indexed":false,"internalType":"uint256"},{"name":"amount","type":"uint256","indexed":false,"internalType":"uint256"}],"anonymous":false},{"type":"event","name":"DelegatorUnstakeScheduled","inputs":[{"name":"delegator","type":"address","indexed":true,"internalType":"address"},{"name":"operator","type":"address","indexed":true,"internalType":"address"},{"name":"token","type":"address","indexed":true,"internalType":"address"},{"name":"shares","type":"uint256","indexed":false,"internalType":"uint256"},{"name":"estimatedAmount","type":"uint256","indexed":false,"internalType":"uint256"},{"name":"readyRound","type":"uint64","indexed":false,"internalType":"uint64"}],"anonymous":false},{"type":"event","name":"Deposited","inputs":[{"name":"delegator","type":"address","indexed":true,"internalType":"address"},{"name":"token","type":"address","indexed":true,"internalType":"address"},{"name":"amount","type":"uint256","indexed":false,"internalType":"uint256"},{"name":"lock","type":"uint8","indexed":false,"internalType":"enum Types.LockMultiplier"}],"anonymous":false},{"type":"event","name":"Initialized","inputs":[{"name":"version","type":"uint64","indexed":false,"internalType":"uint64"}],"anonymous":false},{"type":"event","name":"OperatorBlueprintAdded","inputs":[{"name":"operator","type":"address","indexed":true,"internalType":"address"},{"name":"blueprintId","type":"uint64","indexed":true,"internalType":"uint64"}],"anonymous":false},{"type":"event","name":"OperatorBlueprintRemoved","inputs":[{"name":"operator","type":"address","indexed":true,"internalType":"address"},{"name":"blueprintId","type":"uint64","indexed":true,"internalType":"uint64"}],"anonymous":false},{"type":"event","name":"OperatorLeavingScheduled","inputs":[{"name":"operator","type":"address","indexed":true,"internalType":"address"},{"name":"readyRound","type":"uint64","indexed":false,"internalType":"uint64"}],"anonymous":false},{"type":"event","name":"OperatorLeft","inputs":[{"name":"operator","type":"address","indexed":true,"internalType":"address"}],"anonymous":false},{"type":"event","name":"OperatorRegistered","inputs":[{"name":"operator","type":"address","indexed":true,"internalType":"address"},{"name":"stake","type":"uint256","indexed":false,"internalType":"uint256"}],"anonymous":false},{"type":"event","name":"OperatorSlashed","inputs":[{"name":"operator","type":"address","indexed":true,"internalType":"address"},{"name":"serviceId","type":"uint64","indexed":true,"internalType":"uint64"},{"name":"amount","type":"uint256","indexed":false,"internalType":"uint256"},{"name":"evidence","type":"bytes32","indexed":false,"internalType":"bytes32"}],"anonymous":false},{"type":"event","name":"OperatorStakeIncreased","inputs":[{"name":"operator","type":"address","indexed":true,"internalType":"address"},{"name":"amount","type":"uint256","indexed":false,"internalType":"uint256"}],"anonymous":false},{"type":"event","name":"OperatorUnstakeExecuted","inputs":[{"name":"operator","type":"address","indexed":true,"internalType":"address"},{"name":"amount","type":"uint256","indexed":false,"internalType":"uint256"}],"anonymous":false},{"type":"event","name":"OperatorUnstakeScheduled","inputs":[{"name":"operator","type":"address","indexed":true,"internalType":"address"},{"name":"amount","type":"uint256","indexed":false,"internalType":"uint256"},{"name":"readyRound","type":"uint64","indexed":false,"internalType":"uint64"}],"anonymous":false},{"type":"event","name":"Paused","inputs":[{"name":"account","type":"address","indexed":false,"internalType":"address"}],"anonymous":false},{"type":"event","name":"RewardClaimed","inputs":[{"name":"account","type":"address","indexed":true,"internalType":"address"},{"name":"amount","type":"uint256","indexed":false,"internalType":"uint256"}],"anonymous":false},{"type":"event","name":"RewardDistributed","inputs":[{"name":"operator","type":"address","indexed":true,"internalType":"address"},{"name":"amount","type":"uint256","indexed":false,"internalType":"uint256"}],"anonymous":false},{"type":"event","name":"RoleAdminChanged","inputs":[{"name":"role","type":"bytes32","indexed":true,"internalType":"bytes32"},{"name":"previousAdminRole","type":"bytes32","indexed":true,"internalType":"bytes32"},{"name":"newAdminRole","type":"bytes32","indexed":true,"internalType":"bytes32"}],"anonymous":false},{"type":"event","name":"RoleGranted","inputs":[{"name":"role","type":"bytes32","indexed":true,"internalType":"bytes32"},{"name":"account","type":"address","indexed":true,"internalType":"address"},{"name":"sender","type":"address","indexed":true,"internalType":"address"}],"anonymous":false},{"type":"event","name":"RoleRevoked","inputs":[{"name":"role","type":"bytes32","indexed":true,"internalType":"bytes32"},{"name":"account","type":"address","indexed":true,"internalType":"address"},{"name":"sender","type":"address","indexed":true,"internalType":"address"}],"anonymous":false},{"type":"event","name":"RoundAdvanced","inputs":[{"name":"round","type":"uint64","indexed":true,"internalType":"uint64"}],"anonymous":false},{"type":"event","name":"SlashRecorded","inputs":[{"name":"operator","type":"address","indexed":true,"internalType":"address"},{"name":"slashId","type":"uint64","indexed":true,"internalType":"uint64"},{"name":"totalSlashed","type":"uint256","indexed":false,"internalType":"uint256"},{"name":"exchangeRateBefore","type":"uint256","indexed":false,"internalType":"uint256"},{"name":"exchangeRateAfter","type":"uint256","indexed":false,"internalType":"uint256"}],"anonymous":false},{"type":"event","name":"Slashed","inputs":[{"name":"operator","type":"address","indexed":true,"internalType":"address"},{"name":"serviceId","type":"uint64","indexed":true,"internalType":"uint64"},{"name":"operatorSlashed","type":"uint256","indexed":false,"internalType":"uint256"},{"name":"delegatorsSlashed","type":"uint256","indexed":false,"internalType":"uint256"},{"name":"newExchangeRate","type":"uint256","indexed":false,"internalType":"uint256"}],"anonymous":false},{"type":"event","name":"Unpaused","inputs":[{"name":"account","type":"address","indexed":false,"internalType":"address"}],"anonymous":false},{"type":"event","name":"Upgraded","inputs":[{"name":"implementation","type":"address","indexed":true,"internalType":"address"}],"anonymous":false},{"type":"event","name":"WithdrawScheduled","inputs":[{"name":"delegator","type":"address","indexed":true,"internalType":"address"},{"name":"token","type":"address","indexed":true,"internalType":"address"},{"name":"amount","type":"uint256","indexed":false,"internalType":"uint256"},{"name":"readyRound","type":"uint64","indexed":false,"internalType":"uint64"}],"anonymous":false},{"type":"event","name":"Withdrawn","inputs":[{"name":"delegator","type":"address","indexed":true,"internalType":"address"},{"name":"token","type":"address","indexed":true,"internalType":"address"},{"name":"amount","type":"uint256","indexed":false,"internalType":"uint256"}],"anonymous":false},{"type":"error","name":"AccessControlBadConfirmation","inputs":[]},{"type":"error","name":"AccessControlUnauthorizedAccount","inputs":[{"name":"account","type":"address","internalType":"address"},{"name":"neededRole","type":"bytes32","internalType":"bytes32"}]},{"type":"error","name":"AddressEmptyCode","inputs":[{"name":"target","type":"address","internalType":"address"}]},{"type":"error","name":"AmountLocked","inputs":[{"name":"locked","type":"uint256","internalType":"uint256"},{"name":"requested","type":"uint256","internalType":"uint256"}]},{"type":"error","name":"AssetNotEnabled","inputs":[{"name":"asset","type":"address","internalType":"address"}]},{"type":"error","name":"BelowMinimumDeposit","inputs":[{"name":"minimum","type":"uint256","internalType":"uint256"},{"name":"provided","type":"uint256","internalType":"uint256"}]},{"type":"error","name":"BlueprintAlreadySelected","inputs":[{"name":"blueprintId","type":"uint64","internalType":"uint64"}]},{"type":"error","name":"BlueprintNotSelected","inputs":[{"name":"blueprintId","type":"uint64","internalType":"uint64"}]},{"type":"error","name":"CannotRemoveLastBlueprint","inputs":[]},{"type":"error","name":"DelegationNotFound","inputs":[{"name":"delegator","type":"address","internalType":"address"},{"name":"operator","type":"address","internalType":"address"}]},{"type":"error","name":"DepositCapExceeded","inputs":[{"name":"cap","type":"uint256","internalType":"uint256"},{"name":"current","type":"uint256","internalType":"uint256"},{"name":"adding","type":"uint256","internalType":"uint256"}]},{"type":"error","name":"ERC1967InvalidImplementation","inputs":[{"name":"implementation","type":"address","internalType":"address"}]},{"type":"error","name":"ERC1967NonPayable","inputs":[]},{"type":"error","name":"EnforcedPause","inputs":[]},{"type":"error","name":"ExpectedPause","inputs":[]},{"type":"error","name":"FailedCall","inputs":[]},{"type":"error","name":"InsufficientAvailableBalance","inputs":[{"name":"available","type":"uint256","internalType":"uint256"},{"name":"requested","type":"uint256","internalType":"uint256"}]},{"type":"error","name":"InsufficientDelegation","inputs":[{"name":"available","type":"uint256","internalType":"uint256"},{"name":"requested","type":"uint256","internalType":"uint256"}]},{"type":"error","name":"InsufficientDeposit","inputs":[{"name":"available","type":"uint256","internalType":"uint256"},{"name":"requested","type":"uint256","internalType":"uint256"}]},{"type":"error","name":"InsufficientStake","inputs":[{"name":"required","type":"uint256","internalType":"uint256"},{"name":"provided","type":"uint256","internalType":"uint256"}]},{"type":"error","name":"InvalidDelegationIndex","inputs":[{"name":"index","type":"uint256","internalType":"uint256"}]},{"type":"error","name":"InvalidInitialization","inputs":[]},{"type":"error","name":"LeavingTooEarly","inputs":[{"name":"currentRound","type":"uint64","internalType":"uint64"},{"name":"requiredRound","type":"uint64","internalType":"uint64"}]},{"type":"error","name":"NoRewardsToClaim","inputs":[]},{"type":"error","name":"NotFixedMode","inputs":[]},{"type":"error","name":"NotInitializing","inputs":[]},{"type":"error","name":"OperatorAlreadyRegistered","inputs":[{"name":"operator","type":"address","internalType":"address"}]},{"type":"error","name":"OperatorNotActive","inputs":[{"name":"operator","type":"address","internalType":"address"}]},{"type":"error","name":"OperatorNotLeaving","inputs":[{"name":"operator","type":"address","internalType":"address"}]},{"type":"error","name":"OperatorNotRegistered","inputs":[{"name":"operator","type":"address","internalType":"address"}]},{"type":"error","name":"ReentrancyGuardReentrantCall","inputs":[]},{"type":"error","name":"SafeERC20FailedOperation","inputs":[{"name":"token","type":"address","internalType":"address"}]},{"type":"error","name":"TransferFailed","inputs":[]},{"type":"error","name":"UUPSUnauthorizedCallContext","inputs":[]},{"type":"error","name":"UUPSUnsupportedProxiableUUID","inputs":[{"name":"slot","type":"bytes32","internalType":"bytes32"}]},{"type":"error","name":"ZeroAmount","inputs":[]}],"bytecode":{"object":"0x60a080604052346100e857306080527ff0c57e16840df040f15088dc2f81fe391c3923bec73e23a9662efc9c229c6a005460ff8160401c166100d9576002600160401b03196001600160401b03821601610073575b60405161832f90816100ed8239608051818181612ed30152612fc90152f35b6001600160401b0319166001600160401b039081177ff0c57e16840df040f15088dc2f81fe391c3923bec73e23a9662efc9c229c6a005581527fc7f505b2f371ae2175ee4913f4499e1f2633a7b5936321eed1cdaeb6115181d290602090a15f80610054565b63f92ee8a960e01b5f5260045ffd5b5f80fdfe6080604052600436101561001a575b3615610018575f80fd5b005b5f3560e01c80627910d014614d2057806301ffc9a714614cca578063026e402b14614c9557806303587c1d14614bfa5780630378021114614b7f5780630a8ddc5e14614b3c5780630aa8b11014614ab45780630c8833ce1461494057806315049a5a146147ec578063168f68651461460057806318056dc2146145e45780631ba9998b1461458957806323cc270014614211578063248a9ca3146141f357806326142335146141ba57806328e70ecc146141595780632acde098146140295780632ee663b814613f665780632f2ff15d14613f3557806330224fc814613efd57806331cc13ba14613dc657806332273f6114613da2578063354ebef914613c4a578063356924ea14613c0e57806336568abe14613bca5780633dcad9db14613a075780633f4ba83a1461398957806344aff2521461384557806344d1480b146135c4578063453eccea146135a8578063461cc23b14613572578063486398c31461353a5780634962f88f1461136a5780634c4ede2d1461348e5780634d99dd161461317d5780634de8addc146131575780634f1ef28614612f4e5780635095af6414612f2757806352d1902d14612ec157806354de232014612ea55780635722d51214612d4957806357601c5d14612cfb5780635c975abb14612ccd57806366c368751461235257806368a9f19c14612ca45780636d70f7ae14612c625780636ec3ab6714612b505780637080752814612ab057806375b238fc14612a7657806377ab2cf314612a545780637b9996c5146128c85780637c6f3158146128ab5780637df92ada1461288e5780638456cb591461281d578063859caa18146125a557806387703550146124cd5780638a19c8bc146124a85780638c5b4ae71461246d5780638d795d501461242957806391d14854146123d45780639494f42614612393578063960856731461235257806397feb9261461231d5780639e87058514612300578063a217fddf146122e6578063a299e298146121f9578063a3b9c5c2146120e5578063a457af3d14612009578063a4b32de814611fcf578063a7fa6f9814611fb3578063aac6aa9c14611f8a578063aaf5eb6814611f68578063ad3cb1cc14611f0a578063b0dfce0614611ed6578063ba05bbf514611eae578063c07449e214611e52578063c35082a914611d88578063c735302514611d04578063cadd550c14611c34578063cb15038b14611bbf578063cbb6d6bd14611919578063d0e30db0146118f6578063d1736ba7146117cd578063d27a6f06146117b0578063d547741f1461177a578063d673e0b914611742578063d775cb61146116fc578063d9e257ef14611658578063db8a173a14611639578063dc972ccc14611585578063defe20531461155d578063e0a5825b14611386578063e1a452181461136a578063e1ee4bcc146110d4578063e4e88de814611084578063eb47353314610ffe578063f340c0d014610eec578063f38c7c4e14610ea4578063f3c4d8a014610e21578063f3c9b31114610e04578063f46913bb14610dc7578063f7cb789a14610d9f578063f8fd9795146109e4578063fbec486114610999578063fc5e7e0914610914578063fc8a91af146105055763fd7d3dbc0361000e5734610501576104ee6104e86104ca36615706565b6104d996929596949394615aab565b6104e16159c4565b369161593c565b93616d13565b60015f805160206182e383398151915255005b5f80fd5b346105015760603660031901126105015761051e61559d565b6105266155b3565b9060443591610533615aab565b8215610905576001600160a01b031691826108e9576040516105548161565e565b5f81525f6020820152925b61056884616475565b6001600160a01b0384165f81815260156020526040902060028101549196929190811580156108dd575b1561089757505083905b5f955f5b335f52601060205260405f205481101561088b57335f5260106020526105c98160405f20615997565b5080546001600160a01b03168a1480610874575b6105ea57506001016105a0565b93949596975050905f90335f52601260205260405f205f918154925b838110610800575050505061061f9060018401546157d3565b908382106107e0575050335f52601260205260405f209060ff60036001600160401b035f54169201541660405192610656846156af565b88845260208401958652604084019085825260608501938452608085019261067d81615618565b83528054600160401b8110156107cc5761069c91600182018155615997565b9490946107b9575184546001600160a01b0319166001600160a01b0391909116178455945180518996610745956001600160401b039384936003939161071b916001850191906106f5906106ef81615618565b83615a70565b602001518154610100600160a81b03191660089190911b610100600160a81b0316179055565b51600282015501935116166001600160401b0319835416178255519061074082615618565b615a88565b6001600160401b036001946107635f5483808260801c1691166159fc565b9060405193845260208401521660408201527f06325d83435da87657b063c6142a5b91a66a7e811827d082d624287a9953c4ba60603392a45b156107a357005b6309078cff60e21b5f523360045260245260445ffd5b634e487b7160e01b5f525f60045260245ffd5b634e487b7160e01b5f52604160045260245ffd5b86916107eb91617381565b6388c4fe8f60e01b5f5260045260245260445ffd5b8b61080b8285615997565b50546001600160a01b0316148061084e575b61082a575b600101610606565b93610846600191600261083d8887615997565b50015490615918565b949050610822565b508161086e61086960016108628588615997565b5001615a2a565b616475565b1461081d565b508361088561086960028401615a2a565b146105dd565b5050505050505061079c565b816108a960016108ae930154886157e0565b615918565b5f198101919082116108c9576108c3916157f3565b9061059c565b634e487b7160e01b5f52601160045260245ffd5b50600181015415610592565b6040516108f58161565e565b600181528360208201529261055f565b631f2a200560e01b5f5260045ffd5b346105015760203660031901126105015761092d61559d565b5f906001600160a01b0316815b815f52601060205260405f205483101561098e57610986600191835f52601060205261098061096c8660405f20615997565b5084808060a01b0382541691015490617381565b90615918565b92019161093a565b602090604051908152f35b6104ee6104e86109a836615706565b6109b796929596949394615aab565b6109bf6159c4565b6001600160a01b0384166109d5576104e161688e565b6109df8585616b8e565b6104e1565b34610501575f366003190112610501576109fc6159c4565b5f335f52600f60205260405f20905f90825492610a1884616ce1565b90610a2285615925565b94610a3060405196876156ca565b808652601f19610a3f82615925565b015f5b818110610d7c575050610a5481616ce1565b935f8054906001600160401b0382169160c01c905b848110610cd157505050505083805b610bbf575050505f5b828110610a9b5760015f805160206182e383398151915255005b610aa58185615a5c565b51610ab08284615a5c565b51908051610abd81615618565b610ac681615618565b610b7657505f80808093335af1610adb61685f565b5015610b38576001905b818060a01b036020610af78388615a5c565b51015116610b058285615a5c565b516040519081527fd1c19fbcd4551a5edfb66d43d2e337c04837afda3482b42bdf569a8fccdae5fb60203392a301610a81565b60405162461bcd60e51b815260206004820152601660248201527513985d1a5d99481d1c985b9cd9995c8819985a5b195960521b6044820152606490fd5b60019291610bba916020858060a01b03910151166040519163a9059cbb60e01b6020840152336024840152604483015260448252610bb56064836156ca565b618141565b610ae5565b5f1981018181116108c957610bd49084615a5c565b5182545f1981019081116108c957808210610c39575b505081548015610c25575f1901610c018184616cc8565b6107b9576002815f8093558260018201550155825580156108c9575f190180610a78565b634e487b7160e01b5f52603160045260245ffd5b610c46610c4e9185616cc8565b509184616cc8565b9190916107b9578082141580610c65575b50610bea565b6001600160401b03600281938193610ca0575b60018101546001870155015416920191166001600160401b0319825416179055868080610c5f565b610cae60ff82541687615a70565b80548654610100600160a81b031916610100600160a81b03909116178655610c78565b896001600160401b03610cf484826002610ceb878d616cc8565b500154166159fc565b16841015610d06575b50600101610a69565b610d6d8a95610d4887610d7394610d38879f888f8f909a610d2c610d329460019d615a5c565b52616cc8565b50615a2a565b610d428383615a5c565b52615a5c565b5083610d548d8b616cc8565b500154610d61888d615a5c565b528361083d8d8b616cc8565b94615a1c565b98905089610cfd565b602090604051610d8b8161565e565b5f81525f8382015282828b01015201610a42565b34610501575f3660031901126105015760206001600160401b035f5460401c16604051908152f35b34610501576040366003190112610501576001600160a01b03610de861559d565b165f526008602052602060243560405f20541015604051908152f35b34610501575f3660031901126105015760206040516213c6808152f35b346105015760203660031901126105015760043561ffff81168082036105015761271090610e4d615f7a565b11610e715761ffff60401b6001549160401b169061ffff60401b1916176001555f80f35b60405162461bcd60e51b815260206004820152600b60248201526a496e76616c69642042505360a81b6044820152606490fd5b6020366003190112610501576004356005811015610501576104ee90610ec8615aab565b610ed06159c4565b604051610edc8161565e565b5f81525f602082015234906178fb565b34610501576020366003190112610501576001600160a01b03610f0d61559d565b165f52600f60205260405f20805490610f2582615925565b91610f3360405193846156ca565b8083526020830180925f5260205f205f915b838310610fb7578486604051918291602083019060208452518091526040830191905f5b818110610f77575050500390f35b91935091602060806001926001600160401b0360408851610f99848251615622565b85810151828501520151166060820152019401910191849392610f69565b60036020600192604051610fca81615679565b610fd386615a2a565b815284860154838201526001600160401b036002870154166040820152815201920192019190610f45565b34610501576020366003190112610501576001600160a01b0361101f61559d565b16611035815f52600760205260405f2054151590565b80611048575b6020906040519015158152f35b505f52600860205260ff600160405f20015460201c166003811015611070576020901561103b565b634e487b7160e01b5f52602160045260245ffd5b346105015760203660031901126105015760206110cc6001600160a01b036110aa61559d565b16805f526008835260405f2054905f5260158352600260405f20015490615918565b604051908152f35b34610501576040366003190112610501576110ed61559d565b602435906110f9615aab565b8115610905576001600160a01b0316908161134f5760405161111a8161565e565b5f81525f60208201525b61112d81616475565b335f52600d60205260405f20815f5260205260405f20908154906111556001840154836157d3565b905f90335f52600e60205260405f20905f5260205260405f205f908054915b82811061130357505050808311156112fc578561119182856157d3565b106112e557508481106112ce5750836111a9916157d3565b9055335f52600f60205260405f206001600160401b035f541690604051926111d084615679565b83526020830190848252604084019283528054600160401b8110156107cc576111fe91600182018155616cc8565b9390936107b9576001600160401b039260029261125185935161122b815161122581615618565b89615a70565b602001518754610100600160a81b03191660089190911b610100600160a81b0316178755565b5160018601555116920191166001600160401b03198254161790557f91eff7d39d2499d76ac21a1903a95a88f31589cb07b1ffdfb61db9f7cd8a39786112c96112a85f546001600160401b038160c01c91166159fc565b604080519485526001600160401b0390911660208501523393918291820190565b0390a3005b849063adb9e04360e01b5f5260045260245260445ffd5b8590638ec3321160e01b5f5260045260245260445ffd5b855f611191565b61130d81836177b8565b506001600160401b0360014392015460081c161161132e575b600101611174565b9261134760019161133f86856177b8565b505490615918565b939050611326565b60405161135b8161565e565b60018152826020820152611124565b34610501575f3660031901126105015760206040516127108152f35b346105015760403660031901126105015761139f61559d565b602435906113ab615aab565b6113b36159c4565b6113c8335f52600760205260405f2054151590565b61154a576001600160a01b03168015611537576113f96040516113ea8161565e565b60018152826020820152616475565b5f52600260205260405f2060ff81541615611524576001839101549182821061150d5761142a925030903390617d1f565b611433336175a4565b5060405161144081615643565b818152602081015f8152604082015f815263ffffffff80600160608601955f8752335f52600860205260405f2090518155019351161663ffffffff19835416178255516003811015611070576114ce926114a26001600160401b039284616131565b5182546cffffffffffffffff00000000001916911660281b6cffffffffffffffff000000000016179055565b6040519081527fbc11617e575d658c74e921c8df22f8e48566072fa78145a6cfe18420bf8d0c4e60203392a260015f805160206182e383398151915255005b50506322df051360e11b5f5260045260245260445ffd5b5063f6f24b8360e01b5f5260045260245ffd5b63f6f24b8360e01b5f525f60045260245ffd5b63866b0dcf60e01b5f523360045260245ffd5b34610501575f36600319011261050157601c546040516001600160a01b039091168152602090f35b34610501576020366003190112610501576001600160a01b036115a661559d565b165f52600a60205260405f20604051806020835491828152019081935f5260205f20905f5b81811061162357505050816115e19103826156ca565b604051918291602083019060208452518091526040830191905f5b81811061160a575050500390f35b82518452859450602093840193909201916001016115fc565b82548452602090930192600192830192016115cb565b34610501575f3660031901126105015760205f5460c01c604051908152f35b5f3660031901126105015761166b615aab565b6116736159c4565b335f52600860205260405f2060ff600182015460201c166003811015611070576116e9573415610905576116a8348254615918565b90556040513481527f614a3fa8467eb54cb60af3aab440279837c9fcd75c5a2617fe0af9c6e5e60e8360203392a260015f805160206182e383398151915255005b6371ab6ad560e11b5f523360045260245ffd5b34610501575f3660031901126105015761172960405161171b8161565e565b5f81525f6020820152616475565b5f5260026020526020600160405f200154604051908152f35b34610501576020366003190112610501576001600160a01b0361176361559d565b165f526008602052602060405f2054604051908152f35b34610501576040366003190112610501576100186004356117996155b3565b906117ab6117a6826157b5565b6160a1565b6167c3565b34610501575f3660031901126105015760206040516209e3408152f35b34610501575f366003190112610501576117e56159c4565b335f52600860205260405f2060018101805460ff8160201c166003811015611070576002036118e3576001600160401b03805f54169160281c166001600160401b0360015416906001600160401b0361183e83836159fc565b1683106118b9576118815f8080808989828254925564010000000064ff000000001982541617905561186f33617b79565b50335af161187b61685f565b50616bc9565b337f120599f8830115ed973189f8f4947cc793fcd90a15d47c4d6ad8d1a3f15af7345f80a260015f805160206182e383398151915255005b6001600160401b0392916118cc916159fc565b90631b04d91d60e21b5f526004521660245260445ffd5b639923c53960e01b5f523360045260245ffd5b5f36600319011261050157611909615aab565b6119116159c4565b6104ee61688e565b346105015760803660031901126105015761193261559d565b6064359061ffff82168203610501575f80516020618303833981519152549160ff8360401c1615926001600160401b03811680159081611bb7575b6001149081611bad575b159081611ba4575b50611b955767ffffffffffffffff1981166001175f8051602061830383398151915255600792611a2c9185611b69575b506119b8617d63565b6119c0617d63565b6119c8617d63565b6119d0617d63565b60ff195f805160206182c383398151915254165f805160206182c3833981519152556119fa617d63565b611a02617d63565b60015f805160206182e383398151915255611a1c816161db565b50611a2681616272565b5061632b565b50611a3c60405161171b8161565e565b61ffff6005604051611a4d81615694565b6001815260208101602435815260408201604435815260608301905f825260808401925f845260a085019761271089525f526002602052611aa160405f2095511515869060ff801983541691151516179055565b5160018501555160028401555160038301555160048201550191511661ffff19825416179055600160ff19600554161760055561ffff60401b60015491780700000000000000070000000000001c2000000000000000015f5560401b169069ffffffffffffffffffff19161717600155611b1757005b60ff60401b195f8051602061830383398151915254165f80516020618303833981519152557fc7f505b2f371ae2175ee4913f4499e1f2633a7b5936321eed1cdaeb6115181d2602060405160018152a1005b68ffffffffffffffffff191668010000000000000001175f8051602061830383398151915255856119af565b63f92ee8a960e01b5f5260045ffd5b9050158561197f565b303b159150611977565b85915061196d565b3461050157606036600319011261050157611bd861559d565b6024359060443590600582101561050157611bf1615aab565b611bf96159c4565b6001600160a01b0316918215611537576104ee92611c1982303384617d1f565b60405190611c268261565e565b6001825260208201526178fb565b34610501576020366003190112610501576001600160a01b03611c5561559d565b16805f52600860205260405f2060ff600182015460201c16600381101561107057611cd2576001905491805f526015602052600260405f2001549060405193611c9d8561565e565b8452602084019182526001600160401b035f54165f52600c60205260405f20905f5260205260405f2092518355519101555f80f35b60405162461bcd60e51b815260206004820152600a6024820152694e6f742061637469766560b01b6044820152606490fd5b3461050157602036600319011261050157611d1d6155c9565b335f52600860205260ff600160405f20015460201c166003811015611070576116e957335f52600a602052611d606001600160401b0360405f209216809261765a565b50337fb6d5e45d77b8967cff525b375be6e07f99ca5af91d88724ac1237aafe295d50e5f80a3005b3461050157604036600319011261050157611da161559d565b611da96155b3565b611db16158e2565b50611dba6158e2565b506001600160a01b031680611e365750604051611dd68161565e565b5f81525f6020820152905b6001600160a01b03165f908152600d6020526040902090611e0190616475565b5f52602052611e32611e1560405f206158fa565b604051918291829190916020806040830194805184520151910152565b0390f35b60405190611e438261565e565b60018252602082015290611de1565b3461050157604036600319011261050157611e6b6155c9565b6001600160401b03611e7b6155b3565b91611e846158e2565b50165f52600c60205260405f209060018060a01b03165f52602052611e32611e1560405f206158fa565b34610501575f3660031901126105015760206001600160401b035f5460801c16604051908152f35b34610501575f36600319011261050157611eee6159c4565b611ef6616c07565b5060015f805160206182e383398151915255005b34610501575f366003190112610501576040805190611f2981836156ca565b600582526020820191640352e302e360dc1b83528151928391602083525180918160208501528484015e5f828201840152601f01601f19168101030190f35b34610501575f366003190112610501576020604051670de0b6b3a76400008152f35b3461050157602036600319011261050157610018611fa661559d565b611fae615f7a565b616732565b34610501575f3660031901126105015760206040516132c88152f35b34610501575f3660031901126105015760206040517fb1fadd3142ab2ad7f1337ea4d97112bcc8337fc11ce5b20cb04ad038adf998198152f35b346105015760403660031901126105015761202261559d565b61202a6155df565b905f608060405161203a816156af565b828152826020820152826040820152826060820152015260018060a01b03165f52604e6020526001600160401b0360405f2091165f5260205260a060405f20604051612085816156af565b6001600160401b038254169182825260018101546020830190815260028201549060408401918252608060046003850154946060870195865201549401938452604051948552516020850152516040840152516060830152516080820152f35b34610501576060366003190112610501576120fe61559d565b6121066155df565b506044359061271061212161ffff60015460401c16846157e0565b049161215961213084836157d3565b9260018060a01b03811694855f52601760205261215260405f20918254615918565b9055617782565b825f52601560205260405f20906001820191825415155f146121c857670de0b6b3a7640000840293808504670de0b6b3a764000014901517156108c9576121bc6121b55f805160206182438339815191529560209554906157f3565b8254615918565b90555b604051908152a2005b50602091505f8051602061824383398151915292845f52601783526121f260405f20918254615918565b90556121bf565b34610501576020366003190112610501576001600160a01b0361221a61559d565b16805f52600b60205260405f20549061223282615925565b9161224060405193846156ca565b80835261224c81615925565b602084019290601f19013684375f5b8281106122af578385604051918291602083019060208452518091526040830191905f5b81811061228d575050500390f35b82516001600160a01b031684528594506020938401939092019160010161227f565b600190825f52600b6020526122c78160405f2061758f565b838060a01b0391549060031b1c166122df8288615a5c565b520161225b565b34610501575f3660031901126105015760206040515f8152f35b34610501575f36600319011261050157602060405162034bc08152f35b34610501576040366003190112610501576104ee61233961559d565b612341615aab565b6123496159c4565b60243590616b8e565b34610501576020366003190112610501576001600160a01b0361237361559d565b165f52604f60205260206001600160401b0360405f205416604051908152f35b34610501576060366003190112610501576123ac61559d565b6123b46155df565b906044356001600160a01b0381168103610501576020926110cc92615811565b34610501576040366003190112610501576123ed6155b3565b6004355f525f805160206182a383398151915260205260405f209060018060a01b03165f52602052602060ff60405f2054166040519015158152f35b346105015760a03660031901126105015760206110cc61244761559d565b61244f6155df565b906124586155f5565b612460616058565b60843592606435926168af565b34610501576020366003190112610501576001600160a01b0361248e61559d565b165f5260156020526020600260405f200154604051908152f35b34610501575f3660031901126105015760206001600160401b035f5416604051908152f35b34610501575f36600319011261050157335f526008602052600160405f200160ff815460201c166003811015611070576116e95761254e9064020000000064ff00000000198254161781556001600160401b035f54166cffffffffffffffff000000000082549160281b16906cffffffffffffffff00000000001916179055565b61256e6001600160401b035f54166001600160401b0360015416906159fc565b6001600160401b03604051911681527ffd47ed8e653fba5e6e9fcaa947419ca2334b3972ce196132ec69708574d6d35a60203392a2005b34610501576040366003190112610501576004356125c16155df565b6125c9615aab565b335f52601060205260405f205482101561280a57335f5260106020526125f28260405f20615997565b5090600160ff60038401541661260781615618565b036127fb57335f52601160205260405f20835f5260205260405f2080549260018411156127ec576001600160401b03909216925f1992905f5b8181106127b9575b50505f1983146127a657335f908152601b6020908152604080832084546001600160a01b0316845282528083208784529091528120805491905582545f19810194919085116108c9576126c26001600160401b036126b36126ac886126e0956157f3565b97876160f3565b90549060031b1c1692856160f3565b81939154906001600160401b03809160031b9316831b921b19161790565b905581548015610c25575f19016126f781846160f3565b6001600160401b0382549160031b1b1916905582555f5b825481101561277657335f908152601b6020908152604080832085546001600160a01b031684529091529020600191906001600160401b038061275184886160f3565b90549060031b1c16165f5260205260405f2061276e868254615918565b90550161270e565b85856040519081527fc38cef0d003bc8a9982db0d994b2ea048946028e9255cc061a56abcbb7d548a160203392a3005b83633062236b60e11b5f5260045260245ffd5b856001600160401b036127cc83876160f3565b90549060031b1c16146127e157600101612640565b935086905080612648565b63301ac92560e21b5f5260045ffd5b63138dfed560e11b5f5260045ffd5b50630b21815d60e11b5f5260045260245ffd5b34610501575f36600319011261050157612835615f7a565b61283d615aab565b600160ff195f805160206182c38339815191525416175f805160206182c3833981519152557f62e78cea01bee320cd4e420270b5ea74000d11b0c9f74754ebdbfc544b05a2586020604051338152a1005b34610501575f366003190112610501576020604051620697808152f35b34610501575f366003190112610501576020600654604051908152f35b34610501576040366003190112610501576001600160a01b036128e961559d565b165f52601160205260405f206024355f5260205260405f2060405190818260208354928381520180935f5260205f20925f905b806003830110612a02576129559454918181106129e8575b8181106129cb575b8181106129ae575b106129a0575b5093929303826156ca565b604051918291602083019060208452518091526040830191905f5b81811061297e575050500390f35b82516001600160401b0316845285945060209384019390920191600101612970565b60c01c81526020018561294a565b9260206001916001600160401b038560801c168152019301612944565b9260206001916001600160401b038560401c16815201930161293c565b9260206001916001600160401b0385168152019301612934565b916004919350608060019186546001600160401b03811682526001600160401b038160401c1660208301526001600160401b0381841c16604083015260c01c606082015201940192018592939161291c565b34610501575f36600319011261050157602060ff600554166040519015158152f35b34610501575f3660031901126105015760206040517fa49807205ce4d355092ef5a8a18f56e8913cf4a201fbe287825b095693c217758152f35b3461050157602036600319011261050157612ac961559d565b612ad1615fe9565b6001600160a01b031680612b3257612aee60405161171b8161565e565b60ff19600554166005555b5f52600260205260405f2060ff1981541690557ffc9274ad64ab0a7d8dedd8c9297fb4e25d7a17eb057457c6bcf2a8f13dc8859c5f80a2005b612b416040516113ea8161565e565b612b4a82617ace565b50612af9565b3461050157602036600319011261050157612b6961559d565b5f60a0604051612b7881615694565b8281526020810183905260408101839052606081018390526080810183905201526001600160a01b031680612c445750612bb760405161171b8161565e565b5f52600260205260c060405f2061ffff604051612bd381615694565b60ff8354161515928382526001810154602083019081526002820154604084019081526003830154916060850192835260a0866005600487015496608089019788520154169501948552604051968752516020870152516040860152516060850152516080840152511660a0820152f35b604051612bb791612c548261565e565b600182526020820152616475565b34610501576020366003190112610501576020612c9a6001600160a01b03612c8861559d565b165f52600760205260405f2054151590565b6040519015158152f35b3461050157602036600319011261050157610018612cc061559d565b612cc8615f7a565b616156565b34610501575f36600319011261050157602060ff5f805160206182c383398151915254166040519015158152f35b3461050157602036600319011261050157612d1461559d565b6001600160a01b03165f9081525f80516020618263833981519152602090815260409182902054915160ff9092161515825290f35b34610501576020366003190112610501576001600160a01b03612d6a61559d565b165f52601260205260405f20805490612d8282615925565b91612d9060405193846156ca565b8083526020830180925f5260205f205f915b838310612e38578486604051918291602083019060208452518091526040830191905f5b818110612dd4575050500390f35b91935091602060c060019260808751858060a01b038151168352612dfe8582015186850190615622565b604081015160608401526001600160401b03606082015116828401520151612e2581615618565b60a0820152019401910191849392612dc6565b60046020600192604051612e4b816156af565b848060a01b038654168152612e61858701615a2a565b838201526002860154604082015260ff60038701546001600160401b038116606084015260401c16612e9281615618565b6080820152815201920192019190612da2565b34610501575f366003190112610501576020604051612ee08152f35b34610501575f366003190112610501577f00000000000000000000000000000000000000000000000000000000000000006001600160a01b03163003612f185760206040515f805160206182238339815191528152f35b63703e46dd60e11b5f5260045ffd5b34610501575f3660031901126105015760206040515f805160206182838339815191528152f35b604036600319011261050157612f6261559d565b602435906001600160401b038211610501573660238301121561050157816004013590612f8e826156eb565b91612f9c60405193846156ca565b8083526020830193366024838301011161050157815f926024602093018737840101526001600160a01b037f000000000000000000000000000000000000000000000000000000000000000016308114908115613135575b50612f1857613001615f7a565b6040516352d1902d60e01b81526001600160a01b0382169390602081600481885afa5f9181613101575b506130435784634c9c8ce360e01b5f5260045260245ffd5b805f805160206182238339815191528692036130ef5750823b156130dd575f8051602061822383398151915280546001600160a01b031916821790557fbc7cd75a20ee27fd9adebab32041f755214dbc6bffa90cc0225b39da2e5c2d3b5f80a28251156130c4575f8091610018945190845af46130be61685f565b916181a4565b505050346130ce57005b63b398979f60e01b5f5260045ffd5b634c9c8ce360e01b5f5260045260245ffd5b632a87526960e21b5f5260045260245ffd5b9091506020813d60201161312d575b8161311d602093836156ca565b810103126105015751908661302b565b3d9150613110565b5f80516020618223833981519152546001600160a01b03161415905084612ff4565b34610501575f3660031901126105015760206001600160401b0360015416604051908152f35b346105015760403660031901126105015761319661559d565b602435906131a2615aab565b6131aa6159c4565b811561090557604051916131bd8361565e565b5f83525f60208401526131cf83616475565b6001600160a01b0383165f81815260156020526040902060028101549195919081158015613482575b15613456575050825b5f945f5b335f52601060205260405f205481101561344b57335f52601060205261322e8160405f20615997565b5080546001600160a01b0316891480613434575b61324f5750600101613205565b959650509091925f90335f52601260205260405f205f918154925b8381106133d557505050506132839060018601546157d3565b908282106133ca575050335f52601260205260405f2060ff60036001600160401b035f54169501541693604051946132ba866156af565b8786526020860194855260408601928484526060870192835260808701916132e181615618565b82528054600160401b8110156107cc5761330091600182018155615997565b9390936107b9576001600160401b03600361335b95829361071b8d9a5f9c60018060a01b039060018060a01b03905116166bffffffffffffffffffffffff60a01b8554161784556001840190516106f581516106ef81615618565b6001600160401b03600194613379855483808260801c1691166159fc565b9060405193845260208401521660408201527f06325d83435da87657b063c6142a5b91a66a7e811827d082d624287a9953c4ba60603392a45b156107a35760015f805160206182e383398151915255005b85916107eb91617381565b8a6133e08285615997565b50546001600160a01b0316148061341a575b6133ff575b60010161326a565b93613412600191600261083d8887615997565b9490506133f7565b508161342e61086960016108628588615997565b146133f2565b508561344561086960028401615a2a565b14613242565b5050505050506133b2565b816108a96001613468930154876157e0565b5f198101919082116108c95761347d916157f3565b613201565b506001810154156131f8565b34610501575f366003190112610501576134a66159c4565b335f52601760205260405f2054801561352b57335f5260176020525f60408120555f80808084335af16134d761685f565b501561351c576040519081527f106f923f993c2149d49b4255ff723acafa1f2d94393f561d3eda32ae348f724160203392a260015f805160206182e383398151915255005b6312171d8360e31b5f5260045ffd5b6373380d9960e01b5f5260045ffd5b34610501576020366003190112610501576001600160a01b0361355b61559d565b165f52600b602052602060405f2054604051908152f35b6020366003190112610501576104ee61358961559d565b613591615aab565b6135996159c4565b6135a161688e565b3490615ad2565b34610501575f366003190112610501576020604051613e808152f35b34610501575f366003190112610501576135dc6159c4565b5f805b335f52601060205260405f20548210156137e557335f5260106020526136088260405f20615997565b5060ff60038201541661361a81615618565b6136b05761369f90600192670de0b6b3a764000061366f85808060a01b03855416940154845f52601560205260405f2094335f52601660205260405f2090888060a01b03165f5260205260405f2094546157e0565b0482548082115f146136a85761368590826157d3565b925b5f61369787830195865490615918565b945555615918565b915b01906135df565b505f92613687565b335f9081526011602090815260408083208684529091528120915490916001600160a01b03909116908190835b81548110156137cf57956001876001600160401b036136fd839a866160f3565b90549060031b1c16855f52601860205260405f206001600160401b0382165f52602052670de0b6b3a764000061378b60405f20335f52601960205260405f208a5f5260205260405f206001600160401b0385165f5260205260405f2093335f52601b60205260405f208b5f526020526001600160401b0360405f2091165f5260205260405f205490546157e0565b049080548083115f146137c3576137b76137a65f92856157d3565b9a5b6109808785019c8d5490615918565b995555019096506136dd565b505f6137b7819a6137a8565b505050506137df90600192615918565b916136a1565b806137fd5760015f805160206182e383398151915255005b5f80808084335af161380d61685f565b501561351c576040519081527f106f923f993c2149d49b4255ff723acafa1f2d94393f561d3eda32ae348f724160203392a2806104ee565b3461050157602036600319011261050157600435613861615aab565b335f52600860205260405f2060ff600182015460201c166003811015611070576116e95781156109055761389a60405161171b8161565e565b5f526002602052600160405f200154335f5260096020526138c160405f20548093546157d3565b816138cc85836157d3565b1061396957836138dc8185615918565b6001600160401b03600181805f5416604051946138f88661565e565b855260208501908152335f52600960205260405f20945185555116920191166001600160401b03198254161790557ff7e874d9fd42838b0f06a44c7bbe45417b991e6b000e8ca4c5c1f086084a9cd36139646112a85f546001600160401b03808260801c1691166159fc565b0390a2005b83613973916157d3565b906322df051360e11b5f5260045260245260445ffd5b34610501575f366003190112610501576139a1615f7a565b5f805160206182c38339815191525460ff8116156139f85760ff19165f805160206182c3833981519152557f5db9ee0a495bf2e6ff9c91a7834c1ba4fdd244a5e8aa4e537bd38aeae4b073aa6020604051338152a1005b638dfc202b60e01b5f5260045ffd5b3461050157608036600319011261050157613a2061559d565b613a286155df565b90613a316155f5565b50606435612710613a4b61ffff60015460401c16836157e0565b0492613a7c613a5a85846157d3565b9360018060a01b03811695865f52601760205261215260405f20918254615918565b835f52601560205260405f20906001820191825480613b94575b5050845f5260186020526001600160401b0360405f2091165f5260205260405f20906001600160401b035f54166001600160401b036003840191166001600160401b031982541617905560018201548015928315613b44575b505092602092915f805160206182438339815191529454159081613b3c575b50613b1e575b50604051908152a2005b845f5260178352613b3460405f20918254615918565b905584613b14565b905086613b0e565b9392909491670de0b6b3a7640000830294838604670de0b6b3a764000014841517156108c957613b876121b55f80516020618243833981519152986020986157f3565b9055919481939450613aef565b670de0b6b3a76400008602868104670de0b6b3a764000014871517156108c957613bc1916121b5916157f3565b90558580613a96565b3461050157604036600319011261050157613be36155b3565b336001600160a01b03821603613bff57610018906004356167c3565b63334bd91960e11b5f5260045ffd5b346105015760803660031901126105015760206110cc613c2c61559d565b613c346155df565b90613c3d616058565b60643591604435916164bc565b346105015760a036600319011261050157613c6361559d565b60243590604435906084359061ffff821680920361050157613c83615fe9565b6001600160a01b0316928315613d70577f9a4c59c56153245e23dcb8000e301b9a5e35b8e6693c5cdbf3b6a2aa0f8a37ea9260409261ffff6005613cda8651613ccb8161565e565b60018152896020820152616475565b865190613ce682615694565b60018252602082018781528883018781526060840191606435835260808501935f855260a086019889525f526002602052613d338b5f2095511515869060ff801983541691151516179055565b5160018501555160028401555160038301555160048201550191511661ffff19825416179055613d628561760a565b5082519182526020820152a2005b60405162461bcd60e51b815260206004820152600a602482015269557365206e617469766560b01b6044820152606490fd5b34610501575f36600319011261050157602061ffff60015460401c16604051908152f35b34610501576020366003190112610501576001600160a01b03613de761559d565b165f52601060205260405f20805490613dff82615925565b91613e0d60405193846156ca565b8083526020830180925f5260205f205f915b838310613ea2578486604051918291602083019060208452518091526040830191905f5b818110613e51575050500390f35b91935091602060a0600192606087518580851b0381511683528481015185840152613e8460408201516040850190615622565b0151613e8f81615618565b6080820152019401910191849392613e43565b60046020600192604051613eb581615643565b848060a01b0386541681528486015483820152613ed460028701615a2a565b604082015260ff600387015416613eea81615618565b6060820152815201920192019190613e1f565b34610501576020366003190112610501576001600160a01b03613f1e61559d565b165f526017602052602060405f2054604051908152f35b3461050157604036600319011261050157610018600435613f546155b3565b90613f616117a6826157b5565b6163e4565b3461050157602036600319011261050157613f7f61559d565b613f87615791565b50613f90615791565b5060018060a01b03165f52600860205260405f20600160405191613fb383615643565b805483520154906020810163ffffffff8316815260ff8360201c16604083019160038210156110705763ffffffff9183526001600160401b03606085019560281c1685526040519351845251166020830152516003811015611070576080926001600160401b0391604084015251166060820152f35b5f3660031901126105015761403c615aab565b6140446159c4565b614059335f52600760205260405f2054151590565b61154a5761406c60405161171b8161565e565b5f52600260205260405f2060ff81541615611537576001015480341061414357614095336175a4565b506040516140a281615643565b348152602081015f8152604082015f815263ffffffff80600160608601955f8752335f52600860205260405f2090518155019351161663ffffffff1983541617825551600381101561107057614104926114a26001600160401b039284616131565b6040513481527fbc11617e575d658c74e921c8df22f8e48566072fa78145a6cfe18420bf8d0c4e60203392a260015f805160206182e383398151915255005b6322df051360e11b5f526004523460245260445ffd5b34610501576020366003190112610501576141726155c9565b335f52600a6020526141926001600160401b0360405f2092168092617c24565b50337f4b9bbf2ebc79e9fb39a64920934b3f458a486552d3df95395aa750ece9e970935f80a3005b346105015760203660031901126105015760206141da600435600661758f565b905460405160039290921b1c6001600160a01b03168152f35b346105015760203660031901126105015760206110cc6004356157b5565b346105015760403660031901126105015760043561422d6155df565b614235615aab565b335f52601060205260405f205482101561280a57335f52601060205261425e8260405f20615997565b5090600160ff60038401541661427381615618565b036127fb57335f52601160205260405f20835f5260205260405f20905f926001600160401b0383549216935b82811061454f5750600181015491600181018082116108c9576142c290846157f3565b92816143c4575b5050335f52601b60205260405f2060018060a01b0382541660018060a01b03165f5260205260405f20845f526020528160405f205560018060a01b039054165f52601860205260405f20835f5260205261434a600260405f209260018401614332828254615918565b8091558181145f1461439e5750925b01918254615918565b90558054600160401b8110156107cc576126c2818493600161436e940181556160f3565b90556040519081527fa7b81e017abeb50ecf2c121cb0db7087dfc4b3cc85cd8d857f9a5f1e81f6484560203392a3005b6143b86143be926143b285880154826157e0565b926157d3565b906157f3565b92614341565b926143d86143dd92829796959894986157f3565b6157d3565b925f5b835481101561454257806001600160401b036143fe600193876160f3565b90549060031b1c16335f52601b60205260405f2090838060a01b038a541691848060a01b0383165f5260205260405f206001600160401b0382165f5260205260405f2054918289115f146145375761445683806157d3565b90335f52601b60205260405f2090868060a01b03165f5260205260405f206001600160401b0383165f5260205260405f2055838060a01b038a54165f5260186020526001600160401b0360405f2091165f5260205260405f2083810190815490838210156144c9575b50505050016143e0565b6144d5846002936157d3565b80935501918254918215158061452e575b15614528576143b8826144fc85614502956157e0565b92615918565b818111156145195750505f905b55888080806144bf565b614522916157d3565b9061450f565b50614502565b508015156144e6565b6144568980946157d3565b50939192509385806142c9565b846001600160401b0361456283876160f3565b90549060031b1c16146145775760010161429f565b8462d00d2f60e11b5f5260045260245ffd5b34610501575f366003190112610501575f546001600160401b036145ae818316616114565b1680916001600160401b031916175f557f7cee7087baafdfa8f9d1bd39c560782e2eedf861e2648b232a805033537c56955f80a2005b34610501575f366003190112610501576020604051612af88152f35b346105015760203660031901126105015761461961559d565b5f906001600160a01b0316815b815f52601060205260405f205483101561098e57815f52601060205261464f8360405f20615997565b5060ff60038201541661466181615618565b6146f0576001916109806146dd92670de0b6b3a76400006146bb868060a01b0383541692835f52601560205260405f2093895f52601660205260405f2090898060a01b03165f526020528760405f209454910154906157e0565b048154908181115f146146e65786916146d3916157d3565b915b015490615918565b925b0191614626565b5050845f916146d5565b5f8381526011602090815260408083208784529091528120805492549395936001600160a01b03169081905b8484106147305750505050506001906146df565b60016147df81996109806001600160401b0361475189879d9a9b9c9d6160f3565b90549060031b1c16865f52601860205260405f206001600160401b0382165f52602052670de0b6b3a76400006146bb60405f208b5f52601960205260405f208b5f5260205260405f206001600160401b0385165f5260205260405f20938c5f52601b60205260405f208c5f526020526001600160401b0360405f2091165f5260205260405f205490546157e0565b950193969594975061471c565b346105015760403660031901126105015761480561559d565b61480d6155b3565b6001600160a01b039182169181165f805b845f52601060205260405f205482101561098e57845f5260106020526148478260405f20615997565b5080546001600160a01b03168490036149365760ff60038201541661486b81615618565b61488b576001916109808361488293015487617381565b915b019061481e565b5090845f52601160205260405f20815f5260205260405f205f8154915b8282106148ba57505050600190614884565b91939460016149278998939597829a5f52601b60205260405f20845f5260205260405f206001600160401b03806148f18a8a6160f3565b90549060031b1c16165f5260205261098060405f20546001600160401b036149198a8a6160f3565b90549060031b1c1687617546565b940191969750949293916148a8565b5090600190614884565b346105015760403660031901126105015761495961559d565b6001600160a01b036149696155b3565b1680614a98575060405161497c8161565e565b5f81525f6020820152905b6001600160a01b03165f908152600e60205260409020906149a790616475565b5f5260205260405f208054906149bc82615925565b916149ca60405193846156ca565b8083526020830180925f5260205f205f915b838310614a4f578486604051918291602083019060208452518091526040830191905f5b818110614a0e575050500390f35b91935091602060606001926001600160401b036040885180518452614a39868201518786019061560b565b0151166040820152019401910191849392614a00565b60026020600192604051614a6281615679565b855481526001600160401b0385870154614a8160ff82168685016160e7565b60081c1660408201528152019201920191906149dc565b60405190614aa58261565e565b60018252602082015290614987565b3461050157604036600319011261050157614acd61559d565b614ad56155df565b9060018060a01b03165f52604e6020526001600160401b0360405f2091165f5260205260a060405f206001600160401b0381541690600181015490600281015460046003830154920154926040519485526020850152604084015260608301526080820152f35b3461050157602036600319011261050157614b5561559d565b614b5d615f7a565b601c80546001600160a01b0319166001600160a01b0392909216919091179055005b34610501576060366003190112610501576001600160401b03614ba06155c9565b614ba86155df565b90614bb16155f5565b91614bba615f7a565b5f80546fffffffffffffffffffffffffffffffff1692851660801b9290921790841660c01b1790556001805467ffffffffffffffff191691909216179055005b3461050157602036600319011261050157614c1361559d565b614c1b615791565b50614c24615791565b5060018060a01b03165f526015602052608060405f206001600160401b03604051614c4e81615643565b825492838252600181015460208301908152606084600360028501549460408701958652015416930192835260405194855251602085015251604084015251166060820152f35b34610501576040366003190112610501576104ee614cb161559d565b614cb9615aab565b614cc16159c4565b60243590615ad2565b346105015760203660031901126105015760043563ffffffff60e01b811680910361050157602090637965db0b60e01b8114908115614d0f575b506040519015158152f35b6301ffc9a760e01b14905082614d04565b34610501575f36600319011261050157614d386159c4565b5f335f52601260205260405f20905f5b82548110156104ee57614d5b8184615997565b50915f546001600160401b0380614d7e81600388015416828560801c16906159fc565b1691161061558d576001830191614d9761086984615a2a565b9260018060a01b0385541690614db36002870192835490617381565b5f5b335f52601060205260405f205481101561557d57335f526010602052614dde8160405f20615997565b50805489546001600160a01b0390811691161480615566575b614e045750600101614db5565b979095600389019660ff88541699614e1b8b615618565b60018b14801561554557335f52601160205260405f20835f5260205260405f206040519081602082549182815201915f5260205f20905f915b8160038401106154f35792614e9392859492614e99969354918181106154d9575b8181106154bc575b81811061549f575b10615491575b5003826156ca565b9c615618565b80615487575b6153a3575b8354875499546001600160a01b039091169b5f9160ff16614ec481615618565b615380575050614ed38b617782565b8a5f52601560205260405f2099335f52601660205260405f2060018060a01b038d165f5260205260405f20995f9a5f5b335f52601060205260405f2054811015614f84579d9c9d335f5260106020528d614f308260405f20615997565b509060018060a01b038254161480614f6c575b614f54575b506001019d9c9d614f03565b6001919d82614f6592015490615918565b9c90614f48565b5060ff600382015416614f7e81615618565b15614f43565b509c87999b9d670de0b6b3a764000089939496989f614ff696989b9d9f614fec9180615341575b5f9760018301614fbc8282546157d3565b905560028301805489818111156153325750505f905b558082111561532957614fe4916157d3565b905b546157e0565b0490555b33617fae565b6150076001895493019283546157d3565b8255335f52600d60205260405f20905f52602052600160405f200161503681548086115f1461532257806157d3565b905554156151ab575b5061504991615918565b9460018060a01b039054169160018060a01b03905460081c1692549060405191825260208201527fe4183514c7483039538cd1f9ca20e489b3c411f3af1211cf6b5ad0a00ca4e22860403392a482545f1981019081116108c9576150ad9084615997565b506150b88285615997565b9190916107b9578082036150fe575b505082548015610c25575f19016150de8185615997565b6107b9576003815f80935582600182015582600282015501558355614d48565b805482546001600160a01b0319166001600160a01b039190911617825561516d9160ff9060039081906001858101908201868303615174575b5050600285015460028201550192016001600160401b0380825416166001600160401b03198454161783555460401c1690615a88565b83806150c7565b81615185876151a494541683615a70565b548154610100600160a81b031916610100600160a81b03909116179055565b8980615137565b905060018060a01b038754165f526008602052600160405f200163ffffffff81541680156108c957815463ffffffff19165f1991820163ffffffff1617909155335f90815260106020526040902080549182019182116108c9576152259161521291615997565b5091335f52601060205260405f20615997565b6107b9578181036152b4575b5050335f52601060205260405f209081548015610c25575f1901906152568284615997565b9290926107b957615049935f6003858289975582600182015582600282015501555560018060a01b0388541661528c8133616b0b565b15615299575b509161503f565b5f52600b6020526152ad3360405f20617c24565b5089615292565b815481546001600160a01b0319166001600160a01b0391909116178155600180830154908201556153039160039060ff908290600280820190860182870361530a575b50500154169101615a70565b8780615231565b816151858661531b94541683615a70565b8d806152f7565b85906157d3565b50505f90614fe6565b61533b916157d3565b90614fd2565b8361534d8284546157e0565b0485548082115f1461537857615362916157d3565b61537160018701918254615918565b9055614fab565b50505f615362565b8c61539e889a9c92614ff695979a9c9e96989f8a80955f9233617d8e565b614ff0565b999794916153bb87949a9798959298548a51906157f3565b975f5b8a5181101561547557600190335f52601b60205260405f208d838060a01b0390541690838060a01b0382165f526020528c6001600160401b03806154068560405f2094615a5c565b5116165f5260205260405f20548c8181115f146154665750505f905b335f52601b60205260405f2090848060a01b03165f526020528c6001600160401b03806154538560405f2094615a5c565b5116165f5260205260405f2055016153be565b61546f916157d3565b90615422565b50919497509194979998929598614ea4565b508a511515614e9f565b60c01c81526020015f614e8b565b9260206001916001600160401b038560801c168152019301614e85565b9260206001916001600160401b038560401c168152019301614e7d565b9260206001916001600160401b0385168152019301614e75565b929e9f9e6001608060049286546001600160401b03811682526001600160401b038160401c1660208301526001600160401b0381841c16604083015260c01c60608201520194019201919f9e9f614e54565b614e9960206040519061555881836156ca565b5f8252505f3681379c615618565b508761557761086960028401615a2a565b14614df7565b5061504991939550809294615918565b915061559890615a1c565b614d48565b600435906001600160a01b038216820361050157565b602435906001600160a01b038216820361050157565b600435906001600160401b038216820361050157565b602435906001600160401b038216820361050157565b604435906001600160401b038216820361050157565b9060058210156110705752565b6002111561107057565b602090805161563081615618565b83528101516001600160a01b0316910152565b608081019081106001600160401b038211176107cc57604052565b604081019081106001600160401b038211176107cc57604052565b606081019081106001600160401b038211176107cc57604052565b60c081019081106001600160401b038211176107cc57604052565b60a081019081106001600160401b038211176107cc57604052565b90601f801991011681019081106001600160401b038211176107cc57604052565b6001600160401b0381116107cc57601f01601f191660200190565b9060a0600319830112610501576004356001600160a01b038116810361050157916024356001600160a01b0381168103610501579160443591606435600281101561050157916084356001600160401b0381116105015782602382011215610501578060040135926001600160401b0384116105015760248460051b83010111610501576024019190565b6040519061579e82615643565b5f6060838281528260208201528260408201520152565b5f525f805160206182a3833981519152602052600160405f20015490565b919082039182116108c957565b818102929181159184041417156108c957565b81156157fd570490565b634e487b7160e01b5f52601260045260245ffd5b929190925f9360018060a01b0382165f52604e6020526001600160401b0360405f2091165f5260205260405f20906040519261584c846156af565b6001600160401b03835416808552600184015460208601526002840154946040810195865260806004600387015496606084019788520154910152156158d9579061589691616b0b565b9182156158d157519051908181116158ad57505050565b670de0b6b3a76400009394506158cd92916158c7916157d3565b906157e0565b0490565b505f93505050565b505f9450505050565b604051906158ef8261565e565b5f6020838281520152565b906040516159078161565e565b602060018294805484520154910152565b919082018092116108c957565b6001600160401b0381116107cc5760051b60200190565b929161594782615925565b9361595560405195866156ca565b602085848152019260051b810191821161050157915b81831061597757505050565b82356001600160401b03811681036105015781526020928301920161596b565b80548210156159b0575f5260205f209060021b01905f90565b634e487b7160e01b5f52603260045260245ffd5b60025f805160206182e383398151915254146159ed5760025f805160206182e383398151915255565b633ee5aeb560e01b5f5260045ffd5b906001600160401b03809116911601906001600160401b0382116108c957565b5f1981146108c95760010190565b90604051615a378161565e565b602081935460ff8116615a4981615618565b835260081c6001600160a01b0316910152565b80518210156159b05760209160051b010190565b90615a7a81615618565b60ff80198354169116179055565b90615a9281615618565b60ff60401b82549160401b169060ff60401b1916179055565b60ff5f805160206182c38339815191525416615ac357565b63d93c066560e01b5f5260045ffd5b9060405190615ae08261565e565b5f825260208201905f825260209260405192615afc85856156ca565b5f84525f3681378215610905576001600160a01b0386165f8181526007602052604090205490949015615f6757845f5260088652600160405f20019060ff8254881c16600381101561107057615f5457615b5584616475565b97335f52600d885260405f20895f52885260405f2094600186549601615b7d815480986157d3565b888110615f3d5750615b8f88846180aa565b9687156109055788615ba091615918565b90555f995f5b335f5260108b5260405f2054811015615f2d57335f5260108b52615bcd8160405f20615997565b5080546001600160a01b03168b1480615f16575b615bee5750600101615ba6565b905060019192939495969798999a9b5001615c0a888254615918565b905560015b615dbc5750335f526010895260405f205490335f5260108a5260405f20604051615c3881615643565b8a81528b8101898152604082019384529160608201905f82528054600160401b8110156107cc57615c6e91600182018155615997565b9390936107b957615d00948e615cef9260039560018060a01b039060018060a01b03905116166bffffffffffffffffffffffff60a01b88541617875551600187015560028601915190615ccb8251615cc581615618565b84615a70565b01518154610100600160a81b03191660089190911b610100600160a81b0316179055565b5191615cfa83615618565b01615a70565b335f52601a895260405f20885f52895260405f20905f52885260405f20600160ff1982541617905563ffffffff8354169263ffffffff84146108c957855f92889263ffffffff6001615d7698011663ffffffff19825416179055898452600b8b52615d6e336040862061765a565b505b336173bf565b51604051928352938201526001600160a01b0392909216915f60408201527f4fe2fde631e986ee26283901b9cc8d6d4a311b750f9fa0d659520deba2995f1f60603392a4565b98979695949350505f5b335f526010885260405f2054811015615f0257335f5260108852615ded8160405f20615997565b5080546001600160a01b0316881480615eeb575b615e0e5750600101615dc6565b600191929394959697989950600360ff91015416615e2b81615618565b14615e3f575b50905f8585615d7694615d70565b97919693949097959295335f526011855260405f20905f52845260405f209485548015155f14615ee357615e7390826157f3565b965b5f5b8754811015615ece57600190335f52601b885260405f20875f52885260405f206001600160401b0380615eaa848d6160f3565b90549060031b1c16165f52885260405f20615ec68b8254615918565b905501615e77565b5092989497939650909450929091905f615e31565b505f96615e75565b5089615efc61086960028401615a2a565b14615e01565b508484615d76949596979899505f92615d70565b5082615f2761086960028401615a2a565b14615be1565b5090919293949596979899615c0f565b88906312e1fa3760e11b5f5260045260245260445ffd5b856371ab6ad560e11b5f5260045260245ffd5b8463bd62013360e01b5f5260045260245ffd5b335f9081527fb16e88c42fd4e48df2dd6a2eabd6bc9aec654ec170056b470819f8892cc6431c602052604090205460ff1615615fb257565b63e2517d3f60e01b5f52336004527fa49807205ce4d355092ef5a8a18f56e8913cf4a201fbe287825b095693c2177560245260445ffd5b335f9081527f5bc841a6d925a620866922bada36d16da3dcc9d52290519ea1126e5ca2372139602052604090205460ff161561602157565b63e2517d3f60e01b5f52336004527fb1fadd3142ab2ad7f1337ea4d97112bcc8337fc11ce5b20cb04ad038adf9981960245260445ffd5b335f9081525f80516020618263833981519152602052604090205460ff161561607d57565b63e2517d3f60e01b5f52336004525f8051602061828383398151915260245260445ffd5b5f8181525f805160206182a38339815191526020908152604080832033845290915290205460ff16156160d15750565b63e2517d3f60e01b5f523360045260245260445ffd5b60058210156110705752565b91909180548310156159b0575f52601860205f208360021c019260031b1690565b6001600160401b03166001600160401b0381146108c95760010190565b9060038110156110705764ff0000000082549160201b169064ff000000001916179055565b6001600160a01b0381165f9081525f80516020618263833981519152602052604090205460ff166161d6576001600160a01b03165f8181525f8051602061826383398151915260205260408120805460ff191660011790553391905f80516020618283833981519152905f805160206182038339815191529080a4600190565b505f90565b6001600160a01b0381165f9081527fb7db2dd08fcb62d0c9e08c51941cae53c267786a0b75803fb7960902fc8ef97d602052604090205460ff166161d6576001600160a01b03165f8181527fb7db2dd08fcb62d0c9e08c51941cae53c267786a0b75803fb7960902fc8ef97d60205260408120805460ff191660011790553391905f805160206182038339815191528180a4600190565b6001600160a01b0381165f9081527fb16e88c42fd4e48df2dd6a2eabd6bc9aec654ec170056b470819f8892cc6431c602052604090205460ff166161d6576001600160a01b03165f8181527fb16e88c42fd4e48df2dd6a2eabd6bc9aec654ec170056b470819f8892cc6431c60205260408120805460ff191660011790553391907fa49807205ce4d355092ef5a8a18f56e8913cf4a201fbe287825b095693c21775905f805160206182038339815191529080a4600190565b6001600160a01b0381165f9081527f5bc841a6d925a620866922bada36d16da3dcc9d52290519ea1126e5ca2372139602052604090205460ff166161d6576001600160a01b03165f8181527f5bc841a6d925a620866922bada36d16da3dcc9d52290519ea1126e5ca237213960205260408120805460ff191660011790553391907fb1fadd3142ab2ad7f1337ea4d97112bcc8337fc11ce5b20cb04ad038adf99819905f805160206182038339815191529080a4600190565b5f8181525f805160206182a3833981519152602090815260408083206001600160a01b038616845290915290205460ff1661646f575f8181525f805160206182a3833981519152602090815260408083206001600160a01b0395909516808452949091528120805460ff19166001179055339291905f805160206182038339815191529080a4600190565b50505f90565b80519061648182615618565b602060018060a01b03910151166040519060208201926164a081615618565b83526040820152604081526164b66060826156ca565b51902090565b93929160018060a01b03851691825f52600860205260405f20906164eb845f52600760205260405f2054151590565b1561671f57835f52601560205260405f2061650c6002845492015482615918565b90811561671357908591818611616709575b61653b9161652f61653492886157e0565b6157f3565b80956157d3565b9261655961655261654b8b6176a7565b968b617706565b948a61773f565b9261656d6165678587615918565b9a6176a7565b94859261657f60405161171b8161565e565b5f526002602052600160405f2001548154106166ed575b50835f52604f60205260405f209889546001600160401b0316996165b98b616114565b6001600160401b03166001600160401b03198254161790555f546001600160401b031690604051916165ea836156af565b8252602082018d8152604083018a8152606084019187835260808501938452885f52604e6020528d60405f20906001600160401b03165f5260205260405f2094516001600160401b03166001600160401b03166001600160401b0319865416178555516001850155516002840155516003830155519060040155604051926001600160401b038493169561668f92846040919493926060820195825260208201520152565b037f91754b254153861c1e9bc9186484a0bb770823acfa00423044ba1759a01210e791a36040805187815260208101939093528201527f1508fbe22c9805770740c8f3827567950022729e0096e311dc087990c157fffc90606090a3565b600101805464ff0000000019166401000000001790555f616596565b909450849061651e565b505f9750505050505050565b8363bd62013360e01b5f5260045260245ffd5b6001600160a01b0381165f9081525f80516020618263833981519152602052604090205460ff16156161d6576001600160a01b03165f8181525f8051602061826383398151915260205260408120805460ff191690553391905f80516020618283833981519152907ff6391f5c32d9c69d2a47ea670b442974b53935d1edc7fd64eb21e047a839171b9080a4600190565b5f8181525f805160206182a3833981519152602090815260408083206001600160a01b038616845290915290205460ff161561646f575f8181525f805160206182a3833981519152602090815260408083206001600160a01b0395909516808452949091528120805460ff19169055339291907ff6391f5c32d9c69d2a47ea670b442974b53935d1edc7fd64eb21e047a839171b9080a4600190565b3d15616889573d90616870826156eb565b9161687e60405193846156ca565b82523d5f602084013e565b606090565b6168ad60405161689d8161565e565b5f81525f602082015234906177d1565b565b94939260018060a01b03861692835f52600860205260405f20916168de855f52600760205260405f2054151590565b15615f6757845f52601560205260405f2090855f52601860205260405f206001600160401b0386165f5260205260405f209161692860028087549301549401546108a98584615918565b908115616afd57879361698d616986616976868f9b9a9796616994968161652f9c9911616af3575b816169656143d89361652f61696e94876157e0565b9c8d98856157e0565b9a8b926157d3565b926169808b6176a7565b9a617706565b968d61773f565b968c617cd5565b946169ac6169a6876108a98489615918565b9b6176a7565b9586936169be60405161171b8161565e565b5f526002602052600160405f200154815410616ad7575b50845f52604f6020528b60405f209a8b546001600160401b03169b6169f98d616114565b6001600160401b03166001600160401b03198254161790558b5f546001600160401b03169260405193616a2b856156af565b84526020840190815260408401908c82526060850192898452608086019485528a5f52604e60205260405f20906001600160401b03165f5260205260405f2094516001600160401b03166001600160401b03166001600160401b0319865416178555516001850155516002840155516003830155519060040155616aae91615918565b6040805195865260208601919091528401919091526001600160401b031691806060810161668f565b600101805464ff0000000019166401000000001790555f6169d5565b9091508190616950565b505f99505050505050505050565b90915f925f5b6001600160a01b0384165f81815260106020526040902054821015616b8757805f526010602052616b458260405f20615997565b50546001600160a01b03848116911614616b63575b50600101616b11565b60019195616b80915f5260106020528261083d8860405f20615997565b9490616b5a565b5050509050565b6001600160a01b0316908115611537576168ad91616bae82303384617d1f565b60405190616bbb8261565e565b6001825260208201526177d1565b15616bd057565b60405162461bcd60e51b815260206004820152600f60248201526e151c985b9cd9995c8819985a5b1959608a1b6044820152606490fd5b335f52600960205260405f20908154918215616cc2575f546001600160401b03806001818416940154169160801c16906001600160401b03616c4983836159fc565b1683106118b95750505081335f52600860205260405f20616c6b8282546157d3565b9055335f5260096020525f6001604082208281550155616c945f80808085335af161187b61685f565b6040519081527fda2b51341079f3dd8e6763a50f329bbc3dc6ca6a51b920fe99fbf89a54ec0e2760203392a2565b505f9150565b80548210156159b0575f52600360205f20910201905f90565b90616ceb82615925565b616cf860405191826156ca565b8281528092616d09601f1991615925565b0190602036910137565b9291906001600160a01b0316806173655750604051616d318161565e565b5f81525f6020820152915b8115610905576001600160a01b0384165f818152600760205260409020549093901561671f57835f526008602052600160405f200160ff815460201c1660038110156110705761735257616d8f82616475565b96335f52600d60205260405f20885f5260205260405f2096600188549801616db98154809a6157d3565b87811061733b5750616dcb87836180aa565b9889156109055787616ddc91615918565b90555f985f5b335f52601060205260405f205481101561732c57335f526010602052616e0b8160405f20615997565b5080546001600160a01b03168a1480617315575b616e2c5750600101616de2565b905060019192939495969798999a5001616e478a8254615918565b905560015b6171b75750335f908152601060205260409081902080549151616e6e81615643565b898152602081018b815260408201928884526060830190616e8e8b615618565b8a82528054600160401b8110156107cc57616eae91600182018155615997565b9390936107b9575183546001600160a01b0319166001600160a01b03919091161783559051600183015591518051616efb936003929091615cef9160028601916106f5906106ef81615618565b616f0486615618565b85616fcb57335f52601a60205260405f20885f5260205260405f20905f5260205260405f20600160ff198254161790555b63ffffffff8354169263ffffffff84146108c957888692889263ffffffff6001616f7c98011663ffffffff19825416179055895f52600b602052615d6e3360405f2061765a565b602060018060a01b0391015116936040519283526020830152616f9e81615618565b60408201527f4fe2fde631e986ee26283901b9cc8d6d4a311b750f9fa0d659520deba2995f1f60603392a4565b97939097969491959296335f52601160205260405f20905f5260205260405f2086516001600160401b0381116107cc57600160401b81116107cc57815481835580821061715d575b5060208801915f5260205f208160021c915f5b838110617118575060031981169003806170c0575b5050875191505080156170b85761705290856157f3565b965b5f5b87518110156170aa57600190335f52601b60205260405f20885f5260205260405f206001600160401b038061708b848d615a5c565b5116165f5260205260405f206170a28b8254615918565b905501617056565b509295919496509296616f35565b505f96617054565b925f935f5b8181106170da5750505001555f80808061703b565b909194602061710e6001926001600160401b03895116908560031b6001600160401b03809160031b9316831b921b19161790565b96019291016170c5565b5f805b60048110617130575083820155600101617026565b86519096916001916020916001600160401b0360068b901b81811b199092169216901b179201960161711b565b825f5260205f20600380840160021c8201920160021c019060188360031b168061719c575b505b8181106171915750617013565b5f8155600101617184565b5f198201908154905f199060200360031b1c1690555f617182565b979695949392505f5b335f52601060205260405f205481101561730157335f5260106020526171e98160405f20615997565b5080546001600160a01b03168814806172ea575b61720a57506001016171c0565b600191929394959697989950600360ff9101541661722781615618565b1461723b575b5090838588616f7c94615d70565b97929593949097969196335f52601160205260405f20905f5260205260405f209485548015155f146172e25761727190846157f3565b965b5f5b87548110156172cf57600190335f52601b60205260405f20885f5260205260405f206001600160401b03806172aa848d6160f3565b90549060031b1c16165f5260205260405f206172c78b8254615918565b905501617275565b509398929794965090945092908361722d565b505f96617273565b50896172fb61086960028401615a2a565b146171fd565b50869750928481959697616f7c9495615d70565b508261732661086960028401615a2a565b14616e1f565b50909192939495969798616e4c565b87906312e1fa3760e11b5f5260045260245260445ffd5b846371ab6ad560e11b5f5260045260245ffd5b604051906173728261565e565b60018252602082015291616d3c565b6001600160a01b03165f90815260156020526040902060018101549081156173b8576173b592600261652f920154906157e0565b90565b5050505f90565b91949092936173cd81615618565b61752b57506173db82617782565b60018060a01b03821692835f52601560205260405f209260018060a01b03831692835f52601660205260405f20865f5260205260405f205f955f5b865f52601060205260405f205481101561749157865f52601060205261743f8160405f20615997565b5080546001600160a01b03168a1480617479575b617461575b50600101617416565b600191988261747292015490615918565b9790617458565b5060ff60038201541661748b81615618565b15617453565b50600197506174e591939550614fe4896174b96168ad9b670de0b6b3a764000096989a6157d3565b806174ed575b8a84016174cd838254615918565b9055600284016174de8b8254615918565b9055615918565b049055617fae565b856174f98286546157e0565b0487548082115f146175235761750e916157d3565b61751c8c8901918254615918565b90556174bf565b50505f61750e565b9061754183926001866168ad9882989786617d8e565b617fae565b60018060a01b03165f5260186020526001600160401b0360405f2091165f5260205260405f20600181015490811561758a576173b592600261652f920154906157e0565b505090565b80548210156159b0575f5260205f2001905f90565b805f52600760205260405f2054155f146161d657600654600160401b8110156107cc576175f36175dd826001859401600655600661758f565b819391549060031b91821b915f19901b19161790565b9055600654905f52600760205260405f2055600190565b805f52600460205260405f2054155f146161d657600354600160401b8110156107cc576176436175dd826001859401600355600361758f565b9055600354905f52600460205260405f2055600190565b5f82815260018201602052604090205461646f57805490600160401b8210156107cc57826176926175dd84600180960185558461758f565b90558054925f520160205260405f2055600190565b6001600160a01b03165f90815260156020526040902060018101549081156176f8576002015490670de0b6b3a7640000820291808304670de0b6b3a764000014901517156108c9576173b5916157f3565b5050670de0b6b3a764000090565b6001600160a01b03165f908152600860205260409020805482811061773657506177318282546157d3565b905590565b5f919392509255565b6001600160a01b03165f90815260156020526040902060020180548015801561777a575b6173b85782811061773657506177318282546157d3565b508215617763565b60018060a01b03165f52601560205260405f206001600160401b036003815f5416920191166001600160401b0319825416179055565b80548210156159b0575f5260205f209060011b01905f90565b8115610905576177e081616475565b805f52600260205260405f2060ff815416156178d75760028101548085106178c057506003810154801515806178aa575b61788b5750600401617824848254615918565b9055335f52600d60205260405f20905f5260205260405f20617847838254615918565b9055602001516040519182526001600160a01b0316905f60208201527f754fff2205ca9f1a08ae1f38f487839ba7e18895f0238908ea8b8842d7424fbb60403392a3565b60048592015490634b98504560e01b5f5260045260245260445260645ffd5b50806178ba866004850154615918565b11617811565b8490631e2be21160e01b5f5260045260245260445ffd5b602083015163f6f24b8360e01b5f9081526001600160a01b03909116600452602490fd5b81156109055761790a81616475565b90815f52600260205260405f2060ff81541615617aaa5760028101548085106178c05750600381015480151580617a94575b61788b575060040161794f848254615918565b9055335f52600d60205260405f20825f5260205260405f20617972848254615918565b9055600584101561107057836179cf575b6020908101516040519384526001600160a01b0316936179a792509083019061560b565b7f754fff2205ca9f1a08ae1f38f487839ba7e18895f0238908ea8b8842d7424fbb60403392a3565b6179d8846180f6565b91335f52600e60205260405f20905f52602052617a0260405f20926001600160401b0343166159fc565b91604051617a0f81615679565b8481526020810191617a2187846160e7565b6001600160401b0360408301951685528054600160401b8110156107cc57617a4e916001820181556177b8565b6107b9576001915181550190516005811015611070576179a79360ff68ffffffffffffffff008454925160081b1692169068ffffffffffffffffff191617179055617983565b5080617aa4866004850154615918565b1161793c565b506020015163f6f24b8360e01b5f9081526001600160a01b03909116600452602490fd5b5f81815260046020526040902054801561646f575f1981018181116108c9576003545f198101919082116108c957818103617b41575b5050506003548015610c25575f1901617b1e81600361758f565b8154905f199060031b1b191690556003555f5260046020525f6040812055600190565b617b63617b526175dd93600361758f565b90549060031b1c928392600361758f565b90555f52600460205260405f20555f8080617b04565b5f81815260076020526040902054801561646f575f1981018181116108c9576006545f198101919082116108c957818103617bec575b5050506006548015610c25575f1901617bc981600661758f565b8154905f199060031b1b191690556006555f5260076020525f6040812055600190565b617c0e617bfd6175dd93600661758f565b90549060031b1c928392600661758f565b90555f52600760205260405f20555f8080617baf565b906001820191815f528260205260405f20548015155f14617ccd575f1981018181116108c95782545f198101919082116108c957818103617c98575b50505080548015610c25575f190190617c79828261758f565b8154905f199060031b1b19169055555f526020525f6040812055600190565b617cb8617ca86175dd938661758f565b90549060031b1c9283928661758f565b90555f528360205260405f20555f8080617c60565b505050505f90565b60018060a01b03165f5260186020526001600160401b0360405f2091165f52602052600260405f200180548015801561777a576173b85782811061773657506177318282546157d3565b6040516323b872dd60e01b60208201526001600160a01b0392831660248201529290911660448301526064808301939093529181526168ad91610bb56084836156ca565b60ff5f805160206183038339815191525460401c1615617d7f57565b631afcd79f60e31b5f5260045ffd5b9594909392918151908115617fa457617db391617daa916157f3565b928251906157f3565b905f5b8151811015617fa457806001600160401b03617dd460019385615a5c565b5116828060a01b0388165f52601860205260405f206001600160401b0382165f52602052670de0b6b3a7640000617ee160405f20858060a01b038d1693845f52601960205260405f20878060a01b038d165f5260205260405f206001600160401b0382165f5260205260405f20946001600160401b035f54166001600160401b036003850191166001600160401b03198254161790555f52601b60205260405f20878060a01b038d165f526020526001600160401b0360405f2091165f52602052898960405f205491617f95575b5080617f57575b8a15617f0b57868201617ebd8b8254615918565b905560028201617ece8a8254615918565b90555b898b15617eea57614fe491615918565b04905501617db6565b508980821115617f0357617efd916157d3565b90614fe6565b50505f617efd565b81870180548b81811115617f485750505f905b556002820180548a81811115617f395750505f905b55617ed1565b617f42916157d3565b90617f33565b617f51916157d3565b90617f1e565b83617f638284546157e0565b0485548082115f14617f8d57617f78916157d3565b617f86888701918254615918565b9055617ea9565b50505f617f78565b617f9e916157d3565b89617ea2565b5050505050509050565b601c545f946001600160a01b039091169081156180a257156180485750601c546001600160a01b0316803b15618044576040516316f60ec560e11b81526001600160a01b039283166004820152919092166024820152604481018490526064810192909252608482018390528290829060a490829084905af161802f575050565b61803a8280926156ca565b6180415750565b80fd5b8480fd5b80919394503b15610501575f9283608492604051968795869462f74bbf60e71b865260018060a01b0316600486015260018060a01b0316602485015282604485015260648401525af16180985750565b5f6168ad916156ca565b505050505050565b6001600160a01b03165f9081526015602052604090206001810154801580156180ea575b61758a576180e16002916173b5946157e0565b910154906157f3565b506002820154156180ce565b600581101561107057600181146181395760028114618131576003811461812957600414618122575f90565b6213c68090565b506209e34090565b506206978090565b5062034bc090565b905f602091828151910182855af115618199575f513d61819057506001600160a01b0381163b155b6181705750565b635274afe760e01b5f9081526001600160a01b0391909116600452602490fd5b60011415618169565b6040513d5f823e3d90fd5b906181c857508051156181b957805190602001fd5b63d6bda27560e01b5f5260045ffd5b815115806181f9575b6181d9575090565b639996b31560e01b5f9081526001600160a01b0391909116600452602490fd5b50803b156181d156fe2f8788117e7eff1d82e926ec794901d17c78024a50270940304540a733656f0d360894a13ba1a3210667c828492db98dca3e2076cc3735a920a3ca505d382bbce34918ff1c7084970068b53fd71ad6d8b04e9f15d3886cbf006443e6cdc52ea669892194d2f1eb4d48bd09f166bfce1754a681e8e17011b3e12b710cce56a87b12b42e8a160f6064dc959c6f251e3af0750ad213dbecf573b4710d67d6c28e3902dd7bc7dec4dceedda775e58dd541e08a116c6c53815c0bd028192f7b626800cd5ed15c6e187e77e9aee88184c21f4f2182ab5827cb3b7e07fbedcd63f033009b779b17422d0df92223018b32b4d1fa46e071723d6817e2486d003becc55f00f0c57e16840df040f15088dc2f81fe391c3923bec73e23a9662efc9c229c6a00a164736f6c634300081a000a","linkReferences":{}},"methodIdentifiers":{"ADMIN_ROLE()":"75b238fc","ASSET_MANAGER_ROLE()":"a4b32de8","BPS_DENOMINATOR()":"e1a45218","DEFAULT_ADMIN_ROLE()":"a217fddf","LOCK_ONE_MONTH()":"9e870585","LOCK_SIX_MONTHS()":"f3c9b311","LOCK_THREE_MONTHS()":"d27a6f06","LOCK_TWO_MONTHS()":"7df92ada","MULTIPLIER_NONE()":"4962f88f","MULTIPLIER_ONE_MONTH()":"18056dc2","MULTIPLIER_SIX_MONTHS()":"453eccea","MULTIPLIER_THREE_MONTHS()":"a7fa6f98","MULTIPLIER_TWO_MONTHS()":"54de2320","PRECISION()":"aaf5eb68","SLASHER_ROLE()":"5095af64","UPGRADE_INTERFACE_VERSION()":"ad3cb1cc","addBlueprint(uint64)":"c7353025","addBlueprintToDelegation(uint256,uint64)":"23cc2700","addSlasher(address)":"68a9f19c","advanceRound()":"1ba9998b","claimDelegatorRewards()":"44d1480b","claimOperatorRewards()":"4c4ede2d","completeLeaving()":"d1736ba7","currentRound()":"8a19c8bc","delegate(address,uint256)":"026e402b","delegateWithOptions(address,address,uint256,uint8,uint64[])":"fd7d3dbc","delegationBondLessDelay()":"ba05bbf5","deposit()":"d0e30db0","depositAndDelegate(address)":"461cc23b","depositAndDelegateWithOptions(address,address,uint256,uint8,uint64[])":"fbec4861","depositERC20(address,uint256)":"97feb926","depositERC20WithLock(address,uint256,uint8)":"cb15038b","depositWithLock(uint8)":"f38c7c4e","disableAsset(address)":"70807528","enableAsset(address,uint256,uint256,uint256,uint16)":"354ebef9","executeDelegatorUnstake()":"007910d0","executeOperatorUnstake()":"b0dfce06","executeWithdraw()":"f8fd9795","getAssetConfig(address)":"6ec3ab67","getDelegation(address,address)":"15049a5a","getDelegationBlueprints(address,uint256)":"7b9996c5","getDelegations(address)":"31cc13ba","getDeposit(address,address)":"c35082a9","getLocks(address,address)":"0c8833ce","getOperatorBlueprints(address)":"dc972ccc","getOperatorDelegatedStake(address)":"8c5b4ae7","getOperatorDelegatorCount(address)":"486398c3","getOperatorDelegators(address)":"a299e298","getOperatorMetadata(address)":"2ee663b8","getOperatorRewardPool(address)":"03587c1d","getOperatorSelfStake(address)":"d673e0b9","getOperatorStake(address)":"e4e88de8","getPendingDelegatorRewards(address)":"168f6865","getPendingOperatorRewards(address)":"30224fc8","getPendingUnstakes(address)":"5722d512","getPendingWithdrawals(address)":"f340c0d0","getRoleAdmin(bytes32)":"248a9ca3","getSlashCount(address)":"66c36875","getSlashImpact(address,uint64,address)":"9494f426","getSlashRecord(address,uint64)":"a457af3d","getSnapshot(uint64,address)":"c07449e2","getTotalDelegation(address)":"fc5e7e09","grantRole(bytes32,address)":"2f2ff15d","hasRole(bytes32,address)":"91d14854","increaseStake()":"d9e257ef","initialize(address,uint256,uint256,uint16)":"cbb6d6bd","isOperator(address)":"6d70f7ae","isOperatorActive(address)":"eb473533","isSlasher(address)":"57601c5d","leaveDelegatorsDelay()":"db8a173a","leaveOperatorsDelay()":"4de8addc","meetsStakeRequirement(address,uint256)":"f46913bb","minOperatorStake()":"d775cb61","nativeEnabled()":"77ab2cf3","nextSlashId(address)":"96085673","notifyReward(address,uint64,uint256)":"a3b9c5c2","notifyRewardForBlueprint(address,uint64,uint64,uint256)":"3dcad9db","operatorAt(uint256)":"26142335","operatorCommissionBps()":"32273f61","operatorCount()":"7c6f3158","pause()":"8456cb59","paused()":"5c975abb","proxiableUUID()":"52d1902d","registerOperator()":"2acde098","registerOperatorWithAsset(address,uint256)":"e0a5825b","removeBlueprint(uint64)":"28e70ecc","removeBlueprintFromDelegation(uint256,uint64)":"859caa18","removeSlasher(address)":"aac6aa9c","renounceRole(bytes32,address)":"36568abe","revokeRole(bytes32,address)":"d547741f","rewardsManager()":"defe2053","roundDuration()":"f7cb789a","scheduleDelegatorUnstake(address,address,uint256)":"fc8a91af","scheduleOperatorUnstake(uint256)":"44aff252","scheduleWithdraw(address,uint256)":"e1ee4bcc","setDelays(uint64,uint64,uint64)":"03780211","setOperatorCommission(uint16)":"f3c4d8a0","setRewardsManager(address)":"0a8ddc5e","slash(address,uint64,uint256,bytes32)":"356924ea","slashForBlueprint(address,uint64,uint64,uint256,bytes32)":"8d795d50","slashHistory(address,uint64)":"0aa8b110","snapshotOperator(address)":"cadd550c","startLeaving()":"87703550","supportsInterface(bytes4)":"01ffc9a7","undelegate(address,uint256)":"4d99dd16","unpause()":"3f4ba83a","upgradeToAndCall(address,bytes)":"4f1ef286"},"id":168}