{"abi":[{"type":"constructor","inputs":[],"stateMutability":"nonpayable"},{"type":"fallback","stateMutability":"payable"},{"type":"receive","stateMutability":"payable"},{"type":"function","name":"ADMIN_ROLE","inputs":[],"outputs":[{"name":"","type":"bytes32","internalType":"bytes32"}],"stateMutability":"view"},{"type":"function","name":"ASSET_MANAGER_ROLE","inputs":[],"outputs":[{"name":"","type":"bytes32","internalType":"bytes32"}],"stateMutability":"view"},{"type":"function","name":"BPS_DENOMINATOR","inputs":[],"outputs":[{"name":"","type":"uint256","internalType":"uint256"}],"stateMutability":"view"},{"type":"function","name":"COMMISSION_CHANGE_DELAY","inputs":[],"outputs":[{"name":"","type":"uint64","internalType":"uint64"}],"stateMutability":"view"},{"type":"function","name":"DEFAULT_ADMIN_ROLE","inputs":[],"outputs":[{"name":"","type":"bytes32","internalType":"bytes32"}],"stateMutability":"view"},{"type":"function","name":"LOCK_ONE_MONTH","inputs":[],"outputs":[{"name":"","type":"uint64","internalType":"uint64"}],"stateMutability":"view"},{"type":"function","name":"LOCK_SIX_MONTHS","inputs":[],"outputs":[{"name":"","type":"uint64","internalType":"uint64"}],"stateMutability":"view"},{"type":"function","name":"LOCK_THREE_MONTHS","inputs":[],"outputs":[{"name":"","type":"uint64","internalType":"uint64"}],"stateMutability":"view"},{"type":"function","name":"LOCK_TWO_MONTHS","inputs":[],"outputs":[{"name":"","type":"uint64","internalType":"uint64"}],"stateMutability":"view"},{"type":"function","name":"MAX_REWARD_MULTIPLIER_BPS","inputs":[],"outputs":[{"name":"","type":"uint16","internalType":"uint16"}],"stateMutability":"view"},{"type":"function","name":"MIN_LOCK_AMOUNT","inputs":[],"outputs":[{"name":"","type":"uint256","internalType":"uint256"}],"stateMutability":"view"},{"type":"function","name":"MULTIPLIER_NONE","inputs":[],"outputs":[{"name":"","type":"uint16","internalType":"uint16"}],"stateMutability":"view"},{"type":"function","name":"MULTIPLIER_ONE_MONTH","inputs":[],"outputs":[{"name":"","type":"uint16","internalType":"uint16"}],"stateMutability":"view"},{"type":"function","name":"MULTIPLIER_SIX_MONTHS","inputs":[],"outputs":[{"name":"","type":"uint16","internalType":"uint16"}],"stateMutability":"view"},{"type":"function","name":"MULTIPLIER_THREE_MONTHS","inputs":[],"outputs":[{"name":"","type":"uint16","internalType":"uint16"}],"stateMutability":"view"},{"type":"function","name":"MULTIPLIER_TWO_MONTHS","inputs":[],"outputs":[{"name":"","type":"uint16","internalType":"uint16"}],"stateMutability":"view"},{"type":"function","name":"PRECISION","inputs":[],"outputs":[{"name":"","type":"uint256","internalType":"uint256"}],"stateMutability":"view"},{"type":"function","name":"SLASHER_ROLE","inputs":[],"outputs":[{"name":"","type":"bytes32","internalType":"bytes32"}],"stateMutability":"view"},{"type":"function","name":"TANGLE_ROLE","inputs":[],"outputs":[{"name":"","type":"bytes32","internalType":"bytes32"}],"stateMutability":"view"},{"type":"function","name":"UPGRADER_ROLE","inputs":[],"outputs":[{"name":"","type":"bytes32","internalType":"bytes32"}],"stateMutability":"view"},{"type":"function","name":"UPGRADE_INTERFACE_VERSION","inputs":[],"outputs":[{"name":"","type":"string","internalType":"string"}],"stateMutability":"view"},{"type":"function","name":"VIRTUAL_ASSETS","inputs":[],"outputs":[{"name":"","type":"uint256","internalType":"uint256"}],"stateMutability":"view"},{"type":"function","name":"VIRTUAL_SHARES","inputs":[],"outputs":[{"name":"","type":"uint256","internalType":"uint256"}],"stateMutability":"view"},{"type":"function","name":"blueprintSlashCount","inputs":[{"name":"","type":"uint64","internalType":"uint64"},{"name":"","type":"address","internalType":"address"}],"outputs":[{"name":"","type":"uint64","internalType":"uint64"}],"stateMutability":"view"},{"type":"function","name":"clearFacetSelectors","inputs":[{"name":"selectors","type":"bytes4[]","internalType":"bytes4[]"}],"outputs":[],"stateMutability":"nonpayable"},{"type":"function","name":"currentRound","inputs":[],"outputs":[{"name":"","type":"uint64","internalType":"uint64"}],"stateMutability":"view"},{"type":"function","name":"delegationBondLessDelay","inputs":[],"outputs":[{"name":"","type":"uint64","internalType":"uint64"}],"stateMutability":"view"},{"type":"function","name":"facetForSelector","inputs":[{"name":"selector","type":"bytes4","internalType":"bytes4"}],"outputs":[{"name":"","type":"address","internalType":"address"}],"stateMutability":"view"},{"type":"function","name":"getAccumulatedDust","inputs":[{"name":"token","type":"address","internalType":"address"}],"outputs":[{"name":"","type":"uint256","internalType":"uint256"}],"stateMutability":"view"},{"type":"function","name":"getAssetAdapter","inputs":[{"name":"token","type":"address","internalType":"address"}],"outputs":[{"name":"","type":"address","internalType":"address"}],"stateMutability":"view"},{"type":"function","name":"getPendingSlashCount","inputs":[{"name":"operator","type":"address","internalType":"address"}],"outputs":[{"name":"","type":"uint64","internalType":"uint64"}],"stateMutability":"view"},{"type":"function","name":"getRoleAdmin","inputs":[{"name":"role","type":"bytes32","internalType":"bytes32"}],"outputs":[{"name":"","type":"bytes32","internalType":"bytes32"}],"stateMutability":"view"},{"type":"function","name":"getSlashCount","inputs":[{"name":"operator","type":"address","internalType":"address"}],"outputs":[{"name":"","type":"uint64","internalType":"uint64"}],"stateMutability":"view"},{"type":"function","name":"getSlashCountForBlueprint","inputs":[{"name":"blueprintId","type":"uint64","internalType":"uint64"},{"name":"operator","type":"address","internalType":"address"}],"outputs":[{"name":"","type":"uint64","internalType":"uint64"}],"stateMutability":"view"},{"type":"function","name":"getSlashCountForService","inputs":[{"name":"serviceId","type":"uint64","internalType":"uint64"},{"name":"operator","type":"address","internalType":"address"}],"outputs":[{"name":"","type":"uint64","internalType":"uint64"}],"stateMutability":"view"},{"type":"function","name":"getSlashImpact","inputs":[{"name":"operator","type":"address","internalType":"address"},{"name":"slashId","type":"uint64","internalType":"uint64"},{"name":"delegator","type":"address","internalType":"address"}],"outputs":[{"name":"lostAmount","type":"uint256","internalType":"uint256"}],"stateMutability":"view"},{"type":"function","name":"getSlashRecord","inputs":[{"name":"operator","type":"address","internalType":"address"},{"name":"slashId","type":"uint64","internalType":"uint64"}],"outputs":[{"name":"","type":"tuple","internalType":"struct SlashingManager.SlashRecord","components":[{"name":"round","type":"uint64","internalType":"uint64"},{"name":"serviceId","type":"uint64","internalType":"uint64"},{"name":"blueprintId","type":"uint64","internalType":"uint64"},{"name":"assetHash","type":"bytes32","internalType":"bytes32"},{"name":"slashBps","type":"uint16","internalType":"uint16"},{"name":"totalSlashed","type":"uint256","internalType":"uint256"},{"name":"exchangeRateBefore","type":"uint256","internalType":"uint256"},{"name":"exchangeRateAfter","type":"uint256","internalType":"uint256"},{"name":"evidence","type":"bytes32","internalType":"bytes32"}]}],"stateMutability":"view"},{"type":"function","name":"getSnapshot","inputs":[{"name":"round","type":"uint64","internalType":"uint64"},{"name":"operator","type":"address","internalType":"address"}],"outputs":[{"name":"","type":"tuple","internalType":"struct Types.OperatorSnapshot","components":[{"name":"stake","type":"uint256","internalType":"uint256"},{"name":"totalDelegated","type":"uint256","internalType":"uint256"}]}],"stateMutability":"view"},{"type":"function","name":"grantRole","inputs":[{"name":"role","type":"bytes32","internalType":"bytes32"},{"name":"account","type":"address","internalType":"address"}],"outputs":[],"stateMutability":"nonpayable"},{"type":"function","name":"hasRole","inputs":[{"name":"role","type":"bytes32","internalType":"bytes32"},{"name":"account","type":"address","internalType":"address"}],"outputs":[{"name":"","type":"bool","internalType":"bool"}],"stateMutability":"view"},{"type":"function","name":"initialize","inputs":[{"name":"admin","type":"address","internalType":"address"},{"name":"nativeMinOperatorStake","type":"uint256","internalType":"uint256"},{"name":"nativeMinDelegation","type":"uint256","internalType":"uint256"},{"name":"_operatorCommissionBps","type":"uint16","internalType":"uint16"}],"outputs":[],"stateMutability":"nonpayable"},{"type":"function","name":"lastRoundAdvance","inputs":[],"outputs":[{"name":"","type":"uint64","internalType":"uint64"}],"stateMutability":"view"},{"type":"function","name":"leaveDelegatorsDelay","inputs":[],"outputs":[{"name":"","type":"uint64","internalType":"uint64"}],"stateMutability":"view"},{"type":"function","name":"leaveOperatorsDelay","inputs":[],"outputs":[{"name":"","type":"uint64","internalType":"uint64"}],"stateMutability":"view"},{"type":"function","name":"nativeEnabled","inputs":[],"outputs":[{"name":"","type":"bool","internalType":"bool"}],"stateMutability":"view"},{"type":"function","name":"nextSlashId","inputs":[{"name":"","type":"address","internalType":"address"}],"outputs":[{"name":"","type":"uint64","internalType":"uint64"}],"stateMutability":"view"},{"type":"function","name":"operatorCommissionBps","inputs":[],"outputs":[{"name":"","type":"uint16","internalType":"uint16"}],"stateMutability":"view"},{"type":"function","name":"paused","inputs":[],"outputs":[{"name":"","type":"bool","internalType":"bool"}],"stateMutability":"view"},{"type":"function","name":"proxiableUUID","inputs":[],"outputs":[{"name":"","type":"bytes32","internalType":"bytes32"}],"stateMutability":"view"},{"type":"function","name":"registerFacet","inputs":[{"name":"facet","type":"address","internalType":"address"}],"outputs":[],"stateMutability":"nonpayable"},{"type":"function","name":"registerFacetSelectors","inputs":[{"name":"facet","type":"address","internalType":"address"},{"name":"selectors","type":"bytes4[]","internalType":"bytes4[]"}],"outputs":[],"stateMutability":"nonpayable"},{"type":"function","name":"renounceRole","inputs":[{"name":"role","type":"bytes32","internalType":"bytes32"},{"name":"callerConfirmation","type":"address","internalType":"address"}],"outputs":[],"stateMutability":"nonpayable"},{"type":"function","name":"requireAdapters","inputs":[],"outputs":[{"name":"","type":"bool","internalType":"bool"}],"stateMutability":"view"},{"type":"function","name":"resetPendingSlashCount","inputs":[{"name":"operator","type":"address","internalType":"address"},{"name":"count","type":"uint64","internalType":"uint64"}],"outputs":[],"stateMutability":"nonpayable"},{"type":"function","name":"revokeRole","inputs":[{"name":"role","type":"bytes32","internalType":"bytes32"},{"name":"account","type":"address","internalType":"address"}],"outputs":[],"stateMutability":"nonpayable"},{"type":"function","name":"roundDuration","inputs":[],"outputs":[{"name":"","type":"uint64","internalType":"uint64"}],"stateMutability":"view"},{"type":"function","name":"serviceSlashCount","inputs":[{"name":"","type":"uint64","internalType":"uint64"},{"name":"","type":"address","internalType":"address"}],"outputs":[{"name":"","type":"uint64","internalType":"uint64"}],"stateMutability":"view"},{"type":"function","name":"slashHistory","inputs":[{"name":"","type":"address","internalType":"address"},{"name":"","type":"uint64","internalType":"uint64"}],"outputs":[{"name":"round","type":"uint64","internalType":"uint64"},{"name":"serviceId","type":"uint64","internalType":"uint64"},{"name":"blueprintId","type":"uint64","internalType":"uint64"},{"name":"assetHash","type":"bytes32","internalType":"bytes32"},{"name":"slashBps","type":"uint16","internalType":"uint16"},{"name":"totalSlashed","type":"uint256","internalType":"uint256"},{"name":"exchangeRateBefore","type":"uint256","internalType":"uint256"},{"name":"exchangeRateAfter","type":"uint256","internalType":"uint256"},{"name":"evidence","type":"bytes32","internalType":"bytes32"}],"stateMutability":"view"},{"type":"function","name":"supportsInterface","inputs":[{"name":"interfaceId","type":"bytes4","internalType":"bytes4"}],"outputs":[{"name":"","type":"bool","internalType":"bool"}],"stateMutability":"view"},{"type":"function","name":"upgradeToAndCall","inputs":[{"name":"newImplementation","type":"address","internalType":"address"},{"name":"data","type":"bytes","internalType":"bytes"}],"outputs":[],"stateMutability":"payable"},{"type":"event","name":"BlueprintAddedToDelegation","inputs":[{"name":"delegator","type":"address","indexed":true,"internalType":"address"},{"name":"delegationIndex","type":"uint256","indexed":true,"internalType":"uint256"},{"name":"blueprintId","type":"uint64","indexed":false,"internalType":"uint64"}],"anonymous":false},{"type":"event","name":"BlueprintRemovedFromDelegation","inputs":[{"name":"delegator","type":"address","indexed":true,"internalType":"address"},{"name":"delegationIndex","type":"uint256","indexed":true,"internalType":"uint256"},{"name":"blueprintId","type":"uint64","indexed":false,"internalType":"uint64"}],"anonymous":false},{"type":"event","name":"Delegated","inputs":[{"name":"delegator","type":"address","indexed":true,"internalType":"address"},{"name":"operator","type":"address","indexed":true,"internalType":"address"},{"name":"token","type":"address","indexed":true,"internalType":"address"},{"name":"amount","type":"uint256","indexed":false,"internalType":"uint256"},{"name":"shares","type":"uint256","indexed":false,"internalType":"uint256"},{"name":"selectionMode","type":"uint8","indexed":false,"internalType":"enum Types.BlueprintSelectionMode"}],"anonymous":false},{"type":"event","name":"DelegatorUnstakeExecuted","inputs":[{"name":"delegator","type":"address","indexed":true,"internalType":"address"},{"name":"operator","type":"address","indexed":true,"internalType":"address"},{"name":"token","type":"address","indexed":true,"internalType":"address"},{"name":"shares","type":"uint256","indexed":false,"internalType":"uint256"},{"name":"amount","type":"uint256","indexed":false,"internalType":"uint256"}],"anonymous":false},{"type":"event","name":"DelegatorUnstakeScheduled","inputs":[{"name":"delegator","type":"address","indexed":true,"internalType":"address"},{"name":"operator","type":"address","indexed":true,"internalType":"address"},{"name":"token","type":"address","indexed":true,"internalType":"address"},{"name":"shares","type":"uint256","indexed":false,"internalType":"uint256"},{"name":"estimatedAmount","type":"uint256","indexed":false,"internalType":"uint256"},{"name":"readyRound","type":"uint64","indexed":false,"internalType":"uint64"}],"anonymous":false},{"type":"event","name":"Deposited","inputs":[{"name":"delegator","type":"address","indexed":true,"internalType":"address"},{"name":"token","type":"address","indexed":true,"internalType":"address"},{"name":"amount","type":"uint256","indexed":false,"internalType":"uint256"},{"name":"lock","type":"uint8","indexed":false,"internalType":"enum Types.LockMultiplier"}],"anonymous":false},{"type":"event","name":"DustAccumulated","inputs":[{"name":"token","type":"address","indexed":true,"internalType":"address"},{"name":"amount","type":"uint256","indexed":false,"internalType":"uint256"},{"name":"totalDust","type":"uint256","indexed":false,"internalType":"uint256"}],"anonymous":false},{"type":"event","name":"DustSwept","inputs":[{"name":"token","type":"address","indexed":true,"internalType":"address"},{"name":"recipient","type":"address","indexed":true,"internalType":"address"},{"name":"amount","type":"uint256","indexed":false,"internalType":"uint256"}],"anonymous":false},{"type":"event","name":"ExpiredLocksHarvested","inputs":[{"name":"delegator","type":"address","indexed":true,"internalType":"address"},{"name":"token","type":"address","indexed":true,"internalType":"address"},{"name":"count","type":"uint256","indexed":false,"internalType":"uint256"},{"name":"totalAmount","type":"uint256","indexed":false,"internalType":"uint256"}],"anonymous":false},{"type":"event","name":"FacetRegistered","inputs":[{"name":"facet","type":"address","indexed":true,"internalType":"address"}],"anonymous":false},{"type":"event","name":"FacetSelectorCleared","inputs":[{"name":"selector","type":"bytes4","indexed":true,"internalType":"bytes4"}],"anonymous":false},{"type":"event","name":"FacetSelectorSet","inputs":[{"name":"selector","type":"bytes4","indexed":true,"internalType":"bytes4"},{"name":"facet","type":"address","indexed":true,"internalType":"address"}],"anonymous":false},{"type":"event","name":"Initialized","inputs":[{"name":"version","type":"uint64","indexed":false,"internalType":"uint64"}],"anonymous":false},{"type":"event","name":"OperatorBlueprintAdded","inputs":[{"name":"operator","type":"address","indexed":true,"internalType":"address"},{"name":"blueprintId","type":"uint64","indexed":true,"internalType":"uint64"}],"anonymous":false},{"type":"event","name":"OperatorBlueprintRemoved","inputs":[{"name":"operator","type":"address","indexed":true,"internalType":"address"},{"name":"blueprintId","type":"uint64","indexed":true,"internalType":"uint64"}],"anonymous":false},{"type":"event","name":"OperatorDelegationModeSet","inputs":[{"name":"operator","type":"address","indexed":true,"internalType":"address"},{"name":"mode","type":"uint8","indexed":false,"internalType":"enum Types.DelegationMode"}],"anonymous":false},{"type":"event","name":"OperatorLeavingScheduled","inputs":[{"name":"operator","type":"address","indexed":true,"internalType":"address"},{"name":"readyRound","type":"uint64","indexed":false,"internalType":"uint64"}],"anonymous":false},{"type":"event","name":"OperatorLeft","inputs":[{"name":"operator","type":"address","indexed":true,"internalType":"address"}],"anonymous":false},{"type":"event","name":"OperatorRegistered","inputs":[{"name":"operator","type":"address","indexed":true,"internalType":"address"},{"name":"stake","type":"uint256","indexed":false,"internalType":"uint256"}],"anonymous":false},{"type":"event","name":"OperatorStakeIncreased","inputs":[{"name":"operator","type":"address","indexed":true,"internalType":"address"},{"name":"amount","type":"uint256","indexed":false,"internalType":"uint256"}],"anonymous":false},{"type":"event","name":"OperatorUnstakeExecuted","inputs":[{"name":"operator","type":"address","indexed":true,"internalType":"address"},{"name":"amount","type":"uint256","indexed":false,"internalType":"uint256"}],"anonymous":false},{"type":"event","name":"OperatorUnstakeScheduled","inputs":[{"name":"operator","type":"address","indexed":true,"internalType":"address"},{"name":"amount","type":"uint256","indexed":false,"internalType":"uint256"},{"name":"readyRound","type":"uint64","indexed":false,"internalType":"uint64"}],"anonymous":false},{"type":"event","name":"OperatorWhitelistUpdated","inputs":[{"name":"operator","type":"address","indexed":true,"internalType":"address"},{"name":"delegator","type":"address","indexed":true,"internalType":"address"},{"name":"approved","type":"bool","indexed":false,"internalType":"bool"}],"anonymous":false},{"type":"event","name":"Paused","inputs":[{"name":"account","type":"address","indexed":false,"internalType":"address"}],"anonymous":false},{"type":"event","name":"PendingSlashCountReset","inputs":[{"name":"operator","type":"address","indexed":true,"internalType":"address"},{"name":"newCount","type":"uint64","indexed":false,"internalType":"uint64"}],"anonymous":false},{"type":"event","name":"PendingSlashDecremented","inputs":[{"name":"operator","type":"address","indexed":true,"internalType":"address"},{"name":"newCount","type":"uint64","indexed":false,"internalType":"uint64"}],"anonymous":false},{"type":"event","name":"PendingSlashIncremented","inputs":[{"name":"operator","type":"address","indexed":true,"internalType":"address"},{"name":"newCount","type":"uint64","indexed":false,"internalType":"uint64"}],"anonymous":false},{"type":"event","name":"RoleAdminChanged","inputs":[{"name":"role","type":"bytes32","indexed":true,"internalType":"bytes32"},{"name":"previousAdminRole","type":"bytes32","indexed":true,"internalType":"bytes32"},{"name":"newAdminRole","type":"bytes32","indexed":true,"internalType":"bytes32"}],"anonymous":false},{"type":"event","name":"RoleGranted","inputs":[{"name":"role","type":"bytes32","indexed":true,"internalType":"bytes32"},{"name":"account","type":"address","indexed":true,"internalType":"address"},{"name":"sender","type":"address","indexed":true,"internalType":"address"}],"anonymous":false},{"type":"event","name":"RoleRevoked","inputs":[{"name":"role","type":"bytes32","indexed":true,"internalType":"bytes32"},{"name":"account","type":"address","indexed":true,"internalType":"address"},{"name":"sender","type":"address","indexed":true,"internalType":"address"}],"anonymous":false},{"type":"event","name":"SlashRecorded","inputs":[{"name":"operator","type":"address","indexed":true,"internalType":"address"},{"name":"slashId","type":"uint64","indexed":true,"internalType":"uint64"},{"name":"assetHash","type":"bytes32","indexed":false,"internalType":"bytes32"},{"name":"slashBps","type":"uint16","indexed":false,"internalType":"uint16"},{"name":"totalSlashed","type":"uint256","indexed":false,"internalType":"uint256"},{"name":"exchangeRateBefore","type":"uint256","indexed":false,"internalType":"uint256"},{"name":"exchangeRateAfter","type":"uint256","indexed":false,"internalType":"uint256"}],"anonymous":false},{"type":"event","name":"Slashed","inputs":[{"name":"operator","type":"address","indexed":true,"internalType":"address"},{"name":"serviceId","type":"uint64","indexed":true,"internalType":"uint64"},{"name":"blueprintId","type":"uint64","indexed":true,"internalType":"uint64"},{"name":"assetHash","type":"bytes32","indexed":false,"internalType":"bytes32"},{"name":"slashBps","type":"uint16","indexed":false,"internalType":"uint16"},{"name":"operatorSlashed","type":"uint256","indexed":false,"internalType":"uint256"},{"name":"delegatorsSlashed","type":"uint256","indexed":false,"internalType":"uint256"},{"name":"exchangeRateAfter","type":"uint256","indexed":false,"internalType":"uint256"}],"anonymous":false},{"type":"event","name":"SlashedForService","inputs":[{"name":"operator","type":"address","indexed":true,"internalType":"address"},{"name":"serviceId","type":"uint64","indexed":true,"internalType":"uint64"},{"name":"blueprintId","type":"uint64","indexed":true,"internalType":"uint64"},{"name":"totalSlashed","type":"uint256","indexed":false,"internalType":"uint256"},{"name":"commitmentCount","type":"uint256","indexed":false,"internalType":"uint256"}],"anonymous":false},{"type":"event","name":"SlashedPrincipalReconciled","inputs":[{"name":"delegator","type":"address","indexed":true,"internalType":"address"},{"name":"assetHash","type":"bytes32","indexed":true,"internalType":"bytes32"},{"name":"amount","type":"uint256","indexed":false,"internalType":"uint256"}],"anonymous":false},{"type":"event","name":"Unpaused","inputs":[{"name":"account","type":"address","indexed":false,"internalType":"address"}],"anonymous":false},{"type":"event","name":"Upgraded","inputs":[{"name":"implementation","type":"address","indexed":true,"internalType":"address"}],"anonymous":false},{"type":"event","name":"WithdrawScheduled","inputs":[{"name":"delegator","type":"address","indexed":true,"internalType":"address"},{"name":"token","type":"address","indexed":true,"internalType":"address"},{"name":"amount","type":"uint256","indexed":false,"internalType":"uint256"},{"name":"readyRound","type":"uint64","indexed":false,"internalType":"uint64"}],"anonymous":false},{"type":"event","name":"Withdrawn","inputs":[{"name":"delegator","type":"address","indexed":true,"internalType":"address"},{"name":"token","type":"address","indexed":true,"internalType":"address"},{"name":"amount","type":"uint256","indexed":false,"internalType":"uint256"}],"anonymous":false},{"type":"error","name":"AccessControlBadConfirmation","inputs":[]},{"type":"error","name":"AccessControlUnauthorizedAccount","inputs":[{"name":"account","type":"address","internalType":"address"},{"name":"neededRole","type":"bytes32","internalType":"bytes32"}]},{"type":"error","name":"AddressEmptyCode","inputs":[{"name":"target","type":"address","internalType":"address"}]},{"type":"error","name":"BlueprintNotRegisteredForOperator","inputs":[{"name":"operator","type":"address","internalType":"address"},{"name":"blueprintId","type":"uint64","internalType":"uint64"}]},{"type":"error","name":"ERC1967InvalidImplementation","inputs":[{"name":"implementation","type":"address","internalType":"address"}]},{"type":"error","name":"ERC1967NonPayable","inputs":[]},{"type":"error","name":"EnforcedPause","inputs":[]},{"type":"error","name":"ExpectedPause","inputs":[]},{"type":"error","name":"FailedCall","inputs":[]},{"type":"error","name":"InvalidInitialization","inputs":[]},{"type":"error","name":"NotAContract","inputs":[{"name":"account","type":"address","internalType":"address"}]},{"type":"error","name":"NotInitializing","inputs":[]},{"type":"error","name":"ReentrancyGuardReentrantCall","inputs":[]},{"type":"error","name":"SelectorAlreadyRegistered","inputs":[{"name":"selector","type":"bytes4","internalType":"bytes4"},{"name":"existingFacet","type":"address","internalType":"address"}]},{"type":"error","name":"UUPSUnauthorizedCallContext","inputs":[]},{"type":"error","name":"UUPSUnsupportedProxiableUUID","inputs":[{"name":"slot","type":"bytes32","internalType":"bytes32"}]},{"type":"error","name":"UnknownSelector","inputs":[{"name":"selector","type":"bytes4","internalType":"bytes4"}]},{"type":"error","name":"ZeroAddress","inputs":[]}],"bytecode":{"object":"0x60a06040523461003e5761001161004d565b610019610043565b6144696103078239608051818181613894015281816138f90152613aa8015261446990f35b610049565b60405190565b5f80fd5b61005561005f565b61005d61022a565b565b610067610069565b565b610071610073565b565b61007b61007d565b565b610085610087565b565b61008f610091565b565b61009961009b565b565b6100a36100a5565b565b6100ad6100af565b565b6100b76100b9565b565b6100c16100c3565b565b6100cb6100cd565b565b6100d56100d7565b565b6100df6100e1565b565b6100e961012d565b565b60018060a01b031690565b90565b61010d610108610112926100eb565b6100f6565b6100eb565b90565b61011e906100f9565b90565b61012a90610115565b90565b61013630610121565b608052565b60401c90565b60ff1690565b6101536101589161013b565b610141565b90565b6101659054610147565b90565b5f0190565b5f1c90565b60018060401b031690565b61018961018e9161016d565b610172565b90565b61019b905461017d565b90565b60018060401b031690565b5f1b90565b906101bf60018060401b03916101a9565b9181191691161790565b6101dd6101d86101e29261019e565b6100f6565b61019e565b90565b90565b906101fd6101f8610204926101c9565b6101e5565b82546101ae565b9055565b6102119061019e565b9052565b9190610228905f60208501940190610208565b565b6102326102e2565b61023d5f820161015b565b6102c65761024c5f8201610191565b61026461025e60018060401b0361019e565b9161019e565b0361026d575b50565b610280905f60018060401b0391016101e8565b60018060401b036102bd7fc7f505b2f371ae2175ee4913f4499e1f2633a7b5936321eed1cdaeb6115181d2916102b4610043565b91829182610215565b0390a15f61026a565b5f63f92ee8a960e01b8152806102de60048201610168565b0390fd5b7ff0c57e16840df040f15088dc2f81fe391c3923bec73e23a9662efc9c229c6a009056fe60806040526004361015610015575b366134e257005b61001f5f356103de565b806301ffc9a7146103d957806305d64e38146103d45780630aa8b110146103cf57806318056dc2146103ca57806319e82e61146103c5578063248a9ca3146103c05780632f2ff15d146103bb57806332273f61146103b657806336568abe146103b1578063453eccea146103ac57806346d163aa146103a757806349147411146103a25780634962f88f1461039d5780634de8addc146103985780634e9c929a146103935780634f1ef2861461038e5780635095af641461038957806352d1902d1461038457806354de23201461037f5780635c975abb1461037a578063602356e31461037557806366c368751461037057806372b5032d1461036b57806375b238fc1461036657806377ab2cf3146103615780637df92ada1461035c57806388c47f68146103575780638a19c8bc146103525780638a7fe60f1461034d57806390837ff41461034857806391d14854146103435780639480e4dd1461033e5780639494f4261461033957806396085673146103345780639722f4b91461032f5780639e8705851461032a578063a217fddf14610325578063a457af3d14610320578063a4b32de81461031b578063a7fa6f9814610316578063aaf5eb6814610311578063ad3cb1cc1461030c578063b54b2b9e14610307578063b5e2a87a14610302578063b6608409146102fd578063ba05bbf5146102f8578063c07449e2146102f3578063c550d938146102ee578063cbb6d6bd146102e9578063d27a6f06146102e4578063d45ff582146102df578063d547741f146102da578063db8a173a146102d5578063dd764abf146102d0578063e07dec29146102cb578063e1a45218146102c6578063e27e05c1146102c1578063f3c9b311146102bc578063f72c0d8b146102b75763f7cb789a0361000e57612042565b611ffe565b611f9a565b611f2d565b611ef8565b611e8f565b611e26565b611db4565b611d71565b611d3c565b611cce565b611c5e565b611b9c565b611b66565b611af8565b611ab4565b611a48565b6119db565b611997565b611868565b6117f5565b611788565b611723565b611601565b611591565b611522565b6114cc565b61147d565b61140e565b6113d8565b6113a3565b61136e565b611317565b6112d5565b611266565b6111f8565b611188565b611123565b6110ee565b6110b9565b611055565b611020565b610fb3565b610f7e565b610f25565b610dc9565b610d1a565b610cd5565b610c68565b610c20565b610bcd565b610b61565b610b2c565b610ac2565b610a60565b6109d6565b61090f565b610882565b61051f565b61046a565b60e01c90565b60405190565b5f80fd5b5f80fd5b5f80fd5b63ffffffff60e01b1690565b61040b816103f6565b0361041257565b5f80fd5b9050359061042382610402565b565b9060208282031261043e5761043b915f01610416565b90565b6103ee565b151590565b61045190610443565b9052565b9190610468905f60208501940190610448565b565b3461049a57610496610485610480366004610425565b61207b565b61048d6103e4565b91829182610455565b0390f35b6103ea565b5f9103126104a957565b6103ee565b1c90565b60018060401b031690565b6104cd9060086104d293026104ae565b6104b2565b90565b906104e091546104bd565b90565b6104ef5f6010906104d5565b90565b60018060401b031690565b610506906104f2565b9052565b919061051d905f602085019401906104fd565b565b3461054f5761052f36600461049f565b61054b61053a6104e3565b6105426103e4565b9182918261050a565b0390f35b6103ea565b60018060a01b031690565b61056890610554565b90565b6105748161055f565b0361057b57565b5f80fd5b9050359061058c8261056b565b565b610597816104f2565b0361059e57565b5f80fd5b905035906105af8261058e565b565b91906040838203126105d957806105cd6105d6925f860161057f565b936020016105a2565b90565b6103ee565b90565b6105f56105f06105fa92610554565b6105de565b610554565b90565b610606906105e1565b90565b610612906105fd565b90565b9061061f90610609565b5f5260205260405f2090565b61063f61063a610644926104f2565b6105de565b6104f2565b90565b906106519061062b565b5f5260205260405f2090565b5f1c90565b61066e6106739161065d565b6104b2565b90565b6106809054610662565b90565b60401c90565b61069561069a91610683565b6104b2565b90565b6106a79054610689565b90565b60801c90565b6106bc6106c1916106aa565b6104b2565b90565b6106ce90546106b0565b90565b90565b6106e06106e59161065d565b6106d1565b90565b6106f290546106d4565b90565b61ffff1690565b61070861070d9161065d565b6106f5565b90565b61071a90546106fc565b90565b90565b61072c6107319161065d565b61071d565b90565b61073e9054610720565b90565b90610750610755926055610615565b610647565b6107605f8201610676565b9161076c5f830161069d565b916107785f82016106c4565b91610785600183016106e8565b9161079260028201610710565b9161079f60038301610734565b916107ac60048201610734565b916107c560066107be60058501610734565b93016106e8565b90565b90565b6107d4906107c8565b9052565b61ffff1690565b6107e8906107d8565b9052565b90565b6107f8906107ec565b9052565b9694929099989795939161012088019a5f8901610818916104fd565b60208801610825916104fd565b60408701610832916104fd565b6060860161083f916107cb565b6080850161084c916107df565b60a08401610859916107ef565b60c08301610866916107ef565b60e08201610873916107ef565b61010001610880916107cb565b565b346108bd576108b961089e6108983660046105b1565b90610741565b956108b09997999591959492946103e4565b998a998a6107fc565b0390f35b6103ea565b90565b6108d96108d46108de926108c2565b6105de565b6107d8565b90565b6108ec612af86108c5565b90565b6108f76108e1565b90565b919061090d905f602085019401906107df565b565b3461093f5761091f36600461049f565b61093b61092a6108ef565b6109326103e4565b918291826108fa565b0390f35b6103ea565b5f80fd5b5f80fd5b5f80fd5b909182601f830112156109885781359160018060401b03831161098357602001926020830284011161097e57565b61094c565b610948565b610944565b9190916040818403126109cc576109a6835f830161057f565b92602082013560018060401b0381116109c7576109c39201610950565b9091565b6103f2565b6103ee565b5f0190565b34610a05576109ef6109e936600461098d565b9161213b565b6109f76103e4565b80610a01816109d1565b0390f35b6103ea565b610a13816107c8565b03610a1a57565b5f80fd5b90503590610a2b82610a0a565b565b90602082820312610a4657610a43915f01610a1e565b90565b6103ee565b9190610a5e905f602085019401906107cb565b565b34610a9057610a8c610a7b610a76366004610a2d565b61217f565b610a836103e4565b91829182610a4b565b0390f35b6103ea565b9190604083820312610abd5780610ab1610aba925f8601610a1e565b9360200161057f565b90565b6103ee565b34610af157610adb610ad5366004610a95565b906121d3565b610ae36103e4565b80610aed816109d1565b0390f35b6103ea565b610b06906008610b0b93026104ae565b6106f5565b90565b90610b199154610af6565b90565b610b296001601090610b0e565b90565b34610b5c57610b3c36600461049f565b610b58610b47610b1c565b610b4f6103e4565b918291826108fa565b0390f35b6103ea565b34610b9057610b7a610b74366004610a95565b906121df565b610b826103e4565b80610b8c816109d1565b0390f35b6103ea565b90565b610bac610ba7610bb192610b95565b6105de565b6107d8565b90565b610bbf614650610b98565b90565b610bca610bb4565b90565b34610bfd57610bdd36600461049f565b610bf9610be8610bc2565b610bf06103e4565b918291826108fa565b0390f35b6103ea565b90602082820312610c1b57610c18915f0161057f565b90565b6103ee565b34610c4e57610c38610c33366004610c02565b61231d565b610c406103e4565b80610c4a816109d1565b0390f35b6103ea565b9190610c66905f602085019401906107ef565b565b34610c9857610c94610c83610c7e366004610c02565b6123ff565b610c8b6103e4565b91829182610c53565b0390f35b6103ea565b90565b610cb4610caf610cb992610c9d565b6105de565b6107d8565b90565b610cc7612710610ca0565b90565b610cd2610cbc565b90565b34610d0557610ce536600461049f565b610d01610cf0610cca565b610cf86103e4565b918291826108fa565b0390f35b6103ea565b610d1760016008906104d5565b90565b34610d4a57610d2a36600461049f565b610d46610d35610d0a565b610d3d6103e4565b9182918261050a565b0390f35b6103ea565b9190604083820312610d775780610d6b610d74925f86016105a2565b9360200161057f565b90565b6103ee565b90610d869061062b565b5f5260205260405f2090565b90610d9c90610609565b5f5260205260405f2090565b610dc1610dc692610dbc6058935f94610d7c565b610d92565b6104d5565b90565b34610dfa57610df6610de5610ddf366004610d4f565b90610da8565b610ded6103e4565b9182918261050a565b0390f35b6103ea565b5f80fd5b601f801991011690565b634e487b7160e01b5f52604160045260245ffd5b90610e2b90610e03565b810190811060018060401b03821117610e4357604052565b610e0d565b90610e5b610e546103e4565b9283610e21565b565b60018060401b038111610e7957610e75602091610e03565b0190565b610e0d565b90825f939282370152565b90929192610e9e610e9982610e5d565b610e48565b93818552602085019082840111610eba57610eb892610e7e565b565b610dff565b9080601f83011215610edd57816020610eda93359101610e89565b90565b610944565b919091604081840312610f2057610efb835f830161057f565b92602082013560018060401b038111610f1b57610f189201610ebf565b90565b6103f2565b6103ee565b610f39610f33366004610ee2565b90612447565b610f416103e4565b80610f4b816109d1565b0390f35b7f12b42e8a160f6064dc959c6f251e3af0750ad213dbecf573b4710d67d6c28e3990565b610f7b610f4f565b90565b34610fae57610f8e36600461049f565b610faa610f99610f73565b610fa16103e4565b91829182610a4b565b0390f35b6103ea565b34610fe357610fc336600461049f565b610fdf610fce6124be565b610fd66103e4565b91829182610a4b565b0390f35b6103ea565b90565b610fff610ffa61100492610fe8565b6105de565b6107d8565b90565b6110126130d4610feb565b90565b61101d611007565b90565b346110505761103036600461049f565b61104c61103b611015565b6110436103e4565b918291826108fa565b0390f35b6103ea565b346110855761106536600461049f565b6110816110706124f2565b6110786103e4565b91829182610455565b0390f35b6103ea565b7f19449a4ad57e40a5aa77e785b4539e53ba9e7fedbf7076388ee3fb1bc2ddea1b90565b6110b661108a565b90565b346110e9576110c936600461049f565b6110e56110d46110ae565b6110dc6103e4565b91829182610a4b565b0390f35b6103ea565b3461111e5761111a611109611104366004610c02565b612514565b6111116103e4565b9182918261050a565b0390f35b6103ea565b346111545761115061113f611139366004610d4f565b90612533565b6111476103e4565b9182918261050a565b0390f35b6103ea565b7fa49807205ce4d355092ef5a8a18f56e8913cf4a201fbe287825b095693c2177590565b611185611159565b90565b346111b85761119836600461049f565b6111b46111a361117d565b6111ab6103e4565b91829182610a4b565b0390f35b6103ea565b60ff1690565b6111d39060086111d893026104ae565b6111bd565b90565b906111e691546111c3565b90565b6111f560055f906111db565b90565b346112285761120836600461049f565b6112246112136111e9565b61121b6103e4565b91829182610455565b0390f35b6103ea565b90565b61124461123f6112499261122d565b6105de565b6104f2565b90565b611258624f1a00611230565b90565b61126361124c565b90565b346112965761127636600461049f565b61129261128161125b565b6112896103e4565b9182918261050a565b0390f35b6103ea565b90565b6112b26112ad6112b79261129b565b6105de565b6107ec565b90565b6112c76305f5e10061129e565b90565b6112d26112ba565b90565b34611305576112e536600461049f565b6113016112f06112ca565b6112f86103e4565b91829182610c53565b0390f35b6103ea565b6113145f806104d5565b90565b346113475761132736600461049f565b61134361133261130a565b61133a6103e4565b9182918261050a565b0390f35b6103ea565b6113559061055f565b9052565b919061136c905f6020850194019061134c565b565b3461139e5761139a611389611384366004610c02565b6125a1565b6113916103e4565b91829182611359565b0390f35b6103ea565b346113d3576113cf6113be6113b9366004610425565b6125c0565b6113c66103e4565b91829182611359565b0390f35b6103ea565b34611409576114056113f46113ee366004610a95565b906125eb565b6113fc6103e4565b91829182610455565b0390f35b6103ea565b3461143e5761143a611429611424366004610c02565b61261d565b6114316103e4565b9182918261050a565b0390f35b6103ea565b90916060828403126114785761147561145e845f850161057f565b9361146c81602086016105a2565b9360400161057f565b90565b6103ee565b346114ae576114aa611499611493366004611443565b91612871565b6114a16103e4565b91829182610c53565b0390f35b6103ea565b6114c9906114c46056915f92610d92565b6104d5565b90565b346114fc576114f86114e76114e2366004610c02565b6114b3565b6114ef6103e4565b9182918261050a565b0390f35b6103ea565b61151a61151f926115156057935f94610d7c565b610d92565b6104d5565b90565b346115535761154f61153e611538366004610d4f565b90611501565b6115466103e4565b9182918261050a565b0390f35b6103ea565b90565b61156f61156a61157492611558565b6105de565b6104f2565b90565b61158362278d0061155b565b90565b61158e611577565b90565b346115c1576115a136600461049f565b6115bd6115ac611586565b6115b46103e4565b9182918261050a565b0390f35b6103ea565b90565b5f1b90565b6115e26115dd6115e7926115c6565b6115c9565b6107c8565b90565b6115f35f6115ce565b90565b6115fe6115ea565b90565b346116315761161136600461049f565b61162d61161c6115f6565b6116246103e4565b91829182610a4b565b0390f35b6103ea565b61163f906104f2565b9052565b61164c906107c8565b9052565b611659906107d8565b9052565b611666906107ec565b9052565b906101008061170b936116835f8201515f860190611636565b61169560208201516020860190611636565b6116a760408201516040860190611636565b6116b960608201516060860190611643565b6116cb60808201516080860190611650565b6116dd60a082015160a086019061165d565b6116ef60c082015160c086019061165d565b61170160e082015160e086019061165d565b0151910190611643565b565b9190611721905f610120850194019061166a565b565b346117545761175061173f6117393660046105b1565b90612a1f565b6117476103e4565b9182918261170d565b0390f35b6103ea565b7fb1fadd3142ab2ad7f1337ea4d97112bcc8337fc11ce5b20cb04ad038adf9981990565b611785611759565b90565b346117b85761179836600461049f565b6117b46117a361177d565b6117ab6103e4565b91829182610a4b565b0390f35b6103ea565b90565b6117d46117cf6117d9926117bd565b6105de565b6107d8565b90565b6117e76138a46117c0565b90565b6117f26117dc565b90565b346118255761180536600461049f565b6118216118106117ea565b6118186103e4565b918291826108fa565b0390f35b6103ea565b90565b61184161183c6118469261182a565b6105de565b6107ec565b90565b61185a670de0b6b3a764000061182d565b90565b611865611849565b90565b346118985761187836600461049f565b61189461188361185d565b61188b6103e4565b91829182610c53565b0390f35b6103ea565b60018060401b0381116118b9576118b5602091610e03565b0190565b610e0d565b906118d06118cb8361189d565b610e48565b918252565b5f7f352e302e30000000000000000000000000000000000000000000000000000000910152565b61190660056118be565b90611913602083016118d5565b565b61191d6118fc565b90565b611928611915565b90565b611933611920565b90565b5190565b60209181520190565b90825f9392825e0152565b61196d61197660209361197b9361196481611936565b9384809361193a565b95869101611943565b610e03565b0190565b6119949160208201915f81840391015261194e565b90565b346119c7576119a736600461049f565b6119c36119b261192b565b6119ba6103e4565b9182918261197f565b0390f35b6103ea565b6119d860075f906111db565b90565b34611a0b576119eb36600461049f565b611a076119f66119cc565b6119fe6103e4565b91829182610455565b0390f35b6103ea565b90565b611a27611a22611a2c92611a10565b6105de565b6107d8565b90565b611a3a614e20611a13565b90565b611a45611a2f565b90565b34611a7857611a5836600461049f565b611a74611a63611a3d565b611a6b6103e4565b918291826108fa565b0390f35b6103ea565b90565b611a94611a8f611a9992611a7d565b6105de565b6107ec565b90565b611aa66001611a80565b90565b611ab1611a9c565b90565b34611ae457611ac436600461049f565b611ae0611acf611aa9565b611ad76103e4565b91829182610c53565b0390f35b6103ea565b611af55f6018906104d5565b90565b34611b2857611b0836600461049f565b611b24611b13611ae9565b611b1b6103e4565b9182918261050a565b0390f35b6103ea565b90602080611b4f93611b455f8201515f86019061165d565b015191019061165d565b565b9190611b64905f60408501940190611b2d565b565b34611b9757611b93611b82611b7c366004610d4f565b90612af6565b611b8a6103e4565b91829182611b51565b0390f35b6103ea565b34611bcd57611bc9611bb8611bb2366004610d4f565b90612b1e565b611bc06103e4565b9182918261050a565b0390f35b6103ea565b611bdb816107ec565b03611be257565b5f80fd5b90503590611bf382611bd2565b565b611bfe816107d8565b03611c0557565b5f80fd5b90503590611c1682611bf5565b565b608081830312611c5957611c2e825f830161057f565b92611c56611c3f8460208501611be6565b93611c4d8160408601611be6565b93606001611c09565b90565b6103ee565b34611c9057611c7a611c71366004611c18565b9291909161330c565b611c826103e4565b80611c8c816109d1565b0390f35b6103ea565b90565b611cac611ca7611cb192611c95565b6105de565b6104f2565b90565b611cc06276a700611c98565b90565b611ccb611cb4565b90565b34611cfe57611cde36600461049f565b611cfa611ce9611cc3565b611cf16103e4565b9182918261050a565b0390f35b6103ea565b90565b611d1a611d15611d1f92611d03565b6105de565b6104f2565b90565b611d2e62127500611d06565b90565b611d39611d22565b90565b34611d6c57611d4c36600461049f565b611d68611d57611d31565b611d5f6103e4565b9182918261050a565b0390f35b6103ea565b34611da057611d8a611d84366004610a95565b90613344565b611d926103e4565b80611d9c816109d1565b0390f35b6103ea565b611db160015f906104d5565b90565b34611de457611dc436600461049f565b611de0611dcf611da5565b611dd76103e4565b9182918261050a565b0390f35b6103ea565b90565b611e00611dfb611e0592611de9565b6105de565b6107ec565b90565b611e18662386f26fc10000611dec565b90565b611e23611e08565b90565b34611e5657611e3636600461049f565b611e52611e41611e1b565b611e496103e4565b91829182610c53565b0390f35b6103ea565b90602082820312611e8a575f82013560018060401b038111611e8557611e819201610950565b9091565b6103f2565b6103ee565b34611ebe57611ea8611ea2366004611e5b565b906133a5565b611eb06103e4565b80611eba816109d1565b0390f35b6103ea565b611ed7611ed2611edc92610c9d565b6105de565b6107ec565b90565b611eea612710611ec3565b90565b611ef5611edf565b90565b34611f2857611f0836600461049f565b611f24611f13611eed565b611f1b6103e4565b91829182610c53565b0390f35b6103ea565b34611f5c57611f46611f403660046105b1565b906134d6565b611f4e6103e4565b80611f58816109d1565b0390f35b6103ea565b90565b611f78611f73611f7d92611f61565b6105de565b6104f2565b90565b611f8c62ed4e00611f64565b90565b611f97611f80565b90565b34611fca57611faa36600461049f565b611fc6611fb5611f8f565b611fbd6103e4565b9182918261050a565b0390f35b6103ea565b7f189ab7a9244df0848122154315af71fe140f3db0fe014031783b0946b8c9d2e390565b611ffb611fcf565b90565b3461202e5761200e36600461049f565b61202a612019611ff3565b6120216103e4565b91829182610a4b565b0390f35b6103ea565b61203f5f6008906104d5565b90565b346120725761205236600461049f565b61206e61205d612033565b6120656103e4565b9182918261050a565b0390f35b6103ea565b5f90565b612083612077565b508061209e612098637965db0b60e01b6103f6565b916103f6565b149081156120ab575b5090565b6120b591506134e7565b5f6120a7565b60018060401b0381116120d15760208091020190565b610e0d565b909291926120eb6120e6826120bb565b610e48565b938185526020808601920283019281841161212857915b83831061210f5750505050565b6020809161211d8486610416565b815201920191612102565b61094c565b6121389136916120d6565b90565b612157926121519161214b61351f565b9261212d565b9061355a565b565b5f90565b612166906107c8565b90565b906121739061215d565b5f5260205260405f2090565b60016121a06121a692612190612159565b505f61219a6136ce565b01612169565b016106e8565b90565b906121c4916121bf6121ba8261217f565b6136f2565b6121c6565b565b906121d091613706565b50565b906121dd916121a9565b565b90806121fa6121f46121ef6137bd565b61055f565b9161055f565b0361220b57612208916137ca565b50565b5f63334bd91960e11b815280612223600482016109d1565b0390fd5b612230906105e1565b90565b61223c90612227565b90565b612248906105fd565b90565b60e01b90565b9050519061225e82610402565b565b90929192612275612270826120bb565b610e48565b93818552602080860192028301928184116122b257915b8383106122995750505050565b602080916122a78486612251565b81520192019161228c565b61094c565b9080601f830112156122d5578160206122d293519101612260565b90565b610944565b90602082820312612308575f82015160018060401b0381116123035761230092016122b7565b90565b6103f2565b6103ee565b6123156103e4565b3d5f823e3d90fd5b61232561351f565b6123505f61233a61233584612233565b61223f565b636e25b978906123486103e4565b93849261224b565b82528180612360600482016109d1565b03915afa80156123e05761237c915f916123be575b508261355a565b6123a67f4d3c30f5993f1922a779345a0f7ec1a170f1e52e9d230824f9c17e63596c906d91610609565b906123af6103e4565b806123b9816109d1565b0390a2565b6123da91503d805f833e6123d28183610e21565b8101906122da565b5f612375565b61230d565b5f90565b906123f390610609565b5f5260205260405f2090565b61241661241b9161240e6123e5565b5060196123e9565b610734565b90565b906124309161242b613883565b612432565b565b90612445916124408161393d565b613999565b565b906124519161241e565b565b6124649061245f613a97565b6124b2565b90565b90565b61247e61247961248392612467565b6115c9565b6107c8565b90565b6124af7f360894a13ba1a3210667c828492db98dca3e2076cc3735a920a3ca505d382bbc61246a565b90565b506124bb612486565b90565b6124ce6124c9612159565b612453565b90565b6124dd6124e29161065d565b6111bd565b90565b6124ef90546124d1565b90565b6124fa612077565b5061250d5f612507613af5565b016124e5565b90565b5f90565b61252b61253091612523612510565b506056610d92565b610676565b90565b6125589161254e61255392612546612510565b506057610d7c565b610d92565b610676565b90565b5f90565b9061256990610609565b5f5260205260405f2090565b60018060a01b031690565b61258c6125919161065d565b612575565b90565b61259e9054612580565b90565b6125b86125bd916125b061255b565b50600661255f565b612594565b90565b6125d2906125cc61255b565b50613b2f565b90565b906125df90610609565b5f5260205260405f2090565b61261a915f61260f612615936125ff612077565b50826126096136ce565b01612169565b016125d5565b6124e5565b90565b6126346126399161262c612510565b506021610d92565b610676565b90565b90612646906104f2565b9052565b90612654906107c8565b9052565b90612662906107d8565b9052565b90612670906107ec565b9052565b61267f610120610e48565b90565b906127606127566006612693612674565b946126aa6126a25f8301610676565b5f880161263c565b6126c16126b85f830161069d565b6020880161263c565b6126d86126cf5f83016106c4565b6040880161263c565b6126f06126e7600183016106e8565b6060880161264a565b6127086126ff60028301610710565b60808801612658565b61272061271760038301610734565b60a08801612666565b61273861272f60048301610734565b60c08801612666565b61275061274760058301610734565b60e08801612666565b016106e8565b610100840161264a565b565b61276b90612682565b90565b61277890516104f2565b90565b61278f61278a612794926115c6565b6105de565b6104f2565b90565b6127ab6127a66127b0926115c6565b6105de565b6107ec565b90565b6127bd90516107c8565b90565b6127ca90516107ec565b90565b634e487b7160e01b5f52601160045260245ffd5b6127f06127f6919392936107ec565b926107ec565b820391821161280157565b6127cd565b61281561281b919392936107ec565b926107ec565b916128278382026107ec565b92818404149015171561283657565b6127cd565b634e487b7160e01b5f52601260045260245ffd5b61285b612861916107ec565b916107ec565b90811561286c570490565b61283b565b9291909261289a6128956128836123e5565b9561289060558590610615565b610647565b612762565b916128a65f840161276e565b6128b86128b25f61277b565b916104f2565b1461297957906128d591906128cf606085016127b3565b91613c63565b90816128e96128e35f612797565b916107ec565b14612969576128fa60c082016127c0565b61291761291161290c60e085016127c0565b6107ec565b916107ec565b11612921575b5050565b6129619293509061294d8261294760e061294060c061295397016127c0565b92016127c0565b906127e1565b90612806565b61295b611849565b9061284f565b905f8061291d565b505090506129765f612797565b90565b50505090506129875f612797565b90565b5f90565b5f90565b5f90565b5f90565b6129a2612674565b90602080808080808080808a6129b661298a565b8152016129c161298a565b8152016129cc61298a565b8152016129d761298e565b8152016129e2612992565b8152016129ed612996565b8152016129f8612996565b815201612a03612996565b815201612a0e61298e565b81525050565b612a1c61299a565b90565b612a4491612a3a612a3f92612a32612a14565b506055610615565b610647565b612762565b90565b612a516040610e48565b90565b612a5c612a47565b9060208083612a69612996565b815201612a74612996565b81525050565b612a82612a54565b90565b90612a8f9061062b565b5f5260205260405f2090565b90612aa590610609565b5f5260205260405f2090565b90612ae8612adf6001612ac2612a47565b94612ad9612ad15f8301610734565b5f8801612666565b01610734565b60208401612666565b565b612af390612ab1565b90565b612b1b91612b11612b1692612b09612a7a565b506010612a85565b612a9b565b612aea565b90565b612b4391612b39612b3e92612b31612510565b506058610d7c565b610d92565b610676565b90565b612b52612b5791610683565b6111bd565b90565b612b649054612b46565b90565b612b7b612b76612b8092611a7d565b6105de565b6104f2565b90565b612b8c906105fd565b90565b90612ba060018060401b03916115c9565b9181191691161790565b90565b90612bc2612bbd612bc99261062b565b612baa565b8254612b8f565b9055565b60401b90565b90612be260ff60401b91612bcd565b9181191691161790565b612bf590610443565b90565b90565b90612c10612c0b612c1792612bec565b612bf8565b8254612bd3565b9055565b612c2490612b67565b9052565b9190612c3b905f60208501940190612c1b565b565b909192612c48613d52565b93612c5d612c575f8701612b5a565b15610443565b93612c695f8701610676565b80612c7c612c765f61277b565b916104f2565b1480612d96575b90612c97612c916001612b67565b916104f2565b1480612d6e575b612ca9909115610443565b9081612d5d575b50612d4157612cd993612cce612cc66001612b67565b5f8901612bad565b85612d2f575b61314e565b612ce1575b50565b612cee905f809101612bfb565b6001612d267fc7f505b2f371ae2175ee4913f4499e1f2633a7b5936321eed1cdaeb6115181d291612d1d6103e4565b91829182612c28565b0390a15f612cde565b612d3c60015f8901612bfb565b612cd4565b5f63f92ee8a960e01b815280612d59600482016109d1565b0390fd5b612d68915015610443565b5f612cb0565b50612ca9612d7b30612b83565b3b612d8e612d885f612797565b916107ec565b149050612c9e565b5085612c83565b612db1612dac612db6926115c6565b6105de565b610554565b90565b612dc290612d9d565b90565b612dcf6040610e48565b90565b634e487b7160e01b5f52602160045260245ffd5b60021115612df057565b612dd2565b90612dff82612de6565b565b90612e0b90612df5565b9052565b90612e199061055f565b9052565b612e31612e2c612e36926107ec565b6105de565b6107d8565b90565b612e4360c0610e48565b90565b90612e5090610443565b9052565b90612e5e9061215d565b5f5260205260405f2090565b612e749051610443565b90565b90612e8360ff916115c9565b9181191691161790565b90612ea2612e9d612ea992612bec565b612bf8565b8254612e77565b9055565b90612eb95f19916115c9565b9181191691161790565b612ed7612ed2612edc926107ec565b6105de565b6107ec565b90565b90565b90612ef7612ef2612efe92612ec3565b612edf565b8254612ead565b9055565b612f0c90516107d8565b90565b90612f1c61ffff916115c9565b9181191691161790565b612f3a612f35612f3f926107d8565b6105de565b6107d8565b90565b90565b90612f5a612f55612f6192612f26565b612f42565b8254612f0f565b9055565b90612ff460a06005612ffa94612f885f8201612f825f8801612e6a565b90612e8d565b612fa160018201612f9b602088016127c0565b90612ee2565b612fba60028201612fb4604088016127c0565b90612ee2565b612fd360038201612fcd606088016127c0565b90612ee2565b612fec60048201612fe6608088016127c0565b90612ee2565b019201612f02565b90612f45565b565b9061300691612f65565b565b60801b90565b9061301e61ffff60801b91613008565b9181191691161790565b9061303d61303861304492612f26565b612f42565b825461300e565b9055565b90565b61305f61305a61306492613048565b6105de565b6104f2565b90565b61307261546061304b565b90565b9061308a600160401b600160801b0391612bcd565b9181191691161790565b906130a96130a46130b09261062b565b612baa565b8254613075565b9055565b90565b6130cb6130c66130d0926130b4565b6105de565b6104f2565b90565b6130dd601c6130b7565b90565b60c01b90565b906130f860018060c01b0319916130e0565b9181191691161790565b9061311761311261311e9261062b565b612baa565b82546130e6565b9055565b90565b61313961313461313e92613122565b6105de565b6104f2565b90565b61314b6038613125565b90565b919091613159613d80565b613161613d94565b613169613dba565b613171613de0565b6131796115ea565b8161318391613706565b5061318c611159565b8161319691613706565b5061319f611759565b816131a991613706565b506131b2611fcf565b906131bc91613706565b505f806131c890612db9565b6131d0612dc5565b915f8301906131de91612e01565b60208201906131ec91612e0f565b6131f590613e4a565b90600192905f8091613205611edf565b61320e90612e1d565b93613217612e39565b965f88019061322591612e46565b602087019061323391612666565b604086019061324191612666565b61324a90612797565b606085019061325891612666565b61326190612797565b608084019061326f91612666565b60a083019061327d91612658565b60029061328991612e54565b9061329391612ffc565b60016132a0906005612e8d565b6132ab906001613028565b60016132b690612b67565b6132c0905f612bad565b6132c8613067565b6132d2905f613094565b6132da6130d3565b6132e4905f613102565b6132ec6130d3565b6132f7906001612bad565b6132ff613141565b61330a906001613094565b565b90613318939291612c3d565b565b906133359161333061332b8261217f565b6136f2565b613337565b565b90613341916137ca565b50565b9061334e9161331a565b565b600161335c91016107ec565b90565b5090565b634e487b7160e01b5f52603260045260245ffd5b9190811015613387576020020190565b613363565b3561339681610402565b90565b6133a2906103f6565b90565b9190916133b061351f565b6133b95f612797565b5b806133d76133d16133cc85889061335f565b6107ec565b916107ec565b101561345b57613456906133fd6133f86133f385888591613377565b61338c565b613f11565b61341161340c84878491613377565b61338c565b61343b7fbeb27701828f515b03069d44da6519b6c491da13ef1ca7082e619959d1f48ddb91613399565b906134446103e4565b8061344e816109d1565b0390a2613350565b6133ba565b50509050565b9061347b91613476613471611159565b6136f2565b61347d565b565b6134928261348d60218490610d92565b612bad565b6134d16134bf7f90b37e59a942c5413ce00a3a844a47c20094979897cc653606d925e909885f3592610609565b926134c86103e4565b9182918261050a565b0390a2565b906134e091613461565b565b613f27565b6134ef612077565b506135096135036301ffc9a760e01b6103f6565b916103f6565b1490565b61351d613518611fcf565b6136f2565b565b61352761350d565b565b5190565b9061353782613529565b811015613548576020809102010190565b613363565b61355790516103f6565b90565b91908261357761357161356c5f612db9565b61055f565b9161055f565b146136c957823b61359061358a5f612797565b916107ec565b146136c35761359e5f612797565b5b806135ba6135b46135af85613529565b6107ec565b916107ec565b10156136bd576135db6135d66135d184849061352d565b61354d565b613b2f565b806135f66135f06135eb5f612db9565b61055f565b9161055f565b1415806136a2575b61368b57506136869061362461361d61361885849061352d565b61354d565b869061402e565b61363761363284839061352d565b61354d565b8561366b6136657f12557f25e458d9682d7c959b5a960bc9332e8b7af1120b54a333bfc1ff282b3993613399565b91610609565b916136746103e4565b8061367e816109d1565b0390a3613350565b61359f565b61369d613698838561352d565b61354d565b613fd5565b50806136b66136b08761055f565b9161055f565b14156135fe565b50509050565b82613f86565b613f6a565b7f02dd7bc7dec4dceedda775e58dd541e08a116c6c53815c0bd028192f7b62680090565b613704906136fe6137bd565b90614067565b565b61370e612077565b506137176136ce565b61372b6137258385906125eb565b15610443565b5f146137b657613755906137505f61374881600194018690612169565b0185906125d5565b612e8d565b9061375e6137bd565b9061379b61379561378f7f2f8788117e7eff1d82e926ec794901d17c78024a50270940304540a733656f0d9561215d565b92610609565b92610609565b926137a46103e4565b806137ae816109d1565b0390a4600190565b5050505f90565b6137c561255b565b503390565b6137d2612077565b506137db6136ce565b6137e68284906125eb565b5f146138705761380f9061380a5f613802818094018690612169565b0185906125d5565b612e8d565b906138186137bd565b9061385561384f6138497ff6391f5c32d9c69d2a47ea670b442974b53935d1edc7fd64eb21e047a839171b9561215d565b92610609565b92610609565b9261385e6103e4565b80613868816109d1565b0390a4600190565b5050505f90565b613880906105fd565b90565b61388c30613877565b6138be6138b87f000000000000000000000000000000000000000000000000000000000000000061055f565b9161055f565b1480156138e8575b6138cc57565b5f63703e46dd60e11b8152806138e4600482016109d1565b0390fd5b506138f16140a2565b61392361391d7f000000000000000000000000000000000000000000000000000000000000000061055f565b9161055f565b14156138c6565b5061393b613936611fcf565b6136f2565b565b6139469061392a565b565b613951906105e1565b90565b61395d90613948565b90565b613969906105fd565b90565b9050519061397982610a0a565b565b9060208282031261399457613991915f0161396c565b90565b6103ee565b91906139c760206139b16139ac86613954565b613960565b6352d1902d906139bf6103e4565b93849261224b565b825281806139d7600482016109d1565b03915afa80915f92613a67575b50155f14613a185750509060016139f957505b565b613a14905f918291634c9c8ce360e01b835260048301611359565b0390fd5b9283613a33613a2d613a28612486565b6107c8565b916107c8565b03613a4857613a439293506140c8565b6139f7565b613a63845f918291632a87526960e21b835260048301610a4b565b0390fd5b613a8991925060203d8111613a90575b613a818183610e21565b81019061397b565b905f6139e4565b503d613a77565b613aa030613877565b613ad2613acc7f000000000000000000000000000000000000000000000000000000000000000061055f565b9161055f565b03613ad957565b5f63703e46dd60e11b815280613af1600482016109d1565b0390fd5b7fcd5ed15c6e187e77e9aee88184c21f4f2182ab5827cb3b7e07fbedcd63f0330090565b90613b2390613399565b5f5260205260405f2090565b613b46613b4b91613b3e61255b565b50601f613b19565b612594565b90565b90613b5890610609565b5f5260205260405f2090565b90565b5490565b5f5260205f2090565b613b7d81613b67565b821015613b9757613b8f600491613b6b565b910201905f90565b613363565b90565b60ff1690565b613bb1613bb69161065d565b613b9f565b90565b613bc39054613ba5565b90565b60081c90565b613bd8613bdd91613bc6565b612575565b90565b613bea9054613bcc565b90565b613bf76040610e48565b90565b90613c30613c275f613c0a613bed565b94613c21613c19838301613bb9565b838801612e01565b01613be0565b60208401612e0f565b565b613c3b90613bfa565b90565b613c4d613c53919392936107ec565b926107ec565b8201809211613c5e57565b6127cd565b929192613c81613c7c613c746123e5565b926014613b4e565b613b64565b93613c8b85613b67565b93613c955f612797565b5b80613ca9613ca3886107ec565b916107ec565b1015613d4957613cc3613cbd888390613b74565b50613b9c565b613cce5f8201612594565b613ce0613cda8861055f565b9161055f565b1480613d1c575b613cfb575b50613cf690613350565b613c96565b613cf69194613d0f6001613d159301610734565b90613c3e565b9390613cec565b50613d31613d2c60028301613c32565b613e4a565b613d43613d3d866107c8565b916107c8565b14613ce7565b50935050925050565b7ff0c57e16840df040f15088dc2f81fe391c3923bec73e23a9662efc9c229c6a0090565b613d7e614151565b565b613d88613d76565b565b613d92614151565b565b613d9c613d8a565b565b613da6614151565b613dae613db0565b565b613db86141ac565b565b613dc2613d9e565b565b613dcc614151565b613dd4613dd6565b565b613dde6141f2565b565b613de8613dc4565b565b613df49051612df5565b90565b613e01905161055f565b90565b613e0d90612df5565b90565b613e1990613e04565b9052565b916020613e3e929493613e3760408201965f830190613e10565b019061134c565b565b60200190565b5190565b613e52612159565b50613e94613e6d6020613e665f8501613dea565b9301613df7565b91613e85613e796103e4565b93849260208401613e1d565b60208201810382520382610e21565b613ea6613ea082613e46565b91613e40565b2090565b1b90565b91906008613ece910291613ec860018060a01b0384613eaa565b92613eaa565b9181191691161790565b90565b9190613ef1613eec613ef993610609565b613ed8565b908354613eae565b9055565b613f0f91613f0961255b565b91613edb565b565b5f613f20613f2592601f613b19565b613efd565b565b613f3a63ffffffff60e01b5f3516613b2f565b80613f55613f4f613f4a5f612db9565b61055f565b9161055f565b036142305763ffffffff60e01b5f3516614211565b5f63d92e233d60e01b815280613f82600482016109d1565b0390fd5b613fa1905f9182916322a2d07b60e21b835260048301611359565b0390fd5b613fae906103f6565b9052565b916020613fd3929493613fcc60408201965f830190613fa5565b019061134c565b565b613fef5f9283926310ae11a960e31b845260048401613fb2565b0390fd5b9061400460018060a01b03916115c9565b9181191691161790565b9061402361401e61402a92610609565b613ed8565b8254613ff3565b9055565b61403d6140429291601f613b19565b61400e565b565b91602061406592949361405e60408201965f83019061134c565b01906107cb565b565b9061407c6140768383906125eb565b15610443565b614084575050565b61409e5f92839263e2517d3f60e01b845260048401614044565b0390fd5b6140aa61255b565b506140c55f6140bf6140ba612486565b61424e565b01612594565b90565b906140d282614251565b816140fd7fbc7cd75a20ee27fd9adebab32041f755214dbc6bffa90cc0225b39da2e5c2d3b91610609565b906141066103e4565b80614110816109d1565b0390a261411c81613e46565b61412e6141285f612797565b916107ec565b115f146141425761413e91614321565b505b565b505061414c6142a6565b614140565b61416261415c614350565b15610443565b61416857565b5f631afcd79f60e31b815280614180600482016109d1565b0390fd5b61418c614151565b614194614196565b565b6141aa6141a1613af5565b5f809101612e8d565b565b6141b4614184565b565b6141be614151565b6141c66141d5565b565b6141d26001611a80565b90565b6141f06141e061436e565b5f6141e96141c8565b9101612ee2565b565b6141fa6141b6565b565b919061420f905f60208501940190613fa5565b565b61422c905f91829163c2a825f560e01b8352600483016141fc565b0390fd5b5f8091368280378136915af43d5f803e5f1461424a573d5ff35b3d5ffd5b90565b803b61426561425f5f612797565b916107ec565b1461428757614285905f61427f61427a612486565b61424e565b0161400e565b565b6142a2905f918291634c9c8ce360e01b835260048301611359565b0390fd5b346142b96142b35f612797565b916107ec565b116142c057565b5f63b398979f60e01b8152806142d8600482016109d1565b0390fd5b606090565b906142f36142ee83610e5d565b610e48565b918252565b3d5f14614313576143083d6142e1565b903d5f602084013e5b565b61431b6142dc565b90614311565b5f8061434d9361432f6142dc565b508390602081019051915af4906143446142f8565b90919091614392565b90565b614358612077565b5061436b5f614365613d52565b01612b5a565b90565b7f9b779b17422d0df92223018b32b4d1fa46e071723d6817e2486d003becc55f0090565b906143a69061439f6142dc565b5015610443565b5f146143b25750614416565b6143bb82613e46565b6143cd6143c75f612797565b916107ec565b14806143fb575b6143dc575090565b6143f7905f918291639996b31560e01b835260048301611359565b0390fd5b50803b61441061440a5f612797565b916107ec565b146143d4565b61441f81613e46565b61443161442b5f612797565b916107ec565b115f1461444057805190602001fd5b5f63d6bda27560e01b815280614458600482016109d1565b0390fdfea164736f6c634300081a000a","linkReferences":{}},"methodIdentifiers":{"ADMIN_ROLE()":"75b238fc","ASSET_MANAGER_ROLE()":"a4b32de8","BPS_DENOMINATOR()":"e1a45218","COMMISSION_CHANGE_DELAY()":"d45ff582","DEFAULT_ADMIN_ROLE()":"a217fddf","LOCK_ONE_MONTH()":"9e870585","LOCK_SIX_MONTHS()":"f3c9b311","LOCK_THREE_MONTHS()":"d27a6f06","LOCK_TWO_MONTHS()":"7df92ada","MAX_REWARD_MULTIPLIER_BPS()":"b5e2a87a","MIN_LOCK_AMOUNT()":"dd764abf","MULTIPLIER_NONE()":"4962f88f","MULTIPLIER_ONE_MONTH()":"18056dc2","MULTIPLIER_SIX_MONTHS()":"453eccea","MULTIPLIER_THREE_MONTHS()":"a7fa6f98","MULTIPLIER_TWO_MONTHS()":"54de2320","PRECISION()":"aaf5eb68","SLASHER_ROLE()":"5095af64","TANGLE_ROLE()":"602356e3","UPGRADER_ROLE()":"f72c0d8b","UPGRADE_INTERFACE_VERSION()":"ad3cb1cc","VIRTUAL_ASSETS()":"b6608409","VIRTUAL_SHARES()":"88c47f68","blueprintSlashCount(uint64,address)":"4e9c929a","clearFacetSelectors(bytes4[])":"e07dec29","currentRound()":"8a19c8bc","delegationBondLessDelay()":"ba05bbf5","facetForSelector(bytes4)":"90837ff4","getAccumulatedDust(address)":"49147411","getAssetAdapter(address)":"8a7fe60f","getPendingSlashCount(address)":"9480e4dd","getRoleAdmin(bytes32)":"248a9ca3","getSlashCount(address)":"66c36875","getSlashCountForBlueprint(uint64,address)":"c550d938","getSlashCountForService(uint64,address)":"72b5032d","getSlashImpact(address,uint64,address)":"9494f426","getSlashRecord(address,uint64)":"a457af3d","getSnapshot(uint64,address)":"c07449e2","grantRole(bytes32,address)":"2f2ff15d","hasRole(bytes32,address)":"91d14854","initialize(address,uint256,uint256,uint16)":"cbb6d6bd","lastRoundAdvance()":"05d64e38","leaveDelegatorsDelay()":"db8a173a","leaveOperatorsDelay()":"4de8addc","nativeEnabled()":"77ab2cf3","nextSlashId(address)":"96085673","operatorCommissionBps()":"32273f61","paused()":"5c975abb","proxiableUUID()":"52d1902d","registerFacet(address)":"46d163aa","registerFacetSelectors(address,bytes4[])":"19e82e61","renounceRole(bytes32,address)":"36568abe","requireAdapters()":"b54b2b9e","resetPendingSlashCount(address,uint64)":"e27e05c1","revokeRole(bytes32,address)":"d547741f","roundDuration()":"f7cb789a","serviceSlashCount(uint64,address)":"9722f4b9","slashHistory(address,uint64)":"0aa8b110","supportsInterface(bytes4)":"01ffc9a7","upgradeToAndCall(address,bytes)":"4f1ef286"},"id":56}