{"abi":[{"type":"constructor","inputs":[],"stateMutability":"nonpayable"},{"type":"receive","stateMutability":"payable"},{"type":"function","name":"ADMIN_ROLE","inputs":[],"outputs":[{"name":"","type":"bytes32","internalType":"bytes32"}],"stateMutability":"view"},{"type":"function","name":"ASSET_MANAGER_ROLE","inputs":[],"outputs":[{"name":"","type":"bytes32","internalType":"bytes32"}],"stateMutability":"view"},{"type":"function","name":"BPS_DENOMINATOR","inputs":[],"outputs":[{"name":"","type":"uint256","internalType":"uint256"}],"stateMutability":"view"},{"type":"function","name":"DEFAULT_ADMIN_ROLE","inputs":[],"outputs":[{"name":"","type":"bytes32","internalType":"bytes32"}],"stateMutability":"view"},{"type":"function","name":"LOCK_ONE_MONTH","inputs":[],"outputs":[{"name":"","type":"uint64","internalType":"uint64"}],"stateMutability":"view"},{"type":"function","name":"LOCK_SIX_MONTHS","inputs":[],"outputs":[{"name":"","type":"uint64","internalType":"uint64"}],"stateMutability":"view"},{"type":"function","name":"LOCK_THREE_MONTHS","inputs":[],"outputs":[{"name":"","type":"uint64","internalType":"uint64"}],"stateMutability":"view"},{"type":"function","name":"LOCK_TWO_MONTHS","inputs":[],"outputs":[{"name":"","type":"uint64","internalType":"uint64"}],"stateMutability":"view"},{"type":"function","name":"MULTIPLIER_NONE","inputs":[],"outputs":[{"name":"","type":"uint16","internalType":"uint16"}],"stateMutability":"view"},{"type":"function","name":"MULTIPLIER_ONE_MONTH","inputs":[],"outputs":[{"name":"","type":"uint16","internalType":"uint16"}],"stateMutability":"view"},{"type":"function","name":"MULTIPLIER_SIX_MONTHS","inputs":[],"outputs":[{"name":"","type":"uint16","internalType":"uint16"}],"stateMutability":"view"},{"type":"function","name":"MULTIPLIER_THREE_MONTHS","inputs":[],"outputs":[{"name":"","type":"uint16","internalType":"uint16"}],"stateMutability":"view"},{"type":"function","name":"MULTIPLIER_TWO_MONTHS","inputs":[],"outputs":[{"name":"","type":"uint16","internalType":"uint16"}],"stateMutability":"view"},{"type":"function","name":"PRECISION","inputs":[],"outputs":[{"name":"","type":"uint256","internalType":"uint256"}],"stateMutability":"view"},{"type":"function","name":"SLASHER_ROLE","inputs":[],"outputs":[{"name":"","type":"bytes32","internalType":"bytes32"}],"stateMutability":"view"},{"type":"function","name":"UPGRADE_INTERFACE_VERSION","inputs":[],"outputs":[{"name":"","type":"string","internalType":"string"}],"stateMutability":"view"},{"type":"function","name":"addBlueprint","inputs":[{"name":"blueprintId","type":"uint64","internalType":"uint64"}],"outputs":[],"stateMutability":"nonpayable"},{"type":"function","name":"addBlueprintToDelegation","inputs":[{"name":"delegationIndex","type":"uint256","internalType":"uint256"},{"name":"blueprintId","type":"uint64","internalType":"uint64"}],"outputs":[],"stateMutability":"nonpayable"},{"type":"function","name":"addSlasher","inputs":[{"name":"slasher","type":"address","internalType":"address"}],"outputs":[],"stateMutability":"nonpayable"},{"type":"function","name":"advanceRound","inputs":[],"outputs":[],"stateMutability":"nonpayable"},{"type":"function","name":"claimDelegatorRewards","inputs":[],"outputs":[{"name":"totalRewards","type":"uint256","internalType":"uint256"}],"stateMutability":"nonpayable"},{"type":"function","name":"claimOperatorRewards","inputs":[],"outputs":[],"stateMutability":"nonpayable"},{"type":"function","name":"claimOperatorRewardsTo","inputs":[{"name":"recipient","type":"address","internalType":"address payable"}],"outputs":[],"stateMutability":"nonpayable"},{"type":"function","name":"completeLeaving","inputs":[],"outputs":[],"stateMutability":"nonpayable"},{"type":"function","name":"currentRound","inputs":[],"outputs":[{"name":"","type":"uint64","internalType":"uint64"}],"stateMutability":"view"},{"type":"function","name":"delegate","inputs":[{"name":"operator","type":"address","internalType":"address"},{"name":"amount","type":"uint256","internalType":"uint256"}],"outputs":[],"stateMutability":"nonpayable"},{"type":"function","name":"delegateWithOptions","inputs":[{"name":"operator","type":"address","internalType":"address"},{"name":"token","type":"address","internalType":"address"},{"name":"amount","type":"uint256","internalType":"uint256"},{"name":"selectionMode","type":"uint8","internalType":"enum Types.BlueprintSelectionMode"},{"name":"blueprintIds","type":"uint64[]","internalType":"uint64[]"}],"outputs":[],"stateMutability":"nonpayable"},{"type":"function","name":"delegationBondLessDelay","inputs":[],"outputs":[{"name":"","type":"uint64","internalType":"uint64"}],"stateMutability":"view"},{"type":"function","name":"deposit","inputs":[],"outputs":[],"stateMutability":"payable"},{"type":"function","name":"depositAndDelegate","inputs":[{"name":"operator","type":"address","internalType":"address"}],"outputs":[],"stateMutability":"payable"},{"type":"function","name":"depositAndDelegateWithOptions","inputs":[{"name":"operator","type":"address","internalType":"address"},{"name":"token","type":"address","internalType":"address"},{"name":"amount","type":"uint256","internalType":"uint256"},{"name":"selectionMode","type":"uint8","internalType":"enum Types.BlueprintSelectionMode"},{"name":"blueprintIds","type":"uint64[]","internalType":"uint64[]"}],"outputs":[],"stateMutability":"payable"},{"type":"function","name":"depositERC20","inputs":[{"name":"token","type":"address","internalType":"address"},{"name":"amount","type":"uint256","internalType":"uint256"}],"outputs":[],"stateMutability":"nonpayable"},{"type":"function","name":"depositERC20WithLock","inputs":[{"name":"token","type":"address","internalType":"address"},{"name":"amount","type":"uint256","internalType":"uint256"},{"name":"lockMultiplier","type":"uint8","internalType":"enum Types.LockMultiplier"}],"outputs":[],"stateMutability":"nonpayable"},{"type":"function","name":"depositWithLock","inputs":[{"name":"lockMultiplier","type":"uint8","internalType":"enum Types.LockMultiplier"}],"outputs":[],"stateMutability":"payable"},{"type":"function","name":"disableAsset","inputs":[{"name":"token","type":"address","internalType":"address"}],"outputs":[],"stateMutability":"nonpayable"},{"type":"function","name":"enableAsset","inputs":[{"name":"token","type":"address","internalType":"address"},{"name":"_minOperatorStake","type":"uint256","internalType":"uint256"},{"name":"_minDelegation","type":"uint256","internalType":"uint256"},{"name":"_depositCap","type":"uint256","internalType":"uint256"},{"name":"_rewardMultiplierBps","type":"uint16","internalType":"uint16"}],"outputs":[],"stateMutability":"nonpayable"},{"type":"function","name":"enableAssetWithAdapter","inputs":[{"name":"token","type":"address","internalType":"address"},{"name":"adapter","type":"address","internalType":"address"},{"name":"_minOperatorStake","type":"uint256","internalType":"uint256"},{"name":"_minDelegation","type":"uint256","internalType":"uint256"},{"name":"_depositCap","type":"uint256","internalType":"uint256"},{"name":"_rewardMultiplierBps","type":"uint16","internalType":"uint16"}],"outputs":[],"stateMutability":"nonpayable"},{"type":"function","name":"executeDelegatorUnstake","inputs":[],"outputs":[],"stateMutability":"nonpayable"},{"type":"function","name":"executeOperatorUnstake","inputs":[],"outputs":[],"stateMutability":"nonpayable"},{"type":"function","name":"executeWithdraw","inputs":[],"outputs":[],"stateMutability":"nonpayable"},{"type":"function","name":"getAssetAdapter","inputs":[{"name":"token","type":"address","internalType":"address"}],"outputs":[{"name":"","type":"address","internalType":"address"}],"stateMutability":"view"},{"type":"function","name":"getAssetConfig","inputs":[{"name":"token","type":"address","internalType":"address"}],"outputs":[{"name":"","type":"tuple","internalType":"struct Types.AssetConfig","components":[{"name":"enabled","type":"bool","internalType":"bool"},{"name":"minOperatorStake","type":"uint256","internalType":"uint256"},{"name":"minDelegation","type":"uint256","internalType":"uint256"},{"name":"depositCap","type":"uint256","internalType":"uint256"},{"name":"currentDeposits","type":"uint256","internalType":"uint256"},{"name":"rewardMultiplierBps","type":"uint16","internalType":"uint16"}]}],"stateMutability":"view"},{"type":"function","name":"getDelegation","inputs":[{"name":"delegator","type":"address","internalType":"address"},{"name":"operator","type":"address","internalType":"address"}],"outputs":[{"name":"","type":"uint256","internalType":"uint256"}],"stateMutability":"view"},{"type":"function","name":"getDelegationBlueprints","inputs":[{"name":"delegator","type":"address","internalType":"address"},{"name":"idx","type":"uint256","internalType":"uint256"}],"outputs":[{"name":"","type":"uint64[]","internalType":"uint64[]"}],"stateMutability":"view"},{"type":"function","name":"getDelegations","inputs":[{"name":"delegator","type":"address","internalType":"address"}],"outputs":[{"name":"","type":"tuple[]","internalType":"struct Types.BondInfoDelegator[]","components":[{"name":"operator","type":"address","internalType":"address"},{"name":"shares","type":"uint256","internalType":"uint256"},{"name":"asset","type":"tuple","internalType":"struct Types.Asset","components":[{"name":"kind","type":"uint8","internalType":"enum Types.AssetKind"},{"name":"token","type":"address","internalType":"address"}]},{"name":"selectionMode","type":"uint8","internalType":"enum Types.BlueprintSelectionMode"}]}],"stateMutability":"view"},{"type":"function","name":"getDeposit","inputs":[{"name":"delegator","type":"address","internalType":"address"},{"name":"token","type":"address","internalType":"address"}],"outputs":[{"name":"","type":"tuple","internalType":"struct Types.Deposit","components":[{"name":"amount","type":"uint256","internalType":"uint256"},{"name":"delegatedAmount","type":"uint256","internalType":"uint256"}]}],"stateMutability":"view"},{"type":"function","name":"getLocks","inputs":[{"name":"delegator","type":"address","internalType":"address"},{"name":"token","type":"address","internalType":"address"}],"outputs":[{"name":"","type":"tuple[]","internalType":"struct Types.LockInfo[]","components":[{"name":"amount","type":"uint256","internalType":"uint256"},{"name":"multiplier","type":"uint8","internalType":"enum Types.LockMultiplier"},{"name":"expiryBlock","type":"uint64","internalType":"uint64"}]}],"stateMutability":"view"},{"type":"function","name":"getOperatorBlueprints","inputs":[{"name":"operator","type":"address","internalType":"address"}],"outputs":[{"name":"","type":"uint256[]","internalType":"uint256[]"}],"stateMutability":"view"},{"type":"function","name":"getOperatorDelegatedStake","inputs":[{"name":"operator","type":"address","internalType":"address"}],"outputs":[{"name":"","type":"uint256","internalType":"uint256"}],"stateMutability":"view"},{"type":"function","name":"getOperatorDelegatorCount","inputs":[{"name":"operator","type":"address","internalType":"address"}],"outputs":[{"name":"","type":"uint256","internalType":"uint256"}],"stateMutability":"view"},{"type":"function","name":"getOperatorDelegators","inputs":[{"name":"operator","type":"address","internalType":"address"}],"outputs":[{"name":"","type":"address[]","internalType":"address[]"}],"stateMutability":"view"},{"type":"function","name":"getOperatorMetadata","inputs":[{"name":"operator","type":"address","internalType":"address"}],"outputs":[{"name":"","type":"tuple","internalType":"struct Types.OperatorMetadata","components":[{"name":"stake","type":"uint256","internalType":"uint256"},{"name":"delegationCount","type":"uint32","internalType":"uint32"},{"name":"status","type":"uint8","internalType":"enum Types.OperatorStatus"},{"name":"leavingRound","type":"uint64","internalType":"uint64"}]}],"stateMutability":"view"},{"type":"function","name":"getOperatorRewardPool","inputs":[{"name":"operator","type":"address","internalType":"address"}],"outputs":[{"name":"","type":"tuple","internalType":"struct Types.OperatorRewardPool","components":[{"name":"accRewardPerShare","type":"uint256","internalType":"uint256"},{"name":"totalShares","type":"uint256","internalType":"uint256"},{"name":"totalAssets","type":"uint256","internalType":"uint256"},{"name":"lastUpdateRound","type":"uint64","internalType":"uint64"}]}],"stateMutability":"view"},{"type":"function","name":"getOperatorSelfStake","inputs":[{"name":"operator","type":"address","internalType":"address"}],"outputs":[{"name":"","type":"uint256","internalType":"uint256"}],"stateMutability":"view"},{"type":"function","name":"getOperatorStake","inputs":[{"name":"operator","type":"address","internalType":"address"}],"outputs":[{"name":"","type":"uint256","internalType":"uint256"}],"stateMutability":"view"},{"type":"function","name":"getPendingDelegatorRewards","inputs":[{"name":"delegator","type":"address","internalType":"address"}],"outputs":[{"name":"","type":"uint256","internalType":"uint256"}],"stateMutability":"view"},{"type":"function","name":"getPendingOperatorRewards","inputs":[{"name":"operator","type":"address","internalType":"address"}],"outputs":[{"name":"","type":"uint256","internalType":"uint256"}],"stateMutability":"view"},{"type":"function","name":"getPendingUnstakes","inputs":[{"name":"delegator","type":"address","internalType":"address"}],"outputs":[{"name":"","type":"tuple[]","internalType":"struct Types.BondLessRequest[]","components":[{"name":"operator","type":"address","internalType":"address"},{"name":"asset","type":"tuple","internalType":"struct Types.Asset","components":[{"name":"kind","type":"uint8","internalType":"enum Types.AssetKind"},{"name":"token","type":"address","internalType":"address"}]},{"name":"shares","type":"uint256","internalType":"uint256"},{"name":"requestedRound","type":"uint64","internalType":"uint64"},{"name":"selectionMode","type":"uint8","internalType":"enum Types.BlueprintSelectionMode"}]}],"stateMutability":"view"},{"type":"function","name":"getPendingWithdrawals","inputs":[{"name":"delegator","type":"address","internalType":"address"}],"outputs":[{"name":"","type":"tuple[]","internalType":"struct Types.WithdrawRequest[]","components":[{"name":"asset","type":"tuple","internalType":"struct Types.Asset","components":[{"name":"kind","type":"uint8","internalType":"enum Types.AssetKind"},{"name":"token","type":"address","internalType":"address"}]},{"name":"amount","type":"uint256","internalType":"uint256"},{"name":"requestedRound","type":"uint64","internalType":"uint64"}]}],"stateMutability":"view"},{"type":"function","name":"getRoleAdmin","inputs":[{"name":"role","type":"bytes32","internalType":"bytes32"}],"outputs":[{"name":"","type":"bytes32","internalType":"bytes32"}],"stateMutability":"view"},{"type":"function","name":"getSlashCount","inputs":[{"name":"operator","type":"address","internalType":"address"}],"outputs":[{"name":"","type":"uint64","internalType":"uint64"}],"stateMutability":"view"},{"type":"function","name":"getSlashImpact","inputs":[{"name":"operator","type":"address","internalType":"address"},{"name":"slashId","type":"uint64","internalType":"uint64"},{"name":"delegator","type":"address","internalType":"address"}],"outputs":[{"name":"lostAmount","type":"uint256","internalType":"uint256"}],"stateMutability":"view"},{"type":"function","name":"getSlashRecord","inputs":[{"name":"operator","type":"address","internalType":"address"},{"name":"slashId","type":"uint64","internalType":"uint64"}],"outputs":[{"name":"","type":"tuple","internalType":"struct SlashingManager.SlashRecord","components":[{"name":"round","type":"uint64","internalType":"uint64"},{"name":"totalSlashed","type":"uint256","internalType":"uint256"},{"name":"exchangeRateBefore","type":"uint256","internalType":"uint256"},{"name":"exchangeRateAfter","type":"uint256","internalType":"uint256"},{"name":"evidence","type":"bytes32","internalType":"bytes32"}]}],"stateMutability":"view"},{"type":"function","name":"getSnapshot","inputs":[{"name":"round","type":"uint64","internalType":"uint64"},{"name":"operator","type":"address","internalType":"address"}],"outputs":[{"name":"","type":"tuple","internalType":"struct Types.OperatorSnapshot","components":[{"name":"stake","type":"uint256","internalType":"uint256"},{"name":"totalDelegated","type":"uint256","internalType":"uint256"}]}],"stateMutability":"view"},{"type":"function","name":"getTotalDelegation","inputs":[{"name":"delegator","type":"address","internalType":"address"}],"outputs":[{"name":"total","type":"uint256","internalType":"uint256"}],"stateMutability":"view"},{"type":"function","name":"grantRole","inputs":[{"name":"role","type":"bytes32","internalType":"bytes32"},{"name":"account","type":"address","internalType":"address"}],"outputs":[],"stateMutability":"nonpayable"},{"type":"function","name":"hasRole","inputs":[{"name":"role","type":"bytes32","internalType":"bytes32"},{"name":"account","type":"address","internalType":"address"}],"outputs":[{"name":"","type":"bool","internalType":"bool"}],"stateMutability":"view"},{"type":"function","name":"increaseStake","inputs":[],"outputs":[],"stateMutability":"payable"},{"type":"function","name":"initialize","inputs":[{"name":"admin","type":"address","internalType":"address"},{"name":"nativeMinOperatorStake","type":"uint256","internalType":"uint256"},{"name":"nativeMinDelegation","type":"uint256","internalType":"uint256"},{"name":"_operatorCommissionBps","type":"uint16","internalType":"uint16"}],"outputs":[],"stateMutability":"nonpayable"},{"type":"function","name":"isOperator","inputs":[{"name":"operator","type":"address","internalType":"address"}],"outputs":[{"name":"","type":"bool","internalType":"bool"}],"stateMutability":"view"},{"type":"function","name":"isOperatorActive","inputs":[{"name":"operator","type":"address","internalType":"address"}],"outputs":[{"name":"","type":"bool","internalType":"bool"}],"stateMutability":"view"},{"type":"function","name":"isSlasher","inputs":[{"name":"account","type":"address","internalType":"address"}],"outputs":[{"name":"","type":"bool","internalType":"bool"}],"stateMutability":"view"},{"type":"function","name":"leaveDelegatorsDelay","inputs":[],"outputs":[{"name":"","type":"uint64","internalType":"uint64"}],"stateMutability":"view"},{"type":"function","name":"leaveOperatorsDelay","inputs":[],"outputs":[{"name":"","type":"uint64","internalType":"uint64"}],"stateMutability":"view"},{"type":"function","name":"meetsStakeRequirement","inputs":[{"name":"operator","type":"address","internalType":"address"},{"name":"required","type":"uint256","internalType":"uint256"}],"outputs":[{"name":"","type":"bool","internalType":"bool"}],"stateMutability":"view"},{"type":"function","name":"minOperatorStake","inputs":[],"outputs":[{"name":"","type":"uint256","internalType":"uint256"}],"stateMutability":"view"},{"type":"function","name":"nativeEnabled","inputs":[],"outputs":[{"name":"","type":"bool","internalType":"bool"}],"stateMutability":"view"},{"type":"function","name":"nextSlashId","inputs":[{"name":"","type":"address","internalType":"address"}],"outputs":[{"name":"","type":"uint64","internalType":"uint64"}],"stateMutability":"view"},{"type":"function","name":"notifyReward","inputs":[{"name":"operator","type":"address","internalType":"address"},{"name":"serviceId","type":"uint64","internalType":"uint64"},{"name":"amount","type":"uint256","internalType":"uint256"}],"outputs":[],"stateMutability":"nonpayable"},{"type":"function","name":"notifyRewardForBlueprint","inputs":[{"name":"operator","type":"address","internalType":"address"},{"name":"blueprintId","type":"uint64","internalType":"uint64"},{"name":"serviceId","type":"uint64","internalType":"uint64"},{"name":"amount","type":"uint256","internalType":"uint256"}],"outputs":[],"stateMutability":"nonpayable"},{"type":"function","name":"operatorAt","inputs":[{"name":"index","type":"uint256","internalType":"uint256"}],"outputs":[{"name":"","type":"address","internalType":"address"}],"stateMutability":"view"},{"type":"function","name":"operatorCommissionBps","inputs":[],"outputs":[{"name":"","type":"uint16","internalType":"uint16"}],"stateMutability":"view"},{"type":"function","name":"operatorCount","inputs":[],"outputs":[{"name":"","type":"uint256","internalType":"uint256"}],"stateMutability":"view"},{"type":"function","name":"pause","inputs":[],"outputs":[],"stateMutability":"nonpayable"},{"type":"function","name":"paused","inputs":[],"outputs":[{"name":"","type":"bool","internalType":"bool"}],"stateMutability":"view"},{"type":"function","name":"proxiableUUID","inputs":[],"outputs":[{"name":"","type":"bytes32","internalType":"bytes32"}],"stateMutability":"view"},{"type":"function","name":"registerAdapter","inputs":[{"name":"token","type":"address","internalType":"address"},{"name":"adapter","type":"address","internalType":"address"}],"outputs":[],"stateMutability":"nonpayable"},{"type":"function","name":"registerOperator","inputs":[],"outputs":[],"stateMutability":"payable"},{"type":"function","name":"registerOperatorWithAsset","inputs":[{"name":"token","type":"address","internalType":"address"},{"name":"amount","type":"uint256","internalType":"uint256"}],"outputs":[],"stateMutability":"nonpayable"},{"type":"function","name":"removeAdapter","inputs":[{"name":"token","type":"address","internalType":"address"}],"outputs":[],"stateMutability":"nonpayable"},{"type":"function","name":"removeBlueprint","inputs":[{"name":"blueprintId","type":"uint64","internalType":"uint64"}],"outputs":[],"stateMutability":"nonpayable"},{"type":"function","name":"removeBlueprintFromDelegation","inputs":[{"name":"delegationIndex","type":"uint256","internalType":"uint256"},{"name":"blueprintId","type":"uint64","internalType":"uint64"}],"outputs":[],"stateMutability":"nonpayable"},{"type":"function","name":"removeSlasher","inputs":[{"name":"slasher","type":"address","internalType":"address"}],"outputs":[],"stateMutability":"nonpayable"},{"type":"function","name":"renounceRole","inputs":[{"name":"role","type":"bytes32","internalType":"bytes32"},{"name":"callerConfirmation","type":"address","internalType":"address"}],"outputs":[],"stateMutability":"nonpayable"},{"type":"function","name":"requireAdapters","inputs":[],"outputs":[{"name":"","type":"bool","internalType":"bool"}],"stateMutability":"view"},{"type":"function","name":"revokeRole","inputs":[{"name":"role","type":"bytes32","internalType":"bytes32"},{"name":"account","type":"address","internalType":"address"}],"outputs":[],"stateMutability":"nonpayable"},{"type":"function","name":"rewardsManager","inputs":[],"outputs":[{"name":"","type":"address","internalType":"address"}],"stateMutability":"view"},{"type":"function","name":"roundDuration","inputs":[],"outputs":[{"name":"","type":"uint64","internalType":"uint64"}],"stateMutability":"view"},{"type":"function","name":"scheduleDelegatorUnstake","inputs":[{"name":"operator","type":"address","internalType":"address"},{"name":"token","type":"address","internalType":"address"},{"name":"amount","type":"uint256","internalType":"uint256"}],"outputs":[],"stateMutability":"nonpayable"},{"type":"function","name":"scheduleOperatorUnstake","inputs":[{"name":"amount","type":"uint256","internalType":"uint256"}],"outputs":[],"stateMutability":"nonpayable"},{"type":"function","name":"scheduleWithdraw","inputs":[{"name":"token","type":"address","internalType":"address"},{"name":"amount","type":"uint256","internalType":"uint256"}],"outputs":[],"stateMutability":"nonpayable"},{"type":"function","name":"setDelays","inputs":[{"name":"_delegationBondLessDelay","type":"uint64","internalType":"uint64"},{"name":"_leaveDelegatorsDelay","type":"uint64","internalType":"uint64"},{"name":"_leaveOperatorsDelay","type":"uint64","internalType":"uint64"}],"outputs":[],"stateMutability":"nonpayable"},{"type":"function","name":"setOperatorCommission","inputs":[{"name":"bps","type":"uint16","internalType":"uint16"}],"outputs":[],"stateMutability":"nonpayable"},{"type":"function","name":"setRequireAdapters","inputs":[{"name":"required","type":"bool","internalType":"bool"}],"outputs":[],"stateMutability":"nonpayable"},{"type":"function","name":"setRewardsManager","inputs":[{"name":"manager","type":"address","internalType":"address"}],"outputs":[],"stateMutability":"nonpayable"},{"type":"function","name":"slash","inputs":[{"name":"operator","type":"address","internalType":"address"},{"name":"serviceId","type":"uint64","internalType":"uint64"},{"name":"amount","type":"uint256","internalType":"uint256"},{"name":"evidence","type":"bytes32","internalType":"bytes32"}],"outputs":[{"name":"actualSlashed","type":"uint256","internalType":"uint256"}],"stateMutability":"nonpayable"},{"type":"function","name":"slashForBlueprint","inputs":[{"name":"operator","type":"address","internalType":"address"},{"name":"blueprintId","type":"uint64","internalType":"uint64"},{"name":"serviceId","type":"uint64","internalType":"uint64"},{"name":"amount","type":"uint256","internalType":"uint256"},{"name":"evidence","type":"bytes32","internalType":"bytes32"}],"outputs":[{"name":"actualSlashed","type":"uint256","internalType":"uint256"}],"stateMutability":"nonpayable"},{"type":"function","name":"slashHistory","inputs":[{"name":"","type":"address","internalType":"address"},{"name":"","type":"uint64","internalType":"uint64"}],"outputs":[{"name":"round","type":"uint64","internalType":"uint64"},{"name":"totalSlashed","type":"uint256","internalType":"uint256"},{"name":"exchangeRateBefore","type":"uint256","internalType":"uint256"},{"name":"exchangeRateAfter","type":"uint256","internalType":"uint256"},{"name":"evidence","type":"bytes32","internalType":"bytes32"}],"stateMutability":"view"},{"type":"function","name":"snapshotOperator","inputs":[{"name":"operator","type":"address","internalType":"address"}],"outputs":[],"stateMutability":"nonpayable"},{"type":"function","name":"startLeaving","inputs":[],"outputs":[],"stateMutability":"nonpayable"},{"type":"function","name":"supportsInterface","inputs":[{"name":"interfaceId","type":"bytes4","internalType":"bytes4"}],"outputs":[{"name":"","type":"bool","internalType":"bool"}],"stateMutability":"view"},{"type":"function","name":"undelegate","inputs":[{"name":"operator","type":"address","internalType":"address"},{"name":"amount","type":"uint256","internalType":"uint256"}],"outputs":[],"stateMutability":"nonpayable"},{"type":"function","name":"unpause","inputs":[],"outputs":[],"stateMutability":"nonpayable"},{"type":"function","name":"upgradeToAndCall","inputs":[{"name":"newImplementation","type":"address","internalType":"address"},{"name":"data","type":"bytes","internalType":"bytes"}],"outputs":[],"stateMutability":"payable"},{"type":"event","name":"AdapterRegistered","inputs":[{"name":"token","type":"address","indexed":true,"internalType":"address"},{"name":"adapter","type":"address","indexed":true,"internalType":"address"}],"anonymous":false},{"type":"event","name":"AdapterRemoved","inputs":[{"name":"token","type":"address","indexed":true,"internalType":"address"}],"anonymous":false},{"type":"event","name":"AssetDisabled","inputs":[{"name":"token","type":"address","indexed":true,"internalType":"address"}],"anonymous":false},{"type":"event","name":"AssetEnabled","inputs":[{"name":"token","type":"address","indexed":true,"internalType":"address"},{"name":"minOperatorStake","type":"uint256","indexed":false,"internalType":"uint256"},{"name":"minDelegation","type":"uint256","indexed":false,"internalType":"uint256"}],"anonymous":false},{"type":"event","name":"BlueprintAddedToDelegation","inputs":[{"name":"delegator","type":"address","indexed":true,"internalType":"address"},{"name":"delegationIndex","type":"uint256","indexed":true,"internalType":"uint256"},{"name":"blueprintId","type":"uint64","indexed":false,"internalType":"uint64"}],"anonymous":false},{"type":"event","name":"BlueprintRemovedFromDelegation","inputs":[{"name":"delegator","type":"address","indexed":true,"internalType":"address"},{"name":"delegationIndex","type":"uint256","indexed":true,"internalType":"uint256"},{"name":"blueprintId","type":"uint64","indexed":false,"internalType":"uint64"}],"anonymous":false},{"type":"event","name":"Delegated","inputs":[{"name":"delegator","type":"address","indexed":true,"internalType":"address"},{"name":"operator","type":"address","indexed":true,"internalType":"address"},{"name":"token","type":"address","indexed":true,"internalType":"address"},{"name":"amount","type":"uint256","indexed":false,"internalType":"uint256"},{"name":"shares","type":"uint256","indexed":false,"internalType":"uint256"},{"name":"selectionMode","type":"uint8","indexed":false,"internalType":"enum Types.BlueprintSelectionMode"}],"anonymous":false},{"type":"event","name":"DelegatorUnstakeExecuted","inputs":[{"name":"delegator","type":"address","indexed":true,"internalType":"address"},{"name":"operator","type":"address","indexed":true,"internalType":"address"},{"name":"token","type":"address","indexed":true,"internalType":"address"},{"name":"shares","type":"uint256","indexed":false,"internalType":"uint256"},{"name":"amount","type":"uint256","indexed":false,"internalType":"uint256"}],"anonymous":false},{"type":"event","name":"DelegatorUnstakeScheduled","inputs":[{"name":"delegator","type":"address","indexed":true,"internalType":"address"},{"name":"operator","type":"address","indexed":true,"internalType":"address"},{"name":"token","type":"address","indexed":true,"internalType":"address"},{"name":"shares","type":"uint256","indexed":false,"internalType":"uint256"},{"name":"estimatedAmount","type":"uint256","indexed":false,"internalType":"uint256"},{"name":"readyRound","type":"uint64","indexed":false,"internalType":"uint64"}],"anonymous":false},{"type":"event","name":"Deposited","inputs":[{"name":"delegator","type":"address","indexed":true,"internalType":"address"},{"name":"token","type":"address","indexed":true,"internalType":"address"},{"name":"amount","type":"uint256","indexed":false,"internalType":"uint256"},{"name":"lock","type":"uint8","indexed":false,"internalType":"enum Types.LockMultiplier"}],"anonymous":false},{"type":"event","name":"Initialized","inputs":[{"name":"version","type":"uint64","indexed":false,"internalType":"uint64"}],"anonymous":false},{"type":"event","name":"OperatorBlueprintAdded","inputs":[{"name":"operator","type":"address","indexed":true,"internalType":"address"},{"name":"blueprintId","type":"uint64","indexed":true,"internalType":"uint64"}],"anonymous":false},{"type":"event","name":"OperatorBlueprintRemoved","inputs":[{"name":"operator","type":"address","indexed":true,"internalType":"address"},{"name":"blueprintId","type":"uint64","indexed":true,"internalType":"uint64"}],"anonymous":false},{"type":"event","name":"OperatorLeavingScheduled","inputs":[{"name":"operator","type":"address","indexed":true,"internalType":"address"},{"name":"readyRound","type":"uint64","indexed":false,"internalType":"uint64"}],"anonymous":false},{"type":"event","name":"OperatorLeft","inputs":[{"name":"operator","type":"address","indexed":true,"internalType":"address"}],"anonymous":false},{"type":"event","name":"OperatorRegistered","inputs":[{"name":"operator","type":"address","indexed":true,"internalType":"address"},{"name":"stake","type":"uint256","indexed":false,"internalType":"uint256"}],"anonymous":false},{"type":"event","name":"OperatorSlashed","inputs":[{"name":"operator","type":"address","indexed":true,"internalType":"address"},{"name":"serviceId","type":"uint64","indexed":true,"internalType":"uint64"},{"name":"amount","type":"uint256","indexed":false,"internalType":"uint256"},{"name":"evidence","type":"bytes32","indexed":false,"internalType":"bytes32"}],"anonymous":false},{"type":"event","name":"OperatorStakeIncreased","inputs":[{"name":"operator","type":"address","indexed":true,"internalType":"address"},{"name":"amount","type":"uint256","indexed":false,"internalType":"uint256"}],"anonymous":false},{"type":"event","name":"OperatorUnstakeExecuted","inputs":[{"name":"operator","type":"address","indexed":true,"internalType":"address"},{"name":"amount","type":"uint256","indexed":false,"internalType":"uint256"}],"anonymous":false},{"type":"event","name":"OperatorUnstakeScheduled","inputs":[{"name":"operator","type":"address","indexed":true,"internalType":"address"},{"name":"amount","type":"uint256","indexed":false,"internalType":"uint256"},{"name":"readyRound","type":"uint64","indexed":false,"internalType":"uint64"}],"anonymous":false},{"type":"event","name":"Paused","inputs":[{"name":"account","type":"address","indexed":false,"internalType":"address"}],"anonymous":false},{"type":"event","name":"RequireAdaptersUpdated","inputs":[{"name":"required","type":"bool","indexed":false,"internalType":"bool"}],"anonymous":false},{"type":"event","name":"RewardClaimed","inputs":[{"name":"account","type":"address","indexed":true,"internalType":"address"},{"name":"amount","type":"uint256","indexed":false,"internalType":"uint256"}],"anonymous":false},{"type":"event","name":"RewardDistributed","inputs":[{"name":"operator","type":"address","indexed":true,"internalType":"address"},{"name":"amount","type":"uint256","indexed":false,"internalType":"uint256"}],"anonymous":false},{"type":"event","name":"RoleAdminChanged","inputs":[{"name":"role","type":"bytes32","indexed":true,"internalType":"bytes32"},{"name":"previousAdminRole","type":"bytes32","indexed":true,"internalType":"bytes32"},{"name":"newAdminRole","type":"bytes32","indexed":true,"internalType":"bytes32"}],"anonymous":false},{"type":"event","name":"RoleGranted","inputs":[{"name":"role","type":"bytes32","indexed":true,"internalType":"bytes32"},{"name":"account","type":"address","indexed":true,"internalType":"address"},{"name":"sender","type":"address","indexed":true,"internalType":"address"}],"anonymous":false},{"type":"event","name":"RoleRevoked","inputs":[{"name":"role","type":"bytes32","indexed":true,"internalType":"bytes32"},{"name":"account","type":"address","indexed":true,"internalType":"address"},{"name":"sender","type":"address","indexed":true,"internalType":"address"}],"anonymous":false},{"type":"event","name":"RoundAdvanced","inputs":[{"name":"round","type":"uint64","indexed":true,"internalType":"uint64"}],"anonymous":false},{"type":"event","name":"SlashRecorded","inputs":[{"name":"operator","type":"address","indexed":true,"internalType":"address"},{"name":"slashId","type":"uint64","indexed":true,"internalType":"uint64"},{"name":"totalSlashed","type":"uint256","indexed":false,"internalType":"uint256"},{"name":"exchangeRateBefore","type":"uint256","indexed":false,"internalType":"uint256"},{"name":"exchangeRateAfter","type":"uint256","indexed":false,"internalType":"uint256"}],"anonymous":false},{"type":"event","name":"Slashed","inputs":[{"name":"operator","type":"address","indexed":true,"internalType":"address"},{"name":"serviceId","type":"uint64","indexed":true,"internalType":"uint64"},{"name":"operatorSlashed","type":"uint256","indexed":false,"internalType":"uint256"},{"name":"delegatorsSlashed","type":"uint256","indexed":false,"internalType":"uint256"},{"name":"newExchangeRate","type":"uint256","indexed":false,"internalType":"uint256"}],"anonymous":false},{"type":"event","name":"Unpaused","inputs":[{"name":"account","type":"address","indexed":false,"internalType":"address"}],"anonymous":false},{"type":"event","name":"Upgraded","inputs":[{"name":"implementation","type":"address","indexed":true,"internalType":"address"}],"anonymous":false},{"type":"event","name":"WithdrawScheduled","inputs":[{"name":"delegator","type":"address","indexed":true,"internalType":"address"},{"name":"token","type":"address","indexed":true,"internalType":"address"},{"name":"amount","type":"uint256","indexed":false,"internalType":"uint256"},{"name":"readyRound","type":"uint64","indexed":false,"internalType":"uint64"}],"anonymous":false},{"type":"event","name":"Withdrawn","inputs":[{"name":"delegator","type":"address","indexed":true,"internalType":"address"},{"name":"token","type":"address","indexed":true,"internalType":"address"},{"name":"amount","type":"uint256","indexed":false,"internalType":"uint256"}],"anonymous":false},{"type":"error","name":"AccessControlBadConfirmation","inputs":[]},{"type":"error","name":"AccessControlUnauthorizedAccount","inputs":[{"name":"account","type":"address","internalType":"address"},{"name":"neededRole","type":"bytes32","internalType":"bytes32"}]},{"type":"error","name":"AddressEmptyCode","inputs":[{"name":"target","type":"address","internalType":"address"}]},{"type":"error","name":"AmountLocked","inputs":[{"name":"locked","type":"uint256","internalType":"uint256"},{"name":"requested","type":"uint256","internalType":"uint256"}]},{"type":"error","name":"AssetNotEnabled","inputs":[{"name":"asset","type":"address","internalType":"address"}]},{"type":"error","name":"BelowMinimumDeposit","inputs":[{"name":"minimum","type":"uint256","internalType":"uint256"},{"name":"provided","type":"uint256","internalType":"uint256"}]},{"type":"error","name":"BlueprintAlreadySelected","inputs":[{"name":"blueprintId","type":"uint64","internalType":"uint64"}]},{"type":"error","name":"BlueprintNotSelected","inputs":[{"name":"blueprintId","type":"uint64","internalType":"uint64"}]},{"type":"error","name":"CannotRemoveLastBlueprint","inputs":[]},{"type":"error","name":"DelegationNotFound","inputs":[{"name":"delegator","type":"address","internalType":"address"},{"name":"operator","type":"address","internalType":"address"}]},{"type":"error","name":"DepositCapExceeded","inputs":[{"name":"cap","type":"uint256","internalType":"uint256"},{"name":"current","type":"uint256","internalType":"uint256"},{"name":"adding","type":"uint256","internalType":"uint256"}]},{"type":"error","name":"ERC1967InvalidImplementation","inputs":[{"name":"implementation","type":"address","internalType":"address"}]},{"type":"error","name":"ERC1967NonPayable","inputs":[]},{"type":"error","name":"EnforcedPause","inputs":[]},{"type":"error","name":"ExpectedPause","inputs":[]},{"type":"error","name":"FailedCall","inputs":[]},{"type":"error","name":"InsufficientAvailableBalance","inputs":[{"name":"available","type":"uint256","internalType":"uint256"},{"name":"requested","type":"uint256","internalType":"uint256"}]},{"type":"error","name":"InsufficientDelegation","inputs":[{"name":"available","type":"uint256","internalType":"uint256"},{"name":"requested","type":"uint256","internalType":"uint256"}]},{"type":"error","name":"InsufficientDeposit","inputs":[{"name":"available","type":"uint256","internalType":"uint256"},{"name":"requested","type":"uint256","internalType":"uint256"}]},{"type":"error","name":"InsufficientStake","inputs":[{"name":"required","type":"uint256","internalType":"uint256"},{"name":"provided","type":"uint256","internalType":"uint256"}]},{"type":"error","name":"InvalidDelegationIndex","inputs":[{"name":"index","type":"uint256","internalType":"uint256"}]},{"type":"error","name":"InvalidInitialization","inputs":[]},{"type":"error","name":"InvalidLockMultiplier","inputs":[{"name":"value","type":"uint8","internalType":"uint8"}]},{"type":"error","name":"LeavingTooEarly","inputs":[{"name":"currentRound","type":"uint64","internalType":"uint64"},{"name":"requiredRound","type":"uint64","internalType":"uint64"}]},{"type":"error","name":"LegacySlashRequiresAllMode","inputs":[{"name":"operator","type":"address","internalType":"address"}]},{"type":"error","name":"NoRewardsToClaim","inputs":[]},{"type":"error","name":"NotFixedMode","inputs":[]},{"type":"error","name":"NotInitializing","inputs":[]},{"type":"error","name":"OperatorAlreadyRegistered","inputs":[{"name":"operator","type":"address","internalType":"address"}]},{"type":"error","name":"OperatorNotActive","inputs":[{"name":"operator","type":"address","internalType":"address"}]},{"type":"error","name":"OperatorNotLeaving","inputs":[{"name":"operator","type":"address","internalType":"address"}]},{"type":"error","name":"OperatorNotRegistered","inputs":[{"name":"operator","type":"address","internalType":"address"}]},{"type":"error","name":"ReentrancyGuardReentrantCall","inputs":[]},{"type":"error","name":"SafeERC20FailedOperation","inputs":[{"name":"token","type":"address","internalType":"address"}]},{"type":"error","name":"TransferFailed","inputs":[]},{"type":"error","name":"UUPSUnauthorizedCallContext","inputs":[]},{"type":"error","name":"UUPSUnsupportedProxiableUUID","inputs":[{"name":"slot","type":"bytes32","internalType":"bytes32"}]},{"type":"error","name":"ZeroAddress","inputs":[]},{"type":"error","name":"ZeroAmount","inputs":[]}],"bytecode":{"object":"0x60a080604052346100e857306080527ff0c57e16840df040f15088dc2f81fe391c3923bec73e23a9662efc9c229c6a005460ff8160401c166100d9576002600160401b03196001600160401b03821601610073575b604051618e7d90816100ed823960805181818161351b01526136110152f35b6001600160401b0319166001600160401b039081177ff0c57e16840df040f15088dc2f81fe391c3923bec73e23a9662efc9c229c6a005581527fc7f505b2f371ae2175ee4913f4499e1f2633a7b5936321eed1cdaeb6115181d290602090a15f80610054565b63f92ee8a960e01b5f5260045ffd5b5f80fdfe6080604052600436101561001a575b3615610018575f80fd5b005b5f3560e01c80627910d01461527b57806301ffc9a714615225578063026e402b146151f057806303587c1d1461515557806303780211146150da5780630a8ddc5e146150975780630aa8b1101461500f5780630c8833ce14614e9b57806315049a5a14614d47578063168f686514614b5b57806318056dc214614b3f5780631ba9998b14614ae457806323cc27001461476c578063248a9ca31461474e578063261423351461471557806328e70ecc146146b45780632acde098146145845780632ee663b8146144c15780632f2ff15d1461449057806330224fc81461445857806331cc13ba1461432157806332273f61146142fd578063354ebef91461421e578063356924ea146141e257806336568abe1461419e5780633dcad9db14613fdb5780633f4ba83a14613f5d57806344aff25214613e1957806344d1480b14613b7c578063453eccea14613b60578063461cc23b14613b2a578063486398c314613af25780634962f88f146116d45780634c4ede2d14613ad15780634d99dd16146137c55780634de8addc1461379f5780634f1ef286146135965780635095af641461356f57806352d1902d1461350957806354de2320146134ed5780635722d5121461339157806357601c5d14613343578063585cd34b146132835780635c975abb1461325557806366c368751461280357806368a9f19c1461322c5780636d70f7ae146131ea5780636ec3ab67146130d8578063708075281461303857806375b238fc14612ffe57806377ab2cf314612fdc5780637b76fe5e14612f7a5780637b9996c514612dee5780637c6f315814612dd15780637d6941c614612d9c5780637df92ada14612d7f5780638456cb5914612d0e578063859caa1814612a9657806387703550146129be5780638a19c8bc146129995780638a7fe60f146129595780638c5b4ae71461291e5780638d795d50146128da57806391d14854146128855780639494f42614612844578063960856731461280357806397feb926146127ce5780639e870585146127b1578063a217fddf14612797578063a299e298146126aa578063a3b9c5c214612596578063a457af3d146124ba578063a4b32de814612480578063a7fa6f9814612464578063aac6aa9c1461243b578063aaf5eb6814612419578063ad3cb1cc146123bb578063b0dfce0614612387578063b54b2b9e14612365578063ba05bbf51461233d578063c07449e2146122e1578063c35082a914612217578063c735302514612193578063cadd550c146120c3578063cb15038b14612052578063cbb6d6bd14611dac578063d0e30db014611d89578063d1736ba714611c60578063d27a6f0614611c43578063d547741f14611c0d578063d655b92a14611ae4578063d673e0b914611aac578063d775cb6114611a66578063d9e257ef146119c2578063db8a173a146119a3578063dc972ccc146118ef578063defe2053146118c7578063e0a5825b146116f0578063e1a45218146116d4578063e1ee4bcc1461143e578063e4e88de8146113ee578063eb47353314611368578063f0b52bb414611178578063f340c0d014611066578063f38c7c4e1461101e578063f3c4d8a014610f9b578063f3c9b31114610f7e578063f46913bb14610f41578063f7cb789a14610f19578063f8fd979514610a31578063fbec4861146109e6578063fc5e7e0914610961578063fc8a91af146105525763fd7d3dbc0361000e573461054e5761053b61053561051736615c6c565b610526969295969493946160ec565b61052e616005565b3691615f7d565b93617444565b60015f80516020618e3183398151915255005b5f80fd5b3461054e57606036600319011261054e5761056b615b03565b610573615b19565b90604435916105806160ec565b8215610952576001600160a01b03169182610936576040516105a181615bc4565b5f81525f6020820152925b6105b584616b13565b6001600160a01b0384165f818152601760205260409020600281015491969291908115801561092a575b156108e457505083905b5f955f5b335f52601260205260405f20548110156108d857335f5260126020526106168160405f20615fd8565b5080546001600160a01b03168a14806108c1575b61063757506001016105ed565b93949596975050905f90335f52601460205260405f205f918154925b83811061084d575050505061066c906001840154615d72565b9083821061082d575050335f52601460205260405f209060ff60036001600160401b035f541692015416604051926106a384615c15565b8884526020840195865260408401908582526060850193845260808501926106ca81615b7e565b83528054600160401b811015610819576106e991600182018155615fd8565b949094610806575184546001600160a01b0319166001600160a01b0391909116178455945180518996610792956001600160401b0393849360039391610768916001850191906107429061073c81615b7e565b836160b1565b602001518154610100600160a81b03191660089190911b610100600160a81b0316179055565b51600282015501935116166001600160401b0319835416178255519061078d82615b7e565b6160c9565b6001600160401b036001946107b05f5483808260801c16911661603d565b9060405193845260208401521660408201527f06325d83435da87657b063c6142a5b91a66a7e811827d082d624287a9953c4ba60603392a45b156107f057005b6309078cff60e21b5f523360045260245260445ffd5b634e487b7160e01b5f525f60045260245ffd5b634e487b7160e01b5f52604160045260245ffd5b869161083891617acc565b6388c4fe8f60e01b5f5260045260245260445ffd5b8b6108588285615fd8565b50546001600160a01b0316148061089b575b610877575b600101610653565b93610893600191600261088a8887615fd8565b50015490615f59565b94905061086f565b50816108bb6108b660016108af8588615fd8565b500161606b565b616b13565b1461086a565b50836108d26108b66002840161606b565b1461062a565b505050505050506107e9565b816108f660016108fb93015488615d7f565b615f59565b5f198101919082116109165761091091615d92565b906105e9565b634e487b7160e01b5f52601160045260245ffd5b506001810154156105df565b60405161094281615bc4565b60018152836020820152926105ac565b631f2a200560e01b5f5260045ffd5b3461054e57602036600319011261054e5761097a615b03565b5f906001600160a01b0316815b815f52601260205260405f20548310156109db576109d3600191835f5260126020526109cd6109b98660405f20615fd8565b5084808060a01b0382541691015490617acc565b90615f59565b920191610987565b602090604051908152f35b61053b6105356109f536615c6c565b610a04969295969493946160ec565b610a0c616005565b6001600160a01b038416610a225761052e616f4b565b610a2c85856172f2565b61052e565b3461054e575f36600319011261054e57610a49616005565b5f335f52601160205260405f20905f90825492610a6584615f66565b610a726040519182615c30565b848152601f19610a8186615f66565b01366020830137610a9185615f66565b94610a9f6040519687615c30565b808652601f19610aae82615f66565b015f5b818110610ef6575050610ac381615f66565b93610ad16040519586615c30565b818552601f19610ae083615f66565b013660208701375f8054906001600160401b0382169160c01c905b8987868310610e4e57898b918983610cf8575b50505f5b828110610b2c5760015f80516020618e3183398151915255005b610b36818561609d565b5190610b42818461609d565b51918051610b4f81615b7e565b610b5881615b7e565b610c095750905f80808093335af1610b6e616f1c565b5015610bcb576001905b818060a01b036020610b8a838861609d565b51015116610b98828561609d565b516040519081527fd1c19fbcd4551a5edfb66d43d2e337c04837afda3482b42bdf569a8fccdae5fb60203392a301610b12565b60405162461bcd60e51b815260206004820152601660248201527513985d1a5d99481d1c985b9cd9995c8819985a5b195960521b6044820152606490fd5b602090810180516001600160a01b039081165f908152600690935260409092205490911692908315610cae575060405163f3fef3a360e01b8152336004820152602481019190915291602090839060449082905f905af1918215610ca357600192610c75575b50610b78565b610c959060203d8111610c9c575b610c8d8183615c30565b810190618547565b5085610c6f565b503d610c83565b6040513d5f823e3d90fd5b5160405163a9059cbb60e01b602082015233602482015260448082019390935291825260019350610cf391906001600160a01b0316610cee606483615c30565b618c54565b610b78565b909192935f945f5b8454811015610def57610d13818561609d565b5115610d22575b600101610d00565b95868103610d3e575b610d3660019161605d565b969050610d1a565b610d48878661742b565b50610d53828761742b565b929092610806578282610d3693600195141580610d76575b505050915050610d2b565b6001600160401b03600281938193610daf575b8881015489870155015416920191166001600160401b0319825416179055898080610d6b565b610dbd60ff825416876160b1565b80548654610100600160a81b031916600891821c60a08c901b8c90031690911b610100600160a81b0316178655610d89565b5091509193925b845484811115610e41578015610e2d575f1901610e13818761742b565b610806576002815f80935582600182015501558555610df6565b634e487b7160e01b5f52603160045260245ffd5b5091935091508380610b0e565b610e70846001600160401b036002610e6787839661742b565b5001541661603d565b16841015610e82575b50600101610afb565b610ee78a95610ec2849c610eed94610eb2610eac888f8f610ea660019c8d9261609d565b5261742b565b5061606b565b610ebc838361609d565b5261609d565b5083610ece8d8c61742b565b500154610edb888d61609d565b528361088a8d8c61742b565b9461605d565b98905089610e79565b602090604051610f0581615bc4565b5f81525f8382015282828b01015201610ab1565b3461054e575f36600319011261054e5760206001600160401b035f5460401c16604051908152f35b3461054e57604036600319011261054e576001600160a01b03610f62615b03565b165f52600a602052602060243560405f20541015604051908152f35b3461054e575f36600319011261054e5760206040516213c6808152f35b3461054e57602036600319011261054e5760043561ffff811680820361054e5761271090610fc7616618565b11610feb5761ffff60401b6001549160401b169061ffff60401b1916176001555f80f35b60405162461bcd60e51b815260206004820152600b60248201526a496e76616c69642042505360a81b6044820152606490fd5b602036600319011261054e57600435600581101561054e5761053b906110426160ec565b61104a616005565b60405161105681615bc4565b5f81525f6020820152349061811a565b3461054e57602036600319011261054e576001600160a01b03611087615b03565b165f52601160205260405f2080549061109f82615f66565b916110ad6040519384615c30565b8083526020830180925f5260205f205f915b838310611131578486604051918291602083019060208452518091526040830191905f5b8181106110f1575050500390f35b91935091602060806001926001600160401b0360408851611113848251615b88565b858101518285015201511660608201520194019101918493926110e3565b6003602060019260405161114481615bdf565b61114d8661606b565b815284860154838201526001600160401b0360028701541660408201528152019201920191906110bf565b3461054e5760c036600319011261054e57611191615b03565b611199615b19565b906044356064359060a4359261ffff841680940361054e576111b9616687565b6001600160a01b0316936111ce851515615d39565b6001600160a01b0316916111e3831515615eb7565b60405163551c457b60e11b81526004810186905293602085602481875afa938415610ca35760056112a361ffff926112466040987f9a4c59c56153245e23dcb8000e301b9a5e35b8e6693c5cdbf3b6a2aa0f8a37ea9a5f91611339575b50615f0d565b895f526006602052875f20816001600160601b0360a01b8254161790558751908a7fc47df14ad9309b59073546f93dbe3115ed09c8b206d940f8441ddb07f745b10b5f80a361129481615bc4565b60018152896020820152616b13565b8651906112af82615bfa565b60018252602082018781528883018781526060840191608435835260808501935f855260a086019889525f5260026020526112fc8b5f2095511515869060ff801983541691151516179055565b5160018501555160028401555160038301555160048201550191511661ffff1982541617905561132b85617da6565b5082519182526020820152a2005b61135b915060203d602011611361575b6113538183615c30565b810190615ef5565b8c611240565b503d611349565b3461054e57602036600319011261054e576001600160a01b03611389615b03565b1661139f815f52600960205260405f2054151590565b806113b2575b6020906040519015158152f35b505f52600a60205260ff600160405f20015460201c1660038110156113da57602090156113a5565b634e487b7160e01b5f52602160045260245ffd5b3461054e57602036600319011261054e5760206114366001600160a01b03611414615b03565b16805f52600a835260405f2054905f5260178352600260405f20015490615f59565b604051908152f35b3461054e57604036600319011261054e57611457615b03565b602435906114636160ec565b8115610952576001600160a01b031690816116b95760405161148481615bc4565b5f81525f60208201525b61149781616b13565b335f52600f60205260405f20815f5260205260405f20908154906114bf600184015483615d72565b905f90335f52601060205260405f20905f5260205260405f205f908054915b82811061166d575050508083111561166657856114fb8285615d72565b1061164f575084811061163857508361151391615d72565b9055335f52601160205260405f206001600160401b035f5416906040519261153a84615bdf565b83526020830190848252604084019283528054600160401b811015610819576115689160018201815561742b565b939093610806576001600160401b03926002926115bb859351611595815161158f81615b7e565b896160b1565b602001518754610100600160a81b03191660089190911b610100600160a81b0316178755565b5160018601555116920191166001600160401b03198254161790557f91eff7d39d2499d76ac21a1903a95a88f31589cb07b1ffdfb61db9f7cd8a39786116336116125f546001600160401b038160c01c911661603d565b604080519485526001600160401b0390911660208501523393918291820190565b0390a3005b849063adb9e04360e01b5f5260045260245260445ffd5b8590638ec3321160e01b5f5260045260245260445ffd5b855f6114fb565b6116778183617fd7565b506001600160401b0360014392015460081c1611611698575b6001016114de565b926116b16001916116a98685617fd7565b505490615f59565b939050611690565b6040516116c581615bc4565b6001815282602082015261148e565b3461054e575f36600319011261054e5760206040516127108152f35b3461054e57604036600319011261054e57611709615b03565b602435906117156160ec565b61171d616005565b611732335f52600960205260405f2054151590565b6118b4576001600160a01b031680156118a15761176360405161175481615bc4565b60018152826020820152616b13565b5f52600260205260405f2060ff8154161561188e57600183910154918282106118775761179492503090339061863a565b61179d33617d40565b506040516117aa81615ba9565b818152602081015f8152604082015f815263ffffffff80600160608601955f8752335f52600a60205260405f2090518155019351161663ffffffff198354161782555160038110156113da576118389261180c6001600160401b0392846167cf565b5182546cffffffffffffffff00000000001916911660281b6cffffffffffffffff000000000016179055565b6040519081527fbc11617e575d658c74e921c8df22f8e48566072fa78145a6cfe18420bf8d0c4e60203392a260015f80516020618e3183398151915255005b50506322df051360e11b5f5260045260245260445ffd5b5063f6f24b8360e01b5f5260045260245ffd5b63f6f24b8360e01b5f525f60045260245ffd5b63866b0dcf60e01b5f523360045260245ffd5b3461054e575f36600319011261054e57601e546040516001600160a01b039091168152602090f35b3461054e57602036600319011261054e576001600160a01b03611910615b03565b165f52600c60205260405f20604051806020835491828152019081935f5260205f20905f5b81811061198d575050508161194b910382615c30565b604051918291602083019060208452518091526040830191905f5b818110611974575050500390f35b8251845285945060209384019390920191600101611966565b8254845260209093019260019283019201611935565b3461054e575f36600319011261054e5760205f5460c01c604051908152f35b5f36600319011261054e576119d56160ec565b6119dd616005565b335f52600a60205260405f2060ff600182015460201c1660038110156113da57611a5357341561095257611a12348254615f59565b90556040513481527f614a3fa8467eb54cb60af3aab440279837c9fcd75c5a2617fe0af9c6e5e60e8360203392a260015f80516020618e3183398151915255005b6371ab6ad560e11b5f523360045260245ffd5b3461054e575f36600319011261054e57611a93604051611a8581615bc4565b5f81525f6020820152616b13565b5f5260026020526020600160405f200154604051908152f35b3461054e57602036600319011261054e576001600160a01b03611acd615b03565b165f52600a602052602060405f2054604051908152f35b3461054e57604036600319011261054e57611afd615b03565b611b05615b19565b90611b0e616687565b6001600160a01b0316908115611bc8576001600160a01b031690611b33821515615eb7565b60405163551c457b60e11b815260048101829052602081602481865afa8015610ca357611b66915f91611ba95750615f0d565b5f81815260066020526040812080546001600160a01b031916841790557fc47df14ad9309b59073546f93dbe3115ed09c8b206d940f8441ddb07f745b10b9080a3005b611bc2915060203d602011611361576113538183615c30565b84611240565b60405162461bcd60e51b815260206004820152601d60248201527f43616e6e6f7420736574206164617074657220666f72206e61746976650000006044820152606490fd5b3461054e57604036600319011261054e57610018600435611c2c615b19565b90611c3e611c3982615d1b565b61673f565b616e80565b3461054e575f36600319011261054e5760206040516209e3408152f35b3461054e575f36600319011261054e57611c78616005565b335f52600a60205260405f2060018101805460ff8160201c1660038110156113da57600203611d76576001600160401b03805f54169160281c166001600160401b0360015416906001600160401b03611cd1838361603d565b168310611d4c57611d145f8080808989828254925564010000000064ff0000000019825416179055611d02336183a1565b50335af1611d0e616f1c565b5061732c565b337f120599f8830115ed973189f8f4947cc793fcd90a15d47c4d6ad8d1a3f15af7345f80a260015f80516020618e3183398151915255005b6001600160401b039291611d5f9161603d565b90631b04d91d60e21b5f526004521660245260445ffd5b639923c53960e01b5f523360045260245ffd5b5f36600319011261054e57611d9c6160ec565b611da4616005565b61053b616f4b565b3461054e57608036600319011261054e57611dc5615b03565b6064359061ffff8216820361054e575f80516020618e51833981519152549160ff8360401c1615926001600160401b0381168015908161204a575b6001149081612040575b159081612037575b506120285767ffffffffffffffff1981166001175f80516020618e5183398151915255600792611ebf9185611ffc575b50611e4b61860f565b611e5361860f565b611e5b61860f565b611e6361860f565b60ff195f80516020618e1183398151915254165f80516020618e1183398151915255611e8d61860f565b611e9561860f565b60015f80516020618e3183398151915255611eaf81616879565b50611eb981616910565b506169c9565b50611ecf604051611a8581615bc4565b61ffff6005604051611ee081615bfa565b6001815260208101602435815260408201604435815260608301905f825260808401925f845260a085019761271089525f526002602052611f3460405f2095511515869060ff801983541691151516179055565b5160018501555160028401555160038301555160048201550191511661ffff19825416179055600160ff19600554161760055561ffff60401b60015491780700000000000000070000000000001c2000000000000000015f5560401b169069ffffffffffffffffffff19161717600155611faa57005b60ff60401b195f80516020618e5183398151915254165f80516020618e51833981519152557fc7f505b2f371ae2175ee4913f4499e1f2633a7b5936321eed1cdaeb6115181d2602060405160018152a1005b68ffffffffffffffffff191668010000000000000001175f80516020618e518339815191525585611e42565b63f92ee8a960e01b5f5260045ffd5b90501585611e12565b303b159150611e0a565b859150611e00565b3461054e57606036600319011261054e5761206b615b03565b604435600581101561054e5761207f6160ec565b612087616005565b6001600160a01b03821680156118a1576120a761053b9360243590618556565b90604051906120b582615bc4565b60018252602082015261811a565b3461054e57602036600319011261054e576001600160a01b036120e4615b03565b16805f52600a60205260405f2060ff600182015460201c1660038110156113da57612161576001905491805f526017602052600260405f200154906040519361212c85615bc4565b8452602084019182526001600160401b035f54165f52600e60205260405f20905f5260205260405f2092518355519101555f80f35b60405162461bcd60e51b815260206004820152600a6024820152694e6f742061637469766560b01b6044820152606490fd5b3461054e57602036600319011261054e576121ac615b2f565b335f52600a60205260ff600160405f20015460201c1660038110156113da57611a5357335f52600c6020526121ef6001600160401b0360405f2092168092617df6565b50337fb6d5e45d77b8967cff525b375be6e07f99ca5af91d88724ac1237aafe295d50e5f80a3005b3461054e57604036600319011261054e57612230615b03565b612238615b19565b612240615e81565b50612249615e81565b506001600160a01b0316806122c5575060405161226581615bc4565b5f81525f6020820152905b6001600160a01b03165f908152600f602052604090209061229090616b13565b5f526020526122c16122a460405f20615e99565b604051918291829190916020806040830194805184520151910152565b0390f35b604051906122d282615bc4565b60018252602082015290612270565b3461054e57604036600319011261054e576122fa615b2f565b6001600160401b0361230a615b19565b91612313615e81565b50165f52600e60205260405f209060018060a01b03165f526020526122c16122a460405f20615e99565b3461054e575f36600319011261054e5760206001600160401b035f5460801c16604051908152f35b3461054e575f36600319011261054e57602060ff600754166040519015158152f35b3461054e575f36600319011261054e5761239f616005565b6123a761736a565b5060015f80516020618e3183398151915255005b3461054e575f36600319011261054e5760408051906123da8183615c30565b600582526020820191640352e302e360dc1b83528151928391602083525180918160208501528484015e5f828201840152601f01601f19168101030190f35b3461054e575f36600319011261054e576020604051670de0b6b3a76400008152f35b3461054e57602036600319011261054e57610018612457615b03565b61245f616618565b616def565b3461054e575f36600319011261054e5760206040516132c88152f35b3461054e575f36600319011261054e5760206040517fb1fadd3142ab2ad7f1337ea4d97112bcc8337fc11ce5b20cb04ad038adf998198152f35b3461054e57604036600319011261054e576124d3615b03565b6124db615b45565b905f60806040516124eb81615c15565b828152826020820152826040820152826060820152015260018060a01b03165f5260506020526001600160401b0360405f2091165f5260205260a060405f2060405161253681615c15565b6001600160401b038254169182825260018101546020830190815260028201549060408401918252608060046003850154946060870195865201549401938452604051948552516020850152516040840152516060830152516080820152f35b3461054e57606036600319011261054e576125af615b03565b6125b7615b45565b50604435906127106125d261ffff60015460401c1684615d7f565b049161260a6125e18483615d72565b9260018060a01b03811694855f52601960205261260360405f20918254615f59565b9055617fa1565b825f52601760205260405f20906001820191825415155f1461267957670de0b6b3a7640000840293808504670de0b6b3a764000014901517156109165761266d6126665f80516020618d91833981519152956020955490615d92565b8254615f59565b90555b604051908152a2005b50602091505f80516020618d9183398151915292845f52601983526126a360405f20918254615f59565b9055612670565b3461054e57602036600319011261054e576001600160a01b036126cb615b03565b16805f52600d60205260405f2054906126e382615f66565b916126f16040519384615c30565b8083526126fd81615f66565b602084019290601f19013684375f5b828110612760578385604051918291602083019060208452518091526040830191905f5b81811061273e575050500390f35b82516001600160a01b0316845285945060209384019390920191600101612730565b600190825f52600d6020526127788160405f20617d2b565b838060a01b0391549060031b1c16612790828861609d565b520161270c565b3461054e575f36600319011261054e5760206040515f8152f35b3461054e575f36600319011261054e57602060405162034bc08152f35b3461054e57604036600319011261054e5761053b6127ea615b03565b6127f26160ec565b6127fa616005565b602435906172f2565b3461054e57602036600319011261054e576001600160a01b03612824615b03565b165f52605160205260206001600160401b0360405f205416604051908152f35b3461054e57606036600319011261054e5761285d615b03565b612865615b45565b906044356001600160a01b038116810361054e5760209261143692615db0565b3461054e57604036600319011261054e5761289e615b19565b6004355f525f80516020618df183398151915260205260405f209060018060a01b03165f52602052602060ff60405f2054166040519015158152f35b3461054e5760a036600319011261054e5760206114366128f8615b03565b612900615b45565b90612909615b5b565b6129116166f6565b6084359260643592617000565b3461054e57602036600319011261054e576001600160a01b0361293f615b03565b165f5260176020526020600260405f200154604051908152f35b3461054e57602036600319011261054e576001600160a01b0361297a615b03565b165f526006602052602060018060a01b0360405f205416604051908152f35b3461054e575f36600319011261054e5760206001600160401b035f5416604051908152f35b3461054e575f36600319011261054e57335f52600a602052600160405f200160ff815460201c1660038110156113da57611a5357612a3f9064020000000064ff00000000198254161781556001600160401b035f54166cffffffffffffffff000000000082549160281b16906cffffffffffffffff00000000001916179055565b612a5f6001600160401b035f54166001600160401b03600154169061603d565b6001600160401b03604051911681527ffd47ed8e653fba5e6e9fcaa947419ca2334b3972ce196132ec69708574d6d35a60203392a2005b3461054e57604036600319011261054e57600435612ab2615b45565b612aba6160ec565b335f52601260205260405f2054821015612cfb57335f526012602052612ae38260405f20615fd8565b5090600160ff600384015416612af881615b7e565b03612cec57335f52601360205260405f20835f5260205260405f208054926001841115612cdd576001600160401b03909216925f1992905f5b818110612caa575b50505f198314612c9757335f908152601d6020908152604080832084546001600160a01b0316845282528083208784529091528120805491905582545f198101949190851161091657612bb36001600160401b03612ba4612b9d88612bd195615d92565b9787616791565b90549060031b1c169285616791565b81939154906001600160401b03809160031b9316831b921b19161790565b905581548015610e2d575f1901612be88184616791565b6001600160401b0382549160031b1b1916905582555f5b8254811015612c6757335f908152601d6020908152604080832085546001600160a01b031684529091529020600191906001600160401b0380612c428488616791565b90549060031b1c16165f5260205260405f20612c5f868254615f59565b905501612bff565b85856040519081527fc38cef0d003bc8a9982db0d994b2ea048946028e9255cc061a56abcbb7d548a160203392a3005b83633062236b60e11b5f5260045260245ffd5b856001600160401b03612cbd8387616791565b90549060031b1c1614612cd257600101612b31565b935086905080612b39565b63301ac92560e21b5f5260045ffd5b63138dfed560e11b5f5260045ffd5b50630b21815d60e11b5f5260045260245ffd5b3461054e575f36600319011261054e57612d26616618565b612d2e6160ec565b600160ff195f80516020618e118339815191525416175f80516020618e11833981519152557f62e78cea01bee320cd4e420270b5ea74000d11b0c9f74754ebdbfc544b05a2586020604051338152a1005b3461054e575f36600319011261054e576020604051620697808152f35b3461054e57602036600319011261054e576004356001600160a01b038116810361054e576123a790612dcc616005565b616f6c565b3461054e575f36600319011261054e576020600854604051908152f35b3461054e57604036600319011261054e576001600160a01b03612e0f615b03565b165f52601360205260405f206024355f5260205260405f2060405190818260208354928381520180935f5260205f20925f905b806003830110612f2857612e7b945491818110612f0e575b818110612ef1575b818110612ed4575b10612ec6575b509392930382615c30565b604051918291602083019060208452518091526040830191905f5b818110612ea4575050500390f35b82516001600160401b0316845285945060209384019390920191600101612e96565b60c01c815260200185612e70565b9260206001916001600160401b038560801c168152019301612e6a565b9260206001916001600160401b038560401c168152019301612e62565b9260206001916001600160401b0385168152019301612e5a565b916004919350608060019186546001600160401b03811682526001600160401b038160401c1660208301526001600160401b0381841c16604083015260c01c6060820152019401920185929391612e42565b3461054e57602036600319011261054e5760043580151580910361054e5760207fe2c375ae70efa82f7f1d8e9555f83f2df5c692d66834ebabba9d897fca46f3df91612fc4616687565b60ff196007541660ff821617600755604051908152a1005b3461054e575f36600319011261054e57602060ff600554166040519015158152f35b3461054e575f36600319011261054e5760206040517fa49807205ce4d355092ef5a8a18f56e8913cf4a201fbe287825b095693c217758152f35b3461054e57602036600319011261054e57613051615b03565b613059616687565b6001600160a01b0316806130ba57613076604051611a8581615bc4565b60ff19600554166005555b5f52600260205260405f2060ff1981541690557ffc9274ad64ab0a7d8dedd8c9297fb4e25d7a17eb057457c6bcf2a8f13dc8859c5f80a2005b6130c960405161175481615bc4565b6130d2826182f6565b50613081565b3461054e57602036600319011261054e576130f1615b03565b5f60a060405161310081615bfa565b8281526020810183905260408101839052606081018390526080810183905201526001600160a01b0316806131cc575061313f604051611a8581615bc4565b5f52600260205260c060405f2061ffff60405161315b81615bfa565b60ff8354161515928382526001810154602083019081526002820154604084019081526003830154916060850192835260a0866005600487015496608089019788520154169501948552604051968752516020870152516040860152516060850152516080840152511660a0820152f35b60405161313f916131dc82615bc4565b600182526020820152616b13565b3461054e57602036600319011261054e5760206132226001600160a01b03613210615b03565b165f52600960205260405f2054151590565b6040519015158152f35b3461054e57602036600319011261054e57610018613248615b03565b613250616618565b6167f4565b3461054e575f36600319011261054e57602060ff5f80516020618e1183398151915254166040519015158152f35b3461054e57602036600319011261054e5761329c615b03565b6132a4616687565b6001600160a01b039081165f8181526006602052604090205490911615613306575f81815260066020526040812080546001600160a01b03191690557fdf980d21d8c7bb34800e668dbe003299093bac8e693614151d3c57f73f98a93d9080a2005b60405162461bcd60e51b8152602060048201526015602482015274139bc81859185c1d195c881c9959da5cdd195c9959605a1b6044820152606490fd5b3461054e57602036600319011261054e5761335c615b03565b6001600160a01b03165f9081525f80516020618db1833981519152602090815260409182902054915160ff9092161515825290f35b3461054e57602036600319011261054e576001600160a01b036133b2615b03565b165f52601460205260405f208054906133ca82615f66565b916133d86040519384615c30565b8083526020830180925f5260205f205f915b838310613480578486604051918291602083019060208452518091526040830191905f5b81811061341c575050500390f35b91935091602060c060019260808751858060a01b0381511683526134468582015186850190615b88565b604081015160608401526001600160401b0360608201511682840152015161346d81615b7e565b60a082015201940191019184939261340e565b6004602060019260405161349381615c15565b848060a01b0386541681526134a985870161606b565b838201526002860154604082015260ff60038701546001600160401b038116606084015260401c166134da81615b7e565b60808201528152019201920191906133ea565b3461054e575f36600319011261054e576020604051612ee08152f35b3461054e575f36600319011261054e577f00000000000000000000000000000000000000000000000000000000000000006001600160a01b031630036135605760206040515f80516020618d718339815191528152f35b63703e46dd60e11b5f5260045ffd5b3461054e575f36600319011261054e5760206040515f80516020618dd18339815191528152f35b604036600319011261054e576135aa615b03565b602435906001600160401b03821161054e573660238301121561054e578160040135906135d682615c51565b916135e46040519384615c30565b8083526020830193366024838301011161054e57815f926024602093018737840101526001600160a01b037f00000000000000000000000000000000000000000000000000000000000000001630811490811561377d575b5061356057613649616618565b6040516352d1902d60e01b81526001600160a01b0382169390602081600481885afa5f9181613749575b5061368b5784634c9c8ce360e01b5f5260045260245ffd5b805f80516020618d718339815191528692036137375750823b15613725575f80516020618d7183398151915280546001600160a01b031916821790557fbc7cd75a20ee27fd9adebab32041f755214dbc6bffa90cc0225b39da2e5c2d3b5f80a282511561370c575f8091610018945190845af4613706616f1c565b91618cac565b5050503461371657005b63b398979f60e01b5f5260045ffd5b634c9c8ce360e01b5f5260045260245ffd5b632a87526960e21b5f5260045260245ffd5b9091506020813d602011613775575b8161376560209383615c30565b8101031261054e57519086613673565b3d9150613758565b5f80516020618d71833981519152546001600160a01b0316141590508461363c565b3461054e575f36600319011261054e5760206001600160401b0360015416604051908152f35b3461054e57604036600319011261054e576137de615b03565b602435906137ea6160ec565b6137f2616005565b8115610952576040519161380583615bc4565b5f83525f602084015261381783616b13565b6001600160a01b0383165f81815260176020526040902060028101549195919081158015613ac5575b15613a99575050825b5f945f5b335f52601260205260405f2054811015613a8e57335f5260126020526138768160405f20615fd8565b5080546001600160a01b0316891480613a77575b613897575060010161384d565b959650509091925f90335f52601460205260405f205f918154925b838110613a1857505050506138cb906001860154615d72565b90828210613a0d575050335f52601460205260405f2060ff60036001600160401b035f541695015416936040519461390286615c15565b87865260208601948552604086019284845260608701928352608087019161392981615b7e565b82528054600160401b8110156108195761394891600182018155615fd8565b939093610806576001600160401b03600361399e9582936107688d9a5f9c60018060a01b039060018060a01b03905116166001600160601b0360a01b855416178455600184019051610742815161073c81615b7e565b6001600160401b036001946139bc855483808260801c16911661603d565b9060405193845260208401521660408201527f06325d83435da87657b063c6142a5b91a66a7e811827d082d624287a9953c4ba60603392a45b156107f05760015f80516020618e3183398151915255005b859161083891617acc565b8a613a238285615fd8565b50546001600160a01b03161480613a5d575b613a42575b6001016138b2565b93613a55600191600261088a8887615fd8565b949050613a3a565b5081613a716108b660016108af8588615fd8565b14613a35565b5085613a886108b66002840161606b565b1461388a565b5050505050506139f5565b816108f66001613aab93015487615d7f565b5f1981019190821161091657613ac091615d92565b613849565b50600181015415613840565b3461054e575f36600319011261054e57613ae9616005565b6123a733616f6c565b3461054e57602036600319011261054e576001600160a01b03613b13615b03565b165f52600d602052602060405f2054604051908152f35b602036600319011261054e5761053b613b41615b03565b613b496160ec565b613b51616005565b613b59616f4b565b3490616113565b3461054e575f36600319011261054e576020604051613e808152f35b3461054e575f36600319011261054e57613b94616005565b5f805b335f52601260205260405f2054821015613d9d57335f526012602052613bc08260405f20615fd8565b5060ff600382015416613bd281615b7e565b613c6857613c5790600192670de0b6b3a7640000613c2785808060a01b03855416940154845f52601760205260405f2094335f52601860205260405f2090888060a01b03165f5260205260405f209454615d7f565b0482548082115f14613c6057613c3d9082615d72565b925b5f613c4f87830195865490615f59565b945555615f59565b915b0190613b97565b505f92613c3f565b335f9081526013602090815260408083208684529091528120915490916001600160a01b03909116908190835b8154811015613d8757956001876001600160401b03613cb5839a86616791565b90549060031b1c16855f52601a60205260405f206001600160401b0382165f52602052670de0b6b3a7640000613d4360405f20335f52601b60205260405f208a5f5260205260405f206001600160401b0385165f5260205260405f2093335f52601d60205260405f208b5f526020526001600160401b0360405f2091165f5260205260405f20549054615d7f565b049080548083115f14613d7b57613d6f613d5e5f9285615d72565b9a5b6109cd8785019c8d5490615f59565b99555501909650613c95565b505f613d6f819a613d60565b50505050613d9790600192615f59565b91613c59565b80613dbf575b60209060015f80516020618e3183398151915255604051908152f35b5f80808084335af1613dcf616f1c565b5015613e0a576020906040518181527f106f923f993c2149d49b4255ff723acafa1f2d94393f561d3eda32ae348f7241833392a29050613da3565b6312171d8360e31b5f5260045ffd5b3461054e57602036600319011261054e57600435613e356160ec565b335f52600a60205260405f2060ff600182015460201c1660038110156113da57611a5357811561095257613e6e604051611a8581615bc4565b5f526002602052600160405f200154335f52600b602052613e9560405f2054809354615d72565b81613ea08583615d72565b10613f3d5783613eb08185615f59565b6001600160401b03600181805f541660405194613ecc86615bc4565b855260208501908152335f52600b60205260405f20945185555116920191166001600160401b03198254161790557ff7e874d9fd42838b0f06a44c7bbe45417b991e6b000e8ca4c5c1f086084a9cd3613f386116125f546001600160401b03808260801c16911661603d565b0390a2005b83613f4791615d72565b906322df051360e11b5f5260045260245260445ffd5b3461054e575f36600319011261054e57613f75616618565b5f80516020618e118339815191525460ff811615613fcc5760ff19165f80516020618e11833981519152557f5db9ee0a495bf2e6ff9c91a7834c1ba4fdd244a5e8aa4e537bd38aeae4b073aa6020604051338152a1005b638dfc202b60e01b5f5260045ffd5b3461054e57608036600319011261054e57613ff4615b03565b613ffc615b45565b90614005615b5b565b5060643561271061401f61ffff60015460401c1683615d7f565b049261405061402e8584615d72565b9360018060a01b03811695865f52601960205261260360405f20918254615f59565b835f52601760205260405f20906001820191825480614168575b5050845f52601a6020526001600160401b0360405f2091165f5260205260405f20906001600160401b035f54166001600160401b036003840191166001600160401b031982541617905560018201548015928315614118575b505092602092915f80516020618d918339815191529454159081614110575b506140f2575b50604051908152a2005b845f526019835261410860405f20918254615f59565b9055846140e8565b9050866140e2565b9392909491670de0b6b3a7640000830294838604670de0b6b3a764000014841517156109165761415b6126665f80516020618d9183398151915298602098615d92565b90559194819394506140c3565b670de0b6b3a76400008602868104670de0b6b3a76400001487151715610916576141959161266691615d92565b9055858061406a565b3461054e57604036600319011261054e576141b7615b19565b336001600160a01b038216036141d35761001890600435616e80565b63334bd91960e11b5f5260045ffd5b3461054e57608036600319011261054e576020611436614200615b03565b614208615b45565b906142116166f6565b6064359160443591616b5a565b3461054e5760a036600319011261054e57614237615b03565b60243590604435906084359261ffff841680940361054e577f9a4c59c56153245e23dcb8000e301b9a5e35b8e6693c5cdbf3b6a2aa0f8a37ea9260409261427c616687565b6001600160a01b031694614291861515615d39565b61ffff60056142a4865161129481615bc4565b8651906142b082615bfa565b60018252602082018781528883018781526060840191606435835260808501935f855260a086019889525f5260026020526112fc8b5f2095511515869060ff801983541691151516179055565b3461054e575f36600319011261054e57602061ffff60015460401c16604051908152f35b3461054e57602036600319011261054e576001600160a01b03614342615b03565b165f52601260205260405f2080549061435a82615f66565b916143686040519384615c30565b8083526020830180925f5260205f205f915b8383106143fd578486604051918291602083019060208452518091526040830191905f5b8181106143ac575050500390f35b91935091602060a0600192606087518580851b03815116835284810151858401526143df60408201516040850190615b88565b01516143ea81615b7e565b608082015201940191019184939261439e565b6004602060019260405161441081615ba9565b848060a01b038654168152848601548382015261442f6002870161606b565b604082015260ff60038701541661444581615b7e565b606082015281520192019201919061437a565b3461054e57602036600319011261054e576001600160a01b03614479615b03565b165f526019602052602060405f2054604051908152f35b3461054e57604036600319011261054e576100186004356144af615b19565b906144bc611c3982615d1b565b616a82565b3461054e57602036600319011261054e576144da615b03565b6144e2615cf7565b506144eb615cf7565b5060018060a01b03165f52600a60205260405f2060016040519161450e83615ba9565b805483520154906020810163ffffffff8316815260ff8360201c16604083019160038210156113da5763ffffffff9183526001600160401b03606085019560281c16855260405193518452511660208301525160038110156113da576080926001600160401b0391604084015251166060820152f35b5f36600319011261054e576145976160ec565b61459f616005565b6145b4335f52600960205260405f2054151590565b6118b4576145c7604051611a8581615bc4565b5f52600260205260405f2060ff815416156118a1576001015480341061469e576145f033617d40565b506040516145fd81615ba9565b348152602081015f8152604082015f815263ffffffff80600160608601955f8752335f52600a60205260405f2090518155019351161663ffffffff198354161782555160038110156113da5761465f9261180c6001600160401b0392846167cf565b6040513481527fbc11617e575d658c74e921c8df22f8e48566072fa78145a6cfe18420bf8d0c4e60203392a260015f80516020618e3183398151915255005b6322df051360e11b5f526004523460245260445ffd5b3461054e57602036600319011261054e576146cd615b2f565b335f52600c6020526146ed6001600160401b0360405f209216809261844c565b50337f4b9bbf2ebc79e9fb39a64920934b3f458a486552d3df95395aa750ece9e970935f80a3005b3461054e57602036600319011261054e5760206147356004356008617d2b565b905460405160039290921b1c6001600160a01b03168152f35b3461054e57602036600319011261054e576020611436600435615d1b565b3461054e57604036600319011261054e57600435614788615b45565b6147906160ec565b335f52601260205260405f2054821015612cfb57335f5260126020526147b98260405f20615fd8565b5090600160ff6003840154166147ce81615b7e565b03612cec57335f52601360205260405f20835f5260205260405f20905f926001600160401b0383549216935b828110614aaa5750600181015491600181018082116109165761481d9084615d92565b928161491f575b5050335f52601d60205260405f2060018060a01b0382541660018060a01b03165f5260205260405f20845f526020528160405f205560018060a01b039054165f52601a60205260405f20835f526020526148a5600260405f20926001840161488d828254615f59565b8091558181145f146148f95750925b01918254615f59565b90558054600160401b81101561081957612bb381849360016148c994018155616791565b90556040519081527fa7b81e017abeb50ecf2c121cb0db7087dfc4b3cc85cd8d857f9a5f1e81f6484560203392a3005b6149136149199261490d8588015482615d7f565b92615d72565b90615d92565b9261489c565b926149336149389282979695989498615d92565b615d72565b925f5b8354811015614a9d57806001600160401b0361495960019387616791565b90549060031b1c16335f52601d60205260405f2090838060a01b038a541691848060a01b0383165f5260205260405f206001600160401b0382165f5260205260405f2054918289115f14614a92576149b18380615d72565b90335f52601d60205260405f2090868060a01b03165f5260205260405f206001600160401b0383165f5260205260405f2055838060a01b038a54165f52601a6020526001600160401b0360405f2091165f5260205260405f208381019081549083821015614a24575b505050500161493b565b614a3084600293615d72565b809355019182549182151580614a89575b15614a835761491382614a5785614a5d95615d7f565b92615f59565b81811115614a745750505f905b5588808080614a1a565b614a7d91615d72565b90614a6a565b50614a5d565b50801515614a41565b6149b1898094615d72565b5093919250938580614824565b846001600160401b03614abd8387616791565b90549060031b1c1614614ad2576001016147fa565b8462d00d2f60e11b5f5260045260245ffd5b3461054e575f36600319011261054e575f546001600160401b03614b098183166167b2565b1680916001600160401b031916175f557f7cee7087baafdfa8f9d1bd39c560782e2eedf861e2648b232a805033537c56955f80a2005b3461054e575f36600319011261054e576020604051612af88152f35b3461054e57602036600319011261054e57614b74615b03565b5f906001600160a01b0316815b815f52601260205260405f20548310156109db57815f526012602052614baa8360405f20615fd8565b5060ff600382015416614bbc81615b7e565b614c4b576001916109cd614c3892670de0b6b3a7640000614c16868060a01b0383541692835f52601760205260405f2093895f52601860205260405f2090898060a01b03165f526020528760405f20945491015490615d7f565b048154908181115f14614c41578691614c2e91615d72565b915b015490615f59565b925b0191614b81565b5050845f91614c30565b5f8381526013602090815260408083208784529091528120805492549395936001600160a01b03169081905b848410614c8b575050505050600190614c3a565b6001614d3a81996109cd6001600160401b03614cac89879d9a9b9c9d616791565b90549060031b1c16865f52601a60205260405f206001600160401b0382165f52602052670de0b6b3a7640000614c1660405f208b5f52601b60205260405f208b5f5260205260405f206001600160401b0385165f5260205260405f20938c5f52601d60205260405f208c5f526020526001600160401b0360405f2091165f5260205260405f20549054615d7f565b9501939695949750614c77565b3461054e57604036600319011261054e57614d60615b03565b614d68615b19565b6001600160a01b039182169181165f805b845f52601260205260405f20548210156109db57845f526012602052614da28260405f20615fd8565b5080546001600160a01b0316849003614e915760ff600382015416614dc681615b7e565b614de6576001916109cd83614ddd93015487617acc565b915b0190614d79565b5090845f52601360205260405f20815f5260205260405f205f8154915b828210614e1557505050600190614ddf565b9193946001614e828998939597829a5f52601d60205260405f20845f5260205260405f206001600160401b0380614e4c8a8a616791565b90549060031b1c16165f526020526109cd60405f20546001600160401b03614e748a8a616791565b90549060031b1c1687617ce2565b94019196975094929391614e03565b5090600190614ddf565b3461054e57604036600319011261054e57614eb4615b03565b6001600160a01b03614ec4615b19565b1680614ff35750604051614ed781615bc4565b5f81525f6020820152905b6001600160a01b03165f90815260106020526040902090614f0290616b13565b5f5260205260405f20805490614f1782615f66565b91614f256040519384615c30565b8083526020830180925f5260205f205f915b838310614faa578486604051918291602083019060208452518091526040830191905f5b818110614f69575050500390f35b91935091602060606001926001600160401b036040885180518452614f948682015187860190615b71565b0151166040820152019401910191849392614f5b565b60026020600192604051614fbd81615bdf565b855481526001600160401b0385870154614fdc60ff8216868501616785565b60081c166040820152815201920192019190614f37565b6040519061500082615bc4565b60018252602082015290614ee2565b3461054e57604036600319011261054e57615028615b03565b615030615b45565b9060018060a01b03165f5260506020526001600160401b0360405f2091165f5260205260a060405f206001600160401b0381541690600181015490600281015460046003830154920154926040519485526020850152604084015260608301526080820152f35b3461054e57602036600319011261054e576150b0615b03565b6150b8616618565b601e80546001600160a01b0319166001600160a01b0392909216919091179055005b3461054e57606036600319011261054e576001600160401b036150fb615b2f565b615103615b45565b9061510c615b5b565b91615115616618565b5f80546fffffffffffffffffffffffffffffffff1692851660801b9290921790841660c01b1790556001805467ffffffffffffffff191691909216179055005b3461054e57602036600319011261054e5761516e615b03565b615176615cf7565b5061517f615cf7565b5060018060a01b03165f526017602052608060405f206001600160401b036040516151a981615ba9565b825492838252600181015460208301908152606084600360028501549460408701958652015416930192835260405194855251602085015251604084015251166060820152f35b3461054e57604036600319011261054e5761053b61520c615b03565b6152146160ec565b61521c616005565b60243590616113565b3461054e57602036600319011261054e5760043563ffffffff60e01b811680910361054e57602090637965db0b60e01b811490811561526a575b506040519015158152f35b6301ffc9a760e01b1490508261525f565b3461054e575f36600319011261054e57615293616005565b5f335f52601460205260405f20905f5b825481101561053b576152b68184615fd8565b50915f546001600160401b03806152d981600388015416828560801c169061603d565b16911610615af3576152f06108b66001850161606b565b9160018060a01b0384541661530b6002860191825490617acc565b945f5b335f5260126020528660405f2054821015615ae45750335f5260126020526153398160405f20615fd8565b50805483546001600160a01b0390811691161480615acd575b61535f575060010161530e565b94600386989298019760ff8954169661537788615b7e565b600188148015615aac57335f52601360205260405f20835f5260205260405f206040519081602082549182815201915f5260205f20905f915b816003840110615a5a57926153ef928594926153f596935491818110615a40575b818110615a23575b818110615a06575b106159f8575b500382615c30565b99615b7e565b806159ee575b615910575b60018060a01b038554169860ff87549b5416612710906154226001890161606b565b9a5f9161542e81615b7e565b6158e957505061543d8b617fa1565b8a5f52601760205260405f209b335f52601860205260405f2060018060a01b038d165f5260205260405f209a5f9b5f5b335f52601260205260405f20548110156154e8578e335f5260126020526154978260405f20615fd8565b509060018060a01b0382541614806154d0575b6154b8575b5060010161546d565b6001919e826154c992015490615f59565b9d906154af565b5060ff6003820154166154e281615b7e565b156154aa565b509c889e9d670de0b6b3a76400008a9b9d9f61555d989a9d9f90615553919c9697989a9c806158aa575b5f9860018301615523828254615d72565b90556002830180548a8181111561589b5750505f905b55808211156158925761554b91615d72565b905b54615d7f565b0490555b3361889e565b61556e600188549301928354615d72565b8255335f52600f60205260405f20905f52602052600160405f200161559d81548086115f1461588b5780615d72565b90555415615714575b506155b091615f59565b9360018060a01b03825416916001808060a01b0391015460081c1692549060405191825260208201527fe4183514c7483039538cd1f9ca20e489b3c411f3af1211cf6b5ad0a00ca4e22860403392a482545f198101908111610916576156169084615fd8565b506156218285615fd8565b91909161080657808203615667575b505082548015610e2d575f19016156478185615fd8565b610806576003815f809355826001820155826002820155015583556152a3565b805482546001600160a01b0319166001600160a01b03919091161782556156d69160ff90600390819060018581019082018683036156dd575b5050600285015460028201550192016001600160401b0380825416166001600160401b03198454161783555460401c16906160c9565b8380615630565b816156ee8761570d945416836160b1565b548154610100600160a81b031916610100600160a81b03909116179055565b89806156a0565b905060018060a01b038354165f52600a602052600160405f200163ffffffff815416801561091657815463ffffffff19165f1991820163ffffffff1617909155335f90815260126020526040902080549182019182116109165761578e9161577b91615fd8565b5091335f52601260205260405f20615fd8565b6108065781810361581d575b5050335f52601260205260405f209081548015610e2d575f1901906157bf8284615fd8565b929092610806576155b0935f600385828c975582600182015582600282015501555560018060a01b038454166157f5813361726f565b15615802575b50916155a6565b5f52600d6020526158163360405f2061844c565b50886157fb565b815481546001600160a01b0319166001600160a01b03919091161781556001808301549082015561586c9160039060ff9082906002808201908601828703615873575b505001541691016160b1565b868061579a565b816156ee86615884945416836160b1565b8c80615860565b8590615d72565b50505f9061554d565b6158a491615d72565b90615539565b836158b6828454615d7f565b0485548082115f146158e1576158cb91615d72565b6158da60018701918254615f59565b9055615512565b50505f6158cb565b9a8c61590b899f9d8a9b9d9f61555d989a9d9f9b809697989a9c5f923361867e565b615557565b9893979491615926839794929754895190615d92565b965f5b89518110156159df57600190335f52601d60205260405f20828060a01b038d541690838060a01b0382165f526020528b6001600160401b03806159708560405f209461609d565b5116165f5260205260405f20548b8181115f146159d05750505f905b335f52601d60205260405f2090848060a01b03165f526020528b6001600160401b03806159bd8560405f209461609d565b5116165f5260205260405f205501615929565b6159d991615d72565b9061598c565b50919396509194979398615400565b50875115156153fb565b60c01c81526020015f6153e7565b9260206001916001600160401b038560801c1681520193016153e1565b9260206001916001600160401b038560401c1681520193016153d9565b9260206001916001600160401b03851681520193016153d1565b929d9e9d6001608060049286546001600160401b03811682526001600160401b038160401c1660208301526001600160401b0381841c16604083015260c01c60608201520194019201919e9d9e6153b0565b6153f5602060405190615abf8183615c30565b5f8252505f36813799615b7e565b5086615ade6108b66002840161606b565b14615352565b91939550506155b09193615f59565b9150615afe9061605d565b6152a3565b600435906001600160a01b038216820361054e57565b602435906001600160a01b038216820361054e57565b600435906001600160401b038216820361054e57565b602435906001600160401b038216820361054e57565b604435906001600160401b038216820361054e57565b9060058210156113da5752565b600211156113da57565b6020908051615b9681615b7e565b83528101516001600160a01b0316910152565b608081019081106001600160401b0382111761081957604052565b604081019081106001600160401b0382111761081957604052565b606081019081106001600160401b0382111761081957604052565b60c081019081106001600160401b0382111761081957604052565b60a081019081106001600160401b0382111761081957604052565b90601f801991011681019081106001600160401b0382111761081957604052565b6001600160401b03811161081957601f01601f191660200190565b9060a060031983011261054e576004356001600160a01b038116810361054e57916024356001600160a01b038116810361054e579160443591606435600281101561054e57916084356001600160401b03811161054e578260238201121561054e578060040135926001600160401b03841161054e5760248460051b8301011161054e576024019190565b60405190615d0482615ba9565b5f6060838281528260208201528260408201520152565b5f525f80516020618df1833981519152602052600160405f20015490565b15615d4057565b60405162461bcd60e51b815260206004820152600a602482015269557365206e617469766560b01b6044820152606490fd5b9190820391821161091657565b8181029291811591840414171561091657565b8115615d9c570490565b634e487b7160e01b5f52601260045260245ffd5b929190925f9360018060a01b0382165f5260506020526001600160401b0360405f2091165f5260205260405f209060405192615deb84615c15565b6001600160401b0383541680855260018401546020860152600284015494604081019586526080600460038701549660608401978852015491015215615e785790615e359161726f565b918215615e705751905190818111615e4c57505050565b670de0b6b3a7640000939450615e6c9291615e6691615d72565b90615d7f565b0490565b505f93505050565b505f9450505050565b60405190615e8e82615bc4565b5f6020838281520152565b90604051615ea681615bc4565b602060018294805484520154910152565b15615ebe57565b60405162461bcd60e51b815260206004820152600f60248201526e24b73b30b634b21030b230b83a32b960891b6044820152606490fd5b9081602091031261054e5751801515810361054e5790565b15615f1457565b60405162461bcd60e51b815260206004820152601d60248201527f4164617074657220646f65736e277420737570706f727420746f6b656e0000006044820152606490fd5b9190820180921161091657565b6001600160401b0381116108195760051b60200190565b9291615f8882615f66565b93615f966040519586615c30565b602085848152019260051b810191821161054e57915b818310615fb857505050565b82356001600160401b038116810361054e57815260209283019201615fac565b8054821015615ff1575f5260205f209060021b01905f90565b634e487b7160e01b5f52603260045260245ffd5b60025f80516020618e31833981519152541461602e5760025f80516020618e3183398151915255565b633ee5aeb560e01b5f5260045ffd5b906001600160401b03809116911601906001600160401b03821161091657565b5f1981146109165760010190565b9060405161607881615bc4565b602081935460ff811661608a81615b7e565b835260081c6001600160a01b0316910152565b8051821015615ff15760209160051b010190565b906160bb81615b7e565b60ff80198354169116179055565b906160d381615b7e565b60ff60401b82549160401b169060ff60401b1916179055565b60ff5f80516020618e11833981519152541661610457565b63d93c066560e01b5f5260045ffd5b6040519161612083615bc4565b5f83525f60208401526020916040516161398482615c30565b5f81525f3681378215610952576001600160a01b0382165f90815260096020526040902054156165f75760018060a01b0382165f52600a8452600160405f20019460ff8654861c1660038110156113da576165d95761619781616b13565b335f52600f865260405f20815f52865260405f20928354936161be60018201548096615d72565b8781106165c257506161d087876189dd565b94851561095257876161e191615f59565b60018201555f985f5b335f5260128a5260405f20548110156165b357335f5260128a526162118160405f20615fd8565b5080546001600160a01b038a81169116148061659c575b61623557506001016161ea565b905060019192939495969798999a5001616250878254615f59565b905560015b61643257335f526012895260405f2054335f5260128a5260405f2060405161627c81615ba9565b6001600160a01b038a1681528b8101898152604082018981529260608301905f82528054600160401b811015610819576162bb91600182018155615fd8565b93909361080657616348948f6003946163379360018060a01b039060018060a01b03905116166001600160601b0360a01b88541617875551600187015560028601915190616313825161630d81615b7e565b846160b1565b01518154610100600160a81b03191660089190911b610100600160a81b0316179055565b519161634283615b7e565b016160b1565b335f908152601c8b5260408082206001600160a01b038b1683528c52808220928252918b5220805460ff19166001179055805463ffffffff908116949085146109165760016163d1938a9363ffffffff836163dd99011663ffffffff19825416179055818060a01b038a165f52600d8c526163c63360405f20617df6565b505b01549033618a38565b905f8786868933617b53565b60200151604051938452938301526001600160a01b0392909216915f60408301526001600160a01b03169033907f4fe2fde631e986ee26283901b9cc8d6d4a311b750f9fa0d659520deba2995f1f90606090a4565b509695949392915f5b335f526012885260405f205481101561658657335f52601288526164628160405f20615fd8565b5080546001600160a01b038881169116148061656f575b616486575060010161643b565b60ff60036001929b9495969798999a9b0154166164a281615b7e565b146164ba575b50866163dd939260016163d1936163c8565b979491969295939097335f526013865260405f20905f52855260405f209586548015155f14616567576164ed9084615d92565b975b5f5b885481101561655357335f908152601d895260408082206001600160a01b038a1683528a529020600191906001600160401b038061652f848e616791565b90549060031b1c16165f52895260405f2061654b8c8254615f59565b9055016164f1565b5095989397509395509093909291866164a8565b505f976164ef565b50826165806108b66002840161606b565b14616479565b50856163d19160016163dd95969798999a6163c8565b50856165ad6108b66002840161606b565b14616228565b50909192939495969798616255565b87906312e1fa3760e11b5f5260045260245260445ffd5b6371ab6ad560e11b5f9081526001600160a01b038416600452602490fd5b5063bd62013360e01b5f9081526001600160a01b0391909116600452602490fd5b335f9081527fb16e88c42fd4e48df2dd6a2eabd6bc9aec654ec170056b470819f8892cc6431c602052604090205460ff161561665057565b63e2517d3f60e01b5f52336004527fa49807205ce4d355092ef5a8a18f56e8913cf4a201fbe287825b095693c2177560245260445ffd5b335f9081527f5bc841a6d925a620866922bada36d16da3dcc9d52290519ea1126e5ca2372139602052604090205460ff16156166bf57565b63e2517d3f60e01b5f52336004527fb1fadd3142ab2ad7f1337ea4d97112bcc8337fc11ce5b20cb04ad038adf9981960245260445ffd5b335f9081525f80516020618db1833981519152602052604090205460ff161561671b57565b63e2517d3f60e01b5f52336004525f80516020618dd183398151915260245260445ffd5b5f8181525f80516020618df18339815191526020908152604080832033845290915290205460ff161561676f5750565b63e2517d3f60e01b5f523360045260245260445ffd5b60058210156113da5752565b9190918054831015615ff1575f52601860205f208360021c019260031b1690565b6001600160401b03166001600160401b0381146109165760010190565b9060038110156113da5764ff0000000082549160201b169064ff000000001916179055565b6001600160a01b0381165f9081525f80516020618db1833981519152602052604090205460ff16616874576001600160a01b03165f8181525f80516020618db183398151915260205260408120805460ff191660011790553391905f80516020618dd1833981519152905f80516020618d518339815191529080a4600190565b505f90565b6001600160a01b0381165f9081527fb7db2dd08fcb62d0c9e08c51941cae53c267786a0b75803fb7960902fc8ef97d602052604090205460ff16616874576001600160a01b03165f8181527fb7db2dd08fcb62d0c9e08c51941cae53c267786a0b75803fb7960902fc8ef97d60205260408120805460ff191660011790553391905f80516020618d518339815191528180a4600190565b6001600160a01b0381165f9081527fb16e88c42fd4e48df2dd6a2eabd6bc9aec654ec170056b470819f8892cc6431c602052604090205460ff16616874576001600160a01b03165f8181527fb16e88c42fd4e48df2dd6a2eabd6bc9aec654ec170056b470819f8892cc6431c60205260408120805460ff191660011790553391907fa49807205ce4d355092ef5a8a18f56e8913cf4a201fbe287825b095693c21775905f80516020618d518339815191529080a4600190565b6001600160a01b0381165f9081527f5bc841a6d925a620866922bada36d16da3dcc9d52290519ea1126e5ca2372139602052604090205460ff16616874576001600160a01b03165f8181527f5bc841a6d925a620866922bada36d16da3dcc9d52290519ea1126e5ca237213960205260408120805460ff191660011790553391907fb1fadd3142ab2ad7f1337ea4d97112bcc8337fc11ce5b20cb04ad038adf99819905f80516020618d518339815191529080a4600190565b5f8181525f80516020618df1833981519152602090815260408083206001600160a01b038616845290915290205460ff16616b0d575f8181525f80516020618df1833981519152602090815260408083206001600160a01b0395909516808452949091528120805460ff19166001179055339291905f80516020618d518339815191529080a4600190565b50505f90565b805190616b1f82615b7e565b602060018060a01b0391015116604051906020820192616b3e81615b7e565b8352604082015260408152616b54606082615c30565b51902090565b6001600160a01b0381165f818152600a60209081526040808320600990925290912054929695949193909215616ddc57616b9387617e43565b616dc957835f52601760205260405f20918092616bb66002865492015482615f59565b918215616dbc57908287939211616db2575b90616bd6616bdb9286615d7f565b615d92565b93616c02616bfc616beb8b617ec6565b96616bf6818d617f25565b96615d72565b8a617f5e565b92616c16616c108587615f59565b9a617ec6565b948592616c28604051611a8581615bc4565b5f526002602052600160405f200154815410616d96575b50835f52605160205260405f209889546001600160401b031699616c628b6167b2565b6001600160401b03166001600160401b03198254161790555f546001600160401b03169060405191616c9383615c15565b8252602082018d8152604083018a8152606084019187835260808501938452885f5260506020528d60405f20906001600160401b03165f5260205260405f2094516001600160401b03166001600160401b03166001600160401b0319865416178555516001850155516002840155516003830155519060040155604051926001600160401b0384931695616d3892846040919493926060820195825260208201520152565b037f91754b254153861c1e9bc9186484a0bb770823acfa00423044ba1759a01210e791a36040805187815260208101939093528201527f1508fbe22c9805770740c8f3827567950022729e0096e311dc087990c157fffc90606090a3565b600101805464ff0000000019166401000000001790555f616c3f565b9093508390616bc8565b505f985050505050505050565b8363b516260d60e01b5f5260045260245ffd5b8363bd62013360e01b5f5260045260245ffd5b6001600160a01b0381165f9081525f80516020618db1833981519152602052604090205460ff1615616874576001600160a01b03165f8181525f80516020618db183398151915260205260408120805460ff191690553391905f80516020618dd1833981519152907ff6391f5c32d9c69d2a47ea670b442974b53935d1edc7fd64eb21e047a839171b9080a4600190565b5f8181525f80516020618df1833981519152602090815260408083206001600160a01b038616845290915290205460ff1615616b0d575f8181525f80516020618df1833981519152602090815260408083206001600160a01b0395909516808452949091528120805460ff19169055339291907ff6391f5c32d9c69d2a47ea670b442974b53935d1edc7fd64eb21e047a839171b9080a4600190565b3d15616f46573d90616f2d82615c51565b91616f3b6040519384615c30565b82523d5f602084013e565b606090565b616f6a604051616f5a81615bc4565b5f81525f60208201523490617ff0565b565b6001600160a01b0316908115616ff157335f52601960205260405f2054918215616fe2575f808085819433835260196020528260408120555af1616fae616f1c565b5015613e0a576040518281527f106f923f993c2149d49b4255ff723acafa1f2d94393f561d3eda32ae348f724160203392a2565b6373380d9960e01b5f5260045ffd5b63d92e233d60e01b5f5260045ffd5b94939260018060a01b03861692835f52600a60205260405f209161702f855f52600960205260405f2054151590565b1561725c57845f52601760205260405f2090855f52601a60205260405f206001600160401b0386165f5260205260405f209161707960028087549301549401546108f68584615f59565b90811561724e5787936170de6170d76170c7868f9b9a97966170e59681616bd69c9911617244575b816170b661493393616bd66170bf9487615d7f565b9c8d9885615d7f565b9a8b92615d72565b926170d18b617ec6565b9a617f25565b968d617f5e565b968c6184fd565b946170fd6170f7876108f68489615f59565b9b617ec6565b95869361710f604051611a8581615bc4565b5f526002602052600160405f200154815410617228575b50845f5260516020528b60405f209a8b546001600160401b03169b61714a8d6167b2565b6001600160401b03166001600160401b03198254161790558b5f546001600160401b0316926040519361717c85615c15565b84526020840190815260408401908c82526060850192898452608086019485528a5f52605060205260405f20906001600160401b03165f5260205260405f2094516001600160401b03166001600160401b03166001600160401b03198654161785555160018501555160028401555160038301555190600401556171ff91615f59565b6040805195865260208601919091528401919091526001600160401b0316918060608101616d38565b600101805464ff0000000019166401000000001790555f617126565b90915081906170a1565b505f99505050505050505050565b8463bd62013360e01b5f5260045260245ffd5b90915f925f5b6001600160a01b0384165f818152601260205260409020548210156172eb57805f5260126020526172a98260405f20615fd8565b50546001600160a01b038481169116146172c7575b50600101617275565b600191956172e4915f5260126020528261088a8860405f20615fd8565b94906172be565b5050509050565b6001600160a01b0381169081156118a157616f6a9261731091618556565b906040519061731e82615bc4565b600182526020820152617ff0565b1561733357565b60405162461bcd60e51b815260206004820152600f60248201526e151c985b9cd9995c8819985a5b1959608a1b6044820152606490fd5b335f52600b60205260405f20908154918215617425575f546001600160401b03806001818416940154169160801c16906001600160401b036173ac838361603d565b168310611d4c5750505081335f52600a60205260405f206173ce828254615d72565b9055335f52600b6020525f60016040822082815501556173f75f80808085335af1611d0e616f1c565b6040519081527fda2b51341079f3dd8e6763a50f329bbc3dc6ca6a51b920fe99fbf89a54ec0e2760203392a2565b505f9150565b8054821015615ff1575f52600360205f20910201905f90565b939291906001600160a01b031680617ab0575060405161746381615bc4565b5f81525f6020820152915b8115610952576001600160a01b0385165f8181526009602052604090205490939015616ddc57835f52600a602052600160405f20019560ff875460201c1660038110156113da57617a9d576174c282616b13565b90335f52600f60205260405f20825f5260205260405f2096600188549801926174ed8454809a615d72565b8781106165c257506174ff87846189dd565b988915610952578761751091615f59565b84555f995f5b335f52601260205260405f2054811015617a8d57335f52601260205261753f8160405f20615fd8565b5080546001600160a01b03168b1480617a76575b6175605750600101617516565b905060019192939495969798999a9b500161757c8b8254615f59565b905560015b61790757335f9081526012602052604090819020805491516175a281615ba9565b8b8152602081018d815260408201928a845260608301906175c28d615b7e565b8c82528054600160401b811015610819576175e291600182018155615fd8565b939093610806575183546001600160a01b0319166001600160a01b0391909116178355905160018301559151805161762f9360039290916163379160028601916107429061073c81615b7e565b61763888615b7e565b8761771657335f52601c60205260405f208a5f5260205260405f20905f5260205260405f20600160ff198254161790555b63ffffffff8154169163ffffffff831461091657866176c08a8d936176c7998e839763ffffffff8f9a6001011663ffffffff198254161790555f52600d6020526176b63360405f20617df6565b505b549033618a38565b9533617b53565b602060018060a01b03910151169360405192835260208301526176e981615b7e565b60408201527f4fe2fde631e986ee26283901b9cc8d6d4a311b750f9fa0d659520deba2995f1f60603392a4565b9995929794919896939099335f52601360205260405f20905f5260205260405f2088516001600160401b03811161081957600160401b81116108195781548183558082106178ad575b5060208a01915f5260205f208160021c915f5b83811061786857506003198116900380617810575b5050895191505080156178085761779e9087615d92565b985b5f5b89518110156177f757600190335f52601d60205260405f208a5f526020528a6001600160401b03806177d88460405f209461609d565b5116165f5260205260405f206177ef8d8254615f59565b9055016177a2565b509194979295999093969850617669565b505f986177a0565b925f935f5b81811061782a5750505001555f808080617787565b909194602061785e6001926001600160401b03895116908560031b6001600160401b03809160031b9316831b921b19161790565b9601929101617815565b5f805b60048110617880575083820155600101617772565b86519096916001916020916001600160401b0360068b901b81811b199092169216901b179201960161786b565b825f5260205f20600380840160021c8201920160021c019060188360031b16806178ec575b505b8181106178e1575061775f565b5f81556001016178d4565b5f198201908154905f199060200360031b1c1690555f6178d2565b505f989796959493985b335f52601260205260405f2054811015617a5e57335f52601260205261793a8160405f20615fd8565b5080546001600160a01b0316891480617a47575b61795b5750600101617911565b60ff60036001929c9495969798999a9b9c01541661797881615b7e565b14617993575b508689866176c0836176c79897968b966176b8565b98949197959296939098335f52601360205260405f20905f5260205260405f209687548015155f14617a3f576179c99087615d92565b985b5f5b8954811015617a2857600190335f52601d60205260405f208a5f526020528a6001600160401b0380617a038460405f2094616791565b90549060031b1c16165f5260205260405f20617a208d8254615f59565b9055016179cd565b50959996985093965091949093919291908661797e565b505f986179cb565b5082617a586108b66002840161606b565b1461794e565b50938588856176c0836176c79899869b9c9d9e6176b8565b5083617a876108b66002840161606b565b14617553565b5090919293949596979899617581565b846371ab6ad560e11b5f5260045260245ffd5b60405190617abd82615bc4565b6001825260208201529161746e565b6001600160a01b03165f9081526017602052604090206001810154908115617b0357617b00926002616bd692015490615d7f565b90565b5050505f90565b60058110156113da5760018114617b4c5760028114617b455760038114617b3e57600414617b385761271090565b613e8090565b506132c890565b50612ee090565b50612af890565b9391959094969296617b6481615b7e565b617cc45750617b7284617fa1565b60018060a01b03841694855f52601760205260405f209460018060a01b03851694855f52601860205260405f20885f5260205260405f205f975f5b885f52601260205260405f2054811015617c2857885f526012602052617bd68160405f20615fd8565b5080546001600160a01b03168c1480617c10575b617bf8575b50600101617bad565b6001919a82617c0992015490615f59565b9990617bef565b5060ff600382015416617c2281615b7e565b15617bea565b50670de0b6b3a76400009294969950617c7e919395975061554b8b617c52616f6a9d60019c615d72565b80617c86575b8b8401617c66838254615f59565b905560028401617c778c8254615f59565b9055615f59565b04905561889e565b85617c92828654615d7f565b0487548082115f14617cbc57617ca791615d72565b617cb58d8901918254615f59565b9055617c58565b50505f617ca7565b92617cdd829460018794616f6a9a8299869b989b61867e565b61889e565b60018060a01b03165f52601a6020526001600160401b0360405f2091165f5260205260405f206001810154908115617d2657617b00926002616bd692015490615d7f565b505090565b8054821015615ff1575f5260205f2001905f90565b805f52600960205260405f2054155f1461687457600854600160401b81101561081957617d8f617d798260018594016008556008617d2b565b819391549060031b91821b915f19901b19161790565b9055600854905f52600960205260405f2055600190565b805f52600460205260405f2054155f1461687457600354600160401b81101561081957617ddf617d798260018594016003556003617d2b565b9055600354905f52600460205260405f2055600190565b5f828152600182016020526040902054616b0d57805490600160401b8210156108195782617e2e617d79846001809601855584617d2b565b90558054925f520160205260405f2055600190565b6001600160a01b03165f818152600c60205260409020805491908215617b03575f5b838110617e7457505050505f90565b6001600160401b03617e868284617d2b565b90549060031b1c16835f52601a6020526001600160401b0360405f2091165f52602052600260405f200154617ebd57600101617e65565b50505050600190565b6001600160a01b03165f9081526017602052604090206001810154908115617f17576002015490670de0b6b3a7640000820291808304670de0b6b3a7640000149015171561091657617b0091615d92565b5050670de0b6b3a764000090565b6001600160a01b03165f908152600a602052604090208054828110617f555750617f50828254615d72565b905590565b5f919392509255565b6001600160a01b03165f908152601760205260409020600201805480158015617f99575b617b0357828110617f555750617f50828254615d72565b508215617f82565b60018060a01b03165f52601760205260405f206001600160401b036003815f5416920191166001600160401b0319825416179055565b8054821015615ff1575f5260205f209060011b01905f90565b811561095257617fff81616b13565b805f52600260205260405f2060ff815416156180f65760028101548085106180df57506003810154801515806180c9575b6180aa5750600401618043848254615f59565b9055335f52600f60205260405f20905f5260205260405f20618066838254615f59565b9055602001516040519182526001600160a01b0316905f60208201527f754fff2205ca9f1a08ae1f38f487839ba7e18895f0238908ea8b8842d7424fbb60403392a3565b60048592015490634b98504560e01b5f5260045260245260445260645ffd5b50806180d9866004850154615f59565b11618030565b8490631e2be21160e01b5f5260045260245260445ffd5b602083015163f6f24b8360e01b5f9081526001600160a01b03909116600452602490fd5b81156109525761812981616b13565b90815f52600260205260405f2060ff815416156182d25760028101548085106180df57506003810154801515806182bc575b6180aa575060040161816e848254615f59565b9055335f52600f60205260405f20825f5260205260405f20618191848254615f59565b905560058410156113da57836181ee575b6020908101516040519384526001600160a01b0316936181c6925090830190615b71565b7f754fff2205ca9f1a08ae1f38f487839ba7e18895f0238908ea8b8842d7424fbb60403392a3565b6181f784618b7c565b61820084618c09565b91335f52601060205260405f20905f5260205261822a60405f20926001600160401b03431661603d565b9160405161823781615bdf565b84815260208101916182498784616785565b6001600160401b0360408301951685528054600160401b8110156108195761827691600182018155617fd7565b6108065760019151815501905160058110156113da576181c69360ff68ffffffffffffffff008454925160081b1692169068ffffffffffffffffff1916171790556181a2565b50806182cc866004850154615f59565b1161815b565b506020015163f6f24b8360e01b5f9081526001600160a01b03909116600452602490fd5b5f818152600460205260409020548015616b0d575f198101818111610916576003545f1981019190821161091657818103618369575b5050506003548015610e2d575f1901618346816003617d2b565b8154905f199060031b1b191690556003555f5260046020525f6040812055600190565b61838b61837a617d79936003617d2b565b90549060031b1c9283926003617d2b565b90555f52600460205260405f20555f808061832c565b5f818152600960205260409020548015616b0d575f198101818111610916576008545f1981019190821161091657818103618414575b5050506008548015610e2d575f19016183f1816008617d2b565b8154905f199060031b1b191690556008555f5260096020525f6040812055600190565b618436618425617d79936008617d2b565b90549060031b1c9283926008617d2b565b90555f52600960205260405f20555f80806183d7565b906001820191815f528260205260405f20548015155f146184f5575f1981018181116109165782545f19810191908211610916578181036184c0575b50505080548015610e2d575f1901906184a18282617d2b565b8154905f199060031b1b19169055555f526020525f6040812055600190565b6184e06184d0617d799386617d2b565b90549060031b1c92839286617d2b565b90555f528360205260405f20555f8080618488565b505050505f90565b60018060a01b03165f52601a6020526001600160401b0360405f2091165f52602052600260405f2001805480158015617f9957617b0357828110617f555750617f50828254615d72565b9081602091031261054e575190565b6001600160a01b039081165f818152600660205260409020549091169081156185e357506040516311f9fbc960e21b81523360048201526024810192909252602090829060449082905f905af1908115610ca3575f916185b4575090565b90506020813d6020116185db575b816185cf60209383615c30565b8101031261054e575190565b3d91506185c2565b905060ff600754166185fd5781617b00913090339061863a565b63f6f24b8360e01b5f5260045260245ffd5b60ff5f80516020618e518339815191525460401c161561862b57565b631afcd79f60e31b5f5260045ffd5b6040516323b872dd60e01b60208201526001600160a01b039283166024820152929091166044830152606480830193909352918152616f6a91610cee608483615c30565b9594909392918151908115618894576186a39161869a91615d92565b92825190615d92565b905f5b815181101561889457806001600160401b036186c46001938561609d565b5116828060a01b0388165f52601a60205260405f206001600160401b0382165f52602052670de0b6b3a76400006187d160405f20858060a01b038d1693845f52601b60205260405f20878060a01b038d165f5260205260405f206001600160401b0382165f5260205260405f20946001600160401b035f54166001600160401b036003850191166001600160401b03198254161790555f52601d60205260405f20878060a01b038d165f526020526001600160401b0360405f2091165f52602052898960405f205491618885575b5080618847575b8a156187fb578682016187ad8b8254615f59565b9055600282016187be8a8254615f59565b90555b898b156187da5761554b91615f59565b049055016186a6565b5089808211156187f3576187ed91615d72565b9061554d565b50505f6187ed565b81870180548b818111156188385750505f905b556002820180548a818111156188295750505f905b556187c1565b61883291615d72565b90618823565b61884191615d72565b9061880e565b83618853828454615d7f565b0485548082115f1461887d5761886891615d72565b618876888701918254615f59565b9055618799565b50505f618868565b61888e91615d72565b89618792565b5050505050509050565b601e545f96929491939192916001600160a01b039091169081156189d35780516188c781615b7e565b6188d081615b7e565b6189c057505f955b156189605750601e546001600160a01b031691823b1561895c576040516316f60ec560e11b81526001600160a01b0394851660048201529484166024860152949092166044840152606483019390935261ffff166084820152908290829060a490829084905af1618947575050565b618952828092615c30565b6189595750565b80fd5b8680fd5b929194955050813b1561054e5760405162f74bbf60e71b81526001600160a01b039182166004820152928116602484015290931660448201526064810191909152905f908290608490829084905af16189b65750565b5f616f6a91615c30565b602001516001600160a01b0316956188d8565b5050505050505050565b6001600160a01b03165f908152601760205260409020600181015480158015618a2c575b617d2657618a14600291618a1d94615d7f565b91015490615d92565b908115618a2657565b60019150565b50600282015415618a01565b9290918115618af1575f925f9460018060a01b03165f52601060205260405f20905f5260205260405f205f908054915b828110618b17575050508215618af15781808210618b0f57618a8991615d72565b82811015618b08575b80831115618b0157618aa49083615d72565b80821015618afb575080925b8315618af15761ffff936109cd618acd618aed95616bd694615d92565b91618ae887618adf6127109584615d7f565b94169186615d72565b615d7f565b1690565b5050505061271090565b92618ab0565b505f618aa4565b5081618a92565b50505f618a89565b618b218183617fd7565b506001810154436001600160401b038260081c1611618b45575b5050600101618a68565b976109cd618b74929861ffff618b6c618b6360ff6001989e16617b0a565b9b548093615f59565b9a1690618d0a565b96905f618b3b565b90600582101590816113da5782158015618bfc575b828115618bec575b8115618bdc575b8115618bcc575b50618bc757506113da5760ff9063aae758a160e01b5f521660045260245ffd5b915050565b90506113da576004831482618ba7565b90506113da576003831482618ba0565b90506113da576002831482618b99565b505f915060018314618b91565b60058110156113da5760018114618c4c5760028114618c445760038114618c3c57600414618c35575f90565b6213c68090565b506209e34090565b506206978090565b5062034bc090565b905f602091828151910182855af115610ca3575f513d618ca357506001600160a01b0381163b155b618c835750565b635274afe760e01b5f9081526001600160a01b0391909116600452602490fd5b60011415618c7c565b90618cd05750805115618cc157805190602001fd5b63d6bda27560e01b5f5260045ffd5b81511580618d01575b618ce1575090565b639996b31560e01b5f9081526001600160a01b0391909116600452602490fd5b50803b15618cd9565b81810291905f5f19838309848082109103818114618d48570360011115618d3657509060019109900390565b634e487b71905260116020526024601cfd5b50505050509056fe2f8788117e7eff1d82e926ec794901d17c78024a50270940304540a733656f0d360894a13ba1a3210667c828492db98dca3e2076cc3735a920a3ca505d382bbce34918ff1c7084970068b53fd71ad6d8b04e9f15d3886cbf006443e6cdc52ea669892194d2f1eb4d48bd09f166bfce1754a681e8e17011b3e12b710cce56a87b12b42e8a160f6064dc959c6f251e3af0750ad213dbecf573b4710d67d6c28e3902dd7bc7dec4dceedda775e58dd541e08a116c6c53815c0bd028192f7b626800cd5ed15c6e187e77e9aee88184c21f4f2182ab5827cb3b7e07fbedcd63f033009b779b17422d0df92223018b32b4d1fa46e071723d6817e2486d003becc55f00f0c57e16840df040f15088dc2f81fe391c3923bec73e23a9662efc9c229c6a00a164736f6c634300081a000a","linkReferences":{}},"methodIdentifiers":{"ADMIN_ROLE()":"75b238fc","ASSET_MANAGER_ROLE()":"a4b32de8","BPS_DENOMINATOR()":"e1a45218","DEFAULT_ADMIN_ROLE()":"a217fddf","LOCK_ONE_MONTH()":"9e870585","LOCK_SIX_MONTHS()":"f3c9b311","LOCK_THREE_MONTHS()":"d27a6f06","LOCK_TWO_MONTHS()":"7df92ada","MULTIPLIER_NONE()":"4962f88f","MULTIPLIER_ONE_MONTH()":"18056dc2","MULTIPLIER_SIX_MONTHS()":"453eccea","MULTIPLIER_THREE_MONTHS()":"a7fa6f98","MULTIPLIER_TWO_MONTHS()":"54de2320","PRECISION()":"aaf5eb68","SLASHER_ROLE()":"5095af64","UPGRADE_INTERFACE_VERSION()":"ad3cb1cc","addBlueprint(uint64)":"c7353025","addBlueprintToDelegation(uint256,uint64)":"23cc2700","addSlasher(address)":"68a9f19c","advanceRound()":"1ba9998b","claimDelegatorRewards()":"44d1480b","claimOperatorRewards()":"4c4ede2d","claimOperatorRewardsTo(address)":"7d6941c6","completeLeaving()":"d1736ba7","currentRound()":"8a19c8bc","delegate(address,uint256)":"026e402b","delegateWithOptions(address,address,uint256,uint8,uint64[])":"fd7d3dbc","delegationBondLessDelay()":"ba05bbf5","deposit()":"d0e30db0","depositAndDelegate(address)":"461cc23b","depositAndDelegateWithOptions(address,address,uint256,uint8,uint64[])":"fbec4861","depositERC20(address,uint256)":"97feb926","depositERC20WithLock(address,uint256,uint8)":"cb15038b","depositWithLock(uint8)":"f38c7c4e","disableAsset(address)":"70807528","enableAsset(address,uint256,uint256,uint256,uint16)":"354ebef9","enableAssetWithAdapter(address,address,uint256,uint256,uint256,uint16)":"f0b52bb4","executeDelegatorUnstake()":"007910d0","executeOperatorUnstake()":"b0dfce06","executeWithdraw()":"f8fd9795","getAssetAdapter(address)":"8a7fe60f","getAssetConfig(address)":"6ec3ab67","getDelegation(address,address)":"15049a5a","getDelegationBlueprints(address,uint256)":"7b9996c5","getDelegations(address)":"31cc13ba","getDeposit(address,address)":"c35082a9","getLocks(address,address)":"0c8833ce","getOperatorBlueprints(address)":"dc972ccc","getOperatorDelegatedStake(address)":"8c5b4ae7","getOperatorDelegatorCount(address)":"486398c3","getOperatorDelegators(address)":"a299e298","getOperatorMetadata(address)":"2ee663b8","getOperatorRewardPool(address)":"03587c1d","getOperatorSelfStake(address)":"d673e0b9","getOperatorStake(address)":"e4e88de8","getPendingDelegatorRewards(address)":"168f6865","getPendingOperatorRewards(address)":"30224fc8","getPendingUnstakes(address)":"5722d512","getPendingWithdrawals(address)":"f340c0d0","getRoleAdmin(bytes32)":"248a9ca3","getSlashCount(address)":"66c36875","getSlashImpact(address,uint64,address)":"9494f426","getSlashRecord(address,uint64)":"a457af3d","getSnapshot(uint64,address)":"c07449e2","getTotalDelegation(address)":"fc5e7e09","grantRole(bytes32,address)":"2f2ff15d","hasRole(bytes32,address)":"91d14854","increaseStake()":"d9e257ef","initialize(address,uint256,uint256,uint16)":"cbb6d6bd","isOperator(address)":"6d70f7ae","isOperatorActive(address)":"eb473533","isSlasher(address)":"57601c5d","leaveDelegatorsDelay()":"db8a173a","leaveOperatorsDelay()":"4de8addc","meetsStakeRequirement(address,uint256)":"f46913bb","minOperatorStake()":"d775cb61","nativeEnabled()":"77ab2cf3","nextSlashId(address)":"96085673","notifyReward(address,uint64,uint256)":"a3b9c5c2","notifyRewardForBlueprint(address,uint64,uint64,uint256)":"3dcad9db","operatorAt(uint256)":"26142335","operatorCommissionBps()":"32273f61","operatorCount()":"7c6f3158","pause()":"8456cb59","paused()":"5c975abb","proxiableUUID()":"52d1902d","registerAdapter(address,address)":"d655b92a","registerOperator()":"2acde098","registerOperatorWithAsset(address,uint256)":"e0a5825b","removeAdapter(address)":"585cd34b","removeBlueprint(uint64)":"28e70ecc","removeBlueprintFromDelegation(uint256,uint64)":"859caa18","removeSlasher(address)":"aac6aa9c","renounceRole(bytes32,address)":"36568abe","requireAdapters()":"b54b2b9e","revokeRole(bytes32,address)":"d547741f","rewardsManager()":"defe2053","roundDuration()":"f7cb789a","scheduleDelegatorUnstake(address,address,uint256)":"fc8a91af","scheduleOperatorUnstake(uint256)":"44aff252","scheduleWithdraw(address,uint256)":"e1ee4bcc","setDelays(uint64,uint64,uint64)":"03780211","setOperatorCommission(uint16)":"f3c4d8a0","setRequireAdapters(bool)":"7b76fe5e","setRewardsManager(address)":"0a8ddc5e","slash(address,uint64,uint256,bytes32)":"356924ea","slashForBlueprint(address,uint64,uint64,uint256,bytes32)":"8d795d50","slashHistory(address,uint64)":"0aa8b110","snapshotOperator(address)":"cadd550c","startLeaving()":"87703550","supportsInterface(bytes4)":"01ffc9a7","undelegate(address,uint256)":"4d99dd16","unpause()":"3f4ba83a","upgradeToAndCall(address,bytes)":"4f1ef286"},"id":172}