{"abi":[{"type":"constructor","inputs":[],"stateMutability":"nonpayable"},{"type":"fallback","stateMutability":"payable"},{"type":"receive","stateMutability":"payable"},{"type":"function","name":"ADMIN_ROLE","inputs":[],"outputs":[{"name":"","type":"bytes32","internalType":"bytes32"}],"stateMutability":"view"},{"type":"function","name":"ASSET_MANAGER_ROLE","inputs":[],"outputs":[{"name":"","type":"bytes32","internalType":"bytes32"}],"stateMutability":"view"},{"type":"function","name":"BPS_DENOMINATOR","inputs":[],"outputs":[{"name":"","type":"uint256","internalType":"uint256"}],"stateMutability":"view"},{"type":"function","name":"DEFAULT_ADMIN_ROLE","inputs":[],"outputs":[{"name":"","type":"bytes32","internalType":"bytes32"}],"stateMutability":"view"},{"type":"function","name":"LOCK_ONE_MONTH","inputs":[],"outputs":[{"name":"","type":"uint64","internalType":"uint64"}],"stateMutability":"view"},{"type":"function","name":"LOCK_SIX_MONTHS","inputs":[],"outputs":[{"name":"","type":"uint64","internalType":"uint64"}],"stateMutability":"view"},{"type":"function","name":"LOCK_THREE_MONTHS","inputs":[],"outputs":[{"name":"","type":"uint64","internalType":"uint64"}],"stateMutability":"view"},{"type":"function","name":"LOCK_TWO_MONTHS","inputs":[],"outputs":[{"name":"","type":"uint64","internalType":"uint64"}],"stateMutability":"view"},{"type":"function","name":"MULTIPLIER_NONE","inputs":[],"outputs":[{"name":"","type":"uint16","internalType":"uint16"}],"stateMutability":"view"},{"type":"function","name":"MULTIPLIER_ONE_MONTH","inputs":[],"outputs":[{"name":"","type":"uint16","internalType":"uint16"}],"stateMutability":"view"},{"type":"function","name":"MULTIPLIER_SIX_MONTHS","inputs":[],"outputs":[{"name":"","type":"uint16","internalType":"uint16"}],"stateMutability":"view"},{"type":"function","name":"MULTIPLIER_THREE_MONTHS","inputs":[],"outputs":[{"name":"","type":"uint16","internalType":"uint16"}],"stateMutability":"view"},{"type":"function","name":"MULTIPLIER_TWO_MONTHS","inputs":[],"outputs":[{"name":"","type":"uint16","internalType":"uint16"}],"stateMutability":"view"},{"type":"function","name":"PRECISION","inputs":[],"outputs":[{"name":"","type":"uint256","internalType":"uint256"}],"stateMutability":"view"},{"type":"function","name":"SLASHER_ROLE","inputs":[],"outputs":[{"name":"","type":"bytes32","internalType":"bytes32"}],"stateMutability":"view"},{"type":"function","name":"UPGRADE_INTERFACE_VERSION","inputs":[],"outputs":[{"name":"","type":"string","internalType":"string"}],"stateMutability":"view"},{"type":"function","name":"blueprintSlashCount","inputs":[{"name":"","type":"uint64","internalType":"uint64"},{"name":"","type":"address","internalType":"address"}],"outputs":[{"name":"","type":"uint64","internalType":"uint64"}],"stateMutability":"view"},{"type":"function","name":"clearFacetSelectors","inputs":[{"name":"selectors","type":"bytes4[]","internalType":"bytes4[]"}],"outputs":[],"stateMutability":"nonpayable"},{"type":"function","name":"currentRound","inputs":[],"outputs":[{"name":"","type":"uint64","internalType":"uint64"}],"stateMutability":"view"},{"type":"function","name":"delegationBondLessDelay","inputs":[],"outputs":[{"name":"","type":"uint64","internalType":"uint64"}],"stateMutability":"view"},{"type":"function","name":"facetForSelector","inputs":[{"name":"selector","type":"bytes4","internalType":"bytes4"}],"outputs":[{"name":"","type":"address","internalType":"address"}],"stateMutability":"view"},{"type":"function","name":"getAssetAdapter","inputs":[{"name":"token","type":"address","internalType":"address"}],"outputs":[{"name":"","type":"address","internalType":"address"}],"stateMutability":"view"},{"type":"function","name":"getOperatorSlashFactor","inputs":[{"name":"operator","type":"address","internalType":"address"}],"outputs":[{"name":"","type":"uint256","internalType":"uint256"}],"stateMutability":"view"},{"type":"function","name":"getRoleAdmin","inputs":[{"name":"role","type":"bytes32","internalType":"bytes32"}],"outputs":[{"name":"","type":"bytes32","internalType":"bytes32"}],"stateMutability":"view"},{"type":"function","name":"getSlashCount","inputs":[{"name":"operator","type":"address","internalType":"address"}],"outputs":[{"name":"","type":"uint64","internalType":"uint64"}],"stateMutability":"view"},{"type":"function","name":"getSlashCountForBlueprint","inputs":[{"name":"blueprintId","type":"uint64","internalType":"uint64"},{"name":"operator","type":"address","internalType":"address"}],"outputs":[{"name":"","type":"uint64","internalType":"uint64"}],"stateMutability":"view"},{"type":"function","name":"getSlashCountForService","inputs":[{"name":"serviceId","type":"uint64","internalType":"uint64"},{"name":"operator","type":"address","internalType":"address"}],"outputs":[{"name":"","type":"uint64","internalType":"uint64"}],"stateMutability":"view"},{"type":"function","name":"getSlashImpact","inputs":[{"name":"operator","type":"address","internalType":"address"},{"name":"slashId","type":"uint64","internalType":"uint64"},{"name":"delegator","type":"address","internalType":"address"}],"outputs":[{"name":"lostAmount","type":"uint256","internalType":"uint256"}],"stateMutability":"view"},{"type":"function","name":"getSlashRecord","inputs":[{"name":"operator","type":"address","internalType":"address"},{"name":"slashId","type":"uint64","internalType":"uint64"}],"outputs":[{"name":"","type":"tuple","internalType":"struct SlashingManager.SlashRecord","components":[{"name":"round","type":"uint64","internalType":"uint64"},{"name":"serviceId","type":"uint64","internalType":"uint64"},{"name":"blueprintId","type":"uint64","internalType":"uint64"},{"name":"totalSlashed","type":"uint256","internalType":"uint256"},{"name":"exchangeRateBefore","type":"uint256","internalType":"uint256"},{"name":"exchangeRateAfter","type":"uint256","internalType":"uint256"},{"name":"evidence","type":"bytes32","internalType":"bytes32"}]}],"stateMutability":"view"},{"type":"function","name":"getSnapshot","inputs":[{"name":"round","type":"uint64","internalType":"uint64"},{"name":"operator","type":"address","internalType":"address"}],"outputs":[{"name":"","type":"tuple","internalType":"struct Types.OperatorSnapshot","components":[{"name":"stake","type":"uint256","internalType":"uint256"},{"name":"totalDelegated","type":"uint256","internalType":"uint256"}]}],"stateMutability":"view"},{"type":"function","name":"grantRole","inputs":[{"name":"role","type":"bytes32","internalType":"bytes32"},{"name":"account","type":"address","internalType":"address"}],"outputs":[],"stateMutability":"nonpayable"},{"type":"function","name":"hasRole","inputs":[{"name":"role","type":"bytes32","internalType":"bytes32"},{"name":"account","type":"address","internalType":"address"}],"outputs":[{"name":"","type":"bool","internalType":"bool"}],"stateMutability":"view"},{"type":"function","name":"initialize","inputs":[{"name":"admin","type":"address","internalType":"address"},{"name":"nativeMinOperatorStake","type":"uint256","internalType":"uint256"},{"name":"nativeMinDelegation","type":"uint256","internalType":"uint256"},{"name":"_operatorCommissionBps","type":"uint16","internalType":"uint16"}],"outputs":[],"stateMutability":"nonpayable"},{"type":"function","name":"lastRoundAdvance","inputs":[],"outputs":[{"name":"","type":"uint64","internalType":"uint64"}],"stateMutability":"view"},{"type":"function","name":"leaveDelegatorsDelay","inputs":[],"outputs":[{"name":"","type":"uint64","internalType":"uint64"}],"stateMutability":"view"},{"type":"function","name":"leaveOperatorsDelay","inputs":[],"outputs":[{"name":"","type":"uint64","internalType":"uint64"}],"stateMutability":"view"},{"type":"function","name":"nativeEnabled","inputs":[],"outputs":[{"name":"","type":"bool","internalType":"bool"}],"stateMutability":"view"},{"type":"function","name":"nextSlashId","inputs":[{"name":"","type":"address","internalType":"address"}],"outputs":[{"name":"","type":"uint64","internalType":"uint64"}],"stateMutability":"view"},{"type":"function","name":"operatorCommissionBps","inputs":[],"outputs":[{"name":"","type":"uint16","internalType":"uint16"}],"stateMutability":"view"},{"type":"function","name":"paused","inputs":[],"outputs":[{"name":"","type":"bool","internalType":"bool"}],"stateMutability":"view"},{"type":"function","name":"proxiableUUID","inputs":[],"outputs":[{"name":"","type":"bytes32","internalType":"bytes32"}],"stateMutability":"view"},{"type":"function","name":"registerFacet","inputs":[{"name":"facet","type":"address","internalType":"address"}],"outputs":[],"stateMutability":"nonpayable"},{"type":"function","name":"registerFacetSelectors","inputs":[{"name":"facet","type":"address","internalType":"address"},{"name":"selectors","type":"bytes4[]","internalType":"bytes4[]"}],"outputs":[],"stateMutability":"nonpayable"},{"type":"function","name":"renounceRole","inputs":[{"name":"role","type":"bytes32","internalType":"bytes32"},{"name":"callerConfirmation","type":"address","internalType":"address"}],"outputs":[],"stateMutability":"nonpayable"},{"type":"function","name":"requireAdapters","inputs":[],"outputs":[{"name":"","type":"bool","internalType":"bool"}],"stateMutability":"view"},{"type":"function","name":"revokeRole","inputs":[{"name":"role","type":"bytes32","internalType":"bytes32"},{"name":"account","type":"address","internalType":"address"}],"outputs":[],"stateMutability":"nonpayable"},{"type":"function","name":"roundDuration","inputs":[],"outputs":[{"name":"","type":"uint64","internalType":"uint64"}],"stateMutability":"view"},{"type":"function","name":"serviceSlashCount","inputs":[{"name":"","type":"uint64","internalType":"uint64"},{"name":"","type":"address","internalType":"address"}],"outputs":[{"name":"","type":"uint64","internalType":"uint64"}],"stateMutability":"view"},{"type":"function","name":"slashHistory","inputs":[{"name":"","type":"address","internalType":"address"},{"name":"","type":"uint64","internalType":"uint64"}],"outputs":[{"name":"round","type":"uint64","internalType":"uint64"},{"name":"serviceId","type":"uint64","internalType":"uint64"},{"name":"blueprintId","type":"uint64","internalType":"uint64"},{"name":"totalSlashed","type":"uint256","internalType":"uint256"},{"name":"exchangeRateBefore","type":"uint256","internalType":"uint256"},{"name":"exchangeRateAfter","type":"uint256","internalType":"uint256"},{"name":"evidence","type":"bytes32","internalType":"bytes32"}],"stateMutability":"view"},{"type":"function","name":"supportsInterface","inputs":[{"name":"interfaceId","type":"bytes4","internalType":"bytes4"}],"outputs":[{"name":"","type":"bool","internalType":"bool"}],"stateMutability":"view"},{"type":"function","name":"upgradeToAndCall","inputs":[{"name":"newImplementation","type":"address","internalType":"address"},{"name":"data","type":"bytes","internalType":"bytes"}],"outputs":[],"stateMutability":"payable"},{"type":"event","name":"BlueprintAddedToDelegation","inputs":[{"name":"delegator","type":"address","indexed":true,"internalType":"address"},{"name":"delegationIndex","type":"uint256","indexed":true,"internalType":"uint256"},{"name":"blueprintId","type":"uint64","indexed":false,"internalType":"uint64"}],"anonymous":false},{"type":"event","name":"BlueprintRemovedFromDelegation","inputs":[{"name":"delegator","type":"address","indexed":true,"internalType":"address"},{"name":"delegationIndex","type":"uint256","indexed":true,"internalType":"uint256"},{"name":"blueprintId","type":"uint64","indexed":false,"internalType":"uint64"}],"anonymous":false},{"type":"event","name":"Delegated","inputs":[{"name":"delegator","type":"address","indexed":true,"internalType":"address"},{"name":"operator","type":"address","indexed":true,"internalType":"address"},{"name":"token","type":"address","indexed":true,"internalType":"address"},{"name":"amount","type":"uint256","indexed":false,"internalType":"uint256"},{"name":"shares","type":"uint256","indexed":false,"internalType":"uint256"},{"name":"selectionMode","type":"uint8","indexed":false,"internalType":"enum Types.BlueprintSelectionMode"}],"anonymous":false},{"type":"event","name":"DelegatorUnstakeExecuted","inputs":[{"name":"delegator","type":"address","indexed":true,"internalType":"address"},{"name":"operator","type":"address","indexed":true,"internalType":"address"},{"name":"token","type":"address","indexed":true,"internalType":"address"},{"name":"shares","type":"uint256","indexed":false,"internalType":"uint256"},{"name":"amount","type":"uint256","indexed":false,"internalType":"uint256"}],"anonymous":false},{"type":"event","name":"DelegatorUnstakeScheduled","inputs":[{"name":"delegator","type":"address","indexed":true,"internalType":"address"},{"name":"operator","type":"address","indexed":true,"internalType":"address"},{"name":"token","type":"address","indexed":true,"internalType":"address"},{"name":"shares","type":"uint256","indexed":false,"internalType":"uint256"},{"name":"estimatedAmount","type":"uint256","indexed":false,"internalType":"uint256"},{"name":"readyRound","type":"uint64","indexed":false,"internalType":"uint64"}],"anonymous":false},{"type":"event","name":"Deposited","inputs":[{"name":"delegator","type":"address","indexed":true,"internalType":"address"},{"name":"token","type":"address","indexed":true,"internalType":"address"},{"name":"amount","type":"uint256","indexed":false,"internalType":"uint256"},{"name":"lock","type":"uint8","indexed":false,"internalType":"enum Types.LockMultiplier"}],"anonymous":false},{"type":"event","name":"ExpiredLocksHarvested","inputs":[{"name":"delegator","type":"address","indexed":true,"internalType":"address"},{"name":"token","type":"address","indexed":true,"internalType":"address"},{"name":"count","type":"uint256","indexed":false,"internalType":"uint256"},{"name":"totalAmount","type":"uint256","indexed":false,"internalType":"uint256"}],"anonymous":false},{"type":"event","name":"FacetRegistered","inputs":[{"name":"facet","type":"address","indexed":true,"internalType":"address"}],"anonymous":false},{"type":"event","name":"FacetSelectorCleared","inputs":[{"name":"selector","type":"bytes4","indexed":true,"internalType":"bytes4"}],"anonymous":false},{"type":"event","name":"FacetSelectorSet","inputs":[{"name":"selector","type":"bytes4","indexed":true,"internalType":"bytes4"},{"name":"facet","type":"address","indexed":true,"internalType":"address"}],"anonymous":false},{"type":"event","name":"Initialized","inputs":[{"name":"version","type":"uint64","indexed":false,"internalType":"uint64"}],"anonymous":false},{"type":"event","name":"OperatorBlueprintAdded","inputs":[{"name":"operator","type":"address","indexed":true,"internalType":"address"},{"name":"blueprintId","type":"uint64","indexed":true,"internalType":"uint64"}],"anonymous":false},{"type":"event","name":"OperatorBlueprintRemoved","inputs":[{"name":"operator","type":"address","indexed":true,"internalType":"address"},{"name":"blueprintId","type":"uint64","indexed":true,"internalType":"uint64"}],"anonymous":false},{"type":"event","name":"OperatorLeavingScheduled","inputs":[{"name":"operator","type":"address","indexed":true,"internalType":"address"},{"name":"readyRound","type":"uint64","indexed":false,"internalType":"uint64"}],"anonymous":false},{"type":"event","name":"OperatorLeft","inputs":[{"name":"operator","type":"address","indexed":true,"internalType":"address"}],"anonymous":false},{"type":"event","name":"OperatorRegistered","inputs":[{"name":"operator","type":"address","indexed":true,"internalType":"address"},{"name":"stake","type":"uint256","indexed":false,"internalType":"uint256"}],"anonymous":false},{"type":"event","name":"OperatorStakeIncreased","inputs":[{"name":"operator","type":"address","indexed":true,"internalType":"address"},{"name":"amount","type":"uint256","indexed":false,"internalType":"uint256"}],"anonymous":false},{"type":"event","name":"OperatorUnstakeExecuted","inputs":[{"name":"operator","type":"address","indexed":true,"internalType":"address"},{"name":"amount","type":"uint256","indexed":false,"internalType":"uint256"}],"anonymous":false},{"type":"event","name":"OperatorUnstakeScheduled","inputs":[{"name":"operator","type":"address","indexed":true,"internalType":"address"},{"name":"amount","type":"uint256","indexed":false,"internalType":"uint256"},{"name":"readyRound","type":"uint64","indexed":false,"internalType":"uint64"}],"anonymous":false},{"type":"event","name":"Paused","inputs":[{"name":"account","type":"address","indexed":false,"internalType":"address"}],"anonymous":false},{"type":"event","name":"RewardClaimed","inputs":[{"name":"account","type":"address","indexed":true,"internalType":"address"},{"name":"amount","type":"uint256","indexed":false,"internalType":"uint256"}],"anonymous":false},{"type":"event","name":"RewardDistributed","inputs":[{"name":"operator","type":"address","indexed":true,"internalType":"address"},{"name":"amount","type":"uint256","indexed":false,"internalType":"uint256"}],"anonymous":false},{"type":"event","name":"RoleAdminChanged","inputs":[{"name":"role","type":"bytes32","indexed":true,"internalType":"bytes32"},{"name":"previousAdminRole","type":"bytes32","indexed":true,"internalType":"bytes32"},{"name":"newAdminRole","type":"bytes32","indexed":true,"internalType":"bytes32"}],"anonymous":false},{"type":"event","name":"RoleGranted","inputs":[{"name":"role","type":"bytes32","indexed":true,"internalType":"bytes32"},{"name":"account","type":"address","indexed":true,"internalType":"address"},{"name":"sender","type":"address","indexed":true,"internalType":"address"}],"anonymous":false},{"type":"event","name":"RoleRevoked","inputs":[{"name":"role","type":"bytes32","indexed":true,"internalType":"bytes32"},{"name":"account","type":"address","indexed":true,"internalType":"address"},{"name":"sender","type":"address","indexed":true,"internalType":"address"}],"anonymous":false},{"type":"event","name":"SlashRecorded","inputs":[{"name":"operator","type":"address","indexed":true,"internalType":"address"},{"name":"slashId","type":"uint64","indexed":true,"internalType":"uint64"},{"name":"totalSlashed","type":"uint256","indexed":false,"internalType":"uint256"},{"name":"exchangeRateBefore","type":"uint256","indexed":false,"internalType":"uint256"},{"name":"exchangeRateAfter","type":"uint256","indexed":false,"internalType":"uint256"}],"anonymous":false},{"type":"event","name":"Slashed","inputs":[{"name":"operator","type":"address","indexed":true,"internalType":"address"},{"name":"serviceId","type":"uint64","indexed":true,"internalType":"uint64"},{"name":"operatorSlashed","type":"uint256","indexed":false,"internalType":"uint256"},{"name":"delegatorsSlashed","type":"uint256","indexed":false,"internalType":"uint256"},{"name":"newExchangeRate","type":"uint256","indexed":false,"internalType":"uint256"}],"anonymous":false},{"type":"event","name":"SlashedForService","inputs":[{"name":"operator","type":"address","indexed":true,"internalType":"address"},{"name":"serviceId","type":"uint64","indexed":true,"internalType":"uint64"},{"name":"blueprintId","type":"uint64","indexed":true,"internalType":"uint64"},{"name":"totalSlashed","type":"uint256","indexed":false,"internalType":"uint256"},{"name":"commitmentCount","type":"uint256","indexed":false,"internalType":"uint256"}],"anonymous":false},{"type":"event","name":"Unpaused","inputs":[{"name":"account","type":"address","indexed":false,"internalType":"address"}],"anonymous":false},{"type":"event","name":"Upgraded","inputs":[{"name":"implementation","type":"address","indexed":true,"internalType":"address"}],"anonymous":false},{"type":"event","name":"WithdrawScheduled","inputs":[{"name":"delegator","type":"address","indexed":true,"internalType":"address"},{"name":"token","type":"address","indexed":true,"internalType":"address"},{"name":"amount","type":"uint256","indexed":false,"internalType":"uint256"},{"name":"readyRound","type":"uint64","indexed":false,"internalType":"uint64"}],"anonymous":false},{"type":"event","name":"Withdrawn","inputs":[{"name":"delegator","type":"address","indexed":true,"internalType":"address"},{"name":"token","type":"address","indexed":true,"internalType":"address"},{"name":"amount","type":"uint256","indexed":false,"internalType":"uint256"}],"anonymous":false},{"type":"error","name":"AccessControlBadConfirmation","inputs":[]},{"type":"error","name":"AccessControlUnauthorizedAccount","inputs":[{"name":"account","type":"address","internalType":"address"},{"name":"neededRole","type":"bytes32","internalType":"bytes32"}]},{"type":"error","name":"AddressEmptyCode","inputs":[{"name":"target","type":"address","internalType":"address"}]},{"type":"error","name":"ERC1967InvalidImplementation","inputs":[{"name":"implementation","type":"address","internalType":"address"}]},{"type":"error","name":"ERC1967NonPayable","inputs":[]},{"type":"error","name":"EnforcedPause","inputs":[]},{"type":"error","name":"ExpectedPause","inputs":[]},{"type":"error","name":"FailedCall","inputs":[]},{"type":"error","name":"InvalidInitialization","inputs":[]},{"type":"error","name":"NotAContract","inputs":[{"name":"account","type":"address","internalType":"address"}]},{"type":"error","name":"NotInitializing","inputs":[]},{"type":"error","name":"ReentrancyGuardReentrantCall","inputs":[]},{"type":"error","name":"SelectorAlreadyRegistered","inputs":[{"name":"selector","type":"bytes4","internalType":"bytes4"},{"name":"existingFacet","type":"address","internalType":"address"}]},{"type":"error","name":"UUPSUnauthorizedCallContext","inputs":[]},{"type":"error","name":"UUPSUnsupportedProxiableUUID","inputs":[{"name":"slot","type":"bytes32","internalType":"bytes32"}]},{"type":"error","name":"UnknownSelector","inputs":[{"name":"selector","type":"bytes4","internalType":"bytes4"}]},{"type":"error","name":"ZeroAddress","inputs":[]}],"bytecode":{"object":"0x60a080604052346100e857306080527ff0c57e16840df040f15088dc2f81fe391c3923bec73e23a9662efc9c229c6a005460ff8160401c166100d9576002600160401b03196001600160401b03821601610073575b60405161216f90816100ed82396080518181816109cd01526113b40152f35b6001600160401b0319166001600160401b039081177ff0c57e16840df040f15088dc2f81fe391c3923bec73e23a9662efc9c229c6a005581527fc7f505b2f371ae2175ee4913f4499e1f2633a7b5936321eed1cdaeb6115181d290602090a15f80610054565b63f92ee8a960e01b5f5260045ffd5b5f80fdfe60806040526004361015610015575b3661185257005b5f3560e01c806301ffc9a71461033057806305d64e381461032b5780630aa8b1101461032657806318056dc21461032157806319e82e611461031c578063248a9ca3146103175780632f2ff15d1461031257806332273f611461030d57806336568abe14610308578063453eccea1461030357806346d163aa146102fe5780634962f88f146102545780634de8addc146102f95780634e9c929a146102725780634f1ef286146102f45780635095af64146102ef57806352d1902d146102ea57806354de2320146102e55780635c975abb146102e0578063615d24de146102db57806366c36875146102ae57806372b5032d146102a957806375b238fc146102d657806377ab2cf3146102d15780637df92ada146102cc5780638a19c8bc146102c75780638a7fe60f146102c257806390837ff4146102bd57806391d14854146102b85780639494f426146102b357806396085673146102ae5780639722f4b9146102a95780639e870585146102a4578063a217fddf1461029f578063a457af3d1461029a578063a4b32de814610295578063a7fa6f9814610290578063aaf5eb681461028b578063ad3cb1cc14610286578063b54b2b9e14610281578063ba05bbf51461027c578063c07449e214610277578063c550d93814610272578063cbb6d6bd1461026d578063d27a6f0614610268578063d547741f14610263578063db8a173a1461025e578063e07dec2914610259578063e1a4521814610254578063f3c9b3111461024f5763f7cb789a0361000e5761134b565b61132e565b6107c1565b611261565b61123b565b61120a565b6111ed565b61106c565b610806565b610fd0565b610fb1565b610f8f565b610f31565b610f0f565b610ef3565b610eb9565b610d56565b610d3c565b610d1f565b610b11565b610ad0565b610cde565b610c83565b610c3f565b610bff565b610bda565b610bbd565b610b9b565b610b61565b610a7e565b610a3d565b610a21565b6109bb565b610981565b61090b565b6107dd565b610698565b61067c565b610638565b610614565b6105de565b6105b8565b61051c565b6104d0565b610421565b6103a1565b61034b565b6001600160e01b031981160361034757565b5f80fd5b3461034757602036600319011261034757602060043561036a81610335565b63ffffffff60e01b16637965db0b60e01b8114908115610390575b506040519015158152f35b6301ffc9a760e01b1490505f610385565b34610347575f3660031901126103475760206001600160401b035f5460801c16604051908152f35b600435906001600160a01b038216820361034757565b602435906001600160a01b038216820361034757565b602435906001600160401b038216820361034757565b600435906001600160401b038216820361034757565b346103475760403660031901126103475761046f61043d6103c9565b6104456103f5565b9060018060a01b03165f52605160205260405f20906001600160401b03165f5260205260405f2090565b8054600182015460028301546003840154600490940154604080516001600160401b03808716825286831c81166020830152608096871c169181019190915260608101939093529282015260a081019290925260c082015260e090f35b0390f35b34610347575f366003190112610347576020604051612af88152f35b9181601f84011215610347578235916001600160401b038311610347576020808501948460051b01011161034757565b34610347576040366003190112610347576105356103c9565b6024356001600160401b038111610347576105549036906004016104ec565b9161055d6118ac565b61056683611373565b9161057460405193846108af565b838352602083019360051b81019036821161034757935b81851061059e5761059c8484611975565b005b6020809186356105ad81610335565b81520194019361058b565b346103475760203660031901126103475760206105d660043561138a565b604051908152f35b346103475760403660031901126103475761059c6004356105fd6103df565b9061060f61060a8261138a565b61191b565b611d00565b34610347575f36600319011261034757602061ffff60015460801c16604051908152f35b34610347576040366003190112610347576004356106546103df565b336001600160a01b0382160361066d5761059c91611d95565b63334bd91960e11b5f5260045ffd5b34610347575f366003190112610347576020604051613e808152f35b34610347576020366003190112610347576106b16103c9565b6106b96118ac565b604051630dc4b72f60e31b8152906001600160a01b038116905f83600481855afa9081156107b6575f91610718575b906106f291611975565b7f4d3c30f5993f1922a779345a0f7ec1a170f1e52e9d230824f9c17e63596c906d5f80a2005b90503d805f853e61072981856108af565b830192602081850312610347578051906001600160401b038211610347570183601f820112156103475780519361075f85611373565b9161076d60405193846108af565b85835260208084019660051b82010191821161034757602001945b81861061079c5750929350839250906106e8565b6020809187516107ab81610335565b815201950194610788565b6040513d5f823e3d90fd5b34610347575f3660031901126103475760206040516127108152f35b34610347575f3660031901126103475760206001600160401b0360015460401c16604051908152f35b346103475760403660031901126103475760206001600160401b0361085661082c61040b565b826108356103df565b91165f526054845260405f209060018060a01b03165f5260205260405f2090565b5416604051908152f35b634e487b7160e01b5f52604160045260245ffd5b60e081019081106001600160401b0382111761088f57604052565b610860565b604081019081106001600160401b0382111761088f57604052565b90601f801991011681019081106001600160401b0382111761088f57604052565b604051906108df6040836108af565b565b604051906108df60c0836108af565b6001600160401b03811161088f57601f01601f191660200190565b60403660031901126103475761091f6103c9565b602435906001600160401b03821161034757366023830112156103475781600401359061094b826108f0565b9161095960405193846108af565b8083523660248286010111610347576020815f92602461059c970183870137840101526113a8565b34610347575f3660031901126103475760206040517f12b42e8a160f6064dc959c6f251e3af0750ad213dbecf573b4710d67d6c28e398152f35b34610347575f366003190112610347577f00000000000000000000000000000000000000000000000000000000000000006001600160a01b03163003610a125760206040515f805160206121038339815191528152f35b63703e46dd60e11b5f5260045ffd5b34610347575f366003190112610347576020604051612ee08152f35b34610347575f36600319011261034757602060ff7fcd5ed15c6e187e77e9aee88184c21f4f2182ab5827cb3b7e07fbedcd63f0330054166040519015158152f35b34610347576020366003190112610347576001600160a01b03610a9f6103c9565b165f52600f60205260405f205480155f14610ac857506020670de0b6b3a7640000604051908152f35b6020906105d6565b34610347576020366003190112610347576001600160a01b03610af16103c9565b165f52605260205260206001600160401b0360405f205416604051908152f35b346103475760403660031901126103475760206001600160401b03610856610b3761040b565b82610b406103df565b91165f526053845260405f209060018060a01b03165f5260205260405f2090565b34610347575f3660031901126103475760206040517fa49807205ce4d355092ef5a8a18f56e8913cf4a201fbe287825b095693c217758152f35b34610347575f36600319011261034757602060ff600554166040519015158152f35b34610347575f366003190112610347576020604051624f1a008152f35b34610347575f3660031901126103475760206001600160401b035f5416604051908152f35b34610347576020366003190112610347576001600160a01b03610c206103c9565b165f526006602052602060018060a01b0360405f205416604051908152f35b3461034757602036600319011261034757600435610c5c81610335565b63ffffffff60e01b165f526021602052602060018060a01b0360405f205416604051908152f35b3461034757604036600319011261034757602060ff610cd2600435610ca66103df565b905f525f80516020612123833981519152845260405f209060018060a01b03165f5260205260405f2090565b54166040519015158152f35b3461034757606036600319011261034757610cf76103c9565b610cff6103f5565b906044356001600160a01b0381168103610347576020926105d6926114f9565b34610347575f36600319011261034757602060405162278d008152f35b34610347575f3660031901126103475760206040515f8152f35b34610347576040366003190112610347576104cc610dd9610d756103c9565b610d7d6103f5565b905f60c0604051610d8d81610874565b8281528260208201528260408201528260608201528260808201528260a0820152015260018060a01b03165f52605160205260405f20906001600160401b03165f5260205260405f2090565b600460405191610de883610874565b80546001600160401b038082168552604082901c166020850152610e2a90610e1a905b60801c6001600160401b031690565b6001600160401b03166040850152565b6001810154606084015260028101546080840152600381015460a0840152015460c08201526040519182918291909160c08060e08301946001600160401b0381511684526001600160401b0360208201511660208501526001600160401b036040820151166040850152606081015160608501526080810151608085015260a081015160a08501520151910152565b34610347575f3660031901126103475760206040517fb1fadd3142ab2ad7f1337ea4d97112bcc8337fc11ce5b20cb04ad038adf998198152f35b34610347575f3660031901126103475760206040516132c88152f35b34610347575f366003190112610347576020604051670de0b6b3a76400008152f35b34610347575f366003190112610347576040805190610f5081836108af565b600582526020820191640352e302e360dc1b83528151928391602083525180918160208501528484015e5f828201840152601f01601f19168101030190f35b34610347575f36600319011261034757602060ff600754166040519015158152f35b34610347575f3660031901126103475760205f5460c01c604051908152f35b34610347576040366003190112610347576104cc611035610fef61040b565b6001600160401b03610fff6103df565b915f602060405161100f81610894565b8281520152165f52600e60205260405f209060018060a01b03165f5260205260405f2090565b60016040519161104483610894565b8054835201546020820152604051918291829190916020806040830194805184520151910152565b34610347576080366003190112610347576110856103c9565b6024359060643560443561ffff82168203610347575f8051602061214383398151915254936001600160401b036110cb60ff604088901c1615966001600160401b031690565b16801590816111e5575b60011490816111db575b1590816111d2575b506111c35761112a938561112160016001600160401b03195f805160206121438339815191525416175f8051602061214383398151915255565b61118957611619565b61113057005b61115a60ff60401b195f8051602061214383398151915254165f8051602061214383398151915255565b604051600181527fc7f505b2f371ae2175ee4913f4499e1f2633a7b5936321eed1cdaeb6115181d290602090a1005b6111be6801000000000000000060ff60401b195f805160206121438339815191525416175f8051602061214383398151915255565b611619565b63f92ee8a960e01b5f5260045ffd5b9050155f6110e7565b303b1591506110df565b8691506110d5565b34610347575f3660031901126103475760206040516276a7008152f35b346103475760403660031901126103475761059c6004356112296103df565b9061123661060a8261138a565b611d95565b34610347575f3660031901126103475760206001600160401b0360015416604051908152f35b34610347576020366003190112610347576004356001600160401b038111610347576112919036906004016104ec565b6112996118ac565b5f5b8181106112a457005b806112b26001928486611833565b356112bc81610335565b6001600160e01b0319165f90815260216020526040902080546001600160a01b03191690556113046112f76112f2838688611833565b611848565b6001600160e01b03191690565b7fbeb27701828f515b03069d44da6519b6c491da13ef1ca7082e619959d1f48ddb5f80a20161129b565b34610347575f36600319011261034757602060405162ed4e008152f35b34610347575f3660031901126103475760206001600160401b035f5460401c16604051908152f35b6001600160401b03811161088f5760051b60200190565b5f525f80516020612123833981519152602052600160405f20015490565b90916001600160a01b037f00000000000000000000000000000000000000000000000000000000000000001630811490811561149e575b50610a12576113ec6118ac565b6040516352d1902d60e01b8152926020846004816001600160a01b0387165afa5f948161146d575b5061143857634c9c8ce360e01b5f526001600160a01b03831660045260245ffd5b5ffd5b90915f805160206121038339815191528403611459576108df929350611f77565b632a87526960e21b5f52600484905260245ffd5b61149091955060203d602011611497575b61148881836108af565b810190611e35565b935f611414565b503d61147e565b5f80516020612103833981519152546001600160a01b0316141590505f6113df565b634e487b7160e01b5f52601160045260245ffd5b919082039182116114e157565b6114c0565b818102929181159184041417156114e157565b9291909261152c5f9460018060a01b0383165f52605160205260405f20906001600160401b03165f5260205260405f2090565b906040519261153a84610874565b82546001600160401b038082168652604082901c1660208601526115719061156190610e0b565b6001600160401b03166040860152565b600183015460608501526001600160401b036115b660028501549560808101968752600460038701549660a08301978852015460c0820152516001600160401b031690565b161561161057906115c691611e6a565b91821561160857519051908181116115dd57505050565b6116059394506115f792916115f1916114d4565b906114e6565b670de0b6b3a7640000900490565b90565b505f93505050565b505f9450505050565b9061170c61179694936116b261176394611631612019565b611639612019565b611641612019565b611649612019565b60ff197fcd5ed15c6e187e77e9aee88184c21f4f2182ab5827cb3b7e07fbedcd63f0330054167fcd5ed15c6e187e77e9aee88184c21f4f2182ab5827cb3b7e07fbedcd63f0330055611699611eef565b6116a281611ae2565b506116ac81611b7e565b50611c3f565b506116cc6116be6108d0565b5f81525f6020820152611f25565b906116d56108e1565b6001815293602085015260408401525f60608401525f60808401526116fe60a084016127109052565b5f52600260205260405f2090565b90600561ffff60a081938051151560ff801988541691151516178655602081015160018701556040810151600287015560608101516003870155608081015160048701550151169201911661ffff19825416179055565b611775600160ff196005541617600555565b6001805461ffff60801b191660809290921b61ffff60801b16919091179055565b6117ac60016001600160401b03195f5416175f55565b6117cf695460000000000000000067ffffffffffffffff60401b195f5416175f55565b5f80546001600160c01b0316600760c21b1790556117fb601c6001600160401b03196001541617600155565b6108df6838000000000000000067ffffffffffffffff60401b196001541617600155565b634e487b7160e01b5f52603260045260245ffd5b91908110156118435760051b0190565b61181f565b3561160581610335565b5f80356001600160e01b03191680825260216020526040909120546001600160a01b031690811561189a575f8083368280378136915af43d5f803e15611896573d5ff35b3d5ffd5b63c2a825f560e01b5f5260045260245ffd5b335f9081527fb16e88c42fd4e48df2dd6a2eabd6bc9aec654ec170056b470819f8892cc6431c602052604090205460ff16156118e457565b63e2517d3f60e01b5f52336004527fa49807205ce4d355092ef5a8a18f56e8913cf4a201fbe287825b095693c2177560245260445ffd5b5f8181525f805160206121238339815191526020908152604080832033845290915290205460ff161561194b5750565b63e2517d3f60e01b5f523360045260245260445ffd5b80518210156118435760209160051b010190565b9091906001600160a01b038116908115611ad357803b15611ab8575f5b8451811015611ab1576119e06119d36119bc6119ae8489611961565b516001600160e01b03191690565b63ffffffff60e01b165f52602160205260405f2090565b546001600160a01b031690565b6001600160a01b03811680151590859082611aa6575b5050611a6e575080611a3383611a146119bc6119ae6001968b611961565b80546001600160a01b0319166001600160a01b03909216919091179055565b83611a446112f76119ae848a611961565b7f12557f25e458d9682d7c959b5a960bc9332e8b7af1120b54a333bfc1ff282b395f80a301611992565b611a7e6119ae6114359388611961565b6310ae11a960e31b5f526001600160e01b0319166004526001600160a01b0316602452604490565b14159050845f6119f6565b5050509050565b6322a2d07b60e21b5f526001600160a01b031660045260245ffd5b63d92e233d60e01b5f5260045ffd5b6001600160a01b0381165f9081527fb7db2dd08fcb62d0c9e08c51941cae53c267786a0b75803fb7960902fc8ef97d602052604090205460ff16611b79576001600160a01b03165f8181527fb7db2dd08fcb62d0c9e08c51941cae53c267786a0b75803fb7960902fc8ef97d60205260408120805460ff191660011790553391905f805160206120e38339815191528180a4600190565b505f90565b6001600160a01b0381165f9081527fb16e88c42fd4e48df2dd6a2eabd6bc9aec654ec170056b470819f8892cc6431c602052604090205460ff16611b79576001600160a01b0381165f9081527fb16e88c42fd4e48df2dd6a2eabd6bc9aec654ec170056b470819f8892cc6431c60205260409020805460ff1916600117905533906001600160a01b03167fa49807205ce4d355092ef5a8a18f56e8913cf4a201fbe287825b095693c217755f805160206120e38339815191525f80a4600190565b6001600160a01b0381165f9081527f5bc841a6d925a620866922bada36d16da3dcc9d52290519ea1126e5ca2372139602052604090205460ff16611b79576001600160a01b0381165f9081527f5bc841a6d925a620866922bada36d16da3dcc9d52290519ea1126e5ca237213960205260409020805460ff1916600117905533906001600160a01b03167fb1fadd3142ab2ad7f1337ea4d97112bcc8337fc11ce5b20cb04ad038adf998195f805160206120e38339815191525f80a4600190565b5f8181525f80516020612123833981519152602090815260408083206001600160a01b038616845290915290205460ff16611d8f575f8181525f80516020612123833981519152602090815260408083206001600160a01b03861684529091529020805460ff1916600117905533916001600160a01b0316905f805160206120e38339815191525f80a4600190565b50505f90565b5f8181525f80516020612123833981519152602090815260408083206001600160a01b038616845290915290205460ff1615611d8f575f8181525f80516020612123833981519152602090815260408083206001600160a01b03861684529091529020805460ff1916905533916001600160a01b0316907ff6391f5c32d9c69d2a47ea670b442974b53935d1edc7fd64eb21e047a839171b5f80a4600190565b90816020910312610347575190565b8054821015611843575f5260205f209060021b01905f90565b919082018092116114e157565b90915f925f5b6001600160a01b0384165f81815260136020526040902054821015611ab157805f526013602052611ea48260405f20611e44565b50546001600160a01b03848116911614611ec2575b50600101611e70565b60019195611ee8915f52601360205282611edf8860405f20611e44565b50015490611e5d565b9490611eb9565b611ef7612019565b611eff612019565b60017f9b779b17422d0df92223018b32b4d1fa46e071723d6817e2486d003becc55f0055565b8051906002821015611f6357602090810151604080519283019384526001600160a01b03909116828201528152611f5d6060826108af565b51902090565b634e487b7160e01b5f52602160045260245ffd5b90813b15611ff8575f8051602061210383398151915280546001600160a01b0319166001600160a01b0384169081179091557fbc7cd75a20ee27fd9adebab32041f755214dbc6bffa90cc0225b39da2e5c2d3b5f80a2805115611fe057611fdd91612044565b50565b505034611fe957565b63b398979f60e01b5f5260045ffd5b50634c9c8ce360e01b5f9081526001600160a01b0391909116600452602490fd5b60ff5f805160206121438339815191525460401c161561203557565b631afcd79f60e31b5f5260045ffd5b5f8061160593602081519101845af43d15612080573d91612064836108f0565b9261207260405194856108af565b83523d5f602085013e612084565b6060915b906120a8575080511561209957805190602001fd5b63d6bda27560e01b5f5260045ffd5b815115806120d9575b6120b9575090565b639996b31560e01b5f9081526001600160a01b0391909116600452602490fd5b50803b156120b156fe2f8788117e7eff1d82e926ec794901d17c78024a50270940304540a733656f0d360894a13ba1a3210667c828492db98dca3e2076cc3735a920a3ca505d382bbc02dd7bc7dec4dceedda775e58dd541e08a116c6c53815c0bd028192f7b626800f0c57e16840df040f15088dc2f81fe391c3923bec73e23a9662efc9c229c6a00a164736f6c634300081a000a","linkReferences":{}},"methodIdentifiers":{"ADMIN_ROLE()":"75b238fc","ASSET_MANAGER_ROLE()":"a4b32de8","BPS_DENOMINATOR()":"e1a45218","DEFAULT_ADMIN_ROLE()":"a217fddf","LOCK_ONE_MONTH()":"9e870585","LOCK_SIX_MONTHS()":"f3c9b311","LOCK_THREE_MONTHS()":"d27a6f06","LOCK_TWO_MONTHS()":"7df92ada","MULTIPLIER_NONE()":"4962f88f","MULTIPLIER_ONE_MONTH()":"18056dc2","MULTIPLIER_SIX_MONTHS()":"453eccea","MULTIPLIER_THREE_MONTHS()":"a7fa6f98","MULTIPLIER_TWO_MONTHS()":"54de2320","PRECISION()":"aaf5eb68","SLASHER_ROLE()":"5095af64","UPGRADE_INTERFACE_VERSION()":"ad3cb1cc","blueprintSlashCount(uint64,address)":"4e9c929a","clearFacetSelectors(bytes4[])":"e07dec29","currentRound()":"8a19c8bc","delegationBondLessDelay()":"ba05bbf5","facetForSelector(bytes4)":"90837ff4","getAssetAdapter(address)":"8a7fe60f","getOperatorSlashFactor(address)":"615d24de","getRoleAdmin(bytes32)":"248a9ca3","getSlashCount(address)":"66c36875","getSlashCountForBlueprint(uint64,address)":"c550d938","getSlashCountForService(uint64,address)":"72b5032d","getSlashImpact(address,uint64,address)":"9494f426","getSlashRecord(address,uint64)":"a457af3d","getSnapshot(uint64,address)":"c07449e2","grantRole(bytes32,address)":"2f2ff15d","hasRole(bytes32,address)":"91d14854","initialize(address,uint256,uint256,uint16)":"cbb6d6bd","lastRoundAdvance()":"05d64e38","leaveDelegatorsDelay()":"db8a173a","leaveOperatorsDelay()":"4de8addc","nativeEnabled()":"77ab2cf3","nextSlashId(address)":"96085673","operatorCommissionBps()":"32273f61","paused()":"5c975abb","proxiableUUID()":"52d1902d","registerFacet(address)":"46d163aa","registerFacetSelectors(address,bytes4[])":"19e82e61","renounceRole(bytes32,address)":"36568abe","requireAdapters()":"b54b2b9e","revokeRole(bytes32,address)":"d547741f","roundDuration()":"f7cb789a","serviceSlashCount(uint64,address)":"9722f4b9","slashHistory(address,uint64)":"0aa8b110","supportsInterface(bytes4)":"01ffc9a7","upgradeToAndCall(address,bytes)":"4f1ef286"},"id":50}