{"abi":[{"type":"constructor","inputs":[],"stateMutability":"nonpayable"},{"type":"fallback","stateMutability":"payable"},{"type":"receive","stateMutability":"payable"},{"type":"function","name":"ADMIN_ROLE","inputs":[],"outputs":[{"name":"","type":"bytes32","internalType":"bytes32"}],"stateMutability":"view"},{"type":"function","name":"ASSET_MANAGER_ROLE","inputs":[],"outputs":[{"name":"","type":"bytes32","internalType":"bytes32"}],"stateMutability":"view"},{"type":"function","name":"BPS_DENOMINATOR","inputs":[],"outputs":[{"name":"","type":"uint256","internalType":"uint256"}],"stateMutability":"view"},{"type":"function","name":"COMMISSION_CHANGE_DELAY","inputs":[],"outputs":[{"name":"","type":"uint64","internalType":"uint64"}],"stateMutability":"view"},{"type":"function","name":"DEFAULT_ADMIN_ROLE","inputs":[],"outputs":[{"name":"","type":"bytes32","internalType":"bytes32"}],"stateMutability":"view"},{"type":"function","name":"LOCK_ONE_MONTH","inputs":[],"outputs":[{"name":"","type":"uint64","internalType":"uint64"}],"stateMutability":"view"},{"type":"function","name":"LOCK_SIX_MONTHS","inputs":[],"outputs":[{"name":"","type":"uint64","internalType":"uint64"}],"stateMutability":"view"},{"type":"function","name":"LOCK_THREE_MONTHS","inputs":[],"outputs":[{"name":"","type":"uint64","internalType":"uint64"}],"stateMutability":"view"},{"type":"function","name":"LOCK_TWO_MONTHS","inputs":[],"outputs":[{"name":"","type":"uint64","internalType":"uint64"}],"stateMutability":"view"},{"type":"function","name":"MIN_LOCK_AMOUNT","inputs":[],"outputs":[{"name":"","type":"uint256","internalType":"uint256"}],"stateMutability":"view"},{"type":"function","name":"MULTIPLIER_NONE","inputs":[],"outputs":[{"name":"","type":"uint16","internalType":"uint16"}],"stateMutability":"view"},{"type":"function","name":"MULTIPLIER_ONE_MONTH","inputs":[],"outputs":[{"name":"","type":"uint16","internalType":"uint16"}],"stateMutability":"view"},{"type":"function","name":"MULTIPLIER_SIX_MONTHS","inputs":[],"outputs":[{"name":"","type":"uint16","internalType":"uint16"}],"stateMutability":"view"},{"type":"function","name":"MULTIPLIER_THREE_MONTHS","inputs":[],"outputs":[{"name":"","type":"uint16","internalType":"uint16"}],"stateMutability":"view"},{"type":"function","name":"MULTIPLIER_TWO_MONTHS","inputs":[],"outputs":[{"name":"","type":"uint16","internalType":"uint16"}],"stateMutability":"view"},{"type":"function","name":"PRECISION","inputs":[],"outputs":[{"name":"","type":"uint256","internalType":"uint256"}],"stateMutability":"view"},{"type":"function","name":"SLASHER_ROLE","inputs":[],"outputs":[{"name":"","type":"bytes32","internalType":"bytes32"}],"stateMutability":"view"},{"type":"function","name":"TANGLE_ROLE","inputs":[],"outputs":[{"name":"","type":"bytes32","internalType":"bytes32"}],"stateMutability":"view"},{"type":"function","name":"UPGRADER_ROLE","inputs":[],"outputs":[{"name":"","type":"bytes32","internalType":"bytes32"}],"stateMutability":"view"},{"type":"function","name":"UPGRADE_INTERFACE_VERSION","inputs":[],"outputs":[{"name":"","type":"string","internalType":"string"}],"stateMutability":"view"},{"type":"function","name":"VIRTUAL_ASSETS","inputs":[],"outputs":[{"name":"","type":"uint256","internalType":"uint256"}],"stateMutability":"view"},{"type":"function","name":"VIRTUAL_SHARES","inputs":[],"outputs":[{"name":"","type":"uint256","internalType":"uint256"}],"stateMutability":"view"},{"type":"function","name":"blueprintSlashCount","inputs":[{"name":"","type":"uint64","internalType":"uint64"},{"name":"","type":"address","internalType":"address"}],"outputs":[{"name":"","type":"uint64","internalType":"uint64"}],"stateMutability":"view"},{"type":"function","name":"clearFacetSelectors","inputs":[{"name":"selectors","type":"bytes4[]","internalType":"bytes4[]"}],"outputs":[],"stateMutability":"nonpayable"},{"type":"function","name":"currentRound","inputs":[],"outputs":[{"name":"","type":"uint64","internalType":"uint64"}],"stateMutability":"view"},{"type":"function","name":"delegationBondLessDelay","inputs":[],"outputs":[{"name":"","type":"uint64","internalType":"uint64"}],"stateMutability":"view"},{"type":"function","name":"facetForSelector","inputs":[{"name":"selector","type":"bytes4","internalType":"bytes4"}],"outputs":[{"name":"","type":"address","internalType":"address"}],"stateMutability":"view"},{"type":"function","name":"getAccumulatedDust","inputs":[{"name":"token","type":"address","internalType":"address"}],"outputs":[{"name":"","type":"uint256","internalType":"uint256"}],"stateMutability":"view"},{"type":"function","name":"getAssetAdapter","inputs":[{"name":"token","type":"address","internalType":"address"}],"outputs":[{"name":"","type":"address","internalType":"address"}],"stateMutability":"view"},{"type":"function","name":"getOperatorSlashFactor","inputs":[{"name":"operator","type":"address","internalType":"address"},{"name":"assetHash","type":"bytes32","internalType":"bytes32"}],"outputs":[{"name":"","type":"uint256","internalType":"uint256"}],"stateMutability":"view"},{"type":"function","name":"getPendingSlashCount","inputs":[{"name":"operator","type":"address","internalType":"address"}],"outputs":[{"name":"","type":"uint64","internalType":"uint64"}],"stateMutability":"view"},{"type":"function","name":"getRoleAdmin","inputs":[{"name":"role","type":"bytes32","internalType":"bytes32"}],"outputs":[{"name":"","type":"bytes32","internalType":"bytes32"}],"stateMutability":"view"},{"type":"function","name":"getSlashCount","inputs":[{"name":"operator","type":"address","internalType":"address"}],"outputs":[{"name":"","type":"uint64","internalType":"uint64"}],"stateMutability":"view"},{"type":"function","name":"getSlashCountForBlueprint","inputs":[{"name":"blueprintId","type":"uint64","internalType":"uint64"},{"name":"operator","type":"address","internalType":"address"}],"outputs":[{"name":"","type":"uint64","internalType":"uint64"}],"stateMutability":"view"},{"type":"function","name":"getSlashCountForService","inputs":[{"name":"serviceId","type":"uint64","internalType":"uint64"},{"name":"operator","type":"address","internalType":"address"}],"outputs":[{"name":"","type":"uint64","internalType":"uint64"}],"stateMutability":"view"},{"type":"function","name":"getSlashImpact","inputs":[{"name":"operator","type":"address","internalType":"address"},{"name":"slashId","type":"uint64","internalType":"uint64"},{"name":"delegator","type":"address","internalType":"address"}],"outputs":[{"name":"lostAmount","type":"uint256","internalType":"uint256"}],"stateMutability":"view"},{"type":"function","name":"getSlashRecord","inputs":[{"name":"operator","type":"address","internalType":"address"},{"name":"slashId","type":"uint64","internalType":"uint64"}],"outputs":[{"name":"","type":"tuple","internalType":"struct SlashingManager.SlashRecord","components":[{"name":"round","type":"uint64","internalType":"uint64"},{"name":"serviceId","type":"uint64","internalType":"uint64"},{"name":"blueprintId","type":"uint64","internalType":"uint64"},{"name":"assetHash","type":"bytes32","internalType":"bytes32"},{"name":"slashBps","type":"uint16","internalType":"uint16"},{"name":"totalSlashed","type":"uint256","internalType":"uint256"},{"name":"exchangeRateBefore","type":"uint256","internalType":"uint256"},{"name":"exchangeRateAfter","type":"uint256","internalType":"uint256"},{"name":"evidence","type":"bytes32","internalType":"bytes32"}]}],"stateMutability":"view"},{"type":"function","name":"getSnapshot","inputs":[{"name":"round","type":"uint64","internalType":"uint64"},{"name":"operator","type":"address","internalType":"address"}],"outputs":[{"name":"","type":"tuple","internalType":"struct Types.OperatorSnapshot","components":[{"name":"stake","type":"uint256","internalType":"uint256"},{"name":"totalDelegated","type":"uint256","internalType":"uint256"}]}],"stateMutability":"view"},{"type":"function","name":"grantRole","inputs":[{"name":"role","type":"bytes32","internalType":"bytes32"},{"name":"account","type":"address","internalType":"address"}],"outputs":[],"stateMutability":"nonpayable"},{"type":"function","name":"hasRole","inputs":[{"name":"role","type":"bytes32","internalType":"bytes32"},{"name":"account","type":"address","internalType":"address"}],"outputs":[{"name":"","type":"bool","internalType":"bool"}],"stateMutability":"view"},{"type":"function","name":"initialize","inputs":[{"name":"admin","type":"address","internalType":"address"},{"name":"nativeMinOperatorStake","type":"uint256","internalType":"uint256"},{"name":"nativeMinDelegation","type":"uint256","internalType":"uint256"},{"name":"_operatorCommissionBps","type":"uint16","internalType":"uint16"}],"outputs":[],"stateMutability":"nonpayable"},{"type":"function","name":"lastRoundAdvance","inputs":[],"outputs":[{"name":"","type":"uint64","internalType":"uint64"}],"stateMutability":"view"},{"type":"function","name":"leaveDelegatorsDelay","inputs":[],"outputs":[{"name":"","type":"uint64","internalType":"uint64"}],"stateMutability":"view"},{"type":"function","name":"leaveOperatorsDelay","inputs":[],"outputs":[{"name":"","type":"uint64","internalType":"uint64"}],"stateMutability":"view"},{"type":"function","name":"nativeEnabled","inputs":[],"outputs":[{"name":"","type":"bool","internalType":"bool"}],"stateMutability":"view"},{"type":"function","name":"nextSlashId","inputs":[{"name":"","type":"address","internalType":"address"}],"outputs":[{"name":"","type":"uint64","internalType":"uint64"}],"stateMutability":"view"},{"type":"function","name":"operatorCommissionBps","inputs":[],"outputs":[{"name":"","type":"uint16","internalType":"uint16"}],"stateMutability":"view"},{"type":"function","name":"paused","inputs":[],"outputs":[{"name":"","type":"bool","internalType":"bool"}],"stateMutability":"view"},{"type":"function","name":"proxiableUUID","inputs":[],"outputs":[{"name":"","type":"bytes32","internalType":"bytes32"}],"stateMutability":"view"},{"type":"function","name":"registerFacet","inputs":[{"name":"facet","type":"address","internalType":"address"}],"outputs":[],"stateMutability":"nonpayable"},{"type":"function","name":"registerFacetSelectors","inputs":[{"name":"facet","type":"address","internalType":"address"},{"name":"selectors","type":"bytes4[]","internalType":"bytes4[]"}],"outputs":[],"stateMutability":"nonpayable"},{"type":"function","name":"renounceRole","inputs":[{"name":"role","type":"bytes32","internalType":"bytes32"},{"name":"callerConfirmation","type":"address","internalType":"address"}],"outputs":[],"stateMutability":"nonpayable"},{"type":"function","name":"requireAdapters","inputs":[],"outputs":[{"name":"","type":"bool","internalType":"bool"}],"stateMutability":"view"},{"type":"function","name":"resetPendingSlashCount","inputs":[{"name":"operator","type":"address","internalType":"address"},{"name":"count","type":"uint64","internalType":"uint64"}],"outputs":[],"stateMutability":"nonpayable"},{"type":"function","name":"revokeRole","inputs":[{"name":"role","type":"bytes32","internalType":"bytes32"},{"name":"account","type":"address","internalType":"address"}],"outputs":[],"stateMutability":"nonpayable"},{"type":"function","name":"roundDuration","inputs":[],"outputs":[{"name":"","type":"uint64","internalType":"uint64"}],"stateMutability":"view"},{"type":"function","name":"serviceSlashCount","inputs":[{"name":"","type":"uint64","internalType":"uint64"},{"name":"","type":"address","internalType":"address"}],"outputs":[{"name":"","type":"uint64","internalType":"uint64"}],"stateMutability":"view"},{"type":"function","name":"slashHistory","inputs":[{"name":"","type":"address","internalType":"address"},{"name":"","type":"uint64","internalType":"uint64"}],"outputs":[{"name":"round","type":"uint64","internalType":"uint64"},{"name":"serviceId","type":"uint64","internalType":"uint64"},{"name":"blueprintId","type":"uint64","internalType":"uint64"},{"name":"assetHash","type":"bytes32","internalType":"bytes32"},{"name":"slashBps","type":"uint16","internalType":"uint16"},{"name":"totalSlashed","type":"uint256","internalType":"uint256"},{"name":"exchangeRateBefore","type":"uint256","internalType":"uint256"},{"name":"exchangeRateAfter","type":"uint256","internalType":"uint256"},{"name":"evidence","type":"bytes32","internalType":"bytes32"}],"stateMutability":"view"},{"type":"function","name":"supportsInterface","inputs":[{"name":"interfaceId","type":"bytes4","internalType":"bytes4"}],"outputs":[{"name":"","type":"bool","internalType":"bool"}],"stateMutability":"view"},{"type":"function","name":"upgradeToAndCall","inputs":[{"name":"newImplementation","type":"address","internalType":"address"},{"name":"data","type":"bytes","internalType":"bytes"}],"outputs":[],"stateMutability":"payable"},{"type":"event","name":"BlueprintAddedToDelegation","inputs":[{"name":"delegator","type":"address","indexed":true,"internalType":"address"},{"name":"delegationIndex","type":"uint256","indexed":true,"internalType":"uint256"},{"name":"blueprintId","type":"uint64","indexed":false,"internalType":"uint64"}],"anonymous":false},{"type":"event","name":"BlueprintRemovedFromDelegation","inputs":[{"name":"delegator","type":"address","indexed":true,"internalType":"address"},{"name":"delegationIndex","type":"uint256","indexed":true,"internalType":"uint256"},{"name":"blueprintId","type":"uint64","indexed":false,"internalType":"uint64"}],"anonymous":false},{"type":"event","name":"Delegated","inputs":[{"name":"delegator","type":"address","indexed":true,"internalType":"address"},{"name":"operator","type":"address","indexed":true,"internalType":"address"},{"name":"token","type":"address","indexed":true,"internalType":"address"},{"name":"amount","type":"uint256","indexed":false,"internalType":"uint256"},{"name":"shares","type":"uint256","indexed":false,"internalType":"uint256"},{"name":"selectionMode","type":"uint8","indexed":false,"internalType":"enum Types.BlueprintSelectionMode"}],"anonymous":false},{"type":"event","name":"DelegatorUnstakeExecuted","inputs":[{"name":"delegator","type":"address","indexed":true,"internalType":"address"},{"name":"operator","type":"address","indexed":true,"internalType":"address"},{"name":"token","type":"address","indexed":true,"internalType":"address"},{"name":"shares","type":"uint256","indexed":false,"internalType":"uint256"},{"name":"amount","type":"uint256","indexed":false,"internalType":"uint256"}],"anonymous":false},{"type":"event","name":"DelegatorUnstakeScheduled","inputs":[{"name":"delegator","type":"address","indexed":true,"internalType":"address"},{"name":"operator","type":"address","indexed":true,"internalType":"address"},{"name":"token","type":"address","indexed":true,"internalType":"address"},{"name":"shares","type":"uint256","indexed":false,"internalType":"uint256"},{"name":"estimatedAmount","type":"uint256","indexed":false,"internalType":"uint256"},{"name":"readyRound","type":"uint64","indexed":false,"internalType":"uint64"}],"anonymous":false},{"type":"event","name":"Deposited","inputs":[{"name":"delegator","type":"address","indexed":true,"internalType":"address"},{"name":"token","type":"address","indexed":true,"internalType":"address"},{"name":"amount","type":"uint256","indexed":false,"internalType":"uint256"},{"name":"lock","type":"uint8","indexed":false,"internalType":"enum Types.LockMultiplier"}],"anonymous":false},{"type":"event","name":"DustAccumulated","inputs":[{"name":"token","type":"address","indexed":true,"internalType":"address"},{"name":"amount","type":"uint256","indexed":false,"internalType":"uint256"},{"name":"totalDust","type":"uint256","indexed":false,"internalType":"uint256"}],"anonymous":false},{"type":"event","name":"DustSwept","inputs":[{"name":"token","type":"address","indexed":true,"internalType":"address"},{"name":"recipient","type":"address","indexed":true,"internalType":"address"},{"name":"amount","type":"uint256","indexed":false,"internalType":"uint256"}],"anonymous":false},{"type":"event","name":"ExpiredLocksHarvested","inputs":[{"name":"delegator","type":"address","indexed":true,"internalType":"address"},{"name":"token","type":"address","indexed":true,"internalType":"address"},{"name":"count","type":"uint256","indexed":false,"internalType":"uint256"},{"name":"totalAmount","type":"uint256","indexed":false,"internalType":"uint256"}],"anonymous":false},{"type":"event","name":"FacetRegistered","inputs":[{"name":"facet","type":"address","indexed":true,"internalType":"address"}],"anonymous":false},{"type":"event","name":"FacetSelectorCleared","inputs":[{"name":"selector","type":"bytes4","indexed":true,"internalType":"bytes4"}],"anonymous":false},{"type":"event","name":"FacetSelectorSet","inputs":[{"name":"selector","type":"bytes4","indexed":true,"internalType":"bytes4"},{"name":"facet","type":"address","indexed":true,"internalType":"address"}],"anonymous":false},{"type":"event","name":"Initialized","inputs":[{"name":"version","type":"uint64","indexed":false,"internalType":"uint64"}],"anonymous":false},{"type":"event","name":"OperatorBlueprintAdded","inputs":[{"name":"operator","type":"address","indexed":true,"internalType":"address"},{"name":"blueprintId","type":"uint64","indexed":true,"internalType":"uint64"}],"anonymous":false},{"type":"event","name":"OperatorBlueprintRemoved","inputs":[{"name":"operator","type":"address","indexed":true,"internalType":"address"},{"name":"blueprintId","type":"uint64","indexed":true,"internalType":"uint64"}],"anonymous":false},{"type":"event","name":"OperatorDelegationModeSet","inputs":[{"name":"operator","type":"address","indexed":true,"internalType":"address"},{"name":"mode","type":"uint8","indexed":false,"internalType":"enum Types.DelegationMode"}],"anonymous":false},{"type":"event","name":"OperatorLeavingScheduled","inputs":[{"name":"operator","type":"address","indexed":true,"internalType":"address"},{"name":"readyRound","type":"uint64","indexed":false,"internalType":"uint64"}],"anonymous":false},{"type":"event","name":"OperatorLeft","inputs":[{"name":"operator","type":"address","indexed":true,"internalType":"address"}],"anonymous":false},{"type":"event","name":"OperatorRegistered","inputs":[{"name":"operator","type":"address","indexed":true,"internalType":"address"},{"name":"stake","type":"uint256","indexed":false,"internalType":"uint256"}],"anonymous":false},{"type":"event","name":"OperatorStakeIncreased","inputs":[{"name":"operator","type":"address","indexed":true,"internalType":"address"},{"name":"amount","type":"uint256","indexed":false,"internalType":"uint256"}],"anonymous":false},{"type":"event","name":"OperatorUnstakeExecuted","inputs":[{"name":"operator","type":"address","indexed":true,"internalType":"address"},{"name":"amount","type":"uint256","indexed":false,"internalType":"uint256"}],"anonymous":false},{"type":"event","name":"OperatorUnstakeScheduled","inputs":[{"name":"operator","type":"address","indexed":true,"internalType":"address"},{"name":"amount","type":"uint256","indexed":false,"internalType":"uint256"},{"name":"readyRound","type":"uint64","indexed":false,"internalType":"uint64"}],"anonymous":false},{"type":"event","name":"OperatorWhitelistUpdated","inputs":[{"name":"operator","type":"address","indexed":true,"internalType":"address"},{"name":"delegator","type":"address","indexed":true,"internalType":"address"},{"name":"approved","type":"bool","indexed":false,"internalType":"bool"}],"anonymous":false},{"type":"event","name":"Paused","inputs":[{"name":"account","type":"address","indexed":false,"internalType":"address"}],"anonymous":false},{"type":"event","name":"PendingSlashCountReset","inputs":[{"name":"operator","type":"address","indexed":true,"internalType":"address"},{"name":"newCount","type":"uint64","indexed":false,"internalType":"uint64"}],"anonymous":false},{"type":"event","name":"PendingSlashDecremented","inputs":[{"name":"operator","type":"address","indexed":true,"internalType":"address"},{"name":"newCount","type":"uint64","indexed":false,"internalType":"uint64"}],"anonymous":false},{"type":"event","name":"PendingSlashIncremented","inputs":[{"name":"operator","type":"address","indexed":true,"internalType":"address"},{"name":"newCount","type":"uint64","indexed":false,"internalType":"uint64"}],"anonymous":false},{"type":"event","name":"RoleAdminChanged","inputs":[{"name":"role","type":"bytes32","indexed":true,"internalType":"bytes32"},{"name":"previousAdminRole","type":"bytes32","indexed":true,"internalType":"bytes32"},{"name":"newAdminRole","type":"bytes32","indexed":true,"internalType":"bytes32"}],"anonymous":false},{"type":"event","name":"RoleGranted","inputs":[{"name":"role","type":"bytes32","indexed":true,"internalType":"bytes32"},{"name":"account","type":"address","indexed":true,"internalType":"address"},{"name":"sender","type":"address","indexed":true,"internalType":"address"}],"anonymous":false},{"type":"event","name":"RoleRevoked","inputs":[{"name":"role","type":"bytes32","indexed":true,"internalType":"bytes32"},{"name":"account","type":"address","indexed":true,"internalType":"address"},{"name":"sender","type":"address","indexed":true,"internalType":"address"}],"anonymous":false},{"type":"event","name":"SlashRecorded","inputs":[{"name":"operator","type":"address","indexed":true,"internalType":"address"},{"name":"slashId","type":"uint64","indexed":true,"internalType":"uint64"},{"name":"assetHash","type":"bytes32","indexed":false,"internalType":"bytes32"},{"name":"slashBps","type":"uint16","indexed":false,"internalType":"uint16"},{"name":"totalSlashed","type":"uint256","indexed":false,"internalType":"uint256"},{"name":"exchangeRateBefore","type":"uint256","indexed":false,"internalType":"uint256"},{"name":"exchangeRateAfter","type":"uint256","indexed":false,"internalType":"uint256"}],"anonymous":false},{"type":"event","name":"Slashed","inputs":[{"name":"operator","type":"address","indexed":true,"internalType":"address"},{"name":"serviceId","type":"uint64","indexed":true,"internalType":"uint64"},{"name":"blueprintId","type":"uint64","indexed":true,"internalType":"uint64"},{"name":"assetHash","type":"bytes32","indexed":false,"internalType":"bytes32"},{"name":"slashBps","type":"uint16","indexed":false,"internalType":"uint16"},{"name":"operatorSlashed","type":"uint256","indexed":false,"internalType":"uint256"},{"name":"delegatorsSlashed","type":"uint256","indexed":false,"internalType":"uint256"},{"name":"exchangeRateAfter","type":"uint256","indexed":false,"internalType":"uint256"}],"anonymous":false},{"type":"event","name":"SlashedForService","inputs":[{"name":"operator","type":"address","indexed":true,"internalType":"address"},{"name":"serviceId","type":"uint64","indexed":true,"internalType":"uint64"},{"name":"blueprintId","type":"uint64","indexed":true,"internalType":"uint64"},{"name":"totalSlashed","type":"uint256","indexed":false,"internalType":"uint256"},{"name":"commitmentCount","type":"uint256","indexed":false,"internalType":"uint256"}],"anonymous":false},{"type":"event","name":"Unpaused","inputs":[{"name":"account","type":"address","indexed":false,"internalType":"address"}],"anonymous":false},{"type":"event","name":"Upgraded","inputs":[{"name":"implementation","type":"address","indexed":true,"internalType":"address"}],"anonymous":false},{"type":"event","name":"WithdrawScheduled","inputs":[{"name":"delegator","type":"address","indexed":true,"internalType":"address"},{"name":"token","type":"address","indexed":true,"internalType":"address"},{"name":"amount","type":"uint256","indexed":false,"internalType":"uint256"},{"name":"readyRound","type":"uint64","indexed":false,"internalType":"uint64"}],"anonymous":false},{"type":"event","name":"Withdrawn","inputs":[{"name":"delegator","type":"address","indexed":true,"internalType":"address"},{"name":"token","type":"address","indexed":true,"internalType":"address"},{"name":"amount","type":"uint256","indexed":false,"internalType":"uint256"}],"anonymous":false},{"type":"error","name":"AccessControlBadConfirmation","inputs":[]},{"type":"error","name":"AccessControlUnauthorizedAccount","inputs":[{"name":"account","type":"address","internalType":"address"},{"name":"neededRole","type":"bytes32","internalType":"bytes32"}]},{"type":"error","name":"AddressEmptyCode","inputs":[{"name":"target","type":"address","internalType":"address"}]},{"type":"error","name":"ERC1967InvalidImplementation","inputs":[{"name":"implementation","type":"address","internalType":"address"}]},{"type":"error","name":"ERC1967NonPayable","inputs":[]},{"type":"error","name":"EnforcedPause","inputs":[]},{"type":"error","name":"ExpectedPause","inputs":[]},{"type":"error","name":"FailedCall","inputs":[]},{"type":"error","name":"InvalidInitialization","inputs":[]},{"type":"error","name":"NotAContract","inputs":[{"name":"account","type":"address","internalType":"address"}]},{"type":"error","name":"NotInitializing","inputs":[]},{"type":"error","name":"ReentrancyGuardReentrantCall","inputs":[]},{"type":"error","name":"SelectorAlreadyRegistered","inputs":[{"name":"selector","type":"bytes4","internalType":"bytes4"},{"name":"existingFacet","type":"address","internalType":"address"}]},{"type":"error","name":"UUPSUnauthorizedCallContext","inputs":[]},{"type":"error","name":"UUPSUnsupportedProxiableUUID","inputs":[{"name":"slot","type":"bytes32","internalType":"bytes32"}]},{"type":"error","name":"UnknownSelector","inputs":[{"name":"selector","type":"bytes4","internalType":"bytes4"}]},{"type":"error","name":"ZeroAddress","inputs":[]}],"bytecode":{"object":"0x60a06040523461003e5761001161004d565b610019610043565b6144dc61030782396080518181816139070152818161396c0152613b1b01526144dc90f35b610049565b60405190565b5f80fd5b61005561005f565b61005d61022a565b565b610067610069565b565b610071610073565b565b61007b61007d565b565b610085610087565b565b61008f610091565b565b61009961009b565b565b6100a36100a5565b565b6100ad6100af565b565b6100b76100b9565b565b6100c16100c3565b565b6100cb6100cd565b565b6100d56100d7565b565b6100df6100e1565b565b6100e961012d565b565b60018060a01b031690565b90565b61010d610108610112926100eb565b6100f6565b6100eb565b90565b61011e906100f9565b90565b61012a90610115565b90565b61013630610121565b608052565b60401c90565b60ff1690565b6101536101589161013b565b610141565b90565b6101659054610147565b90565b5f0190565b5f1c90565b60018060401b031690565b61018961018e9161016d565b610172565b90565b61019b905461017d565b90565b60018060401b031690565b5f1b90565b906101bf60018060401b03916101a9565b9181191691161790565b6101dd6101d86101e29261019e565b6100f6565b61019e565b90565b90565b906101fd6101f8610204926101c9565b6101e5565b82546101ae565b9055565b6102119061019e565b9052565b9190610228905f60208501940190610208565b565b6102326102e2565b61023d5f820161015b565b6102c65761024c5f8201610191565b61026461025e60018060401b0361019e565b9161019e565b0361026d575b50565b610280905f60018060401b0391016101e8565b60018060401b036102bd7fc7f505b2f371ae2175ee4913f4499e1f2633a7b5936321eed1cdaeb6115181d2916102b4610043565b91829182610215565b0390a15f61026a565b5f63f92ee8a960e01b8152806102de60048201610168565b0390fd5b7ff0c57e16840df040f15088dc2f81fe391c3923bec73e23a9662efc9c229c6a009056fe60806040526004361015610015575b3661355557005b61001f5f356103de565b806301ffc9a7146103d957806305d64e38146103d45780630aa8b110146103cf57806312d91c88146103ca57806318056dc2146103c557806319e82e61146103c0578063248a9ca3146103bb5780632f2ff15d146103b657806332273f61146103b157806336568abe146103ac578063453eccea146103a757806346d163aa146103a2578063491474111461039d5780634962f88f146103985780634de8addc146103935780634e9c929a1461038e5780634f1ef286146103895780635095af641461038457806352d1902d1461037f57806354de23201461037a5780635c975abb14610375578063602356e31461037057806366c368751461036b57806372b5032d1461036657806375b238fc1461036157806377ab2cf31461035c5780637df92ada1461035757806388c47f68146103525780638a19c8bc1461034d5780638a7fe60f1461034857806390837ff41461034357806391d148541461033e5780639480e4dd146103395780639494f42614610334578063960856731461032f5780639722f4b91461032a5780639e87058514610325578063a217fddf14610320578063a457af3d1461031b578063a4b32de814610316578063a7fa6f9814610311578063aaf5eb681461030c578063ad3cb1cc14610307578063b54b2b9e14610302578063b6608409146102fd578063ba05bbf5146102f8578063c07449e2146102f3578063c550d938146102ee578063cbb6d6bd146102e9578063d27a6f06146102e4578063d45ff582146102df578063d547741f146102da578063db8a173a146102d5578063dd764abf146102d0578063e07dec29146102cb578063e1a45218146102c6578063e27e05c1146102c1578063f3c9b311146102bc578063f72c0d8b146102b75763f7cb789a0361000e57612038565b611ff4565b611f90565b611f23565b611eee565b611e85565b611e1c565b611daa565b611d67565b611d32565b611cc4565b611c54565b611b92565b611b5c565b611aee565b611aaa565b611a3e565b6119fa565b6118cb565b611858565b6117eb565b611786565b611664565b6115f4565b611585565b61152f565b6114e0565b611471565b61143b565b611406565b6113d1565b61137a565b611338565b6112c9565b61125b565b6111eb565b611186565b611151565b61111c565b6110b8565b611083565b611016565b610fe1565b610f88565b610e2c565b610d7d565b610d38565b610ccb565b610c98565b610c45565b610bd9565b610ba4565b610b3a565b610ad8565b610a71565b6109aa565b610927565b610882565b61051f565b61046a565b60e01c90565b60405190565b5f80fd5b5f80fd5b5f80fd5b63ffffffff60e01b1690565b61040b816103f6565b0361041257565b5f80fd5b9050359061042382610402565b565b9060208282031261043e5761043b915f01610416565b90565b6103ee565b151590565b61045190610443565b9052565b9190610468905f60208501940190610448565b565b3461049a57610496610485610480366004610425565b612071565b61048d6103e4565b91829182610455565b0390f35b6103ea565b5f9103126104a957565b6103ee565b1c90565b60018060401b031690565b6104cd9060086104d293026104ae565b6104b2565b90565b906104e091546104bd565b90565b6104ef5f6010906104d5565b90565b60018060401b031690565b610506906104f2565b9052565b919061051d905f602085019401906104fd565b565b3461054f5761052f36600461049f565b61054b61053a6104e3565b6105426103e4565b9182918261050a565b0390f35b6103ea565b60018060a01b031690565b61056890610554565b90565b6105748161055f565b0361057b57565b5f80fd5b9050359061058c8261056b565b565b610597816104f2565b0361059e57565b5f80fd5b905035906105af8261058e565b565b91906040838203126105d957806105cd6105d6925f860161057f565b936020016105a2565b90565b6103ee565b90565b6105f56105f06105fa92610554565b6105de565b610554565b90565b610606906105e1565b90565b610612906105fd565b90565b9061061f90610609565b5f5260205260405f2090565b61063f61063a610644926104f2565b6105de565b6104f2565b90565b906106519061062b565b5f5260205260405f2090565b5f1c90565b61066e6106739161065d565b6104b2565b90565b6106809054610662565b90565b60401c90565b61069561069a91610683565b6104b2565b90565b6106a79054610689565b90565b60801c90565b6106bc6106c1916106aa565b6104b2565b90565b6106ce90546106b0565b90565b90565b6106e06106e59161065d565b6106d1565b90565b6106f290546106d4565b90565b61ffff1690565b61070861070d9161065d565b6106f5565b90565b61071a90546106fc565b90565b90565b61072c6107319161065d565b61071d565b90565b61073e9054610720565b90565b90610750610755926055610615565b610647565b6107605f8201610676565b9161076c5f830161069d565b916107785f82016106c4565b91610785600183016106e8565b9161079260028201610710565b9161079f60038301610734565b916107ac60048201610734565b916107c560066107be60058501610734565b93016106e8565b90565b90565b6107d4906107c8565b9052565b61ffff1690565b6107e8906107d8565b9052565b90565b6107f8906107ec565b9052565b9694929099989795939161012088019a5f8901610818916104fd565b60208801610825916104fd565b60408701610832916104fd565b6060860161083f916107cb565b6080850161084c916107df565b60a08401610859916107ef565b60c08301610866916107ef565b60e08201610873916107ef565b61010001610880916107cb565b565b346108bd576108b961089e6108983660046105b1565b90610741565b956108b09997999591959492946103e4565b998a998a6107fc565b0390f35b6103ea565b6108cb816107c8565b036108d257565b5f80fd5b905035906108e3826108c2565b565b919060408382031261090d578061090161090a925f860161057f565b936020016108d6565b90565b6103ee565b9190610925905f602085019401906107ef565b565b346109585761095461094361093d3660046108e5565b90612109565b61094b6103e4565b91829182610912565b0390f35b6103ea565b90565b61097461096f6109799261095d565b6105de565b6107d8565b90565b610987612af8610960565b90565b61099261097c565b90565b91906109a8905f602085019401906107df565b565b346109da576109ba36600461049f565b6109d66109c561098a565b6109cd6103e4565b91829182610995565b0390f35b6103ea565b5f80fd5b5f80fd5b5f80fd5b909182601f83011215610a235781359160018060401b038311610a1e576020019260208302840111610a1957565b6109e7565b6109e3565b6109df565b919091604081840312610a6757610a41835f830161057f565b92602082013560018060401b038111610a6257610a5e92016109eb565b9091565b6103f2565b6103ee565b5f0190565b34610aa057610a8a610a84366004610a28565b916121da565b610a926103e4565b80610a9c81610a6c565b0390f35b6103ea565b90602082820312610abe57610abb915f016108d6565b90565b6103ee565b9190610ad6905f602085019401906107cb565b565b34610b0857610b04610af3610aee366004610aa5565b612212565b610afb6103e4565b91829182610ac3565b0390f35b6103ea565b9190604083820312610b355780610b29610b32925f86016108d6565b9360200161057f565b90565b6103ee565b34610b6957610b53610b4d366004610b0d565b90612266565b610b5b6103e4565b80610b6581610a6c565b0390f35b6103ea565b610b7e906008610b8393026104ae565b6106f5565b90565b90610b919154610b6e565b90565b610ba16001601090610b86565b90565b34610bd457610bb436600461049f565b610bd0610bbf610b94565b610bc76103e4565b91829182610995565b0390f35b6103ea565b34610c0857610bf2610bec366004610b0d565b90612272565b610bfa6103e4565b80610c0481610a6c565b0390f35b6103ea565b90565b610c24610c1f610c2992610c0d565b6105de565b6107d8565b90565b610c37613e80610c10565b90565b610c42610c2c565b90565b34610c7557610c5536600461049f565b610c71610c60610c3a565b610c686103e4565b91829182610995565b0390f35b6103ea565b90602082820312610c9357610c90915f0161057f565b90565b6103ee565b34610cc657610cb0610cab366004610c7a565b6123b0565b610cb86103e4565b80610cc281610a6c565b0390f35b6103ea565b34610cfb57610cf7610ce6610ce1366004610c7a565b61248e565b610cee6103e4565b91829182610912565b0390f35b6103ea565b90565b610d17610d12610d1c92610d00565b6105de565b6107d8565b90565b610d2a612710610d03565b90565b610d35610d1f565b90565b34610d6857610d4836600461049f565b610d64610d53610d2d565b610d5b6103e4565b91829182610995565b0390f35b6103ea565b610d7a60016008906104d5565b90565b34610dad57610d8d36600461049f565b610da9610d98610d6d565b610da06103e4565b9182918261050a565b0390f35b6103ea565b9190604083820312610dda5780610dce610dd7925f86016105a2565b9360200161057f565b90565b6103ee565b90610de99061062b565b5f5260205260405f2090565b90610dff90610609565b5f5260205260405f2090565b610e24610e2992610e1f6058935f94610ddf565b610df5565b6104d5565b90565b34610e5d57610e59610e48610e42366004610db2565b90610e0b565b610e506103e4565b9182918261050a565b0390f35b6103ea565b5f80fd5b601f801991011690565b634e487b7160e01b5f52604160045260245ffd5b90610e8e90610e66565b810190811060018060401b03821117610ea657604052565b610e70565b90610ebe610eb76103e4565b9283610e84565b565b60018060401b038111610edc57610ed8602091610e66565b0190565b610e70565b90825f939282370152565b90929192610f01610efc82610ec0565b610eab565b93818552602085019082840111610f1d57610f1b92610ee1565b565b610e62565b9080601f83011215610f4057816020610f3d93359101610eec565b90565b6109df565b919091604081840312610f8357610f5e835f830161057f565b92602082013560018060401b038111610f7e57610f7b9201610f22565b90565b6103f2565b6103ee565b610f9c610f96366004610f45565b906124d6565b610fa46103e4565b80610fae81610a6c565b0390f35b7f12b42e8a160f6064dc959c6f251e3af0750ad213dbecf573b4710d67d6c28e3990565b610fde610fb2565b90565b3461101157610ff136600461049f565b61100d610ffc610fd6565b6110046103e4565b91829182610ac3565b0390f35b6103ea565b346110465761102636600461049f565b61104261103161254d565b6110396103e4565b91829182610ac3565b0390f35b6103ea565b90565b61106261105d6110679261104b565b6105de565b6107d8565b90565b611075612ee061104e565b90565b61108061106a565b90565b346110b35761109336600461049f565b6110af61109e611078565b6110a66103e4565b91829182610995565b0390f35b6103ea565b346110e8576110c836600461049f565b6110e46110d3612581565b6110db6103e4565b91829182610455565b0390f35b6103ea565b7f19449a4ad57e40a5aa77e785b4539e53ba9e7fedbf7076388ee3fb1bc2ddea1b90565b6111196110ed565b90565b3461114c5761112c36600461049f565b611148611137611111565b61113f6103e4565b91829182610ac3565b0390f35b6103ea565b346111815761117d61116c611167366004610c7a565b6125a3565b6111746103e4565b9182918261050a565b0390f35b6103ea565b346111b7576111b36111a261119c366004610db2565b906125c2565b6111aa6103e4565b9182918261050a565b0390f35b6103ea565b7fa49807205ce4d355092ef5a8a18f56e8913cf4a201fbe287825b095693c2177590565b6111e86111bc565b90565b3461121b576111fb36600461049f565b6112176112066111e0565b61120e6103e4565b91829182610ac3565b0390f35b6103ea565b60ff1690565b61123690600861123b93026104ae565b611220565b90565b906112499154611226565b90565b61125860055f9061123e565b90565b3461128b5761126b36600461049f565b61128761127661124c565b61127e6103e4565b91829182610455565b0390f35b6103ea565b90565b6112a76112a26112ac92611290565b6105de565b6104f2565b90565b6112bb624f1a00611293565b90565b6112c66112af565b90565b346112f9576112d936600461049f565b6112f56112e46112be565b6112ec6103e4565b9182918261050a565b0390f35b6103ea565b90565b61131561131061131a926112fe565b6105de565b6107ec565b90565b61132a6305f5e100611301565b90565b61133561131d565b90565b346113685761134836600461049f565b61136461135361132d565b61135b6103e4565b91829182610912565b0390f35b6103ea565b6113775f806104d5565b90565b346113aa5761138a36600461049f565b6113a661139561136d565b61139d6103e4565b9182918261050a565b0390f35b6103ea565b6113b89061055f565b9052565b91906113cf905f602085019401906113af565b565b34611401576113fd6113ec6113e7366004610c7a565b612630565b6113f46103e4565b918291826113bc565b0390f35b6103ea565b346114365761143261142161141c366004610425565b61264f565b6114296103e4565b918291826113bc565b0390f35b6103ea565b3461146c57611468611457611451366004610b0d565b9061267a565b61145f6103e4565b91829182610455565b0390f35b6103ea565b346114a15761149d61148c611487366004610c7a565b6126ac565b6114946103e4565b9182918261050a565b0390f35b6103ea565b90916060828403126114db576114d86114c1845f850161057f565b936114cf81602086016105a2565b9360400161057f565b90565b6103ee565b346115115761150d6114fc6114f63660046114a6565b916128e4565b6115046103e4565b91829182610912565b0390f35b6103ea565b61152c906115276056915f92610df5565b6104d5565b90565b3461155f5761155b61154a611545366004610c7a565b611516565b6115526103e4565b9182918261050a565b0390f35b6103ea565b61157d611582926115786057935f94610ddf565b610df5565b6104d5565b90565b346115b6576115b26115a161159b366004610db2565b90611564565b6115a96103e4565b9182918261050a565b0390f35b6103ea565b90565b6115d26115cd6115d7926115bb565b6105de565b6104f2565b90565b6115e662278d006115be565b90565b6115f16115da565b90565b346116245761160436600461049f565b61162061160f6115e9565b6116176103e4565b9182918261050a565b0390f35b6103ea565b90565b5f1b90565b61164561164061164a92611629565b61162c565b6107c8565b90565b6116565f611631565b90565b61166161164d565b90565b346116945761167436600461049f565b61169061167f611659565b6116876103e4565b91829182610ac3565b0390f35b6103ea565b6116a2906104f2565b9052565b6116af906107c8565b9052565b6116bc906107d8565b9052565b6116c9906107ec565b9052565b906101008061176e936116e65f8201515f860190611699565b6116f860208201516020860190611699565b61170a60408201516040860190611699565b61171c606082015160608601906116a6565b61172e608082015160808601906116b3565b61174060a082015160a08601906116c0565b61175260c082015160c08601906116c0565b61176460e082015160e08601906116c0565b01519101906116a6565b565b9190611784905f61012085019401906116cd565b565b346117b7576117b36117a261179c3660046105b1565b90612a92565b6117aa6103e4565b91829182611770565b0390f35b6103ea565b7fb1fadd3142ab2ad7f1337ea4d97112bcc8337fc11ce5b20cb04ad038adf9981990565b6117e86117bc565b90565b3461181b576117fb36600461049f565b6118176118066117e0565b61180e6103e4565b91829182610ac3565b0390f35b6103ea565b90565b61183761183261183c92611820565b6105de565b6107d8565b90565b61184a6132c8611823565b90565b61185561183f565b90565b346118885761186836600461049f565b61188461187361184d565b61187b6103e4565b91829182610995565b0390f35b6103ea565b90565b6118a461189f6118a99261188d565b6105de565b6107ec565b90565b6118bd670de0b6b3a7640000611890565b90565b6118c86118ac565b90565b346118fb576118db36600461049f565b6118f76118e66118c0565b6118ee6103e4565b91829182610912565b0390f35b6103ea565b60018060401b03811161191c57611918602091610e66565b0190565b610e70565b9061193361192e83611900565b610eab565b918252565b5f7f352e302e30000000000000000000000000000000000000000000000000000000910152565b6119696005611921565b9061197660208301611938565b565b61198061195f565b90565b61198b611978565b90565b611996611983565b90565b5190565b60209181520190565b90825f9392825e0152565b6119d06119d96020936119de936119c781611999565b9384809361199d565b958691016119a6565b610e66565b0190565b6119f79160208201915f8184039101526119b1565b90565b34611a2a57611a0a36600461049f565b611a26611a1561198e565b611a1d6103e4565b918291826119e2565b0390f35b6103ea565b611a3b60075f9061123e565b90565b34611a6e57611a4e36600461049f565b611a6a611a59611a2f565b611a616103e4565b91829182610455565b0390f35b6103ea565b90565b611a8a611a85611a8f92611a73565b6105de565b6107ec565b90565b611a9c6001611a76565b90565b611aa7611a92565b90565b34611ada57611aba36600461049f565b611ad6611ac5611a9f565b611acd6103e4565b91829182610912565b0390f35b6103ea565b611aeb5f6018906104d5565b90565b34611b1e57611afe36600461049f565b611b1a611b09611adf565b611b116103e4565b9182918261050a565b0390f35b6103ea565b90602080611b4593611b3b5f8201515f8601906116c0565b01519101906116c0565b565b9190611b5a905f60408501940190611b23565b565b34611b8d57611b89611b78611b72366004610db2565b90612b69565b611b806103e4565b91829182611b47565b0390f35b6103ea565b34611bc357611bbf611bae611ba8366004610db2565b90612b91565b611bb66103e4565b9182918261050a565b0390f35b6103ea565b611bd1816107ec565b03611bd857565b5f80fd5b90503590611be982611bc8565b565b611bf4816107d8565b03611bfb57565b5f80fd5b90503590611c0c82611beb565b565b608081830312611c4f57611c24825f830161057f565b92611c4c611c358460208501611bdc565b93611c438160408601611bdc565b93606001611bff565b90565b6103ee565b34611c8657611c70611c67366004611c0e565b9291909161337f565b611c786103e4565b80611c8281610a6c565b0390f35b6103ea565b90565b611ca2611c9d611ca792611c8b565b6105de565b6104f2565b90565b611cb66276a700611c8e565b90565b611cc1611caa565b90565b34611cf457611cd436600461049f565b611cf0611cdf611cb9565b611ce76103e4565b9182918261050a565b0390f35b6103ea565b90565b611d10611d0b611d1592611cf9565b6105de565b6104f2565b90565b611d2462093a80611cfc565b90565b611d2f611d18565b90565b34611d6257611d4236600461049f565b611d5e611d4d611d27565b611d556103e4565b9182918261050a565b0390f35b6103ea565b34611d9657611d80611d7a366004610b0d565b906133b7565b611d886103e4565b80611d9281610a6c565b0390f35b6103ea565b611da760015f906104d5565b90565b34611dda57611dba36600461049f565b611dd6611dc5611d9b565b611dcd6103e4565b9182918261050a565b0390f35b6103ea565b90565b611df6611df1611dfb92611ddf565b6105de565b6107ec565b90565b611e0e662386f26fc10000611de2565b90565b611e19611dfe565b90565b34611e4c57611e2c36600461049f565b611e48611e37611e11565b611e3f6103e4565b91829182610912565b0390f35b6103ea565b90602082820312611e80575f82013560018060401b038111611e7b57611e7792016109eb565b9091565b6103f2565b6103ee565b34611eb457611e9e611e98366004611e51565b90613418565b611ea66103e4565b80611eb081610a6c565b0390f35b6103ea565b611ecd611ec8611ed292610d00565b6105de565b6107ec565b90565b611ee0612710611eb9565b90565b611eeb611ed5565b90565b34611f1e57611efe36600461049f565b611f1a611f09611ee3565b611f116103e4565b91829182610912565b0390f35b6103ea565b34611f5257611f3c611f363660046105b1565b90613549565b611f446103e4565b80611f4e81610a6c565b0390f35b6103ea565b90565b611f6e611f69611f7392611f57565b6105de565b6104f2565b90565b611f8262ed4e00611f5a565b90565b611f8d611f76565b90565b34611fc057611fa036600461049f565b611fbc611fab611f85565b611fb36103e4565b9182918261050a565b0390f35b6103ea565b7f189ab7a9244df0848122154315af71fe140f3db0fe014031783b0946b8c9d2e390565b611ff1611fc5565b90565b346120245761200436600461049f565b61202061200f611fe9565b6120176103e4565b91829182610ac3565b0390f35b6103ea565b6120355f6008906104d5565b90565b346120685761204836600461049f565b612064612053612029565b61205b6103e4565b9182918261050a565b0390f35b6103ea565b5f90565b61207961206d565b508061209461208e637965db0b60e01b6103f6565b916103f6565b149081156120a1575b5090565b6120ab915061355a565b5f61209d565b5f90565b906120bf90610609565b5f5260205260405f2090565b6120d4906107c8565b90565b906120e1906120cb565b5f5260205260405f2090565b6121016120fc61210692611629565b6105de565b6107ec565b90565b61212e916121246121299261211c6120b1565b5060116120b5565b6120d7565b610734565b8061214161213b5f6120ed565b916107ec565b145f1461215557506121516118ac565b5b90565b612152565b60018060401b0381116121705760208091020190565b610e70565b9092919261218a6121858261215a565b610eab565b93818552602080860192028301928184116121c757915b8383106121ae5750505050565b602080916121bc8486610416565b8152019201916121a1565b6109e7565b6121d7913691612175565b90565b6121f6926121f0916121ea613592565b926121cc565b906135cd565b565b5f90565b90612206906120cb565b5f5260205260405f2090565b6001612233612239926122236121f8565b505f61222d613741565b016121fc565b016106e8565b90565b906122579161225261224d82612212565b613765565b612259565b565b9061226391613779565b50565b906122709161223c565b565b908061228d612287612282613830565b61055f565b9161055f565b0361229e5761229b9161383d565b50565b5f63334bd91960e11b8152806122b660048201610a6c565b0390fd5b6122c3906105e1565b90565b6122cf906122ba565b90565b6122db906105fd565b90565b60e01b90565b905051906122f182610402565b565b909291926123086123038261215a565b610eab565b938185526020808601920283019281841161234557915b83831061232c5750505050565b6020809161233a84866122e4565b81520192019161231f565b6109e7565b9080601f8301121561236857816020612365935191016122f3565b90565b6109df565b9060208282031261239b575f82015160018060401b03811161239657612393920161234a565b90565b6103f2565b6103ee565b6123a86103e4565b3d5f823e3d90fd5b6123b8613592565b6123e35f6123cd6123c8846122c6565b6122d2565b636e25b978906123db6103e4565b9384926122de565b825281806123f360048201610a6c565b03915afa80156124735761240f915f91612451575b50826135cd565b6124397f4d3c30f5993f1922a779345a0f7ec1a170f1e52e9d230824f9c17e63596c906d91610609565b906124426103e4565b8061244c81610a6c565b0390a2565b61246d91503d805f833e6124658183610e84565b81019061236d565b5f612408565b6123a0565b9061248290610609565b5f5260205260405f2090565b6124a56124aa9161249d6120b1565b50601b612478565b610734565b90565b906124bf916124ba6138f6565b6124c1565b565b906124d4916124cf816139b0565b613a0c565b565b906124e0916124ad565b565b6124f3906124ee613b0a565b612541565b90565b90565b61250d612508612512926124f6565b61162c565b6107c8565b90565b61253e7f360894a13ba1a3210667c828492db98dca3e2076cc3735a920a3ca505d382bbc6124f9565b90565b5061254a612515565b90565b61255d6125586121f8565b6124e2565b90565b61256c6125719161065d565b611220565b90565b61257e9054612560565b90565b61258961206d565b5061259c5f612596613b68565b01612574565b90565b5f90565b6125ba6125bf916125b261259f565b506056610df5565b610676565b90565b6125e7916125dd6125e2926125d561259f565b506057610ddf565b610df5565b610676565b90565b5f90565b906125f890610609565b5f5260205260405f2090565b60018060a01b031690565b61261b6126209161065d565b612604565b90565b61262d905461260f565b90565b61264761264c9161263f6125ea565b5060066125ee565b612623565b90565b6126619061265b6125ea565b50613ba2565b90565b9061266e90610609565b5f5260205260405f2090565b6126a9915f61269e6126a49361268e61206d565b5082612698613741565b016121fc565b01612664565b612574565b90565b6126c36126c8916126bb61259f565b506023610df5565b610676565b90565b906126d5906104f2565b9052565b906126e3906107c8565b9052565b906126f1906107d8565b9052565b906126ff906107ec565b9052565b61270e610120610eab565b90565b906127ef6127e56006612722612703565b946127396127315f8301610676565b5f88016126cb565b6127506127475f830161069d565b602088016126cb565b61276761275e5f83016106c4565b604088016126cb565b61277f612776600183016106e8565b606088016126d9565b61279761278e60028301610710565b608088016126e7565b6127af6127a660038301610734565b60a088016126f5565b6127c76127be60048301610734565b60c088016126f5565b6127df6127d660058301610734565b60e088016126f5565b016106e8565b61010084016126d9565b565b6127fa90612711565b90565b61280790516104f2565b90565b61281e61281961282392611629565b6105de565b6104f2565b90565b61283090516107c8565b90565b61283d90516107ec565b90565b634e487b7160e01b5f52601160045260245ffd5b612863612869919392936107ec565b926107ec565b820391821161287457565b612840565b61288861288e919392936107ec565b926107ec565b9161289a8382026107ec565b9281840414901517156128a957565b612840565b634e487b7160e01b5f52601260045260245ffd5b6128ce6128d4916107ec565b916107ec565b9081156128df570490565b6128ae565b9291909261290d6129086128f66120b1565b9561290360558590610615565b610647565b6127f1565b916129195f84016127fd565b61292b6129255f61280a565b916104f2565b146129ec5790612948919061294260608501612826565b91613cd6565b908161295c6129565f6120ed565b916107ec565b146129dc5761296d60c08201612833565b61298a61298461297f60e08501612833565b6107ec565b916107ec565b11612994575b5050565b6129d4929350906129c0826129ba60e06129b360c06129c69701612833565b9201612833565b90612854565b90612879565b6129ce6118ac565b906128c2565b905f80612990565b505090506129e95f6120ed565b90565b50505090506129fa5f6120ed565b90565b5f90565b5f90565b5f90565b5f90565b612a15612703565b90602080808080808080808a612a296129fd565b815201612a346129fd565b815201612a3f6129fd565b815201612a4a612a01565b815201612a55612a05565b815201612a60612a09565b815201612a6b612a09565b815201612a76612a09565b815201612a81612a01565b81525050565b612a8f612a0d565b90565b612ab791612aad612ab292612aa5612a87565b506055610615565b610647565b6127f1565b90565b612ac46040610eab565b90565b612acf612aba565b9060208083612adc612a09565b815201612ae7612a09565b81525050565b612af5612ac7565b90565b90612b029061062b565b5f5260205260405f2090565b90612b1890610609565b5f5260205260405f2090565b90612b5b612b526001612b35612aba565b94612b4c612b445f8301610734565b5f88016126f5565b01610734565b602084016126f5565b565b612b6690612b24565b90565b612b8e91612b84612b8992612b7c612aed565b506010612af8565b612b0e565b612b5d565b90565b612bb691612bac612bb192612ba461259f565b506058610ddf565b610df5565b610676565b90565b612bc5612bca91610683565b611220565b90565b612bd79054612bb9565b90565b612bee612be9612bf392611a73565b6105de565b6104f2565b90565b612bff906105fd565b90565b90612c1360018060401b039161162c565b9181191691161790565b90565b90612c35612c30612c3c9261062b565b612c1d565b8254612c02565b9055565b60401b90565b90612c5560ff60401b91612c40565b9181191691161790565b612c6890610443565b90565b90565b90612c83612c7e612c8a92612c5f565b612c6b565b8254612c46565b9055565b612c9790612bda565b9052565b9190612cae905f60208501940190612c8e565b565b909192612cbb613dc5565b93612cd0612cca5f8701612bcd565b15610443565b93612cdc5f8701610676565b80612cef612ce95f61280a565b916104f2565b1480612e09575b90612d0a612d046001612bda565b916104f2565b1480612de1575b612d1c909115610443565b9081612dd0575b50612db457612d4c93612d41612d396001612bda565b5f8901612c20565b85612da2575b6131c1565b612d54575b50565b612d61905f809101612c6e565b6001612d997fc7f505b2f371ae2175ee4913f4499e1f2633a7b5936321eed1cdaeb6115181d291612d906103e4565b91829182612c9b565b0390a15f612d51565b612daf60015f8901612c6e565b612d47565b5f63f92ee8a960e01b815280612dcc60048201610a6c565b0390fd5b612ddb915015610443565b5f612d23565b50612d1c612dee30612bf6565b3b612e01612dfb5f6120ed565b916107ec565b149050612d11565b5085612cf6565b612e24612e1f612e2992611629565b6105de565b610554565b90565b612e3590612e10565b90565b612e426040610eab565b90565b634e487b7160e01b5f52602160045260245ffd5b60021115612e6357565b612e45565b90612e7282612e59565b565b90612e7e90612e68565b9052565b90612e8c9061055f565b9052565b612ea4612e9f612ea9926107ec565b6105de565b6107d8565b90565b612eb660c0610eab565b90565b90612ec390610443565b9052565b90612ed1906120cb565b5f5260205260405f2090565b612ee79051610443565b90565b90612ef660ff9161162c565b9181191691161790565b90612f15612f10612f1c92612c5f565b612c6b565b8254612eea565b9055565b90612f2c5f199161162c565b9181191691161790565b612f4a612f45612f4f926107ec565b6105de565b6107ec565b90565b90565b90612f6a612f65612f7192612f36565b612f52565b8254612f20565b9055565b612f7f90516107d8565b90565b90612f8f61ffff9161162c565b9181191691161790565b612fad612fa8612fb2926107d8565b6105de565b6107d8565b90565b90565b90612fcd612fc8612fd492612f99565b612fb5565b8254612f82565b9055565b9061306760a0600561306d94612ffb5f8201612ff55f8801612edd565b90612f00565b6130146001820161300e60208801612833565b90612f55565b61302d6002820161302760408801612833565b90612f55565b6130466003820161304060608801612833565b90612f55565b61305f6004820161305960808801612833565b90612f55565b019201612f75565b90612fb8565b565b9061307991612fd8565b565b60801b90565b9061309161ffff60801b9161307b565b9181191691161790565b906130b06130ab6130b792612f99565b612fb5565b8254613081565b9055565b90565b6130d26130cd6130d7926130bb565b6105de565b6104f2565b90565b6130e56154606130be565b90565b906130fd600160401b600160801b0391612c40565b9181191691161790565b9061311c6131176131239261062b565b612c1d565b82546130e8565b9055565b90565b61313e61313961314392613127565b6105de565b6104f2565b90565b613150601c61312a565b90565b60c01b90565b9061316b60018060c01b031991613153565b9181191691161790565b9061318a6131856131919261062b565b612c1d565b8254613159565b9055565b90565b6131ac6131a76131b192613195565b6105de565b6104f2565b90565b6131be6038613198565b90565b9190916131cc613df3565b6131d4613e07565b6131dc613e2d565b6131e4613e53565b6131ec61164d565b816131f691613779565b506131ff6111bc565b8161320991613779565b506132126117bc565b8161321c91613779565b50613225611fc5565b9061322f91613779565b505f8061323b90612e2c565b613243612e38565b915f83019061325191612e74565b602082019061325f91612e82565b61326890613ebd565b90600192905f8091613278611ed5565b61328190612e90565b9361328a612eac565b965f88019061329891612eb9565b60208701906132a6916126f5565b60408601906132b4916126f5565b6132bd906120ed565b60608501906132cb916126f5565b6132d4906120ed565b60808401906132e2916126f5565b60a08301906132f0916126e7565b6002906132fc91612ec7565b906133069161306f565b6001613313906005612f00565b61331e90600161309b565b600161332990612bda565b613333905f612c20565b61333b6130da565b613345905f613107565b61334d613146565b613357905f613175565b61335f613146565b61336a906001612c20565b6133726131b4565b61337d906001613107565b565b9061338b939291612cb0565b565b906133a8916133a361339e82612212565b613765565b6133aa565b565b906133b49161383d565b50565b906133c19161338d565b565b60016133cf91016107ec565b90565b5090565b634e487b7160e01b5f52603260045260245ffd5b91908110156133fa576020020190565b6133d6565b3561340981610402565b90565b613415906103f6565b90565b919091613423613592565b61342c5f6120ed565b5b8061344a61344461343f8588906133d2565b6107ec565b916107ec565b10156134ce576134c99061347061346b613466858885916133ea565b6133ff565b613f84565b61348461347f848784916133ea565b6133ff565b6134ae7fbeb27701828f515b03069d44da6519b6c491da13ef1ca7082e619959d1f48ddb9161340c565b906134b76103e4565b806134c181610a6c565b0390a26133c3565b61342d565b50509050565b906134ee916134e96134e46111bc565b613765565b6134f0565b565b6135058261350060238490610df5565b612c20565b6135446135327f90b37e59a942c5413ce00a3a844a47c20094979897cc653606d925e909885f3592610609565b9261353b6103e4565b9182918261050a565b0390a2565b90613553916134d4565b565b613f9a565b61356261206d565b5061357c6135766301ffc9a760e01b6103f6565b916103f6565b1490565b61359061358b6111bc565b613765565b565b61359a613580565b565b5190565b906135aa8261359c565b8110156135bb576020809102010190565b6133d6565b6135ca90516103f6565b90565b9190826135ea6135e46135df5f612e2c565b61055f565b9161055f565b1461373c57823b6136036135fd5f6120ed565b916107ec565b14613736576136115f6120ed565b5b8061362d6136276136228561359c565b6107ec565b916107ec565b10156137305761364e6136496136448484906135a0565b6135c0565b613ba2565b8061366961366361365e5f612e2c565b61055f565b9161055f565b141580613715575b6136fe57506136f99061369761369061368b8584906135a0565b6135c0565b86906140a1565b6136aa6136a58483906135a0565b6135c0565b856136de6136d87f12557f25e458d9682d7c959b5a960bc9332e8b7af1120b54a333bfc1ff282b399361340c565b91610609565b916136e76103e4565b806136f181610a6c565b0390a36133c3565b613612565b61371061370b83856135a0565b6135c0565b614048565b50806137296137238761055f565b9161055f565b1415613671565b50509050565b82613ff9565b613fdd565b7f02dd7bc7dec4dceedda775e58dd541e08a116c6c53815c0bd028192f7b62680090565b61377790613771613830565b906140da565b565b61378161206d565b5061378a613741565b61379e61379883859061267a565b15610443565b5f14613829576137c8906137c35f6137bb816001940186906121fc565b018590612664565b612f00565b906137d1613830565b9061380e6138086138027f2f8788117e7eff1d82e926ec794901d17c78024a50270940304540a733656f0d956120cb565b92610609565b92610609565b926138176103e4565b8061382181610a6c565b0390a4600190565b5050505f90565b6138386125ea565b503390565b61384561206d565b5061384e613741565b61385982849061267a565b5f146138e3576138829061387d5f6138758180940186906121fc565b018590612664565b612f00565b9061388b613830565b906138c86138c26138bc7ff6391f5c32d9c69d2a47ea670b442974b53935d1edc7fd64eb21e047a839171b956120cb565b92610609565b92610609565b926138d16103e4565b806138db81610a6c565b0390a4600190565b5050505f90565b6138f3906105fd565b90565b6138ff306138ea565b61393161392b7f000000000000000000000000000000000000000000000000000000000000000061055f565b9161055f565b14801561395b575b61393f57565b5f63703e46dd60e11b81528061395760048201610a6c565b0390fd5b50613964614115565b6139966139907f000000000000000000000000000000000000000000000000000000000000000061055f565b9161055f565b1415613939565b506139ae6139a9611fc5565b613765565b565b6139b99061399d565b565b6139c4906105e1565b90565b6139d0906139bb565b90565b6139dc906105fd565b90565b905051906139ec826108c2565b565b90602082820312613a0757613a04915f016139df565b90565b6103ee565b9190613a3a6020613a24613a1f866139c7565b6139d3565b6352d1902d90613a326103e4565b9384926122de565b82528180613a4a60048201610a6c565b03915afa80915f92613ada575b50155f14613a8b575050906001613a6c57505b565b613a87905f918291634c9c8ce360e01b8352600483016113bc565b0390fd5b9283613aa6613aa0613a9b612515565b6107c8565b916107c8565b03613abb57613ab692935061413b565b613a6a565b613ad6845f918291632a87526960e21b835260048301610ac3565b0390fd5b613afc91925060203d8111613b03575b613af48183610e84565b8101906139ee565b905f613a57565b503d613aea565b613b13306138ea565b613b45613b3f7f000000000000000000000000000000000000000000000000000000000000000061055f565b9161055f565b03613b4c57565b5f63703e46dd60e11b815280613b6460048201610a6c565b0390fd5b7fcd5ed15c6e187e77e9aee88184c21f4f2182ab5827cb3b7e07fbedcd63f0330090565b90613b969061340c565b5f5260205260405f2090565b613bb9613bbe91613bb16125ea565b506021613b8c565b612623565b90565b90613bcb90610609565b5f5260205260405f2090565b90565b5490565b5f5260205f2090565b613bf081613bda565b821015613c0a57613c02600491613bde565b910201905f90565b6133d6565b90565b60ff1690565b613c24613c299161065d565b613c12565b90565b613c369054613c18565b90565b60081c90565b613c4b613c5091613c39565b612604565b90565b613c5d9054613c3f565b90565b613c6a6040610eab565b90565b90613ca3613c9a5f613c7d613c60565b94613c94613c8c838301613c2c565b838801612e74565b01613c53565b60208401612e82565b565b613cae90613c6d565b90565b613cc0613cc6919392936107ec565b926107ec565b8201809211613cd157565b612840565b929192613cf4613cef613ce76120b1565b926015613bc1565b613bd7565b93613cfe85613bda565b93613d085f6120ed565b5b80613d1c613d16886107ec565b916107ec565b1015613dbc57613d36613d30888390613be7565b50613c0f565b613d415f8201612623565b613d53613d4d8861055f565b9161055f565b1480613d8f575b613d6e575b50613d69906133c3565b613d09565b613d699194613d826001613d889301610734565b90613cb1565b9390613d5f565b50613da4613d9f60028301613ca5565b613ebd565b613db6613db0866107c8565b916107c8565b14613d5a565b50935050925050565b7ff0c57e16840df040f15088dc2f81fe391c3923bec73e23a9662efc9c229c6a0090565b613df16141c4565b565b613dfb613de9565b565b613e056141c4565b565b613e0f613dfd565b565b613e196141c4565b613e21613e23565b565b613e2b61421f565b565b613e35613e11565b565b613e3f6141c4565b613e47613e49565b565b613e51614265565b565b613e5b613e37565b565b613e679051612e68565b90565b613e74905161055f565b90565b613e8090612e68565b90565b613e8c90613e77565b9052565b916020613eb1929493613eaa60408201965f830190613e83565b01906113af565b565b60200190565b5190565b613ec56121f8565b50613f07613ee06020613ed95f8501613e5d565b9301613e6a565b91613ef8613eec6103e4565b93849260208401613e90565b60208201810382520382610e84565b613f19613f1382613eb9565b91613eb3565b2090565b1b90565b91906008613f41910291613f3b60018060a01b0384613f1d565b92613f1d565b9181191691161790565b90565b9190613f64613f5f613f6c93610609565b613f4b565b908354613f21565b9055565b613f8291613f7c6125ea565b91613f4e565b565b5f613f93613f98926021613b8c565b613f70565b565b613fad63ffffffff60e01b5f3516613ba2565b80613fc8613fc2613fbd5f612e2c565b61055f565b9161055f565b036142a35763ffffffff60e01b5f3516614284565b5f63d92e233d60e01b815280613ff560048201610a6c565b0390fd5b614014905f9182916322a2d07b60e21b8352600483016113bc565b0390fd5b614021906103f6565b9052565b91602061404692949361403f60408201965f830190614018565b01906113af565b565b6140625f9283926310ae11a960e31b845260048401614025565b0390fd5b9061407760018060a01b039161162c565b9181191691161790565b9061409661409161409d92610609565b613f4b565b8254614066565b9055565b6140b06140b592916021613b8c565b614081565b565b9160206140d89294936140d160408201965f8301906113af565b01906107cb565b565b906140ef6140e983839061267a565b15610443565b6140f7575050565b6141115f92839263e2517d3f60e01b8452600484016140b7565b0390fd5b61411d6125ea565b506141385f61413261412d612515565b6142c1565b01612623565b90565b90614145826142c4565b816141707fbc7cd75a20ee27fd9adebab32041f755214dbc6bffa90cc0225b39da2e5c2d3b91610609565b906141796103e4565b8061418381610a6c565b0390a261418f81613eb9565b6141a161419b5f6120ed565b916107ec565b115f146141b5576141b191614394565b505b565b50506141bf614319565b6141b3565b6141d56141cf6143c3565b15610443565b6141db57565b5f631afcd79f60e31b8152806141f360048201610a6c565b0390fd5b6141ff6141c4565b614207614209565b565b61421d614214613b68565b5f809101612f00565b565b6142276141f7565b565b6142316141c4565b614239614248565b565b6142456001611a76565b90565b6142636142536143e1565b5f61425c61423b565b9101612f55565b565b61426d614229565b565b9190614282905f60208501940190614018565b565b61429f905f91829163c2a825f560e01b83526004830161426f565b0390fd5b5f8091368280378136915af43d5f803e5f146142bd573d5ff35b3d5ffd5b90565b803b6142d86142d25f6120ed565b916107ec565b146142fa576142f8905f6142f26142ed612515565b6142c1565b01614081565b565b614315905f918291634c9c8ce360e01b8352600483016113bc565b0390fd5b3461432c6143265f6120ed565b916107ec565b1161433357565b5f63b398979f60e01b81528061434b60048201610a6c565b0390fd5b606090565b9061436661436183610ec0565b610eab565b918252565b3d5f146143865761437b3d614354565b903d5f602084013e5b565b61438e61434f565b90614384565b5f806143c0936143a261434f565b508390602081019051915af4906143b761436b565b90919091614405565b90565b6143cb61206d565b506143de5f6143d8613dc5565b01612bcd565b90565b7f9b779b17422d0df92223018b32b4d1fa46e071723d6817e2486d003becc55f0090565b906144199061441261434f565b5015610443565b5f146144255750614489565b61442e82613eb9565b61444061443a5f6120ed565b916107ec565b148061446e575b61444f575090565b61446a905f918291639996b31560e01b8352600483016113bc565b0390fd5b50803b61448361447d5f6120ed565b916107ec565b14614447565b61449281613eb9565b6144a461449e5f6120ed565b916107ec565b115f146144b357805190602001fd5b5f63d6bda27560e01b8152806144cb60048201610a6c565b0390fdfea164736f6c634300081a000a","linkReferences":{}},"methodIdentifiers":{"ADMIN_ROLE()":"75b238fc","ASSET_MANAGER_ROLE()":"a4b32de8","BPS_DENOMINATOR()":"e1a45218","COMMISSION_CHANGE_DELAY()":"d45ff582","DEFAULT_ADMIN_ROLE()":"a217fddf","LOCK_ONE_MONTH()":"9e870585","LOCK_SIX_MONTHS()":"f3c9b311","LOCK_THREE_MONTHS()":"d27a6f06","LOCK_TWO_MONTHS()":"7df92ada","MIN_LOCK_AMOUNT()":"dd764abf","MULTIPLIER_NONE()":"4962f88f","MULTIPLIER_ONE_MONTH()":"18056dc2","MULTIPLIER_SIX_MONTHS()":"453eccea","MULTIPLIER_THREE_MONTHS()":"a7fa6f98","MULTIPLIER_TWO_MONTHS()":"54de2320","PRECISION()":"aaf5eb68","SLASHER_ROLE()":"5095af64","TANGLE_ROLE()":"602356e3","UPGRADER_ROLE()":"f72c0d8b","UPGRADE_INTERFACE_VERSION()":"ad3cb1cc","VIRTUAL_ASSETS()":"b6608409","VIRTUAL_SHARES()":"88c47f68","blueprintSlashCount(uint64,address)":"4e9c929a","clearFacetSelectors(bytes4[])":"e07dec29","currentRound()":"8a19c8bc","delegationBondLessDelay()":"ba05bbf5","facetForSelector(bytes4)":"90837ff4","getAccumulatedDust(address)":"49147411","getAssetAdapter(address)":"8a7fe60f","getOperatorSlashFactor(address,bytes32)":"12d91c88","getPendingSlashCount(address)":"9480e4dd","getRoleAdmin(bytes32)":"248a9ca3","getSlashCount(address)":"66c36875","getSlashCountForBlueprint(uint64,address)":"c550d938","getSlashCountForService(uint64,address)":"72b5032d","getSlashImpact(address,uint64,address)":"9494f426","getSlashRecord(address,uint64)":"a457af3d","getSnapshot(uint64,address)":"c07449e2","grantRole(bytes32,address)":"2f2ff15d","hasRole(bytes32,address)":"91d14854","initialize(address,uint256,uint256,uint16)":"cbb6d6bd","lastRoundAdvance()":"05d64e38","leaveDelegatorsDelay()":"db8a173a","leaveOperatorsDelay()":"4de8addc","nativeEnabled()":"77ab2cf3","nextSlashId(address)":"96085673","operatorCommissionBps()":"32273f61","paused()":"5c975abb","proxiableUUID()":"52d1902d","registerFacet(address)":"46d163aa","registerFacetSelectors(address,bytes4[])":"19e82e61","renounceRole(bytes32,address)":"36568abe","requireAdapters()":"b54b2b9e","resetPendingSlashCount(address,uint64)":"e27e05c1","revokeRole(bytes32,address)":"d547741f","roundDuration()":"f7cb789a","serviceSlashCount(uint64,address)":"9722f4b9","slashHistory(address,uint64)":"0aa8b110","supportsInterface(bytes4)":"01ffc9a7","upgradeToAndCall(address,bytes)":"4f1ef286"},"id":118}