{"abi":[{"type":"constructor","inputs":[],"stateMutability":"nonpayable"},{"type":"receive","stateMutability":"payable"},{"type":"function","name":"ADMIN_ROLE","inputs":[],"outputs":[{"name":"","type":"bytes32","internalType":"bytes32"}],"stateMutability":"view"},{"type":"function","name":"ASSET_MANAGER_ROLE","inputs":[],"outputs":[{"name":"","type":"bytes32","internalType":"bytes32"}],"stateMutability":"view"},{"type":"function","name":"BPS_DENOMINATOR","inputs":[],"outputs":[{"name":"","type":"uint256","internalType":"uint256"}],"stateMutability":"view"},{"type":"function","name":"DEFAULT_ADMIN_ROLE","inputs":[],"outputs":[{"name":"","type":"bytes32","internalType":"bytes32"}],"stateMutability":"view"},{"type":"function","name":"LOCK_ONE_MONTH","inputs":[],"outputs":[{"name":"","type":"uint64","internalType":"uint64"}],"stateMutability":"view"},{"type":"function","name":"LOCK_SIX_MONTHS","inputs":[],"outputs":[{"name":"","type":"uint64","internalType":"uint64"}],"stateMutability":"view"},{"type":"function","name":"LOCK_THREE_MONTHS","inputs":[],"outputs":[{"name":"","type":"uint64","internalType":"uint64"}],"stateMutability":"view"},{"type":"function","name":"LOCK_TWO_MONTHS","inputs":[],"outputs":[{"name":"","type":"uint64","internalType":"uint64"}],"stateMutability":"view"},{"type":"function","name":"MULTIPLIER_NONE","inputs":[],"outputs":[{"name":"","type":"uint16","internalType":"uint16"}],"stateMutability":"view"},{"type":"function","name":"MULTIPLIER_ONE_MONTH","inputs":[],"outputs":[{"name":"","type":"uint16","internalType":"uint16"}],"stateMutability":"view"},{"type":"function","name":"MULTIPLIER_SIX_MONTHS","inputs":[],"outputs":[{"name":"","type":"uint16","internalType":"uint16"}],"stateMutability":"view"},{"type":"function","name":"MULTIPLIER_THREE_MONTHS","inputs":[],"outputs":[{"name":"","type":"uint16","internalType":"uint16"}],"stateMutability":"view"},{"type":"function","name":"MULTIPLIER_TWO_MONTHS","inputs":[],"outputs":[{"name":"","type":"uint16","internalType":"uint16"}],"stateMutability":"view"},{"type":"function","name":"PRECISION","inputs":[],"outputs":[{"name":"","type":"uint256","internalType":"uint256"}],"stateMutability":"view"},{"type":"function","name":"SLASHER_ROLE","inputs":[],"outputs":[{"name":"","type":"bytes32","internalType":"bytes32"}],"stateMutability":"view"},{"type":"function","name":"UPGRADE_INTERFACE_VERSION","inputs":[],"outputs":[{"name":"","type":"string","internalType":"string"}],"stateMutability":"view"},{"type":"function","name":"addBlueprint","inputs":[{"name":"blueprintId","type":"uint64","internalType":"uint64"}],"outputs":[],"stateMutability":"nonpayable"},{"type":"function","name":"addBlueprintToDelegation","inputs":[{"name":"delegationIndex","type":"uint256","internalType":"uint256"},{"name":"blueprintId","type":"uint64","internalType":"uint64"}],"outputs":[],"stateMutability":"nonpayable"},{"type":"function","name":"addSlasher","inputs":[{"name":"slasher","type":"address","internalType":"address"}],"outputs":[],"stateMutability":"nonpayable"},{"type":"function","name":"advanceRound","inputs":[],"outputs":[],"stateMutability":"nonpayable"},{"type":"function","name":"blueprintSlashCount","inputs":[{"name":"","type":"uint64","internalType":"uint64"},{"name":"","type":"address","internalType":"address"}],"outputs":[{"name":"","type":"uint64","internalType":"uint64"}],"stateMutability":"view"},{"type":"function","name":"claimDelegatorRewards","inputs":[],"outputs":[{"name":"totalRewards","type":"uint256","internalType":"uint256"}],"stateMutability":"nonpayable"},{"type":"function","name":"claimOperatorRewards","inputs":[],"outputs":[],"stateMutability":"nonpayable"},{"type":"function","name":"claimOperatorRewardsTo","inputs":[{"name":"recipient","type":"address","internalType":"address payable"}],"outputs":[],"stateMutability":"nonpayable"},{"type":"function","name":"completeLeaving","inputs":[],"outputs":[],"stateMutability":"nonpayable"},{"type":"function","name":"currentRound","inputs":[],"outputs":[{"name":"","type":"uint64","internalType":"uint64"}],"stateMutability":"view"},{"type":"function","name":"delegate","inputs":[{"name":"operator","type":"address","internalType":"address"},{"name":"amount","type":"uint256","internalType":"uint256"}],"outputs":[],"stateMutability":"nonpayable"},{"type":"function","name":"delegateWithOptions","inputs":[{"name":"operator","type":"address","internalType":"address"},{"name":"token","type":"address","internalType":"address"},{"name":"amount","type":"uint256","internalType":"uint256"},{"name":"selectionMode","type":"uint8","internalType":"enum Types.BlueprintSelectionMode"},{"name":"blueprintIds","type":"uint64[]","internalType":"uint64[]"}],"outputs":[],"stateMutability":"nonpayable"},{"type":"function","name":"delegationBondLessDelay","inputs":[],"outputs":[{"name":"","type":"uint64","internalType":"uint64"}],"stateMutability":"view"},{"type":"function","name":"deposit","inputs":[],"outputs":[],"stateMutability":"payable"},{"type":"function","name":"depositAndDelegate","inputs":[{"name":"operator","type":"address","internalType":"address"}],"outputs":[],"stateMutability":"payable"},{"type":"function","name":"depositAndDelegateWithOptions","inputs":[{"name":"operator","type":"address","internalType":"address"},{"name":"token","type":"address","internalType":"address"},{"name":"amount","type":"uint256","internalType":"uint256"},{"name":"selectionMode","type":"uint8","internalType":"enum Types.BlueprintSelectionMode"},{"name":"blueprintIds","type":"uint64[]","internalType":"uint64[]"}],"outputs":[],"stateMutability":"payable"},{"type":"function","name":"depositERC20","inputs":[{"name":"token","type":"address","internalType":"address"},{"name":"amount","type":"uint256","internalType":"uint256"}],"outputs":[],"stateMutability":"nonpayable"},{"type":"function","name":"depositERC20WithLock","inputs":[{"name":"token","type":"address","internalType":"address"},{"name":"amount","type":"uint256","internalType":"uint256"},{"name":"lockMultiplier","type":"uint8","internalType":"enum Types.LockMultiplier"}],"outputs":[],"stateMutability":"nonpayable"},{"type":"function","name":"depositWithLock","inputs":[{"name":"lockMultiplier","type":"uint8","internalType":"enum Types.LockMultiplier"}],"outputs":[],"stateMutability":"payable"},{"type":"function","name":"disableAsset","inputs":[{"name":"token","type":"address","internalType":"address"}],"outputs":[],"stateMutability":"nonpayable"},{"type":"function","name":"enableAsset","inputs":[{"name":"token","type":"address","internalType":"address"},{"name":"_minOperatorStake","type":"uint256","internalType":"uint256"},{"name":"_minDelegation","type":"uint256","internalType":"uint256"},{"name":"_depositCap","type":"uint256","internalType":"uint256"},{"name":"_rewardMultiplierBps","type":"uint16","internalType":"uint16"}],"outputs":[],"stateMutability":"nonpayable"},{"type":"function","name":"enableAssetWithAdapter","inputs":[{"name":"token","type":"address","internalType":"address"},{"name":"adapter","type":"address","internalType":"address"},{"name":"_minOperatorStake","type":"uint256","internalType":"uint256"},{"name":"_minDelegation","type":"uint256","internalType":"uint256"},{"name":"_depositCap","type":"uint256","internalType":"uint256"},{"name":"_rewardMultiplierBps","type":"uint16","internalType":"uint16"}],"outputs":[],"stateMutability":"nonpayable"},{"type":"function","name":"executeDelegatorUnstake","inputs":[],"outputs":[],"stateMutability":"nonpayable"},{"type":"function","name":"executeOperatorUnstake","inputs":[],"outputs":[],"stateMutability":"nonpayable"},{"type":"function","name":"executeWithdraw","inputs":[],"outputs":[],"stateMutability":"nonpayable"},{"type":"function","name":"getAssetAdapter","inputs":[{"name":"token","type":"address","internalType":"address"}],"outputs":[{"name":"","type":"address","internalType":"address"}],"stateMutability":"view"},{"type":"function","name":"getAssetConfig","inputs":[{"name":"token","type":"address","internalType":"address"}],"outputs":[{"name":"","type":"tuple","internalType":"struct Types.AssetConfig","components":[{"name":"enabled","type":"bool","internalType":"bool"},{"name":"minOperatorStake","type":"uint256","internalType":"uint256"},{"name":"minDelegation","type":"uint256","internalType":"uint256"},{"name":"depositCap","type":"uint256","internalType":"uint256"},{"name":"currentDeposits","type":"uint256","internalType":"uint256"},{"name":"rewardMultiplierBps","type":"uint16","internalType":"uint16"}]}],"stateMutability":"view"},{"type":"function","name":"getDelegation","inputs":[{"name":"delegator","type":"address","internalType":"address"},{"name":"operator","type":"address","internalType":"address"}],"outputs":[{"name":"","type":"uint256","internalType":"uint256"}],"stateMutability":"view"},{"type":"function","name":"getDelegationBlueprints","inputs":[{"name":"delegator","type":"address","internalType":"address"},{"name":"idx","type":"uint256","internalType":"uint256"}],"outputs":[{"name":"","type":"uint64[]","internalType":"uint64[]"}],"stateMutability":"view"},{"type":"function","name":"getDelegations","inputs":[{"name":"delegator","type":"address","internalType":"address"}],"outputs":[{"name":"","type":"tuple[]","internalType":"struct Types.BondInfoDelegator[]","components":[{"name":"operator","type":"address","internalType":"address"},{"name":"shares","type":"uint256","internalType":"uint256"},{"name":"asset","type":"tuple","internalType":"struct Types.Asset","components":[{"name":"kind","type":"uint8","internalType":"enum Types.AssetKind"},{"name":"token","type":"address","internalType":"address"}]},{"name":"selectionMode","type":"uint8","internalType":"enum Types.BlueprintSelectionMode"}]}],"stateMutability":"view"},{"type":"function","name":"getDeposit","inputs":[{"name":"delegator","type":"address","internalType":"address"},{"name":"token","type":"address","internalType":"address"}],"outputs":[{"name":"","type":"tuple","internalType":"struct Types.Deposit","components":[{"name":"amount","type":"uint256","internalType":"uint256"},{"name":"delegatedAmount","type":"uint256","internalType":"uint256"}]}],"stateMutability":"view"},{"type":"function","name":"getLocks","inputs":[{"name":"delegator","type":"address","internalType":"address"},{"name":"token","type":"address","internalType":"address"}],"outputs":[{"name":"","type":"tuple[]","internalType":"struct Types.LockInfo[]","components":[{"name":"amount","type":"uint256","internalType":"uint256"},{"name":"multiplier","type":"uint8","internalType":"enum Types.LockMultiplier"},{"name":"expiryBlock","type":"uint64","internalType":"uint64"}]}],"stateMutability":"view"},{"type":"function","name":"getOperatorBlueprints","inputs":[{"name":"operator","type":"address","internalType":"address"}],"outputs":[{"name":"","type":"uint256[]","internalType":"uint256[]"}],"stateMutability":"view"},{"type":"function","name":"getOperatorDelegatedStake","inputs":[{"name":"operator","type":"address","internalType":"address"}],"outputs":[{"name":"","type":"uint256","internalType":"uint256"}],"stateMutability":"view"},{"type":"function","name":"getOperatorDelegatorCount","inputs":[{"name":"operator","type":"address","internalType":"address"}],"outputs":[{"name":"","type":"uint256","internalType":"uint256"}],"stateMutability":"view"},{"type":"function","name":"getOperatorDelegators","inputs":[{"name":"operator","type":"address","internalType":"address"}],"outputs":[{"name":"","type":"address[]","internalType":"address[]"}],"stateMutability":"view"},{"type":"function","name":"getOperatorMetadata","inputs":[{"name":"operator","type":"address","internalType":"address"}],"outputs":[{"name":"","type":"tuple","internalType":"struct Types.OperatorMetadata","components":[{"name":"stake","type":"uint256","internalType":"uint256"},{"name":"delegationCount","type":"uint32","internalType":"uint32"},{"name":"status","type":"uint8","internalType":"enum Types.OperatorStatus"},{"name":"leavingRound","type":"uint64","internalType":"uint64"}]}],"stateMutability":"view"},{"type":"function","name":"getOperatorRewardPool","inputs":[{"name":"operator","type":"address","internalType":"address"}],"outputs":[{"name":"","type":"tuple","internalType":"struct Types.OperatorRewardPool","components":[{"name":"accRewardPerShare","type":"uint256","internalType":"uint256"},{"name":"totalShares","type":"uint256","internalType":"uint256"},{"name":"totalAssets","type":"uint256","internalType":"uint256"},{"name":"lastUpdateRound","type":"uint64","internalType":"uint64"}]}],"stateMutability":"view"},{"type":"function","name":"getOperatorSelfStake","inputs":[{"name":"operator","type":"address","internalType":"address"}],"outputs":[{"name":"","type":"uint256","internalType":"uint256"}],"stateMutability":"view"},{"type":"function","name":"getOperatorSlashFactor","inputs":[{"name":"operator","type":"address","internalType":"address"}],"outputs":[{"name":"","type":"uint256","internalType":"uint256"}],"stateMutability":"view"},{"type":"function","name":"getOperatorStake","inputs":[{"name":"operator","type":"address","internalType":"address"}],"outputs":[{"name":"","type":"uint256","internalType":"uint256"}],"stateMutability":"view"},{"type":"function","name":"getPendingDelegatorRewards","inputs":[{"name":"delegator","type":"address","internalType":"address"}],"outputs":[{"name":"","type":"uint256","internalType":"uint256"}],"stateMutability":"view"},{"type":"function","name":"getPendingOperatorRewards","inputs":[{"name":"operator","type":"address","internalType":"address"}],"outputs":[{"name":"","type":"uint256","internalType":"uint256"}],"stateMutability":"view"},{"type":"function","name":"getPendingUnstakes","inputs":[{"name":"delegator","type":"address","internalType":"address"}],"outputs":[{"name":"","type":"tuple[]","internalType":"struct Types.BondLessRequest[]","components":[{"name":"operator","type":"address","internalType":"address"},{"name":"asset","type":"tuple","internalType":"struct Types.Asset","components":[{"name":"kind","type":"uint8","internalType":"enum Types.AssetKind"},{"name":"token","type":"address","internalType":"address"}]},{"name":"shares","type":"uint256","internalType":"uint256"},{"name":"requestedRound","type":"uint64","internalType":"uint64"},{"name":"selectionMode","type":"uint8","internalType":"enum Types.BlueprintSelectionMode"},{"name":"slashFactorSnapshot","type":"uint256","internalType":"uint256"}]}],"stateMutability":"view"},{"type":"function","name":"getPendingWithdrawals","inputs":[{"name":"delegator","type":"address","internalType":"address"}],"outputs":[{"name":"","type":"tuple[]","internalType":"struct Types.WithdrawRequest[]","components":[{"name":"asset","type":"tuple","internalType":"struct Types.Asset","components":[{"name":"kind","type":"uint8","internalType":"enum Types.AssetKind"},{"name":"token","type":"address","internalType":"address"}]},{"name":"amount","type":"uint256","internalType":"uint256"},{"name":"requestedRound","type":"uint64","internalType":"uint64"}]}],"stateMutability":"view"},{"type":"function","name":"getRoleAdmin","inputs":[{"name":"role","type":"bytes32","internalType":"bytes32"}],"outputs":[{"name":"","type":"bytes32","internalType":"bytes32"}],"stateMutability":"view"},{"type":"function","name":"getSlashCount","inputs":[{"name":"operator","type":"address","internalType":"address"}],"outputs":[{"name":"","type":"uint64","internalType":"uint64"}],"stateMutability":"view"},{"type":"function","name":"getSlashCountForBlueprint","inputs":[{"name":"blueprintId","type":"uint64","internalType":"uint64"},{"name":"operator","type":"address","internalType":"address"}],"outputs":[{"name":"","type":"uint64","internalType":"uint64"}],"stateMutability":"view"},{"type":"function","name":"getSlashCountForService","inputs":[{"name":"serviceId","type":"uint64","internalType":"uint64"},{"name":"operator","type":"address","internalType":"address"}],"outputs":[{"name":"","type":"uint64","internalType":"uint64"}],"stateMutability":"view"},{"type":"function","name":"getSlashImpact","inputs":[{"name":"operator","type":"address","internalType":"address"},{"name":"slashId","type":"uint64","internalType":"uint64"},{"name":"delegator","type":"address","internalType":"address"}],"outputs":[{"name":"lostAmount","type":"uint256","internalType":"uint256"}],"stateMutability":"view"},{"type":"function","name":"getSlashRecord","inputs":[{"name":"operator","type":"address","internalType":"address"},{"name":"slashId","type":"uint64","internalType":"uint64"}],"outputs":[{"name":"","type":"tuple","internalType":"struct SlashingManager.SlashRecord","components":[{"name":"round","type":"uint64","internalType":"uint64"},{"name":"serviceId","type":"uint64","internalType":"uint64"},{"name":"blueprintId","type":"uint64","internalType":"uint64"},{"name":"totalSlashed","type":"uint256","internalType":"uint256"},{"name":"exchangeRateBefore","type":"uint256","internalType":"uint256"},{"name":"exchangeRateAfter","type":"uint256","internalType":"uint256"},{"name":"evidence","type":"bytes32","internalType":"bytes32"}]}],"stateMutability":"view"},{"type":"function","name":"getSnapshot","inputs":[{"name":"round","type":"uint64","internalType":"uint64"},{"name":"operator","type":"address","internalType":"address"}],"outputs":[{"name":"","type":"tuple","internalType":"struct Types.OperatorSnapshot","components":[{"name":"stake","type":"uint256","internalType":"uint256"},{"name":"totalDelegated","type":"uint256","internalType":"uint256"}]}],"stateMutability":"view"},{"type":"function","name":"getTotalDelegation","inputs":[{"name":"delegator","type":"address","internalType":"address"}],"outputs":[{"name":"total","type":"uint256","internalType":"uint256"}],"stateMutability":"view"},{"type":"function","name":"grantRole","inputs":[{"name":"role","type":"bytes32","internalType":"bytes32"},{"name":"account","type":"address","internalType":"address"}],"outputs":[],"stateMutability":"nonpayable"},{"type":"function","name":"hasRole","inputs":[{"name":"role","type":"bytes32","internalType":"bytes32"},{"name":"account","type":"address","internalType":"address"}],"outputs":[{"name":"","type":"bool","internalType":"bool"}],"stateMutability":"view"},{"type":"function","name":"increaseStake","inputs":[],"outputs":[],"stateMutability":"payable"},{"type":"function","name":"initialize","inputs":[{"name":"admin","type":"address","internalType":"address"},{"name":"nativeMinOperatorStake","type":"uint256","internalType":"uint256"},{"name":"nativeMinDelegation","type":"uint256","internalType":"uint256"},{"name":"_operatorCommissionBps","type":"uint16","internalType":"uint16"}],"outputs":[],"stateMutability":"nonpayable"},{"type":"function","name":"isOperator","inputs":[{"name":"operator","type":"address","internalType":"address"}],"outputs":[{"name":"","type":"bool","internalType":"bool"}],"stateMutability":"view"},{"type":"function","name":"isOperatorActive","inputs":[{"name":"operator","type":"address","internalType":"address"}],"outputs":[{"name":"","type":"bool","internalType":"bool"}],"stateMutability":"view"},{"type":"function","name":"isSlasher","inputs":[{"name":"account","type":"address","internalType":"address"}],"outputs":[{"name":"","type":"bool","internalType":"bool"}],"stateMutability":"view"},{"type":"function","name":"lastRoundAdvance","inputs":[],"outputs":[{"name":"","type":"uint64","internalType":"uint64"}],"stateMutability":"view"},{"type":"function","name":"leaveDelegatorsDelay","inputs":[],"outputs":[{"name":"","type":"uint64","internalType":"uint64"}],"stateMutability":"view"},{"type":"function","name":"leaveOperatorsDelay","inputs":[],"outputs":[{"name":"","type":"uint64","internalType":"uint64"}],"stateMutability":"view"},{"type":"function","name":"meetsStakeRequirement","inputs":[{"name":"operator","type":"address","internalType":"address"},{"name":"required","type":"uint256","internalType":"uint256"}],"outputs":[{"name":"","type":"bool","internalType":"bool"}],"stateMutability":"view"},{"type":"function","name":"minOperatorStake","inputs":[],"outputs":[{"name":"","type":"uint256","internalType":"uint256"}],"stateMutability":"view"},{"type":"function","name":"nativeEnabled","inputs":[],"outputs":[{"name":"","type":"bool","internalType":"bool"}],"stateMutability":"view"},{"type":"function","name":"nextSlashId","inputs":[{"name":"","type":"address","internalType":"address"}],"outputs":[{"name":"","type":"uint64","internalType":"uint64"}],"stateMutability":"view"},{"type":"function","name":"notifyReward","inputs":[{"name":"operator","type":"address","internalType":"address"},{"name":"serviceId","type":"uint64","internalType":"uint64"},{"name":"amount","type":"uint256","internalType":"uint256"}],"outputs":[],"stateMutability":"nonpayable"},{"type":"function","name":"notifyRewardForBlueprint","inputs":[{"name":"operator","type":"address","internalType":"address"},{"name":"blueprintId","type":"uint64","internalType":"uint64"},{"name":"serviceId","type":"uint64","internalType":"uint64"},{"name":"amount","type":"uint256","internalType":"uint256"}],"outputs":[],"stateMutability":"nonpayable"},{"type":"function","name":"operatorAt","inputs":[{"name":"index","type":"uint256","internalType":"uint256"}],"outputs":[{"name":"","type":"address","internalType":"address"}],"stateMutability":"view"},{"type":"function","name":"operatorCommissionBps","inputs":[],"outputs":[{"name":"","type":"uint16","internalType":"uint16"}],"stateMutability":"view"},{"type":"function","name":"operatorCount","inputs":[],"outputs":[{"name":"","type":"uint256","internalType":"uint256"}],"stateMutability":"view"},{"type":"function","name":"pause","inputs":[],"outputs":[],"stateMutability":"nonpayable"},{"type":"function","name":"paused","inputs":[],"outputs":[{"name":"","type":"bool","internalType":"bool"}],"stateMutability":"view"},{"type":"function","name":"proxiableUUID","inputs":[],"outputs":[{"name":"","type":"bytes32","internalType":"bytes32"}],"stateMutability":"view"},{"type":"function","name":"registerAdapter","inputs":[{"name":"token","type":"address","internalType":"address"},{"name":"adapter","type":"address","internalType":"address"}],"outputs":[],"stateMutability":"nonpayable"},{"type":"function","name":"registerOperator","inputs":[],"outputs":[],"stateMutability":"payable"},{"type":"function","name":"registerOperatorWithAsset","inputs":[{"name":"token","type":"address","internalType":"address"},{"name":"amount","type":"uint256","internalType":"uint256"}],"outputs":[],"stateMutability":"nonpayable"},{"type":"function","name":"removeAdapter","inputs":[{"name":"token","type":"address","internalType":"address"}],"outputs":[],"stateMutability":"nonpayable"},{"type":"function","name":"removeBlueprint","inputs":[{"name":"blueprintId","type":"uint64","internalType":"uint64"}],"outputs":[],"stateMutability":"nonpayable"},{"type":"function","name":"removeBlueprintFromDelegation","inputs":[{"name":"delegationIndex","type":"uint256","internalType":"uint256"},{"name":"blueprintId","type":"uint64","internalType":"uint64"}],"outputs":[],"stateMutability":"nonpayable"},{"type":"function","name":"removeSlasher","inputs":[{"name":"slasher","type":"address","internalType":"address"}],"outputs":[],"stateMutability":"nonpayable"},{"type":"function","name":"renounceRole","inputs":[{"name":"role","type":"bytes32","internalType":"bytes32"},{"name":"callerConfirmation","type":"address","internalType":"address"}],"outputs":[],"stateMutability":"nonpayable"},{"type":"function","name":"requireAdapters","inputs":[],"outputs":[{"name":"","type":"bool","internalType":"bool"}],"stateMutability":"view"},{"type":"function","name":"rescueTokens","inputs":[{"name":"token","type":"address","internalType":"address"},{"name":"to","type":"address","internalType":"address"},{"name":"amount","type":"uint256","internalType":"uint256"}],"outputs":[],"stateMutability":"nonpayable"},{"type":"function","name":"revokeRole","inputs":[{"name":"role","type":"bytes32","internalType":"bytes32"},{"name":"account","type":"address","internalType":"address"}],"outputs":[],"stateMutability":"nonpayable"},{"type":"function","name":"rewardsManager","inputs":[],"outputs":[{"name":"","type":"address","internalType":"address"}],"stateMutability":"view"},{"type":"function","name":"roundDuration","inputs":[],"outputs":[{"name":"","type":"uint64","internalType":"uint64"}],"stateMutability":"view"},{"type":"function","name":"scheduleDelegatorUnstake","inputs":[{"name":"operator","type":"address","internalType":"address"},{"name":"token","type":"address","internalType":"address"},{"name":"amount","type":"uint256","internalType":"uint256"}],"outputs":[],"stateMutability":"nonpayable"},{"type":"function","name":"scheduleOperatorUnstake","inputs":[{"name":"amount","type":"uint256","internalType":"uint256"}],"outputs":[],"stateMutability":"nonpayable"},{"type":"function","name":"scheduleWithdraw","inputs":[{"name":"token","type":"address","internalType":"address"},{"name":"amount","type":"uint256","internalType":"uint256"}],"outputs":[],"stateMutability":"nonpayable"},{"type":"function","name":"serviceFeeDistributor","inputs":[],"outputs":[{"name":"","type":"address","internalType":"address"}],"stateMutability":"view"},{"type":"function","name":"serviceSlashCount","inputs":[{"name":"","type":"uint64","internalType":"uint64"},{"name":"","type":"address","internalType":"address"}],"outputs":[{"name":"","type":"uint64","internalType":"uint64"}],"stateMutability":"view"},{"type":"function","name":"setDelays","inputs":[{"name":"_delegationBondLessDelay","type":"uint64","internalType":"uint64"},{"name":"_leaveDelegatorsDelay","type":"uint64","internalType":"uint64"},{"name":"_leaveOperatorsDelay","type":"uint64","internalType":"uint64"}],"outputs":[],"stateMutability":"nonpayable"},{"type":"function","name":"setOperatorCommission","inputs":[{"name":"bps","type":"uint16","internalType":"uint16"}],"outputs":[],"stateMutability":"nonpayable"},{"type":"function","name":"setRequireAdapters","inputs":[{"name":"required","type":"bool","internalType":"bool"}],"outputs":[],"stateMutability":"nonpayable"},{"type":"function","name":"setRewardsManager","inputs":[{"name":"manager","type":"address","internalType":"address"}],"outputs":[],"stateMutability":"nonpayable"},{"type":"function","name":"setServiceFeeDistributor","inputs":[{"name":"distributor","type":"address","internalType":"address"}],"outputs":[],"stateMutability":"nonpayable"},{"type":"function","name":"slash","inputs":[{"name":"operator","type":"address","internalType":"address"},{"name":"serviceId","type":"uint64","internalType":"uint64"},{"name":"amount","type":"uint256","internalType":"uint256"},{"name":"evidence","type":"bytes32","internalType":"bytes32"}],"outputs":[{"name":"actualSlashed","type":"uint256","internalType":"uint256"}],"stateMutability":"nonpayable"},{"type":"function","name":"slashForBlueprint","inputs":[{"name":"operator","type":"address","internalType":"address"},{"name":"blueprintId","type":"uint64","internalType":"uint64"},{"name":"serviceId","type":"uint64","internalType":"uint64"},{"name":"amount","type":"uint256","internalType":"uint256"},{"name":"evidence","type":"bytes32","internalType":"bytes32"}],"outputs":[{"name":"actualSlashed","type":"uint256","internalType":"uint256"}],"stateMutability":"nonpayable"},{"type":"function","name":"slashForService","inputs":[{"name":"operator","type":"address","internalType":"address"},{"name":"blueprintId","type":"uint64","internalType":"uint64"},{"name":"serviceId","type":"uint64","internalType":"uint64"},{"name":"commitments","type":"tuple[]","internalType":"struct Types.AssetSecurityCommitment[]","components":[{"name":"asset","type":"tuple","internalType":"struct Types.Asset","components":[{"name":"kind","type":"uint8","internalType":"enum Types.AssetKind"},{"name":"token","type":"address","internalType":"address"}]},{"name":"exposureBps","type":"uint16","internalType":"uint16"}]},{"name":"amount","type":"uint256","internalType":"uint256"},{"name":"evidence","type":"bytes32","internalType":"bytes32"}],"outputs":[{"name":"actualSlashed","type":"uint256","internalType":"uint256"}],"stateMutability":"nonpayable"},{"type":"function","name":"slashHistory","inputs":[{"name":"","type":"address","internalType":"address"},{"name":"","type":"uint64","internalType":"uint64"}],"outputs":[{"name":"round","type":"uint64","internalType":"uint64"},{"name":"serviceId","type":"uint64","internalType":"uint64"},{"name":"blueprintId","type":"uint64","internalType":"uint64"},{"name":"totalSlashed","type":"uint256","internalType":"uint256"},{"name":"exchangeRateBefore","type":"uint256","internalType":"uint256"},{"name":"exchangeRateAfter","type":"uint256","internalType":"uint256"},{"name":"evidence","type":"bytes32","internalType":"bytes32"}],"stateMutability":"view"},{"type":"function","name":"snapshotOperator","inputs":[{"name":"operator","type":"address","internalType":"address"}],"outputs":[],"stateMutability":"nonpayable"},{"type":"function","name":"startLeaving","inputs":[],"outputs":[],"stateMutability":"nonpayable"},{"type":"function","name":"supportsInterface","inputs":[{"name":"interfaceId","type":"bytes4","internalType":"bytes4"}],"outputs":[{"name":"","type":"bool","internalType":"bool"}],"stateMutability":"view"},{"type":"function","name":"undelegate","inputs":[{"name":"operator","type":"address","internalType":"address"},{"name":"amount","type":"uint256","internalType":"uint256"}],"outputs":[],"stateMutability":"nonpayable"},{"type":"function","name":"unpause","inputs":[],"outputs":[],"stateMutability":"nonpayable"},{"type":"function","name":"upgradeToAndCall","inputs":[{"name":"newImplementation","type":"address","internalType":"address"},{"name":"data","type":"bytes","internalType":"bytes"}],"outputs":[],"stateMutability":"payable"},{"type":"event","name":"AdapterRegistered","inputs":[{"name":"token","type":"address","indexed":true,"internalType":"address"},{"name":"adapter","type":"address","indexed":true,"internalType":"address"}],"anonymous":false},{"type":"event","name":"AdapterRemoved","inputs":[{"name":"token","type":"address","indexed":true,"internalType":"address"}],"anonymous":false},{"type":"event","name":"AssetDisabled","inputs":[{"name":"token","type":"address","indexed":true,"internalType":"address"}],"anonymous":false},{"type":"event","name":"AssetEnabled","inputs":[{"name":"token","type":"address","indexed":true,"internalType":"address"},{"name":"minOperatorStake","type":"uint256","indexed":false,"internalType":"uint256"},{"name":"minDelegation","type":"uint256","indexed":false,"internalType":"uint256"}],"anonymous":false},{"type":"event","name":"BlueprintAddedToDelegation","inputs":[{"name":"delegator","type":"address","indexed":true,"internalType":"address"},{"name":"delegationIndex","type":"uint256","indexed":true,"internalType":"uint256"},{"name":"blueprintId","type":"uint64","indexed":false,"internalType":"uint64"}],"anonymous":false},{"type":"event","name":"BlueprintRemovedFromDelegation","inputs":[{"name":"delegator","type":"address","indexed":true,"internalType":"address"},{"name":"delegationIndex","type":"uint256","indexed":true,"internalType":"uint256"},{"name":"blueprintId","type":"uint64","indexed":false,"internalType":"uint64"}],"anonymous":false},{"type":"event","name":"Delegated","inputs":[{"name":"delegator","type":"address","indexed":true,"internalType":"address"},{"name":"operator","type":"address","indexed":true,"internalType":"address"},{"name":"token","type":"address","indexed":true,"internalType":"address"},{"name":"amount","type":"uint256","indexed":false,"internalType":"uint256"},{"name":"shares","type":"uint256","indexed":false,"internalType":"uint256"},{"name":"selectionMode","type":"uint8","indexed":false,"internalType":"enum Types.BlueprintSelectionMode"}],"anonymous":false},{"type":"event","name":"DelegatorUnstakeExecuted","inputs":[{"name":"delegator","type":"address","indexed":true,"internalType":"address"},{"name":"operator","type":"address","indexed":true,"internalType":"address"},{"name":"token","type":"address","indexed":true,"internalType":"address"},{"name":"shares","type":"uint256","indexed":false,"internalType":"uint256"},{"name":"amount","type":"uint256","indexed":false,"internalType":"uint256"}],"anonymous":false},{"type":"event","name":"DelegatorUnstakeScheduled","inputs":[{"name":"delegator","type":"address","indexed":true,"internalType":"address"},{"name":"operator","type":"address","indexed":true,"internalType":"address"},{"name":"token","type":"address","indexed":true,"internalType":"address"},{"name":"shares","type":"uint256","indexed":false,"internalType":"uint256"},{"name":"estimatedAmount","type":"uint256","indexed":false,"internalType":"uint256"},{"name":"readyRound","type":"uint64","indexed":false,"internalType":"uint64"}],"anonymous":false},{"type":"event","name":"Deposited","inputs":[{"name":"delegator","type":"address","indexed":true,"internalType":"address"},{"name":"token","type":"address","indexed":true,"internalType":"address"},{"name":"amount","type":"uint256","indexed":false,"internalType":"uint256"},{"name":"lock","type":"uint8","indexed":false,"internalType":"enum Types.LockMultiplier"}],"anonymous":false},{"type":"event","name":"Initialized","inputs":[{"name":"version","type":"uint64","indexed":false,"internalType":"uint64"}],"anonymous":false},{"type":"event","name":"OperatorBlueprintAdded","inputs":[{"name":"operator","type":"address","indexed":true,"internalType":"address"},{"name":"blueprintId","type":"uint64","indexed":true,"internalType":"uint64"}],"anonymous":false},{"type":"event","name":"OperatorBlueprintRemoved","inputs":[{"name":"operator","type":"address","indexed":true,"internalType":"address"},{"name":"blueprintId","type":"uint64","indexed":true,"internalType":"uint64"}],"anonymous":false},{"type":"event","name":"OperatorLeavingScheduled","inputs":[{"name":"operator","type":"address","indexed":true,"internalType":"address"},{"name":"readyRound","type":"uint64","indexed":false,"internalType":"uint64"}],"anonymous":false},{"type":"event","name":"OperatorLeft","inputs":[{"name":"operator","type":"address","indexed":true,"internalType":"address"}],"anonymous":false},{"type":"event","name":"OperatorRegistered","inputs":[{"name":"operator","type":"address","indexed":true,"internalType":"address"},{"name":"stake","type":"uint256","indexed":false,"internalType":"uint256"}],"anonymous":false},{"type":"event","name":"OperatorSlashed","inputs":[{"name":"operator","type":"address","indexed":true,"internalType":"address"},{"name":"serviceId","type":"uint64","indexed":true,"internalType":"uint64"},{"name":"amount","type":"uint256","indexed":false,"internalType":"uint256"},{"name":"evidence","type":"bytes32","indexed":false,"internalType":"bytes32"}],"anonymous":false},{"type":"event","name":"OperatorStakeIncreased","inputs":[{"name":"operator","type":"address","indexed":true,"internalType":"address"},{"name":"amount","type":"uint256","indexed":false,"internalType":"uint256"}],"anonymous":false},{"type":"event","name":"OperatorUnstakeExecuted","inputs":[{"name":"operator","type":"address","indexed":true,"internalType":"address"},{"name":"amount","type":"uint256","indexed":false,"internalType":"uint256"}],"anonymous":false},{"type":"event","name":"OperatorUnstakeScheduled","inputs":[{"name":"operator","type":"address","indexed":true,"internalType":"address"},{"name":"amount","type":"uint256","indexed":false,"internalType":"uint256"},{"name":"readyRound","type":"uint64","indexed":false,"internalType":"uint64"}],"anonymous":false},{"type":"event","name":"Paused","inputs":[{"name":"account","type":"address","indexed":false,"internalType":"address"}],"anonymous":false},{"type":"event","name":"RequireAdaptersUpdated","inputs":[{"name":"required","type":"bool","indexed":false,"internalType":"bool"}],"anonymous":false},{"type":"event","name":"RewardClaimed","inputs":[{"name":"account","type":"address","indexed":true,"internalType":"address"},{"name":"amount","type":"uint256","indexed":false,"internalType":"uint256"}],"anonymous":false},{"type":"event","name":"RewardDistributed","inputs":[{"name":"operator","type":"address","indexed":true,"internalType":"address"},{"name":"amount","type":"uint256","indexed":false,"internalType":"uint256"}],"anonymous":false},{"type":"event","name":"RoleAdminChanged","inputs":[{"name":"role","type":"bytes32","indexed":true,"internalType":"bytes32"},{"name":"previousAdminRole","type":"bytes32","indexed":true,"internalType":"bytes32"},{"name":"newAdminRole","type":"bytes32","indexed":true,"internalType":"bytes32"}],"anonymous":false},{"type":"event","name":"RoleGranted","inputs":[{"name":"role","type":"bytes32","indexed":true,"internalType":"bytes32"},{"name":"account","type":"address","indexed":true,"internalType":"address"},{"name":"sender","type":"address","indexed":true,"internalType":"address"}],"anonymous":false},{"type":"event","name":"RoleRevoked","inputs":[{"name":"role","type":"bytes32","indexed":true,"internalType":"bytes32"},{"name":"account","type":"address","indexed":true,"internalType":"address"},{"name":"sender","type":"address","indexed":true,"internalType":"address"}],"anonymous":false},{"type":"event","name":"RoundAdvanced","inputs":[{"name":"round","type":"uint64","indexed":true,"internalType":"uint64"}],"anonymous":false},{"type":"event","name":"SlashRecorded","inputs":[{"name":"operator","type":"address","indexed":true,"internalType":"address"},{"name":"slashId","type":"uint64","indexed":true,"internalType":"uint64"},{"name":"totalSlashed","type":"uint256","indexed":false,"internalType":"uint256"},{"name":"exchangeRateBefore","type":"uint256","indexed":false,"internalType":"uint256"},{"name":"exchangeRateAfter","type":"uint256","indexed":false,"internalType":"uint256"}],"anonymous":false},{"type":"event","name":"Slashed","inputs":[{"name":"operator","type":"address","indexed":true,"internalType":"address"},{"name":"serviceId","type":"uint64","indexed":true,"internalType":"uint64"},{"name":"operatorSlashed","type":"uint256","indexed":false,"internalType":"uint256"},{"name":"delegatorsSlashed","type":"uint256","indexed":false,"internalType":"uint256"},{"name":"newExchangeRate","type":"uint256","indexed":false,"internalType":"uint256"}],"anonymous":false},{"type":"event","name":"SlashedForService","inputs":[{"name":"operator","type":"address","indexed":true,"internalType":"address"},{"name":"serviceId","type":"uint64","indexed":true,"internalType":"uint64"},{"name":"blueprintId","type":"uint64","indexed":true,"internalType":"uint64"},{"name":"totalSlashed","type":"uint256","indexed":false,"internalType":"uint256"},{"name":"commitmentCount","type":"uint256","indexed":false,"internalType":"uint256"}],"anonymous":false},{"type":"event","name":"Unpaused","inputs":[{"name":"account","type":"address","indexed":false,"internalType":"address"}],"anonymous":false},{"type":"event","name":"Upgraded","inputs":[{"name":"implementation","type":"address","indexed":true,"internalType":"address"}],"anonymous":false},{"type":"event","name":"WithdrawScheduled","inputs":[{"name":"delegator","type":"address","indexed":true,"internalType":"address"},{"name":"token","type":"address","indexed":true,"internalType":"address"},{"name":"amount","type":"uint256","indexed":false,"internalType":"uint256"},{"name":"readyRound","type":"uint64","indexed":false,"internalType":"uint64"}],"anonymous":false},{"type":"event","name":"Withdrawn","inputs":[{"name":"delegator","type":"address","indexed":true,"internalType":"address"},{"name":"token","type":"address","indexed":true,"internalType":"address"},{"name":"amount","type":"uint256","indexed":false,"internalType":"uint256"}],"anonymous":false},{"type":"error","name":"AccessControlBadConfirmation","inputs":[]},{"type":"error","name":"AccessControlUnauthorizedAccount","inputs":[{"name":"account","type":"address","internalType":"address"},{"name":"neededRole","type":"bytes32","internalType":"bytes32"}]},{"type":"error","name":"AddressEmptyCode","inputs":[{"name":"target","type":"address","internalType":"address"}]},{"type":"error","name":"AllModeDisallowsBlueprints","inputs":[]},{"type":"error","name":"AmountLocked","inputs":[{"name":"locked","type":"uint256","internalType":"uint256"},{"name":"requested","type":"uint256","internalType":"uint256"}]},{"type":"error","name":"AssetNotEnabled","inputs":[{"name":"asset","type":"address","internalType":"address"}]},{"type":"error","name":"BelowMinimumDeposit","inputs":[{"name":"minimum","type":"uint256","internalType":"uint256"},{"name":"provided","type":"uint256","internalType":"uint256"}]},{"type":"error","name":"BlueprintAlreadySelected","inputs":[{"name":"blueprintId","type":"uint64","internalType":"uint64"}]},{"type":"error","name":"BlueprintNotSelected","inputs":[{"name":"blueprintId","type":"uint64","internalType":"uint64"}]},{"type":"error","name":"CannotRemoveLastBlueprint","inputs":[]},{"type":"error","name":"DelegationNotFound","inputs":[{"name":"delegator","type":"address","internalType":"address"},{"name":"operator","type":"address","internalType":"address"}]},{"type":"error","name":"DepositCapExceeded","inputs":[{"name":"cap","type":"uint256","internalType":"uint256"},{"name":"current","type":"uint256","internalType":"uint256"},{"name":"adding","type":"uint256","internalType":"uint256"}]},{"type":"error","name":"ERC1967InvalidImplementation","inputs":[{"name":"implementation","type":"address","internalType":"address"}]},{"type":"error","name":"ERC1967NonPayable","inputs":[]},{"type":"error","name":"EnforcedPause","inputs":[]},{"type":"error","name":"ExpectedPause","inputs":[]},{"type":"error","name":"FailedCall","inputs":[]},{"type":"error","name":"FixedModeRequiresBlueprints","inputs":[]},{"type":"error","name":"InsufficientAvailableBalance","inputs":[{"name":"available","type":"uint256","internalType":"uint256"},{"name":"requested","type":"uint256","internalType":"uint256"}]},{"type":"error","name":"InsufficientDelegation","inputs":[{"name":"available","type":"uint256","internalType":"uint256"},{"name":"requested","type":"uint256","internalType":"uint256"}]},{"type":"error","name":"InsufficientDeposit","inputs":[{"name":"available","type":"uint256","internalType":"uint256"},{"name":"requested","type":"uint256","internalType":"uint256"}]},{"type":"error","name":"InsufficientStake","inputs":[{"name":"required","type":"uint256","internalType":"uint256"},{"name":"provided","type":"uint256","internalType":"uint256"}]},{"type":"error","name":"InvalidDelegationIndex","inputs":[{"name":"index","type":"uint256","internalType":"uint256"}]},{"type":"error","name":"InvalidInitialization","inputs":[]},{"type":"error","name":"InvalidLockMultiplier","inputs":[{"name":"value","type":"uint8","internalType":"uint8"}]},{"type":"error","name":"LeavingTooEarly","inputs":[{"name":"currentRound","type":"uint64","internalType":"uint64"},{"name":"requiredRound","type":"uint64","internalType":"uint64"}]},{"type":"error","name":"LegacySlashRequiresAllMode","inputs":[{"name":"operator","type":"address","internalType":"address"}]},{"type":"error","name":"NoRewardsToClaim","inputs":[]},{"type":"error","name":"NotFixedMode","inputs":[]},{"type":"error","name":"NotInitializing","inputs":[]},{"type":"error","name":"OperatorAlreadyRegistered","inputs":[{"name":"operator","type":"address","internalType":"address"}]},{"type":"error","name":"OperatorNotActive","inputs":[{"name":"operator","type":"address","internalType":"address"}]},{"type":"error","name":"OperatorNotLeaving","inputs":[{"name":"operator","type":"address","internalType":"address"}]},{"type":"error","name":"OperatorNotRegistered","inputs":[{"name":"operator","type":"address","internalType":"address"}]},{"type":"error","name":"ReentrancyGuardReentrantCall","inputs":[]},{"type":"error","name":"RoundAdvanceTooSoon","inputs":[{"name":"nextAllowedTime","type":"uint64","internalType":"uint64"},{"name":"currentTime","type":"uint64","internalType":"uint64"}]},{"type":"error","name":"SafeERC20FailedOperation","inputs":[{"name":"token","type":"address","internalType":"address"}]},{"type":"error","name":"SelectionModeMismatch","inputs":[]},{"type":"error","name":"TransferFailed","inputs":[]},{"type":"error","name":"UUPSUnauthorizedCallContext","inputs":[]},{"type":"error","name":"UUPSUnsupportedProxiableUUID","inputs":[{"name":"slot","type":"bytes32","internalType":"bytes32"}]},{"type":"error","name":"ZeroAddress","inputs":[]},{"type":"error","name":"ZeroAmount","inputs":[]}],"bytecode":{"object":"0x60a080604052346100e857306080527ff0c57e16840df040f15088dc2f81fe391c3923bec73e23a9662efc9c229c6a005460ff8160401c166100d9576002600160401b03196001600160401b03821601610073575b60405161a01f90816100ed82396080518181816139ad0152613aa30152f35b6001600160401b0319166001600160401b039081177ff0c57e16840df040f15088dc2f81fe391c3923bec73e23a9662efc9c229c6a005581527fc7f505b2f371ae2175ee4913f4499e1f2633a7b5936321eed1cdaeb6115181d290602090a15f80610054565b63f92ee8a960e01b5f5260045ffd5b5f80fdfe6080604052600436101561001a575b3615610018575f80fd5b005b5f3560e01c80627910d01461587957806301ffc9a714615823578063026e402b146157e557806303587c1d1461574a57806303780211146156bd57806305d64e38146156955780630a8ddc5e146156525780630aa8b110146155b45780630c8833ce1461544057806315049a5a146152ec578063168f68651461510057806318056dc2146150e45780631ba9998b14614ffa57806323cc270014614c38578063248a9ca314614c1a5780632614233514614be157806328e70ecc14614b805780632acde09814614a505780632e40f7fb14614a2a5780632ee663b8146149675780632f2ff15d1461493657806330224fc8146148fe57806331cc13ba146147c757806332273f61146147a3578063354ebef9146146c4578063356924ea1461468857806336568abe146146445780633dcad9db146144815780633f4ba83a1461440357806344aff252146142c157806344d1480b1461401b578063453eccea14613fff578063461cc23b14613fc0578063486398c314613f885780634962f88f1461178e5780634c4ede2d14613f675780634d99dd1614613c5a5780634de8addc14613c315780634e9c929a146124bc5780634f1ef28614613a285780635095af6414613a0157806352d1902d1461399b57806354de23201461397f5780635722d5121461381057806357601c5d146137c2578063585cd34b146137025780635c975abb146136d4578063615d24de146136b157806366c3687514612c3557806368a9f19c146136885780636d70f7ae146136465780636ec3ab6714613534578063708075281461349457806372b5032d14612bd957806375b238fc1461345a57806377ab2cf3146134385780637b76fe5e146133d65780637b9996c5146132845780637c6f3158146132675780637d6941c6146132325780637df92ada146132155780638456cb59146131a4578063859caa1814612ecb5780638770355014612df05780638a19c8bc14612dcb5780638a7fe60f14612d8b5780638c5b4ae714612d505780638d795d5014612d0c57806391d1485414612cb75780639494f42614612c765780639608567314612c355780639722f4b914612bd957806397feb92614612b9b5780639e87058514612b7e5780639e8c49d414612af6578063a217fddf14612adc578063a299e298146129ef578063a3b9c5c2146128db578063a457af3d146127b2578063a4b32de814612778578063a7fa6f981461275c578063aac6aa9c14612733578063aaf5eb6814612711578063ad3cb1cc146126b3578063b0dfce061461267f578063b54b2b9e1461265d578063ba05bbf51461263e578063c07449e2146125e2578063c35082a914612518578063c550d938146124bc578063c735302514612438578063cadd550c14612368578063cb15038b146122ee578063cbb6d6bd14612020578063cea9d26f14611e71578063d0e30db014611e45578063d1736ba714611d19578063d27a6f0614611cfc578063d547741f14611cc6578063d655b92a14611b9d578063d673e0b914611b65578063d775cb6114611b1f578063d9e257ef14611a7b578063db8a173a14611a55578063dc972ccc146119a1578063defe205314611979578063e0a5825b146117aa578063e1a452181461178e578063e1ee4bcc146114f0578063e4e88de8146114a0578063eb47353314611420578063f0b52bb41461122b578063f340c0d014611119578063f38c7c4e146110c8578063f3c4d8a014611043578063f3c9b31114611026578063f46913bb14610fe9578063f7cb789a14610fc1578063f8fd979514610af4578063fbcc7b3d14610ab1578063fbec486114610a56578063fc5e7e09146109d1578063fc8a91af146105c95763fd7d3dbc0361000e57346105c5576105b26105ac6105853661631e565b610594969295969493946168aa565b61059c6166fa565b6105a461676f565b503691616672565b93618495565b60015f80516020619fd383398151915255005b5f80fd5b346105c5576105d7366162e4565b906105e06168aa565b81156109c2576001600160a01b031690816109a65760405161060181616200565b5f81525f6020820152915b610615836172de565b9260018060a01b03851694855f52601860205260405f206002810154908115801561099a575b1561095457505083905b5f955f5b335f52601360205260405f205481101561094857335f5260136020526106728160405f206166cd565b5080546001600160a01b03168a1480610931575b6106935750600101610649565b92939495969750505f90335f52601560205260405f205f918154925b8381106108bd57505050506106c8906001830154616450565b83811061089d5750335f52601560205260405f20936106f960ff60036001600160401b035f54169401541693616424565b906040519261070784616236565b89845260208401918252604084019686885260608501918252608085019561072e816161ba565b865260a085019384528054600160401b8110156108895761075491600182018155616802565b95909561087657935185546001600160a01b0319166001600160a01b0391909116178555905180518a97600495610800949390926107ca9160018a01916107a49061079e816161ba565b8361686f565b602001518154610100600160a81b03191660089190911b610100600160a81b0316179055565b5160028701556001600160401b038060038801935116166001600160401b031983541617825551906107fb826161ba565b616887565b519101556001600160401b036001946108205f54838160c01c9116616732565b9060405193845260208401521660408201527f06325d83435da87657b063c6142a5b91a66a7e811827d082d624287a9953c4ba60603392a45b1561086057005b6309078cff60e21b5f523360045260245260445ffd5b634e487b7160e01b5f525f60045260245ffd5b634e487b7160e01b5f52604160045260245ffd5b6108a8879184618b2e565b6388c4fe8f60e01b5f5260045260245260445ffd5b8b6108c88285616802565b50546001600160a01b0316148061090b575b6108e7575b6001016106af565b9361090360019160026108fa8887616802565b5001549061664e565b9490506108df565b508161092b610926600161091f8588616802565b5001616829565b6172de565b146108da565b508261094261092660028401616829565b14610686565b50505050505050610859565b81610966600161096b9301548861645d565b61664e565b5f198101919082116109865761098091616470565b90610645565b634e487b7160e01b5f52601160045260245ffd5b5060018101541561063b565b6040516109b281616200565b600181528260208201529161060c565b631f2a200560e01b5f5260045ffd5b346105c55760203660031901126105c5576109ea61613f565b5f906001600160a01b0316815b815f52601360205260405f2054831015610a4b57610a43600191835f526013602052610a3d610a298660405f206166cd565b5084808060a01b0382541691015490618b2e565b9061664e565b9201916109f7565b602090604051908152f35b6105b26105ac610a653661631e565b610a74969295969493946168aa565b610a7c6166fa565b610a8461676f565b506001600160a01b038416610aa257610a9b6177ee565b3691616672565b610aac8585617d61565b610a9b565b346105c55760203660031901126105c557610aca61613f565b610ad2616dae565b602080546001600160a01b0319166001600160a01b0392909216919091179055005b346105c5575f3660031901126105c557610b0c6166fa565b610b1461676f565b505f335f52601260205260405f20905f90825492610b318461665b565b610b3e604051918261626c565b848152601f19610b4d8661665b565b01366020830137610b5d8561665b565b94610b6b604051968761626c565b808652601f19610b7a8261665b565b015f5b818110610f9e575050610b8f8161665b565b93610b9d604051958661626c565b818552601f19610bac8361665b565b013660208701375f6001600160401b035f5416906001600160401b0360015416905b8987868310610ef657898b918983610da0575b50505f5b828110610bff5760015f80516020619fd383398151915255005b610c09818561685b565b5190610c15818461685b565b51918051610c22816161ba565b610c2b816161ba565b610cdc5750905f80808093335af1610c416177bf565b5015610c9e576001905b818060a01b036020610c5d838861685b565b51015116610c6b828561685b565b516040519081527fd1c19fbcd4551a5edfb66d43d2e337c04837afda3482b42bdf569a8fccdae5fb60203392a301610be5565b60405162461bcd60e51b815260206004820152601660248201527513985d1a5d99481d1c985b9cd9995c8819985a5b195960521b6044820152606490fd5b602090810180516001600160a01b039081165f908152600690935260409092205490911692908315610d81575060405163f3fef3a360e01b8152336004820152602481019190915291602090839060449082905f905af1918215610d7657600192610d48575b50610c4b565b610d689060203d8111610d6f575b610d60818361626c565b810190619638565b5085610d42565b503d610d56565b6040513d5f823e3d90fd5b5160019350610d9b919033906001600160a01b031661843b565b610c4b565b909192935f945f5b8454811015610e9757610dbb818561685b565b5115610dca575b600101610da8565b95868103610de6575b610dde60019161681b565b969050610dc2565b610df0878661847c565b50610dfb828761847c565b929092610876578282610dde93600195141580610e1e575b505050915050610dd3565b6001600160401b03600281938193610e57575b8881015489870155015416920191166001600160401b0319825416179055898080610e13565b610e6560ff8254168761686f565b80548654610100600160a81b031916600891821c60a08c901b8c90031690911b610100600160a81b0316178655610e31565b5091509193925b845484811115610ee9578015610ed5575f1901610ebb818761847c565b610876576002815f80935582600182015501558555610e9e565b634e487b7160e01b5f52603160045260245ffd5b5091935091508380610be1565b610f18846001600160401b036002610f0f87839661847c565b50015416616732565b16841015610f2a575b50600101610bce565b610f8f8a95610f6a849c610f9594610f5a610f54888f8f610f4e60019c8d9261685b565b5261847c565b50616829565b610f64838361685b565b5261685b565b5083610f768d8c61847c565b500154610f83888d61685b565b52836108fa8d8c61847c565b9461681b565b98905089610f21565b602090604051610fad81616200565b5f81525f8382015282828b01015201610b7d565b346105c5575f3660031901126105c55760206001600160401b035f5460401c16604051908152f35b346105c55760403660031901126105c5576001600160a01b0361100a61613f565b165f52600a602052602060243560405f20541015604051908152f35b346105c5575f3660031901126105c557602060405162ed4e008152f35b346105c55760203660031901126105c55760043561ffff81168082036105c5576127109061106f616dae565b11611095576001805461ffff60801b191660809290921b61ffff60801b16919091179055005b60405162461bcd60e51b815260206004820152600b60248201526a496e76616c69642042505360a81b6044820152606490fd5b60203660031901126105c55760043560058110156105c5576105b2906110ec6168aa565b6110f46166fa565b6110fc61676f565b5060405161110981616200565b5f81525f6020820152349061920b565b346105c55760203660031901126105c5576001600160a01b0361113a61613f565b165f52601260205260405f208054906111528261665b565b91611160604051938461626c565b8083526020830180925f5260205f205f915b8383106111e4578486604051918291602083019060208452518091526040830191905f5b8181106111a4575050500390f35b91935091602060806001926001600160401b03604088516111c68482516161c4565b85810151828501520151166060820152019401910191849392611196565b600360206001926040516111f78161621b565b61120086616829565b815284860154838201526001600160401b036002870154166040820152815201920192019190611172565b346105c55760c03660031901126105c55761124461613f565b61124c616155565b906044356064359060a4359261ffff84168094036105c55761126c616e1d565b6001600160a01b0316936112818515156163eb565b6001600160a01b0316916112968315156165ac565b60405163551c457b60e11b81526004810186905293602085602481875afa938415610d7657600561135b61ffff926112f96040987f9a4c59c56153245e23dcb8000e301b9a5e35b8e6693c5cdbf3b6a2aa0f8a37ea9a5f916113f1575b50616602565b895f526006602052875f20816bffffffffffffffffffffffff60a01b8254161790558751908a7fc47df14ad9309b59073546f93dbe3115ed09c8b206d940f8441ddb07f745b10b5f80a361134c81616200565b600181528960208201526172de565b86519061136782616236565b60018252602082018781528883018781526060840191608435835260808501935f855260a086019889525f5260026020526113b48b5f2095511515869060ff801983541691151516179055565b5160018501555160028401555160038301555160048201550191511661ffff198254161790556113e385618e3d565b5082519182526020820152a2005b611413915060203d602011611419575b61140b818361626c565b8101906165ea565b8c6112f3565b503d611401565b346105c55760203660031901126105c5576001600160a01b0361144161613f565b16805f52600960205260405f2054151580611464575b6020906040519015158152f35b505f52600a60205260ff600160405f20015460201c16600381101561148c5760209015611457565b634e487b7160e01b5f52602160045260245ffd5b346105c55760203660031901126105c55760206114e86001600160a01b036114c661613f565b16805f52600a835260405f2054905f5260188352600260405f2001549061664e565b604051908152f35b346105c55760403660031901126105c55761150961613f565b602435906115156168aa565b81156109c2576001600160a01b031690816117735760405161153681616200565b5f81525f60208201525b611549816172de565b335f52601060205260405f20815f5260205260405f2090815490611571600184015483616450565b905f90335f52601160205260405f20905f5260205260405f205f908054915b828110611727575050508083111561172057856115ad8285616450565b1061170957508481106116f25750836115c591616450565b9055335f52601260205260405f206001600160401b035f541690604051926115ec8461621b565b83526020830190848252604084019283528054600160401b8110156108895761161a9160018201815561847c565b939093610876576001600160401b039260029261166d8593516116478151611641816161ba565b8961686f565b602001518754610100600160a81b03191660089190911b610100600160a81b0316178755565b5160018601555116920191166001600160401b03198254161790557f91eff7d39d2499d76ac21a1903a95a88f31589cb07b1ffdfb61db9f7cd8a39786116ed6116cc6001600160401b035f54166001600160401b036001541690616732565b604080519485526001600160401b0390911660208501523393918291820190565b0390a3005b849063adb9e04360e01b5f5260045260245260445ffd5b8590638ec3321160e01b5f5260045260245260445ffd5b855f6115ad565b61173181836190c8565b506001600160401b0360014392015460081c1611611752575b600101611590565b9261176b60019161176386856190c8565b50549061664e565b93905061174a565b60405161177f81616200565b60018152826020820152611540565b346105c5575f3660031901126105c55760206040516127108152f35b346105c55760403660031901126105c5576117c361613f565b602435906117cf6168aa565b6117d76166fa565b335f52600960205260405f2054611966576001600160a01b031680156119535761181560405161180681616200565b600181528260208201526172de565b5f52600260205260405f2060ff81541615611940576001839101549182821061192957611846925030903390619783565b61184f33618dd7565b5060405161185c816161e5565b818152602081015f8152604082015f815263ffffffff80600160608601955f8752335f52600a60205260405f2090518155019351161663ffffffff1983541617825551600381101561148c576118ea926118be6001600160401b039284616f9a565b5182546cffffffffffffffff00000000001916911660281b6cffffffffffffffff000000000016179055565b6040519081527fbc11617e575d658c74e921c8df22f8e48566072fa78145a6cfe18420bf8d0c4e60203392a260015f80516020619fd383398151915255005b50506322df051360e11b5f5260045260245260445ffd5b5063f6f24b8360e01b5f5260045260245ffd5b63f6f24b8360e01b5f525f60045260245ffd5b63866b0dcf60e01b5f523360045260245ffd5b346105c5575f3660031901126105c557601f546040516001600160a01b039091168152602090f35b346105c55760203660031901126105c5576001600160a01b036119c261613f565b165f52600c60205260405f20604051806020835491828152019081935f5260205f20905f5b818110611a3f57505050816119fd91038261626c565b604051918291602083019060208452518091526040830191905f5b818110611a26575050500390f35b8251845285945060209384019390920191600101611a18565b82548452602090930192600192830192016119e7565b346105c5575f3660031901126105c55760206001600160401b0360015416604051908152f35b5f3660031901126105c557611a8e6168aa565b611a966166fa565b335f52600a60205260405f2060ff600182015460201c16600381101561148c57611b0c5734156109c257611acb34825461664e565b90556040513481527f614a3fa8467eb54cb60af3aab440279837c9fcd75c5a2617fe0af9c6e5e60e8360203392a260015f80516020619fd383398151915255005b6371ab6ad560e11b5f523360045260245ffd5b346105c5575f3660031901126105c557611b4c604051611b3e81616200565b5f81525f60208201526172de565b5f5260026020526020600160405f200154604051908152f35b346105c55760203660031901126105c5576001600160a01b03611b8661613f565b165f52600a602052602060405f2054604051908152f35b346105c55760403660031901126105c557611bb661613f565b611bbe616155565b90611bc7616e1d565b6001600160a01b0316908115611c81576001600160a01b031690611bec8215156165ac565b60405163551c457b60e11b815260048101829052602081602481865afa8015610d7657611c1f915f91611c625750616602565b5f81815260066020526040812080546001600160a01b031916841790557fc47df14ad9309b59073546f93dbe3115ed09c8b206d940f8441ddb07f745b10b9080a3005b611c7b915060203d6020116114195761140b818361626c565b846112f3565b60405162461bcd60e51b815260206004820152601d60248201527f43616e6e6f7420736574206164617074657220666f72206e61746976650000006044820152606490fd5b346105c55760403660031901126105c557610018600435611ce5616155565b90611cf7611cf2826163cd565b616ed5565b617723565b346105c5575f3660031901126105c55760206040516276a7008152f35b346105c5575f3660031901126105c557611d316166fa565b335f52600a60205260405f2060018101805460ff8160201c16600381101561148c57600203611e32576001600160401b03805f54169160281c166001600160401b0360015460401c16906001600160401b03611d8d8383616732565b168310611e0857611dd05f8080808989828254925564010000000064ff0000000019825416179055611dbe33619492565b50335af1611dca6177bf565b5061833e565b337f120599f8830115ed973189f8f4947cc793fcd90a15d47c4d6ad8d1a3f15af7345f80a260015f80516020619fd383398151915255005b6001600160401b039291611e1b91616732565b90631b04d91d60e21b5f526004521660245260445ffd5b639923c53960e01b5f523360045260245ffd5b5f3660031901126105c557611e586168aa565b611e606166fa565b611e6861676f565b506105b26177ee565b346105c557611e7f366162e4565b335f9081527fb7db2dd08fcb62d0c9e08c51941cae53c267786a0b75803fb7960902fc8ef97d60205260409020549192909160ff1615612009576001600160a01b03831615611fd0578115611f9a576001600160a01b03165f81815260046020526040902054909290611f55575f838152600660205260409020546001600160a01b0316611f10576100189261843b565b60405162461bcd60e51b815260206004820152601b60248201527f43616e6e6f7420726573637565206164617074656420617373657400000000006044820152606490fd5b60405162461bcd60e51b815260206004820152601e60248201527f43616e6e6f7420726573637565207265676973746572656420617373657400006044820152606490fd5b60405162461bcd60e51b815260206004820152600e60248201526d125b9d985b1a5908185b5bdd5b9d60921b6044820152606490fd5b60405162461bcd60e51b8152602060048201526011602482015270125b9d985b1a59081c9958da5c1a595b9d607a1b6044820152606490fd5b63e2517d3f60e01b5f52336004525f60245260445ffd5b346105c55760803660031901126105c55761203961613f565b6064359061ffff821682036105c5575f80516020619ff3833981519152549160ff8360401c1615926001600160401b038116801590816122e6575b60011490816122dc575b1590816122d3575b506122c45767ffffffffffffffff1981166001175f80516020619ff383398151915255683800000000000000009261213b9185612298575b506120c7619700565b6120cf619700565b6120d7619700565b6120df619700565b60ff195f80516020619fb383398151915254165f80516020619fb383398151915255612109619700565b612111619700565b60015f80516020619fd38339815191525561212b81617044565b50612135816170db565b50617194565b5061214b604051611b3e81616200565b61ffff600560405161215c81616236565b6001815260208101602435815260408201604435815260608301905f825260808401925f845260a085019761271089525f5260026020526121b060405f2095511515869060ff801983541691151516179055565b5160018501555160028401555160038301555160048201550191511661ffff19825416179055600160ff196005541617600555601c600154600760c21b69546000000000000000016001600160401b0360801b5f541617175f5567ffffffffffffffff60401b199261ffff60801b9060801b169071ffff0000000000000000ffffffffffffffff19161717161760015561224657005b60ff60401b195f80516020619ff383398151915254165f80516020619ff3833981519152557fc7f505b2f371ae2175ee4913f4499e1f2633a7b5936321eed1cdaeb6115181d2602060405160018152a1005b68ffffffffffffffffff191668010000000000000001175f80516020619ff383398151915255856120be565b63f92ee8a960e01b5f5260045ffd5b90501585612086565b303b15915061207e565b859150612074565b346105c55760603660031901126105c55761230761613f565b60443560058110156105c55761231b6168aa565b6123236166fa565b61232b61676f565b506001600160a01b03821680156119535761234c6105b29360243590619647565b906040519061235a82616200565b60018252602082015261920b565b346105c55760203660031901126105c5576001600160a01b0361238961613f565b16805f52600a60205260405f2060ff600182015460201c16600381101561148c57612406576001905491805f526018602052600260405f20015490604051936123d185616200565b8452602084019182526001600160401b035f54165f52600e60205260405f20905f5260205260405f2092518355519101555f80f35b60405162461bcd60e51b815260206004820152600a6024820152694e6f742061637469766560b01b6044820152606490fd5b346105c55760203660031901126105c55761245161616b565b335f52600a60205260ff600160405f20015460201c16600381101561148c57611b0c57335f52600c6020526124946001600160401b0360405f2092168092618e8d565b50337fb6d5e45d77b8967cff525b375be6e07f99ca5af91d88724ac1237aafe295d50e5f80a3005b346105c55760403660031901126105c5576124d561616b565b6001600160401b036124e5616155565b91165f52605460205260405f209060018060a01b03165f5260205260206001600160401b0360405f205416604051908152f35b346105c55760403660031901126105c55761253161613f565b612539616155565b612541616576565b5061254a616576565b506001600160a01b0316806125c6575060405161256681616200565b5f81525f6020820152905b6001600160a01b03165f90815260106020526040902090612591906172de565b5f526020526125c26125a560405f2061658e565b604051918291829190916020806040830194805184520151910152565b0390f35b604051906125d382616200565b60018252602082015290612571565b346105c55760403660031901126105c5576125fb61616b565b6001600160401b0361260b616155565b91612614616576565b50165f52600e60205260405f209060018060a01b03165f526020526125c26125a560405f2061658e565b346105c5575f3660031901126105c55760205f5460c01c604051908152f35b346105c5575f3660031901126105c557602060ff600754166040519015158152f35b346105c5575f3660031901126105c5576126976166fa565b61269f61837c565b5060015f80516020619fd383398151915255005b346105c5575f3660031901126105c55760408051906126d2818361626c565b600582526020820191640352e302e360dc1b83528151928391602083525180918160208501528484015e5f828201840152601f01601f19168101030190f35b346105c5575f3660031901126105c5576020604051670de0b6b3a76400008152f35b346105c55760203660031901126105c55761001861274f61613f565b612757616dae565b617692565b346105c5575f3660031901126105c55760206040516132c88152f35b346105c5575f3660031901126105c55760206040517fb1fadd3142ab2ad7f1337ea4d97112bcc8337fc11ce5b20cb04ad038adf998198152f35b346105c55760403660031901126105c5576127cb61613f565b6127d3616181565b905f60c06040516127e381616251565b8281528260208201528260408201528260608201528260808201528260a0820152015260018060a01b03165f5260516020526001600160401b0360405f2091165f5260205260e060405f2060405161283a81616251565b8154916001600160401b0383169283835260208301906001600160401b038160401c1682526001600160401b03604085019160801c1681526001600160401b0360018401549160608601928352816002860154946080880195865260c0600460038901549860a08b01998a520154980197885260405198895251166020880152511660408601525160608501525160808401525160a08301525160c0820152f35b346105c55760603660031901126105c5576128f461613f565b6128fc616181565b506044359061271061291761ffff60015460801c168461645d565b049161294f6129268483616450565b9260018060a01b03811694855f52601a60205261294860405f2091825461664e565b9055619092565b825f52601860205260405f20906001820191825415155f146129be57670de0b6b3a7640000840293808504670de0b6b3a76400001490151715610986576129b26129ab5f80516020619f33833981519152956020955490616470565b825461664e565b90555b604051908152a2005b50602091505f80516020619f3383398151915292845f52601a83526129e860405f2091825461664e565b90556129b5565b346105c55760203660031901126105c5576001600160a01b03612a1061613f565b16805f52600d60205260405f205490612a288261665b565b91612a36604051938461626c565b808352612a428161665b565b602084019290601f19013684375f5b828110612aa5578385604051918291602083019060208452518091526040830191905f5b818110612a83575050500390f35b82516001600160a01b0316845285945060209384019390920191600101612a75565b600190825f52600d602052612abd8160405f20618dc2565b838060a01b0391549060031b1c16612ad5828861685b565b5201612a51565b346105c5575f3660031901126105c55760206040515f8152f35b346105c55760c03660031901126105c557612b0f61613f565b612b17616181565b612b1f616197565b906064356001600160401b0381116105c557366023820112156105c55780600401356001600160401b0381116105c55736602460608302840101116105c5576020946114e894612b6d616e8c565b60a435946024608435950192617dba565b346105c5575f3660031901126105c557602060405162278d008152f35b346105c55760403660031901126105c5576105b2612bb761613f565b612bbf6168aa565b612bc76166fa565b612bcf61676f565b5060243590617d61565b346105c55760403660031901126105c557612bf261616b565b6001600160401b03612c02616155565b91165f52605360205260405f209060018060a01b03165f5260205260206001600160401b0360405f205416604051908152f35b346105c55760203660031901126105c5576001600160a01b03612c5661613f565b165f52605260205260206001600160401b0360405f205416604051908152f35b346105c55760603660031901126105c557612c8f61613f565b612c97616181565b906044356001600160a01b03811681036105c5576020926114e89261648e565b346105c55760403660031901126105c557612cd0616155565b6004355f525f80516020619f9383398151915260205260405f209060018060a01b03165f52602052602060ff60405f2054166040519015158152f35b346105c55760a03660031901126105c55760206114e8612d2a61613f565b612d32616181565b90612d3b616197565b612d43616e8c565b60843592606435926178a3565b346105c55760203660031901126105c5576001600160a01b03612d7161613f565b165f5260186020526020600260405f200154604051908152f35b346105c55760203660031901126105c5576001600160a01b03612dac61613f565b165f526006602052602060018060a01b0360405f205416604051908152f35b346105c5575f3660031901126105c55760206001600160401b035f5416604051908152f35b346105c5575f3660031901126105c557335f52600a602052600160405f200160ff815460201c16600381101561148c57611b0c57612e719064020000000064ff00000000198254161781556001600160401b035f54166cffffffffffffffff000000000082549160281b16906cffffffffffffffff00000000001916179055565b612e946001600160401b035f54166001600160401b0360015460401c1690616732565b6001600160401b03604051911681527ffd47ed8e653fba5e6e9fcaa947419ca2334b3972ce196132ec69708574d6d35a60203392a2005b346105c55760403660031901126105c557600435612ee7616181565b90612ef06168aa565b335f52601360205260405f205481101561319257335f526013602052612f198160405f206166cd565b5090600160ff600384015416612f2e816161ba565b0361318357335f52601460205260405f20815f5260205260405f208054926001841115613174576001600160401b038516935f1993905f5b818110613141575b50505f19841461312e57335f908152601e6020908152604080832085546001600160a01b0316845282528083208884529091528120805491905583545f198101959190861161098657612fe86001600160401b03612fd9612fd28961300695616470565b9888616f27565b90549060031b1c169286616f27565b81939154906001600160401b03809160031b9316831b921b19161790565b905582548015610ed5575f190161301d8185616f27565b6001600160401b0382549160031b1b1916905583555f5b835481101561309c57335f908152601e6020908152604080832086546001600160a01b031684529091529020600191906001600160401b03806130778489616f27565b90549060031b1c16165f5260205260405f2061309487825461664e565b905501613034565b868383886040519081527fc38cef0d003bc8a9982db0d994b2ea048946028e9255cc061a56abcbb7d548a160203392a36020546001600160a01b0316806130df57005b81546001600160a01b031690803b156105c55760025f809461311a60405197889687958694632d01c5cb60e01b865201903360048601616f48565b03925af161312457005b5f6100189161626c565b84633062236b60e11b5f5260045260245ffd5b866001600160401b036131548388616f27565b90549060031b1c161461316957600101612f66565b945087905080612f6e565b63301ac92560e21b5f5260045ffd5b63138dfed560e11b5f5260045ffd5b630b21815d60e11b5f5260045260245ffd5b346105c5575f3660031901126105c5576131bc616dae565b6131c46168aa565b600160ff195f80516020619fb38339815191525416175f80516020619fb3833981519152557f62e78cea01bee320cd4e420270b5ea74000d11b0c9f74754ebdbfc544b05a2586020604051338152a1005b346105c5575f3660031901126105c5576020604051624f1a008152f35b346105c55760203660031901126105c5576004356001600160a01b03811681036105c55761269f906132626166fa565b61780f565b346105c5575f3660031901126105c5576020600854604051908152f35b346105c55760403660031901126105c5576001600160a01b036132a561613f565b165f52601460205260405f206024355f5260205260405f20604051908190602081549384815201905f5260205f20925f935b81600386011061338a57916125c2948492613314945491818110613370575b818110613353575b818110613336575b10613328575b50038261626c565b6040519182916020835260208301906162a8565b60c01c81526020018561330c565b9260206001916001600160401b038560801c168152019301613306565b9260206001916001600160401b038560401c1681520193016132fe565b9260206001916001600160401b03851681520193016132f6565b916001608060049285546001600160401b03811682526001600160401b038160401c1660208301526001600160401b0381841c16604083015260c01c60608201520193019401936132d7565b346105c55760203660031901126105c5576004358015158091036105c55760207fe2c375ae70efa82f7f1d8e9555f83f2df5c692d66834ebabba9d897fca46f3df91613420616e1d565b60ff196007541660ff821617600755604051908152a1005b346105c5575f3660031901126105c557602060ff600554166040519015158152f35b346105c5575f3660031901126105c55760206040517fa49807205ce4d355092ef5a8a18f56e8913cf4a201fbe287825b095693c217758152f35b346105c55760203660031901126105c5576134ad61613f565b6134b5616e1d565b6001600160a01b031680613516576134d2604051611b3e81616200565b60ff19600554166005555b5f52600260205260405f2060ff1981541690557ffc9274ad64ab0a7d8dedd8c9297fb4e25d7a17eb057457c6bcf2a8f13dc8859c5f80a2005b61352560405161180681616200565b61352e826193e7565b506134dd565b346105c55760203660031901126105c55761354d61613f565b5f60a060405161355c81616236565b8281526020810183905260408101839052606081018390526080810183905201526001600160a01b031680613628575061359b604051611b3e81616200565b5f52600260205260c060405f2061ffff6040516135b781616236565b60ff8354161515928382526001810154602083019081526002820154604084019081526003830154916060850192835260a0866005600487015496608089019788520154169501948552604051968752516020870152516040860152516060850152516080840152511660a0820152f35b60405161359b9161363882616200565b6001825260208201526172de565b346105c55760203660031901126105c557602061367e6001600160a01b0361366c61613f565b165f52600960205260405f2054151590565b6040519015158152f35b346105c55760203660031901126105c5576100186136a461613f565b6136ac616dae565b616fbf565b346105c55760203660031901126105c55760206114e86136cf61613f565b616424565b346105c5575f3660031901126105c557602060ff5f80516020619fb383398151915254166040519015158152f35b346105c55760203660031901126105c55761371b61613f565b613723616e1d565b6001600160a01b039081165f8181526006602052604090205490911615613785575f81815260066020526040812080546001600160a01b03191690557fdf980d21d8c7bb34800e668dbe003299093bac8e693614151d3c57f73f98a93d9080a2005b60405162461bcd60e51b8152602060048201526015602482015274139bc81859185c1d195c881c9959da5cdd195c9959605a1b6044820152606490fd5b346105c55760203660031901126105c5576137db61613f565b6001600160a01b03165f9081525f80516020619f53833981519152602090815260409182902054915160ff9092161515825290f35b346105c55760203660031901126105c5576001600160a01b0361383161613f565b165f52601560205260405f208054906138498261665b565b91613857604051938461626c565b8083526020830180925f5260205f205f915b838310613908578486604051918291602083019060208452518091526040830191905f5b81811061389b575050500390f35b91935091602060e060019260a087518580831b0381511683526138c485820151868501906161c4565b604081015160608401526001600160401b03606082015116608084015260808101516138ef816161ba565b82840152015160c082015201940191019184939261388d565b6005602060019260405161391b81616236565b848060a01b038654168152613931858701616829565b838201526002860154604082015260ff60038701546001600160401b038116606084015260401c16613962816161ba565b6080820152600486015460a0820152815201920192019190613869565b346105c5575f3660031901126105c5576020604051612ee08152f35b346105c5575f3660031901126105c5577f00000000000000000000000000000000000000000000000000000000000000006001600160a01b031630036139f25760206040515f80516020619f138339815191528152f35b63703e46dd60e11b5f5260045ffd5b346105c5575f3660031901126105c55760206040515f80516020619f738339815191528152f35b60403660031901126105c557613a3c61613f565b602435906001600160401b0382116105c557366023830112156105c557816004013590613a688261628d565b91613a76604051938461626c565b808352602083019336602483830101116105c557815f926024602093018737840101526001600160a01b037f000000000000000000000000000000000000000000000000000000000000000016308114908115613c0f575b506139f257613adb616dae565b6040516352d1902d60e01b81526001600160a01b0382169390602081600481885afa5f9181613bdb575b50613b1d5784634c9c8ce360e01b5f5260045260245ffd5b805f80516020619f13833981519152869203613bc95750823b15613bb7575f80516020619f1383398151915280546001600160a01b031916821790557fbc7cd75a20ee27fd9adebab32041f755214dbc6bffa90cc0225b39da2e5c2d3b5f80a2825115613b9e575f8091610018945190845af4613b986177bf565b91619e4e565b50505034613ba857005b63b398979f60e01b5f5260045ffd5b634c9c8ce360e01b5f5260045260245ffd5b632a87526960e21b5f5260045260245ffd5b9091506020813d602011613c07575b81613bf76020938361626c565b810103126105c557519086613b05565b3d9150613bea565b5f80516020619f13833981519152546001600160a01b03161415905084613ace565b346105c5575f3660031901126105c55760206001600160401b0360015460401c16604051908152f35b346105c55760403660031901126105c557613c7361613f565b60243590613c7f6168aa565b613c876166fa565b81156109c25760405191613c9a83616200565b5f83525f6020840152613cac836172de565b9160018060a01b03811693845f52601860205260405f2060028101549081158015613f5b575b15613f2f575050825b5f945f5b335f52601360205260405f2054811015613f2457335f526013602052613d088160405f206166cd565b5080546001600160a01b0316891480613f0d575b613d295750600101613cdf565b929394959650505f90335f52601560205260405f205f918154925b838110613eae5750505050613d5d906001830154616450565b828110613ea35750335f52601560205260405f2092613d8e60ff60036001600160401b035f54169401541695616424565b60405191613d9b83616236565b888352602083019081526040830195858752606084019485526080840197613dc2816161ba565b885260a084019283528054600160401b81101561088957613de891600182018155616802565b94909461087657925184546001600160a01b0319166001600160a01b03919091161784555180515f978a97600495613e329490936107ca9160018a01916107a49061079e816161ba565b519101556001600160401b03600194613e528554838160c01c9116616732565b9060405193845260208401521660408201527f06325d83435da87657b063c6142a5b91a66a7e811827d082d624287a9953c4ba60603392a45b156108605760015f80516020619fd383398151915255005b6108a8869186618b2e565b8a613eb98285616802565b50546001600160a01b03161480613ef3575b613ed8575b600101613d44565b93613eeb60019160026108fa8887616802565b949050613ed0565b5081613f07610926600161091f8588616802565b14613ecb565b5082613f1e61092660028401616829565b14613d1c565b505050505050613e8b565b816109666001613f419301548761645d565b5f1981019190821161098657613f5691616470565b613cdb565b50600181015415613cd2565b346105c5575f3660031901126105c557613f7f6166fa565b61269f3361780f565b346105c55760203660031901126105c5576001600160a01b03613fa961613f565b165f52600d602052602060405f2054604051908152f35b60203660031901126105c5576105b2613fd761613f565b613fdf6168aa565b613fe76166fa565b613fef61676f565b50613ff86177ee565b34906168d1565b346105c5575f3660031901126105c5576020604051613e808152f35b346105c5575f3660031901126105c5576140336166fa565b61403b61676f565b505f805b335f52601360205260405f205482101561424557335f5260136020526140688260405f206166cd565b5060ff60038201541661407a816161ba565b614110576140ff90600192670de0b6b3a76400006140cf85808060a01b03855416940154845f52601860205260405f2094335f52601960205260405f2090888060a01b03165f5260205260405f20945461645d565b0482548082115f14614108576140e59082616450565b925b5f6140f78783019586549061664e565b94555561664e565b915b019061403f565b505f926140e7565b335f9081526014602090815260408083208684529091528120915490916001600160a01b03909116908190835b815481101561422f57956001876001600160401b0361415d839a86616f27565b90549060031b1c16855f52601b60205260405f206001600160401b0382165f52602052670de0b6b3a76400006141eb60405f20335f52601c60205260405f208a5f5260205260405f206001600160401b0385165f5260205260405f2093335f52601e60205260405f208b5f526020526001600160401b0360405f2091165f5260205260405f2054905461645d565b049080548083115f14614223576142176142065f9285616450565b9a5b610a3d8785019c8d549061664e565b9955550190965061413d565b505f614217819a614208565b5050505061423f9060019261664e565b91614101565b80614267575b60209060015f80516020619fd383398151915255604051908152f35b5f80808084335af16142776177bf565b50156142b2576020906040518181527f106f923f993c2149d49b4255ff723acafa1f2d94393f561d3eda32ae348f7241833392a2905061424b565b6312171d8360e31b5f5260045ffd5b346105c55760203660031901126105c5576004356142dd6168aa565b335f52600a60205260405f2060ff600182015460201c16600381101561148c57611b0c5781156109c257614316604051611b3e81616200565b5f526002602052600160405f200154335f52600b60205261433d60405f2054809354616450565b816143488583616450565b106143e35783614358818561664e565b6001600160401b03600181805f54166040519461437486616200565b855260208501908152335f52600b60205260405f20945185555116920191166001600160401b03198254161790557ff7e874d9fd42838b0f06a44c7bbe45417b991e6b000e8ca4c5c1f086084a9cd36143de6116cc5f546001600160401b038160c01c9116616732565b0390a2005b836143ed91616450565b906322df051360e11b5f5260045260245260445ffd5b346105c5575f3660031901126105c55761441b616dae565b5f80516020619fb38339815191525460ff8116156144725760ff19165f80516020619fb3833981519152557f5db9ee0a495bf2e6ff9c91a7834c1ba4fdd244a5e8aa4e537bd38aeae4b073aa6020604051338152a1005b638dfc202b60e01b5f5260045ffd5b346105c55760803660031901126105c55761449a61613f565b6144a2616181565b906144ab616197565b506064356127106144c561ffff60015460801c168361645d565b04926144f66144d48584616450565b9360018060a01b03811695865f52601a60205261294860405f2091825461664e565b835f52601860205260405f2090600182019182548061460e575b5050845f52601b6020526001600160401b0360405f2091165f5260205260405f20906001600160401b035f54166001600160401b036003840191166001600160401b0319825416179055600182015480159283156145be575b505092602092915f80516020619f3383398151915294541590816145b6575b50614598575b50604051908152a2005b845f52601a83526145ae60405f2091825461664e565b90558461458e565b905086614588565b9392909491670de0b6b3a7640000830294838604670de0b6b3a76400001484151715610986576146016129ab5f80516020619f3383398151915298602098616470565b9055919481939450614569565b670de0b6b3a76400008602868104670de0b6b3a764000014871517156109865761463b916129ab91616470565b90558580614510565b346105c55760403660031901126105c55761465d616155565b336001600160a01b038216036146795761001890600435617723565b63334bd91960e11b5f5260045ffd5b346105c55760803660031901126105c55760206114e86146a661613f565b6146ae616181565b906146b7616e8c565b6064359160443591617325565b346105c55760a03660031901126105c5576146dd61613f565b60243590604435906084359261ffff84168094036105c5577f9a4c59c56153245e23dcb8000e301b9a5e35b8e6693c5cdbf3b6a2aa0f8a37ea92604092614722616e1d565b6001600160a01b0316946147378615156163eb565b61ffff600561474a865161134c81616200565b86519061475682616236565b60018252602082018781528883018781526060840191606435835260808501935f855260a086019889525f5260026020526113b48b5f2095511515869060ff801983541691151516179055565b346105c5575f3660031901126105c557602061ffff60015460801c16604051908152f35b346105c55760203660031901126105c5576001600160a01b036147e861613f565b165f52601360205260405f208054906148008261665b565b9161480e604051938461626c565b8083526020830180925f5260205f205f915b8383106148a3578486604051918291602083019060208452518091526040830191905f5b818110614852575050500390f35b91935091602060a0600192606087518580851b0381511683528481015185840152614885604082015160408501906161c4565b0151614890816161ba565b6080820152019401910191849392614844565b600460206001926040516148b6816161e5565b848060a01b03865416815284860154838201526148d560028701616829565b604082015260ff6003870154166148eb816161ba565b6060820152815201920192019190614820565b346105c55760203660031901126105c5576001600160a01b0361491f61613f565b165f52601a602052602060405f2054604051908152f35b346105c55760403660031901126105c557610018600435614955616155565b90614962611cf2826163cd565b61724d565b346105c55760203660031901126105c55761498061613f565b6149886163a9565b506149916163a9565b5060018060a01b03165f52600a60205260405f206001604051916149b4836161e5565b805483520154906020810163ffffffff8316815260ff8360201c166040830191600382101561148c5763ffffffff9183526001600160401b03606085019560281c168552604051935184525116602083015251600381101561148c576080926001600160401b0391604084015251166060820152f35b346105c5575f3660031901126105c557602080546040516001600160a01b039091168152f35b5f3660031901126105c557614a636168aa565b614a6b6166fa565b614a80335f52600960205260405f2054151590565b61196657614a93604051611b3e81616200565b5f52600260205260405f2060ff815416156119535760010154803410614b6a57614abc33618dd7565b50604051614ac9816161e5565b348152602081015f8152604082015f815263ffffffff80600160608601955f8752335f52600a60205260405f2090518155019351161663ffffffff1983541617825551600381101561148c57614b2b926118be6001600160401b039284616f9a565b6040513481527fbc11617e575d658c74e921c8df22f8e48566072fa78145a6cfe18420bf8d0c4e60203392a260015f80516020619fd383398151915255005b6322df051360e11b5f526004523460245260445ffd5b346105c55760203660031901126105c557614b9961616b565b335f52600c602052614bb96001600160401b0360405f209216809261953d565b50337f4b9bbf2ebc79e9fb39a64920934b3f458a486552d3df95395aa750ece9e970935f80a3005b346105c55760203660031901126105c5576020614c016004356008618dc2565b905460405160039290921b1c6001600160a01b03168152f35b346105c55760203660031901126105c55760206114e86004356163cd565b346105c55760403660031901126105c557600435614c54616181565b90614c5d6168aa565b335f52601360205260405f205481101561319257335f526013602052614c868160405f206166cd565b5090600160ff600384015416614c9b816161ba565b0361318357335f52601460205260405f20815f5260205260405f205f9080546001600160401b038616925b818110614fc057506001850154906001810180821161098657614ce99083616470565b9181614e37575b5050335f52601e60205260405f2060018060a01b0386541660018060a01b03165f5260205260405f20835f526020528060405f205560018060a01b038554165f52601b60205260405f20835f52602052614d71600260405f209260018401614d5982825461664e565b8091558181145f14614e115750925b0191825461664e565b90558054600160401b81101561088957612fe88184936001614d9594018155616f27565b90556040519081527fa7b81e017abeb50ecf2c121cb0db7087dfc4b3cc85cd8d857f9a5f1e81f6484560203392a36020546001600160a01b031680614dd657005b81546001600160a01b031690803b156105c55760025f809461311a604051978896879586946367b2734d60e01b865201903360048601616f48565b614e2b614e3192614e25858801548261645d565b92616450565b90616470565b92614d68565b91614e49614e4e928298969794616470565b616450565b935f5b8354811015614fb357806001600160401b03614e6f60019387616f27565b90549060031b1c16335f52601e60205260405f2090838060a01b0388541691848060a01b0383165f5260205260405f206001600160401b0382165f5260205260405f205491828a115f14614fa857614ec78380616450565b90335f52601e60205260405f2090868060a01b03165f5260205260405f206001600160401b0383165f5260205260405f2055838060a01b038854165f52601b6020526001600160401b0360405f2091165f5260205260405f208381019081549083821015614f3a575b5050505001614e51565b614f4684600293616450565b809355019182549182151580614f9f575b15614f9957614e2b82614f6d85614f739561645d565b9261664e565b81811115614f8a5750505f905b5589808080614f30565b614f9391616450565b90614f80565b50614f73565b50801515614f57565b614ec78a8094616450565b5092949093508680614cf0565b836001600160401b03614fd38386616f27565b90549060031b1c1614614fe857600101614cc6565b8362d00d2f60e11b5f5260045260245ffd5b346105c5575f3660031901126105c5575f546001600160401b038160801c1661502f6001600160401b038360401c1682616732565b901515806150d2575b6150a957506001600160401b03615050818316616752565b1680916001600160401b0360801b4260801b169077ffffffffffffffff0000000000000000ffffffffffffffff191617175f557f7cee7087baafdfa8f9d1bd39c560782e2eedf861e2648b232a805033537c56955f80a2005b6001600160401b039063274928d560e01b5f52166004526001600160401b03421660245260445ffd5b506001600160401b0381164210615038565b346105c5575f3660031901126105c5576020604051612af88152f35b346105c55760203660031901126105c55761511961613f565b5f906001600160a01b0316815b815f52601360205260405f2054831015610a4b57815f52601360205261514f8360405f206166cd565b5060ff600382015416615161816161ba565b6151f057600191610a3d6151dd92670de0b6b3a76400006151bb868060a01b0383541692835f52601860205260405f2093895f52601960205260405f2090898060a01b03165f526020528760405f2094549101549061645d565b048154908181115f146151e65786916151d391616450565b915b01549061664e565b925b0191615126565b5050845f916151d5565b5f8381526014602090815260408083208784529091528120805492549395936001600160a01b03169081905b8484106152305750505050506001906151df565b60016152df8199610a3d6001600160401b0361525189879d9a9b9c9d616f27565b90549060031b1c16865f52601b60205260405f206001600160401b0382165f52602052670de0b6b3a76400006151bb60405f208b5f52601c60205260405f208b5f5260205260405f206001600160401b0385165f5260205260405f20938c5f52601e60205260405f208c5f526020526001600160401b0360405f2091165f5260205260405f2054905461645d565b950193969594975061521c565b346105c55760403660031901126105c55761530561613f565b61530d616155565b6001600160a01b039182169181165f805b845f52601360205260405f2054821015610a4b57845f5260136020526153478260405f206166cd565b5080546001600160a01b03168490036154365760ff60038201541661536b816161ba565b61538b57600191610a3d8361538293015487618b2e565b915b019061531e565b5090845f52601460205260405f20815f5260205260405f205f8154915b8282106153ba57505050600190615384565b91939460016154278998939597829a5f52601e60205260405f20845f5260205260405f206001600160401b03806153f18a8a616f27565b90549060031b1c16165f52602052610a3d60405f20546001600160401b036154198a8a616f27565b90549060031b1c1687618d7e565b940191969750949293916153a8565b5090600190615384565b346105c55760403660031901126105c55761545961613f565b6001600160a01b03615469616155565b1680615598575060405161547c81616200565b5f81525f6020820152905b6001600160a01b03165f908152601160205260409020906154a7906172de565b5f5260205260405f208054906154bc8261665b565b916154ca604051938461626c565b8083526020830180925f5260205f205f915b83831061554f578486604051918291602083019060208452518091526040830191905f5b81811061550e575050500390f35b91935091602060606001926001600160401b03604088518051845261553986820151878601906161ad565b0151166040820152019401910191849392615500565b600260206001926040516155628161621b565b855481526001600160401b038587015461558160ff8216868501616f1b565b60081c1660408201528152019201920191906154dc565b604051906155a582616200565b60018252602082015290615487565b346105c55760403660031901126105c5576155cd61613f565b6155d5616181565b9060018060a01b03165f5260516020526001600160401b0360405f2091165f5260205260e060405f20805490600181015490600281015460046003830154920154926001600160401b03604051958181168752818160401c16602088015260801c1660408601526060850152608084015260a083015260c0820152f35b346105c55760203660031901126105c55761566b61613f565b615673616dae565b601f80546001600160a01b0319166001600160a01b0392909216919091179055005b346105c5575f3660031901126105c55760206001600160401b035f5460801c16604051908152f35b346105c55760603660031901126105c5576156d661616b565b6156de616181565b906156e7616197565b906156f0616dae565b5f54906001600160401b0360c01b9060c01b169060018060c01b0316175f556001600160401b0367ffffffffffffffff60401b6001549260401b169216906fffffffffffffffffffffffffffffffff191617176001555f80f35b346105c55760203660031901126105c55761576361613f565b61576b6163a9565b506157746163a9565b5060018060a01b03165f526018602052608060405f206001600160401b0360405161579e816161e5565b825492838252600181015460208301908152606084600360028501549460408701958652015416930192835260405194855251602085015251604084015251166060820152f35b346105c55760403660031901126105c5576105b261580161613f565b6158096168aa565b6158116166fa565b61581961676f565b50602435906168d1565b346105c55760203660031901126105c55760043563ffffffff60e01b81168091036105c557602090637965db0b60e01b8114908115615868575b506040519015158152f35b6301ffc9a760e01b1490508261585d565b346105c5575f3660031901126105c5576158916166fa565b61589961676f565b505f335f52601560205260405f20905f5b82548110156105b2576158bd8184616802565b50915f546001600160401b03806158de816003880154168460c01c90616732565b1691161061612f576158f561092660018501616829565b9161592660018060a01b03855416615911600287015482618b2e565b90615920600488015491616424565b91618b69565b935f5b335f5260136020528560405f20548210156161205750335f5260136020526159548160405f206166cd565b50805483546001600160a01b0390811691161480616109575b61597a5750600101615929565b93600385979297019660ff88541695615992876161ba565b6001871480156160e857335f52601460205260405f20835f5260205260405f2060405180602083549182815201925f5260205f20905f915b8160038401106160985793615a06928492615a0c96549181811061607e575b818110616061575b818110616044575b106160365750038261626c565b986161ba565b8061602c575b615f4f575b60018060a01b038554169760ff60028701549a54169761271090615a3d60018901616829565b995f615a48826161ba565b81615f285750615a578c619092565b8b5f52601860205260405f209c335f52601960205260405f208d60018060a01b03165f5260205260405f209b5f9c5f5b335f52601360205260405f2054811015615b02578f335f526013602052615ab18260405f206166cd565b509060018060a01b038254161480615aea575b615ad2575b50600101615a87565b6001919f82615ae39201549061664e565b9e90615ac9565b5060ff600382015416615afc816161ba565b15615ac4565b509d8a9f9e615b86989a9d9f8c9d9f670de0b6b3a764000091615b6e919e969798999a9c9e80615ee9575b5f9860018301615b3e828254616450565b90556002830180548a81811115615eda5750505f905b5580821115615ed157615b6691616450565b905b5461645d565b0490555b615b808785858585336199e7565b33619b26565b615b9a600160028801549301928354616450565b8255335f52601060205260405f20905f52602052600160405f2001615bc981548086115f14615eca5780616450565b90555415615d53575b50615bdc9161664e565b9260018060a01b0382541690600260018060a01b03600185015460081c169301549060405191825260208201527fe4183514c7483039538cd1f9ca20e489b3c411f3af1211cf6b5ad0a00ca4e22860403392a482545f19810190811161098657615c469084616802565b50615c518285616802565b91909161087657808203615c9d575b505082548015610ed5575f1901615c778185616802565b610876576004815f809355826001820155826002820155826003820155015583556158aa565b805482546001600160a01b0319166001600160a01b039190911617825560049081906001808201908501828603615d1b575b505060028101546002850155615d0f6003850160ff600384016001600160401b0380825416166001600160401b03198454161783555460401c1690616887565b01549101558380615c60565b81615d2d60ff615d4c9454168361686f565b548154610100600160a81b031916610100600160a81b03909116179055565b8780615ccf565b905060018060a01b038354165f52600a602052600160405f200163ffffffff815416801561098657815463ffffffff19165f1991820163ffffffff1617909155335f908152601360205260409020805491820191821161098657615dcd91615dba916166cd565b5091335f52601360205260405f206166cd565b61087657818103615e5c575b5050335f52601360205260405f209081548015610ed5575f190190615dfe82846166cd565b92909261087657615bdc935f600385828b975582600182015582600282015501555560018060a01b03845416615e348133617cde565b15615e41575b5091615bd2565b5f52600d602052615e553360405f2061953d565b5087615e3a565b815481546001600160a01b0319166001600160a01b039190911617815560018083015490820155615eab9160039060ff9082906002808201908601828703615eb2575b5050015416910161686f565b8580615dd9565b81615d2d86615ec39454168361686f565b8b80615e9f565b8590616450565b50505f90615b68565b615ee391616450565b90615b54565b83615ef582845461645d565b0485548082115f14615f2057615f0a91616450565b615f196001870191825461664e565b9055615b2d565b50505f615f0a565b909192939597809d9b8d615f4a615b86989a9d9f849d9f855f918a93336197c7565b615b72565b97939692909491615f666002890154885190616470565b955f5b885181101561601d57335f908152601e602090815260408083208d546001600160a01b0316808552925290912060019291906001600160401b0380615fae858f61685b565b5116165f5260205260405f20548a8181115f1461600e5750505f905b335f52601e60205260405f2090848060a01b03165f526020528a6001600160401b0380615ffb8560405f209461685b565b5116165f5260205260405f205501615f69565b61601791616450565b90615fca565b50919397949890929550615a17565b5086511515615a12565b60c01c81526020015f61330c565b9260206001916001600160401b038560801c1681520193016159f9565b9260206001916001600160401b038560401c1681520193016159f1565b9260206001916001600160401b03851681520193016159e9565b92936001608060049286546001600160401b03811682526001600160401b038160401c1660208301526001600160401b0381841c16604083015260c01c60608201520194019201919392936159ca565b615a0c6020604051906160fb818361626c565b5f8252505f368137986161ba565b508561611a61092660028401616829565b1461596d565b91939050615bdc92945061664e565b915061613a9061681b565b6158aa565b600435906001600160a01b03821682036105c557565b602435906001600160a01b03821682036105c557565b600435906001600160401b03821682036105c557565b602435906001600160401b03821682036105c557565b604435906001600160401b03821682036105c557565b90600582101561148c5752565b6002111561148c57565b60209080516161d2816161ba565b83528101516001600160a01b0316910152565b608081019081106001600160401b0382111761088957604052565b604081019081106001600160401b0382111761088957604052565b606081019081106001600160401b0382111761088957604052565b60c081019081106001600160401b0382111761088957604052565b60e081019081106001600160401b0382111761088957604052565b90601f801991011681019081106001600160401b0382111761088957604052565b6001600160401b03811161088957601f01601f191660200190565b90602080835192838152019201905f5b8181106162c55750505090565b82516001600160401b03168452602093840193909201916001016162b8565b60609060031901126105c5576004356001600160a01b03811681036105c557906024356001600160a01b03811681036105c5579060443590565b9060a06003198301126105c5576004356001600160a01b03811681036105c557916024356001600160a01b03811681036105c557916044359160643560028110156105c557916084356001600160401b0381116105c557826023820112156105c5578060040135926001600160401b0384116105c55760248460051b830101116105c5576024019190565b604051906163b6826161e5565b5f6060838281528260208201528260408201520152565b5f525f80516020619f93833981519152602052600160405f20015490565b156163f257565b60405162461bcd60e51b815260206004820152600a602482015269557365206e617469766560b01b6044820152606490fd5b6001600160a01b03165f908152600f60205260409020548061644d5750670de0b6b3a764000090565b90565b9190820391821161098657565b8181029291811591840414171561098657565b811561647a570490565b634e487b7160e01b5f52601260045260245ffd5b929190925f9360018060a01b0382165f5260516020526001600160401b0360405f2091165f5260205260405f2090604051926164c984616251565b82546001600160401b0380821691828752818160401c16602088015260801c166040860152600184015460608601526002840154946080810195865260c0600460038701549660a0840197885201549101521561656d579061652a91617cde565b918215616565575190519081811161654157505050565b670de0b6b3a7640000939450616561929161655b91616450565b9061645d565b0490565b505f93505050565b505f9450505050565b6040519061658382616200565b5f6020838281520152565b9060405161659b81616200565b602060018294805484520154910152565b156165b357565b60405162461bcd60e51b815260206004820152600f60248201526e24b73b30b634b21030b230b83a32b960891b6044820152606490fd5b908160209103126105c5575180151581036105c55790565b1561660957565b60405162461bcd60e51b815260206004820152601d60248201527f4164617074657220646f65736e277420737570706f727420746f6b656e0000006044820152606490fd5b9190820180921161098657565b6001600160401b0381116108895760051b60200190565b929161667d8261665b565b9361668b604051958661626c565b602085848152019260051b81019182116105c557915b8183106166ad57505050565b82356001600160401b03811681036105c5578152602092830192016166a1565b80548210156166e6575f5260205f209060021b01905f90565b634e487b7160e01b5f52603260045260245ffd5b60025f80516020619fd383398151915254146167235760025f80516020619fd383398151915255565b633ee5aeb560e01b5f5260045ffd5b906001600160401b03809116911601906001600160401b03821161098657565b6001600160401b03166001600160401b0381146109865760010190565b5f546001600160401b038160801c1680151590816167de575b5061679257505f90565b6001600160401b036167a5818316616752565b77ffffffffffffffff0000000000000000ffffffffffffffff199092164260801b67ffffffffffffffff60801b16179116175f55600190565b6001600160401b0391506167f890828460401c1690616732565b164210155f616788565b80548210156166e6575f52600560205f20910201905f90565b5f1981146109865760010190565b9060405161683681616200565b602081935460ff8116616848816161ba565b835260081c6001600160a01b0316910152565b80518210156166e65760209160051b010190565b90616879816161ba565b60ff80198354169116179055565b90616891816161ba565b60ff60401b82549160401b169060ff60401b1916179055565b60ff5f80516020619fb383398151915254166168c257565b63d93c066560e01b5f5260045ffd5b604051916168de83616200565b5f83525f60208401526020916040516168f7848261626c565b5f81525f36813782156109c2578051616d9f576001600160a01b0382165f90815260098552604090205415616d7e5760018060a01b0382165f52600a8452600160405f20019460ff8654861c16600381101561148c57616d605761695a816172de565b335f526010865260405f20815f52865260405f209283549361698160018201548096616450565b878110616d4957506169938787619bd7565b9485156109c257876169a49161664e565b60018201555f985f805b335f5260138b5260405f2054811015616d3957335f5260138b526169d58160405f206166cd565b5080546001600160a01b038b811691161480616d22575b6169f957506001016169ae565b91509192939495969798999a5060ff60038201541660025f101561148c57616a20816161ba565b616d1357600101616a3288825461664e565b905560015b616c1a5750335f526013895260405f2054335f5260138a5260405f20604051616a5f816161e5565b6001600160a01b038a1681528b8101898152604082018981529260608301905f82528054600160401b81101561088957616a9e916001820181556166cd565b93909361087657616b30948f600394616b1f9360018060a01b039060018060a01b03905116166bffffffffffffffffffffffff60a01b88541617875551600187015560028601915190616afb8251616af5816161ba565b8461686f565b01518154610100600160a81b03191660089190911b610100600160a81b0316179055565b5191616b2a836161ba565b0161686f565b335f908152601d8b5260408082206001600160a01b038b1683528c52808220928252918b5220805460ff19166001179055805463ffffffff90811694908514610986576001616bb9938a9363ffffffff83616bc599011663ffffffff19825416179055818060a01b038a165f52600d8c52616bae3360405f20618e8d565b505b01549033619c32565b905f8786868933618bdc565b60200151604051938452938301526001600160a01b0392909216915f60408301526001600160a01b03169033907f4fe2fde631e986ee26283901b9cc8d6d4a311b750f9fa0d659520deba2995f1f90606090a4565b9050929192335f5260138952600160ff6003616c398460405f206166cd565b50015416616c46816161ba565b14616c5e575b5086616bc593926001616bb993616bb0565b979491969295939097335f526014865260405f20905f52855260405f209586548015155f14616d0b57616c919084616470565b975b5f5b8854811015616cf757335f908152601e895260408082206001600160a01b038a1683528a529020600191906001600160401b0380616cd3848e616f27565b90549060031b1c16165f52895260405f20616cef8c825461664e565b905501616c95565b509598939750939550909390929186616c4c565b505f97616c93565b630abce6af60e41b5f5260045ffd5b5086616d3361092660028401616829565b146169ec565b5090919293949596979899616a37565b87906312e1fa3760e11b5f5260045260245260445ffd5b6371ab6ad560e11b5f9081526001600160a01b038416600452602490fd5b5063bd62013360e01b5f9081526001600160a01b0391909116600452602490fd5b6310db86df60e21b5f5260045ffd5b335f9081527fb16e88c42fd4e48df2dd6a2eabd6bc9aec654ec170056b470819f8892cc6431c602052604090205460ff1615616de657565b63e2517d3f60e01b5f52336004527fa49807205ce4d355092ef5a8a18f56e8913cf4a201fbe287825b095693c2177560245260445ffd5b335f9081527f5bc841a6d925a620866922bada36d16da3dcc9d52290519ea1126e5ca2372139602052604090205460ff1615616e5557565b63e2517d3f60e01b5f52336004527fb1fadd3142ab2ad7f1337ea4d97112bcc8337fc11ce5b20cb04ad038adf9981960245260445ffd5b335f9081525f80516020619f53833981519152602052604090205460ff1615616eb157565b63e2517d3f60e01b5f52336004525f80516020619f7383398151915260245260445ffd5b5f8181525f80516020619f938339815191526020908152604080832033845290915290205460ff1615616f055750565b63e2517d3f60e01b5f523360045260245260445ffd5b600582101561148c5752565b91909180548310156166e6575f52601860205f208360021c019260031b1690565b6001600160a01b03918216815291166020820152905460a0820193926080916001600160401b03919060ff8116616f7e816161ba565b604086015260081c6001600160a01b0316606085015216910152565b90600381101561148c5764ff0000000082549160201b169064ff000000001916179055565b6001600160a01b0381165f9081525f80516020619f53833981519152602052604090205460ff1661703f576001600160a01b03165f8181525f80516020619f5383398151915260205260408120805460ff191660011790553391905f80516020619f73833981519152905f80516020619ef38339815191529080a4600190565b505f90565b6001600160a01b0381165f9081527fb7db2dd08fcb62d0c9e08c51941cae53c267786a0b75803fb7960902fc8ef97d602052604090205460ff1661703f576001600160a01b03165f8181527fb7db2dd08fcb62d0c9e08c51941cae53c267786a0b75803fb7960902fc8ef97d60205260408120805460ff191660011790553391905f80516020619ef38339815191528180a4600190565b6001600160a01b0381165f9081527fb16e88c42fd4e48df2dd6a2eabd6bc9aec654ec170056b470819f8892cc6431c602052604090205460ff1661703f576001600160a01b03165f8181527fb16e88c42fd4e48df2dd6a2eabd6bc9aec654ec170056b470819f8892cc6431c60205260408120805460ff191660011790553391907fa49807205ce4d355092ef5a8a18f56e8913cf4a201fbe287825b095693c21775905f80516020619ef38339815191529080a4600190565b6001600160a01b0381165f9081527f5bc841a6d925a620866922bada36d16da3dcc9d52290519ea1126e5ca2372139602052604090205460ff1661703f576001600160a01b03165f8181527f5bc841a6d925a620866922bada36d16da3dcc9d52290519ea1126e5ca237213960205260408120805460ff191660011790553391907fb1fadd3142ab2ad7f1337ea4d97112bcc8337fc11ce5b20cb04ad038adf99819905f80516020619ef38339815191529080a4600190565b5f8181525f80516020619f93833981519152602090815260408083206001600160a01b038616845290915290205460ff166172d8575f8181525f80516020619f93833981519152602090815260408083206001600160a01b0395909516808452949091528120805460ff19166001179055339291905f80516020619ef38339815191529080a4600190565b50505f90565b8051906172ea826161ba565b602060018060a01b0391015116604051906020820192617309816161ba565b835260408201526040815261731f60608261626c565b51902090565b9093929160018060a01b03821691825f52600a60205260405f2090617355845f52600960205260405f2054151590565b1561767f5761736381618eda565b61766c57835f52601860205260405f20968397617386600285549201548261664e565b94851561765f578510617655575b846173a26173a7928b61645d565b616470565b916173ce6173c86173b783618f5d565b946173c28185618fbc565b9b616450565b82618ff5565b986173d98a8261664e565b996173e383618f5d565b956173f3604051611b3e81616200565b5f526002602052600160405f200154815410617639575b50875f5260526020528a60405f20998a546001600160401b03169a61742e8c616752565b6001600160401b03166001600160401b0319825416179055878a5f546001600160401b0316936040519461746186616251565b85528d60208601996001600160401b0316998a815260408701915f83526060880193845260808801948d865260a0890196875260c089019788525f52605160205260405f20906001600160401b03165f5260205260405f2096516001600160401b03166001600160401b03166001600160401b0319885416178755516001600160401b031661751390879067ffffffffffffffff60401b82549160401b169067ffffffffffffffff60401b1916179055565b51855467ffffffffffffffff60801b191660809190911b67ffffffffffffffff60801b16178555516001850155516002840155516003830155519060040155835f52605360205260405f20885f5260205260405f2080546001600160401b031661757c90616752565b6001600160401b03166001600160401b03198254161790556127108b02918b8304612710148c1517156109865761760089946175fa7f1508fbe22c9805770740c8f3827567950022729e0096e311dc087990c157fffc9a7f91754b254153861c1e9bc9186484a0bb770823acfa00423044ba1759a01210e796616470565b90619038565b604080519182526020820192909252908101869052606090a360408051888152602081019290925281019190915280606081015b0390a3565b600101805464ff0000000019166401000000001790555f61740a565b9397508793617394565b505f985050505050505050565b8363b516260d60e01b5f5260045260245ffd5b8363bd62013360e01b5f5260045260245ffd5b6001600160a01b0381165f9081525f80516020619f53833981519152602052604090205460ff161561703f576001600160a01b03165f8181525f80516020619f5383398151915260205260408120805460ff191690553391905f80516020619f73833981519152907ff6391f5c32d9c69d2a47ea670b442974b53935d1edc7fd64eb21e047a839171b9080a4600190565b5f8181525f80516020619f93833981519152602090815260408083206001600160a01b038616845290915290205460ff16156172d8575f8181525f80516020619f93833981519152602090815260408083206001600160a01b0395909516808452949091528120805460ff19169055339291907ff6391f5c32d9c69d2a47ea670b442974b53935d1edc7fd64eb21e047a839171b9080a4600190565b3d156177e9573d906177d08261628d565b916177de604051938461626c565b82523d5f602084013e565b606090565b61780d6040516177fd81616200565b5f81525f602082015234906190e1565b565b6001600160a01b031690811561789457335f52601a60205260405f2054918215617885575f8080858194338352601a6020528260408120555af16178516177bf565b50156142b2576040518281527f106f923f993c2149d49b4255ff723acafa1f2d94393f561d3eda32ae348f724160203392a2565b6373380d9960e01b5f5260045ffd5b63d92e233d60e01b5f5260045ffd5b6001600160a01b0381165f908152600a6020908152604080832060099092529091205494969492939290919015617cbe576001600160a01b0381165f908152601860209081526040808320601b83528184206001600160401b0389168552909252909120835460029283015492909101549094919061792690610966838861664e565b948515617cb057898661796792816173a29a9b9c9d11617ca6575b81617956614e49936173a261795f948761645d565b9a8b968561645d565b938492616450565b61798f61798761798061797987618f5d565b9987618fbc565b9386618ff5565b9189866195ee565b9561799e87610966848661664e565b9a8b996179aa87618f5d565b976179ba604051611b3e81616200565b5f526002602052600160405f200154815410617c8a575b506001600160a01b0387165f90815260526020526040902080546001600160401b03169b8c93918a918d91617a0587616752565b6001600160401b03166001600160401b03198254161790555f546001600160401b03169460405195617a3687616251565b8652602086019a6001600160401b03169a8b815260408701916001600160401b031697888352606088019384526080880194855260a0880195865260c088019687528d600160a01b60019003165f52605160205260405f20906001600160401b03165f5260205260405f2096516001600160401b03166001600160401b03166001600160401b0319885416178755516001600160401b0316617afb90879067ffffffffffffffff60401b82549160401b169067ffffffffffffffff60401b1916179055565b51855467ffffffffffffffff60801b191660809190911b67ffffffffffffffff60801b16178555516001850155516002840155516003830155519060040155845f52605360205260405f20600160a01b6001900387165f5260205260405f2080546001600160401b0316617b6e90616752565b6001600160401b03166001600160401b03198254161790555f52605460205260405f20600160a01b6001900386165f5260205260405f2080546001600160401b0316617bb990616752565b6001600160401b03166001600160401b03198254161790556127108b028b8104612710148c151715610986577f1508fbe22c9805770740c8f3827567950022729e0096e311dc087990c157fffc977f91754b254153861c1e9bc9186484a0bb770823acfa00423044ba1759a01210e793610966617c3a8a95617c4095616470565b89619038565b6040805194855260208501919091528301526001600160a01b03841691606090a36040805188815260208101959095528401919091526001600160a01b0316918060608101617634565b600101805464ff0000000019166401000000001790555f6179d1565b9091508190617941565b505050505050509150505f90565b63bd62013360e01b5f9081526001600160a01b0391909116600452602490fd5b90915f925f5b6001600160a01b0384165f81815260136020526040902054821015617d5a57805f526013602052617d188260405f206166cd565b50546001600160a01b03848116911614617d36575b50600101617ce4565b60019195617d53915f526013602052826108fa8860405f206166cd565b9490617d2d565b5050509050565b6001600160a01b0381169081156119535761780d92617d7f91619647565b9060405190617d8d82616200565b6001825260208201526190e1565b91908110156166e6576060020190565b3561ffff811681036105c55790565b6001600160a01b0381165f908152600a6020908152604080832060099092529091205495989796949590939192919015618320578815618310576001600160a01b0383165f908152601860209081526040808320601b83528184206001600160401b03871685529092528220865460029283015492909101549892979192885b8d808210618280575050881561827057888311618268575b617e5b87618f5d565b99617e6a81610966878661664e565b15618257578992918e915f935f975f935f945b8686106181d6575050505050505092614f6d617ed6617ecf617ec886614e49617ec088617eb76109669a6173a2617ede9e6173a29e61645d565b9a8b998561645d565b988992616450565b938a618fbc565b9489618ff5565b9187896195ee565b98617ee884618f5d565b94617ef8604051611b3e81616200565b5f526002602052600160405f2001548154106181ba575b506001600160a01b0384165f90815260526020526040902080546001600160401b03169890617f3d8a616752565b6001600160401b03166001600160401b03198254161790555f546001600160401b03169060405191617f6e83616251565b82528960208301946001600160401b0316948581528d60408501976001600160401b0316978881526060860191825260808601928d845260a08701948c865260c08801968752600160a01b600190038c165f52605160205260405f20906001600160401b03165f5260205260405f2096516001600160401b03166001600160401b03166001600160401b0319885416178755516001600160401b031661803790879067ffffffffffffffff60401b82549160401b169067ffffffffffffffff60401b1916179055565b51855467ffffffffffffffff60801b191660809190911b67ffffffffffffffff60801b16178555516001850155516002840155516003830155519060040155815f52605360205260405f20600160a01b6001900385165f5260205260405f2080546001600160401b03166180aa90616752565b6001600160401b03166001600160401b0319825416179055825f52605460205260405f20600160a01b6001900385165f5260205260405f2080546001600160401b03166180f690616752565b6001600160401b03166001600160401b03198254161790556127108a02958a8704612710148b15171561098657618151618157917f1508fbe22c9805770740c8f3827567950022729e0096e311dc087990c157fffc98616470565b85619038565b604051908a825260208201527feb0d9b34ef071b87da8591ddd82cc67f90c6806201b5c9ddc91f0624677dc815604060018060a01b03861692a46040805188815260208101959095528401919091526001600160a01b0316918060608101617634565b600101805464ff0000000019166401000000001790555f617f0f565b909192939495969997506181eb868884617d9b565b6040016181f790617dab565b61ffff16996182068b8661645d565b61271090046182149161664e565b9761821f8b8561645d565b612710900461822d9161664e565b99618238908661645d565b61271090046182469161664e565b94600101939291908e979695617e7d565b505f9c505050505050505050505050565b889250617e52565b505f9b5050505050505050505050565b8161828e91849c939c617d9b565b80359160028310156105c5578c87866001956182a9816161ba565b6182ea579361ffff6182d460406182cd612710966109666182db976182e29b61664e565b9301617dab565b169061645d565b049061664e565b995b01617e3a565b9361ffff6182d460406182cd612710966109666182db9761830a9b61664e565b996182e4565b939450915061644d9596506178a3565b63bd62013360e01b5f9081526001600160a01b038416600452602490fd5b1561834557565b60405162461bcd60e51b815260206004820152600f60248201526e151c985b9cd9995c8819985a5b1959608a1b6044820152606490fd5b335f52600b60205260405f20908154918215618435575f546001600160401b036001818316930154169060c01c906001600160401b036183bc8383616732565b168310611e085750505081335f52600a60205260405f206183de828254616450565b9055335f52600b6020525f60016040822082815501556184075f80808085335af1611dca6177bf565b6040519081527fda2b51341079f3dd8e6763a50f329bbc3dc6ca6a51b920fe99fbf89a54ec0e2760203392a2565b505f9150565b60405163a9059cbb60e01b60208201526001600160a01b0392909216602483015260448083019390935291815261780d9161847760648361626c565b61972b565b80548210156166e6575f52600360205f20910201905f90565b92939291906001600160a01b031680618b1257506040516184b581616200565b5f81525f6020820152935b81156109c2576184cf816161ba565b8015948515618afd578451616d9f575b6001600160a01b0384165f8181526009602052604090205490949015618aea57845f52600a602052600160405f20019060ff825460201c16600381101561148c57618ad75761852d836172de565b96335f52601060205260405f20885f5260205260405f2097600189549901936185588554809b616450565b888110618ac0575061856a8885619bd7565b998a156109c2578861857b9161664e565b85555f9a5f805b335f52601360205260405f2054811015618aae57335f5260136020526185ab8160405f206166cd565b5080546001600160a01b03168d1480618a97575b6185cc5750600101618582565b91509192939495969798809a9b9c9d5060ff6003830154166185ed826161ba565b6185f6816161ba565b03616d13576001016186098d825461664e565b905560015b6189985750335f908152601360205260409081902080549151919291618633816161e5565b8c8152602081018e8152604082018b81529260608301906186538e6161ba565b8d82528054600160401b81101561088957618673916001820181556166cd565b939093610876575183546001600160a01b0319166001600160a01b039190911617835590516001830155915180516186c0936003929091616b1f9160028601916107a49061079e816161ba565b6186c9896161ba565b156187a757335f52601d60205260405f208a5f5260205260405f20905f5260205260405f20600160ff198254161790555b63ffffffff8154169163ffffffff831461098657866187518a8d93618758998e839763ffffffff8f9a6001011663ffffffff198254161790555f52600d6020526187473360405f20618e8d565b505b549033619c32565b9533618bdc565b602060018060a01b039101511693604051928352602083015261877a816161ba565b60408201527f4fe2fde631e986ee26283901b9cc8d6d4a311b750f9fa0d659520deba2995f1f60603392a4565b9995929794919896939099335f52601460205260405f20905f5260205260405f2088516001600160401b03811161088957600160401b811161088957815481835580821061893e575b5060208a01915f5260205f208160021c915f5b8381106188f9575060031981169003806188a1575b5050895191505080156188995761882f9087616470565b985b5f5b895181101561888857600190335f52601e60205260405f208a5f526020528a6001600160401b03806188698460405f209461685b565b5116165f5260205260405f206188808d825461664e565b905501618833565b5091949792959990939698506186fa565b505f98618831565b925f935f5b8181106188bb5750505001555f808080618818565b90919460206188ef6001926001600160401b03895116908560031b6001600160401b03809160031b9316831b921b19161790565b96019291016188a6565b5f805b60048110618911575083820155600101618803565b86519096916001916020916001600160401b0360068b901b81811b199092169216901b17920196016188fc565b825f5260205f20600380840160021c8201920160021c019060188360031b168061897d575b505b81811061897257506187f0565b5f8155600101618965565b5f198201908154905f199060200360031b1c1690555f618963565b9150509390919293335f526013602052600160ff60036189bb8460405f206166cd565b500154166189c8816161ba565b146189e3575b50868986618751836187589897968b96618749565b98949197959296939098335f52601460205260405f20905f5260205260405f209687548015155f14618a8f57618a199087616470565b985b5f5b8954811015618a7857600190335f52601e60205260405f208a5f526020528a6001600160401b0380618a538460405f2094616f27565b90549060031b1c16165f5260205260405f20618a708d825461664e565b905501618a1d565b5095999698509396509194909391929190866189ce565b505f98618a1b565b5085618aa861092660028401616829565b146185bf565b50909192939495969798999a9b61860e565b88906312e1fa3760e11b5f5260045260245260445ffd5b856371ab6ad560e11b5f5260045260245ffd5b8463bd62013360e01b5f5260045260245ffd5b84516184df57631db6d08b60e11b5f5260045ffd5b60405190618b1f82616200565b600182526020820152936184c0565b6001600160a01b03165f9081526018602052604090206001810154908115618b625761644d9260026173a29201549061645d565b5050505f90565b9181158015618b89575b618b84576173a29061644d9361645d565b505090565b5081811015618b73565b600581101561148c5760018114618bd55760028114618bce5760038114618bc757600414618bc15761271090565b613e8090565b506132c890565b50612ee090565b50612af890565b93969296959195949094618bef826161ba565b81618d6057618bfd86619092565b60018060a01b03861696875f52601860205260405f209660018060a01b03871696875f52601960205260405f208a5f5260205260405f205f995f5b8a5f52601360205260405f2054811015618cb3578a5f526013602052618c618160405f206166cd565b5080546001600160a01b03168e1480618c9b575b618c83575b50600101618c38565b6001919c82618c949201549061664e565b9b90618c7a565b5060ff600382015416618cad816161ba565b15618c75565b506001989b50670de0b6b3a76400009294969950615b668d618cdf61780d9f618d0b9597999b9e616450565b80618d22575b8b8401618cf383825461664e565b905560028401618d048c825461664e565b905561664e565b0490555b618d1d8886868686866199e7565b619b26565b85618d2e82865461645d565b0487548082115f14618d5857618d4391616450565b618d518d890191825461664e565b9055618ce5565b50505f618d43565b919484618d798760018661780d9c86839a9d989b6197c7565b618d0f565b60018060a01b03165f52601b6020526001600160401b0360405f2091165f5260205260405f206001810154908115618b845761644d9260026173a29201549061645d565b80548210156166e6575f5260205f2001905f90565b805f52600960205260405f2054155f1461703f57600854600160401b81101561088957618e26618e108260018594016008556008618dc2565b819391549060031b91821b915f19901b19161790565b9055600854905f52600960205260405f2055600190565b805f52600460205260405f2054155f1461703f57600354600160401b81101561088957618e76618e108260018594016003556003618dc2565b9055600354905f52600460205260405f2055600190565b5f8281526001820160205260409020546172d857805490600160401b8210156108895782618ec5618e10846001809601855584618dc2565b90558054925f520160205260405f2055600190565b6001600160a01b03165f818152600c60205260409020805491908215618b62575f5b838110618f0b57505050505f90565b6001600160401b03618f1d8284618dc2565b90549060031b1c16835f52601b6020526001600160401b0360405f2091165f52602052600260405f200154618f5457600101618efc565b50505050600190565b6001600160a01b03165f9081526018602052604090206001810154908115618fae576002015490670de0b6b3a7640000820291808304670de0b6b3a764000014901517156109865761644d91616470565b5050670de0b6b3a764000090565b6001600160a01b03165f908152600a602052604090208054828110618fec5750618fe7828254616450565b905590565b5f919392509255565b6001600160a01b03165f908152601860205260409020600201805480158015619030575b618b6257828110618fec5750618fe7828254616450565b508215619019565b9080158015619087575b6190835761904f82616424565b9061271003906127108211610986576127109161906b9161645d565b049060018060a01b03165f52600f60205260405f2055565b5050565b506127108111619042565b60018060a01b03165f52601860205260405f206001600160401b036003815f5416920191166001600160401b0319825416179055565b80548210156166e6575f5260205f209060011b01905f90565b81156109c2576190f0816172de565b805f52600260205260405f2060ff815416156191e75760028101548085106191d057506003810154801515806191ba575b61919b575060040161913484825461664e565b9055335f52601060205260405f20905f5260205260405f2061915783825461664e565b9055602001516040519182526001600160a01b0316905f60208201527f754fff2205ca9f1a08ae1f38f487839ba7e18895f0238908ea8b8842d7424fbb60403392a3565b60048592015490634b98504560e01b5f5260045260245260445260645ffd5b50806191ca86600485015461664e565b11619121565b8490631e2be21160e01b5f5260045260245260445ffd5b602083015163f6f24b8360e01b5f9081526001600160a01b03909116600452602490fd5b81156109c25761921a816172de565b90815f52600260205260405f2060ff815416156193c35760028101548085106191d057506003810154801515806193ad575b61919b575060040161925f84825461664e565b9055335f52601060205260405f20825f5260205260405f2061928284825461664e565b9055600584101561148c57836192df575b6020908101516040519384526001600160a01b0316936192b79250908301906161ad565b7f754fff2205ca9f1a08ae1f38f487839ba7e18895f0238908ea8b8842d7424fbb60403392a3565b6192e884619d76565b6192f184619e03565b91335f52601160205260405f20905f5260205261931b60405f20926001600160401b034316616732565b916040516193288161621b565b848152602081019161933a8784616f1b565b6001600160401b0360408301951685528054600160401b81101561088957619367916001820181556190c8565b61087657600191518155019051600581101561148c576192b79360ff68ffffffffffffffff008454925160081b1692169068ffffffffffffffffff191617179055619293565b50806193bd86600485015461664e565b1161924c565b506020015163f6f24b8360e01b5f9081526001600160a01b03909116600452602490fd5b5f8181526004602052604090205480156172d8575f198101818111610986576003545f198101919082116109865781810361945a575b5050506003548015610ed5575f1901619437816003618dc2565b8154905f199060031b1b191690556003555f5260046020525f6040812055600190565b61947c61946b618e10936003618dc2565b90549060031b1c9283926003618dc2565b90555f52600460205260405f20555f808061941d565b5f8181526009602052604090205480156172d8575f198101818111610986576008545f1981019190821161098657818103619505575b5050506008548015610ed5575f19016194e2816008618dc2565b8154905f199060031b1b191690556008555f5260096020525f6040812055600190565b619527619516618e10936008618dc2565b90549060031b1c9283926008618dc2565b90555f52600960205260405f20555f80806194c8565b906001820191815f528260205260405f20548015155f146195e6575f1981018181116109865782545f19810191908211610986578181036195b1575b50505080548015610ed5575f1901906195928282618dc2565b8154905f199060031b1b19169055555f526020525f6040812055600190565b6195d16195c1618e109386618dc2565b90549060031b1c92839286618dc2565b90555f528360205260405f20555f8080619579565b505050505f90565b60018060a01b03165f52601b6020526001600160401b0360405f2091165f52602052600260405f200180548015801561903057618b6257828110618fec5750618fe7828254616450565b908160209103126105c5575190565b6001600160a01b039081165f818152600660205260409020549091169081156196d457506040516311f9fbc960e21b81523360048201526024810192909252602090829060449082905f905af1908115610d76575f916196a5575090565b90506020813d6020116196cc575b816196c06020938361626c565b810103126105c5575190565b3d91506196b3565b905060ff600754166196ee578161644d9130903390619783565b63f6f24b8360e01b5f5260045260245ffd5b60ff5f80516020619ff38339815191525460401c161561971c57565b631afcd79f60e31b5f5260045ffd5b905f602091828151910182855af115610d76575f513d61977a57506001600160a01b0381163b155b61975a5750565b635274afe760e01b5f9081526001600160a01b0391909116600452602490fd5b60011415619753565b6040516323b872dd60e01b60208201526001600160a01b03928316602482015292909116604483015260648083019390935291815261780d9161847760848361626c565b95949093929181519081156199dd576197ec916197e391616470565b92825190616470565b905f5b81518110156199dd57806001600160401b0361980d6001938561685b565b5116828060a01b0388165f52601b60205260405f206001600160401b0382165f52602052670de0b6b3a764000061991a60405f20858060a01b038d1693845f52601c60205260405f20878060a01b038d165f5260205260405f206001600160401b0382165f5260205260405f20946001600160401b035f54166001600160401b036003850191166001600160401b03198254161790555f52601e60205260405f20878060a01b038d165f526020526001600160401b0360405f2091165f52602052898960405f2054916199ce575b5080619990575b8a15619944578682016198f68b825461664e565b9055600282016199078a825461664e565b90555b898b1561992357615b669161664e565b049055016197ef565b50898082111561993c5761993691616450565b90615b68565b50505f619936565b81870180548b818111156199815750505f905b556002820180548a818111156199725750505f905b5561990a565b61997b91616450565b9061996c565b61998a91616450565b90619957565b8361999c82845461645d565b0485548082115f146199c6576199b191616450565b6199bf88870191825461664e565b90556198e2565b50505f6199b1565b6199d791616450565b896198db565b5050505050509050565b601f545f96929491939192916001600160a01b03909116908115619b1c578051619a10816161ba565b619a19816161ba565b619b0957505f955b15619aa95750601f546001600160a01b031691823b15619aa5576040516316f60ec560e11b81526001600160a01b0394851660048201529484166024860152949092166044840152606483019390935261ffff166084820152908290829060a490829084905af1619a90575050565b619a9b82809261626c565b619aa25750565b80fd5b8680fd5b929194955050813b156105c55760405162f74bbf60e71b81526001600160a01b039182166004820152928116602484015290931660448201526064810191909152905f908290608490829084905af1619aff5750565b5f61780d9161626c565b602001516001600160a01b031695619a21565b5050505050505050565b90929694919460205460018060a01b0316948515619bcc57853b156105c557619bb95f98899561ffff93619b8c9c6040519d8e9c8d9b8c9a6308aec52d60e31b8c5260018060a01b031660048c015260018060a01b031660248b015260448a01906161c4565b6084880152151560a4870152619ba1816161ba565b60c486015261012060e48601526101248501906162a8565b911661010483015203925af1619aff5750565b505050505050505050565b6001600160a01b03165f908152601860205260409020600181015480158015619c26575b618b8457619c0e600291619c179461645d565b91015490616470565b908115619c2057565b60019150565b50600282015415619bfb565b9290918115619ceb575f925f9460018060a01b03165f52601160205260405f20905f5260205260405f205f908054915b828110619d11575050508215619ceb5781808210619d0957619c8391616450565b82811015619d02575b80831115619cfb57619c9e9083616450565b80821015619cf5575080925b8315619ceb5761ffff93610a3d619cc7619ce7956173a294616470565b91619ce287619cd9612710958461645d565b94169186616450565b61645d565b1690565b5050505061271090565b92619caa565b505f619c9e565b5081619c8c565b50505f619c83565b619d1b81836190c8565b506001810154436001600160401b038260081c1611619d3f575b5050600101619c62565b97610a3d619d6e929861ffff619d66619d5d60ff6001989e16618b93565b9b54809361664e565b9a1690619eac565b96905f619d35565b906005821015908161148c5782158015619df6575b828115619de6575b8115619dd6575b8115619dc6575b50619dc1575061148c5760ff9063aae758a160e01b5f521660045260245ffd5b915050565b905061148c576004831482619da1565b905061148c576003831482619d9a565b905061148c576002831482619d93565b505f915060018314619d8b565b600581101561148c5760018114619e465760028114619e3e5760038114619e3657600414619e2f575f90565b62ed4e0090565b506276a70090565b50624f1a0090565b5062278d0090565b90619e725750805115619e6357805190602001fd5b63d6bda27560e01b5f5260045ffd5b81511580619ea3575b619e83575090565b639996b31560e01b5f9081526001600160a01b0391909116600452602490fd5b50803b15619e7b565b81810291905f5f19838309848082109103818114619eea570360011115619ed857509060019109900390565b634e487b71905260116020526024601cfd5b50505050509056fe2f8788117e7eff1d82e926ec794901d17c78024a50270940304540a733656f0d360894a13ba1a3210667c828492db98dca3e2076cc3735a920a3ca505d382bbce34918ff1c7084970068b53fd71ad6d8b04e9f15d3886cbf006443e6cdc52ea669892194d2f1eb4d48bd09f166bfce1754a681e8e17011b3e12b710cce56a87b12b42e8a160f6064dc959c6f251e3af0750ad213dbecf573b4710d67d6c28e3902dd7bc7dec4dceedda775e58dd541e08a116c6c53815c0bd028192f7b626800cd5ed15c6e187e77e9aee88184c21f4f2182ab5827cb3b7e07fbedcd63f033009b779b17422d0df92223018b32b4d1fa46e071723d6817e2486d003becc55f00f0c57e16840df040f15088dc2f81fe391c3923bec73e23a9662efc9c229c6a00a164736f6c634300081a000a","linkReferences":{}},"methodIdentifiers":{"ADMIN_ROLE()":"75b238fc","ASSET_MANAGER_ROLE()":"a4b32de8","BPS_DENOMINATOR()":"e1a45218","DEFAULT_ADMIN_ROLE()":"a217fddf","LOCK_ONE_MONTH()":"9e870585","LOCK_SIX_MONTHS()":"f3c9b311","LOCK_THREE_MONTHS()":"d27a6f06","LOCK_TWO_MONTHS()":"7df92ada","MULTIPLIER_NONE()":"4962f88f","MULTIPLIER_ONE_MONTH()":"18056dc2","MULTIPLIER_SIX_MONTHS()":"453eccea","MULTIPLIER_THREE_MONTHS()":"a7fa6f98","MULTIPLIER_TWO_MONTHS()":"54de2320","PRECISION()":"aaf5eb68","SLASHER_ROLE()":"5095af64","UPGRADE_INTERFACE_VERSION()":"ad3cb1cc","addBlueprint(uint64)":"c7353025","addBlueprintToDelegation(uint256,uint64)":"23cc2700","addSlasher(address)":"68a9f19c","advanceRound()":"1ba9998b","blueprintSlashCount(uint64,address)":"4e9c929a","claimDelegatorRewards()":"44d1480b","claimOperatorRewards()":"4c4ede2d","claimOperatorRewardsTo(address)":"7d6941c6","completeLeaving()":"d1736ba7","currentRound()":"8a19c8bc","delegate(address,uint256)":"026e402b","delegateWithOptions(address,address,uint256,uint8,uint64[])":"fd7d3dbc","delegationBondLessDelay()":"ba05bbf5","deposit()":"d0e30db0","depositAndDelegate(address)":"461cc23b","depositAndDelegateWithOptions(address,address,uint256,uint8,uint64[])":"fbec4861","depositERC20(address,uint256)":"97feb926","depositERC20WithLock(address,uint256,uint8)":"cb15038b","depositWithLock(uint8)":"f38c7c4e","disableAsset(address)":"70807528","enableAsset(address,uint256,uint256,uint256,uint16)":"354ebef9","enableAssetWithAdapter(address,address,uint256,uint256,uint256,uint16)":"f0b52bb4","executeDelegatorUnstake()":"007910d0","executeOperatorUnstake()":"b0dfce06","executeWithdraw()":"f8fd9795","getAssetAdapter(address)":"8a7fe60f","getAssetConfig(address)":"6ec3ab67","getDelegation(address,address)":"15049a5a","getDelegationBlueprints(address,uint256)":"7b9996c5","getDelegations(address)":"31cc13ba","getDeposit(address,address)":"c35082a9","getLocks(address,address)":"0c8833ce","getOperatorBlueprints(address)":"dc972ccc","getOperatorDelegatedStake(address)":"8c5b4ae7","getOperatorDelegatorCount(address)":"486398c3","getOperatorDelegators(address)":"a299e298","getOperatorMetadata(address)":"2ee663b8","getOperatorRewardPool(address)":"03587c1d","getOperatorSelfStake(address)":"d673e0b9","getOperatorSlashFactor(address)":"615d24de","getOperatorStake(address)":"e4e88de8","getPendingDelegatorRewards(address)":"168f6865","getPendingOperatorRewards(address)":"30224fc8","getPendingUnstakes(address)":"5722d512","getPendingWithdrawals(address)":"f340c0d0","getRoleAdmin(bytes32)":"248a9ca3","getSlashCount(address)":"66c36875","getSlashCountForBlueprint(uint64,address)":"c550d938","getSlashCountForService(uint64,address)":"72b5032d","getSlashImpact(address,uint64,address)":"9494f426","getSlashRecord(address,uint64)":"a457af3d","getSnapshot(uint64,address)":"c07449e2","getTotalDelegation(address)":"fc5e7e09","grantRole(bytes32,address)":"2f2ff15d","hasRole(bytes32,address)":"91d14854","increaseStake()":"d9e257ef","initialize(address,uint256,uint256,uint16)":"cbb6d6bd","isOperator(address)":"6d70f7ae","isOperatorActive(address)":"eb473533","isSlasher(address)":"57601c5d","lastRoundAdvance()":"05d64e38","leaveDelegatorsDelay()":"db8a173a","leaveOperatorsDelay()":"4de8addc","meetsStakeRequirement(address,uint256)":"f46913bb","minOperatorStake()":"d775cb61","nativeEnabled()":"77ab2cf3","nextSlashId(address)":"96085673","notifyReward(address,uint64,uint256)":"a3b9c5c2","notifyRewardForBlueprint(address,uint64,uint64,uint256)":"3dcad9db","operatorAt(uint256)":"26142335","operatorCommissionBps()":"32273f61","operatorCount()":"7c6f3158","pause()":"8456cb59","paused()":"5c975abb","proxiableUUID()":"52d1902d","registerAdapter(address,address)":"d655b92a","registerOperator()":"2acde098","registerOperatorWithAsset(address,uint256)":"e0a5825b","removeAdapter(address)":"585cd34b","removeBlueprint(uint64)":"28e70ecc","removeBlueprintFromDelegation(uint256,uint64)":"859caa18","removeSlasher(address)":"aac6aa9c","renounceRole(bytes32,address)":"36568abe","requireAdapters()":"b54b2b9e","rescueTokens(address,address,uint256)":"cea9d26f","revokeRole(bytes32,address)":"d547741f","rewardsManager()":"defe2053","roundDuration()":"f7cb789a","scheduleDelegatorUnstake(address,address,uint256)":"fc8a91af","scheduleOperatorUnstake(uint256)":"44aff252","scheduleWithdraw(address,uint256)":"e1ee4bcc","serviceFeeDistributor()":"2e40f7fb","serviceSlashCount(uint64,address)":"9722f4b9","setDelays(uint64,uint64,uint64)":"03780211","setOperatorCommission(uint16)":"f3c4d8a0","setRequireAdapters(bool)":"7b76fe5e","setRewardsManager(address)":"0a8ddc5e","setServiceFeeDistributor(address)":"fbcc7b3d","slash(address,uint64,uint256,bytes32)":"356924ea","slashForBlueprint(address,uint64,uint64,uint256,bytes32)":"8d795d50","slashForService(address,uint64,uint64,((uint8,address),uint16)[],uint256,bytes32)":"9e8c49d4","slashHistory(address,uint64)":"0aa8b110","snapshotOperator(address)":"cadd550c","startLeaving()":"87703550","supportsInterface(bytes4)":"01ffc9a7","undelegate(address,uint256)":"4d99dd16","unpause()":"3f4ba83a","upgradeToAndCall(address,bytes)":"4f1ef286"},"id":183}