{"abi":[{"type":"constructor","inputs":[],"stateMutability":"nonpayable"},{"type":"receive","stateMutability":"payable"},{"type":"function","name":"ADMIN_ROLE","inputs":[],"outputs":[{"name":"","type":"bytes32","internalType":"bytes32"}],"stateMutability":"view"},{"type":"function","name":"ASSET_MANAGER_ROLE","inputs":[],"outputs":[{"name":"","type":"bytes32","internalType":"bytes32"}],"stateMutability":"view"},{"type":"function","name":"BPS_DENOMINATOR","inputs":[],"outputs":[{"name":"","type":"uint256","internalType":"uint256"}],"stateMutability":"view"},{"type":"function","name":"DEFAULT_ADMIN_ROLE","inputs":[],"outputs":[{"name":"","type":"bytes32","internalType":"bytes32"}],"stateMutability":"view"},{"type":"function","name":"LOCK_ONE_MONTH","inputs":[],"outputs":[{"name":"","type":"uint64","internalType":"uint64"}],"stateMutability":"view"},{"type":"function","name":"LOCK_SIX_MONTHS","inputs":[],"outputs":[{"name":"","type":"uint64","internalType":"uint64"}],"stateMutability":"view"},{"type":"function","name":"LOCK_THREE_MONTHS","inputs":[],"outputs":[{"name":"","type":"uint64","internalType":"uint64"}],"stateMutability":"view"},{"type":"function","name":"LOCK_TWO_MONTHS","inputs":[],"outputs":[{"name":"","type":"uint64","internalType":"uint64"}],"stateMutability":"view"},{"type":"function","name":"MULTIPLIER_NONE","inputs":[],"outputs":[{"name":"","type":"uint16","internalType":"uint16"}],"stateMutability":"view"},{"type":"function","name":"MULTIPLIER_ONE_MONTH","inputs":[],"outputs":[{"name":"","type":"uint16","internalType":"uint16"}],"stateMutability":"view"},{"type":"function","name":"MULTIPLIER_SIX_MONTHS","inputs":[],"outputs":[{"name":"","type":"uint16","internalType":"uint16"}],"stateMutability":"view"},{"type":"function","name":"MULTIPLIER_THREE_MONTHS","inputs":[],"outputs":[{"name":"","type":"uint16","internalType":"uint16"}],"stateMutability":"view"},{"type":"function","name":"MULTIPLIER_TWO_MONTHS","inputs":[],"outputs":[{"name":"","type":"uint16","internalType":"uint16"}],"stateMutability":"view"},{"type":"function","name":"PRECISION","inputs":[],"outputs":[{"name":"","type":"uint256","internalType":"uint256"}],"stateMutability":"view"},{"type":"function","name":"SLASHER_ROLE","inputs":[],"outputs":[{"name":"","type":"bytes32","internalType":"bytes32"}],"stateMutability":"view"},{"type":"function","name":"UPGRADE_INTERFACE_VERSION","inputs":[],"outputs":[{"name":"","type":"string","internalType":"string"}],"stateMutability":"view"},{"type":"function","name":"addBlueprint","inputs":[{"name":"blueprintId","type":"uint64","internalType":"uint64"}],"outputs":[],"stateMutability":"nonpayable"},{"type":"function","name":"addBlueprintToDelegation","inputs":[{"name":"delegationIndex","type":"uint256","internalType":"uint256"},{"name":"blueprintId","type":"uint64","internalType":"uint64"}],"outputs":[],"stateMutability":"nonpayable"},{"type":"function","name":"addSlasher","inputs":[{"name":"slasher","type":"address","internalType":"address"}],"outputs":[],"stateMutability":"nonpayable"},{"type":"function","name":"advanceRound","inputs":[],"outputs":[],"stateMutability":"nonpayable"},{"type":"function","name":"claimDelegatorRewards","inputs":[],"outputs":[{"name":"totalRewards","type":"uint256","internalType":"uint256"}],"stateMutability":"nonpayable"},{"type":"function","name":"claimOperatorRewards","inputs":[],"outputs":[],"stateMutability":"nonpayable"},{"type":"function","name":"claimOperatorRewardsTo","inputs":[{"name":"recipient","type":"address","internalType":"address payable"}],"outputs":[],"stateMutability":"nonpayable"},{"type":"function","name":"completeLeaving","inputs":[],"outputs":[],"stateMutability":"nonpayable"},{"type":"function","name":"currentRound","inputs":[],"outputs":[{"name":"","type":"uint64","internalType":"uint64"}],"stateMutability":"view"},{"type":"function","name":"delegate","inputs":[{"name":"operator","type":"address","internalType":"address"},{"name":"amount","type":"uint256","internalType":"uint256"}],"outputs":[],"stateMutability":"nonpayable"},{"type":"function","name":"delegateWithOptions","inputs":[{"name":"operator","type":"address","internalType":"address"},{"name":"token","type":"address","internalType":"address"},{"name":"amount","type":"uint256","internalType":"uint256"},{"name":"selectionMode","type":"uint8","internalType":"enum Types.BlueprintSelectionMode"},{"name":"blueprintIds","type":"uint64[]","internalType":"uint64[]"}],"outputs":[],"stateMutability":"nonpayable"},{"type":"function","name":"delegationBondLessDelay","inputs":[],"outputs":[{"name":"","type":"uint64","internalType":"uint64"}],"stateMutability":"view"},{"type":"function","name":"deposit","inputs":[],"outputs":[],"stateMutability":"payable"},{"type":"function","name":"depositAndDelegate","inputs":[{"name":"operator","type":"address","internalType":"address"}],"outputs":[],"stateMutability":"payable"},{"type":"function","name":"depositAndDelegateWithOptions","inputs":[{"name":"operator","type":"address","internalType":"address"},{"name":"token","type":"address","internalType":"address"},{"name":"amount","type":"uint256","internalType":"uint256"},{"name":"selectionMode","type":"uint8","internalType":"enum Types.BlueprintSelectionMode"},{"name":"blueprintIds","type":"uint64[]","internalType":"uint64[]"}],"outputs":[],"stateMutability":"payable"},{"type":"function","name":"depositERC20","inputs":[{"name":"token","type":"address","internalType":"address"},{"name":"amount","type":"uint256","internalType":"uint256"}],"outputs":[],"stateMutability":"nonpayable"},{"type":"function","name":"depositERC20WithLock","inputs":[{"name":"token","type":"address","internalType":"address"},{"name":"amount","type":"uint256","internalType":"uint256"},{"name":"lockMultiplier","type":"uint8","internalType":"enum Types.LockMultiplier"}],"outputs":[],"stateMutability":"nonpayable"},{"type":"function","name":"depositWithLock","inputs":[{"name":"lockMultiplier","type":"uint8","internalType":"enum Types.LockMultiplier"}],"outputs":[],"stateMutability":"payable"},{"type":"function","name":"disableAsset","inputs":[{"name":"token","type":"address","internalType":"address"}],"outputs":[],"stateMutability":"nonpayable"},{"type":"function","name":"enableAsset","inputs":[{"name":"token","type":"address","internalType":"address"},{"name":"_minOperatorStake","type":"uint256","internalType":"uint256"},{"name":"_minDelegation","type":"uint256","internalType":"uint256"},{"name":"_depositCap","type":"uint256","internalType":"uint256"},{"name":"_rewardMultiplierBps","type":"uint16","internalType":"uint16"}],"outputs":[],"stateMutability":"nonpayable"},{"type":"function","name":"enableAssetWithAdapter","inputs":[{"name":"token","type":"address","internalType":"address"},{"name":"adapter","type":"address","internalType":"address"},{"name":"_minOperatorStake","type":"uint256","internalType":"uint256"},{"name":"_minDelegation","type":"uint256","internalType":"uint256"},{"name":"_depositCap","type":"uint256","internalType":"uint256"},{"name":"_rewardMultiplierBps","type":"uint16","internalType":"uint16"}],"outputs":[],"stateMutability":"nonpayable"},{"type":"function","name":"executeDelegatorUnstake","inputs":[],"outputs":[],"stateMutability":"nonpayable"},{"type":"function","name":"executeOperatorUnstake","inputs":[],"outputs":[],"stateMutability":"nonpayable"},{"type":"function","name":"executeWithdraw","inputs":[],"outputs":[],"stateMutability":"nonpayable"},{"type":"function","name":"getAssetAdapter","inputs":[{"name":"token","type":"address","internalType":"address"}],"outputs":[{"name":"","type":"address","internalType":"address"}],"stateMutability":"view"},{"type":"function","name":"getAssetConfig","inputs":[{"name":"token","type":"address","internalType":"address"}],"outputs":[{"name":"","type":"tuple","internalType":"struct Types.AssetConfig","components":[{"name":"enabled","type":"bool","internalType":"bool"},{"name":"minOperatorStake","type":"uint256","internalType":"uint256"},{"name":"minDelegation","type":"uint256","internalType":"uint256"},{"name":"depositCap","type":"uint256","internalType":"uint256"},{"name":"currentDeposits","type":"uint256","internalType":"uint256"},{"name":"rewardMultiplierBps","type":"uint16","internalType":"uint16"}]}],"stateMutability":"view"},{"type":"function","name":"getDelegation","inputs":[{"name":"delegator","type":"address","internalType":"address"},{"name":"operator","type":"address","internalType":"address"}],"outputs":[{"name":"","type":"uint256","internalType":"uint256"}],"stateMutability":"view"},{"type":"function","name":"getDelegationBlueprints","inputs":[{"name":"delegator","type":"address","internalType":"address"},{"name":"idx","type":"uint256","internalType":"uint256"}],"outputs":[{"name":"","type":"uint64[]","internalType":"uint64[]"}],"stateMutability":"view"},{"type":"function","name":"getDelegations","inputs":[{"name":"delegator","type":"address","internalType":"address"}],"outputs":[{"name":"","type":"tuple[]","internalType":"struct Types.BondInfoDelegator[]","components":[{"name":"operator","type":"address","internalType":"address"},{"name":"shares","type":"uint256","internalType":"uint256"},{"name":"asset","type":"tuple","internalType":"struct Types.Asset","components":[{"name":"kind","type":"uint8","internalType":"enum Types.AssetKind"},{"name":"token","type":"address","internalType":"address"}]},{"name":"selectionMode","type":"uint8","internalType":"enum Types.BlueprintSelectionMode"}]}],"stateMutability":"view"},{"type":"function","name":"getDeposit","inputs":[{"name":"delegator","type":"address","internalType":"address"},{"name":"token","type":"address","internalType":"address"}],"outputs":[{"name":"","type":"tuple","internalType":"struct Types.Deposit","components":[{"name":"amount","type":"uint256","internalType":"uint256"},{"name":"delegatedAmount","type":"uint256","internalType":"uint256"}]}],"stateMutability":"view"},{"type":"function","name":"getLocks","inputs":[{"name":"delegator","type":"address","internalType":"address"},{"name":"token","type":"address","internalType":"address"}],"outputs":[{"name":"","type":"tuple[]","internalType":"struct Types.LockInfo[]","components":[{"name":"amount","type":"uint256","internalType":"uint256"},{"name":"multiplier","type":"uint8","internalType":"enum Types.LockMultiplier"},{"name":"expiryBlock","type":"uint64","internalType":"uint64"}]}],"stateMutability":"view"},{"type":"function","name":"getOperatorBlueprints","inputs":[{"name":"operator","type":"address","internalType":"address"}],"outputs":[{"name":"","type":"uint256[]","internalType":"uint256[]"}],"stateMutability":"view"},{"type":"function","name":"getOperatorDelegatedStake","inputs":[{"name":"operator","type":"address","internalType":"address"}],"outputs":[{"name":"","type":"uint256","internalType":"uint256"}],"stateMutability":"view"},{"type":"function","name":"getOperatorDelegatorCount","inputs":[{"name":"operator","type":"address","internalType":"address"}],"outputs":[{"name":"","type":"uint256","internalType":"uint256"}],"stateMutability":"view"},{"type":"function","name":"getOperatorDelegators","inputs":[{"name":"operator","type":"address","internalType":"address"}],"outputs":[{"name":"","type":"address[]","internalType":"address[]"}],"stateMutability":"view"},{"type":"function","name":"getOperatorMetadata","inputs":[{"name":"operator","type":"address","internalType":"address"}],"outputs":[{"name":"","type":"tuple","internalType":"struct Types.OperatorMetadata","components":[{"name":"stake","type":"uint256","internalType":"uint256"},{"name":"delegationCount","type":"uint32","internalType":"uint32"},{"name":"status","type":"uint8","internalType":"enum Types.OperatorStatus"},{"name":"leavingRound","type":"uint64","internalType":"uint64"}]}],"stateMutability":"view"},{"type":"function","name":"getOperatorRewardPool","inputs":[{"name":"operator","type":"address","internalType":"address"}],"outputs":[{"name":"","type":"tuple","internalType":"struct Types.OperatorRewardPool","components":[{"name":"accRewardPerShare","type":"uint256","internalType":"uint256"},{"name":"totalShares","type":"uint256","internalType":"uint256"},{"name":"totalAssets","type":"uint256","internalType":"uint256"},{"name":"lastUpdateRound","type":"uint64","internalType":"uint64"}]}],"stateMutability":"view"},{"type":"function","name":"getOperatorSelfStake","inputs":[{"name":"operator","type":"address","internalType":"address"}],"outputs":[{"name":"","type":"uint256","internalType":"uint256"}],"stateMutability":"view"},{"type":"function","name":"getOperatorStake","inputs":[{"name":"operator","type":"address","internalType":"address"}],"outputs":[{"name":"","type":"uint256","internalType":"uint256"}],"stateMutability":"view"},{"type":"function","name":"getPendingDelegatorRewards","inputs":[{"name":"delegator","type":"address","internalType":"address"}],"outputs":[{"name":"","type":"uint256","internalType":"uint256"}],"stateMutability":"view"},{"type":"function","name":"getPendingOperatorRewards","inputs":[{"name":"operator","type":"address","internalType":"address"}],"outputs":[{"name":"","type":"uint256","internalType":"uint256"}],"stateMutability":"view"},{"type":"function","name":"getPendingUnstakes","inputs":[{"name":"delegator","type":"address","internalType":"address"}],"outputs":[{"name":"","type":"tuple[]","internalType":"struct Types.BondLessRequest[]","components":[{"name":"operator","type":"address","internalType":"address"},{"name":"asset","type":"tuple","internalType":"struct Types.Asset","components":[{"name":"kind","type":"uint8","internalType":"enum Types.AssetKind"},{"name":"token","type":"address","internalType":"address"}]},{"name":"shares","type":"uint256","internalType":"uint256"},{"name":"requestedRound","type":"uint64","internalType":"uint64"},{"name":"selectionMode","type":"uint8","internalType":"enum Types.BlueprintSelectionMode"}]}],"stateMutability":"view"},{"type":"function","name":"getPendingWithdrawals","inputs":[{"name":"delegator","type":"address","internalType":"address"}],"outputs":[{"name":"","type":"tuple[]","internalType":"struct Types.WithdrawRequest[]","components":[{"name":"asset","type":"tuple","internalType":"struct Types.Asset","components":[{"name":"kind","type":"uint8","internalType":"enum Types.AssetKind"},{"name":"token","type":"address","internalType":"address"}]},{"name":"amount","type":"uint256","internalType":"uint256"},{"name":"requestedRound","type":"uint64","internalType":"uint64"}]}],"stateMutability":"view"},{"type":"function","name":"getRoleAdmin","inputs":[{"name":"role","type":"bytes32","internalType":"bytes32"}],"outputs":[{"name":"","type":"bytes32","internalType":"bytes32"}],"stateMutability":"view"},{"type":"function","name":"getSlashCount","inputs":[{"name":"operator","type":"address","internalType":"address"}],"outputs":[{"name":"","type":"uint64","internalType":"uint64"}],"stateMutability":"view"},{"type":"function","name":"getSlashImpact","inputs":[{"name":"operator","type":"address","internalType":"address"},{"name":"slashId","type":"uint64","internalType":"uint64"},{"name":"delegator","type":"address","internalType":"address"}],"outputs":[{"name":"lostAmount","type":"uint256","internalType":"uint256"}],"stateMutability":"view"},{"type":"function","name":"getSlashRecord","inputs":[{"name":"operator","type":"address","internalType":"address"},{"name":"slashId","type":"uint64","internalType":"uint64"}],"outputs":[{"name":"","type":"tuple","internalType":"struct SlashingManager.SlashRecord","components":[{"name":"round","type":"uint64","internalType":"uint64"},{"name":"totalSlashed","type":"uint256","internalType":"uint256"},{"name":"exchangeRateBefore","type":"uint256","internalType":"uint256"},{"name":"exchangeRateAfter","type":"uint256","internalType":"uint256"},{"name":"evidence","type":"bytes32","internalType":"bytes32"}]}],"stateMutability":"view"},{"type":"function","name":"getSnapshot","inputs":[{"name":"round","type":"uint64","internalType":"uint64"},{"name":"operator","type":"address","internalType":"address"}],"outputs":[{"name":"","type":"tuple","internalType":"struct Types.OperatorSnapshot","components":[{"name":"stake","type":"uint256","internalType":"uint256"},{"name":"totalDelegated","type":"uint256","internalType":"uint256"}]}],"stateMutability":"view"},{"type":"function","name":"getTotalDelegation","inputs":[{"name":"delegator","type":"address","internalType":"address"}],"outputs":[{"name":"total","type":"uint256","internalType":"uint256"}],"stateMutability":"view"},{"type":"function","name":"grantRole","inputs":[{"name":"role","type":"bytes32","internalType":"bytes32"},{"name":"account","type":"address","internalType":"address"}],"outputs":[],"stateMutability":"nonpayable"},{"type":"function","name":"hasRole","inputs":[{"name":"role","type":"bytes32","internalType":"bytes32"},{"name":"account","type":"address","internalType":"address"}],"outputs":[{"name":"","type":"bool","internalType":"bool"}],"stateMutability":"view"},{"type":"function","name":"increaseStake","inputs":[],"outputs":[],"stateMutability":"payable"},{"type":"function","name":"initialize","inputs":[{"name":"admin","type":"address","internalType":"address"},{"name":"nativeMinOperatorStake","type":"uint256","internalType":"uint256"},{"name":"nativeMinDelegation","type":"uint256","internalType":"uint256"},{"name":"_operatorCommissionBps","type":"uint16","internalType":"uint16"}],"outputs":[],"stateMutability":"nonpayable"},{"type":"function","name":"isOperator","inputs":[{"name":"operator","type":"address","internalType":"address"}],"outputs":[{"name":"","type":"bool","internalType":"bool"}],"stateMutability":"view"},{"type":"function","name":"isOperatorActive","inputs":[{"name":"operator","type":"address","internalType":"address"}],"outputs":[{"name":"","type":"bool","internalType":"bool"}],"stateMutability":"view"},{"type":"function","name":"isSlasher","inputs":[{"name":"account","type":"address","internalType":"address"}],"outputs":[{"name":"","type":"bool","internalType":"bool"}],"stateMutability":"view"},{"type":"function","name":"leaveDelegatorsDelay","inputs":[],"outputs":[{"name":"","type":"uint64","internalType":"uint64"}],"stateMutability":"view"},{"type":"function","name":"leaveOperatorsDelay","inputs":[],"outputs":[{"name":"","type":"uint64","internalType":"uint64"}],"stateMutability":"view"},{"type":"function","name":"meetsStakeRequirement","inputs":[{"name":"operator","type":"address","internalType":"address"},{"name":"required","type":"uint256","internalType":"uint256"}],"outputs":[{"name":"","type":"bool","internalType":"bool"}],"stateMutability":"view"},{"type":"function","name":"minOperatorStake","inputs":[],"outputs":[{"name":"","type":"uint256","internalType":"uint256"}],"stateMutability":"view"},{"type":"function","name":"nativeEnabled","inputs":[],"outputs":[{"name":"","type":"bool","internalType":"bool"}],"stateMutability":"view"},{"type":"function","name":"nextSlashId","inputs":[{"name":"","type":"address","internalType":"address"}],"outputs":[{"name":"","type":"uint64","internalType":"uint64"}],"stateMutability":"view"},{"type":"function","name":"notifyReward","inputs":[{"name":"operator","type":"address","internalType":"address"},{"name":"serviceId","type":"uint64","internalType":"uint64"},{"name":"amount","type":"uint256","internalType":"uint256"}],"outputs":[],"stateMutability":"nonpayable"},{"type":"function","name":"notifyRewardForBlueprint","inputs":[{"name":"operator","type":"address","internalType":"address"},{"name":"blueprintId","type":"uint64","internalType":"uint64"},{"name":"serviceId","type":"uint64","internalType":"uint64"},{"name":"amount","type":"uint256","internalType":"uint256"}],"outputs":[],"stateMutability":"nonpayable"},{"type":"function","name":"operatorAt","inputs":[{"name":"index","type":"uint256","internalType":"uint256"}],"outputs":[{"name":"","type":"address","internalType":"address"}],"stateMutability":"view"},{"type":"function","name":"operatorCommissionBps","inputs":[],"outputs":[{"name":"","type":"uint16","internalType":"uint16"}],"stateMutability":"view"},{"type":"function","name":"operatorCount","inputs":[],"outputs":[{"name":"","type":"uint256","internalType":"uint256"}],"stateMutability":"view"},{"type":"function","name":"pause","inputs":[],"outputs":[],"stateMutability":"nonpayable"},{"type":"function","name":"paused","inputs":[],"outputs":[{"name":"","type":"bool","internalType":"bool"}],"stateMutability":"view"},{"type":"function","name":"proxiableUUID","inputs":[],"outputs":[{"name":"","type":"bytes32","internalType":"bytes32"}],"stateMutability":"view"},{"type":"function","name":"registerAdapter","inputs":[{"name":"token","type":"address","internalType":"address"},{"name":"adapter","type":"address","internalType":"address"}],"outputs":[],"stateMutability":"nonpayable"},{"type":"function","name":"registerOperator","inputs":[],"outputs":[],"stateMutability":"payable"},{"type":"function","name":"registerOperatorWithAsset","inputs":[{"name":"token","type":"address","internalType":"address"},{"name":"amount","type":"uint256","internalType":"uint256"}],"outputs":[],"stateMutability":"nonpayable"},{"type":"function","name":"removeAdapter","inputs":[{"name":"token","type":"address","internalType":"address"}],"outputs":[],"stateMutability":"nonpayable"},{"type":"function","name":"removeBlueprint","inputs":[{"name":"blueprintId","type":"uint64","internalType":"uint64"}],"outputs":[],"stateMutability":"nonpayable"},{"type":"function","name":"removeBlueprintFromDelegation","inputs":[{"name":"delegationIndex","type":"uint256","internalType":"uint256"},{"name":"blueprintId","type":"uint64","internalType":"uint64"}],"outputs":[],"stateMutability":"nonpayable"},{"type":"function","name":"removeSlasher","inputs":[{"name":"slasher","type":"address","internalType":"address"}],"outputs":[],"stateMutability":"nonpayable"},{"type":"function","name":"renounceRole","inputs":[{"name":"role","type":"bytes32","internalType":"bytes32"},{"name":"callerConfirmation","type":"address","internalType":"address"}],"outputs":[],"stateMutability":"nonpayable"},{"type":"function","name":"requireAdapters","inputs":[],"outputs":[{"name":"","type":"bool","internalType":"bool"}],"stateMutability":"view"},{"type":"function","name":"rescueTokens","inputs":[{"name":"token","type":"address","internalType":"address"},{"name":"to","type":"address","internalType":"address"},{"name":"amount","type":"uint256","internalType":"uint256"}],"outputs":[],"stateMutability":"nonpayable"},{"type":"function","name":"revokeRole","inputs":[{"name":"role","type":"bytes32","internalType":"bytes32"},{"name":"account","type":"address","internalType":"address"}],"outputs":[],"stateMutability":"nonpayable"},{"type":"function","name":"rewardsManager","inputs":[],"outputs":[{"name":"","type":"address","internalType":"address"}],"stateMutability":"view"},{"type":"function","name":"roundDuration","inputs":[],"outputs":[{"name":"","type":"uint64","internalType":"uint64"}],"stateMutability":"view"},{"type":"function","name":"scheduleDelegatorUnstake","inputs":[{"name":"operator","type":"address","internalType":"address"},{"name":"token","type":"address","internalType":"address"},{"name":"amount","type":"uint256","internalType":"uint256"}],"outputs":[],"stateMutability":"nonpayable"},{"type":"function","name":"scheduleOperatorUnstake","inputs":[{"name":"amount","type":"uint256","internalType":"uint256"}],"outputs":[],"stateMutability":"nonpayable"},{"type":"function","name":"scheduleWithdraw","inputs":[{"name":"token","type":"address","internalType":"address"},{"name":"amount","type":"uint256","internalType":"uint256"}],"outputs":[],"stateMutability":"nonpayable"},{"type":"function","name":"setDelays","inputs":[{"name":"_delegationBondLessDelay","type":"uint64","internalType":"uint64"},{"name":"_leaveDelegatorsDelay","type":"uint64","internalType":"uint64"},{"name":"_leaveOperatorsDelay","type":"uint64","internalType":"uint64"}],"outputs":[],"stateMutability":"nonpayable"},{"type":"function","name":"setOperatorCommission","inputs":[{"name":"bps","type":"uint16","internalType":"uint16"}],"outputs":[],"stateMutability":"nonpayable"},{"type":"function","name":"setRequireAdapters","inputs":[{"name":"required","type":"bool","internalType":"bool"}],"outputs":[],"stateMutability":"nonpayable"},{"type":"function","name":"setRewardsManager","inputs":[{"name":"manager","type":"address","internalType":"address"}],"outputs":[],"stateMutability":"nonpayable"},{"type":"function","name":"slash","inputs":[{"name":"operator","type":"address","internalType":"address"},{"name":"serviceId","type":"uint64","internalType":"uint64"},{"name":"amount","type":"uint256","internalType":"uint256"},{"name":"evidence","type":"bytes32","internalType":"bytes32"}],"outputs":[{"name":"actualSlashed","type":"uint256","internalType":"uint256"}],"stateMutability":"nonpayable"},{"type":"function","name":"slashForBlueprint","inputs":[{"name":"operator","type":"address","internalType":"address"},{"name":"blueprintId","type":"uint64","internalType":"uint64"},{"name":"serviceId","type":"uint64","internalType":"uint64"},{"name":"amount","type":"uint256","internalType":"uint256"},{"name":"evidence","type":"bytes32","internalType":"bytes32"}],"outputs":[{"name":"actualSlashed","type":"uint256","internalType":"uint256"}],"stateMutability":"nonpayable"},{"type":"function","name":"slashHistory","inputs":[{"name":"","type":"address","internalType":"address"},{"name":"","type":"uint64","internalType":"uint64"}],"outputs":[{"name":"round","type":"uint64","internalType":"uint64"},{"name":"totalSlashed","type":"uint256","internalType":"uint256"},{"name":"exchangeRateBefore","type":"uint256","internalType":"uint256"},{"name":"exchangeRateAfter","type":"uint256","internalType":"uint256"},{"name":"evidence","type":"bytes32","internalType":"bytes32"}],"stateMutability":"view"},{"type":"function","name":"snapshotOperator","inputs":[{"name":"operator","type":"address","internalType":"address"}],"outputs":[],"stateMutability":"nonpayable"},{"type":"function","name":"startLeaving","inputs":[],"outputs":[],"stateMutability":"nonpayable"},{"type":"function","name":"supportsInterface","inputs":[{"name":"interfaceId","type":"bytes4","internalType":"bytes4"}],"outputs":[{"name":"","type":"bool","internalType":"bool"}],"stateMutability":"view"},{"type":"function","name":"undelegate","inputs":[{"name":"operator","type":"address","internalType":"address"},{"name":"amount","type":"uint256","internalType":"uint256"}],"outputs":[],"stateMutability":"nonpayable"},{"type":"function","name":"unpause","inputs":[],"outputs":[],"stateMutability":"nonpayable"},{"type":"function","name":"upgradeToAndCall","inputs":[{"name":"newImplementation","type":"address","internalType":"address"},{"name":"data","type":"bytes","internalType":"bytes"}],"outputs":[],"stateMutability":"payable"},{"type":"event","name":"AdapterRegistered","inputs":[{"name":"token","type":"address","indexed":true,"internalType":"address"},{"name":"adapter","type":"address","indexed":true,"internalType":"address"}],"anonymous":false},{"type":"event","name":"AdapterRemoved","inputs":[{"name":"token","type":"address","indexed":true,"internalType":"address"}],"anonymous":false},{"type":"event","name":"AssetDisabled","inputs":[{"name":"token","type":"address","indexed":true,"internalType":"address"}],"anonymous":false},{"type":"event","name":"AssetEnabled","inputs":[{"name":"token","type":"address","indexed":true,"internalType":"address"},{"name":"minOperatorStake","type":"uint256","indexed":false,"internalType":"uint256"},{"name":"minDelegation","type":"uint256","indexed":false,"internalType":"uint256"}],"anonymous":false},{"type":"event","name":"BlueprintAddedToDelegation","inputs":[{"name":"delegator","type":"address","indexed":true,"internalType":"address"},{"name":"delegationIndex","type":"uint256","indexed":true,"internalType":"uint256"},{"name":"blueprintId","type":"uint64","indexed":false,"internalType":"uint64"}],"anonymous":false},{"type":"event","name":"BlueprintRemovedFromDelegation","inputs":[{"name":"delegator","type":"address","indexed":true,"internalType":"address"},{"name":"delegationIndex","type":"uint256","indexed":true,"internalType":"uint256"},{"name":"blueprintId","type":"uint64","indexed":false,"internalType":"uint64"}],"anonymous":false},{"type":"event","name":"Delegated","inputs":[{"name":"delegator","type":"address","indexed":true,"internalType":"address"},{"name":"operator","type":"address","indexed":true,"internalType":"address"},{"name":"token","type":"address","indexed":true,"internalType":"address"},{"name":"amount","type":"uint256","indexed":false,"internalType":"uint256"},{"name":"shares","type":"uint256","indexed":false,"internalType":"uint256"},{"name":"selectionMode","type":"uint8","indexed":false,"internalType":"enum Types.BlueprintSelectionMode"}],"anonymous":false},{"type":"event","name":"DelegatorUnstakeExecuted","inputs":[{"name":"delegator","type":"address","indexed":true,"internalType":"address"},{"name":"operator","type":"address","indexed":true,"internalType":"address"},{"name":"token","type":"address","indexed":true,"internalType":"address"},{"name":"shares","type":"uint256","indexed":false,"internalType":"uint256"},{"name":"amount","type":"uint256","indexed":false,"internalType":"uint256"}],"anonymous":false},{"type":"event","name":"DelegatorUnstakeScheduled","inputs":[{"name":"delegator","type":"address","indexed":true,"internalType":"address"},{"name":"operator","type":"address","indexed":true,"internalType":"address"},{"name":"token","type":"address","indexed":true,"internalType":"address"},{"name":"shares","type":"uint256","indexed":false,"internalType":"uint256"},{"name":"estimatedAmount","type":"uint256","indexed":false,"internalType":"uint256"},{"name":"readyRound","type":"uint64","indexed":false,"internalType":"uint64"}],"anonymous":false},{"type":"event","name":"Deposited","inputs":[{"name":"delegator","type":"address","indexed":true,"internalType":"address"},{"name":"token","type":"address","indexed":true,"internalType":"address"},{"name":"amount","type":"uint256","indexed":false,"internalType":"uint256"},{"name":"lock","type":"uint8","indexed":false,"internalType":"enum Types.LockMultiplier"}],"anonymous":false},{"type":"event","name":"Initialized","inputs":[{"name":"version","type":"uint64","indexed":false,"internalType":"uint64"}],"anonymous":false},{"type":"event","name":"OperatorBlueprintAdded","inputs":[{"name":"operator","type":"address","indexed":true,"internalType":"address"},{"name":"blueprintId","type":"uint64","indexed":true,"internalType":"uint64"}],"anonymous":false},{"type":"event","name":"OperatorBlueprintRemoved","inputs":[{"name":"operator","type":"address","indexed":true,"internalType":"address"},{"name":"blueprintId","type":"uint64","indexed":true,"internalType":"uint64"}],"anonymous":false},{"type":"event","name":"OperatorLeavingScheduled","inputs":[{"name":"operator","type":"address","indexed":true,"internalType":"address"},{"name":"readyRound","type":"uint64","indexed":false,"internalType":"uint64"}],"anonymous":false},{"type":"event","name":"OperatorLeft","inputs":[{"name":"operator","type":"address","indexed":true,"internalType":"address"}],"anonymous":false},{"type":"event","name":"OperatorRegistered","inputs":[{"name":"operator","type":"address","indexed":true,"internalType":"address"},{"name":"stake","type":"uint256","indexed":false,"internalType":"uint256"}],"anonymous":false},{"type":"event","name":"OperatorSlashed","inputs":[{"name":"operator","type":"address","indexed":true,"internalType":"address"},{"name":"serviceId","type":"uint64","indexed":true,"internalType":"uint64"},{"name":"amount","type":"uint256","indexed":false,"internalType":"uint256"},{"name":"evidence","type":"bytes32","indexed":false,"internalType":"bytes32"}],"anonymous":false},{"type":"event","name":"OperatorStakeIncreased","inputs":[{"name":"operator","type":"address","indexed":true,"internalType":"address"},{"name":"amount","type":"uint256","indexed":false,"internalType":"uint256"}],"anonymous":false},{"type":"event","name":"OperatorUnstakeExecuted","inputs":[{"name":"operator","type":"address","indexed":true,"internalType":"address"},{"name":"amount","type":"uint256","indexed":false,"internalType":"uint256"}],"anonymous":false},{"type":"event","name":"OperatorUnstakeScheduled","inputs":[{"name":"operator","type":"address","indexed":true,"internalType":"address"},{"name":"amount","type":"uint256","indexed":false,"internalType":"uint256"},{"name":"readyRound","type":"uint64","indexed":false,"internalType":"uint64"}],"anonymous":false},{"type":"event","name":"Paused","inputs":[{"name":"account","type":"address","indexed":false,"internalType":"address"}],"anonymous":false},{"type":"event","name":"RequireAdaptersUpdated","inputs":[{"name":"required","type":"bool","indexed":false,"internalType":"bool"}],"anonymous":false},{"type":"event","name":"RewardClaimed","inputs":[{"name":"account","type":"address","indexed":true,"internalType":"address"},{"name":"amount","type":"uint256","indexed":false,"internalType":"uint256"}],"anonymous":false},{"type":"event","name":"RewardDistributed","inputs":[{"name":"operator","type":"address","indexed":true,"internalType":"address"},{"name":"amount","type":"uint256","indexed":false,"internalType":"uint256"}],"anonymous":false},{"type":"event","name":"RoleAdminChanged","inputs":[{"name":"role","type":"bytes32","indexed":true,"internalType":"bytes32"},{"name":"previousAdminRole","type":"bytes32","indexed":true,"internalType":"bytes32"},{"name":"newAdminRole","type":"bytes32","indexed":true,"internalType":"bytes32"}],"anonymous":false},{"type":"event","name":"RoleGranted","inputs":[{"name":"role","type":"bytes32","indexed":true,"internalType":"bytes32"},{"name":"account","type":"address","indexed":true,"internalType":"address"},{"name":"sender","type":"address","indexed":true,"internalType":"address"}],"anonymous":false},{"type":"event","name":"RoleRevoked","inputs":[{"name":"role","type":"bytes32","indexed":true,"internalType":"bytes32"},{"name":"account","type":"address","indexed":true,"internalType":"address"},{"name":"sender","type":"address","indexed":true,"internalType":"address"}],"anonymous":false},{"type":"event","name":"RoundAdvanced","inputs":[{"name":"round","type":"uint64","indexed":true,"internalType":"uint64"}],"anonymous":false},{"type":"event","name":"SlashRecorded","inputs":[{"name":"operator","type":"address","indexed":true,"internalType":"address"},{"name":"slashId","type":"uint64","indexed":true,"internalType":"uint64"},{"name":"totalSlashed","type":"uint256","indexed":false,"internalType":"uint256"},{"name":"exchangeRateBefore","type":"uint256","indexed":false,"internalType":"uint256"},{"name":"exchangeRateAfter","type":"uint256","indexed":false,"internalType":"uint256"}],"anonymous":false},{"type":"event","name":"Slashed","inputs":[{"name":"operator","type":"address","indexed":true,"internalType":"address"},{"name":"serviceId","type":"uint64","indexed":true,"internalType":"uint64"},{"name":"operatorSlashed","type":"uint256","indexed":false,"internalType":"uint256"},{"name":"delegatorsSlashed","type":"uint256","indexed":false,"internalType":"uint256"},{"name":"newExchangeRate","type":"uint256","indexed":false,"internalType":"uint256"}],"anonymous":false},{"type":"event","name":"Unpaused","inputs":[{"name":"account","type":"address","indexed":false,"internalType":"address"}],"anonymous":false},{"type":"event","name":"Upgraded","inputs":[{"name":"implementation","type":"address","indexed":true,"internalType":"address"}],"anonymous":false},{"type":"event","name":"WithdrawScheduled","inputs":[{"name":"delegator","type":"address","indexed":true,"internalType":"address"},{"name":"token","type":"address","indexed":true,"internalType":"address"},{"name":"amount","type":"uint256","indexed":false,"internalType":"uint256"},{"name":"readyRound","type":"uint64","indexed":false,"internalType":"uint64"}],"anonymous":false},{"type":"event","name":"Withdrawn","inputs":[{"name":"delegator","type":"address","indexed":true,"internalType":"address"},{"name":"token","type":"address","indexed":true,"internalType":"address"},{"name":"amount","type":"uint256","indexed":false,"internalType":"uint256"}],"anonymous":false},{"type":"error","name":"AccessControlBadConfirmation","inputs":[]},{"type":"error","name":"AccessControlUnauthorizedAccount","inputs":[{"name":"account","type":"address","internalType":"address"},{"name":"neededRole","type":"bytes32","internalType":"bytes32"}]},{"type":"error","name":"AddressEmptyCode","inputs":[{"name":"target","type":"address","internalType":"address"}]},{"type":"error","name":"AllModeDisallowsBlueprints","inputs":[]},{"type":"error","name":"AmountLocked","inputs":[{"name":"locked","type":"uint256","internalType":"uint256"},{"name":"requested","type":"uint256","internalType":"uint256"}]},{"type":"error","name":"AssetNotEnabled","inputs":[{"name":"asset","type":"address","internalType":"address"}]},{"type":"error","name":"BelowMinimumDeposit","inputs":[{"name":"minimum","type":"uint256","internalType":"uint256"},{"name":"provided","type":"uint256","internalType":"uint256"}]},{"type":"error","name":"BlueprintAlreadySelected","inputs":[{"name":"blueprintId","type":"uint64","internalType":"uint64"}]},{"type":"error","name":"BlueprintNotSelected","inputs":[{"name":"blueprintId","type":"uint64","internalType":"uint64"}]},{"type":"error","name":"CannotRemoveLastBlueprint","inputs":[]},{"type":"error","name":"DelegationNotFound","inputs":[{"name":"delegator","type":"address","internalType":"address"},{"name":"operator","type":"address","internalType":"address"}]},{"type":"error","name":"DepositCapExceeded","inputs":[{"name":"cap","type":"uint256","internalType":"uint256"},{"name":"current","type":"uint256","internalType":"uint256"},{"name":"adding","type":"uint256","internalType":"uint256"}]},{"type":"error","name":"ERC1967InvalidImplementation","inputs":[{"name":"implementation","type":"address","internalType":"address"}]},{"type":"error","name":"ERC1967NonPayable","inputs":[]},{"type":"error","name":"EnforcedPause","inputs":[]},{"type":"error","name":"ExpectedPause","inputs":[]},{"type":"error","name":"FailedCall","inputs":[]},{"type":"error","name":"FixedModeRequiresBlueprints","inputs":[]},{"type":"error","name":"InsufficientAvailableBalance","inputs":[{"name":"available","type":"uint256","internalType":"uint256"},{"name":"requested","type":"uint256","internalType":"uint256"}]},{"type":"error","name":"InsufficientDelegation","inputs":[{"name":"available","type":"uint256","internalType":"uint256"},{"name":"requested","type":"uint256","internalType":"uint256"}]},{"type":"error","name":"InsufficientDeposit","inputs":[{"name":"available","type":"uint256","internalType":"uint256"},{"name":"requested","type":"uint256","internalType":"uint256"}]},{"type":"error","name":"InsufficientStake","inputs":[{"name":"required","type":"uint256","internalType":"uint256"},{"name":"provided","type":"uint256","internalType":"uint256"}]},{"type":"error","name":"InvalidDelegationIndex","inputs":[{"name":"index","type":"uint256","internalType":"uint256"}]},{"type":"error","name":"InvalidInitialization","inputs":[]},{"type":"error","name":"InvalidLockMultiplier","inputs":[{"name":"value","type":"uint8","internalType":"uint8"}]},{"type":"error","name":"LeavingTooEarly","inputs":[{"name":"currentRound","type":"uint64","internalType":"uint64"},{"name":"requiredRound","type":"uint64","internalType":"uint64"}]},{"type":"error","name":"LegacySlashRequiresAllMode","inputs":[{"name":"operator","type":"address","internalType":"address"}]},{"type":"error","name":"NoRewardsToClaim","inputs":[]},{"type":"error","name":"NotFixedMode","inputs":[]},{"type":"error","name":"NotInitializing","inputs":[]},{"type":"error","name":"OperatorAlreadyRegistered","inputs":[{"name":"operator","type":"address","internalType":"address"}]},{"type":"error","name":"OperatorNotActive","inputs":[{"name":"operator","type":"address","internalType":"address"}]},{"type":"error","name":"OperatorNotLeaving","inputs":[{"name":"operator","type":"address","internalType":"address"}]},{"type":"error","name":"OperatorNotRegistered","inputs":[{"name":"operator","type":"address","internalType":"address"}]},{"type":"error","name":"ReentrancyGuardReentrantCall","inputs":[]},{"type":"error","name":"SafeERC20FailedOperation","inputs":[{"name":"token","type":"address","internalType":"address"}]},{"type":"error","name":"TransferFailed","inputs":[]},{"type":"error","name":"UUPSUnauthorizedCallContext","inputs":[]},{"type":"error","name":"UUPSUnsupportedProxiableUUID","inputs":[{"name":"slot","type":"bytes32","internalType":"bytes32"}]},{"type":"error","name":"ZeroAddress","inputs":[]},{"type":"error","name":"ZeroAmount","inputs":[]}],"bytecode":{"object":"0x60a080604052346100e857306080527ff0c57e16840df040f15088dc2f81fe391c3923bec73e23a9662efc9c229c6a005460ff8160401c166100d9576002600160401b03196001600160401b03821601610073575b6040516190c390816100ed8239608051818181613686015261377c0152f35b6001600160401b0319166001600160401b039081177ff0c57e16840df040f15088dc2f81fe391c3923bec73e23a9662efc9c229c6a005581527fc7f505b2f371ae2175ee4913f4499e1f2633a7b5936321eed1cdaeb6115181d290602090a15f80610054565b63f92ee8a960e01b5f5260045ffd5b5f80fdfe6080604052600436101561001a575b3615610018575f80fd5b005b5f3560e01c80627910d0146153e657806301ffc9a714615390578063026e402b1461535b57806303587c1d146152c057806303780211146152455780630a8ddc5e146152025780630aa8b1101461517a5780630c8833ce1461500657806315049a5a14614eb2578063168f686514614cc657806318056dc214614caa5780631ba9998b14614c4f57806323cc2700146148d7578063248a9ca3146148b9578063261423351461488057806328e70ecc1461481f5780632acde098146146ef5780632ee663b81461462c5780632f2ff15d146145fb57806330224fc8146145c357806331cc13ba1461448c57806332273f6114614468578063354ebef914614389578063356924ea1461434d57806336568abe146143095780633dcad9db146141465780633f4ba83a146140c857806344aff25214613f8457806344d1480b14613ce7578063453eccea14613ccb578063461cc23b14613c95578063486398c314613c5d5780634962f88f146116985780634c4ede2d14613c3c5780634d99dd16146139305780634de8addc1461390a5780634f1ef286146137015780635095af64146136da57806352d1902d1461367457806354de2320146136585780635722d512146134fc57806357601c5d146134ae578063585cd34b146133ee5780635c975abb146133c057806366c368751461296e57806368a9f19c146133975780636d70f7ae146133555780636ec3ab671461324357806370807528146131a357806375b238fc1461316957806377ab2cf3146131475780637b76fe5e146130e55780637b9996c514612f595780637c6f315814612f3c5780637d6941c614612f075780637df92ada14612eea5780638456cb5914612e79578063859caa1814612c015780638770355014612b295780638a19c8bc14612b045780638a7fe60f14612ac45780638c5b4ae714612a895780638d795d5014612a4557806391d14854146129f05780639494f426146129af578063960856731461296e57806397feb926146129395780639e8705851461291c578063a217fddf14612902578063a299e29814612815578063a3b9c5c214612701578063a457af3d14612625578063a4b32de8146125eb578063a7fa6f98146125cf578063aac6aa9c146125a6578063aaf5eb6814612584578063ad3cb1cc14612526578063b0dfce06146124f2578063b54b2b9e146124d0578063ba05bbf5146124a8578063c07449e21461244c578063c35082a914612382578063c7353025146122fe578063cadd550c1461222e578063cb15038b146121bd578063cbb6d6bd14611f17578063cea9d26f14611d68578063d0e30db014611d45578063d1736ba714611c1c578063d27a6f0614611bff578063d547741f14611bc9578063d655b92a14611aa0578063d673e0b914611a68578063d775cb6114611a22578063d9e257ef1461197e578063db8a173a1461195f578063dc972ccc146118ab578063defe205314611883578063e0a5825b146116b4578063e1a4521814611698578063e1ee4bcc14611402578063e4e88de8146113b2578063eb47353314611332578063f0b52bb414611142578063f340c0d014611030578063f38c7c4e14610fe8578063f3c4d8a014610f65578063f3c9b31114610f48578063f46913bb14610f0b578063f7cb789a14610ee3578063f8fd979514610a26578063fbec4861146109db578063fc5e7e0914610956578063fc8a91af1461055d5763fd7d3dbc0361000e57346105595761054661054061052236615e11565b61053196929596949394616291565b6105396161aa565b3691616122565b9361763e565b60015f8051602061907783398151915255005b5f80fd5b346105595761056b36615dd7565b9190610575616291565b8215610947576001600160a01b0316918261092b5760405161059681615d2f565b5f81525f6020820152925b6105aa84616ccc565b6001600160a01b0384165f818152601760205260409020600281015491969291908115801561091f575b156108d957505083905b5f955f5b335f52601260205260405f20548110156108cd57335f52601260205261060b8160405f2061617d565b5080546001600160a01b03168a14806108b6575b61062c57506001016105e2565b93949596975050905f90335f52601460205260405f205f918154925b8381106108425750505050610661906001840154615f17565b90838210610822575050335f52601460205260405f209060ff60036001600160401b035f5416920154166040519261069884615d80565b8884526020840195865260408401908582526060850193845260808501926106bf81615ce9565b83528054600160401b81101561080e576106de9160018201815561617d565b9490946107fb575184546001600160a01b0319166001600160a01b0391909116178455945180518996610787956001600160401b039384936003939161075d916001850191906107379061073181615ce9565b83616256565b602001518154610100600160a81b03191660089190911b610100600160a81b0316179055565b51600282015501935116166001600160401b0319835416178255519061078282615ce9565b61626e565b6001600160401b036001946107a55f5483808260801c1691166161e2565b9060405193845260208401521660408201527f06325d83435da87657b063c6142a5b91a66a7e811827d082d624287a9953c4ba60603392a45b156107e557005b6309078cff60e21b5f523360045260245260445ffd5b634e487b7160e01b5f525f60045260245ffd5b634e487b7160e01b5f52604160045260245ffd5b869161082d91617d12565b6388c4fe8f60e01b5f5260045260245260445ffd5b8b61084d828561617d565b50546001600160a01b03161480610890575b61086c575b600101610648565b93610888600191600261087f888761617d565b500154906160fe565b949050610864565b50816108b06108ab60016108a4858861617d565b5001616210565b616ccc565b1461085f565b50836108c76108ab60028401616210565b1461061f565b505050505050506107de565b816108eb60016108f093015488615f24565b6160fe565b5f1981019190821161090b5761090591615f37565b906105de565b634e487b7160e01b5f52601160045260245ffd5b506001810154156105d4565b60405161093781615d2f565b60018152836020820152926105a1565b631f2a200560e01b5f5260045ffd5b346105595760203660031901126105595761096f615c6e565b5f906001600160a01b0316815b815f52601260205260405f20548310156109d0576109c8600191835f5260126020526109c26109ae8660405f2061617d565b5084808060a01b0382541691015490617d12565b906160fe565b92019161097c565b602090604051908152f35b6105466105406109ea36615e11565b6109f996929596949394616291565b610a016161aa565b6001600160a01b038416610a1757610539617104565b610a2185856174ab565b610539565b34610559575f36600319011261055957610a3e6161aa565b5f335f52601160205260405f20905f90825492610a5a8461610b565b610a676040519182615d9b565b848152601f19610a768661610b565b01366020830137610a868561610b565b94610a946040519687615d9b565b808652601f19610aa38261610b565b015f5b818110610ec0575050610ab88161610b565b93610ac66040519586615d9b565b818552601f19610ad58361610b565b013660208701375f8054906001600160401b0382169160c01c905b8987868310610e1857898b918983610cc2575b50505f5b828110610b215760015f8051602061907783398151915255005b610b2b8185616242565b5190610b378184616242565b51918051610b4481615ce9565b610b4d81615ce9565b610bfe5750905f80808093335af1610b636170d5565b5015610bc0576001905b818060a01b036020610b7f8388616242565b51015116610b8d8285616242565b516040519081527fd1c19fbcd4551a5edfb66d43d2e337c04837afda3482b42bdf569a8fccdae5fb60203392a301610b07565b60405162461bcd60e51b815260206004820152601660248201527513985d1a5d99481d1c985b9cd9995c8819985a5b195960521b6044820152606490fd5b602090810180516001600160a01b039081165f908152600690935260409092205490911692908315610ca3575060405163f3fef3a360e01b8152336004820152602481019190915291602090839060449082905f905af1918215610c9857600192610c6a575b50610b6d565b610c8a9060203d8111610c91575b610c828183615d9b565b81019061878d565b5085610c64565b503d610c78565b6040513d5f823e3d90fd5b5160019350610cbd919033906001600160a01b03166175e4565b610b6d565b909192935f945f5b8454811015610db957610cdd8185616242565b5115610cec575b600101610cca565b95868103610d08575b610d00600191616202565b969050610ce4565b610d128786617625565b50610d1d8287617625565b9290926107fb578282610d0093600195141580610d40575b505050915050610cf5565b6001600160401b03600281938193610d79575b8881015489870155015416920191166001600160401b0319825416179055898080610d35565b610d8760ff82541687616256565b80548654610100600160a81b031916600891821c60a08c901b8c90031690911b610100600160a81b0316178655610d53565b5091509193925b845484811115610e0b578015610df7575f1901610ddd8187617625565b6107fb576002815f80935582600182015501558555610dc0565b634e487b7160e01b5f52603160045260245ffd5b5091935091508380610b03565b610e3a846001600160401b036002610e31878396617625565b500154166161e2565b16841015610e4c575b50600101610af0565b610eb18a95610e8c849c610eb794610e7c610e76888f8f610e7060019c8d92616242565b52617625565b50616210565b610e868383616242565b52616242565b5083610e988d8c617625565b500154610ea5888d616242565b528361087f8d8c617625565b94616202565b98905089610e43565b602090604051610ecf81615d2f565b5f81525f8382015282828b01015201610aa6565b34610559575f3660031901126105595760206001600160401b035f5460401c16604051908152f35b34610559576040366003190112610559576001600160a01b03610f2c615c6e565b165f52600a602052602060243560405f20541015604051908152f35b34610559575f3660031901126105595760206040516213c6808152f35b346105595760203660031901126105595760043561ffff81168082036105595761271090610f916167d1565b11610fb55761ffff60401b6001549160401b169061ffff60401b1916176001555f80f35b60405162461bcd60e51b815260206004820152600b60248201526a496e76616c69642042505360a81b6044820152606490fd5b6020366003190112610559576004356005811015610559576105469061100c616291565b6110146161aa565b60405161102081615d2f565b5f81525f60208201523490618360565b34610559576020366003190112610559576001600160a01b03611051615c6e565b165f52601160205260405f208054906110698261610b565b916110776040519384615d9b565b8083526020830180925f5260205f205f915b8383106110fb578486604051918291602083019060208452518091526040830191905f5b8181106110bb575050500390f35b91935091602060806001926001600160401b03604088516110dd848251615cf3565b858101518285015201511660608201520194019101918493926110ad565b6003602060019260405161110e81615d4a565b61111786616210565b815284860154838201526001600160401b036002870154166040820152815201920192019190611089565b346105595760c03660031901126105595761115b615c6e565b611163615c84565b906044356064359060a4359261ffff841680940361055957611183616840565b6001600160a01b031693611198851515615ede565b6001600160a01b0316916111ad83151561605c565b60405163551c457b60e11b81526004810186905293602085602481875afa938415610c9857600561126d61ffff926112106040987f9a4c59c56153245e23dcb8000e301b9a5e35b8e6693c5cdbf3b6a2aa0f8a37ea9a5f91611303575b506160b2565b895f526006602052875f20816001600160601b0360a01b8254161790558751908a7fc47df14ad9309b59073546f93dbe3115ed09c8b206d940f8441ddb07f745b10b5f80a361125e81615d2f565b60018152896020820152616ccc565b86519061127982615d65565b60018252602082018781528883018781526060840191608435835260808501935f855260a086019889525f5260026020526112c68b5f2095511515869060ff801983541691151516179055565b5160018501555160028401555160038301555160048201550191511661ffff198254161790556112f585617fec565b5082519182526020820152a2005b611325915060203d60201161132b575b61131d8183615d9b565b81019061609a565b8c61120a565b503d611313565b34610559576020366003190112610559576001600160a01b03611353615c6e565b16805f52600960205260405f2054151580611376575b6020906040519015158152f35b505f52600a60205260ff600160405f20015460201c16600381101561139e5760209015611369565b634e487b7160e01b5f52602160045260245ffd5b346105595760203660031901126105595760206113fa6001600160a01b036113d8615c6e565b16805f52600a835260405f2054905f5260178352600260405f200154906160fe565b604051908152f35b346105595760403660031901126105595761141b615c6e565b60243590611427616291565b8115610947576001600160a01b0316908161167d5760405161144881615d2f565b5f81525f60208201525b61145b81616ccc565b335f52600f60205260405f20815f5260205260405f2090815490611483600184015483615f17565b905f90335f52601060205260405f20905f5260205260405f205f908054915b828110611631575050508083111561162a57856114bf8285615f17565b1061161357508481106115fc5750836114d791615f17565b9055335f52601160205260405f206001600160401b035f541690604051926114fe84615d4a565b83526020830190848252604084019283528054600160401b81101561080e5761152c91600182018155617625565b9390936107fb576001600160401b039260029261157f859351611559815161155381615ce9565b89616256565b602001518754610100600160a81b03191660089190911b610100600160a81b0316178755565b5160018601555116920191166001600160401b03198254161790557f91eff7d39d2499d76ac21a1903a95a88f31589cb07b1ffdfb61db9f7cd8a39786115f76115d65f546001600160401b038160c01c91166161e2565b604080519485526001600160401b0390911660208501523393918291820190565b0390a3005b849063adb9e04360e01b5f5260045260245260445ffd5b8590638ec3321160e01b5f5260045260245260445ffd5b855f6114bf565b61163b818361821d565b506001600160401b0360014392015460081c161161165c575b6001016114a2565b9261167560019161166d868561821d565b5054906160fe565b939050611654565b60405161168981615d2f565b60018152826020820152611452565b34610559575f3660031901126105595760206040516127108152f35b34610559576040366003190112610559576116cd615c6e565b602435906116d9616291565b6116e16161aa565b335f52600960205260405f2054611870576001600160a01b0316801561185d5761171f60405161171081615d2f565b60018152826020820152616ccc565b5f52600260205260405f2060ff8154161561184a5760018391015491828210611833576117509250309033906188d8565b61175933617f86565b5060405161176681615d14565b818152602081015f8152604082015f815263ffffffff80600160608601955f8752335f52600a60205260405f2090518155019351161663ffffffff1983541617825551600381101561139e576117f4926117c86001600160401b039284616988565b5182546cffffffffffffffff00000000001916911660281b6cffffffffffffffff000000000016179055565b6040519081527fbc11617e575d658c74e921c8df22f8e48566072fa78145a6cfe18420bf8d0c4e60203392a260015f8051602061907783398151915255005b50506322df051360e11b5f5260045260245260445ffd5b5063f6f24b8360e01b5f5260045260245ffd5b63f6f24b8360e01b5f525f60045260245ffd5b63866b0dcf60e01b5f523360045260245ffd5b34610559575f36600319011261055957601e546040516001600160a01b039091168152602090f35b34610559576020366003190112610559576001600160a01b036118cc615c6e565b165f52600c60205260405f20604051806020835491828152019081935f5260205f20905f5b8181106119495750505081611907910382615d9b565b604051918291602083019060208452518091526040830191905f5b818110611930575050500390f35b8251845285945060209384019390920191600101611922565b82548452602090930192600192830192016118f1565b34610559575f3660031901126105595760205f5460c01c604051908152f35b5f36600319011261055957611991616291565b6119996161aa565b335f52600a60205260405f2060ff600182015460201c16600381101561139e57611a0f573415610947576119ce3482546160fe565b90556040513481527f614a3fa8467eb54cb60af3aab440279837c9fcd75c5a2617fe0af9c6e5e60e8360203392a260015f8051602061907783398151915255005b6371ab6ad560e11b5f523360045260245ffd5b34610559575f36600319011261055957611a4f604051611a4181615d2f565b5f81525f6020820152616ccc565b5f5260026020526020600160405f200154604051908152f35b34610559576020366003190112610559576001600160a01b03611a89615c6e565b165f52600a602052602060405f2054604051908152f35b3461055957604036600319011261055957611ab9615c6e565b611ac1615c84565b90611aca616840565b6001600160a01b0316908115611b84576001600160a01b031690611aef82151561605c565b60405163551c457b60e11b815260048101829052602081602481865afa8015610c9857611b22915f91611b6557506160b2565b5f81815260066020526040812080546001600160a01b031916841790557fc47df14ad9309b59073546f93dbe3115ed09c8b206d940f8441ddb07f745b10b9080a3005b611b7e915060203d60201161132b5761131d8183615d9b565b8461120a565b60405162461bcd60e51b815260206004820152601d60248201527f43616e6e6f7420736574206164617074657220666f72206e61746976650000006044820152606490fd5b3461055957604036600319011261055957610018600435611be8615c84565b90611bfa611bf582615ec0565b6168f8565b617039565b34610559575f3660031901126105595760206040516209e3408152f35b34610559575f36600319011261055957611c346161aa565b335f52600a60205260405f2060018101805460ff8160201c16600381101561139e57600203611d32576001600160401b03805f54169160281c166001600160401b0360015416906001600160401b03611c8d83836161e2565b168310611d0857611cd05f8080808989828254925564010000000064ff0000000019825416179055611cbe336185e7565b50335af1611cca6170d5565b506174e5565b337f120599f8830115ed973189f8f4947cc793fcd90a15d47c4d6ad8d1a3f15af7345f80a260015f8051602061907783398151915255005b6001600160401b039291611d1b916161e2565b90631b04d91d60e21b5f526004521660245260445ffd5b639923c53960e01b5f523360045260245ffd5b5f36600319011261055957611d58616291565b611d606161aa565b610546617104565b3461055957611d7636615dd7565b335f9081527fb7db2dd08fcb62d0c9e08c51941cae53c267786a0b75803fb7960902fc8ef97d60205260409020549192909160ff1615611f00576001600160a01b03831615611ec7578115611e91576001600160a01b03165f81815260046020526040902054909290611e4c575f838152600660205260409020546001600160a01b0316611e0757610018926175e4565b60405162461bcd60e51b815260206004820152601b60248201527f43616e6e6f7420726573637565206164617074656420617373657400000000006044820152606490fd5b60405162461bcd60e51b815260206004820152601e60248201527f43616e6e6f7420726573637565207265676973746572656420617373657400006044820152606490fd5b60405162461bcd60e51b815260206004820152600e60248201526d125b9d985b1a5908185b5bdd5b9d60921b6044820152606490fd5b60405162461bcd60e51b8152602060048201526011602482015270125b9d985b1a59081c9958da5c1a595b9d607a1b6044820152606490fd5b63e2517d3f60e01b5f52336004525f60245260445ffd5b3461055957608036600319011261055957611f30615c6e565b6064359061ffff82168203610559575f80516020619097833981519152549160ff8360401c1615926001600160401b038116801590816121b5575b60011490816121ab575b1590816121a2575b506121935767ffffffffffffffff1981166001175f805160206190978339815191525560079261202a9185612167575b50611fb6618855565b611fbe618855565b611fc6618855565b611fce618855565b60ff195f8051602061905783398151915254165f8051602061905783398151915255611ff8618855565b612000618855565b60015f805160206190778339815191525561201a81616a32565b5061202481616ac9565b50616b82565b5061203a604051611a4181615d2f565b61ffff600560405161204b81615d65565b6001815260208101602435815260408201604435815260608301905f825260808401925f845260a085019761271089525f52600260205261209f60405f2095511515869060ff801983541691151516179055565b5160018501555160028401555160038301555160048201550191511661ffff19825416179055600160ff19600554161760055561ffff60401b60015491780700000000000000070000000000001c2000000000000000015f5560401b169069ffffffffffffffffffff1916171760015561211557005b60ff60401b195f8051602061909783398151915254165f80516020619097833981519152557fc7f505b2f371ae2175ee4913f4499e1f2633a7b5936321eed1cdaeb6115181d2602060405160018152a1005b68ffffffffffffffffff191668010000000000000001175f805160206190978339815191525585611fad565b63f92ee8a960e01b5f5260045ffd5b90501585611f7d565b303b159150611f75565b859150611f6b565b34610559576060366003190112610559576121d6615c6e565b6044356005811015610559576121ea616291565b6121f26161aa565b6001600160a01b038216801561185d57612212610546936024359061879c565b906040519061222082615d2f565b600182526020820152618360565b34610559576020366003190112610559576001600160a01b0361224f615c6e565b16805f52600a60205260405f2060ff600182015460201c16600381101561139e576122cc576001905491805f526017602052600260405f200154906040519361229785615d2f565b8452602084019182526001600160401b035f54165f52600e60205260405f20905f5260205260405f2092518355519101555f80f35b60405162461bcd60e51b815260206004820152600a6024820152694e6f742061637469766560b01b6044820152606490fd5b3461055957602036600319011261055957612317615c9a565b335f52600a60205260ff600160405f20015460201c16600381101561139e57611a0f57335f52600c60205261235a6001600160401b0360405f209216809261803c565b50337fb6d5e45d77b8967cff525b375be6e07f99ca5af91d88724ac1237aafe295d50e5f80a3005b346105595760403660031901126105595761239b615c6e565b6123a3615c84565b6123ab616026565b506123b4616026565b506001600160a01b03168061243057506040516123d081615d2f565b5f81525f6020820152905b6001600160a01b03165f908152600f60205260409020906123fb90616ccc565b5f5260205261242c61240f60405f2061603e565b604051918291829190916020806040830194805184520151910152565b0390f35b6040519061243d82615d2f565b600182526020820152906123db565b3461055957604036600319011261055957612465615c9a565b6001600160401b03612475615c84565b9161247e616026565b50165f52600e60205260405f209060018060a01b03165f5260205261242c61240f60405f2061603e565b34610559575f3660031901126105595760206001600160401b035f5460801c16604051908152f35b34610559575f36600319011261055957602060ff600754166040519015158152f35b34610559575f3660031901126105595761250a6161aa565b612512617523565b5060015f8051602061907783398151915255005b34610559575f3660031901126105595760408051906125458183615d9b565b600582526020820191640352e302e360dc1b83528151928391602083525180918160208501528484015e5f828201840152601f01601f19168101030190f35b34610559575f366003190112610559576020604051670de0b6b3a76400008152f35b34610559576020366003190112610559576100186125c2615c6e565b6125ca6167d1565b616fa8565b34610559575f3660031901126105595760206040516132c88152f35b34610559575f3660031901126105595760206040517fb1fadd3142ab2ad7f1337ea4d97112bcc8337fc11ce5b20cb04ad038adf998198152f35b346105595760403660031901126105595761263e615c6e565b612646615cb0565b905f608060405161265681615d80565b828152826020820152826040820152826060820152015260018060a01b03165f5260506020526001600160401b0360405f2091165f5260205260a060405f206040516126a181615d80565b6001600160401b038254169182825260018101546020830190815260028201549060408401918252608060046003850154946060870195865201549401938452604051948552516020850152516040840152516060830152516080820152f35b346105595760603660031901126105595761271a615c6e565b612722615cb0565b506044359061271061273d61ffff60015460401c1684615f24565b049161277561274c8483615f17565b9260018060a01b03811694855f52601960205261276e60405f209182546160fe565b90556181e7565b825f52601760205260405f20906001820191825415155f146127e457670de0b6b3a7640000840293808504670de0b6b3a7640000149015171561090b576127d86127d15f80516020618fd7833981519152956020955490615f37565b82546160fe565b90555b604051908152a2005b50602091505f80516020618fd783398151915292845f526019835261280e60405f209182546160fe565b90556127db565b34610559576020366003190112610559576001600160a01b03612836615c6e565b16805f52600d60205260405f20549061284e8261610b565b9161285c6040519384615d9b565b8083526128688161610b565b602084019290601f19013684375f5b8281106128cb578385604051918291602083019060208452518091526040830191905f5b8181106128a9575050500390f35b82516001600160a01b031684528594506020938401939092019160010161289b565b600190825f52600d6020526128e38160405f20617f71565b838060a01b0391549060031b1c166128fb8288616242565b5201612877565b34610559575f3660031901126105595760206040515f8152f35b34610559575f36600319011261055957602060405162034bc08152f35b3461055957604036600319011261055957610546612955615c6e565b61295d616291565b6129656161aa565b602435906174ab565b34610559576020366003190112610559576001600160a01b0361298f615c6e565b165f52605160205260206001600160401b0360405f205416604051908152f35b34610559576060366003190112610559576129c8615c6e565b6129d0615cb0565b906044356001600160a01b0381168103610559576020926113fa92615f55565b3461055957604036600319011261055957612a09615c84565b6004355f525f8051602061903783398151915260205260405f209060018060a01b03165f52602052602060ff60405f2054166040519015158152f35b346105595760a03660031901126105595760206113fa612a63615c6e565b612a6b615cb0565b90612a74615cc6565b612a7c6168af565b60843592606435926171b9565b34610559576020366003190112610559576001600160a01b03612aaa615c6e565b165f5260176020526020600260405f200154604051908152f35b34610559576020366003190112610559576001600160a01b03612ae5615c6e565b165f526006602052602060018060a01b0360405f205416604051908152f35b34610559575f3660031901126105595760206001600160401b035f5416604051908152f35b34610559575f36600319011261055957335f52600a602052600160405f200160ff815460201c16600381101561139e57611a0f57612baa9064020000000064ff00000000198254161781556001600160401b035f54166cffffffffffffffff000000000082549160281b16906cffffffffffffffff00000000001916179055565b612bca6001600160401b035f54166001600160401b0360015416906161e2565b6001600160401b03604051911681527ffd47ed8e653fba5e6e9fcaa947419ca2334b3972ce196132ec69708574d6d35a60203392a2005b3461055957604036600319011261055957600435612c1d615cb0565b612c25616291565b335f52601260205260405f2054821015612e6657335f526012602052612c4e8260405f2061617d565b5090600160ff600384015416612c6381615ce9565b03612e5757335f52601360205260405f20835f5260205260405f208054926001841115612e48576001600160401b03909216925f1992905f5b818110612e15575b50505f198314612e0257335f908152601d6020908152604080832084546001600160a01b0316845282528083208784529091528120805491905582545f198101949190851161090b57612d1e6001600160401b03612d0f612d0888612d3c95615f37565b978761694a565b90549060031b1c16928561694a565b81939154906001600160401b03809160031b9316831b921b19161790565b905581548015610df7575f1901612d53818461694a565b6001600160401b0382549160031b1b1916905582555f5b8254811015612dd257335f908152601d6020908152604080832085546001600160a01b031684529091529020600191906001600160401b0380612dad848861694a565b90549060031b1c16165f5260205260405f20612dca8682546160fe565b905501612d6a565b85856040519081527fc38cef0d003bc8a9982db0d994b2ea048946028e9255cc061a56abcbb7d548a160203392a3005b83633062236b60e11b5f5260045260245ffd5b856001600160401b03612e28838761694a565b90549060031b1c1614612e3d57600101612c9c565b935086905080612ca4565b63301ac92560e21b5f5260045ffd5b63138dfed560e11b5f5260045ffd5b50630b21815d60e11b5f5260045260245ffd5b34610559575f36600319011261055957612e916167d1565b612e99616291565b600160ff195f805160206190578339815191525416175f80516020619057833981519152557f62e78cea01bee320cd4e420270b5ea74000d11b0c9f74754ebdbfc544b05a2586020604051338152a1005b34610559575f366003190112610559576020604051620697808152f35b34610559576020366003190112610559576004356001600160a01b03811681036105595761251290612f376161aa565b617125565b34610559575f366003190112610559576020600854604051908152f35b34610559576040366003190112610559576001600160a01b03612f7a615c6e565b165f52601360205260405f206024355f5260205260405f2060405190818260208354928381520180935f5260205f20925f905b80600383011061309357612fe6945491818110613079575b81811061305c575b81811061303f575b10613031575b509392930382615d9b565b604051918291602083019060208452518091526040830191905f5b81811061300f575050500390f35b82516001600160401b0316845285945060209384019390920191600101613001565b60c01c815260200185612fdb565b9260206001916001600160401b038560801c168152019301612fd5565b9260206001916001600160401b038560401c168152019301612fcd565b9260206001916001600160401b0385168152019301612fc5565b916004919350608060019186546001600160401b03811682526001600160401b038160401c1660208301526001600160401b0381841c16604083015260c01c6060820152019401920185929391612fad565b34610559576020366003190112610559576004358015158091036105595760207fe2c375ae70efa82f7f1d8e9555f83f2df5c692d66834ebabba9d897fca46f3df9161312f616840565b60ff196007541660ff821617600755604051908152a1005b34610559575f36600319011261055957602060ff600554166040519015158152f35b34610559575f3660031901126105595760206040517fa49807205ce4d355092ef5a8a18f56e8913cf4a201fbe287825b095693c217758152f35b34610559576020366003190112610559576131bc615c6e565b6131c4616840565b6001600160a01b031680613225576131e1604051611a4181615d2f565b60ff19600554166005555b5f52600260205260405f2060ff1981541690557ffc9274ad64ab0a7d8dedd8c9297fb4e25d7a17eb057457c6bcf2a8f13dc8859c5f80a2005b61323460405161171081615d2f565b61323d8261853c565b506131ec565b346105595760203660031901126105595761325c615c6e565b5f60a060405161326b81615d65565b8281526020810183905260408101839052606081018390526080810183905201526001600160a01b03168061333757506132aa604051611a4181615d2f565b5f52600260205260c060405f2061ffff6040516132c681615d65565b60ff8354161515928382526001810154602083019081526002820154604084019081526003830154916060850192835260a0866005600487015496608089019788520154169501948552604051968752516020870152516040860152516060850152516080840152511660a0820152f35b6040516132aa9161334782615d2f565b600182526020820152616ccc565b3461055957602036600319011261055957602061338d6001600160a01b0361337b615c6e565b165f52600960205260405f2054151590565b6040519015158152f35b34610559576020366003190112610559576100186133b3615c6e565b6133bb6167d1565b6169ad565b34610559575f36600319011261055957602060ff5f8051602061905783398151915254166040519015158152f35b3461055957602036600319011261055957613407615c6e565b61340f616840565b6001600160a01b039081165f8181526006602052604090205490911615613471575f81815260066020526040812080546001600160a01b03191690557fdf980d21d8c7bb34800e668dbe003299093bac8e693614151d3c57f73f98a93d9080a2005b60405162461bcd60e51b8152602060048201526015602482015274139bc81859185c1d195c881c9959da5cdd195c9959605a1b6044820152606490fd5b34610559576020366003190112610559576134c7615c6e565b6001600160a01b03165f9081525f80516020618ff7833981519152602090815260409182902054915160ff9092161515825290f35b34610559576020366003190112610559576001600160a01b0361351d615c6e565b165f52601460205260405f208054906135358261610b565b916135436040519384615d9b565b8083526020830180925f5260205f205f915b8383106135eb578486604051918291602083019060208452518091526040830191905f5b818110613587575050500390f35b91935091602060c060019260808751858060a01b0381511683526135b18582015186850190615cf3565b604081015160608401526001600160401b036060820151168284015201516135d881615ce9565b60a0820152019401910191849392613579565b600460206001926040516135fe81615d80565b848060a01b038654168152613614858701616210565b838201526002860154604082015260ff60038701546001600160401b038116606084015260401c1661364581615ce9565b6080820152815201920192019190613555565b34610559575f366003190112610559576020604051612ee08152f35b34610559575f366003190112610559577f00000000000000000000000000000000000000000000000000000000000000006001600160a01b031630036136cb5760206040515f80516020618fb78339815191528152f35b63703e46dd60e11b5f5260045ffd5b34610559575f3660031901126105595760206040515f805160206190178339815191528152f35b604036600319011261055957613715615c6e565b602435906001600160401b03821161055957366023830112156105595781600401359061374182615dbc565b9161374f6040519384615d9b565b8083526020830193366024838301011161055957815f926024602093018737840101526001600160a01b037f0000000000000000000000000000000000000000000000000000000000000000163081149081156138e8575b506136cb576137b46167d1565b6040516352d1902d60e01b81526001600160a01b0382169390602081600481885afa5f91816138b4575b506137f65784634c9c8ce360e01b5f5260045260245ffd5b805f80516020618fb78339815191528692036138a25750823b15613890575f80516020618fb783398151915280546001600160a01b031916821790557fbc7cd75a20ee27fd9adebab32041f755214dbc6bffa90cc0225b39da2e5c2d3b5f80a2825115613877575f8091610018945190845af46138716170d5565b91618ef2565b5050503461388157005b63b398979f60e01b5f5260045ffd5b634c9c8ce360e01b5f5260045260245ffd5b632a87526960e21b5f5260045260245ffd5b9091506020813d6020116138e0575b816138d060209383615d9b565b81010312610559575190866137de565b3d91506138c3565b5f80516020618fb7833981519152546001600160a01b031614159050846137a7565b34610559575f3660031901126105595760206001600160401b0360015416604051908152f35b3461055957604036600319011261055957613949615c6e565b60243590613955616291565b61395d6161aa565b8115610947576040519161397083615d2f565b5f83525f602084015261398283616ccc565b6001600160a01b0383165f81815260176020526040902060028101549195919081158015613c30575b15613c04575050825b5f945f5b335f52601260205260405f2054811015613bf957335f5260126020526139e18160405f2061617d565b5080546001600160a01b0316891480613be2575b613a0257506001016139b8565b959650509091925f90335f52601460205260405f205f918154925b838110613b835750505050613a36906001860154615f17565b90828210613b78575050335f52601460205260405f2060ff60036001600160401b035f5416950154169360405194613a6d86615d80565b878652602086019485526040860192848452606087019283526080870191613a9481615ce9565b82528054600160401b81101561080e57613ab39160018201815561617d565b9390936107fb576001600160401b036003613b0995829361075d8d9a5f9c60018060a01b039060018060a01b03905116166001600160601b0360a01b855416178455600184019051610737815161073181615ce9565b6001600160401b03600194613b27855483808260801c1691166161e2565b9060405193845260208401521660408201527f06325d83435da87657b063c6142a5b91a66a7e811827d082d624287a9953c4ba60603392a45b156107e55760015f8051602061907783398151915255005b859161082d91617d12565b8a613b8e828561617d565b50546001600160a01b03161480613bc8575b613bad575b600101613a1d565b93613bc0600191600261087f888761617d565b949050613ba5565b5081613bdc6108ab60016108a4858861617d565b14613ba0565b5085613bf36108ab60028401616210565b146139f5565b505050505050613b60565b816108eb6001613c1693015487615f24565b5f1981019190821161090b57613c2b91615f37565b6139b4565b506001810154156139ab565b34610559575f36600319011261055957613c546161aa565b61251233617125565b34610559576020366003190112610559576001600160a01b03613c7e615c6e565b165f52600d602052602060405f2054604051908152f35b602036600319011261055957610546613cac615c6e565b613cb4616291565b613cbc6161aa565b613cc4617104565b34906162b8565b34610559575f366003190112610559576020604051613e808152f35b34610559575f36600319011261055957613cff6161aa565b5f805b335f52601260205260405f2054821015613f0857335f526012602052613d2b8260405f2061617d565b5060ff600382015416613d3d81615ce9565b613dd357613dc290600192670de0b6b3a7640000613d9285808060a01b03855416940154845f52601760205260405f2094335f52601860205260405f2090888060a01b03165f5260205260405f209454615f24565b0482548082115f14613dcb57613da89082615f17565b925b5f613dba878301958654906160fe565b9455556160fe565b915b0190613d02565b505f92613daa565b335f9081526013602090815260408083208684529091528120915490916001600160a01b03909116908190835b8154811015613ef257956001876001600160401b03613e20839a8661694a565b90549060031b1c16855f52601a60205260405f206001600160401b0382165f52602052670de0b6b3a7640000613eae60405f20335f52601b60205260405f208a5f5260205260405f206001600160401b0385165f5260205260405f2093335f52601d60205260405f208b5f526020526001600160401b0360405f2091165f5260205260405f20549054615f24565b049080548083115f14613ee657613eda613ec95f9285615f17565b9a5b6109c28785019c8d54906160fe565b99555501909650613e00565b505f613eda819a613ecb565b50505050613f02906001926160fe565b91613dc4565b80613f2a575b60209060015f8051602061907783398151915255604051908152f35b5f80808084335af1613f3a6170d5565b5015613f75576020906040518181527f106f923f993c2149d49b4255ff723acafa1f2d94393f561d3eda32ae348f7241833392a29050613f0e565b6312171d8360e31b5f5260045ffd5b3461055957602036600319011261055957600435613fa0616291565b335f52600a60205260405f2060ff600182015460201c16600381101561139e57611a0f57811561094757613fd9604051611a4181615d2f565b5f526002602052600160405f200154335f52600b60205261400060405f2054809354615f17565b8161400b8583615f17565b106140a8578361401b81856160fe565b6001600160401b03600181805f54166040519461403786615d2f565b855260208501908152335f52600b60205260405f20945185555116920191166001600160401b03198254161790557ff7e874d9fd42838b0f06a44c7bbe45417b991e6b000e8ca4c5c1f086084a9cd36140a36115d65f546001600160401b03808260801c1691166161e2565b0390a2005b836140b291615f17565b906322df051360e11b5f5260045260245260445ffd5b34610559575f366003190112610559576140e06167d1565b5f805160206190578339815191525460ff8116156141375760ff19165f80516020619057833981519152557f5db9ee0a495bf2e6ff9c91a7834c1ba4fdd244a5e8aa4e537bd38aeae4b073aa6020604051338152a1005b638dfc202b60e01b5f5260045ffd5b346105595760803660031901126105595761415f615c6e565b614167615cb0565b90614170615cc6565b5060643561271061418a61ffff60015460401c1683615f24565b04926141bb6141998584615f17565b9360018060a01b03811695865f52601960205261276e60405f209182546160fe565b835f52601760205260405f209060018201918254806142d3575b5050845f52601a6020526001600160401b0360405f2091165f5260205260405f20906001600160401b035f54166001600160401b036003840191166001600160401b031982541617905560018201548015928315614283575b505092602092915f80516020618fd7833981519152945415908161427b575b5061425d575b50604051908152a2005b845f526019835261427360405f209182546160fe565b905584614253565b90508661424d565b9392909491670de0b6b3a7640000830294838604670de0b6b3a7640000148415171561090b576142c66127d15f80516020618fd783398151915298602098615f37565b905591948193945061422e565b670de0b6b3a76400008602868104670de0b6b3a7640000148715171561090b57614300916127d191615f37565b905585806141d5565b3461055957604036600319011261055957614322615c84565b336001600160a01b0382160361433e5761001890600435617039565b63334bd91960e11b5f5260045ffd5b346105595760803660031901126105595760206113fa61436b615c6e565b614373615cb0565b9061437c6168af565b6064359160443591616d13565b346105595760a0366003190112610559576143a2615c6e565b60243590604435906084359261ffff8416809403610559577f9a4c59c56153245e23dcb8000e301b9a5e35b8e6693c5cdbf3b6a2aa0f8a37ea926040926143e7616840565b6001600160a01b0316946143fc861515615ede565b61ffff600561440f865161125e81615d2f565b86519061441b82615d65565b60018252602082018781528883018781526060840191606435835260808501935f855260a086019889525f5260026020526112c68b5f2095511515869060ff801983541691151516179055565b34610559575f36600319011261055957602061ffff60015460401c16604051908152f35b34610559576020366003190112610559576001600160a01b036144ad615c6e565b165f52601260205260405f208054906144c58261610b565b916144d36040519384615d9b565b8083526020830180925f5260205f205f915b838310614568578486604051918291602083019060208452518091526040830191905f5b818110614517575050500390f35b91935091602060a0600192606087518580851b038151168352848101518584015261454a60408201516040850190615cf3565b015161455581615ce9565b6080820152019401910191849392614509565b6004602060019260405161457b81615d14565b848060a01b038654168152848601548382015261459a60028701616210565b604082015260ff6003870154166145b081615ce9565b60608201528152019201920191906144e5565b34610559576020366003190112610559576001600160a01b036145e4615c6e565b165f526019602052602060405f2054604051908152f35b346105595760403660031901126105595761001860043561461a615c84565b90614627611bf582615ec0565b616c3b565b3461055957602036600319011261055957614645615c6e565b61464d615e9c565b50614656615e9c565b5060018060a01b03165f52600a60205260405f2060016040519161467983615d14565b805483520154906020810163ffffffff8316815260ff8360201c166040830191600382101561139e5763ffffffff9183526001600160401b03606085019560281c168552604051935184525116602083015251600381101561139e576080926001600160401b0391604084015251166060820152f35b5f36600319011261055957614702616291565b61470a6161aa565b61471f335f52600960205260405f2054151590565b61187057614732604051611a4181615d2f565b5f52600260205260405f2060ff8154161561185d57600101548034106148095761475b33617f86565b5060405161476881615d14565b348152602081015f8152604082015f815263ffffffff80600160608601955f8752335f52600a60205260405f2090518155019351161663ffffffff1983541617825551600381101561139e576147ca926117c86001600160401b039284616988565b6040513481527fbc11617e575d658c74e921c8df22f8e48566072fa78145a6cfe18420bf8d0c4e60203392a260015f8051602061907783398151915255005b6322df051360e11b5f526004523460245260445ffd5b3461055957602036600319011261055957614838615c9a565b335f52600c6020526148586001600160401b0360405f2092168092618692565b50337f4b9bbf2ebc79e9fb39a64920934b3f458a486552d3df95395aa750ece9e970935f80a3005b346105595760203660031901126105595760206148a06004356008617f71565b905460405160039290921b1c6001600160a01b03168152f35b346105595760203660031901126105595760206113fa600435615ec0565b34610559576040366003190112610559576004356148f3615cb0565b6148fb616291565b335f52601260205260405f2054821015612e6657335f5260126020526149248260405f2061617d565b5090600160ff60038401541661493981615ce9565b03612e5757335f52601360205260405f20835f5260205260405f20905f926001600160401b0383549216935b828110614c1557506001810154916001810180821161090b576149889084615f37565b9281614a8a575b5050335f52601d60205260405f2060018060a01b0382541660018060a01b03165f5260205260405f20845f526020528160405f205560018060a01b039054165f52601a60205260405f20835f52602052614a10600260405f2092600184016149f88282546160fe565b8091558181145f14614a645750925b019182546160fe565b90558054600160401b81101561080e57612d1e8184936001614a349401815561694a565b90556040519081527fa7b81e017abeb50ecf2c121cb0db7087dfc4b3cc85cd8d857f9a5f1e81f6484560203392a3005b614a7e614a8492614a788588015482615f24565b92615f17565b90615f37565b92614a07565b92614a9e614aa39282979695989498615f37565b615f17565b925f5b8354811015614c0857806001600160401b03614ac46001938761694a565b90549060031b1c16335f52601d60205260405f2090838060a01b038a541691848060a01b0383165f5260205260405f206001600160401b0382165f5260205260405f2054918289115f14614bfd57614b1c8380615f17565b90335f52601d60205260405f2090868060a01b03165f5260205260405f206001600160401b0383165f5260205260405f2055838060a01b038a54165f52601a6020526001600160401b0360405f2091165f5260205260405f208381019081549083821015614b8f575b5050505001614aa6565b614b9b84600293615f17565b809355019182549182151580614bf4575b15614bee57614a7e82614bc285614bc895615f24565b926160fe565b81811115614bdf5750505f905b5588808080614b85565b614be891615f17565b90614bd5565b50614bc8565b50801515614bac565b614b1c898094615f17565b509391925093858061498f565b846001600160401b03614c28838761694a565b90549060031b1c1614614c3d57600101614965565b8462d00d2f60e11b5f5260045260245ffd5b34610559575f366003190112610559575f546001600160401b03614c7481831661696b565b1680916001600160401b031916175f557f7cee7087baafdfa8f9d1bd39c560782e2eedf861e2648b232a805033537c56955f80a2005b34610559575f366003190112610559576020604051612af88152f35b3461055957602036600319011261055957614cdf615c6e565b5f906001600160a01b0316815b815f52601260205260405f20548310156109d057815f526012602052614d158360405f2061617d565b5060ff600382015416614d2781615ce9565b614db6576001916109c2614da392670de0b6b3a7640000614d81868060a01b0383541692835f52601760205260405f2093895f52601860205260405f2090898060a01b03165f526020528760405f20945491015490615f24565b048154908181115f14614dac578691614d9991615f17565b915b0154906160fe565b925b0191614cec565b5050845f91614d9b565b5f8381526013602090815260408083208784529091528120805492549395936001600160a01b03169081905b848410614df6575050505050600190614da5565b6001614ea581996109c26001600160401b03614e1789879d9a9b9c9d61694a565b90549060031b1c16865f52601a60205260405f206001600160401b0382165f52602052670de0b6b3a7640000614d8160405f208b5f52601b60205260405f208b5f5260205260405f206001600160401b0385165f5260205260405f20938c5f52601d60205260405f208c5f526020526001600160401b0360405f2091165f5260205260405f20549054615f24565b9501939695949750614de2565b3461055957604036600319011261055957614ecb615c6e565b614ed3615c84565b6001600160a01b039182169181165f805b845f52601260205260405f20548210156109d057845f526012602052614f0d8260405f2061617d565b5080546001600160a01b0316849003614ffc5760ff600382015416614f3181615ce9565b614f51576001916109c283614f4893015487617d12565b915b0190614ee4565b5090845f52601360205260405f20815f5260205260405f205f8154915b828210614f8057505050600190614f4a565b9193946001614fed8998939597829a5f52601d60205260405f20845f5260205260405f206001600160401b0380614fb78a8a61694a565b90549060031b1c16165f526020526109c260405f20546001600160401b03614fdf8a8a61694a565b90549060031b1c1687617f28565b94019196975094929391614f6e565b5090600190614f4a565b346105595760403660031901126105595761501f615c6e565b6001600160a01b0361502f615c84565b168061515e575060405161504281615d2f565b5f81525f6020820152905b6001600160a01b03165f9081526010602052604090209061506d90616ccc565b5f5260205260405f208054906150828261610b565b916150906040519384615d9b565b8083526020830180925f5260205f205f915b838310615115578486604051918291602083019060208452518091526040830191905f5b8181106150d4575050500390f35b91935091602060606001926001600160401b0360408851805184526150ff8682015187860190615cdc565b01511660408201520194019101918493926150c6565b6002602060019260405161512881615d4a565b855481526001600160401b038587015461514760ff821686850161693e565b60081c1660408201528152019201920191906150a2565b6040519061516b82615d2f565b6001825260208201529061504d565b3461055957604036600319011261055957615193615c6e565b61519b615cb0565b9060018060a01b03165f5260506020526001600160401b0360405f2091165f5260205260a060405f206001600160401b0381541690600181015490600281015460046003830154920154926040519485526020850152604084015260608301526080820152f35b346105595760203660031901126105595761521b615c6e565b6152236167d1565b601e80546001600160a01b0319166001600160a01b0392909216919091179055005b34610559576060366003190112610559576001600160401b03615266615c9a565b61526e615cb0565b90615277615cc6565b916152806167d1565b5f80546fffffffffffffffffffffffffffffffff1692851660801b9290921790841660c01b1790556001805467ffffffffffffffff191691909216179055005b34610559576020366003190112610559576152d9615c6e565b6152e1615e9c565b506152ea615e9c565b5060018060a01b03165f526017602052608060405f206001600160401b0360405161531481615d14565b825492838252600181015460208301908152606084600360028501549460408701958652015416930192835260405194855251602085015251604084015251166060820152f35b3461055957604036600319011261055957610546615377615c6e565b61537f616291565b6153876161aa565b602435906162b8565b346105595760203660031901126105595760043563ffffffff60e01b811680910361055957602090637965db0b60e01b81149081156153d5575b506040519015158152f35b6301ffc9a760e01b149050826153ca565b34610559575f366003190112610559576153fe6161aa565b5f335f52601460205260405f20905f5b825481101561054657615421818461617d565b50915f546001600160401b038061544481600388015416828560801c16906161e2565b16911610615c5e5761545b6108ab60018501616210565b9160018060a01b038454166154766002860191825490617d12565b945f5b335f5260126020528660405f2054821015615c4f5750335f5260126020526154a48160405f2061617d565b50805483546001600160a01b0390811691161480615c38575b6154ca5750600101615479565b94600386989298019760ff895416966154e288615ce9565b600188148015615c1757335f52601360205260405f20835f5260205260405f206040519081602082549182815201915f5260205f20905f915b816003840110615bc5579261555a9285949261556096935491818110615bab575b818110615b8e575b818110615b71575b10615b63575b500382615d9b565b99615ce9565b80615b59575b615a7b575b60018060a01b038554169860ff87549b54166127109061558d60018901616210565b9a5f9161559981615ce9565b615a545750506155a88b6181e7565b8a5f52601760205260405f209b335f52601860205260405f2060018060a01b038d165f5260205260405f209a5f9b5f5b335f52601260205260405f2054811015615653578e335f5260126020526156028260405f2061617d565b509060018060a01b03825416148061563b575b615623575b506001016155d8565b6001919e82615634920154906160fe565b9d9061561a565b5060ff60038201541661564d81615ce9565b15615615565b509c889e9d670de0b6b3a76400008a9b9d9f6156c8989a9d9f906156be919c9697989a9c80615a15575b5f986001830161568e828254615f17565b90556002830180548a81811115615a065750505f905b55808211156159fd576156b691615f17565b905b54615f24565b0490555b33618b3c565b6156d9600188549301928354615f17565b8255335f52600f60205260405f20905f52602052600160405f200161570881548086115f146159f65780615f17565b9055541561587f575b5061571b916160fe565b9360018060a01b03825416916001808060a01b0391015460081c1692549060405191825260208201527fe4183514c7483039538cd1f9ca20e489b3c411f3af1211cf6b5ad0a00ca4e22860403392a482545f19810190811161090b57615781908461617d565b5061578c828561617d565b9190916107fb578082036157d2575b505082548015610df7575f19016157b2818561617d565b6107fb576003815f8093558260018201558260028201550155835561540e565b805482546001600160a01b0319166001600160a01b03919091161782556158419160ff9060039081906001858101908201868303615848575b5050600285015460028201550192016001600160401b0380825416166001600160401b03198454161783555460401c169061626e565b838061579b565b816158598761587894541683616256565b548154610100600160a81b031916610100600160a81b03909116179055565b898061580b565b905060018060a01b038354165f52600a602052600160405f200163ffffffff815416801561090b57815463ffffffff19165f1991820163ffffffff1617909155335f908152601260205260409020805491820191821161090b576158f9916158e69161617d565b5091335f52601260205260405f2061617d565b6107fb57818103615988575b5050335f52601260205260405f209081548015610df7575f19019061592a828461617d565b9290926107fb5761571b935f600385828c975582600182015582600282015501555560018060a01b038454166159608133617428565b1561596d575b5091615711565b5f52600d6020526159813360405f20618692565b5088615966565b815481546001600160a01b0319166001600160a01b0391909116178155600180830154908201556159d79160039060ff90829060028082019086018287036159de575b50500154169101616256565b8680615905565b81615859866159ef94541683616256565b8c806159cb565b8590615f17565b50505f906156b8565b615a0f91615f17565b906156a4565b83615a21828454615f24565b0485548082115f14615a4c57615a3691615f17565b615a45600187019182546160fe565b905561567d565b50505f615a36565b9a8c615a76899f9d8a9b9d9f6156c8989a9d9f9b809697989a9c5f923361891c565b6156c2565b9893979491615a91839794929754895190615f37565b965f5b8951811015615b4a57600190335f52601d60205260405f20828060a01b038d541690838060a01b0382165f526020528b6001600160401b0380615adb8560405f2094616242565b5116165f5260205260405f20548b8181115f14615b3b5750505f905b335f52601d60205260405f2090848060a01b03165f526020528b6001600160401b0380615b288560405f2094616242565b5116165f5260205260405f205501615a94565b615b4491615f17565b90615af7565b5091939650919497939861556b565b5087511515615566565b60c01c81526020015f615552565b9260206001916001600160401b038560801c16815201930161554c565b9260206001916001600160401b038560401c168152019301615544565b9260206001916001600160401b038516815201930161553c565b929d9e9d6001608060049286546001600160401b03811682526001600160401b038160401c1660208301526001600160401b0381841c16604083015260c01c60608201520194019201919e9d9e61551b565b615560602060405190615c2a8183615d9b565b5f8252505f36813799615ce9565b5086615c496108ab60028401616210565b146154bd565b919395505061571b91936160fe565b9150615c6990616202565b61540e565b600435906001600160a01b038216820361055957565b602435906001600160a01b038216820361055957565b600435906001600160401b038216820361055957565b602435906001600160401b038216820361055957565b604435906001600160401b038216820361055957565b90600582101561139e5752565b6002111561139e57565b6020908051615d0181615ce9565b83528101516001600160a01b0316910152565b608081019081106001600160401b0382111761080e57604052565b604081019081106001600160401b0382111761080e57604052565b606081019081106001600160401b0382111761080e57604052565b60c081019081106001600160401b0382111761080e57604052565b60a081019081106001600160401b0382111761080e57604052565b90601f801991011681019081106001600160401b0382111761080e57604052565b6001600160401b03811161080e57601f01601f191660200190565b6060906003190112610559576004356001600160a01b038116810361055957906024356001600160a01b0381168103610559579060443590565b9060a0600319830112610559576004356001600160a01b038116810361055957916024356001600160a01b0381168103610559579160443591606435600281101561055957916084356001600160401b0381116105595782602382011215610559578060040135926001600160401b0384116105595760248460051b83010111610559576024019190565b60405190615ea982615d14565b5f6060838281528260208201528260408201520152565b5f525f80516020619037833981519152602052600160405f20015490565b15615ee557565b60405162461bcd60e51b815260206004820152600a602482015269557365206e617469766560b01b6044820152606490fd5b9190820391821161090b57565b8181029291811591840414171561090b57565b8115615f41570490565b634e487b7160e01b5f52601260045260245ffd5b929190925f9360018060a01b0382165f5260506020526001600160401b0360405f2091165f5260205260405f209060405192615f9084615d80565b6001600160401b038354168085526001840154602086015260028401549460408101958652608060046003870154966060840197885201549101521561601d5790615fda91617428565b9182156160155751905190818111615ff157505050565b670de0b6b3a7640000939450616011929161600b91615f17565b90615f24565b0490565b505f93505050565b505f9450505050565b6040519061603382615d2f565b5f6020838281520152565b9060405161604b81615d2f565b602060018294805484520154910152565b1561606357565b60405162461bcd60e51b815260206004820152600f60248201526e24b73b30b634b21030b230b83a32b960891b6044820152606490fd5b90816020910312610559575180151581036105595790565b156160b957565b60405162461bcd60e51b815260206004820152601d60248201527f4164617074657220646f65736e277420737570706f727420746f6b656e0000006044820152606490fd5b9190820180921161090b57565b6001600160401b03811161080e5760051b60200190565b929161612d8261610b565b9361613b6040519586615d9b565b602085848152019260051b810191821161055957915b81831061615d57505050565b82356001600160401b038116810361055957815260209283019201616151565b8054821015616196575f5260205f209060021b01905f90565b634e487b7160e01b5f52603260045260245ffd5b60025f8051602061907783398151915254146161d35760025f8051602061907783398151915255565b633ee5aeb560e01b5f5260045ffd5b906001600160401b03809116911601906001600160401b03821161090b57565b5f19811461090b5760010190565b9060405161621d81615d2f565b602081935460ff811661622f81615ce9565b835260081c6001600160a01b0316910152565b80518210156161965760209160051b010190565b9061626081615ce9565b60ff80198354169116179055565b9061627881615ce9565b60ff60401b82549160401b169060ff60401b1916179055565b60ff5f8051602061905783398151915254166162a957565b63d93c066560e01b5f5260045ffd5b604051916162c583615d2f565b5f83525f60208401526020916040516162de8482615d9b565b5f81525f36813782156109475780516167c2576001600160a01b0382165f908152600985526040902054156167a15760018060a01b0382165f52600a8452600160405f20019460ff8654861c16600381101561139e576167835761634181616ccc565b335f52600f865260405f20815f52865260405f209283549361636860018201548096615f17565b87811061676c575061637a8787618c7b565b948515610947578761638b916160fe565b60018201555f985f5b335f5260128a5260405f205481101561675d57335f5260128a526163bb8160405f2061617d565b5080546001600160a01b038a811691161480616746575b6163df5750600101616394565b905060019192939495969798999a50016163fa8782546160fe565b905560015b6165dc57335f526012895260405f2054335f5260128a5260405f2060405161642681615d14565b6001600160a01b038a1681528b8101898152604082018981529260608301905f82528054600160401b81101561080e576164659160018201815561617d565b9390936107fb576164f2948f6003946164e19360018060a01b039060018060a01b03905116166001600160601b0360a01b885416178755516001870155600286019151906164bd82516164b781615ce9565b84616256565b01518154610100600160a81b03191660089190911b610100600160a81b0316179055565b51916164ec83615ce9565b01616256565b335f908152601c8b5260408082206001600160a01b038b1683528c52808220928252918b5220805460ff19166001179055805463ffffffff9081169490851461090b57600161657b938a9363ffffffff8361658799011663ffffffff19825416179055818060a01b038a165f52600d8c526165703360405f2061803c565b505b01549033618cd6565b905f8786868933617d99565b60200151604051938452938301526001600160a01b0392909216915f60408301526001600160a01b03169033907f4fe2fde631e986ee26283901b9cc8d6d4a311b750f9fa0d659520deba2995f1f90606090a4565b509695949392915f5b335f526012885260405f205481101561673057335f526012885261660c8160405f2061617d565b5080546001600160a01b0388811691161480616719575b61663057506001016165e5565b60ff60036001929b9495969798999a9b01541661664c81615ce9565b14616664575b50866165879392600161657b93616572565b979491969295939097335f526013865260405f20905f52855260405f209586548015155f14616711576166979084615f37565b975b5f5b88548110156166fd57335f908152601d895260408082206001600160a01b038a1683528a529020600191906001600160401b03806166d9848e61694a565b90549060031b1c16165f52895260405f206166f58c82546160fe565b90550161669b565b509598939750939550909390929186616652565b505f97616699565b508261672a6108ab60028401616210565b14616623565b508561657b91600161658795969798999a616572565b50856167576108ab60028401616210565b146163d2565b509091929394959697986163ff565b87906312e1fa3760e11b5f5260045260245260445ffd5b6371ab6ad560e11b5f9081526001600160a01b038416600452602490fd5b5063bd62013360e01b5f9081526001600160a01b0391909116600452602490fd5b6310db86df60e21b5f5260045ffd5b335f9081527fb16e88c42fd4e48df2dd6a2eabd6bc9aec654ec170056b470819f8892cc6431c602052604090205460ff161561680957565b63e2517d3f60e01b5f52336004527fa49807205ce4d355092ef5a8a18f56e8913cf4a201fbe287825b095693c2177560245260445ffd5b335f9081527f5bc841a6d925a620866922bada36d16da3dcc9d52290519ea1126e5ca2372139602052604090205460ff161561687857565b63e2517d3f60e01b5f52336004527fb1fadd3142ab2ad7f1337ea4d97112bcc8337fc11ce5b20cb04ad038adf9981960245260445ffd5b335f9081525f80516020618ff7833981519152602052604090205460ff16156168d457565b63e2517d3f60e01b5f52336004525f8051602061901783398151915260245260445ffd5b5f8181525f805160206190378339815191526020908152604080832033845290915290205460ff16156169285750565b63e2517d3f60e01b5f523360045260245260445ffd5b600582101561139e5752565b9190918054831015616196575f52601860205f208360021c019260031b1690565b6001600160401b03166001600160401b03811461090b5760010190565b90600381101561139e5764ff0000000082549160201b169064ff000000001916179055565b6001600160a01b0381165f9081525f80516020618ff7833981519152602052604090205460ff16616a2d576001600160a01b03165f8181525f80516020618ff783398151915260205260408120805460ff191660011790553391905f80516020619017833981519152905f80516020618f978339815191529080a4600190565b505f90565b6001600160a01b0381165f9081527fb7db2dd08fcb62d0c9e08c51941cae53c267786a0b75803fb7960902fc8ef97d602052604090205460ff16616a2d576001600160a01b03165f8181527fb7db2dd08fcb62d0c9e08c51941cae53c267786a0b75803fb7960902fc8ef97d60205260408120805460ff191660011790553391905f80516020618f978339815191528180a4600190565b6001600160a01b0381165f9081527fb16e88c42fd4e48df2dd6a2eabd6bc9aec654ec170056b470819f8892cc6431c602052604090205460ff16616a2d576001600160a01b03165f8181527fb16e88c42fd4e48df2dd6a2eabd6bc9aec654ec170056b470819f8892cc6431c60205260408120805460ff191660011790553391907fa49807205ce4d355092ef5a8a18f56e8913cf4a201fbe287825b095693c21775905f80516020618f978339815191529080a4600190565b6001600160a01b0381165f9081527f5bc841a6d925a620866922bada36d16da3dcc9d52290519ea1126e5ca2372139602052604090205460ff16616a2d576001600160a01b03165f8181527f5bc841a6d925a620866922bada36d16da3dcc9d52290519ea1126e5ca237213960205260408120805460ff191660011790553391907fb1fadd3142ab2ad7f1337ea4d97112bcc8337fc11ce5b20cb04ad038adf99819905f80516020618f978339815191529080a4600190565b5f8181525f80516020619037833981519152602090815260408083206001600160a01b038616845290915290205460ff16616cc6575f8181525f80516020619037833981519152602090815260408083206001600160a01b0395909516808452949091528120805460ff19166001179055339291905f80516020618f978339815191529080a4600190565b50505f90565b805190616cd882615ce9565b602060018060a01b0391015116604051906020820192616cf781615ce9565b8352604082015260408152616d0d606082615d9b565b51902090565b6001600160a01b0381165f818152600a60209081526040808320600990925290912054929695949193909215616f9557616d4c87618089565b616f8257835f52601760205260405f20918092616d6f60028654920154826160fe565b918215616f7557908287939211616f6b575b90616d8f616d949286615f24565b615f37565b93616dbb616db5616da48b61810c565b96616daf818d61816b565b96615f17565b8a6181a4565b92616dcf616dc985876160fe565b9a61810c565b948592616de1604051611a4181615d2f565b5f526002602052600160405f200154815410616f4f575b50835f52605160205260405f209889546001600160401b031699616e1b8b61696b565b6001600160401b03166001600160401b03198254161790555f546001600160401b03169060405191616e4c83615d80565b8252602082018d8152604083018a8152606084019187835260808501938452885f5260506020528d60405f20906001600160401b03165f5260205260405f2094516001600160401b03166001600160401b03166001600160401b0319865416178555516001850155516002840155516003830155519060040155604051926001600160401b0384931695616ef192846040919493926060820195825260208201520152565b037f91754b254153861c1e9bc9186484a0bb770823acfa00423044ba1759a01210e791a36040805187815260208101939093528201527f1508fbe22c9805770740c8f3827567950022729e0096e311dc087990c157fffc90606090a3565b600101805464ff0000000019166401000000001790555f616df8565b9093508390616d81565b505f985050505050505050565b8363b516260d60e01b5f5260045260245ffd5b8363bd62013360e01b5f5260045260245ffd5b6001600160a01b0381165f9081525f80516020618ff7833981519152602052604090205460ff1615616a2d576001600160a01b03165f8181525f80516020618ff783398151915260205260408120805460ff191690553391905f80516020619017833981519152907ff6391f5c32d9c69d2a47ea670b442974b53935d1edc7fd64eb21e047a839171b9080a4600190565b5f8181525f80516020619037833981519152602090815260408083206001600160a01b038616845290915290205460ff1615616cc6575f8181525f80516020619037833981519152602090815260408083206001600160a01b0395909516808452949091528120805460ff19169055339291907ff6391f5c32d9c69d2a47ea670b442974b53935d1edc7fd64eb21e047a839171b9080a4600190565b3d156170ff573d906170e682615dbc565b916170f46040519384615d9b565b82523d5f602084013e565b606090565b61712360405161711381615d2f565b5f81525f60208201523490618236565b565b6001600160a01b03169081156171aa57335f52601960205260405f205491821561719b575f808085819433835260196020528260408120555af16171676170d5565b5015613f75576040518281527f106f923f993c2149d49b4255ff723acafa1f2d94393f561d3eda32ae348f724160203392a2565b6373380d9960e01b5f5260045ffd5b63d92e233d60e01b5f5260045ffd5b94939260018060a01b03861692835f52600a60205260405f20916171e8855f52600960205260405f2054151590565b1561741557845f52601760205260405f2090855f52601a60205260405f206001600160401b0386165f5260205260405f209161723260028087549301549401546108eb85846160fe565b908115617407578793617297617290617280868f9b9a979661729e9681616d8f9c99116173fd575b8161726f614a9e93616d8f6172789487615f24565b9c8d9885615f24565b9a8b92615f17565b9261728a8b61810c565b9a61816b565b968d6181a4565b968c618743565b946172b66172b0876108eb84896160fe565b9b61810c565b9586936172c8604051611a4181615d2f565b5f526002602052600160405f2001548154106173e1575b50845f5260516020528b60405f209a8b546001600160401b03169b6173038d61696b565b6001600160401b03166001600160401b03198254161790558b5f546001600160401b0316926040519361733585615d80565b84526020840190815260408401908c82526060850192898452608086019485528a5f52605060205260405f20906001600160401b03165f5260205260405f2094516001600160401b03166001600160401b03166001600160401b03198654161785555160018501555160028401555160038301555190600401556173b8916160fe565b6040805195865260208601919091528401919091526001600160401b0316918060608101616ef1565b600101805464ff0000000019166401000000001790555f6172df565b909150819061725a565b505f99505050505050505050565b8463bd62013360e01b5f5260045260245ffd5b90915f925f5b6001600160a01b0384165f818152601260205260409020548210156174a457805f5260126020526174628260405f2061617d565b50546001600160a01b03848116911614617480575b5060010161742e565b6001919561749d915f5260126020528261087f8860405f2061617d565b9490617477565b5050509050565b6001600160a01b03811690811561185d57617123926174c99161879c565b90604051906174d782615d2f565b600182526020820152618236565b156174ec57565b60405162461bcd60e51b815260206004820152600f60248201526e151c985b9cd9995c8819985a5b1959608a1b6044820152606490fd5b335f52600b60205260405f209081549182156175de575f546001600160401b03806001818416940154169160801c16906001600160401b0361756583836161e2565b168310611d085750505081335f52600a60205260405f20617587828254615f17565b9055335f52600b6020525f60016040822082815501556175b05f80808085335af1611cca6170d5565b6040519081527fda2b51341079f3dd8e6763a50f329bbc3dc6ca6a51b920fe99fbf89a54ec0e2760203392a2565b505f9150565b60405163a9059cbb60e01b60208201526001600160a01b0392909216602483015260448083019390935291815261712391617620606483615d9b565b618880565b8054821015616196575f52600360205f20910201905f90565b92939291906001600160a01b031680617cf6575060405161765e81615d2f565b5f81525f6020820152935b81156109475761767881615ce9565b8015948515617ce15784516167c2575b6001600160a01b0384165f818152600960205260409020549094901561741557845f52600a602052600160405f20019060ff825460201c16600381101561139e57617cce576176d683616ccc565b96335f52600f60205260405f20885f5260205260405f2097600189549901936177018554809b615f17565b888110617cb757506177138885618c7b565b998a156109475788617724916160fe565b85555f9a5f5b335f52601260205260405f2054811015617ca657335f5260126020526177538160405f2061617d565b5080546001600160a01b03168c1480617c8f575b617774575060010161772a565b905060019192939495969798999a9b9c50016177918c82546160fe565b905560015b617b1f57335f9081526012602052604090819020805491519192916177ba81615d14565b8c8152602081018e8152604082018b81529260608301906177da8e615ce9565b8d82528054600160401b81101561080e576177fa9160018201815561617d565b9390936107fb575183546001600160a01b0319166001600160a01b039190911617835590516001830155915180516178479360039290916164e19160028601916107379061073181615ce9565b61785089615ce9565b1561792e57335f52601c60205260405f208a5f5260205260405f20905f5260205260405f20600160ff198254161790555b63ffffffff8154169163ffffffff831461090b57866178d88a8d936178df998e839763ffffffff8f9a6001011663ffffffff198254161790555f52600d6020526178ce3360405f2061803c565b505b549033618cd6565b9533617d99565b602060018060a01b039101511693604051928352602083015261790181615ce9565b60408201527f4fe2fde631e986ee26283901b9cc8d6d4a311b750f9fa0d659520deba2995f1f60603392a4565b9995929794919896939099335f52601360205260405f20905f5260205260405f2088516001600160401b03811161080e57600160401b811161080e578154818355808210617ac5575b5060208a01915f5260205f208160021c915f5b838110617a8057506003198116900380617a28575b505089519150508015617a20576179b69087615f37565b985b5f5b8951811015617a0f57600190335f52601d60205260405f208a5f526020528a6001600160401b03806179f08460405f2094616242565b5116165f5260205260405f20617a078d82546160fe565b9055016179ba565b509194979295999093969850617881565b505f986179b8565b925f935f5b818110617a425750505001555f80808061799f565b9091946020617a766001926001600160401b03895116908560031b6001600160401b03809160031b9316831b921b19161790565b9601929101617a2d565b5f805b60048110617a9857508382015560010161798a565b86519096916001916020916001600160401b0360068b901b81811b199092169216901b1792019601617a83565b825f5260205f20600380840160021c8201920160021c019060188360031b1680617b04575b505b818110617af95750617977565b5f8155600101617aec565b5f198201908154905f199060200360031b1c1690555f617aea565b50505f989796959493985b335f52601260205260405f2054811015617c7757335f526012602052617b538160405f2061617d565b5080546001600160a01b0316891480617c60575b617b745750600101617b2a565b60ff60036001929c9495969798999a9b9c015416617b9181615ce9565b14617bac575b508689866178d8836178df9897968b966178d0565b98949197959296939098335f52601360205260405f20905f5260205260405f209687548015155f14617c5857617be29087615f37565b985b5f5b8954811015617c4157600190335f52601d60205260405f208a5f526020528a6001600160401b0380617c1c8460405f209461694a565b90549060031b1c16165f5260205260405f20617c398d82546160fe565b905501617be6565b509599969850939650919490939192919086617b97565b505f98617be4565b5082617c716108ab60028401616210565b14617b67565b50938588856178d8836178df9899869b9c9d9e6178d0565b5084617ca06108ab60028401616210565b14617767565b50909192939495969798999a617796565b88906312e1fa3760e11b5f5260045260245260445ffd5b856371ab6ad560e11b5f5260045260245ffd5b845161768857631db6d08b60e11b5f5260045ffd5b60405190617d0382615d2f565b60018252602082015293617669565b6001600160a01b03165f9081526017602052604090206001810154908115617d4957617d46926002616d8f92015490615f24565b90565b5050505f90565b600581101561139e5760018114617d925760028114617d8b5760038114617d8457600414617d7e5761271090565b613e8090565b506132c890565b50612ee090565b50612af890565b9391959094969296617daa81615ce9565b617f0a5750617db8846181e7565b60018060a01b03841694855f52601760205260405f209460018060a01b03851694855f52601860205260405f20885f5260205260405f205f975f5b885f52601260205260405f2054811015617e6e57885f526012602052617e1c8160405f2061617d565b5080546001600160a01b03168c1480617e56575b617e3e575b50600101617df3565b6001919a82617e4f920154906160fe565b9990617e35565b5060ff600382015416617e6881615ce9565b15617e30565b50670de0b6b3a76400009294969950617ec491939597506156b68b617e986171239d60019c615f17565b80617ecc575b8b8401617eac8382546160fe565b905560028401617ebd8c82546160fe565b90556160fe565b049055618b3c565b85617ed8828654615f24565b0487548082115f14617f0257617eed91615f17565b617efb8d89019182546160fe565b9055617e9e565b50505f617eed565b92617f238294600187946171239a8299869b989b61891c565b618b3c565b60018060a01b03165f52601a6020526001600160401b0360405f2091165f5260205260405f206001810154908115617f6c57617d46926002616d8f92015490615f24565b505090565b8054821015616196575f5260205f2001905f90565b805f52600960205260405f2054155f14616a2d57600854600160401b81101561080e57617fd5617fbf8260018594016008556008617f71565b819391549060031b91821b915f19901b19161790565b9055600854905f52600960205260405f2055600190565b805f52600460205260405f2054155f14616a2d57600354600160401b81101561080e57618025617fbf8260018594016003556003617f71565b9055600354905f52600460205260405f2055600190565b5f828152600182016020526040902054616cc657805490600160401b82101561080e5782618074617fbf846001809601855584617f71565b90558054925f520160205260405f2055600190565b6001600160a01b03165f818152600c60205260409020805491908215617d49575f5b8381106180ba57505050505f90565b6001600160401b036180cc8284617f71565b90549060031b1c16835f52601a6020526001600160401b0360405f2091165f52602052600260405f200154618103576001016180ab565b50505050600190565b6001600160a01b03165f908152601760205260409020600181015490811561815d576002015490670de0b6b3a7640000820291808304670de0b6b3a7640000149015171561090b57617d4691615f37565b5050670de0b6b3a764000090565b6001600160a01b03165f908152600a60205260409020805482811061819b5750618196828254615f17565b905590565b5f919392509255565b6001600160a01b03165f9081526017602052604090206002018054801580156181df575b617d495782811061819b5750618196828254615f17565b5082156181c8565b60018060a01b03165f52601760205260405f206001600160401b036003815f5416920191166001600160401b0319825416179055565b8054821015616196575f5260205f209060011b01905f90565b81156109475761824581616ccc565b805f52600260205260405f2060ff8154161561833c576002810154808510618325575060038101548015158061830f575b6182f057506004016182898482546160fe565b9055335f52600f60205260405f20905f5260205260405f206182ac8382546160fe565b9055602001516040519182526001600160a01b0316905f60208201527f754fff2205ca9f1a08ae1f38f487839ba7e18895f0238908ea8b8842d7424fbb60403392a3565b60048592015490634b98504560e01b5f5260045260245260445260645ffd5b508061831f8660048501546160fe565b11618276565b8490631e2be21160e01b5f5260045260245260445ffd5b602083015163f6f24b8360e01b5f9081526001600160a01b03909116600452602490fd5b81156109475761836f81616ccc565b90815f52600260205260405f2060ff815416156185185760028101548085106183255750600381015480151580618502575b6182f057506004016183b48482546160fe565b9055335f52600f60205260405f20825f5260205260405f206183d78482546160fe565b9055600584101561139e5783618434575b6020908101516040519384526001600160a01b03169361840c925090830190615cdc565b7f754fff2205ca9f1a08ae1f38f487839ba7e18895f0238908ea8b8842d7424fbb60403392a3565b61843d84618e1a565b61844684618ea7565b91335f52601060205260405f20905f5260205261847060405f20926001600160401b0343166161e2565b9160405161847d81615d4a565b848152602081019161848f878461693e565b6001600160401b0360408301951685528054600160401b81101561080e576184bc9160018201815561821d565b6107fb57600191518155019051600581101561139e5761840c9360ff68ffffffffffffffff008454925160081b1692169068ffffffffffffffffff1916171790556183e8565b50806185128660048501546160fe565b116183a1565b506020015163f6f24b8360e01b5f9081526001600160a01b03909116600452602490fd5b5f818152600460205260409020548015616cc6575f19810181811161090b576003545f1981019190821161090b578181036185af575b5050506003548015610df7575f190161858c816003617f71565b8154905f199060031b1b191690556003555f5260046020525f6040812055600190565b6185d16185c0617fbf936003617f71565b90549060031b1c9283926003617f71565b90555f52600460205260405f20555f8080618572565b5f818152600960205260409020548015616cc6575f19810181811161090b576008545f1981019190821161090b5781810361865a575b5050506008548015610df7575f1901618637816008617f71565b8154905f199060031b1b191690556008555f5260096020525f6040812055600190565b61867c61866b617fbf936008617f71565b90549060031b1c9283926008617f71565b90555f52600960205260405f20555f808061861d565b906001820191815f528260205260405f20548015155f1461873b575f19810181811161090b5782545f1981019190821161090b57818103618706575b50505080548015610df7575f1901906186e78282617f71565b8154905f199060031b1b19169055555f526020525f6040812055600190565b618726618716617fbf9386617f71565b90549060031b1c92839286617f71565b90555f528360205260405f20555f80806186ce565b505050505f90565b60018060a01b03165f52601a6020526001600160401b0360405f2091165f52602052600260405f20018054801580156181df57617d495782811061819b5750618196828254615f17565b90816020910312610559575190565b6001600160a01b039081165f8181526006602052604090205490911690811561882957506040516311f9fbc960e21b81523360048201526024810192909252602090829060449082905f905af1908115610c98575f916187fa575090565b90506020813d602011618821575b8161881560209383615d9b565b81010312610559575190565b3d9150618808565b905060ff600754166188435781617d4691309033906188d8565b63f6f24b8360e01b5f5260045260245ffd5b60ff5f805160206190978339815191525460401c161561887157565b631afcd79f60e31b5f5260045ffd5b905f602091828151910182855af115610c98575f513d6188cf57506001600160a01b0381163b155b6188af5750565b635274afe760e01b5f9081526001600160a01b0391909116600452602490fd5b600114156188a8565b6040516323b872dd60e01b60208201526001600160a01b03928316602482015292909116604483015260648083019390935291815261712391617620608483615d9b565b9594909392918151908115618b32576189419161893891615f37565b92825190615f37565b905f5b8151811015618b3257806001600160401b0361896260019385616242565b5116828060a01b0388165f52601a60205260405f206001600160401b0382165f52602052670de0b6b3a7640000618a6f60405f20858060a01b038d1693845f52601b60205260405f20878060a01b038d165f5260205260405f206001600160401b0382165f5260205260405f20946001600160401b035f54166001600160401b036003850191166001600160401b03198254161790555f52601d60205260405f20878060a01b038d165f526020526001600160401b0360405f2091165f52602052898960405f205491618b23575b5080618ae5575b8a15618a9957868201618a4b8b82546160fe565b905560028201618a5c8a82546160fe565b90555b898b15618a78576156b6916160fe565b04905501618944565b508980821115618a9157618a8b91615f17565b906156b8565b50505f618a8b565b81870180548b81811115618ad65750505f905b556002820180548a81811115618ac75750505f905b55618a5f565b618ad091615f17565b90618ac1565b618adf91615f17565b90618aac565b83618af1828454615f24565b0485548082115f14618b1b57618b0691615f17565b618b148887019182546160fe565b9055618a37565b50505f618b06565b618b2c91615f17565b89618a30565b5050505050509050565b601e545f96929491939192916001600160a01b03909116908115618c71578051618b6581615ce9565b618b6e81615ce9565b618c5e57505f955b15618bfe5750601e546001600160a01b031691823b15618bfa576040516316f60ec560e11b81526001600160a01b0394851660048201529484166024860152949092166044840152606483019390935261ffff166084820152908290829060a490829084905af1618be5575050565b618bf0828092615d9b565b618bf75750565b80fd5b8680fd5b929194955050813b156105595760405162f74bbf60e71b81526001600160a01b039182166004820152928116602484015290931660448201526064810191909152905f908290608490829084905af1618c545750565b5f61712391615d9b565b602001516001600160a01b031695618b76565b5050505050505050565b6001600160a01b03165f908152601760205260409020600181015480158015618cca575b617f6c57618cb2600291618cbb94615f24565b91015490615f37565b908115618cc457565b60019150565b50600282015415618c9f565b9290918115618d8f575f925f9460018060a01b03165f52601060205260405f20905f5260205260405f205f908054915b828110618db5575050508215618d8f5781808210618dad57618d2791615f17565b82811015618da6575b80831115618d9f57618d429083615f17565b80821015618d99575080925b8315618d8f5761ffff936109c2618d6b618d8b95616d8f94615f37565b91618d8687618d7d6127109584615f24565b94169186615f17565b615f24565b1690565b5050505061271090565b92618d4e565b505f618d42565b5081618d30565b50505f618d27565b618dbf818361821d565b506001810154436001600160401b038260081c1611618de3575b5050600101618d06565b976109c2618e12929861ffff618e0a618e0160ff6001989e16617d50565b9b5480936160fe565b9a1690618f50565b96905f618dd9565b906005821015908161139e5782158015618e9a575b828115618e8a575b8115618e7a575b8115618e6a575b50618e65575061139e5760ff9063aae758a160e01b5f521660045260245ffd5b915050565b905061139e576004831482618e45565b905061139e576003831482618e3e565b905061139e576002831482618e37565b505f915060018314618e2f565b600581101561139e5760018114618eea5760028114618ee25760038114618eda57600414618ed3575f90565b6213c68090565b506209e34090565b506206978090565b5062034bc090565b90618f165750805115618f0757805190602001fd5b63d6bda27560e01b5f5260045ffd5b81511580618f47575b618f27575090565b639996b31560e01b5f9081526001600160a01b0391909116600452602490fd5b50803b15618f1f565b81810291905f5f19838309848082109103818114618f8e570360011115618f7c57509060019109900390565b634e487b71905260116020526024601cfd5b50505050509056fe2f8788117e7eff1d82e926ec794901d17c78024a50270940304540a733656f0d360894a13ba1a3210667c828492db98dca3e2076cc3735a920a3ca505d382bbce34918ff1c7084970068b53fd71ad6d8b04e9f15d3886cbf006443e6cdc52ea669892194d2f1eb4d48bd09f166bfce1754a681e8e17011b3e12b710cce56a87b12b42e8a160f6064dc959c6f251e3af0750ad213dbecf573b4710d67d6c28e3902dd7bc7dec4dceedda775e58dd541e08a116c6c53815c0bd028192f7b626800cd5ed15c6e187e77e9aee88184c21f4f2182ab5827cb3b7e07fbedcd63f033009b779b17422d0df92223018b32b4d1fa46e071723d6817e2486d003becc55f00f0c57e16840df040f15088dc2f81fe391c3923bec73e23a9662efc9c229c6a00a164736f6c634300081a000a","linkReferences":{}},"methodIdentifiers":{"ADMIN_ROLE()":"75b238fc","ASSET_MANAGER_ROLE()":"a4b32de8","BPS_DENOMINATOR()":"e1a45218","DEFAULT_ADMIN_ROLE()":"a217fddf","LOCK_ONE_MONTH()":"9e870585","LOCK_SIX_MONTHS()":"f3c9b311","LOCK_THREE_MONTHS()":"d27a6f06","LOCK_TWO_MONTHS()":"7df92ada","MULTIPLIER_NONE()":"4962f88f","MULTIPLIER_ONE_MONTH()":"18056dc2","MULTIPLIER_SIX_MONTHS()":"453eccea","MULTIPLIER_THREE_MONTHS()":"a7fa6f98","MULTIPLIER_TWO_MONTHS()":"54de2320","PRECISION()":"aaf5eb68","SLASHER_ROLE()":"5095af64","UPGRADE_INTERFACE_VERSION()":"ad3cb1cc","addBlueprint(uint64)":"c7353025","addBlueprintToDelegation(uint256,uint64)":"23cc2700","addSlasher(address)":"68a9f19c","advanceRound()":"1ba9998b","claimDelegatorRewards()":"44d1480b","claimOperatorRewards()":"4c4ede2d","claimOperatorRewardsTo(address)":"7d6941c6","completeLeaving()":"d1736ba7","currentRound()":"8a19c8bc","delegate(address,uint256)":"026e402b","delegateWithOptions(address,address,uint256,uint8,uint64[])":"fd7d3dbc","delegationBondLessDelay()":"ba05bbf5","deposit()":"d0e30db0","depositAndDelegate(address)":"461cc23b","depositAndDelegateWithOptions(address,address,uint256,uint8,uint64[])":"fbec4861","depositERC20(address,uint256)":"97feb926","depositERC20WithLock(address,uint256,uint8)":"cb15038b","depositWithLock(uint8)":"f38c7c4e","disableAsset(address)":"70807528","enableAsset(address,uint256,uint256,uint256,uint16)":"354ebef9","enableAssetWithAdapter(address,address,uint256,uint256,uint256,uint16)":"f0b52bb4","executeDelegatorUnstake()":"007910d0","executeOperatorUnstake()":"b0dfce06","executeWithdraw()":"f8fd9795","getAssetAdapter(address)":"8a7fe60f","getAssetConfig(address)":"6ec3ab67","getDelegation(address,address)":"15049a5a","getDelegationBlueprints(address,uint256)":"7b9996c5","getDelegations(address)":"31cc13ba","getDeposit(address,address)":"c35082a9","getLocks(address,address)":"0c8833ce","getOperatorBlueprints(address)":"dc972ccc","getOperatorDelegatedStake(address)":"8c5b4ae7","getOperatorDelegatorCount(address)":"486398c3","getOperatorDelegators(address)":"a299e298","getOperatorMetadata(address)":"2ee663b8","getOperatorRewardPool(address)":"03587c1d","getOperatorSelfStake(address)":"d673e0b9","getOperatorStake(address)":"e4e88de8","getPendingDelegatorRewards(address)":"168f6865","getPendingOperatorRewards(address)":"30224fc8","getPendingUnstakes(address)":"5722d512","getPendingWithdrawals(address)":"f340c0d0","getRoleAdmin(bytes32)":"248a9ca3","getSlashCount(address)":"66c36875","getSlashImpact(address,uint64,address)":"9494f426","getSlashRecord(address,uint64)":"a457af3d","getSnapshot(uint64,address)":"c07449e2","getTotalDelegation(address)":"fc5e7e09","grantRole(bytes32,address)":"2f2ff15d","hasRole(bytes32,address)":"91d14854","increaseStake()":"d9e257ef","initialize(address,uint256,uint256,uint16)":"cbb6d6bd","isOperator(address)":"6d70f7ae","isOperatorActive(address)":"eb473533","isSlasher(address)":"57601c5d","leaveDelegatorsDelay()":"db8a173a","leaveOperatorsDelay()":"4de8addc","meetsStakeRequirement(address,uint256)":"f46913bb","minOperatorStake()":"d775cb61","nativeEnabled()":"77ab2cf3","nextSlashId(address)":"96085673","notifyReward(address,uint64,uint256)":"a3b9c5c2","notifyRewardForBlueprint(address,uint64,uint64,uint256)":"3dcad9db","operatorAt(uint256)":"26142335","operatorCommissionBps()":"32273f61","operatorCount()":"7c6f3158","pause()":"8456cb59","paused()":"5c975abb","proxiableUUID()":"52d1902d","registerAdapter(address,address)":"d655b92a","registerOperator()":"2acde098","registerOperatorWithAsset(address,uint256)":"e0a5825b","removeAdapter(address)":"585cd34b","removeBlueprint(uint64)":"28e70ecc","removeBlueprintFromDelegation(uint256,uint64)":"859caa18","removeSlasher(address)":"aac6aa9c","renounceRole(bytes32,address)":"36568abe","requireAdapters()":"b54b2b9e","rescueTokens(address,address,uint256)":"cea9d26f","revokeRole(bytes32,address)":"d547741f","rewardsManager()":"defe2053","roundDuration()":"f7cb789a","scheduleDelegatorUnstake(address,address,uint256)":"fc8a91af","scheduleOperatorUnstake(uint256)":"44aff252","scheduleWithdraw(address,uint256)":"e1ee4bcc","setDelays(uint64,uint64,uint64)":"03780211","setOperatorCommission(uint16)":"f3c4d8a0","setRequireAdapters(bool)":"7b76fe5e","setRewardsManager(address)":"0a8ddc5e","slash(address,uint64,uint256,bytes32)":"356924ea","slashForBlueprint(address,uint64,uint64,uint256,bytes32)":"8d795d50","slashHistory(address,uint64)":"0aa8b110","snapshotOperator(address)":"cadd550c","startLeaving()":"87703550","supportsInterface(bytes4)":"01ffc9a7","undelegate(address,uint256)":"4d99dd16","unpause()":"3f4ba83a","upgradeToAndCall(address,bytes)":"4f1ef286"},"id":180}