{"abi":[{"type":"constructor","inputs":[],"stateMutability":"nonpayable"},{"type":"fallback","stateMutability":"payable"},{"type":"receive","stateMutability":"payable"},{"type":"function","name":"ADMIN_ROLE","inputs":[],"outputs":[{"name":"","type":"bytes32","internalType":"bytes32"}],"stateMutability":"view"},{"type":"function","name":"ASSET_MANAGER_ROLE","inputs":[],"outputs":[{"name":"","type":"bytes32","internalType":"bytes32"}],"stateMutability":"view"},{"type":"function","name":"BPS_DENOMINATOR","inputs":[],"outputs":[{"name":"","type":"uint256","internalType":"uint256"}],"stateMutability":"view"},{"type":"function","name":"COMMISSION_CHANGE_DELAY","inputs":[],"outputs":[{"name":"","type":"uint64","internalType":"uint64"}],"stateMutability":"view"},{"type":"function","name":"DEFAULT_ADMIN_ROLE","inputs":[],"outputs":[{"name":"","type":"bytes32","internalType":"bytes32"}],"stateMutability":"view"},{"type":"function","name":"LOCK_ONE_MONTH","inputs":[],"outputs":[{"name":"","type":"uint64","internalType":"uint64"}],"stateMutability":"view"},{"type":"function","name":"LOCK_SIX_MONTHS","inputs":[],"outputs":[{"name":"","type":"uint64","internalType":"uint64"}],"stateMutability":"view"},{"type":"function","name":"LOCK_THREE_MONTHS","inputs":[],"outputs":[{"name":"","type":"uint64","internalType":"uint64"}],"stateMutability":"view"},{"type":"function","name":"LOCK_TWO_MONTHS","inputs":[],"outputs":[{"name":"","type":"uint64","internalType":"uint64"}],"stateMutability":"view"},{"type":"function","name":"MIN_LOCK_AMOUNT","inputs":[],"outputs":[{"name":"","type":"uint256","internalType":"uint256"}],"stateMutability":"view"},{"type":"function","name":"MULTIPLIER_NONE","inputs":[],"outputs":[{"name":"","type":"uint16","internalType":"uint16"}],"stateMutability":"view"},{"type":"function","name":"MULTIPLIER_ONE_MONTH","inputs":[],"outputs":[{"name":"","type":"uint16","internalType":"uint16"}],"stateMutability":"view"},{"type":"function","name":"MULTIPLIER_SIX_MONTHS","inputs":[],"outputs":[{"name":"","type":"uint16","internalType":"uint16"}],"stateMutability":"view"},{"type":"function","name":"MULTIPLIER_THREE_MONTHS","inputs":[],"outputs":[{"name":"","type":"uint16","internalType":"uint16"}],"stateMutability":"view"},{"type":"function","name":"MULTIPLIER_TWO_MONTHS","inputs":[],"outputs":[{"name":"","type":"uint16","internalType":"uint16"}],"stateMutability":"view"},{"type":"function","name":"PRECISION","inputs":[],"outputs":[{"name":"","type":"uint256","internalType":"uint256"}],"stateMutability":"view"},{"type":"function","name":"SLASHER_ROLE","inputs":[],"outputs":[{"name":"","type":"bytes32","internalType":"bytes32"}],"stateMutability":"view"},{"type":"function","name":"TANGLE_ROLE","inputs":[],"outputs":[{"name":"","type":"bytes32","internalType":"bytes32"}],"stateMutability":"view"},{"type":"function","name":"UPGRADE_INTERFACE_VERSION","inputs":[],"outputs":[{"name":"","type":"string","internalType":"string"}],"stateMutability":"view"},{"type":"function","name":"VIRTUAL_ASSETS","inputs":[],"outputs":[{"name":"","type":"uint256","internalType":"uint256"}],"stateMutability":"view"},{"type":"function","name":"VIRTUAL_SHARES","inputs":[],"outputs":[{"name":"","type":"uint256","internalType":"uint256"}],"stateMutability":"view"},{"type":"function","name":"blueprintSlashCount","inputs":[{"name":"","type":"uint64","internalType":"uint64"},{"name":"","type":"address","internalType":"address"}],"outputs":[{"name":"","type":"uint64","internalType":"uint64"}],"stateMutability":"view"},{"type":"function","name":"clearFacetSelectors","inputs":[{"name":"selectors","type":"bytes4[]","internalType":"bytes4[]"}],"outputs":[],"stateMutability":"nonpayable"},{"type":"function","name":"currentRound","inputs":[],"outputs":[{"name":"","type":"uint64","internalType":"uint64"}],"stateMutability":"view"},{"type":"function","name":"delegationBondLessDelay","inputs":[],"outputs":[{"name":"","type":"uint64","internalType":"uint64"}],"stateMutability":"view"},{"type":"function","name":"facetForSelector","inputs":[{"name":"selector","type":"bytes4","internalType":"bytes4"}],"outputs":[{"name":"","type":"address","internalType":"address"}],"stateMutability":"view"},{"type":"function","name":"getAccumulatedDust","inputs":[{"name":"token","type":"address","internalType":"address"}],"outputs":[{"name":"","type":"uint256","internalType":"uint256"}],"stateMutability":"view"},{"type":"function","name":"getAssetAdapter","inputs":[{"name":"token","type":"address","internalType":"address"}],"outputs":[{"name":"","type":"address","internalType":"address"}],"stateMutability":"view"},{"type":"function","name":"getOperatorSlashFactor","inputs":[{"name":"operator","type":"address","internalType":"address"},{"name":"assetHash","type":"bytes32","internalType":"bytes32"}],"outputs":[{"name":"","type":"uint256","internalType":"uint256"}],"stateMutability":"view"},{"type":"function","name":"getPendingSlashCount","inputs":[{"name":"operator","type":"address","internalType":"address"}],"outputs":[{"name":"","type":"uint64","internalType":"uint64"}],"stateMutability":"view"},{"type":"function","name":"getRoleAdmin","inputs":[{"name":"role","type":"bytes32","internalType":"bytes32"}],"outputs":[{"name":"","type":"bytes32","internalType":"bytes32"}],"stateMutability":"view"},{"type":"function","name":"getSlashCount","inputs":[{"name":"operator","type":"address","internalType":"address"}],"outputs":[{"name":"","type":"uint64","internalType":"uint64"}],"stateMutability":"view"},{"type":"function","name":"getSlashCountForBlueprint","inputs":[{"name":"blueprintId","type":"uint64","internalType":"uint64"},{"name":"operator","type":"address","internalType":"address"}],"outputs":[{"name":"","type":"uint64","internalType":"uint64"}],"stateMutability":"view"},{"type":"function","name":"getSlashCountForService","inputs":[{"name":"serviceId","type":"uint64","internalType":"uint64"},{"name":"operator","type":"address","internalType":"address"}],"outputs":[{"name":"","type":"uint64","internalType":"uint64"}],"stateMutability":"view"},{"type":"function","name":"getSlashImpact","inputs":[{"name":"operator","type":"address","internalType":"address"},{"name":"slashId","type":"uint64","internalType":"uint64"},{"name":"delegator","type":"address","internalType":"address"}],"outputs":[{"name":"lostAmount","type":"uint256","internalType":"uint256"}],"stateMutability":"view"},{"type":"function","name":"getSlashRecord","inputs":[{"name":"operator","type":"address","internalType":"address"},{"name":"slashId","type":"uint64","internalType":"uint64"}],"outputs":[{"name":"","type":"tuple","internalType":"struct SlashingManager.SlashRecord","components":[{"name":"round","type":"uint64","internalType":"uint64"},{"name":"serviceId","type":"uint64","internalType":"uint64"},{"name":"blueprintId","type":"uint64","internalType":"uint64"},{"name":"assetHash","type":"bytes32","internalType":"bytes32"},{"name":"slashBps","type":"uint16","internalType":"uint16"},{"name":"totalSlashed","type":"uint256","internalType":"uint256"},{"name":"exchangeRateBefore","type":"uint256","internalType":"uint256"},{"name":"exchangeRateAfter","type":"uint256","internalType":"uint256"},{"name":"evidence","type":"bytes32","internalType":"bytes32"}]}],"stateMutability":"view"},{"type":"function","name":"getSnapshot","inputs":[{"name":"round","type":"uint64","internalType":"uint64"},{"name":"operator","type":"address","internalType":"address"}],"outputs":[{"name":"","type":"tuple","internalType":"struct Types.OperatorSnapshot","components":[{"name":"stake","type":"uint256","internalType":"uint256"},{"name":"totalDelegated","type":"uint256","internalType":"uint256"}]}],"stateMutability":"view"},{"type":"function","name":"grantRole","inputs":[{"name":"role","type":"bytes32","internalType":"bytes32"},{"name":"account","type":"address","internalType":"address"}],"outputs":[],"stateMutability":"nonpayable"},{"type":"function","name":"hasRole","inputs":[{"name":"role","type":"bytes32","internalType":"bytes32"},{"name":"account","type":"address","internalType":"address"}],"outputs":[{"name":"","type":"bool","internalType":"bool"}],"stateMutability":"view"},{"type":"function","name":"initialize","inputs":[{"name":"admin","type":"address","internalType":"address"},{"name":"nativeMinOperatorStake","type":"uint256","internalType":"uint256"},{"name":"nativeMinDelegation","type":"uint256","internalType":"uint256"},{"name":"_operatorCommissionBps","type":"uint16","internalType":"uint16"}],"outputs":[],"stateMutability":"nonpayable"},{"type":"function","name":"lastRoundAdvance","inputs":[],"outputs":[{"name":"","type":"uint64","internalType":"uint64"}],"stateMutability":"view"},{"type":"function","name":"leaveDelegatorsDelay","inputs":[],"outputs":[{"name":"","type":"uint64","internalType":"uint64"}],"stateMutability":"view"},{"type":"function","name":"leaveOperatorsDelay","inputs":[],"outputs":[{"name":"","type":"uint64","internalType":"uint64"}],"stateMutability":"view"},{"type":"function","name":"nativeEnabled","inputs":[],"outputs":[{"name":"","type":"bool","internalType":"bool"}],"stateMutability":"view"},{"type":"function","name":"nextSlashId","inputs":[{"name":"","type":"address","internalType":"address"}],"outputs":[{"name":"","type":"uint64","internalType":"uint64"}],"stateMutability":"view"},{"type":"function","name":"operatorCommissionBps","inputs":[],"outputs":[{"name":"","type":"uint16","internalType":"uint16"}],"stateMutability":"view"},{"type":"function","name":"paused","inputs":[],"outputs":[{"name":"","type":"bool","internalType":"bool"}],"stateMutability":"view"},{"type":"function","name":"proxiableUUID","inputs":[],"outputs":[{"name":"","type":"bytes32","internalType":"bytes32"}],"stateMutability":"view"},{"type":"function","name":"registerFacet","inputs":[{"name":"facet","type":"address","internalType":"address"}],"outputs":[],"stateMutability":"nonpayable"},{"type":"function","name":"registerFacetSelectors","inputs":[{"name":"facet","type":"address","internalType":"address"},{"name":"selectors","type":"bytes4[]","internalType":"bytes4[]"}],"outputs":[],"stateMutability":"nonpayable"},{"type":"function","name":"renounceRole","inputs":[{"name":"role","type":"bytes32","internalType":"bytes32"},{"name":"callerConfirmation","type":"address","internalType":"address"}],"outputs":[],"stateMutability":"nonpayable"},{"type":"function","name":"requireAdapters","inputs":[],"outputs":[{"name":"","type":"bool","internalType":"bool"}],"stateMutability":"view"},{"type":"function","name":"resetPendingSlashCount","inputs":[{"name":"operator","type":"address","internalType":"address"},{"name":"count","type":"uint64","internalType":"uint64"}],"outputs":[],"stateMutability":"nonpayable"},{"type":"function","name":"revokeRole","inputs":[{"name":"role","type":"bytes32","internalType":"bytes32"},{"name":"account","type":"address","internalType":"address"}],"outputs":[],"stateMutability":"nonpayable"},{"type":"function","name":"roundDuration","inputs":[],"outputs":[{"name":"","type":"uint64","internalType":"uint64"}],"stateMutability":"view"},{"type":"function","name":"serviceSlashCount","inputs":[{"name":"","type":"uint64","internalType":"uint64"},{"name":"","type":"address","internalType":"address"}],"outputs":[{"name":"","type":"uint64","internalType":"uint64"}],"stateMutability":"view"},{"type":"function","name":"slashHistory","inputs":[{"name":"","type":"address","internalType":"address"},{"name":"","type":"uint64","internalType":"uint64"}],"outputs":[{"name":"round","type":"uint64","internalType":"uint64"},{"name":"serviceId","type":"uint64","internalType":"uint64"},{"name":"blueprintId","type":"uint64","internalType":"uint64"},{"name":"assetHash","type":"bytes32","internalType":"bytes32"},{"name":"slashBps","type":"uint16","internalType":"uint16"},{"name":"totalSlashed","type":"uint256","internalType":"uint256"},{"name":"exchangeRateBefore","type":"uint256","internalType":"uint256"},{"name":"exchangeRateAfter","type":"uint256","internalType":"uint256"},{"name":"evidence","type":"bytes32","internalType":"bytes32"}],"stateMutability":"view"},{"type":"function","name":"supportsInterface","inputs":[{"name":"interfaceId","type":"bytes4","internalType":"bytes4"}],"outputs":[{"name":"","type":"bool","internalType":"bool"}],"stateMutability":"view"},{"type":"function","name":"upgradeToAndCall","inputs":[{"name":"newImplementation","type":"address","internalType":"address"},{"name":"data","type":"bytes","internalType":"bytes"}],"outputs":[],"stateMutability":"payable"},{"type":"event","name":"BlueprintAddedToDelegation","inputs":[{"name":"delegator","type":"address","indexed":true,"internalType":"address"},{"name":"delegationIndex","type":"uint256","indexed":true,"internalType":"uint256"},{"name":"blueprintId","type":"uint64","indexed":false,"internalType":"uint64"}],"anonymous":false},{"type":"event","name":"BlueprintRemovedFromDelegation","inputs":[{"name":"delegator","type":"address","indexed":true,"internalType":"address"},{"name":"delegationIndex","type":"uint256","indexed":true,"internalType":"uint256"},{"name":"blueprintId","type":"uint64","indexed":false,"internalType":"uint64"}],"anonymous":false},{"type":"event","name":"Delegated","inputs":[{"name":"delegator","type":"address","indexed":true,"internalType":"address"},{"name":"operator","type":"address","indexed":true,"internalType":"address"},{"name":"token","type":"address","indexed":true,"internalType":"address"},{"name":"amount","type":"uint256","indexed":false,"internalType":"uint256"},{"name":"shares","type":"uint256","indexed":false,"internalType":"uint256"},{"name":"selectionMode","type":"uint8","indexed":false,"internalType":"enum Types.BlueprintSelectionMode"}],"anonymous":false},{"type":"event","name":"DelegatorUnstakeExecuted","inputs":[{"name":"delegator","type":"address","indexed":true,"internalType":"address"},{"name":"operator","type":"address","indexed":true,"internalType":"address"},{"name":"token","type":"address","indexed":true,"internalType":"address"},{"name":"shares","type":"uint256","indexed":false,"internalType":"uint256"},{"name":"amount","type":"uint256","indexed":false,"internalType":"uint256"}],"anonymous":false},{"type":"event","name":"DelegatorUnstakeScheduled","inputs":[{"name":"delegator","type":"address","indexed":true,"internalType":"address"},{"name":"operator","type":"address","indexed":true,"internalType":"address"},{"name":"token","type":"address","indexed":true,"internalType":"address"},{"name":"shares","type":"uint256","indexed":false,"internalType":"uint256"},{"name":"estimatedAmount","type":"uint256","indexed":false,"internalType":"uint256"},{"name":"readyRound","type":"uint64","indexed":false,"internalType":"uint64"}],"anonymous":false},{"type":"event","name":"Deposited","inputs":[{"name":"delegator","type":"address","indexed":true,"internalType":"address"},{"name":"token","type":"address","indexed":true,"internalType":"address"},{"name":"amount","type":"uint256","indexed":false,"internalType":"uint256"},{"name":"lock","type":"uint8","indexed":false,"internalType":"enum Types.LockMultiplier"}],"anonymous":false},{"type":"event","name":"DustAccumulated","inputs":[{"name":"token","type":"address","indexed":true,"internalType":"address"},{"name":"amount","type":"uint256","indexed":false,"internalType":"uint256"},{"name":"totalDust","type":"uint256","indexed":false,"internalType":"uint256"}],"anonymous":false},{"type":"event","name":"DustSwept","inputs":[{"name":"token","type":"address","indexed":true,"internalType":"address"},{"name":"recipient","type":"address","indexed":true,"internalType":"address"},{"name":"amount","type":"uint256","indexed":false,"internalType":"uint256"}],"anonymous":false},{"type":"event","name":"ExpiredLocksHarvested","inputs":[{"name":"delegator","type":"address","indexed":true,"internalType":"address"},{"name":"token","type":"address","indexed":true,"internalType":"address"},{"name":"count","type":"uint256","indexed":false,"internalType":"uint256"},{"name":"totalAmount","type":"uint256","indexed":false,"internalType":"uint256"}],"anonymous":false},{"type":"event","name":"FacetRegistered","inputs":[{"name":"facet","type":"address","indexed":true,"internalType":"address"}],"anonymous":false},{"type":"event","name":"FacetSelectorCleared","inputs":[{"name":"selector","type":"bytes4","indexed":true,"internalType":"bytes4"}],"anonymous":false},{"type":"event","name":"FacetSelectorSet","inputs":[{"name":"selector","type":"bytes4","indexed":true,"internalType":"bytes4"},{"name":"facet","type":"address","indexed":true,"internalType":"address"}],"anonymous":false},{"type":"event","name":"Initialized","inputs":[{"name":"version","type":"uint64","indexed":false,"internalType":"uint64"}],"anonymous":false},{"type":"event","name":"OperatorBlueprintAdded","inputs":[{"name":"operator","type":"address","indexed":true,"internalType":"address"},{"name":"blueprintId","type":"uint64","indexed":true,"internalType":"uint64"}],"anonymous":false},{"type":"event","name":"OperatorBlueprintRemoved","inputs":[{"name":"operator","type":"address","indexed":true,"internalType":"address"},{"name":"blueprintId","type":"uint64","indexed":true,"internalType":"uint64"}],"anonymous":false},{"type":"event","name":"OperatorDelegationModeSet","inputs":[{"name":"operator","type":"address","indexed":true,"internalType":"address"},{"name":"mode","type":"uint8","indexed":false,"internalType":"enum Types.DelegationMode"}],"anonymous":false},{"type":"event","name":"OperatorLeavingScheduled","inputs":[{"name":"operator","type":"address","indexed":true,"internalType":"address"},{"name":"readyRound","type":"uint64","indexed":false,"internalType":"uint64"}],"anonymous":false},{"type":"event","name":"OperatorLeft","inputs":[{"name":"operator","type":"address","indexed":true,"internalType":"address"}],"anonymous":false},{"type":"event","name":"OperatorRegistered","inputs":[{"name":"operator","type":"address","indexed":true,"internalType":"address"},{"name":"stake","type":"uint256","indexed":false,"internalType":"uint256"}],"anonymous":false},{"type":"event","name":"OperatorStakeIncreased","inputs":[{"name":"operator","type":"address","indexed":true,"internalType":"address"},{"name":"amount","type":"uint256","indexed":false,"internalType":"uint256"}],"anonymous":false},{"type":"event","name":"OperatorUnstakeExecuted","inputs":[{"name":"operator","type":"address","indexed":true,"internalType":"address"},{"name":"amount","type":"uint256","indexed":false,"internalType":"uint256"}],"anonymous":false},{"type":"event","name":"OperatorUnstakeScheduled","inputs":[{"name":"operator","type":"address","indexed":true,"internalType":"address"},{"name":"amount","type":"uint256","indexed":false,"internalType":"uint256"},{"name":"readyRound","type":"uint64","indexed":false,"internalType":"uint64"}],"anonymous":false},{"type":"event","name":"OperatorWhitelistUpdated","inputs":[{"name":"operator","type":"address","indexed":true,"internalType":"address"},{"name":"delegator","type":"address","indexed":true,"internalType":"address"},{"name":"approved","type":"bool","indexed":false,"internalType":"bool"}],"anonymous":false},{"type":"event","name":"Paused","inputs":[{"name":"account","type":"address","indexed":false,"internalType":"address"}],"anonymous":false},{"type":"event","name":"PendingSlashCountReset","inputs":[{"name":"operator","type":"address","indexed":true,"internalType":"address"},{"name":"newCount","type":"uint64","indexed":false,"internalType":"uint64"}],"anonymous":false},{"type":"event","name":"PendingSlashDecremented","inputs":[{"name":"operator","type":"address","indexed":true,"internalType":"address"},{"name":"newCount","type":"uint64","indexed":false,"internalType":"uint64"}],"anonymous":false},{"type":"event","name":"PendingSlashIncremented","inputs":[{"name":"operator","type":"address","indexed":true,"internalType":"address"},{"name":"newCount","type":"uint64","indexed":false,"internalType":"uint64"}],"anonymous":false},{"type":"event","name":"RoleAdminChanged","inputs":[{"name":"role","type":"bytes32","indexed":true,"internalType":"bytes32"},{"name":"previousAdminRole","type":"bytes32","indexed":true,"internalType":"bytes32"},{"name":"newAdminRole","type":"bytes32","indexed":true,"internalType":"bytes32"}],"anonymous":false},{"type":"event","name":"RoleGranted","inputs":[{"name":"role","type":"bytes32","indexed":true,"internalType":"bytes32"},{"name":"account","type":"address","indexed":true,"internalType":"address"},{"name":"sender","type":"address","indexed":true,"internalType":"address"}],"anonymous":false},{"type":"event","name":"RoleRevoked","inputs":[{"name":"role","type":"bytes32","indexed":true,"internalType":"bytes32"},{"name":"account","type":"address","indexed":true,"internalType":"address"},{"name":"sender","type":"address","indexed":true,"internalType":"address"}],"anonymous":false},{"type":"event","name":"SlashRecorded","inputs":[{"name":"operator","type":"address","indexed":true,"internalType":"address"},{"name":"slashId","type":"uint64","indexed":true,"internalType":"uint64"},{"name":"assetHash","type":"bytes32","indexed":false,"internalType":"bytes32"},{"name":"slashBps","type":"uint16","indexed":false,"internalType":"uint16"},{"name":"totalSlashed","type":"uint256","indexed":false,"internalType":"uint256"},{"name":"exchangeRateBefore","type":"uint256","indexed":false,"internalType":"uint256"},{"name":"exchangeRateAfter","type":"uint256","indexed":false,"internalType":"uint256"}],"anonymous":false},{"type":"event","name":"Slashed","inputs":[{"name":"operator","type":"address","indexed":true,"internalType":"address"},{"name":"serviceId","type":"uint64","indexed":true,"internalType":"uint64"},{"name":"blueprintId","type":"uint64","indexed":true,"internalType":"uint64"},{"name":"assetHash","type":"bytes32","indexed":false,"internalType":"bytes32"},{"name":"slashBps","type":"uint16","indexed":false,"internalType":"uint16"},{"name":"operatorSlashed","type":"uint256","indexed":false,"internalType":"uint256"},{"name":"delegatorsSlashed","type":"uint256","indexed":false,"internalType":"uint256"},{"name":"exchangeRateAfter","type":"uint256","indexed":false,"internalType":"uint256"}],"anonymous":false},{"type":"event","name":"SlashedForService","inputs":[{"name":"operator","type":"address","indexed":true,"internalType":"address"},{"name":"serviceId","type":"uint64","indexed":true,"internalType":"uint64"},{"name":"blueprintId","type":"uint64","indexed":true,"internalType":"uint64"},{"name":"totalSlashed","type":"uint256","indexed":false,"internalType":"uint256"},{"name":"commitmentCount","type":"uint256","indexed":false,"internalType":"uint256"}],"anonymous":false},{"type":"event","name":"Unpaused","inputs":[{"name":"account","type":"address","indexed":false,"internalType":"address"}],"anonymous":false},{"type":"event","name":"Upgraded","inputs":[{"name":"implementation","type":"address","indexed":true,"internalType":"address"}],"anonymous":false},{"type":"event","name":"WithdrawScheduled","inputs":[{"name":"delegator","type":"address","indexed":true,"internalType":"address"},{"name":"token","type":"address","indexed":true,"internalType":"address"},{"name":"amount","type":"uint256","indexed":false,"internalType":"uint256"},{"name":"readyRound","type":"uint64","indexed":false,"internalType":"uint64"}],"anonymous":false},{"type":"event","name":"Withdrawn","inputs":[{"name":"delegator","type":"address","indexed":true,"internalType":"address"},{"name":"token","type":"address","indexed":true,"internalType":"address"},{"name":"amount","type":"uint256","indexed":false,"internalType":"uint256"}],"anonymous":false},{"type":"error","name":"AccessControlBadConfirmation","inputs":[]},{"type":"error","name":"AccessControlUnauthorizedAccount","inputs":[{"name":"account","type":"address","internalType":"address"},{"name":"neededRole","type":"bytes32","internalType":"bytes32"}]},{"type":"error","name":"AddressEmptyCode","inputs":[{"name":"target","type":"address","internalType":"address"}]},{"type":"error","name":"ERC1967InvalidImplementation","inputs":[{"name":"implementation","type":"address","internalType":"address"}]},{"type":"error","name":"ERC1967NonPayable","inputs":[]},{"type":"error","name":"EnforcedPause","inputs":[]},{"type":"error","name":"ExpectedPause","inputs":[]},{"type":"error","name":"FailedCall","inputs":[]},{"type":"error","name":"InvalidInitialization","inputs":[]},{"type":"error","name":"NotAContract","inputs":[{"name":"account","type":"address","internalType":"address"}]},{"type":"error","name":"NotInitializing","inputs":[]},{"type":"error","name":"ReentrancyGuardReentrantCall","inputs":[]},{"type":"error","name":"SelectorAlreadyRegistered","inputs":[{"name":"selector","type":"bytes4","internalType":"bytes4"},{"name":"existingFacet","type":"address","internalType":"address"}]},{"type":"error","name":"UUPSUnauthorizedCallContext","inputs":[]},{"type":"error","name":"UUPSUnsupportedProxiableUUID","inputs":[{"name":"slot","type":"bytes32","internalType":"bytes32"}]},{"type":"error","name":"UnknownSelector","inputs":[{"name":"selector","type":"bytes4","internalType":"bytes4"}]},{"type":"error","name":"ZeroAddress","inputs":[]}],"bytecode":{"object":"0x60a06040523461003e5761001161004d565b610019610043565b61447c61030782396080518181816138a70152818161390c0152613abb015261447c90f35b610049565b60405190565b5f80fd5b61005561005f565b61005d61022a565b565b610067610069565b565b610071610073565b565b61007b61007d565b565b610085610087565b565b61008f610091565b565b61009961009b565b565b6100a36100a5565b565b6100ad6100af565b565b6100b76100b9565b565b6100c16100c3565b565b6100cb6100cd565b565b6100d56100d7565b565b6100df6100e1565b565b6100e961012d565b565b60018060a01b031690565b90565b61010d610108610112926100eb565b6100f6565b6100eb565b90565b61011e906100f9565b90565b61012a90610115565b90565b61013630610121565b608052565b60401c90565b60ff1690565b6101536101589161013b565b610141565b90565b6101659054610147565b90565b5f0190565b5f1c90565b60018060401b031690565b61018961018e9161016d565b610172565b90565b61019b905461017d565b90565b60018060401b031690565b5f1b90565b906101bf60018060401b03916101a9565b9181191691161790565b6101dd6101d86101e29261019e565b6100f6565b61019e565b90565b90565b906101fd6101f8610204926101c9565b6101e5565b82546101ae565b9055565b6102119061019e565b9052565b9190610228905f60208501940190610208565b565b6102326102e2565b61023d5f820161015b565b6102c65761024c5f8201610191565b61026461025e60018060401b0361019e565b9161019e565b0361026d575b50565b610280905f60018060401b0391016101e8565b60018060401b036102bd7fc7f505b2f371ae2175ee4913f4499e1f2633a7b5936321eed1cdaeb6115181d2916102b4610043565b91829182610215565b0390a15f61026a565b5f63f92ee8a960e01b8152806102de60048201610168565b0390fd5b7ff0c57e16840df040f15088dc2f81fe391c3923bec73e23a9662efc9c229c6a009056fe60806040526004361015610015575b366134f557005b61001f5f356103ce565b806301ffc9a7146103c957806305d64e38146103c45780630aa8b110146103bf57806312d91c88146103ba57806318056dc2146103b557806319e82e61146103b0578063248a9ca3146103ab5780632f2ff15d146103a657806332273f61146103a157806336568abe1461039c578063453eccea1461039757806346d163aa14610392578063491474111461038d5780634962f88f146103885780634de8addc146103835780634e9c929a1461037e5780634f1ef286146103795780635095af641461037457806352d1902d1461036f57806354de23201461036a5780635c975abb14610365578063602356e31461036057806366c368751461035b57806372b5032d1461035657806375b238fc1461035157806377ab2cf31461034c5780637df92ada1461034757806388c47f68146103425780638a19c8bc1461033d5780638a7fe60f1461033857806390837ff41461033357806391d148541461032e5780639480e4dd146103295780639494f42614610324578063960856731461031f5780639722f4b91461031a5780639e87058514610315578063a217fddf14610310578063a457af3d1461030b578063a4b32de814610306578063a7fa6f9814610301578063aaf5eb68146102fc578063ad3cb1cc146102f7578063b54b2b9e146102f2578063b6608409146102ed578063ba05bbf5146102e8578063c07449e2146102e3578063c550d938146102de578063cbb6d6bd146102d9578063d27a6f06146102d4578063d45ff582146102cf578063d547741f146102ca578063db8a173a146102c5578063dd764abf146102c0578063e07dec29146102bb578063e1a45218146102b6578063e27e05c1146102b1578063f3c9b311146102ac5763f7cb789a0361000e57611fd6565b611f92565b611f25565b611ef0565b611e87565b611e1c565b611daa565b611d67565b611d32565b611cc4565b611c54565b611b92565b611b5c565b611aee565b611aaa565b611a3e565b6119fa565b6118c9565b611856565b6117e9565b611784565b611662565b6115f2565b611583565b61152d565b6114de565b61146f565b611439565b611404565b6113cf565b611378565b611336565b6112c7565b611259565b6111e9565b611184565b61114f565b61111a565b6110b6565b611081565b611014565b610fdf565b610f86565b610e24565b610d75565b610d30565b610cc3565b610c90565b610c3d565b610bd1565b610b9c565b610b32565b610ad0565b610a69565b61099e565b61091b565b610876565b610513565b61045a565b60e01c90565b60405190565b5f80fd5b5f80fd5b5f80fd5b63ffffffff60e01b1690565b6103fb816103e6565b0361040257565b5f80fd5b90503590610413826103f2565b565b9060208282031261042e5761042b915f01610406565b90565b6103de565b151590565b61044190610433565b9052565b9190610458905f60208501940190610438565b565b3461048a57610486610475610470366004610415565b61200f565b61047d6103d4565b91829182610445565b0390f35b6103da565b5f91031261049957565b6103de565b1c90565b67ffffffffffffffff1690565b6104bf9060086104c4930261049e565b6104a2565b90565b906104d291546104af565b90565b6104e15f6010906104c7565b90565b67ffffffffffffffff1690565b6104fa906104e4565b9052565b9190610511905f602085019401906104f1565b565b346105435761052336600461048f565b61053f61052e6104d5565b6105366103d4565b918291826104fe565b0390f35b6103da565b60018060a01b031690565b61055c90610548565b90565b61056881610553565b0361056f57565b5f80fd5b905035906105808261055f565b565b61058b816104e4565b0361059257565b5f80fd5b905035906105a382610582565b565b91906040838203126105cd57806105c16105ca925f8601610573565b93602001610596565b90565b6103de565b90565b6105e96105e46105ee92610548565b6105d2565b610548565b90565b6105fa906105d5565b90565b610606906105f1565b90565b90610613906105fd565b5f5260205260405f2090565b61063361062e610638926104e4565b6105d2565b6104e4565b90565b906106459061061f565b5f5260205260405f2090565b5f1c90565b61066261066791610651565b6104a2565b90565b6106749054610656565b90565b60401c90565b61068961068e91610677565b6104a2565b90565b61069b905461067d565b90565b60801c90565b6106b06106b59161069e565b6104a2565b90565b6106c290546106a4565b90565b90565b6106d46106d991610651565b6106c5565b90565b6106e690546106c8565b90565b61ffff1690565b6106fc61070191610651565b6106e9565b90565b61070e90546106f0565b90565b90565b61072061072591610651565b610711565b90565b6107329054610714565b90565b90610744610749926055610609565b61063b565b6107545f820161066a565b916107605f8301610691565b9161076c5f82016106b8565b91610779600183016106dc565b9161078660028201610704565b9161079360038301610728565b916107a060048201610728565b916107b960066107b260058501610728565b93016106dc565b90565b90565b6107c8906107bc565b9052565b61ffff1690565b6107dc906107cc565b9052565b90565b6107ec906107e0565b9052565b9694929099989795939161012088019a5f890161080c916104f1565b60208801610819916104f1565b60408701610826916104f1565b60608601610833916107bf565b60808501610840916107d3565b60a0840161084d916107e3565b60c0830161085a916107e3565b60e08201610867916107e3565b61010001610874916107bf565b565b346108b1576108ad61089261088c3660046105a5565b90610735565b956108a49997999591959492946103d4565b998a998a6107f0565b0390f35b6103da565b6108bf816107bc565b036108c657565b5f80fd5b905035906108d7826108b6565b565b919060408382031261090157806108f56108fe925f8601610573565b936020016108ca565b90565b6103de565b9190610919905f602085019401906107e3565b565b3461094c576109486109376109313660046108d9565b906120a7565b61093f6103d4565b91829182610906565b0390f35b6103da565b90565b61096861096361096d92610951565b6105d2565b6107cc565b90565b61097b612af8610954565b90565b610986610970565b90565b919061099c905f602085019401906107d3565b565b346109ce576109ae36600461048f565b6109ca6109b961097e565b6109c16103d4565b91829182610989565b0390f35b6103da565b5f80fd5b5f80fd5b5f80fd5b909182601f83011215610a195781359167ffffffffffffffff8311610a14576020019260208302840111610a0f57565b6109db565b6109d7565b6109d3565b919091604081840312610a5f57610a37835f8301610573565b92602082013567ffffffffffffffff8111610a5a57610a5692016109df565b9091565b6103e2565b6103de565b5f0190565b34610a9857610a82610a7c366004610a1e565b9161217a565b610a8a6103d4565b80610a9481610a64565b0390f35b6103da565b90602082820312610ab657610ab3915f016108ca565b90565b6103de565b9190610ace905f602085019401906107bf565b565b34610b0057610afc610aeb610ae6366004610a9d565b6121b2565b610af36103d4565b91829182610abb565b0390f35b6103da565b9190604083820312610b2d5780610b21610b2a925f86016108ca565b93602001610573565b90565b6103de565b34610b6157610b4b610b45366004610b05565b90612206565b610b536103d4565b80610b5d81610a64565b0390f35b6103da565b610b76906008610b7b930261049e565b6106e9565b90565b90610b899154610b66565b90565b610b996001601090610b7e565b90565b34610bcc57610bac36600461048f565b610bc8610bb7610b8c565b610bbf6103d4565b91829182610989565b0390f35b6103da565b34610c0057610bea610be4366004610b05565b90612212565b610bf26103d4565b80610bfc81610a64565b0390f35b6103da565b90565b610c1c610c17610c2192610c05565b6105d2565b6107cc565b90565b610c2f613e80610c08565b90565b610c3a610c24565b90565b34610c6d57610c4d36600461048f565b610c69610c58610c32565b610c606103d4565b91829182610989565b0390f35b6103da565b90602082820312610c8b57610c88915f01610573565b90565b6103de565b34610cbe57610ca8610ca3366004610c72565b612352565b610cb06103d4565b80610cba81610a64565b0390f35b6103da565b34610cf357610cef610cde610cd9366004610c72565b612430565b610ce66103d4565b91829182610906565b0390f35b6103da565b90565b610d0f610d0a610d1492610cf8565b6105d2565b6107cc565b90565b610d22612710610cfb565b90565b610d2d610d17565b90565b34610d6057610d4036600461048f565b610d5c610d4b610d25565b610d536103d4565b91829182610989565b0390f35b6103da565b610d7260016008906104c7565b90565b34610da557610d8536600461048f565b610da1610d90610d65565b610d986103d4565b918291826104fe565b0390f35b6103da565b9190604083820312610dd25780610dc6610dcf925f8601610596565b93602001610573565b90565b6103de565b90610de19061061f565b5f5260205260405f2090565b90610df7906105fd565b5f5260205260405f2090565b610e1c610e2192610e176058935f94610dd7565b610ded565b6104c7565b90565b34610e5557610e51610e40610e3a366004610daa565b90610e03565b610e486103d4565b918291826104fe565b0390f35b6103da565b5f80fd5b601f801991011690565b634e487b7160e01b5f52604160045260245ffd5b90610e8690610e5e565b810190811067ffffffffffffffff821117610ea057604052565b610e68565b90610eb8610eb16103d4565b9283610e7c565b565b67ffffffffffffffff8111610ed857610ed4602091610e5e565b0190565b610e68565b90825f939282370152565b90929192610efd610ef882610eba565b610ea5565b93818552602085019082840111610f1957610f1792610edd565b565b610e5a565b9080601f83011215610f3c57816020610f3993359101610ee8565b90565b6109d3565b919091604081840312610f8157610f5a835f8301610573565b92602082013567ffffffffffffffff8111610f7c57610f799201610f1e565b90565b6103e2565b6103de565b610f9a610f94366004610f41565b90612478565b610fa26103d4565b80610fac81610a64565b0390f35b7f12b42e8a160f6064dc959c6f251e3af0750ad213dbecf573b4710d67d6c28e3990565b610fdc610fb0565b90565b3461100f57610fef36600461048f565b61100b610ffa610fd4565b6110026103d4565b91829182610abb565b0390f35b6103da565b346110445761102436600461048f565b61104061102f6124ef565b6110376103d4565b91829182610abb565b0390f35b6103da565b90565b61106061105b61106592611049565b6105d2565b6107cc565b90565b611073612ee061104c565b90565b61107e611068565b90565b346110b15761109136600461048f565b6110ad61109c611076565b6110a46103d4565b91829182610989565b0390f35b6103da565b346110e6576110c636600461048f565b6110e26110d1612523565b6110d96103d4565b91829182610445565b0390f35b6103da565b7f19449a4ad57e40a5aa77e785b4539e53ba9e7fedbf7076388ee3fb1bc2ddea1b90565b6111176110eb565b90565b3461114a5761112a36600461048f565b61114661113561110f565b61113d6103d4565b91829182610abb565b0390f35b6103da565b3461117f5761117b61116a611165366004610c72565b612545565b6111726103d4565b918291826104fe565b0390f35b6103da565b346111b5576111b16111a061119a366004610daa565b90612564565b6111a86103d4565b918291826104fe565b0390f35b6103da565b7fa49807205ce4d355092ef5a8a18f56e8913cf4a201fbe287825b095693c2177590565b6111e66111ba565b90565b34611219576111f936600461048f565b6112156112046111de565b61120c6103d4565b91829182610abb565b0390f35b6103da565b60ff1690565b611234906008611239930261049e565b61121e565b90565b906112479154611224565b90565b61125660055f9061123c565b90565b346112895761126936600461048f565b61128561127461124a565b61127c6103d4565b91829182610445565b0390f35b6103da565b90565b6112a56112a06112aa9261128e565b6105d2565b6104e4565b90565b6112b9624f1a00611291565b90565b6112c46112ad565b90565b346112f7576112d736600461048f565b6112f36112e26112bc565b6112ea6103d4565b918291826104fe565b0390f35b6103da565b90565b61131361130e611318926112fc565b6105d2565b6107e0565b90565b6113286305f5e1006112ff565b90565b61133361131b565b90565b346113665761134636600461048f565b61136261135161132b565b6113596103d4565b91829182610906565b0390f35b6103da565b6113755f806104c7565b90565b346113a85761138836600461048f565b6113a461139361136b565b61139b6103d4565b918291826104fe565b0390f35b6103da565b6113b690610553565b9052565b91906113cd905f602085019401906113ad565b565b346113ff576113fb6113ea6113e5366004610c72565b6125d2565b6113f26103d4565b918291826113ba565b0390f35b6103da565b346114345761143061141f61141a366004610415565b6125f1565b6114276103d4565b918291826113ba565b0390f35b6103da565b3461146a5761146661145561144f366004610b05565b9061261c565b61145d6103d4565b91829182610445565b0390f35b6103da565b3461149f5761149b61148a611485366004610c72565b61264e565b6114926103d4565b918291826104fe565b0390f35b6103da565b90916060828403126114d9576114d66114bf845f8501610573565b936114cd8160208601610596565b93604001610573565b90565b6103de565b3461150f5761150b6114fa6114f43660046114a4565b91612886565b6115026103d4565b91829182610906565b0390f35b6103da565b61152a906115256056915f92610ded565b6104c7565b90565b3461155d57611559611548611543366004610c72565b611514565b6115506103d4565b918291826104fe565b0390f35b6103da565b61157b611580926115766057935f94610dd7565b610ded565b6104c7565b90565b346115b4576115b061159f611599366004610daa565b90611562565b6115a76103d4565b918291826104fe565b0390f35b6103da565b90565b6115d06115cb6115d5926115b9565b6105d2565b6104e4565b90565b6115e462278d006115bc565b90565b6115ef6115d8565b90565b346116225761160236600461048f565b61161e61160d6115e7565b6116156103d4565b918291826104fe565b0390f35b6103da565b90565b5f1b90565b61164361163e61164892611627565b61162a565b6107bc565b90565b6116545f61162f565b90565b61165f61164b565b90565b346116925761167236600461048f565b61168e61167d611657565b6116856103d4565b91829182610abb565b0390f35b6103da565b6116a0906104e4565b9052565b6116ad906107bc565b9052565b6116ba906107cc565b9052565b6116c7906107e0565b9052565b906101008061176c936116e45f8201515f860190611697565b6116f660208201516020860190611697565b61170860408201516040860190611697565b61171a606082015160608601906116a4565b61172c608082015160808601906116b1565b61173e60a082015160a08601906116be565b61175060c082015160c08601906116be565b61176260e082015160e08601906116be565b01519101906116a4565b565b9190611782905f61012085019401906116cb565b565b346117b5576117b16117a061179a3660046105a5565b90612a34565b6117a86103d4565b9182918261176e565b0390f35b6103da565b7fb1fadd3142ab2ad7f1337ea4d97112bcc8337fc11ce5b20cb04ad038adf9981990565b6117e66117ba565b90565b34611819576117f936600461048f565b6118156118046117de565b61180c6103d4565b91829182610abb565b0390f35b6103da565b90565b61183561183061183a9261181e565b6105d2565b6107cc565b90565b6118486132c8611821565b90565b61185361183d565b90565b346118865761186636600461048f565b61188261187161184b565b6118796103d4565b91829182610989565b0390f35b6103da565b90565b6118a261189d6118a79261188b565b6105d2565b6107e0565b90565b6118bb670de0b6b3a764000061188e565b90565b6118c66118aa565b90565b346118f9576118d936600461048f565b6118f56118e46118be565b6118ec6103d4565b91829182610906565b0390f35b6103da565b67ffffffffffffffff811161191c57611918602091610e5e565b0190565b610e68565b9061193361192e836118fe565b610ea5565b918252565b5f7f352e302e30000000000000000000000000000000000000000000000000000000910152565b6119696005611921565b9061197660208301611938565b565b61198061195f565b90565b61198b611978565b90565b611996611983565b90565b5190565b60209181520190565b90825f9392825e0152565b6119d06119d96020936119de936119c781611999565b9384809361199d565b958691016119a6565b610e5e565b0190565b6119f79160208201915f8184039101526119b1565b90565b34611a2a57611a0a36600461048f565b611a26611a1561198e565b611a1d6103d4565b918291826119e2565b0390f35b6103da565b611a3b60075f9061123c565b90565b34611a6e57611a4e36600461048f565b611a6a611a59611a2f565b611a616103d4565b91829182610445565b0390f35b6103da565b90565b611a8a611a85611a8f92611a73565b6105d2565b6107e0565b90565b611a9c6001611a76565b90565b611aa7611a92565b90565b34611ada57611aba36600461048f565b611ad6611ac5611a9f565b611acd6103d4565b91829182610906565b0390f35b6103da565b611aeb5f6018906104c7565b90565b34611b1e57611afe36600461048f565b611b1a611b09611adf565b611b116103d4565b918291826104fe565b0390f35b6103da565b90602080611b4593611b3b5f8201515f8601906116be565b01519101906116be565b565b9190611b5a905f60408501940190611b23565b565b34611b8d57611b89611b78611b72366004610daa565b90612b0b565b611b806103d4565b91829182611b47565b0390f35b6103da565b34611bc357611bbf611bae611ba8366004610daa565b90612b33565b611bb66103d4565b918291826104fe565b0390f35b6103da565b611bd1816107e0565b03611bd857565b5f80fd5b90503590611be982611bc8565b565b611bf4816107cc565b03611bfb57565b5f80fd5b90503590611c0c82611beb565b565b608081830312611c4f57611c24825f8301610573565b92611c4c611c358460208501611bdc565b93611c438160408601611bdc565b93606001611bff565b90565b6103de565b34611c8657611c70611c67366004611c0e565b9291909161331f565b611c786103d4565b80611c8281610a64565b0390f35b6103da565b90565b611ca2611c9d611ca792611c8b565b6105d2565b6104e4565b90565b611cb66276a700611c8e565b90565b611cc1611caa565b90565b34611cf457611cd436600461048f565b611cf0611cdf611cb9565b611ce76103d4565b918291826104fe565b0390f35b6103da565b90565b611d10611d0b611d1592611cf9565b6105d2565b6104e4565b90565b611d2462093a80611cfc565b90565b611d2f611d18565b90565b34611d6257611d4236600461048f565b611d5e611d4d611d27565b611d556103d4565b918291826104fe565b0390f35b6103da565b34611d9657611d80611d7a366004610b05565b90613357565b611d886103d4565b80611d9281610a64565b0390f35b6103da565b611da760015f906104c7565b90565b34611dda57611dba36600461048f565b611dd6611dc5611d9b565b611dcd6103d4565b918291826104fe565b0390f35b6103da565b90565b611df6611df1611dfb92611ddf565b6105d2565b6107e0565b90565b611e0e662386f26fc10000611de2565b90565b611e19611dfe565b90565b34611e4c57611e2c36600461048f565b611e48611e37611e11565b611e3f6103d4565b91829182610906565b0390f35b6103da565b90602082820312611e82575f82013567ffffffffffffffff8111611e7d57611e7992016109df565b9091565b6103e2565b6103de565b34611eb657611ea0611e9a366004611e51565b906133b8565b611ea86103d4565b80611eb281610a64565b0390f35b6103da565b611ecf611eca611ed492610cf8565b6105d2565b6107e0565b90565b611ee2612710611ebb565b90565b611eed611ed7565b90565b34611f2057611f0036600461048f565b611f1c611f0b611ee5565b611f136103d4565b91829182610906565b0390f35b6103da565b34611f5457611f3e611f383660046105a5565b906134e9565b611f466103d4565b80611f5081610a64565b0390f35b6103da565b90565b611f70611f6b611f7592611f59565b6105d2565b6104e4565b90565b611f8462ed4e00611f5c565b90565b611f8f611f78565b90565b34611fc257611fa236600461048f565b611fbe611fad611f87565b611fb56103d4565b918291826104fe565b0390f35b6103da565b611fd35f6008906104c7565b90565b3461200657611fe636600461048f565b612002611ff1611fc7565b611ff96103d4565b918291826104fe565b0390f35b6103da565b5f90565b61201761200b565b508061203261202c637965db0b60e01b6103e6565b916103e6565b1490811561203f575b5090565b61204991506134fa565b5f61203b565b5f90565b9061205d906105fd565b5f5260205260405f2090565b612072906107bc565b90565b9061207f90612069565b5f5260205260405f2090565b61209f61209a6120a492611627565b6105d2565b6107e0565b90565b6120cc916120c26120c7926120ba61204f565b506011612053565b612075565b610728565b806120df6120d95f61208b565b916107e0565b145f146120f357506120ef6118aa565b5b90565b6120f0565b67ffffffffffffffff81116121105760208091020190565b610e68565b9092919261212a612125826120f8565b610ea5565b938185526020808601920283019281841161216757915b83831061214e5750505050565b6020809161215c8486610406565b815201920191612141565b6109db565b612177913691612115565b90565b612196926121909161218a613532565b9261216c565b9061356d565b565b5f90565b906121a690612069565b5f5260205260405f2090565b60016121d36121d9926121c3612198565b505f6121cd6136e1565b0161219c565b016106dc565b90565b906121f7916121f26121ed826121b2565b613705565b6121f9565b565b9061220391613719565b50565b90612210916121dc565b565b908061222d6122276122226137d0565b610553565b91610553565b0361223e5761223b916137dd565b50565b5f63334bd91960e11b81528061225660048201610a64565b0390fd5b612263906105d5565b90565b61226f9061225a565b90565b61227b906105f1565b90565b60e01b90565b90505190612291826103f2565b565b909291926122a86122a3826120f8565b610ea5565b93818552602080860192028301928184116122e557915b8383106122cc5750505050565b602080916122da8486612284565b8152019201916122bf565b6109db565b9080601f830112156123085781602061230593519101612293565b90565b6109d3565b9060208282031261233d575f82015167ffffffffffffffff81116123385761233592016122ea565b90565b6103e2565b6103de565b61234a6103d4565b3d5f823e3d90fd5b61235a613532565b6123855f61236f61236a84612266565b612272565b636e25b9789061237d6103d4565b93849261227e565b8252818061239560048201610a64565b03915afa8015612415576123b1915f916123f3575b508261356d565b6123db7f4d3c30f5993f1922a779345a0f7ec1a170f1e52e9d230824f9c17e63596c906d916105fd565b906123e46103d4565b806123ee81610a64565b0390a2565b61240f91503d805f833e6124078183610e7c565b81019061230d565b5f6123aa565b612342565b90612424906105fd565b5f5260205260405f2090565b61244761244c9161243f61204f565b50601b61241a565b610728565b90565b906124619161245c613896565b612463565b565b906124769161247181613950565b6139ac565b565b906124829161244f565b565b61249590612490613aaa565b6124e3565b90565b90565b6124af6124aa6124b492612498565b61162a565b6107bc565b90565b6124e07f360894a13ba1a3210667c828492db98dca3e2076cc3735a920a3ca505d382bbc61249b565b90565b506124ec6124b7565b90565b6124ff6124fa612198565b612484565b90565b61250e61251391610651565b61121e565b90565b6125209054612502565b90565b61252b61200b565b5061253e5f612538613b08565b01612516565b90565b5f90565b61255c61256191612554612541565b506056610ded565b61066a565b90565b6125899161257f61258492612577612541565b506057610dd7565b610ded565b61066a565b90565b5f90565b9061259a906105fd565b5f5260205260405f2090565b60018060a01b031690565b6125bd6125c291610651565b6125a6565b90565b6125cf90546125b1565b90565b6125e96125ee916125e161258c565b506006612590565b6125c5565b90565b612603906125fd61258c565b50613b42565b90565b90612610906105fd565b5f5260205260405f2090565b61264b915f6126406126469361263061200b565b508261263a6136e1565b0161219c565b01612606565b612516565b90565b61266561266a9161265d612541565b506023610ded565b61066a565b90565b90612677906104e4565b9052565b90612685906107bc565b9052565b90612693906107cc565b9052565b906126a1906107e0565b9052565b6126b0610120610ea5565b90565b9061279161278760066126c46126a5565b946126db6126d35f830161066a565b5f880161266d565b6126f26126e95f8301610691565b6020880161266d565b6127096127005f83016106b8565b6040880161266d565b612721612718600183016106dc565b6060880161267b565b61273961273060028301610704565b60808801612689565b61275161274860038301610728565b60a08801612697565b61276961276060048301610728565b60c08801612697565b61278161277860058301610728565b60e08801612697565b016106dc565b610100840161267b565b565b61279c906126b3565b90565b6127a990516104e4565b90565b6127c06127bb6127c592611627565b6105d2565b6104e4565b90565b6127d290516107bc565b90565b6127df90516107e0565b90565b634e487b7160e01b5f52601160045260245ffd5b61280561280b919392936107e0565b926107e0565b820391821161281657565b6127e2565b61282a612830919392936107e0565b926107e0565b9161283c8382026107e0565b92818404149015171561284b57565b6127e2565b634e487b7160e01b5f52601260045260245ffd5b612870612876916107e0565b916107e0565b908115612881570490565b612850565b929190926128af6128aa61289861204f565b956128a560558590610609565b61063b565b612793565b916128bb5f840161279f565b6128cd6128c75f6127ac565b916104e4565b1461298e57906128ea91906128e4606085016127c8565b91613c76565b90816128fe6128f85f61208b565b916107e0565b1461297e5761290f60c082016127d5565b61292c61292661292160e085016127d5565b6107e0565b916107e0565b11612936575b5050565b612976929350906129628261295c60e061295560c061296897016127d5565b92016127d5565b906127f6565b9061281b565b6129706118aa565b90612864565b905f80612932565b5050905061298b5f61208b565b90565b505050905061299c5f61208b565b90565b5f90565b5f90565b5f90565b5f90565b6129b76126a5565b90602080808080808080808a6129cb61299f565b8152016129d661299f565b8152016129e161299f565b8152016129ec6129a3565b8152016129f76129a7565b815201612a026129ab565b815201612a0d6129ab565b815201612a186129ab565b815201612a236129a3565b81525050565b612a316129af565b90565b612a5991612a4f612a5492612a47612a29565b506055610609565b61063b565b612793565b90565b612a666040610ea5565b90565b612a71612a5c565b9060208083612a7e6129ab565b815201612a896129ab565b81525050565b612a97612a69565b90565b90612aa49061061f565b5f5260205260405f2090565b90612aba906105fd565b5f5260205260405f2090565b90612afd612af46001612ad7612a5c565b94612aee612ae65f8301610728565b5f8801612697565b01610728565b60208401612697565b565b612b0890612ac6565b90565b612b3091612b26612b2b92612b1e612a8f565b506010612a9a565b612ab0565b612aff565b90565b612b5891612b4e612b5392612b46612541565b506058610dd7565b610ded565b61066a565b90565b612b67612b6c91610677565b61121e565b90565b612b799054612b5b565b90565b612b90612b8b612b9592611a73565b6105d2565b6104e4565b90565b612ba1906105f1565b90565b90612bb767ffffffffffffffff9161162a565b9181191691161790565b90565b90612bd9612bd4612be09261061f565b612bc1565b8254612ba4565b9055565b60401b90565b90612bfe68ff000000000000000091612be4565b9181191691161790565b612c1190610433565b90565b90565b90612c2c612c27612c3392612c08565b612c14565b8254612bea565b9055565b612c4090612b7c565b9052565b9190612c57905f60208501940190612c37565b565b909192612c64613d65565b93612c79612c735f8701612b6f565b15610433565b93612c855f870161066a565b80612c98612c925f6127ac565b916104e4565b1480612db2575b90612cb3612cad6001612b7c565b916104e4565b1480612d8a575b612cc5909115610433565b9081612d79575b50612d5d57612cf593612cea612ce26001612b7c565b5f8901612bc4565b85612d4b575b613174565b612cfd575b50565b612d0a905f809101612c17565b6001612d427fc7f505b2f371ae2175ee4913f4499e1f2633a7b5936321eed1cdaeb6115181d291612d396103d4565b91829182612c44565b0390a15f612cfa565b612d5860015f8901612c17565b612cf0565b5f63f92ee8a960e01b815280612d7560048201610a64565b0390fd5b612d84915015610433565b5f612ccc565b50612cc5612d9730612b98565b3b612daa612da45f61208b565b916107e0565b149050612cba565b5085612c9f565b612dcd612dc8612dd292611627565b6105d2565b610548565b90565b612dde90612db9565b90565b612deb6040610ea5565b90565b634e487b7160e01b5f52602160045260245ffd5b60021115612e0c57565b612dee565b90612e1b82612e02565b565b90612e2790612e11565b9052565b90612e3590610553565b9052565b612e4d612e48612e52926107e0565b6105d2565b6107cc565b90565b612e5f60c0610ea5565b90565b90612e6c90610433565b9052565b90612e7a90612069565b5f5260205260405f2090565b612e909051610433565b90565b90612e9f60ff9161162a565b9181191691161790565b90612ebe612eb9612ec592612c08565b612c14565b8254612e93565b9055565b90612ed55f199161162a565b9181191691161790565b612ef3612eee612ef8926107e0565b6105d2565b6107e0565b90565b90565b90612f13612f0e612f1a92612edf565b612efb565b8254612ec9565b9055565b612f2890516107cc565b90565b90612f3861ffff9161162a565b9181191691161790565b612f56612f51612f5b926107cc565b6105d2565b6107cc565b90565b90565b90612f76612f71612f7d92612f42565b612f5e565b8254612f2b565b9055565b9061301060a0600561301694612fa45f8201612f9e5f8801612e86565b90612ea9565b612fbd60018201612fb7602088016127d5565b90612efe565b612fd660028201612fd0604088016127d5565b90612efe565b612fef60038201612fe9606088016127d5565b90612efe565b61300860048201613002608088016127d5565b90612efe565b019201612f1e565b90612f61565b565b9061302291612f81565b565b60801b90565b9061303a61ffff60801b91613024565b9181191691161790565b9061305961305461306092612f42565b612f5e565b825461302a565b9055565b90565b61307b61307661308092613064565b6105d2565b6104e4565b90565b61308e615460613067565b90565b906130ac6fffffffffffffffff000000000000000091612be4565b9181191691161790565b906130cb6130c66130d29261061f565b612bc1565b8254613091565b9055565b90565b6130ed6130e86130f2926130d6565b6105d2565b6104e4565b90565b6130ff601c6130d9565b90565b60c01b90565b9061311e67ffffffffffffffff60c01b91613102565b9181191691161790565b9061313d6131386131449261061f565b612bc1565b8254613108565b9055565b90565b61315f61315a61316492613148565b6105d2565b6104e4565b90565b613171603861314b565b90565b91909161317f613d93565b613187613da7565b61318f613dcd565b613197613df3565b61319f61164b565b816131a991613719565b506131b26111ba565b816131bc91613719565b506131c56117ba565b906131cf91613719565b505f806131db90612dd5565b6131e3612de1565b915f8301906131f191612e1d565b60208201906131ff91612e2b565b61320890613e5d565b90600192905f8091613218611ed7565b61322190612e39565b9361322a612e55565b965f88019061323891612e62565b602087019061324691612697565b604086019061325491612697565b61325d9061208b565b606085019061326b91612697565b6132749061208b565b608084019061328291612697565b60a083019061329091612689565b60029061329c91612e70565b906132a691613018565b60016132b3906005612ea9565b6132be906001613044565b60016132c990612b7c565b6132d3905f612bc4565b6132db613083565b6132e5905f6130b6565b6132ed6130f5565b6132f7905f613128565b6132ff6130f5565b61330a906001612bc4565b613312613167565b61331d9060016130b6565b565b9061332b939291612c59565b565b906133489161334361333e826121b2565b613705565b61334a565b565b90613354916137dd565b50565b906133619161332d565b565b600161336f91016107e0565b90565b5090565b634e487b7160e01b5f52603260045260245ffd5b919081101561339a576020020190565b613376565b356133a9816103f2565b90565b6133b5906103e6565b90565b9190916133c3613532565b6133cc5f61208b565b5b806133ea6133e46133df858890613372565b6107e0565b916107e0565b101561346e576134699061341061340b6134068588859161338a565b61339f565b613f24565b61342461341f8487849161338a565b61339f565b61344e7fbeb27701828f515b03069d44da6519b6c491da13ef1ca7082e619959d1f48ddb916133ac565b906134576103d4565b8061346181610a64565b0390a2613363565b6133cd565b50509050565b9061348e916134896134846111ba565b613705565b613490565b565b6134a5826134a060238490610ded565b612bc4565b6134e46134d27f90b37e59a942c5413ce00a3a844a47c20094979897cc653606d925e909885f35926105fd565b926134db6103d4565b918291826104fe565b0390a2565b906134f391613474565b565b613f3a565b61350261200b565b5061351c6135166301ffc9a760e01b6103e6565b916103e6565b1490565b61353061352b6111ba565b613705565b565b61353a613520565b565b5190565b9061354a8261353c565b81101561355b576020809102010190565b613376565b61356a90516103e6565b90565b91908261358a61358461357f5f612dd5565b610553565b91610553565b146136dc57823b6135a361359d5f61208b565b916107e0565b146136d6576135b15f61208b565b5b806135cd6135c76135c28561353c565b6107e0565b916107e0565b10156136d0576135ee6135e96135e4848490613540565b613560565b613b42565b806136096136036135fe5f612dd5565b610553565b91610553565b1415806136b5575b61369e57506136999061363761363061362b858490613540565b613560565b8690614041565b61364a613645848390613540565b613560565b8561367e6136787f12557f25e458d9682d7c959b5a960bc9332e8b7af1120b54a333bfc1ff282b39936133ac565b916105fd565b916136876103d4565b8061369181610a64565b0390a3613363565b6135b2565b6136b06136ab8385613540565b613560565b613fe8565b50806136c96136c387610553565b91610553565b1415613611565b50509050565b82613f99565b613f7d565b7f02dd7bc7dec4dceedda775e58dd541e08a116c6c53815c0bd028192f7b62680090565b613717906137116137d0565b9061407a565b565b61372161200b565b5061372a6136e1565b61373e61373883859061261c565b15610433565b5f146137c957613768906137635f61375b8160019401869061219c565b018590612606565b612ea9565b906137716137d0565b906137ae6137a86137a27f2f8788117e7eff1d82e926ec794901d17c78024a50270940304540a733656f0d95612069565b926105fd565b926105fd565b926137b76103d4565b806137c181610a64565b0390a4600190565b5050505f90565b6137d861258c565b503390565b6137e561200b565b506137ee6136e1565b6137f982849061261c565b5f14613883576138229061381d5f61381581809401869061219c565b018590612606565b612ea9565b9061382b6137d0565b9061386861386261385c7ff6391f5c32d9c69d2a47ea670b442974b53935d1edc7fd64eb21e047a839171b95612069565b926105fd565b926105fd565b926138716103d4565b8061387b81610a64565b0390a4600190565b5050505f90565b613893906105f1565b90565b61389f3061388a565b6138d16138cb7f0000000000000000000000000000000000000000000000000000000000000000610553565b91610553565b1480156138fb575b6138df57565b5f63703e46dd60e11b8152806138f760048201610a64565b0390fd5b506139046140b5565b6139366139307f0000000000000000000000000000000000000000000000000000000000000000610553565b91610553565b14156138d9565b5061394e6139496111ba565b613705565b565b6139599061393d565b565b613964906105d5565b90565b6139709061395b565b90565b61397c906105f1565b90565b9050519061398c826108b6565b565b906020828203126139a7576139a4915f0161397f565b90565b6103de565b91906139da60206139c46139bf86613967565b613973565b6352d1902d906139d26103d4565b93849261227e565b825281806139ea60048201610a64565b03915afa80915f92613a7a575b50155f14613a2b575050906001613a0c57505b565b613a27905f918291634c9c8ce360e01b8352600483016113ba565b0390fd5b9283613a46613a40613a3b6124b7565b6107bc565b916107bc565b03613a5b57613a569293506140db565b613a0a565b613a76845f918291632a87526960e21b835260048301610abb565b0390fd5b613a9c91925060203d8111613aa3575b613a948183610e7c565b81019061398e565b905f6139f7565b503d613a8a565b613ab33061388a565b613ae5613adf7f0000000000000000000000000000000000000000000000000000000000000000610553565b91610553565b03613aec57565b5f63703e46dd60e11b815280613b0460048201610a64565b0390fd5b7fcd5ed15c6e187e77e9aee88184c21f4f2182ab5827cb3b7e07fbedcd63f0330090565b90613b36906133ac565b5f5260205260405f2090565b613b59613b5e91613b5161258c565b506021613b2c565b6125c5565b90565b90613b6b906105fd565b5f5260205260405f2090565b90565b5490565b5f5260205f2090565b613b9081613b7a565b821015613baa57613ba2600491613b7e565b910201905f90565b613376565b90565b60ff1690565b613bc4613bc991610651565b613bb2565b90565b613bd69054613bb8565b90565b60081c90565b613beb613bf091613bd9565b6125a6565b90565b613bfd9054613bdf565b90565b613c0a6040610ea5565b90565b90613c43613c3a5f613c1d613c00565b94613c34613c2c838301613bcc565b838801612e1d565b01613bf3565b60208401612e2b565b565b613c4e90613c0d565b90565b613c60613c66919392936107e0565b926107e0565b8201809211613c7157565b6127e2565b929192613c94613c8f613c8761204f565b926015613b61565b613b77565b93613c9e85613b7a565b93613ca85f61208b565b5b80613cbc613cb6886107e0565b916107e0565b1015613d5c57613cd6613cd0888390613b87565b50613baf565b613ce15f82016125c5565b613cf3613ced88610553565b91610553565b1480613d2f575b613d0e575b50613d0990613363565b613ca9565b613d099194613d226001613d289301610728565b90613c51565b9390613cff565b50613d44613d3f60028301613c45565b613e5d565b613d56613d50866107bc565b916107bc565b14613cfa565b50935050925050565b7ff0c57e16840df040f15088dc2f81fe391c3923bec73e23a9662efc9c229c6a0090565b613d91614164565b565b613d9b613d89565b565b613da5614164565b565b613daf613d9d565b565b613db9614164565b613dc1613dc3565b565b613dcb6141bf565b565b613dd5613db1565b565b613ddf614164565b613de7613de9565b565b613df1614205565b565b613dfb613dd7565b565b613e079051612e11565b90565b613e149051610553565b90565b613e2090612e11565b90565b613e2c90613e17565b9052565b916020613e51929493613e4a60408201965f830190613e23565b01906113ad565b565b60200190565b5190565b613e65612198565b50613ea7613e806020613e795f8501613dfd565b9301613e0a565b91613e98613e8c6103d4565b93849260208401613e30565b60208201810382520382610e7c565b613eb9613eb382613e59565b91613e53565b2090565b1b90565b91906008613ee1910291613edb60018060a01b0384613ebd565b92613ebd565b9181191691161790565b90565b9190613f04613eff613f0c936105fd565b613eeb565b908354613ec1565b9055565b613f2291613f1c61258c565b91613eee565b565b5f613f33613f38926021613b2c565b613f10565b565b613f4d63ffffffff60e01b5f3516613b42565b80613f68613f62613f5d5f612dd5565b610553565b91610553565b036142435763ffffffff60e01b5f3516614224565b5f63d92e233d60e01b815280613f9560048201610a64565b0390fd5b613fb4905f9182916322a2d07b60e21b8352600483016113ba565b0390fd5b613fc1906103e6565b9052565b916020613fe6929493613fdf60408201965f830190613fb8565b01906113ad565b565b6140025f9283926310ae11a960e31b845260048401613fc5565b0390fd5b9061401760018060a01b039161162a565b9181191691161790565b9061403661403161403d926105fd565b613eeb565b8254614006565b9055565b61405061405592916021613b2c565b614021565b565b91602061407892949361407160408201965f8301906113ad565b01906107bf565b565b9061408f61408983839061261c565b15610433565b614097575050565b6140b15f92839263e2517d3f60e01b845260048401614057565b0390fd5b6140bd61258c565b506140d85f6140d26140cd6124b7565b614261565b016125c5565b90565b906140e582614264565b816141107fbc7cd75a20ee27fd9adebab32041f755214dbc6bffa90cc0225b39da2e5c2d3b916105fd565b906141196103d4565b8061412381610a64565b0390a261412f81613e59565b61414161413b5f61208b565b916107e0565b115f146141555761415191614334565b505b565b505061415f6142b9565b614153565b61417561416f614363565b15610433565b61417b57565b5f631afcd79f60e31b81528061419360048201610a64565b0390fd5b61419f614164565b6141a76141a9565b565b6141bd6141b4613b08565b5f809101612ea9565b565b6141c7614197565b565b6141d1614164565b6141d96141e8565b565b6141e56001611a76565b90565b6142036141f3614381565b5f6141fc6141db565b9101612efe565b565b61420d6141c9565b565b9190614222905f60208501940190613fb8565b565b61423f905f91829163c2a825f560e01b83526004830161420f565b0390fd5b5f8091368280378136915af43d5f803e5f1461425d573d5ff35b3d5ffd5b90565b803b6142786142725f61208b565b916107e0565b1461429a57614298905f61429261428d6124b7565b614261565b01614021565b565b6142b5905f918291634c9c8ce360e01b8352600483016113ba565b0390fd5b346142cc6142c65f61208b565b916107e0565b116142d357565b5f63b398979f60e01b8152806142eb60048201610a64565b0390fd5b606090565b9061430661430183610eba565b610ea5565b918252565b3d5f146143265761431b3d6142f4565b903d5f602084013e5b565b61432e6142ef565b90614324565b5f80614360936143426142ef565b508390602081019051915af49061435761430b565b909190916143a5565b90565b61436b61200b565b5061437e5f614378613d65565b01612b6f565b90565b7f9b779b17422d0df92223018b32b4d1fa46e071723d6817e2486d003becc55f0090565b906143b9906143b26142ef565b5015610433565b5f146143c55750614429565b6143ce82613e59565b6143e06143da5f61208b565b916107e0565b148061440e575b6143ef575090565b61440a905f918291639996b31560e01b8352600483016113ba565b0390fd5b50803b61442361441d5f61208b565b916107e0565b146143e7565b61443281613e59565b61444461443e5f61208b565b916107e0565b115f1461445357805190602001fd5b5f63d6bda27560e01b81528061446b60048201610a64565b0390fdfea164736f6c634300081a000a","linkReferences":{}},"methodIdentifiers":{"ADMIN_ROLE()":"75b238fc","ASSET_MANAGER_ROLE()":"a4b32de8","BPS_DENOMINATOR()":"e1a45218","COMMISSION_CHANGE_DELAY()":"d45ff582","DEFAULT_ADMIN_ROLE()":"a217fddf","LOCK_ONE_MONTH()":"9e870585","LOCK_SIX_MONTHS()":"f3c9b311","LOCK_THREE_MONTHS()":"d27a6f06","LOCK_TWO_MONTHS()":"7df92ada","MIN_LOCK_AMOUNT()":"dd764abf","MULTIPLIER_NONE()":"4962f88f","MULTIPLIER_ONE_MONTH()":"18056dc2","MULTIPLIER_SIX_MONTHS()":"453eccea","MULTIPLIER_THREE_MONTHS()":"a7fa6f98","MULTIPLIER_TWO_MONTHS()":"54de2320","PRECISION()":"aaf5eb68","SLASHER_ROLE()":"5095af64","TANGLE_ROLE()":"602356e3","UPGRADE_INTERFACE_VERSION()":"ad3cb1cc","VIRTUAL_ASSETS()":"b6608409","VIRTUAL_SHARES()":"88c47f68","blueprintSlashCount(uint64,address)":"4e9c929a","clearFacetSelectors(bytes4[])":"e07dec29","currentRound()":"8a19c8bc","delegationBondLessDelay()":"ba05bbf5","facetForSelector(bytes4)":"90837ff4","getAccumulatedDust(address)":"49147411","getAssetAdapter(address)":"8a7fe60f","getOperatorSlashFactor(address,bytes32)":"12d91c88","getPendingSlashCount(address)":"9480e4dd","getRoleAdmin(bytes32)":"248a9ca3","getSlashCount(address)":"66c36875","getSlashCountForBlueprint(uint64,address)":"c550d938","getSlashCountForService(uint64,address)":"72b5032d","getSlashImpact(address,uint64,address)":"9494f426","getSlashRecord(address,uint64)":"a457af3d","getSnapshot(uint64,address)":"c07449e2","grantRole(bytes32,address)":"2f2ff15d","hasRole(bytes32,address)":"91d14854","initialize(address,uint256,uint256,uint16)":"cbb6d6bd","lastRoundAdvance()":"05d64e38","leaveDelegatorsDelay()":"db8a173a","leaveOperatorsDelay()":"4de8addc","nativeEnabled()":"77ab2cf3","nextSlashId(address)":"96085673","operatorCommissionBps()":"32273f61","paused()":"5c975abb","proxiableUUID()":"52d1902d","registerFacet(address)":"46d163aa","registerFacetSelectors(address,bytes4[])":"19e82e61","renounceRole(bytes32,address)":"36568abe","requireAdapters()":"b54b2b9e","resetPendingSlashCount(address,uint64)":"e27e05c1","revokeRole(bytes32,address)":"d547741f","roundDuration()":"f7cb789a","serviceSlashCount(uint64,address)":"9722f4b9","slashHistory(address,uint64)":"0aa8b110","supportsInterface(bytes4)":"01ffc9a7","upgradeToAndCall(address,bytes)":"4f1ef286"},"id":45}