{"abi":[{"type":"constructor","inputs":[],"stateMutability":"nonpayable"},{"type":"fallback","stateMutability":"payable"},{"type":"receive","stateMutability":"payable"},{"type":"function","name":"ADMIN_ROLE","inputs":[],"outputs":[{"name":"","type":"bytes32","internalType":"bytes32"}],"stateMutability":"view"},{"type":"function","name":"ASSET_MANAGER_ROLE","inputs":[],"outputs":[{"name":"","type":"bytes32","internalType":"bytes32"}],"stateMutability":"view"},{"type":"function","name":"BPS_DENOMINATOR","inputs":[],"outputs":[{"name":"","type":"uint256","internalType":"uint256"}],"stateMutability":"view"},{"type":"function","name":"COMMISSION_CHANGE_DELAY","inputs":[],"outputs":[{"name":"","type":"uint64","internalType":"uint64"}],"stateMutability":"view"},{"type":"function","name":"DEFAULT_ADMIN_ROLE","inputs":[],"outputs":[{"name":"","type":"bytes32","internalType":"bytes32"}],"stateMutability":"view"},{"type":"function","name":"LOCK_ONE_MONTH","inputs":[],"outputs":[{"name":"","type":"uint64","internalType":"uint64"}],"stateMutability":"view"},{"type":"function","name":"LOCK_SIX_MONTHS","inputs":[],"outputs":[{"name":"","type":"uint64","internalType":"uint64"}],"stateMutability":"view"},{"type":"function","name":"LOCK_THREE_MONTHS","inputs":[],"outputs":[{"name":"","type":"uint64","internalType":"uint64"}],"stateMutability":"view"},{"type":"function","name":"LOCK_TWO_MONTHS","inputs":[],"outputs":[{"name":"","type":"uint64","internalType":"uint64"}],"stateMutability":"view"},{"type":"function","name":"MIN_LOCK_AMOUNT","inputs":[],"outputs":[{"name":"","type":"uint256","internalType":"uint256"}],"stateMutability":"view"},{"type":"function","name":"MULTIPLIER_NONE","inputs":[],"outputs":[{"name":"","type":"uint16","internalType":"uint16"}],"stateMutability":"view"},{"type":"function","name":"MULTIPLIER_ONE_MONTH","inputs":[],"outputs":[{"name":"","type":"uint16","internalType":"uint16"}],"stateMutability":"view"},{"type":"function","name":"MULTIPLIER_SIX_MONTHS","inputs":[],"outputs":[{"name":"","type":"uint16","internalType":"uint16"}],"stateMutability":"view"},{"type":"function","name":"MULTIPLIER_THREE_MONTHS","inputs":[],"outputs":[{"name":"","type":"uint16","internalType":"uint16"}],"stateMutability":"view"},{"type":"function","name":"MULTIPLIER_TWO_MONTHS","inputs":[],"outputs":[{"name":"","type":"uint16","internalType":"uint16"}],"stateMutability":"view"},{"type":"function","name":"PRECISION","inputs":[],"outputs":[{"name":"","type":"uint256","internalType":"uint256"}],"stateMutability":"view"},{"type":"function","name":"SLASHER_ROLE","inputs":[],"outputs":[{"name":"","type":"bytes32","internalType":"bytes32"}],"stateMutability":"view"},{"type":"function","name":"TANGLE_ROLE","inputs":[],"outputs":[{"name":"","type":"bytes32","internalType":"bytes32"}],"stateMutability":"view"},{"type":"function","name":"UPGRADE_INTERFACE_VERSION","inputs":[],"outputs":[{"name":"","type":"string","internalType":"string"}],"stateMutability":"view"},{"type":"function","name":"VIRTUAL_ASSETS","inputs":[],"outputs":[{"name":"","type":"uint256","internalType":"uint256"}],"stateMutability":"view"},{"type":"function","name":"VIRTUAL_SHARES","inputs":[],"outputs":[{"name":"","type":"uint256","internalType":"uint256"}],"stateMutability":"view"},{"type":"function","name":"blueprintSlashCount","inputs":[{"name":"","type":"uint64","internalType":"uint64"},{"name":"","type":"address","internalType":"address"}],"outputs":[{"name":"","type":"uint64","internalType":"uint64"}],"stateMutability":"view"},{"type":"function","name":"clearFacetSelectors","inputs":[{"name":"selectors","type":"bytes4[]","internalType":"bytes4[]"}],"outputs":[],"stateMutability":"nonpayable"},{"type":"function","name":"currentRound","inputs":[],"outputs":[{"name":"","type":"uint64","internalType":"uint64"}],"stateMutability":"view"},{"type":"function","name":"delegationBondLessDelay","inputs":[],"outputs":[{"name":"","type":"uint64","internalType":"uint64"}],"stateMutability":"view"},{"type":"function","name":"facetForSelector","inputs":[{"name":"selector","type":"bytes4","internalType":"bytes4"}],"outputs":[{"name":"","type":"address","internalType":"address"}],"stateMutability":"view"},{"type":"function","name":"getAccumulatedDust","inputs":[{"name":"token","type":"address","internalType":"address"}],"outputs":[{"name":"","type":"uint256","internalType":"uint256"}],"stateMutability":"view"},{"type":"function","name":"getAssetAdapter","inputs":[{"name":"token","type":"address","internalType":"address"}],"outputs":[{"name":"","type":"address","internalType":"address"}],"stateMutability":"view"},{"type":"function","name":"getOperatorSlashFactor","inputs":[{"name":"operator","type":"address","internalType":"address"},{"name":"assetHash","type":"bytes32","internalType":"bytes32"}],"outputs":[{"name":"","type":"uint256","internalType":"uint256"}],"stateMutability":"view"},{"type":"function","name":"getPendingSlashCount","inputs":[{"name":"operator","type":"address","internalType":"address"}],"outputs":[{"name":"","type":"uint64","internalType":"uint64"}],"stateMutability":"view"},{"type":"function","name":"getRoleAdmin","inputs":[{"name":"role","type":"bytes32","internalType":"bytes32"}],"outputs":[{"name":"","type":"bytes32","internalType":"bytes32"}],"stateMutability":"view"},{"type":"function","name":"getSlashCount","inputs":[{"name":"operator","type":"address","internalType":"address"}],"outputs":[{"name":"","type":"uint64","internalType":"uint64"}],"stateMutability":"view"},{"type":"function","name":"getSlashCountForBlueprint","inputs":[{"name":"blueprintId","type":"uint64","internalType":"uint64"},{"name":"operator","type":"address","internalType":"address"}],"outputs":[{"name":"","type":"uint64","internalType":"uint64"}],"stateMutability":"view"},{"type":"function","name":"getSlashCountForService","inputs":[{"name":"serviceId","type":"uint64","internalType":"uint64"},{"name":"operator","type":"address","internalType":"address"}],"outputs":[{"name":"","type":"uint64","internalType":"uint64"}],"stateMutability":"view"},{"type":"function","name":"getSlashImpact","inputs":[{"name":"operator","type":"address","internalType":"address"},{"name":"slashId","type":"uint64","internalType":"uint64"},{"name":"delegator","type":"address","internalType":"address"}],"outputs":[{"name":"lostAmount","type":"uint256","internalType":"uint256"}],"stateMutability":"view"},{"type":"function","name":"getSlashRecord","inputs":[{"name":"operator","type":"address","internalType":"address"},{"name":"slashId","type":"uint64","internalType":"uint64"}],"outputs":[{"name":"","type":"tuple","internalType":"struct SlashingManager.SlashRecord","components":[{"name":"round","type":"uint64","internalType":"uint64"},{"name":"serviceId","type":"uint64","internalType":"uint64"},{"name":"blueprintId","type":"uint64","internalType":"uint64"},{"name":"assetHash","type":"bytes32","internalType":"bytes32"},{"name":"slashBps","type":"uint16","internalType":"uint16"},{"name":"totalSlashed","type":"uint256","internalType":"uint256"},{"name":"exchangeRateBefore","type":"uint256","internalType":"uint256"},{"name":"exchangeRateAfter","type":"uint256","internalType":"uint256"},{"name":"evidence","type":"bytes32","internalType":"bytes32"}]}],"stateMutability":"view"},{"type":"function","name":"getSnapshot","inputs":[{"name":"round","type":"uint64","internalType":"uint64"},{"name":"operator","type":"address","internalType":"address"}],"outputs":[{"name":"","type":"tuple","internalType":"struct Types.OperatorSnapshot","components":[{"name":"stake","type":"uint256","internalType":"uint256"},{"name":"totalDelegated","type":"uint256","internalType":"uint256"}]}],"stateMutability":"view"},{"type":"function","name":"grantRole","inputs":[{"name":"role","type":"bytes32","internalType":"bytes32"},{"name":"account","type":"address","internalType":"address"}],"outputs":[],"stateMutability":"nonpayable"},{"type":"function","name":"hasRole","inputs":[{"name":"role","type":"bytes32","internalType":"bytes32"},{"name":"account","type":"address","internalType":"address"}],"outputs":[{"name":"","type":"bool","internalType":"bool"}],"stateMutability":"view"},{"type":"function","name":"initialize","inputs":[{"name":"admin","type":"address","internalType":"address"},{"name":"nativeMinOperatorStake","type":"uint256","internalType":"uint256"},{"name":"nativeMinDelegation","type":"uint256","internalType":"uint256"},{"name":"_operatorCommissionBps","type":"uint16","internalType":"uint16"}],"outputs":[],"stateMutability":"nonpayable"},{"type":"function","name":"lastRoundAdvance","inputs":[],"outputs":[{"name":"","type":"uint64","internalType":"uint64"}],"stateMutability":"view"},{"type":"function","name":"leaveDelegatorsDelay","inputs":[],"outputs":[{"name":"","type":"uint64","internalType":"uint64"}],"stateMutability":"view"},{"type":"function","name":"leaveOperatorsDelay","inputs":[],"outputs":[{"name":"","type":"uint64","internalType":"uint64"}],"stateMutability":"view"},{"type":"function","name":"nativeEnabled","inputs":[],"outputs":[{"name":"","type":"bool","internalType":"bool"}],"stateMutability":"view"},{"type":"function","name":"nextSlashId","inputs":[{"name":"","type":"address","internalType":"address"}],"outputs":[{"name":"","type":"uint64","internalType":"uint64"}],"stateMutability":"view"},{"type":"function","name":"operatorCommissionBps","inputs":[],"outputs":[{"name":"","type":"uint16","internalType":"uint16"}],"stateMutability":"view"},{"type":"function","name":"paused","inputs":[],"outputs":[{"name":"","type":"bool","internalType":"bool"}],"stateMutability":"view"},{"type":"function","name":"proxiableUUID","inputs":[],"outputs":[{"name":"","type":"bytes32","internalType":"bytes32"}],"stateMutability":"view"},{"type":"function","name":"registerFacet","inputs":[{"name":"facet","type":"address","internalType":"address"}],"outputs":[],"stateMutability":"nonpayable"},{"type":"function","name":"registerFacetSelectors","inputs":[{"name":"facet","type":"address","internalType":"address"},{"name":"selectors","type":"bytes4[]","internalType":"bytes4[]"}],"outputs":[],"stateMutability":"nonpayable"},{"type":"function","name":"renounceRole","inputs":[{"name":"role","type":"bytes32","internalType":"bytes32"},{"name":"callerConfirmation","type":"address","internalType":"address"}],"outputs":[],"stateMutability":"nonpayable"},{"type":"function","name":"requireAdapters","inputs":[],"outputs":[{"name":"","type":"bool","internalType":"bool"}],"stateMutability":"view"},{"type":"function","name":"resetPendingSlashCount","inputs":[{"name":"operator","type":"address","internalType":"address"},{"name":"count","type":"uint64","internalType":"uint64"}],"outputs":[],"stateMutability":"nonpayable"},{"type":"function","name":"revokeRole","inputs":[{"name":"role","type":"bytes32","internalType":"bytes32"},{"name":"account","type":"address","internalType":"address"}],"outputs":[],"stateMutability":"nonpayable"},{"type":"function","name":"roundDuration","inputs":[],"outputs":[{"name":"","type":"uint64","internalType":"uint64"}],"stateMutability":"view"},{"type":"function","name":"serviceSlashCount","inputs":[{"name":"","type":"uint64","internalType":"uint64"},{"name":"","type":"address","internalType":"address"}],"outputs":[{"name":"","type":"uint64","internalType":"uint64"}],"stateMutability":"view"},{"type":"function","name":"slashHistory","inputs":[{"name":"","type":"address","internalType":"address"},{"name":"","type":"uint64","internalType":"uint64"}],"outputs":[{"name":"round","type":"uint64","internalType":"uint64"},{"name":"serviceId","type":"uint64","internalType":"uint64"},{"name":"blueprintId","type":"uint64","internalType":"uint64"},{"name":"assetHash","type":"bytes32","internalType":"bytes32"},{"name":"slashBps","type":"uint16","internalType":"uint16"},{"name":"totalSlashed","type":"uint256","internalType":"uint256"},{"name":"exchangeRateBefore","type":"uint256","internalType":"uint256"},{"name":"exchangeRateAfter","type":"uint256","internalType":"uint256"},{"name":"evidence","type":"bytes32","internalType":"bytes32"}],"stateMutability":"view"},{"type":"function","name":"supportsInterface","inputs":[{"name":"interfaceId","type":"bytes4","internalType":"bytes4"}],"outputs":[{"name":"","type":"bool","internalType":"bool"}],"stateMutability":"view"},{"type":"function","name":"upgradeToAndCall","inputs":[{"name":"newImplementation","type":"address","internalType":"address"},{"name":"data","type":"bytes","internalType":"bytes"}],"outputs":[],"stateMutability":"payable"},{"type":"event","name":"BlueprintAddedToDelegation","inputs":[{"name":"delegator","type":"address","indexed":true,"internalType":"address"},{"name":"delegationIndex","type":"uint256","indexed":true,"internalType":"uint256"},{"name":"blueprintId","type":"uint64","indexed":false,"internalType":"uint64"}],"anonymous":false},{"type":"event","name":"BlueprintRemovedFromDelegation","inputs":[{"name":"delegator","type":"address","indexed":true,"internalType":"address"},{"name":"delegationIndex","type":"uint256","indexed":true,"internalType":"uint256"},{"name":"blueprintId","type":"uint64","indexed":false,"internalType":"uint64"}],"anonymous":false},{"type":"event","name":"Delegated","inputs":[{"name":"delegator","type":"address","indexed":true,"internalType":"address"},{"name":"operator","type":"address","indexed":true,"internalType":"address"},{"name":"token","type":"address","indexed":true,"internalType":"address"},{"name":"amount","type":"uint256","indexed":false,"internalType":"uint256"},{"name":"shares","type":"uint256","indexed":false,"internalType":"uint256"},{"name":"selectionMode","type":"uint8","indexed":false,"internalType":"enum Types.BlueprintSelectionMode"}],"anonymous":false},{"type":"event","name":"DelegatorUnstakeExecuted","inputs":[{"name":"delegator","type":"address","indexed":true,"internalType":"address"},{"name":"operator","type":"address","indexed":true,"internalType":"address"},{"name":"token","type":"address","indexed":true,"internalType":"address"},{"name":"shares","type":"uint256","indexed":false,"internalType":"uint256"},{"name":"amount","type":"uint256","indexed":false,"internalType":"uint256"}],"anonymous":false},{"type":"event","name":"DelegatorUnstakeScheduled","inputs":[{"name":"delegator","type":"address","indexed":true,"internalType":"address"},{"name":"operator","type":"address","indexed":true,"internalType":"address"},{"name":"token","type":"address","indexed":true,"internalType":"address"},{"name":"shares","type":"uint256","indexed":false,"internalType":"uint256"},{"name":"estimatedAmount","type":"uint256","indexed":false,"internalType":"uint256"},{"name":"readyRound","type":"uint64","indexed":false,"internalType":"uint64"}],"anonymous":false},{"type":"event","name":"Deposited","inputs":[{"name":"delegator","type":"address","indexed":true,"internalType":"address"},{"name":"token","type":"address","indexed":true,"internalType":"address"},{"name":"amount","type":"uint256","indexed":false,"internalType":"uint256"},{"name":"lock","type":"uint8","indexed":false,"internalType":"enum Types.LockMultiplier"}],"anonymous":false},{"type":"event","name":"DustAccumulated","inputs":[{"name":"token","type":"address","indexed":true,"internalType":"address"},{"name":"amount","type":"uint256","indexed":false,"internalType":"uint256"},{"name":"totalDust","type":"uint256","indexed":false,"internalType":"uint256"}],"anonymous":false},{"type":"event","name":"DustSwept","inputs":[{"name":"token","type":"address","indexed":true,"internalType":"address"},{"name":"recipient","type":"address","indexed":true,"internalType":"address"},{"name":"amount","type":"uint256","indexed":false,"internalType":"uint256"}],"anonymous":false},{"type":"event","name":"ExpiredLocksHarvested","inputs":[{"name":"delegator","type":"address","indexed":true,"internalType":"address"},{"name":"token","type":"address","indexed":true,"internalType":"address"},{"name":"count","type":"uint256","indexed":false,"internalType":"uint256"},{"name":"totalAmount","type":"uint256","indexed":false,"internalType":"uint256"}],"anonymous":false},{"type":"event","name":"FacetRegistered","inputs":[{"name":"facet","type":"address","indexed":true,"internalType":"address"}],"anonymous":false},{"type":"event","name":"FacetSelectorCleared","inputs":[{"name":"selector","type":"bytes4","indexed":true,"internalType":"bytes4"}],"anonymous":false},{"type":"event","name":"FacetSelectorSet","inputs":[{"name":"selector","type":"bytes4","indexed":true,"internalType":"bytes4"},{"name":"facet","type":"address","indexed":true,"internalType":"address"}],"anonymous":false},{"type":"event","name":"Initialized","inputs":[{"name":"version","type":"uint64","indexed":false,"internalType":"uint64"}],"anonymous":false},{"type":"event","name":"OperatorBlueprintAdded","inputs":[{"name":"operator","type":"address","indexed":true,"internalType":"address"},{"name":"blueprintId","type":"uint64","indexed":true,"internalType":"uint64"}],"anonymous":false},{"type":"event","name":"OperatorBlueprintRemoved","inputs":[{"name":"operator","type":"address","indexed":true,"internalType":"address"},{"name":"blueprintId","type":"uint64","indexed":true,"internalType":"uint64"}],"anonymous":false},{"type":"event","name":"OperatorDelegationModeSet","inputs":[{"name":"operator","type":"address","indexed":true,"internalType":"address"},{"name":"mode","type":"uint8","indexed":false,"internalType":"enum Types.DelegationMode"}],"anonymous":false},{"type":"event","name":"OperatorLeavingScheduled","inputs":[{"name":"operator","type":"address","indexed":true,"internalType":"address"},{"name":"readyRound","type":"uint64","indexed":false,"internalType":"uint64"}],"anonymous":false},{"type":"event","name":"OperatorLeft","inputs":[{"name":"operator","type":"address","indexed":true,"internalType":"address"}],"anonymous":false},{"type":"event","name":"OperatorRegistered","inputs":[{"name":"operator","type":"address","indexed":true,"internalType":"address"},{"name":"stake","type":"uint256","indexed":false,"internalType":"uint256"}],"anonymous":false},{"type":"event","name":"OperatorStakeIncreased","inputs":[{"name":"operator","type":"address","indexed":true,"internalType":"address"},{"name":"amount","type":"uint256","indexed":false,"internalType":"uint256"}],"anonymous":false},{"type":"event","name":"OperatorUnstakeExecuted","inputs":[{"name":"operator","type":"address","indexed":true,"internalType":"address"},{"name":"amount","type":"uint256","indexed":false,"internalType":"uint256"}],"anonymous":false},{"type":"event","name":"OperatorUnstakeScheduled","inputs":[{"name":"operator","type":"address","indexed":true,"internalType":"address"},{"name":"amount","type":"uint256","indexed":false,"internalType":"uint256"},{"name":"readyRound","type":"uint64","indexed":false,"internalType":"uint64"}],"anonymous":false},{"type":"event","name":"OperatorWhitelistUpdated","inputs":[{"name":"operator","type":"address","indexed":true,"internalType":"address"},{"name":"delegator","type":"address","indexed":true,"internalType":"address"},{"name":"approved","type":"bool","indexed":false,"internalType":"bool"}],"anonymous":false},{"type":"event","name":"Paused","inputs":[{"name":"account","type":"address","indexed":false,"internalType":"address"}],"anonymous":false},{"type":"event","name":"PendingSlashCountReset","inputs":[{"name":"operator","type":"address","indexed":true,"internalType":"address"},{"name":"newCount","type":"uint64","indexed":false,"internalType":"uint64"}],"anonymous":false},{"type":"event","name":"PendingSlashDecremented","inputs":[{"name":"operator","type":"address","indexed":true,"internalType":"address"},{"name":"newCount","type":"uint64","indexed":false,"internalType":"uint64"}],"anonymous":false},{"type":"event","name":"PendingSlashIncremented","inputs":[{"name":"operator","type":"address","indexed":true,"internalType":"address"},{"name":"newCount","type":"uint64","indexed":false,"internalType":"uint64"}],"anonymous":false},{"type":"event","name":"RoleAdminChanged","inputs":[{"name":"role","type":"bytes32","indexed":true,"internalType":"bytes32"},{"name":"previousAdminRole","type":"bytes32","indexed":true,"internalType":"bytes32"},{"name":"newAdminRole","type":"bytes32","indexed":true,"internalType":"bytes32"}],"anonymous":false},{"type":"event","name":"RoleGranted","inputs":[{"name":"role","type":"bytes32","indexed":true,"internalType":"bytes32"},{"name":"account","type":"address","indexed":true,"internalType":"address"},{"name":"sender","type":"address","indexed":true,"internalType":"address"}],"anonymous":false},{"type":"event","name":"RoleRevoked","inputs":[{"name":"role","type":"bytes32","indexed":true,"internalType":"bytes32"},{"name":"account","type":"address","indexed":true,"internalType":"address"},{"name":"sender","type":"address","indexed":true,"internalType":"address"}],"anonymous":false},{"type":"event","name":"SlashRecorded","inputs":[{"name":"operator","type":"address","indexed":true,"internalType":"address"},{"name":"slashId","type":"uint64","indexed":true,"internalType":"uint64"},{"name":"assetHash","type":"bytes32","indexed":false,"internalType":"bytes32"},{"name":"slashBps","type":"uint16","indexed":false,"internalType":"uint16"},{"name":"totalSlashed","type":"uint256","indexed":false,"internalType":"uint256"},{"name":"exchangeRateBefore","type":"uint256","indexed":false,"internalType":"uint256"},{"name":"exchangeRateAfter","type":"uint256","indexed":false,"internalType":"uint256"}],"anonymous":false},{"type":"event","name":"Slashed","inputs":[{"name":"operator","type":"address","indexed":true,"internalType":"address"},{"name":"serviceId","type":"uint64","indexed":true,"internalType":"uint64"},{"name":"blueprintId","type":"uint64","indexed":true,"internalType":"uint64"},{"name":"assetHash","type":"bytes32","indexed":false,"internalType":"bytes32"},{"name":"slashBps","type":"uint16","indexed":false,"internalType":"uint16"},{"name":"operatorSlashed","type":"uint256","indexed":false,"internalType":"uint256"},{"name":"delegatorsSlashed","type":"uint256","indexed":false,"internalType":"uint256"},{"name":"exchangeRateAfter","type":"uint256","indexed":false,"internalType":"uint256"}],"anonymous":false},{"type":"event","name":"SlashedForService","inputs":[{"name":"operator","type":"address","indexed":true,"internalType":"address"},{"name":"serviceId","type":"uint64","indexed":true,"internalType":"uint64"},{"name":"blueprintId","type":"uint64","indexed":true,"internalType":"uint64"},{"name":"totalSlashed","type":"uint256","indexed":false,"internalType":"uint256"},{"name":"commitmentCount","type":"uint256","indexed":false,"internalType":"uint256"}],"anonymous":false},{"type":"event","name":"Unpaused","inputs":[{"name":"account","type":"address","indexed":false,"internalType":"address"}],"anonymous":false},{"type":"event","name":"Upgraded","inputs":[{"name":"implementation","type":"address","indexed":true,"internalType":"address"}],"anonymous":false},{"type":"event","name":"WithdrawScheduled","inputs":[{"name":"delegator","type":"address","indexed":true,"internalType":"address"},{"name":"token","type":"address","indexed":true,"internalType":"address"},{"name":"amount","type":"uint256","indexed":false,"internalType":"uint256"},{"name":"readyRound","type":"uint64","indexed":false,"internalType":"uint64"}],"anonymous":false},{"type":"event","name":"Withdrawn","inputs":[{"name":"delegator","type":"address","indexed":true,"internalType":"address"},{"name":"token","type":"address","indexed":true,"internalType":"address"},{"name":"amount","type":"uint256","indexed":false,"internalType":"uint256"}],"anonymous":false},{"type":"error","name":"AccessControlBadConfirmation","inputs":[]},{"type":"error","name":"AccessControlUnauthorizedAccount","inputs":[{"name":"account","type":"address","internalType":"address"},{"name":"neededRole","type":"bytes32","internalType":"bytes32"}]},{"type":"error","name":"AddressEmptyCode","inputs":[{"name":"target","type":"address","internalType":"address"}]},{"type":"error","name":"ERC1967InvalidImplementation","inputs":[{"name":"implementation","type":"address","internalType":"address"}]},{"type":"error","name":"ERC1967NonPayable","inputs":[]},{"type":"error","name":"EnforcedPause","inputs":[]},{"type":"error","name":"ExpectedPause","inputs":[]},{"type":"error","name":"FailedCall","inputs":[]},{"type":"error","name":"InvalidInitialization","inputs":[]},{"type":"error","name":"NotAContract","inputs":[{"name":"account","type":"address","internalType":"address"}]},{"type":"error","name":"NotInitializing","inputs":[]},{"type":"error","name":"ReentrancyGuardReentrantCall","inputs":[]},{"type":"error","name":"SelectorAlreadyRegistered","inputs":[{"name":"selector","type":"bytes4","internalType":"bytes4"},{"name":"existingFacet","type":"address","internalType":"address"}]},{"type":"error","name":"UUPSUnauthorizedCallContext","inputs":[]},{"type":"error","name":"UUPSUnsupportedProxiableUUID","inputs":[{"name":"slot","type":"bytes32","internalType":"bytes32"}]},{"type":"error","name":"UnknownSelector","inputs":[{"name":"selector","type":"bytes4","internalType":"bytes4"}]},{"type":"error","name":"ZeroAddress","inputs":[]}],"bytecode":{"object":"0x60a080604052346100e857306080527ff0c57e16840df040f15088dc2f81fe391c3923bec73e23a9662efc9c229c6a005460ff8160401c166100d9576002600160401b03196001600160401b03821601610073575b6040516124c190816100ed8239608051818181610b0f01526116960152f35b6001600160401b0319166001600160401b039081177ff0c57e16840df040f15088dc2f81fe391c3923bec73e23a9662efc9c229c6a005581527fc7f505b2f371ae2175ee4913f4499e1f2633a7b5936321eed1cdaeb6115181d290602090a15f80610054565b63f92ee8a960e01b5f5260045ffd5b5f80fdfe60806040526004361015610015575b36611b7657005b5f3560e01c806301ffc9a7146103b057806305d64e38146103ab5780630aa8b110146103a657806312d91c88146103a157806318056dc21461039c57806319e82e6114610397578063248a9ca3146103925780632f2ff15d1461038d57806332273f611461038857806336568abe14610383578063453eccea1461037e57806346d163aa1461037957806349147411146103745780634962f88f146102b15780634de8addc1461036f5780634e9c929a146102d95780634f1ef2861461036a5780635095af641461036557806352d1902d1461036057806354de23201461035b5780635c975abb14610356578063602356e31461035157806366c368751461031a57806372b5032d1461031557806375b238fc1461034c57806377ab2cf3146103475780637df92ada1461034257806388c47f681461033d5780638a19c8bc146103385780638a7fe60f1461033357806390837ff41461032e57806391d14854146103295780639480e4dd146103245780639494f4261461031f578063960856731461031a5780639722f4b9146103155780639e87058514610310578063a217fddf1461030b578063a457af3d14610306578063a4b32de814610301578063a7fa6f98146102fc578063aaf5eb68146102f7578063ad3cb1cc146102f2578063b54b2b9e146102ed578063b6608409146102e8578063ba05bbf5146102e3578063c07449e2146102de578063c550d938146102d9578063cbb6d6bd146102d4578063d27a6f06146102cf578063d45ff582146102ca578063d547741f146102c5578063db8a173a146102c0578063dd764abf146102bb578063e07dec29146102b6578063e1a45218146102b1578063e27e05c1146102ac578063f3c9b311146102a75763f7cb789a0361000e5761162d565b611610565b611587565b6108f2565b6114ba565b611499565b611473565b611442565b611425565b611408565b611287565b610937565b6111eb565b6111cc565b6111b1565b61118f565b611131565b61110f565b6110f3565b6110b9565b610f6a565b610ec5565b610ea8565b610c3b565b610bfa565b610e67565b610e26565b610dcb565b610d87565b610d47565b610d22565b610d04565b610ce7565b610cc5565b610c8b565b610bc0565b610b7f565b610b63565b610afd565b610ac3565b610a4d565b61090e565b6108ba565b610791565b610775565b610731565b61070d565b6106d7565b6106b9565b61061d565b6105d1565b610572565b6104a1565b610421565b6103cb565b6001600160e01b03198116036103c757565b5f80fd5b346103c75760203660031901126103c75760206004356103ea816103b5565b63ffffffff60e01b16637965db0b60e01b8114908115610410575b506040519015158152f35b6301ffc9a760e01b1490505f610405565b346103c7575f3660031901126103c75760206001600160401b035f5460801c16604051908152f35b600435906001600160a01b03821682036103c757565b602435906001600160a01b03821682036103c757565b602435906001600160401b03821682036103c757565b600435906001600160401b03821682036103c757565b346103c75760403660031901126103c7576104ef6104bd610449565b6104c5610475565b9060018060a01b03165f52605560205260405f20906001600160401b03165f5260205260405f2090565b805460018201546002830154600384015460048501546005860154600690960154604080516001600160401b03808916825288831c81166020830152608098891c1691810191909152606081019590955261ffff9093169484019490945260a083015260c082019290925260e081019290925261010082015261012090f35b0390f35b346103c75760403660031901126103c75761058b610449565b6001600160a01b03165f9081526011602090815260408083206024358452909152902054806105c957506020670de0b6b3a76400005b604051908152f35b6020906105c1565b346103c7575f3660031901126103c7576020604051612af88152f35b9181601f840112156103c7578235916001600160401b0383116103c7576020808501948460051b0101116103c757565b346103c75760403660031901126103c757610636610449565b6024356001600160401b0381116103c7576106559036906004016105ed565b9161065e611bd0565b61066783611655565b9161067560405193846109e1565b838352602083019360051b8101903682116103c757935b81851061069f5761069d8484611c99565b005b6020809186356106ae816103b5565b81520194019361068c565b346103c75760203660031901126103c75760206105c160043561166c565b346103c75760403660031901126103c75761069d6004356106f661045f565b906107086107038261166c565b611c3f565b612024565b346103c7575f3660031901126103c757602061ffff60015460801c16604051908152f35b346103c75760403660031901126103c75760043561074d61045f565b336001600160a01b038216036107665761069d916120b9565b63334bd91960e11b5f5260045ffd5b346103c7575f3660031901126103c7576020604051613e808152f35b346103c75760203660031901126103c7576107aa610449565b6107b2611bd0565b604051630dc4b72f60e31b8152906001600160a01b038116905f83600481855afa9081156108af575f91610811575b906107eb91611c99565b7f4d3c30f5993f1922a779345a0f7ec1a170f1e52e9d230824f9c17e63596c906d5f80a2005b90503d805f853e61082281856109e1565b8301926020818503126103c7578051906001600160401b0382116103c7570183601f820112156103c75780519361085885611655565b9161086660405193846109e1565b85835260208084019660051b8201019182116103c757602001945b8186106108955750929350839250906107e1565b6020809187516108a4816103b5565b815201950194610881565b6040513d5f823e3d90fd5b346103c75760203660031901126103c7576001600160a01b036108db610449565b165f52601b602052602060405f2054604051908152f35b346103c7575f3660031901126103c75760206040516127108152f35b346103c7575f3660031901126103c75760206001600160401b0360015460401c16604051908152f35b346103c75760403660031901126103c75760206001600160401b0361098761095d61048b565b8261096661045f565b91165f526058845260405f209060018060a01b03165f5260205260405f2090565b5416604051908152f35b634e487b7160e01b5f52604160045260245ffd5b61012081019081106001600160401b038211176109c157604052565b610991565b604081019081106001600160401b038211176109c157604052565b90601f801991011681019081106001600160401b038211176109c157604052565b60405190610a12610120836109e1565b565b60405190610a126040836109e1565b60405190610a1260c0836109e1565b6001600160401b0381116109c157601f01601f191660200190565b60403660031901126103c757610a61610449565b602435906001600160401b0382116103c757366023830112156103c757816004013590610a8d82610a32565b91610a9b60405193846109e1565b80835236602482860101116103c7576020815f92602461069d9701838701378401015261168a565b346103c7575f3660031901126103c75760206040517f12b42e8a160f6064dc959c6f251e3af0750ad213dbecf573b4710d67d6c28e398152f35b346103c7575f3660031901126103c7577f00000000000000000000000000000000000000000000000000000000000000006001600160a01b03163003610b545760206040515f805160206124558339815191528152f35b63703e46dd60e11b5f5260045ffd5b346103c7575f3660031901126103c7576020604051612ee08152f35b346103c7575f3660031901126103c757602060ff7fcd5ed15c6e187e77e9aee88184c21f4f2182ab5827cb3b7e07fbedcd63f0330054166040519015158152f35b346103c7575f3660031901126103c75760206040517f19449a4ad57e40a5aa77e785b4539e53ba9e7fedbf7076388ee3fb1bc2ddea1b8152f35b346103c75760203660031901126103c7576001600160a01b03610c1b610449565b165f52605660205260206001600160401b0360405f205416604051908152f35b346103c75760403660031901126103c75760206001600160401b03610987610c6161048b565b82610c6a61045f565b91165f526057845260405f209060018060a01b03165f5260205260405f2090565b346103c7575f3660031901126103c75760206040517fa49807205ce4d355092ef5a8a18f56e8913cf4a201fbe287825b095693c217758152f35b346103c7575f3660031901126103c757602060ff600554166040519015158152f35b346103c7575f3660031901126103c7576020604051624f1a008152f35b346103c7575f3660031901126103c75760206040516305f5e1008152f35b346103c7575f3660031901126103c75760206001600160401b035f5416604051908152f35b346103c75760203660031901126103c7576001600160a01b03610d68610449565b165f526006602052602060018060a01b0360405f205416604051908152f35b346103c75760203660031901126103c757600435610da4816103b5565b63ffffffff60e01b165f526021602052602060018060a01b0360405f205416604051908152f35b346103c75760403660031901126103c757602060ff610e1a600435610dee61045f565b905f525f80516020612475833981519152845260405f209060018060a01b03165f5260205260405f2090565b54166040519015158152f35b346103c75760203660031901126103c7576001600160a01b03610e47610449565b165f52602360205260206001600160401b0360405f205416604051908152f35b346103c75760603660031901126103c757610e80610449565b610e88610475565b906044356001600160a01b03811681036103c7576020926105c1926117db565b346103c7575f3660031901126103c757602060405162278d008152f35b346103c7575f3660031901126103c75760206040515f8152f35b919091610100806101208301946001600160401b0381511684526001600160401b036020820151166020850152610f26604082015160408601906001600160401b03169052565b60608101516060850152610f456080820151608086019061ffff169052565b60a081015160a085015260c081015160c085015260e081015160e08501520151910152565b346103c75760403660031901126103c75761056e610ffa610f89610449565b610f91610475565b905f610100604051610fa2816109a5565b8281528260208201528260408201528260608201528260808201528260a08201528260c08201528260e0820152015260018060a01b03165f52605560205260405f20906001600160401b03165f5260205260405f2090565b6006611004610a02565b91611060611050825461102d611020826001600160401b031690565b6001600160401b03168752565b6001600160401b03604082901c1660208701525b60801c6001600160401b031690565b6001600160401b03166040850152565b6001810154606084015261108761107c600283015461ffff1690565b61ffff166080850152565b600381015460a0840152600481015460c0840152600581015460e0840152015461010082015260405191829182610edf565b346103c7575f3660031901126103c75760206040517fb1fadd3142ab2ad7f1337ea4d97112bcc8337fc11ce5b20cb04ad038adf998198152f35b346103c7575f3660031901126103c75760206040516132c88152f35b346103c7575f3660031901126103c7576020604051670de0b6b3a76400008152f35b346103c7575f3660031901126103c757604080519061115081836109e1565b600582526020820191640352e302e360dc1b83528151928391602083525180918160208501528484015e5f828201840152601f01601f19168101030190f35b346103c7575f3660031901126103c757602060ff600754166040519015158152f35b346103c7575f3660031901126103c757602060405160018152f35b346103c7575f3660031901126103c75760205f5460c01c604051908152f35b346103c75760403660031901126103c75761056e61125061120a61048b565b6001600160401b0361121a61045f565b915f602060405161122a816109c6565b8281520152165f52601060205260405f209060018060a01b03165f5260205260405f2090565b60016040519161125f836109c6565b8054835201546020820152604051918291829190916020806040830194805184520151910152565b346103c75760803660031901126103c7576112a0610449565b6024359060643560443561ffff821682036103c7575f8051602061249583398151915254936001600160401b036112e660ff604088901c1615966001600160401b031690565b1680159081611400575b60011490816113f6575b1590816113ed575b506113de57611345938561133c60016001600160401b03195f805160206124958339815191525416175f8051602061249583398151915255565b6113a45761193d565b61134b57005b61137560ff60401b195f8051602061249583398151915254165f8051602061249583398151915255565b604051600181527fc7f505b2f371ae2175ee4913f4499e1f2633a7b5936321eed1cdaeb6115181d290602090a1005b6113d96801000000000000000060ff60401b195f805160206124958339815191525416175f8051602061249583398151915255565b61193d565b63f92ee8a960e01b5f5260045ffd5b9050155f611302565b303b1591506112fa565b8691506112f0565b346103c7575f3660031901126103c75760206040516276a7008152f35b346103c7575f3660031901126103c757602060405162093a808152f35b346103c75760403660031901126103c75761069d60043561146161045f565b9061146e6107038261166c565b6120b9565b346103c7575f3660031901126103c75760206001600160401b0360015416604051908152f35b346103c7575f3660031901126103c7576020604051662386f26fc100008152f35b346103c75760203660031901126103c7576004356001600160401b0381116103c7576114ea9036906004016105ed565b6114f2611bd0565b5f5b8181106114fd57005b8061150b6001928486611b57565b35611515816103b5565b6001600160e01b0319165f90815260216020526040902080546001600160a01b031916905561155d61155061154b838688611b57565b611b6c565b6001600160e01b03191690565b7fbeb27701828f515b03069d44da6519b6c491da13ef1ca7082e619959d1f48ddb5f80a2016114f4565b346103c75760403660031901126103c7576115a0610449565b7f90b37e59a942c5413ce00a3a844a47c20094979897cc653606d925e909885f3560206115cb610475565b926115d4611bd0565b6001600160a01b03165f81815260238352604090819020805467ffffffffffffffff19166001600160401b0390961695861790555193845292a2005b346103c7575f3660031901126103c757602060405162ed4e008152f35b346103c7575f3660031901126103c75760206001600160401b035f5460401c16604051908152f35b6001600160401b0381116109c15760051b60200190565b5f525f80516020612475833981519152602052600160405f20015490565b90916001600160a01b037f000000000000000000000000000000000000000000000000000000000000000016308114908115611780575b50610b54576116ce611bd0565b6040516352d1902d60e01b8152926020846004816001600160a01b0387165afa5f948161174f575b5061171a57634c9c8ce360e01b5f526001600160a01b03831660045260245ffd5b5ffd5b90915f80516020612455833981519152840361173b57610a129293506122c9565b632a87526960e21b5f52600484905260245ffd5b61177291955060203d602011611779575b61176a81836109e1565b810190612159565b935f6116f6565b503d611760565b5f80516020612455833981519152546001600160a01b0316141590505f6116c1565b634e487b7160e01b5f52601160045260245ffd5b919082039182116117c357565b6117a2565b818102929181159184041417156117c357565b90929161180d5f9460018060a01b0384165f52605560205260405f20906001600160401b03165f5260205260405f2090565b90611816610a02565b92611867611857845461183f611832826001600160401b031690565b6001600160401b03168852565b6001600160401b03604082901c166020880152611041565b6001600160401b03166040860152565b600183015460608501908152611890611885600286015461ffff1690565b61ffff166080870152565b600384015460a08601526001600160401b036118d660048601549660c08101978852600660058801549760e083019889520154610100820152516001600160401b031690565b161561193357906118e9929151916121bf565b91821561192b575190519081811161190057505050565b61192893945061191a9291611914916117b6565b906117c8565b670de0b6b3a7640000900490565b90565b505f93505050565b505f955050505050565b90611a30611aba94936119d6611a879461195561236b565b61195d61236b565b61196561236b565b61196d61236b565b60ff197fcd5ed15c6e187e77e9aee88184c21f4f2182ab5827cb3b7e07fbedcd63f0330054167fcd5ed15c6e187e77e9aee88184c21f4f2182ab5827cb3b7e07fbedcd63f03300556119bd612255565b6119c681611e06565b506119d081611ea2565b50611f63565b506119f06119e2610a14565b5f81525f602082015261228b565b906119f9610a23565b6001815293602085015260408401525f60608401525f6080840152611a2260a084016127109052565b5f52600260205260405f2090565b90600561ffff60a081938051151560ff801988541691151516178655602081015160018701556040810151600287015560608101516003870155608081015160048701550151169201911661ffff19825416179055565b611a99600160ff196005541617600555565b6001805461ffff60801b191660809290921b61ffff60801b16919091179055565b611ad060016001600160401b03195f5416175f55565b611af3695460000000000000000067ffffffffffffffff60401b195f5416175f55565b5f80546001600160c01b0316600760c21b179055611b1f601c6001600160401b03196001541617600155565b610a126838000000000000000067ffffffffffffffff60401b196001541617600155565b634e487b7160e01b5f52603260045260245ffd5b9190811015611b675760051b0190565b611b43565b35611928816103b5565b5f80356001600160e01b03191680825260216020526040909120546001600160a01b0316908115611bbe575f8083368280378136915af43d5f803e15611bba573d5ff35b3d5ffd5b63c2a825f560e01b5f5260045260245ffd5b335f9081527fb16e88c42fd4e48df2dd6a2eabd6bc9aec654ec170056b470819f8892cc6431c602052604090205460ff1615611c0857565b63e2517d3f60e01b5f52336004527fa49807205ce4d355092ef5a8a18f56e8913cf4a201fbe287825b095693c2177560245260445ffd5b5f8181525f805160206124758339815191526020908152604080832033845290915290205460ff1615611c6f5750565b63e2517d3f60e01b5f523360045260245260445ffd5b8051821015611b675760209160051b010190565b9091906001600160a01b038116908115611df757803b15611ddc575f5b8451811015611dd557611d04611cf7611ce0611cd28489611c85565b516001600160e01b03191690565b63ffffffff60e01b165f52602160205260405f2090565b546001600160a01b031690565b6001600160a01b03811680151590859082611dca575b5050611d92575080611d5783611d38611ce0611cd26001968b611c85565b80546001600160a01b0319166001600160a01b03909216919091179055565b83611d68611550611cd2848a611c85565b7f12557f25e458d9682d7c959b5a960bc9332e8b7af1120b54a333bfc1ff282b395f80a301611cb6565b611da2611cd26117179388611c85565b6310ae11a960e31b5f526001600160e01b0319166004526001600160a01b0316602452604490565b14159050845f611d1a565b5050509050565b6322a2d07b60e21b5f526001600160a01b031660045260245ffd5b63d92e233d60e01b5f5260045ffd5b6001600160a01b0381165f9081527fb7db2dd08fcb62d0c9e08c51941cae53c267786a0b75803fb7960902fc8ef97d602052604090205460ff16611e9d576001600160a01b03165f8181527fb7db2dd08fcb62d0c9e08c51941cae53c267786a0b75803fb7960902fc8ef97d60205260408120805460ff191660011790553391905f805160206124358339815191528180a4600190565b505f90565b6001600160a01b0381165f9081527fb16e88c42fd4e48df2dd6a2eabd6bc9aec654ec170056b470819f8892cc6431c602052604090205460ff16611e9d576001600160a01b0381165f9081527fb16e88c42fd4e48df2dd6a2eabd6bc9aec654ec170056b470819f8892cc6431c60205260409020805460ff1916600117905533906001600160a01b03167fa49807205ce4d355092ef5a8a18f56e8913cf4a201fbe287825b095693c217755f805160206124358339815191525f80a4600190565b6001600160a01b0381165f9081527f5bc841a6d925a620866922bada36d16da3dcc9d52290519ea1126e5ca2372139602052604090205460ff16611e9d576001600160a01b0381165f9081527f5bc841a6d925a620866922bada36d16da3dcc9d52290519ea1126e5ca237213960205260409020805460ff1916600117905533906001600160a01b03167fb1fadd3142ab2ad7f1337ea4d97112bcc8337fc11ce5b20cb04ad038adf998195f805160206124358339815191525f80a4600190565b5f8181525f80516020612475833981519152602090815260408083206001600160a01b038616845290915290205460ff166120b3575f8181525f80516020612475833981519152602090815260408083206001600160a01b03861684529091529020805460ff1916600117905533916001600160a01b0316905f805160206124358339815191525f80a4600190565b50505f90565b5f8181525f80516020612475833981519152602090815260408083206001600160a01b038616845290915290205460ff16156120b3575f8181525f80516020612475833981519152602090815260408083206001600160a01b03861684529091529020805460ff1916905533916001600160a01b0316907ff6391f5c32d9c69d2a47ea670b442974b53935d1edc7fd64eb21e047a839171b5f80a4600190565b908160209103126103c7575190565b90604051612175816109c6565b80925460ff811690600282101561219e5790825260081c6001600160a01b031660209190910152565b634e487b7160e01b5f52602160045260245ffd5b919082018092116117c357565b6001600160a01b03165f90815260156020526040812080549094909390825b8581101561224c575f87815260209020600282901b0180546001600160a01b0387811691161480612230575b612218575b506001016121de565b6001919482612229920154906121b2565b939061220f565b508361224661224160028401612168565b61228b565b1461220a565b50935050925050565b61225d61236b565b61226561236b565b60017f9b779b17422d0df92223018b32b4d1fa46e071723d6817e2486d003becc55f0055565b805190600282101561219e57602090810151604080519283019384526001600160a01b039091168282015281526122c36060826109e1565b51902090565b90813b1561234a575f8051602061245583398151915280546001600160a01b0319166001600160a01b0384169081179091557fbc7cd75a20ee27fd9adebab32041f755214dbc6bffa90cc0225b39da2e5c2d3b5f80a28051156123325761232f91612396565b50565b50503461233b57565b63b398979f60e01b5f5260045ffd5b50634c9c8ce360e01b5f9081526001600160a01b0391909116600452602490fd5b60ff5f805160206124958339815191525460401c161561238757565b631afcd79f60e31b5f5260045ffd5b5f8061192893602081519101845af43d156123d2573d916123b683610a32565b926123c460405194856109e1565b83523d5f602085013e6123d6565b6060915b906123fa57508051156123eb57805190602001fd5b63d6bda27560e01b5f5260045ffd5b8151158061242b575b61240b575090565b639996b31560e01b5f9081526001600160a01b0391909116600452602490fd5b50803b1561240356fe2f8788117e7eff1d82e926ec794901d17c78024a50270940304540a733656f0d360894a13ba1a3210667c828492db98dca3e2076cc3735a920a3ca505d382bbc02dd7bc7dec4dceedda775e58dd541e08a116c6c53815c0bd028192f7b626800f0c57e16840df040f15088dc2f81fe391c3923bec73e23a9662efc9c229c6a00a164736f6c634300081a000a","linkReferences":{}},"methodIdentifiers":{"ADMIN_ROLE()":"75b238fc","ASSET_MANAGER_ROLE()":"a4b32de8","BPS_DENOMINATOR()":"e1a45218","COMMISSION_CHANGE_DELAY()":"d45ff582","DEFAULT_ADMIN_ROLE()":"a217fddf","LOCK_ONE_MONTH()":"9e870585","LOCK_SIX_MONTHS()":"f3c9b311","LOCK_THREE_MONTHS()":"d27a6f06","LOCK_TWO_MONTHS()":"7df92ada","MIN_LOCK_AMOUNT()":"dd764abf","MULTIPLIER_NONE()":"4962f88f","MULTIPLIER_ONE_MONTH()":"18056dc2","MULTIPLIER_SIX_MONTHS()":"453eccea","MULTIPLIER_THREE_MONTHS()":"a7fa6f98","MULTIPLIER_TWO_MONTHS()":"54de2320","PRECISION()":"aaf5eb68","SLASHER_ROLE()":"5095af64","TANGLE_ROLE()":"602356e3","UPGRADE_INTERFACE_VERSION()":"ad3cb1cc","VIRTUAL_ASSETS()":"b6608409","VIRTUAL_SHARES()":"88c47f68","blueprintSlashCount(uint64,address)":"4e9c929a","clearFacetSelectors(bytes4[])":"e07dec29","currentRound()":"8a19c8bc","delegationBondLessDelay()":"ba05bbf5","facetForSelector(bytes4)":"90837ff4","getAccumulatedDust(address)":"49147411","getAssetAdapter(address)":"8a7fe60f","getOperatorSlashFactor(address,bytes32)":"12d91c88","getPendingSlashCount(address)":"9480e4dd","getRoleAdmin(bytes32)":"248a9ca3","getSlashCount(address)":"66c36875","getSlashCountForBlueprint(uint64,address)":"c550d938","getSlashCountForService(uint64,address)":"72b5032d","getSlashImpact(address,uint64,address)":"9494f426","getSlashRecord(address,uint64)":"a457af3d","getSnapshot(uint64,address)":"c07449e2","grantRole(bytes32,address)":"2f2ff15d","hasRole(bytes32,address)":"91d14854","initialize(address,uint256,uint256,uint16)":"cbb6d6bd","lastRoundAdvance()":"05d64e38","leaveDelegatorsDelay()":"db8a173a","leaveOperatorsDelay()":"4de8addc","nativeEnabled()":"77ab2cf3","nextSlashId(address)":"96085673","operatorCommissionBps()":"32273f61","paused()":"5c975abb","proxiableUUID()":"52d1902d","registerFacet(address)":"46d163aa","registerFacetSelectors(address,bytes4[])":"19e82e61","renounceRole(bytes32,address)":"36568abe","requireAdapters()":"b54b2b9e","resetPendingSlashCount(address,uint64)":"e27e05c1","revokeRole(bytes32,address)":"d547741f","roundDuration()":"f7cb789a","serviceSlashCount(uint64,address)":"9722f4b9","slashHistory(address,uint64)":"0aa8b110","supportsInterface(bytes4)":"01ffc9a7","upgradeToAndCall(address,bytes)":"4f1ef286"},"id":232}