{"abi":[{"type":"constructor","inputs":[],"stateMutability":"nonpayable"},{"type":"fallback","stateMutability":"payable"},{"type":"receive","stateMutability":"payable"},{"type":"function","name":"ADMIN_ROLE","inputs":[],"outputs":[{"name":"","type":"bytes32","internalType":"bytes32"}],"stateMutability":"view"},{"type":"function","name":"ASSET_MANAGER_ROLE","inputs":[],"outputs":[{"name":"","type":"bytes32","internalType":"bytes32"}],"stateMutability":"view"},{"type":"function","name":"BPS_DENOMINATOR","inputs":[],"outputs":[{"name":"","type":"uint256","internalType":"uint256"}],"stateMutability":"view"},{"type":"function","name":"DEFAULT_ADMIN_ROLE","inputs":[],"outputs":[{"name":"","type":"bytes32","internalType":"bytes32"}],"stateMutability":"view"},{"type":"function","name":"LOCK_ONE_MONTH","inputs":[],"outputs":[{"name":"","type":"uint64","internalType":"uint64"}],"stateMutability":"view"},{"type":"function","name":"LOCK_SIX_MONTHS","inputs":[],"outputs":[{"name":"","type":"uint64","internalType":"uint64"}],"stateMutability":"view"},{"type":"function","name":"LOCK_THREE_MONTHS","inputs":[],"outputs":[{"name":"","type":"uint64","internalType":"uint64"}],"stateMutability":"view"},{"type":"function","name":"LOCK_TWO_MONTHS","inputs":[],"outputs":[{"name":"","type":"uint64","internalType":"uint64"}],"stateMutability":"view"},{"type":"function","name":"MULTIPLIER_NONE","inputs":[],"outputs":[{"name":"","type":"uint16","internalType":"uint16"}],"stateMutability":"view"},{"type":"function","name":"MULTIPLIER_ONE_MONTH","inputs":[],"outputs":[{"name":"","type":"uint16","internalType":"uint16"}],"stateMutability":"view"},{"type":"function","name":"MULTIPLIER_SIX_MONTHS","inputs":[],"outputs":[{"name":"","type":"uint16","internalType":"uint16"}],"stateMutability":"view"},{"type":"function","name":"MULTIPLIER_THREE_MONTHS","inputs":[],"outputs":[{"name":"","type":"uint16","internalType":"uint16"}],"stateMutability":"view"},{"type":"function","name":"MULTIPLIER_TWO_MONTHS","inputs":[],"outputs":[{"name":"","type":"uint16","internalType":"uint16"}],"stateMutability":"view"},{"type":"function","name":"PRECISION","inputs":[],"outputs":[{"name":"","type":"uint256","internalType":"uint256"}],"stateMutability":"view"},{"type":"function","name":"SLASHER_ROLE","inputs":[],"outputs":[{"name":"","type":"bytes32","internalType":"bytes32"}],"stateMutability":"view"},{"type":"function","name":"UPGRADE_INTERFACE_VERSION","inputs":[],"outputs":[{"name":"","type":"string","internalType":"string"}],"stateMutability":"view"},{"type":"function","name":"blueprintSlashCount","inputs":[{"name":"","type":"uint64","internalType":"uint64"},{"name":"","type":"address","internalType":"address"}],"outputs":[{"name":"","type":"uint64","internalType":"uint64"}],"stateMutability":"view"},{"type":"function","name":"clearFacetSelectors","inputs":[{"name":"selectors","type":"bytes4[]","internalType":"bytes4[]"}],"outputs":[],"stateMutability":"nonpayable"},{"type":"function","name":"currentRound","inputs":[],"outputs":[{"name":"","type":"uint64","internalType":"uint64"}],"stateMutability":"view"},{"type":"function","name":"delegationBondLessDelay","inputs":[],"outputs":[{"name":"","type":"uint64","internalType":"uint64"}],"stateMutability":"view"},{"type":"function","name":"facetForSelector","inputs":[{"name":"selector","type":"bytes4","internalType":"bytes4"}],"outputs":[{"name":"","type":"address","internalType":"address"}],"stateMutability":"view"},{"type":"function","name":"getAssetAdapter","inputs":[{"name":"token","type":"address","internalType":"address"}],"outputs":[{"name":"","type":"address","internalType":"address"}],"stateMutability":"view"},{"type":"function","name":"getOperatorSlashFactor","inputs":[{"name":"operator","type":"address","internalType":"address"},{"name":"assetHash","type":"bytes32","internalType":"bytes32"}],"outputs":[{"name":"","type":"uint256","internalType":"uint256"}],"stateMutability":"view"},{"type":"function","name":"getRoleAdmin","inputs":[{"name":"role","type":"bytes32","internalType":"bytes32"}],"outputs":[{"name":"","type":"bytes32","internalType":"bytes32"}],"stateMutability":"view"},{"type":"function","name":"getSlashCount","inputs":[{"name":"operator","type":"address","internalType":"address"}],"outputs":[{"name":"","type":"uint64","internalType":"uint64"}],"stateMutability":"view"},{"type":"function","name":"getSlashCountForBlueprint","inputs":[{"name":"blueprintId","type":"uint64","internalType":"uint64"},{"name":"operator","type":"address","internalType":"address"}],"outputs":[{"name":"","type":"uint64","internalType":"uint64"}],"stateMutability":"view"},{"type":"function","name":"getSlashCountForService","inputs":[{"name":"serviceId","type":"uint64","internalType":"uint64"},{"name":"operator","type":"address","internalType":"address"}],"outputs":[{"name":"","type":"uint64","internalType":"uint64"}],"stateMutability":"view"},{"type":"function","name":"getSlashImpact","inputs":[{"name":"operator","type":"address","internalType":"address"},{"name":"slashId","type":"uint64","internalType":"uint64"},{"name":"delegator","type":"address","internalType":"address"}],"outputs":[{"name":"lostAmount","type":"uint256","internalType":"uint256"}],"stateMutability":"view"},{"type":"function","name":"getSlashRecord","inputs":[{"name":"operator","type":"address","internalType":"address"},{"name":"slashId","type":"uint64","internalType":"uint64"}],"outputs":[{"name":"","type":"tuple","internalType":"struct SlashingManager.SlashRecord","components":[{"name":"round","type":"uint64","internalType":"uint64"},{"name":"serviceId","type":"uint64","internalType":"uint64"},{"name":"blueprintId","type":"uint64","internalType":"uint64"},{"name":"assetHash","type":"bytes32","internalType":"bytes32"},{"name":"slashBps","type":"uint16","internalType":"uint16"},{"name":"totalSlashed","type":"uint256","internalType":"uint256"},{"name":"exchangeRateBefore","type":"uint256","internalType":"uint256"},{"name":"exchangeRateAfter","type":"uint256","internalType":"uint256"},{"name":"evidence","type":"bytes32","internalType":"bytes32"}]}],"stateMutability":"view"},{"type":"function","name":"getSnapshot","inputs":[{"name":"round","type":"uint64","internalType":"uint64"},{"name":"operator","type":"address","internalType":"address"}],"outputs":[{"name":"","type":"tuple","internalType":"struct Types.OperatorSnapshot","components":[{"name":"stake","type":"uint256","internalType":"uint256"},{"name":"totalDelegated","type":"uint256","internalType":"uint256"}]}],"stateMutability":"view"},{"type":"function","name":"grantRole","inputs":[{"name":"role","type":"bytes32","internalType":"bytes32"},{"name":"account","type":"address","internalType":"address"}],"outputs":[],"stateMutability":"nonpayable"},{"type":"function","name":"hasRole","inputs":[{"name":"role","type":"bytes32","internalType":"bytes32"},{"name":"account","type":"address","internalType":"address"}],"outputs":[{"name":"","type":"bool","internalType":"bool"}],"stateMutability":"view"},{"type":"function","name":"initialize","inputs":[{"name":"admin","type":"address","internalType":"address"},{"name":"nativeMinOperatorStake","type":"uint256","internalType":"uint256"},{"name":"nativeMinDelegation","type":"uint256","internalType":"uint256"},{"name":"_operatorCommissionBps","type":"uint16","internalType":"uint16"}],"outputs":[],"stateMutability":"nonpayable"},{"type":"function","name":"lastRoundAdvance","inputs":[],"outputs":[{"name":"","type":"uint64","internalType":"uint64"}],"stateMutability":"view"},{"type":"function","name":"leaveDelegatorsDelay","inputs":[],"outputs":[{"name":"","type":"uint64","internalType":"uint64"}],"stateMutability":"view"},{"type":"function","name":"leaveOperatorsDelay","inputs":[],"outputs":[{"name":"","type":"uint64","internalType":"uint64"}],"stateMutability":"view"},{"type":"function","name":"nativeEnabled","inputs":[],"outputs":[{"name":"","type":"bool","internalType":"bool"}],"stateMutability":"view"},{"type":"function","name":"nextSlashId","inputs":[{"name":"","type":"address","internalType":"address"}],"outputs":[{"name":"","type":"uint64","internalType":"uint64"}],"stateMutability":"view"},{"type":"function","name":"operatorCommissionBps","inputs":[],"outputs":[{"name":"","type":"uint16","internalType":"uint16"}],"stateMutability":"view"},{"type":"function","name":"paused","inputs":[],"outputs":[{"name":"","type":"bool","internalType":"bool"}],"stateMutability":"view"},{"type":"function","name":"proxiableUUID","inputs":[],"outputs":[{"name":"","type":"bytes32","internalType":"bytes32"}],"stateMutability":"view"},{"type":"function","name":"registerFacet","inputs":[{"name":"facet","type":"address","internalType":"address"}],"outputs":[],"stateMutability":"nonpayable"},{"type":"function","name":"registerFacetSelectors","inputs":[{"name":"facet","type":"address","internalType":"address"},{"name":"selectors","type":"bytes4[]","internalType":"bytes4[]"}],"outputs":[],"stateMutability":"nonpayable"},{"type":"function","name":"renounceRole","inputs":[{"name":"role","type":"bytes32","internalType":"bytes32"},{"name":"callerConfirmation","type":"address","internalType":"address"}],"outputs":[],"stateMutability":"nonpayable"},{"type":"function","name":"requireAdapters","inputs":[],"outputs":[{"name":"","type":"bool","internalType":"bool"}],"stateMutability":"view"},{"type":"function","name":"revokeRole","inputs":[{"name":"role","type":"bytes32","internalType":"bytes32"},{"name":"account","type":"address","internalType":"address"}],"outputs":[],"stateMutability":"nonpayable"},{"type":"function","name":"roundDuration","inputs":[],"outputs":[{"name":"","type":"uint64","internalType":"uint64"}],"stateMutability":"view"},{"type":"function","name":"serviceSlashCount","inputs":[{"name":"","type":"uint64","internalType":"uint64"},{"name":"","type":"address","internalType":"address"}],"outputs":[{"name":"","type":"uint64","internalType":"uint64"}],"stateMutability":"view"},{"type":"function","name":"slashHistory","inputs":[{"name":"","type":"address","internalType":"address"},{"name":"","type":"uint64","internalType":"uint64"}],"outputs":[{"name":"round","type":"uint64","internalType":"uint64"},{"name":"serviceId","type":"uint64","internalType":"uint64"},{"name":"blueprintId","type":"uint64","internalType":"uint64"},{"name":"assetHash","type":"bytes32","internalType":"bytes32"},{"name":"slashBps","type":"uint16","internalType":"uint16"},{"name":"totalSlashed","type":"uint256","internalType":"uint256"},{"name":"exchangeRateBefore","type":"uint256","internalType":"uint256"},{"name":"exchangeRateAfter","type":"uint256","internalType":"uint256"},{"name":"evidence","type":"bytes32","internalType":"bytes32"}],"stateMutability":"view"},{"type":"function","name":"supportsInterface","inputs":[{"name":"interfaceId","type":"bytes4","internalType":"bytes4"}],"outputs":[{"name":"","type":"bool","internalType":"bool"}],"stateMutability":"view"},{"type":"function","name":"upgradeToAndCall","inputs":[{"name":"newImplementation","type":"address","internalType":"address"},{"name":"data","type":"bytes","internalType":"bytes"}],"outputs":[],"stateMutability":"payable"},{"type":"event","name":"BlueprintAddedToDelegation","inputs":[{"name":"delegator","type":"address","indexed":true,"internalType":"address"},{"name":"delegationIndex","type":"uint256","indexed":true,"internalType":"uint256"},{"name":"blueprintId","type":"uint64","indexed":false,"internalType":"uint64"}],"anonymous":false},{"type":"event","name":"BlueprintRemovedFromDelegation","inputs":[{"name":"delegator","type":"address","indexed":true,"internalType":"address"},{"name":"delegationIndex","type":"uint256","indexed":true,"internalType":"uint256"},{"name":"blueprintId","type":"uint64","indexed":false,"internalType":"uint64"}],"anonymous":false},{"type":"event","name":"Delegated","inputs":[{"name":"delegator","type":"address","indexed":true,"internalType":"address"},{"name":"operator","type":"address","indexed":true,"internalType":"address"},{"name":"token","type":"address","indexed":true,"internalType":"address"},{"name":"amount","type":"uint256","indexed":false,"internalType":"uint256"},{"name":"shares","type":"uint256","indexed":false,"internalType":"uint256"},{"name":"selectionMode","type":"uint8","indexed":false,"internalType":"enum Types.BlueprintSelectionMode"}],"anonymous":false},{"type":"event","name":"DelegatorUnstakeExecuted","inputs":[{"name":"delegator","type":"address","indexed":true,"internalType":"address"},{"name":"operator","type":"address","indexed":true,"internalType":"address"},{"name":"token","type":"address","indexed":true,"internalType":"address"},{"name":"shares","type":"uint256","indexed":false,"internalType":"uint256"},{"name":"amount","type":"uint256","indexed":false,"internalType":"uint256"}],"anonymous":false},{"type":"event","name":"DelegatorUnstakeScheduled","inputs":[{"name":"delegator","type":"address","indexed":true,"internalType":"address"},{"name":"operator","type":"address","indexed":true,"internalType":"address"},{"name":"token","type":"address","indexed":true,"internalType":"address"},{"name":"shares","type":"uint256","indexed":false,"internalType":"uint256"},{"name":"estimatedAmount","type":"uint256","indexed":false,"internalType":"uint256"},{"name":"readyRound","type":"uint64","indexed":false,"internalType":"uint64"}],"anonymous":false},{"type":"event","name":"Deposited","inputs":[{"name":"delegator","type":"address","indexed":true,"internalType":"address"},{"name":"token","type":"address","indexed":true,"internalType":"address"},{"name":"amount","type":"uint256","indexed":false,"internalType":"uint256"},{"name":"lock","type":"uint8","indexed":false,"internalType":"enum Types.LockMultiplier"}],"anonymous":false},{"type":"event","name":"ExpiredLocksHarvested","inputs":[{"name":"delegator","type":"address","indexed":true,"internalType":"address"},{"name":"token","type":"address","indexed":true,"internalType":"address"},{"name":"count","type":"uint256","indexed":false,"internalType":"uint256"},{"name":"totalAmount","type":"uint256","indexed":false,"internalType":"uint256"}],"anonymous":false},{"type":"event","name":"FacetRegistered","inputs":[{"name":"facet","type":"address","indexed":true,"internalType":"address"}],"anonymous":false},{"type":"event","name":"FacetSelectorCleared","inputs":[{"name":"selector","type":"bytes4","indexed":true,"internalType":"bytes4"}],"anonymous":false},{"type":"event","name":"FacetSelectorSet","inputs":[{"name":"selector","type":"bytes4","indexed":true,"internalType":"bytes4"},{"name":"facet","type":"address","indexed":true,"internalType":"address"}],"anonymous":false},{"type":"event","name":"Initialized","inputs":[{"name":"version","type":"uint64","indexed":false,"internalType":"uint64"}],"anonymous":false},{"type":"event","name":"OperatorBlueprintAdded","inputs":[{"name":"operator","type":"address","indexed":true,"internalType":"address"},{"name":"blueprintId","type":"uint64","indexed":true,"internalType":"uint64"}],"anonymous":false},{"type":"event","name":"OperatorBlueprintRemoved","inputs":[{"name":"operator","type":"address","indexed":true,"internalType":"address"},{"name":"blueprintId","type":"uint64","indexed":true,"internalType":"uint64"}],"anonymous":false},{"type":"event","name":"OperatorLeavingScheduled","inputs":[{"name":"operator","type":"address","indexed":true,"internalType":"address"},{"name":"readyRound","type":"uint64","indexed":false,"internalType":"uint64"}],"anonymous":false},{"type":"event","name":"OperatorLeft","inputs":[{"name":"operator","type":"address","indexed":true,"internalType":"address"}],"anonymous":false},{"type":"event","name":"OperatorRegistered","inputs":[{"name":"operator","type":"address","indexed":true,"internalType":"address"},{"name":"stake","type":"uint256","indexed":false,"internalType":"uint256"}],"anonymous":false},{"type":"event","name":"OperatorStakeIncreased","inputs":[{"name":"operator","type":"address","indexed":true,"internalType":"address"},{"name":"amount","type":"uint256","indexed":false,"internalType":"uint256"}],"anonymous":false},{"type":"event","name":"OperatorUnstakeExecuted","inputs":[{"name":"operator","type":"address","indexed":true,"internalType":"address"},{"name":"amount","type":"uint256","indexed":false,"internalType":"uint256"}],"anonymous":false},{"type":"event","name":"OperatorUnstakeScheduled","inputs":[{"name":"operator","type":"address","indexed":true,"internalType":"address"},{"name":"amount","type":"uint256","indexed":false,"internalType":"uint256"},{"name":"readyRound","type":"uint64","indexed":false,"internalType":"uint64"}],"anonymous":false},{"type":"event","name":"Paused","inputs":[{"name":"account","type":"address","indexed":false,"internalType":"address"}],"anonymous":false},{"type":"event","name":"RoleAdminChanged","inputs":[{"name":"role","type":"bytes32","indexed":true,"internalType":"bytes32"},{"name":"previousAdminRole","type":"bytes32","indexed":true,"internalType":"bytes32"},{"name":"newAdminRole","type":"bytes32","indexed":true,"internalType":"bytes32"}],"anonymous":false},{"type":"event","name":"RoleGranted","inputs":[{"name":"role","type":"bytes32","indexed":true,"internalType":"bytes32"},{"name":"account","type":"address","indexed":true,"internalType":"address"},{"name":"sender","type":"address","indexed":true,"internalType":"address"}],"anonymous":false},{"type":"event","name":"RoleRevoked","inputs":[{"name":"role","type":"bytes32","indexed":true,"internalType":"bytes32"},{"name":"account","type":"address","indexed":true,"internalType":"address"},{"name":"sender","type":"address","indexed":true,"internalType":"address"}],"anonymous":false},{"type":"event","name":"SlashRecorded","inputs":[{"name":"operator","type":"address","indexed":true,"internalType":"address"},{"name":"slashId","type":"uint64","indexed":true,"internalType":"uint64"},{"name":"assetHash","type":"bytes32","indexed":false,"internalType":"bytes32"},{"name":"slashBps","type":"uint16","indexed":false,"internalType":"uint16"},{"name":"totalSlashed","type":"uint256","indexed":false,"internalType":"uint256"},{"name":"exchangeRateBefore","type":"uint256","indexed":false,"internalType":"uint256"},{"name":"exchangeRateAfter","type":"uint256","indexed":false,"internalType":"uint256"}],"anonymous":false},{"type":"event","name":"Slashed","inputs":[{"name":"operator","type":"address","indexed":true,"internalType":"address"},{"name":"serviceId","type":"uint64","indexed":true,"internalType":"uint64"},{"name":"blueprintId","type":"uint64","indexed":true,"internalType":"uint64"},{"name":"assetHash","type":"bytes32","indexed":false,"internalType":"bytes32"},{"name":"slashBps","type":"uint16","indexed":false,"internalType":"uint16"},{"name":"operatorSlashed","type":"uint256","indexed":false,"internalType":"uint256"},{"name":"delegatorsSlashed","type":"uint256","indexed":false,"internalType":"uint256"},{"name":"exchangeRateAfter","type":"uint256","indexed":false,"internalType":"uint256"}],"anonymous":false},{"type":"event","name":"SlashedForService","inputs":[{"name":"operator","type":"address","indexed":true,"internalType":"address"},{"name":"serviceId","type":"uint64","indexed":true,"internalType":"uint64"},{"name":"blueprintId","type":"uint64","indexed":true,"internalType":"uint64"},{"name":"totalSlashed","type":"uint256","indexed":false,"internalType":"uint256"},{"name":"commitmentCount","type":"uint256","indexed":false,"internalType":"uint256"}],"anonymous":false},{"type":"event","name":"Unpaused","inputs":[{"name":"account","type":"address","indexed":false,"internalType":"address"}],"anonymous":false},{"type":"event","name":"Upgraded","inputs":[{"name":"implementation","type":"address","indexed":true,"internalType":"address"}],"anonymous":false},{"type":"event","name":"WithdrawScheduled","inputs":[{"name":"delegator","type":"address","indexed":true,"internalType":"address"},{"name":"token","type":"address","indexed":true,"internalType":"address"},{"name":"amount","type":"uint256","indexed":false,"internalType":"uint256"},{"name":"readyRound","type":"uint64","indexed":false,"internalType":"uint64"}],"anonymous":false},{"type":"event","name":"Withdrawn","inputs":[{"name":"delegator","type":"address","indexed":true,"internalType":"address"},{"name":"token","type":"address","indexed":true,"internalType":"address"},{"name":"amount","type":"uint256","indexed":false,"internalType":"uint256"}],"anonymous":false},{"type":"error","name":"AccessControlBadConfirmation","inputs":[]},{"type":"error","name":"AccessControlUnauthorizedAccount","inputs":[{"name":"account","type":"address","internalType":"address"},{"name":"neededRole","type":"bytes32","internalType":"bytes32"}]},{"type":"error","name":"AddressEmptyCode","inputs":[{"name":"target","type":"address","internalType":"address"}]},{"type":"error","name":"ERC1967InvalidImplementation","inputs":[{"name":"implementation","type":"address","internalType":"address"}]},{"type":"error","name":"ERC1967NonPayable","inputs":[]},{"type":"error","name":"EnforcedPause","inputs":[]},{"type":"error","name":"ExpectedPause","inputs":[]},{"type":"error","name":"FailedCall","inputs":[]},{"type":"error","name":"InvalidInitialization","inputs":[]},{"type":"error","name":"NotAContract","inputs":[{"name":"account","type":"address","internalType":"address"}]},{"type":"error","name":"NotInitializing","inputs":[]},{"type":"error","name":"ReentrancyGuardReentrantCall","inputs":[]},{"type":"error","name":"SelectorAlreadyRegistered","inputs":[{"name":"selector","type":"bytes4","internalType":"bytes4"},{"name":"existingFacet","type":"address","internalType":"address"}]},{"type":"error","name":"UUPSUnauthorizedCallContext","inputs":[]},{"type":"error","name":"UUPSUnsupportedProxiableUUID","inputs":[{"name":"slot","type":"bytes32","internalType":"bytes32"}]},{"type":"error","name":"UnknownSelector","inputs":[{"name":"selector","type":"bytes4","internalType":"bytes4"}]},{"type":"error","name":"ZeroAddress","inputs":[]}],"bytecode":{"object":"0x60a080604052346100e857306080527ff0c57e16840df040f15088dc2f81fe391c3923bec73e23a9662efc9c229c6a005460ff8160401c166100d9576002600160401b03196001600160401b03821601610073575b6040516122ad90816100ed8239608051818181610a5701526114630152f35b6001600160401b0319166001600160401b039081177ff0c57e16840df040f15088dc2f81fe391c3923bec73e23a9662efc9c229c6a005581527fc7f505b2f371ae2175ee4913f4499e1f2633a7b5936321eed1cdaeb6115181d290602090a15f80610054565b63f92ee8a960e01b5f5260045ffd5b5f80fdfe60806040526004361015610015575b3661194357005b5f3560e01c806301ffc9a71461033057806305d64e381461032b5780630aa8b1101461032657806312d91c881461032157806318056dc21461031c57806319e82e6114610317578063248a9ca3146103125780632f2ff15d1461030d57806332273f611461030857806336568abe14610303578063453eccea146102fe57806346d163aa146102f95780634962f88f146102545780634de8addc146102f45780634e9c929a146102725780634f1ef286146102ef5780635095af64146102ea57806352d1902d146102e557806354de2320146102e05780635c975abb146102db57806366c36875146102ae57806372b5032d146102a957806375b238fc146102d657806377ab2cf3146102d15780637df92ada146102cc5780638a19c8bc146102c75780638a7fe60f146102c257806390837ff4146102bd57806391d14854146102b85780639494f426146102b357806396085673146102ae5780639722f4b9146102a95780639e870585146102a4578063a217fddf1461029f578063a457af3d1461029a578063a4b32de814610295578063a7fa6f9814610290578063aaf5eb681461028b578063ad3cb1cc14610286578063b54b2b9e14610281578063ba05bbf51461027c578063c07449e214610277578063c550d93814610272578063cbb6d6bd1461026d578063d27a6f0614610268578063d547741f14610263578063db8a173a1461025e578063e07dec2914610259578063e1a4521814610254578063f3c9b3111461024f5763f7cb789a0361000e576113fa565b6113dd565b61083a565b611310565b6112ea565b6112b9565b61129c565b61111b565b61087f565b61107f565b611060565b61103e565b610fe0565b610fbe565b610fa2565b610f68565b610e19565b610d74565b610d57565b610b49565b610b08565b610d16565b610cbb565b610c77565b610c37565b610c12565b610bf5565b610bd3565b610b99565b610ac7565b610aab565b610a45565b610a0b565b610995565b610856565b610711565b6106f5565b6106b1565b61068d565b610657565b610639565b61059d565b610551565b6104f2565b610421565b6103a1565b61034b565b6001600160e01b031981160361034757565b5f80fd5b3461034757602036600319011261034757602060043561036a81610335565b63ffffffff60e01b16637965db0b60e01b8114908115610390575b506040519015158152f35b6301ffc9a760e01b1490505f610385565b34610347575f3660031901126103475760206001600160401b035f5460801c16604051908152f35b600435906001600160a01b038216820361034757565b602435906001600160a01b038216820361034757565b602435906001600160401b038216820361034757565b600435906001600160401b038216820361034757565b346103475760403660031901126103475761046f61043d6103c9565b6104456103f5565b9060018060a01b03165f52604e60205260405f20906001600160401b03165f5260205260405f2090565b805460018201546002830154600384015460048501546005860154600690960154604080516001600160401b03808916825288831c81166020830152608098891c1691810191909152606081019590955261ffff9093169484019490945260a083015260c082019290925260e081019290925261010082015261012090f35b0390f35b346103475760403660031901126103475761050b6103c9565b6001600160a01b03165f908152600f6020908152604080832060243584529091529020548061054957506020670de0b6b3a76400005b604051908152f35b602090610541565b34610347575f366003190112610347576020604051612af88152f35b9181601f84011215610347578235916001600160401b038311610347576020808501948460051b01011161034757565b34610347576040366003190112610347576105b66103c9565b6024356001600160401b038111610347576105d590369060040161056d565b916105de61199d565b6105e783611422565b916105f56040519384610929565b838352602083019360051b81019036821161034757935b81851061061f5761061d8484611a66565b005b60208091863561062e81610335565b81520194019361060c565b34610347576020366003190112610347576020610541600435611439565b346103475760403660031901126103475761061d6004356106766103df565b9061068861068382611439565b611a0c565b611df1565b34610347575f36600319011261034757602061ffff60015460801c16604051908152f35b34610347576040366003190112610347576004356106cd6103df565b336001600160a01b038216036106e65761061d91611e86565b63334bd91960e11b5f5260045ffd5b34610347575f366003190112610347576020604051613e808152f35b346103475760203660031901126103475761072a6103c9565b61073261199d565b604051630dc4b72f60e31b8152906001600160a01b038116905f83600481855afa90811561082f575f91610791575b9061076b91611a66565b7f4d3c30f5993f1922a779345a0f7ec1a170f1e52e9d230824f9c17e63596c906d5f80a2005b90503d805f853e6107a28185610929565b830192602081850312610347578051906001600160401b038211610347570183601f82011215610347578051936107d885611422565b916107e66040519384610929565b85835260208084019660051b82010191821161034757602001945b818610610815575092935083925090610761565b60208091875161082481610335565b815201950194610801565b6040513d5f823e3d90fd5b34610347575f3660031901126103475760206040516127108152f35b34610347575f3660031901126103475760206001600160401b0360015460401c16604051908152f35b346103475760403660031901126103475760206001600160401b036108cf6108a561040b565b826108ae6103df565b91165f526051845260405f209060018060a01b03165f5260205260405f2090565b5416604051908152f35b634e487b7160e01b5f52604160045260245ffd5b61012081019081106001600160401b0382111761090957604052565b6108d9565b604081019081106001600160401b0382111761090957604052565b90601f801991011681019081106001600160401b0382111761090957604052565b6040519061095a61012083610929565b565b6040519061095a604083610929565b6040519061095a60c083610929565b6001600160401b03811161090957601f01601f191660200190565b6040366003190112610347576109a96103c9565b602435906001600160401b0382116103475736602383011215610347578160040135906109d58261097a565b916109e36040519384610929565b8083523660248286010111610347576020815f92602461061d97018387013784010152611457565b34610347575f3660031901126103475760206040517f12b42e8a160f6064dc959c6f251e3af0750ad213dbecf573b4710d67d6c28e398152f35b34610347575f366003190112610347577f00000000000000000000000000000000000000000000000000000000000000006001600160a01b03163003610a9c5760206040515f805160206122418339815191528152f35b63703e46dd60e11b5f5260045ffd5b34610347575f366003190112610347576020604051612ee08152f35b34610347575f36600319011261034757602060ff7fcd5ed15c6e187e77e9aee88184c21f4f2182ab5827cb3b7e07fbedcd63f0330054166040519015158152f35b34610347576020366003190112610347576001600160a01b03610b296103c9565b165f52604f60205260206001600160401b0360405f205416604051908152f35b346103475760403660031901126103475760206001600160401b036108cf610b6f61040b565b82610b786103df565b91165f526050845260405f209060018060a01b03165f5260205260405f2090565b34610347575f3660031901126103475760206040517fa49807205ce4d355092ef5a8a18f56e8913cf4a201fbe287825b095693c217758152f35b34610347575f36600319011261034757602060ff600554166040519015158152f35b34610347575f366003190112610347576020604051624f1a008152f35b34610347575f3660031901126103475760206001600160401b035f5416604051908152f35b34610347576020366003190112610347576001600160a01b03610c586103c9565b165f526006602052602060018060a01b0360405f205416604051908152f35b3461034757602036600319011261034757600435610c9481610335565b63ffffffff60e01b165f52601e602052602060018060a01b0360405f205416604051908152f35b3461034757604036600319011261034757602060ff610d0a600435610cde6103df565b905f525f80516020612261833981519152845260405f209060018060a01b03165f5260205260405f2090565b54166040519015158152f35b3461034757606036600319011261034757610d2f6103c9565b610d376103f5565b906044356001600160a01b038116810361034757602092610541926115a8565b34610347575f36600319011261034757602060405162278d008152f35b34610347575f3660031901126103475760206040515f8152f35b919091610100806101208301946001600160401b0381511684526001600160401b036020820151166020850152610dd5604082015160408601906001600160401b03169052565b60608101516060850152610df46080820151608086019061ffff169052565b60a081015160a085015260c081015160c085015260e081015160e08501520151910152565b34610347576040366003190112610347576104ee610ea9610e386103c9565b610e406103f5565b905f610100604051610e51816108ed565b8281528260208201528260408201528260608201528260808201528260a08201528260c08201528260e0820152015260018060a01b03165f52604e60205260405f20906001600160401b03165f5260205260405f2090565b6006610eb361094a565b91610f0f610eff8254610edc610ecf826001600160401b031690565b6001600160401b03168752565b6001600160401b03604082901c1660208701525b60801c6001600160401b031690565b6001600160401b03166040850152565b60018101546060840152610f36610f2b600283015461ffff1690565b61ffff166080850152565b600381015460a0840152600481015460c0840152600581015460e0840152015461010082015260405191829182610d8e565b34610347575f3660031901126103475760206040517fb1fadd3142ab2ad7f1337ea4d97112bcc8337fc11ce5b20cb04ad038adf998198152f35b34610347575f3660031901126103475760206040516132c88152f35b34610347575f366003190112610347576020604051670de0b6b3a76400008152f35b34610347575f366003190112610347576040805190610fff8183610929565b600582526020820191640352e302e360dc1b83528151928391602083525180918160208501528484015e5f828201840152601f01601f19168101030190f35b34610347575f36600319011261034757602060ff600754166040519015158152f35b34610347575f3660031901126103475760205f5460c01c604051908152f35b34610347576040366003190112610347576104ee6110e461109e61040b565b6001600160401b036110ae6103df565b915f60206040516110be8161090e565b8281520152165f52600e60205260405f209060018060a01b03165f5260205260405f2090565b6001604051916110f38361090e565b8054835201546020820152604051918291829190916020806040830194805184520151910152565b34610347576080366003190112610347576111346103c9565b6024359060643560443561ffff82168203610347575f8051602061228183398151915254936001600160401b0361117a60ff604088901c1615966001600160401b031690565b1680159081611294575b600114908161128a575b159081611281575b50611272576111d993856111d060016001600160401b03195f805160206122818339815191525416175f8051602061228183398151915255565b6112385761170a565b6111df57005b61120960ff60401b195f8051602061228183398151915254165f8051602061228183398151915255565b604051600181527fc7f505b2f371ae2175ee4913f4499e1f2633a7b5936321eed1cdaeb6115181d290602090a1005b61126d6801000000000000000060ff60401b195f805160206122818339815191525416175f8051602061228183398151915255565b61170a565b63f92ee8a960e01b5f5260045ffd5b9050155f611196565b303b15915061118e565b869150611184565b34610347575f3660031901126103475760206040516276a7008152f35b346103475760403660031901126103475761061d6004356112d86103df565b906112e561068382611439565b611e86565b34610347575f3660031901126103475760206001600160401b0360015416604051908152f35b34610347576020366003190112610347576004356001600160401b0381116103475761134090369060040161056d565b61134861199d565b5f5b81811061135357005b806113616001928486611924565b3561136b81610335565b6001600160e01b0319165f908152601e6020526040902080546001600160a01b03191690556113b36113a66113a1838688611924565b611939565b6001600160e01b03191690565b7fbeb27701828f515b03069d44da6519b6c491da13ef1ca7082e619959d1f48ddb5f80a20161134a565b34610347575f36600319011261034757602060405162ed4e008152f35b34610347575f3660031901126103475760206001600160401b035f5460401c16604051908152f35b6001600160401b0381116109095760051b60200190565b5f525f80516020612261833981519152602052600160405f20015490565b90916001600160a01b037f00000000000000000000000000000000000000000000000000000000000000001630811490811561154d575b50610a9c5761149b61199d565b6040516352d1902d60e01b8152926020846004816001600160a01b0387165afa5f948161151c575b506114e757634c9c8ce360e01b5f526001600160a01b03831660045260245ffd5b5ffd5b90915f8051602061224183398151915284036115085761095a9293506120b5565b632a87526960e21b5f52600484905260245ffd5b61153f91955060203d602011611546575b6115378183610929565b810190611f26565b935f6114c3565b503d61152d565b5f80516020612241833981519152546001600160a01b0316141590505f61148e565b634e487b7160e01b5f52601160045260245ffd5b9190820391821161159057565b61156f565b8181029291811591840414171561159057565b9092916115da5f9460018060a01b0384165f52604e60205260405f20906001600160401b03165f5260205260405f2090565b906115e361094a565b92611634611624845461160c6115ff826001600160401b031690565b6001600160401b03168852565b6001600160401b03604082901c166020880152610ef0565b6001600160401b03166040860152565b60018301546060850190815261165d611652600286015461ffff1690565b61ffff166080870152565b600384015460a08601526001600160401b036116a360048601549660c08101978852600660058801549760e083019889520154610100820152516001600160401b031690565b161561170057906116b692915191611fa5565b9182156116f857519051908181116116cd57505050565b6116f59394506116e792916116e191611583565b90611595565b670de0b6b3a7640000900490565b90565b505f93505050565b505f955050505050565b906117fd61188794936117a361185494611722612157565b61172a612157565b611732612157565b61173a612157565b60ff197fcd5ed15c6e187e77e9aee88184c21f4f2182ab5827cb3b7e07fbedcd63f0330054167fcd5ed15c6e187e77e9aee88184c21f4f2182ab5827cb3b7e07fbedcd63f033005561178a612041565b61179381611bd3565b5061179d81611c6f565b50611d30565b506117bd6117af61095c565b5f81525f6020820152612077565b906117c661096b565b6001815293602085015260408401525f60608401525f60808401526117ef60a084016127109052565b5f52600260205260405f2090565b90600561ffff60a081938051151560ff801988541691151516178655602081015160018701556040810151600287015560608101516003870155608081015160048701550151169201911661ffff19825416179055565b611866600160ff196005541617600555565b6001805461ffff60801b191660809290921b61ffff60801b16919091179055565b61189d60016001600160401b03195f5416175f55565b6118c0695460000000000000000067ffffffffffffffff60401b195f5416175f55565b5f80546001600160c01b0316600760c21b1790556118ec601c6001600160401b03196001541617600155565b61095a6838000000000000000067ffffffffffffffff60401b196001541617600155565b634e487b7160e01b5f52603260045260245ffd5b91908110156119345760051b0190565b611910565b356116f581610335565b5f80356001600160e01b031916808252601e6020526040909120546001600160a01b031690811561198b575f8083368280378136915af43d5f803e15611987573d5ff35b3d5ffd5b63c2a825f560e01b5f5260045260245ffd5b335f9081527fb16e88c42fd4e48df2dd6a2eabd6bc9aec654ec170056b470819f8892cc6431c602052604090205460ff16156119d557565b63e2517d3f60e01b5f52336004527fa49807205ce4d355092ef5a8a18f56e8913cf4a201fbe287825b095693c2177560245260445ffd5b5f8181525f805160206122618339815191526020908152604080832033845290915290205460ff1615611a3c5750565b63e2517d3f60e01b5f523360045260245260445ffd5b80518210156119345760209160051b010190565b9091906001600160a01b038116908115611bc457803b15611ba9575f5b8451811015611ba257611ad1611ac4611aad611a9f8489611a52565b516001600160e01b03191690565b63ffffffff60e01b165f52601e60205260405f2090565b546001600160a01b031690565b6001600160a01b03811680151590859082611b97575b5050611b5f575080611b2483611b05611aad611a9f6001968b611a52565b80546001600160a01b0319166001600160a01b03909216919091179055565b83611b356113a6611a9f848a611a52565b7f12557f25e458d9682d7c959b5a960bc9332e8b7af1120b54a333bfc1ff282b395f80a301611a83565b611b6f611a9f6114e49388611a52565b6310ae11a960e31b5f526001600160e01b0319166004526001600160a01b0316602452604490565b14159050845f611ae7565b5050509050565b6322a2d07b60e21b5f526001600160a01b031660045260245ffd5b63d92e233d60e01b5f5260045ffd5b6001600160a01b0381165f9081527fb7db2dd08fcb62d0c9e08c51941cae53c267786a0b75803fb7960902fc8ef97d602052604090205460ff16611c6a576001600160a01b03165f8181527fb7db2dd08fcb62d0c9e08c51941cae53c267786a0b75803fb7960902fc8ef97d60205260408120805460ff191660011790553391905f805160206122218339815191528180a4600190565b505f90565b6001600160a01b0381165f9081527fb16e88c42fd4e48df2dd6a2eabd6bc9aec654ec170056b470819f8892cc6431c602052604090205460ff16611c6a576001600160a01b0381165f9081527fb16e88c42fd4e48df2dd6a2eabd6bc9aec654ec170056b470819f8892cc6431c60205260409020805460ff1916600117905533906001600160a01b03167fa49807205ce4d355092ef5a8a18f56e8913cf4a201fbe287825b095693c217755f805160206122218339815191525f80a4600190565b6001600160a01b0381165f9081527f5bc841a6d925a620866922bada36d16da3dcc9d52290519ea1126e5ca2372139602052604090205460ff16611c6a576001600160a01b0381165f9081527f5bc841a6d925a620866922bada36d16da3dcc9d52290519ea1126e5ca237213960205260409020805460ff1916600117905533906001600160a01b03167fb1fadd3142ab2ad7f1337ea4d97112bcc8337fc11ce5b20cb04ad038adf998195f805160206122218339815191525f80a4600190565b5f8181525f80516020612261833981519152602090815260408083206001600160a01b038616845290915290205460ff16611e80575f8181525f80516020612261833981519152602090815260408083206001600160a01b03861684529091529020805460ff1916600117905533916001600160a01b0316905f805160206122218339815191525f80a4600190565b50505f90565b5f8181525f80516020612261833981519152602090815260408083206001600160a01b038616845290915290205460ff1615611e80575f8181525f80516020612261833981519152602090815260408083206001600160a01b03861684529091529020805460ff1916905533916001600160a01b0316907ff6391f5c32d9c69d2a47ea670b442974b53935d1edc7fd64eb21e047a839171b5f80a4600190565b90816020910312610347575190565b8054821015611934575f5260205f209060021b01905f90565b90604051611f5b8161090e565b80925460ff8116906002821015611f845790825260081c6001600160a01b031660209190910152565b634e487b7160e01b5f52602160045260245ffd5b9190820180921161159057565b6001600160a01b03165f90815260136020526040812080549194938593915b838510611fd2575050505050565b9091929395611fe18783611f35565b5080546001600160a01b03868116911614801590612024575b61201a576001918261200e92015490611f98565b965b0193929190611fc4565b5095600190612010565b508361203a61203560028401611f4e565b612077565b1415611ffa565b612049612157565b612051612157565b60017f9b779b17422d0df92223018b32b4d1fa46e071723d6817e2486d003becc55f0055565b8051906002821015611f8457602090810151604080519283019384526001600160a01b039091168282015281526120af606082610929565b51902090565b90813b15612136575f8051602061224183398151915280546001600160a01b0319166001600160a01b0384169081179091557fbc7cd75a20ee27fd9adebab32041f755214dbc6bffa90cc0225b39da2e5c2d3b5f80a280511561211e5761211b91612182565b50565b50503461212757565b63b398979f60e01b5f5260045ffd5b50634c9c8ce360e01b5f9081526001600160a01b0391909116600452602490fd5b60ff5f805160206122818339815191525460401c161561217357565b631afcd79f60e31b5f5260045ffd5b5f806116f593602081519101845af43d156121be573d916121a28361097a565b926121b06040519485610929565b83523d5f602085013e6121c2565b6060915b906121e657508051156121d757805190602001fd5b63d6bda27560e01b5f5260045ffd5b81511580612217575b6121f7575090565b639996b31560e01b5f9081526001600160a01b0391909116600452602490fd5b50803b156121ef56fe2f8788117e7eff1d82e926ec794901d17c78024a50270940304540a733656f0d360894a13ba1a3210667c828492db98dca3e2076cc3735a920a3ca505d382bbc02dd7bc7dec4dceedda775e58dd541e08a116c6c53815c0bd028192f7b626800f0c57e16840df040f15088dc2f81fe391c3923bec73e23a9662efc9c229c6a00a164736f6c634300081a000a","linkReferences":{}},"methodIdentifiers":{"ADMIN_ROLE()":"75b238fc","ASSET_MANAGER_ROLE()":"a4b32de8","BPS_DENOMINATOR()":"e1a45218","DEFAULT_ADMIN_ROLE()":"a217fddf","LOCK_ONE_MONTH()":"9e870585","LOCK_SIX_MONTHS()":"f3c9b311","LOCK_THREE_MONTHS()":"d27a6f06","LOCK_TWO_MONTHS()":"7df92ada","MULTIPLIER_NONE()":"4962f88f","MULTIPLIER_ONE_MONTH()":"18056dc2","MULTIPLIER_SIX_MONTHS()":"453eccea","MULTIPLIER_THREE_MONTHS()":"a7fa6f98","MULTIPLIER_TWO_MONTHS()":"54de2320","PRECISION()":"aaf5eb68","SLASHER_ROLE()":"5095af64","UPGRADE_INTERFACE_VERSION()":"ad3cb1cc","blueprintSlashCount(uint64,address)":"4e9c929a","clearFacetSelectors(bytes4[])":"e07dec29","currentRound()":"8a19c8bc","delegationBondLessDelay()":"ba05bbf5","facetForSelector(bytes4)":"90837ff4","getAssetAdapter(address)":"8a7fe60f","getOperatorSlashFactor(address,bytes32)":"12d91c88","getRoleAdmin(bytes32)":"248a9ca3","getSlashCount(address)":"66c36875","getSlashCountForBlueprint(uint64,address)":"c550d938","getSlashCountForService(uint64,address)":"72b5032d","getSlashImpact(address,uint64,address)":"9494f426","getSlashRecord(address,uint64)":"a457af3d","getSnapshot(uint64,address)":"c07449e2","grantRole(bytes32,address)":"2f2ff15d","hasRole(bytes32,address)":"91d14854","initialize(address,uint256,uint256,uint16)":"cbb6d6bd","lastRoundAdvance()":"05d64e38","leaveDelegatorsDelay()":"db8a173a","leaveOperatorsDelay()":"4de8addc","nativeEnabled()":"77ab2cf3","nextSlashId(address)":"96085673","operatorCommissionBps()":"32273f61","paused()":"5c975abb","proxiableUUID()":"52d1902d","registerFacet(address)":"46d163aa","registerFacetSelectors(address,bytes4[])":"19e82e61","renounceRole(bytes32,address)":"36568abe","requireAdapters()":"b54b2b9e","revokeRole(bytes32,address)":"d547741f","roundDuration()":"f7cb789a","serviceSlashCount(uint64,address)":"9722f4b9","slashHistory(address,uint64)":"0aa8b110","supportsInterface(bytes4)":"01ffc9a7","upgradeToAndCall(address,bytes)":"4f1ef286"},"id":172}