{"abi":[{"type":"constructor","inputs":[{"name":"_tangleCore","type":"address","internalType":"address"},{"name":"initialOwner","type":"address","internalType":"address"}],"stateMutability":"nonpayable"},{"type":"function","name":"DEFAULT_HEARTBEAT_INTERVAL","inputs":[],"outputs":[{"name":"","type":"uint64","internalType":"uint64"}],"stateMutability":"view"},{"type":"function","name":"DEFAULT_MAX_MISSED_HEARTBEATS","inputs":[],"outputs":[{"name":"","type":"uint8","internalType":"uint8"}],"stateMutability":"view"},{"type":"function","name":"DOMAIN_SEPARATOR","inputs":[],"outputs":[{"name":"","type":"bytes32","internalType":"bytes32"}],"stateMutability":"view"},{"type":"function","name":"HEARTBEAT_TYPEHASH","inputs":[],"outputs":[{"name":"","type":"bytes32","internalType":"bytes32"}],"stateMutability":"view"},{"type":"function","name":"MAX_METRIC_DEFINITIONS","inputs":[],"outputs":[{"name":"","type":"uint256","internalType":"uint256"}],"stateMutability":"view"},{"type":"function","name":"MAX_METRIC_NAME_LENGTH","inputs":[],"outputs":[{"name":"","type":"uint256","internalType":"uint256"}],"stateMutability":"view"},{"type":"function","name":"MAX_PAGE_SIZE","inputs":[],"outputs":[{"name":"","type":"uint256","internalType":"uint256"}],"stateMutability":"view"},{"type":"function","name":"SLASH_ALERT_COOLDOWN","inputs":[],"outputs":[{"name":"","type":"uint64","internalType":"uint64"}],"stateMutability":"view"},{"type":"function","name":"acceptOwnership","inputs":[],"outputs":[],"stateMutability":"nonpayable"},{"type":"function","name":"addMetricDefinition","inputs":[{"name":"serviceId","type":"uint64","internalType":"uint64"},{"name":"name","type":"string","internalType":"string"},{"name":"minValue","type":"uint256","internalType":"uint256"},{"name":"maxValue","type":"uint256","internalType":"uint256"},{"name":"required","type":"bool","internalType":"bool"}],"outputs":[],"stateMutability":"nonpayable"},{"type":"function","name":"checkOperatorStatus","inputs":[{"name":"serviceId","type":"uint64","internalType":"uint64"},{"name":"operator","type":"address","internalType":"address"}],"outputs":[],"stateMutability":"nonpayable"},{"type":"function","name":"checkOperatorsStatus","inputs":[{"name":"serviceId","type":"uint64","internalType":"uint64"},{"name":"operators","type":"address[]","internalType":"address[]"}],"outputs":[],"stateMutability":"nonpayable"},{"type":"function","name":"configureHeartbeat","inputs":[{"name":"serviceId","type":"uint64","internalType":"uint64"},{"name":"interval","type":"uint64","internalType":"uint64"},{"name":"maxMissed","type":"uint8","internalType":"uint8"}],"outputs":[],"stateMutability":"nonpayable"},{"type":"function","name":"decodeMetricPairs","inputs":[{"name":"payload","type":"bytes","internalType":"bytes"}],"outputs":[{"name":"pairs","type":"tuple[]","internalType":"struct IOperatorStatusRegistry.MetricPair[]","components":[{"name":"name","type":"string","internalType":"string"},{"name":"value","type":"uint256","internalType":"uint256"}]}],"stateMutability":"pure"},{"type":"function","name":"deregisterOperator","inputs":[{"name":"serviceId","type":"uint64","internalType":"uint64"},{"name":"operator","type":"address","internalType":"address"}],"outputs":[],"stateMutability":"nonpayable"},{"type":"function","name":"enableCustomMetrics","inputs":[{"name":"serviceId","type":"uint64","internalType":"uint64"},{"name":"enabled","type":"bool","internalType":"bool"}],"outputs":[],"stateMutability":"nonpayable"},{"type":"function","name":"getAllOperatorCount","inputs":[{"name":"serviceId","type":"uint64","internalType":"uint64"}],"outputs":[{"name":"","type":"uint256","internalType":"uint256"}],"stateMutability":"view"},{"type":"function","name":"getHeartbeatConfig","inputs":[{"name":"serviceId","type":"uint64","internalType":"uint64"}],"outputs":[{"name":"","type":"tuple","internalType":"struct IOperatorStatusRegistry.HeartbeatConfig","components":[{"name":"interval","type":"uint64","internalType":"uint64"},{"name":"maxMissed","type":"uint8","internalType":"uint8"},{"name":"customMetrics","type":"bool","internalType":"bool"}]}],"stateMutability":"view"},{"type":"function","name":"getLastCriticalHeartbeat","inputs":[{"name":"serviceId","type":"uint64","internalType":"uint64"},{"name":"operator","type":"address","internalType":"address"}],"outputs":[{"name":"","type":"uint64","internalType":"uint64"}],"stateMutability":"view"},{"type":"function","name":"getLastHeartbeat","inputs":[{"name":"serviceId","type":"uint64","internalType":"uint64"},{"name":"operator","type":"address","internalType":"address"}],"outputs":[{"name":"","type":"uint256","internalType":"uint256"}],"stateMutability":"view"},{"type":"function","name":"getMetricDefinitions","inputs":[{"name":"serviceId","type":"uint64","internalType":"uint64"}],"outputs":[{"name":"","type":"tuple[]","internalType":"struct IOperatorStatusRegistry.MetricDefinition[]","components":[{"name":"name","type":"string","internalType":"string"},{"name":"minValue","type":"uint256","internalType":"uint256"},{"name":"maxValue","type":"uint256","internalType":"uint256"},{"name":"required","type":"bool","internalType":"bool"}]}],"stateMutability":"view"},{"type":"function","name":"getMetricValue","inputs":[{"name":"serviceId","type":"uint64","internalType":"uint64"},{"name":"operator","type":"address","internalType":"address"},{"name":"metricName","type":"string","internalType":"string"}],"outputs":[{"name":"","type":"uint256","internalType":"uint256"}],"stateMutability":"view"},{"type":"function","name":"getOnlineOperatorCount","inputs":[{"name":"serviceId","type":"uint64","internalType":"uint64"}],"outputs":[{"name":"","type":"uint256","internalType":"uint256"}],"stateMutability":"view"},{"type":"function","name":"getOnlineOperators","inputs":[{"name":"serviceId","type":"uint64","internalType":"uint64"}],"outputs":[{"name":"","type":"address[]","internalType":"address[]"}],"stateMutability":"view"},{"type":"function","name":"getOperatorState","inputs":[{"name":"serviceId","type":"uint64","internalType":"uint64"},{"name":"operator","type":"address","internalType":"address"}],"outputs":[{"name":"","type":"tuple","internalType":"struct IOperatorStatusRegistry.OperatorState","components":[{"name":"lastHeartbeat","type":"uint256","internalType":"uint256"},{"name":"consecutiveBeats","type":"uint64","internalType":"uint64"},{"name":"missedBeats","type":"uint8","internalType":"uint8"},{"name":"status","type":"uint8","internalType":"enum IOperatorStatusRegistry.StatusCode"},{"name":"lastMetricsHash","type":"bytes32","internalType":"bytes32"}]}],"stateMutability":"view"},{"type":"function","name":"getOperatorStatus","inputs":[{"name":"serviceId","type":"uint64","internalType":"uint64"},{"name":"operator","type":"address","internalType":"address"}],"outputs":[{"name":"","type":"uint8","internalType":"enum IOperatorStatusRegistry.StatusCode"}],"stateMutability":"view"},{"type":"function","name":"getSlashableOperators","inputs":[{"name":"serviceId","type":"uint64","internalType":"uint64"}],"outputs":[{"name":"operators","type":"address[]","internalType":"address[]"}],"stateMutability":"view"},{"type":"function","name":"getSlashableOperatorsPaginated","inputs":[{"name":"serviceId","type":"uint64","internalType":"uint64"},{"name":"offset","type":"uint256","internalType":"uint256"},{"name":"limit","type":"uint256","internalType":"uint256"}],"outputs":[{"name":"operators","type":"address[]","internalType":"address[]"},{"name":"total","type":"uint256","internalType":"uint256"}],"stateMutability":"view"},{"type":"function","name":"goOffline","inputs":[{"name":"serviceId","type":"uint64","internalType":"uint64"}],"outputs":[],"stateMutability":"nonpayable"},{"type":"function","name":"goOnline","inputs":[{"name":"serviceId","type":"uint64","internalType":"uint64"}],"outputs":[],"stateMutability":"nonpayable"},{"type":"function","name":"heartbeatConfigs","inputs":[{"name":"","type":"uint64","internalType":"uint64"}],"outputs":[{"name":"interval","type":"uint64","internalType":"uint64"},{"name":"maxMissed","type":"uint8","internalType":"uint8"},{"name":"customMetrics","type":"bool","internalType":"bool"}],"stateMutability":"view"},{"type":"function","name":"isHeartbeatCurrent","inputs":[{"name":"serviceId","type":"uint64","internalType":"uint64"},{"name":"operator","type":"address","internalType":"address"}],"outputs":[{"name":"","type":"bool","internalType":"bool"}],"stateMutability":"view"},{"type":"function","name":"isOnline","inputs":[{"name":"serviceId","type":"uint64","internalType":"uint64"},{"name":"operator","type":"address","internalType":"address"}],"outputs":[{"name":"","type":"bool","internalType":"bool"}],"stateMutability":"view"},{"type":"function","name":"isRegisteredOperator","inputs":[{"name":"serviceId","type":"uint64","internalType":"uint64"},{"name":"operator","type":"address","internalType":"address"}],"outputs":[{"name":"","type":"bool","internalType":"bool"}],"stateMutability":"view"},{"type":"function","name":"metricValues","inputs":[{"name":"","type":"uint64","internalType":"uint64"},{"name":"","type":"address","internalType":"address"},{"name":"","type":"string","internalType":"string"}],"outputs":[{"name":"","type":"uint256","internalType":"uint256"}],"stateMutability":"view"},{"type":"function","name":"metricsRecorder","inputs":[],"outputs":[{"name":"","type":"address","internalType":"address"}],"stateMutability":"view"},{"type":"function","name":"operatorStates","inputs":[{"name":"","type":"uint64","internalType":"uint64"},{"name":"","type":"address","internalType":"address"}],"outputs":[{"name":"lastHeartbeat","type":"uint256","internalType":"uint256"},{"name":"consecutiveBeats","type":"uint64","internalType":"uint64"},{"name":"missedBeats","type":"uint8","internalType":"uint8"},{"name":"status","type":"uint8","internalType":"enum IOperatorStatusRegistry.StatusCode"},{"name":"lastMetricsHash","type":"bytes32","internalType":"bytes32"}],"stateMutability":"view"},{"type":"function","name":"owner","inputs":[],"outputs":[{"name":"","type":"address","internalType":"address"}],"stateMutability":"view"},{"type":"function","name":"pendingOwner","inputs":[],"outputs":[{"name":"","type":"address","internalType":"address"}],"stateMutability":"view"},{"type":"function","name":"registerOperator","inputs":[{"name":"serviceId","type":"uint64","internalType":"uint64"},{"name":"operator","type":"address","internalType":"address"}],"outputs":[],"stateMutability":"nonpayable"},{"type":"function","name":"registerServiceOwner","inputs":[{"name":"serviceId","type":"uint64","internalType":"uint64"},{"name":"owner","type":"address","internalType":"address"}],"outputs":[],"stateMutability":"nonpayable"},{"type":"function","name":"removeInactiveOperator","inputs":[{"name":"serviceId","type":"uint64","internalType":"uint64"},{"name":"operator","type":"address","internalType":"address"}],"outputs":[],"stateMutability":"nonpayable"},{"type":"function","name":"renounceOwnership","inputs":[],"outputs":[],"stateMutability":"nonpayable"},{"type":"function","name":"reportForSlashing","inputs":[{"name":"serviceId","type":"uint64","internalType":"uint64"},{"name":"operator","type":"address","internalType":"address"},{"name":"reason","type":"string","internalType":"string"}],"outputs":[],"stateMutability":"nonpayable"},{"type":"function","name":"serviceMetrics","inputs":[{"name":"","type":"uint64","internalType":"uint64"},{"name":"","type":"uint256","internalType":"uint256"}],"outputs":[{"name":"name","type":"string","internalType":"string"},{"name":"minValue","type":"uint256","internalType":"uint256"},{"name":"maxValue","type":"uint256","internalType":"uint256"},{"name":"required","type":"bool","internalType":"bool"}],"stateMutability":"view"},{"type":"function","name":"serviceOwners","inputs":[{"name":"","type":"uint64","internalType":"uint64"}],"outputs":[{"name":"","type":"address","internalType":"address"}],"stateMutability":"view"},{"type":"function","name":"setMetricDefinitions","inputs":[{"name":"serviceId","type":"uint64","internalType":"uint64"},{"name":"definitions","type":"tuple[]","internalType":"struct IOperatorStatusRegistry.MetricDefinition[]","components":[{"name":"name","type":"string","internalType":"string"},{"name":"minValue","type":"uint256","internalType":"uint256"},{"name":"maxValue","type":"uint256","internalType":"uint256"},{"name":"required","type":"bool","internalType":"bool"}]}],"outputs":[],"stateMutability":"nonpayable"},{"type":"function","name":"setMetricsRecorder","inputs":[{"name":"recorder","type":"address","internalType":"address"}],"outputs":[],"stateMutability":"nonpayable"},{"type":"function","name":"setSlashingOracle","inputs":[{"name":"oracle","type":"address","internalType":"address"}],"outputs":[],"stateMutability":"nonpayable"},{"type":"function","name":"slashingOracle","inputs":[],"outputs":[{"name":"","type":"address","internalType":"address"}],"stateMutability":"view"},{"type":"function","name":"submitHeartbeat","inputs":[{"name":"serviceId","type":"uint64","internalType":"uint64"},{"name":"blueprintId","type":"uint64","internalType":"uint64"},{"name":"statusCode","type":"uint8","internalType":"uint8"},{"name":"metrics","type":"bytes","internalType":"bytes"},{"name":"signature","type":"bytes","internalType":"bytes"}],"outputs":[],"stateMutability":"nonpayable"},{"type":"function","name":"submitHeartbeatDirect","inputs":[{"name":"serviceId","type":"uint64","internalType":"uint64"},{"name":"blueprintId","type":"uint64","internalType":"uint64"},{"name":"statusCode","type":"uint8","internalType":"uint8"},{"name":"metrics","type":"bytes","internalType":"bytes"}],"outputs":[],"stateMutability":"nonpayable"},{"type":"function","name":"tangleCore","inputs":[],"outputs":[{"name":"","type":"address","internalType":"address"}],"stateMutability":"view"},{"type":"function","name":"transferOwnership","inputs":[{"name":"newOwner","type":"address","internalType":"address"}],"outputs":[],"stateMutability":"nonpayable"},{"type":"function","name":"validateAndStoreMetrics","inputs":[{"name":"serviceId","type":"uint64","internalType":"uint64"},{"name":"operator","type":"address","internalType":"address"},{"name":"pairs","type":"tuple[]","internalType":"struct IOperatorStatusRegistry.MetricPair[]","components":[{"name":"name","type":"string","internalType":"string"},{"name":"value","type":"uint256","internalType":"uint256"}]},{"name":"pairsLen","type":"uint256","internalType":"uint256"}],"outputs":[],"stateMutability":"nonpayable"},{"type":"event","name":"HeartbeatConfigUpdated","inputs":[{"name":"serviceId","type":"uint64","indexed":true,"internalType":"uint64"},{"name":"interval","type":"uint64","indexed":false,"internalType":"uint64"},{"name":"maxMissed","type":"uint8","indexed":false,"internalType":"uint8"}],"anonymous":false},{"type":"event","name":"HeartbeatReceived","inputs":[{"name":"serviceId","type":"uint64","indexed":true,"internalType":"uint64"},{"name":"blueprintId","type":"uint64","indexed":true,"internalType":"uint64"},{"name":"operator","type":"address","indexed":true,"internalType":"address"},{"name":"statusCode","type":"uint8","indexed":false,"internalType":"uint8"},{"name":"timestamp","type":"uint256","indexed":false,"internalType":"uint256"}],"anonymous":false},{"type":"event","name":"MetricReported","inputs":[{"name":"serviceId","type":"uint64","indexed":true,"internalType":"uint64"},{"name":"operator","type":"address","indexed":true,"internalType":"address"},{"name":"metricName","type":"string","indexed":false,"internalType":"string"},{"name":"value","type":"uint256","indexed":false,"internalType":"uint256"}],"anonymous":false},{"type":"event","name":"MetricViolation","inputs":[{"name":"serviceId","type":"uint64","indexed":true,"internalType":"uint64"},{"name":"operator","type":"address","indexed":true,"internalType":"address"},{"name":"metricName","type":"string","indexed":false,"internalType":"string"},{"name":"reason","type":"string","indexed":false,"internalType":"string"}],"anonymous":false},{"type":"event","name":"OperatorCameOnline","inputs":[{"name":"serviceId","type":"uint64","indexed":true,"internalType":"uint64"},{"name":"operator","type":"address","indexed":true,"internalType":"address"}],"anonymous":false},{"type":"event","name":"OperatorDeregistered","inputs":[{"name":"serviceId","type":"uint64","indexed":true,"internalType":"uint64"},{"name":"operator","type":"address","indexed":true,"internalType":"address"}],"anonymous":false},{"type":"event","name":"OperatorRegistered","inputs":[{"name":"serviceId","type":"uint64","indexed":true,"internalType":"uint64"},{"name":"operator","type":"address","indexed":true,"internalType":"address"}],"anonymous":false},{"type":"event","name":"OperatorWentOffline","inputs":[{"name":"serviceId","type":"uint64","indexed":true,"internalType":"uint64"},{"name":"operator","type":"address","indexed":true,"internalType":"address"},{"name":"missedBeats","type":"uint8","indexed":false,"internalType":"uint8"}],"anonymous":false},{"type":"event","name":"OwnershipTransferStarted","inputs":[{"name":"previousOwner","type":"address","indexed":true,"internalType":"address"},{"name":"newOwner","type":"address","indexed":true,"internalType":"address"}],"anonymous":false},{"type":"event","name":"OwnershipTransferred","inputs":[{"name":"previousOwner","type":"address","indexed":true,"internalType":"address"},{"name":"newOwner","type":"address","indexed":true,"internalType":"address"}],"anonymous":false},{"type":"event","name":"SlashingTriggered","inputs":[{"name":"serviceId","type":"uint64","indexed":true,"internalType":"uint64"},{"name":"operator","type":"address","indexed":true,"internalType":"address"},{"name":"reason","type":"string","indexed":false,"internalType":"string"}],"anonymous":false},{"type":"event","name":"StatusChanged","inputs":[{"name":"serviceId","type":"uint64","indexed":true,"internalType":"uint64"},{"name":"operator","type":"address","indexed":true,"internalType":"address"},{"name":"oldStatus","type":"uint8","indexed":false,"internalType":"enum IOperatorStatusRegistry.StatusCode"},{"name":"newStatus","type":"uint8","indexed":false,"internalType":"enum IOperatorStatusRegistry.StatusCode"}],"anonymous":false},{"type":"error","name":"ECDSAInvalidSignature","inputs":[]},{"type":"error","name":"ECDSAInvalidSignatureLength","inputs":[{"name":"length","type":"uint256","internalType":"uint256"}]},{"type":"error","name":"ECDSAInvalidSignatureS","inputs":[{"name":"s","type":"bytes32","internalType":"bytes32"}]},{"type":"error","name":"OwnableInvalidOwner","inputs":[{"name":"owner","type":"address","internalType":"address"}]},{"type":"error","name":"OwnableUnauthorizedAccount","inputs":[{"name":"account","type":"address","internalType":"address"}]}],"bytecode":{"object":"0x60c080604052346101885760408161416c803803809161001f828561018c565b83398101031261018857610032816101c3565b906001600160a01b0390610048906020016101c3565b1690811561017557600180546001600160a01b03199081169091555f80549182168417815560405193916001600160a01b0316907f8be0079c531659141344cd1fd0a4f28419497f9722a3daafe3b4186f6b6457e09080a360a05260208101907f8b73c3c69bb8fe3d512ecc4cf759cc79239f7b179b0ffacaa9a75d522b39400f82527f36ffc258c865193ae10c3cf640450ab772fdb8da1dfcae7862ad1205a5567f4c60408201527fc89efdaa54c0f20c7adf612882df0950f5a951637e0307cdcb4c672f298b8bc660608201524660808201523060a082015260a0815261013260c08261018c565b519020608052604051613f9490816101d8823960805181611f66015260a0518181816102a601528181610c2801528181611c590152818161213701526125900152f35b631e4fbdf760e01b5f525f60045260245ffd5b5f80fd5b601f909101601f19168101906001600160401b038211908210176101af57604052565b634e487b7160e01b5f52604160045260245ffd5b51906001600160a01b03821682036101885756fe60806040526004361015610011575f80fd5b5f3560e01c806305778550146125605780630758236f1461250a5780630c76697a146124b7578063191cbd1a1461221f5780631e8f5ee51461211057806320812956146120cd57806322f1ec931461203d5780632c957688146120215780632dae188514611ff957806331e3bd1b14611f895780633644e51514611f4f5780633ac3cbe614611f335780633e6e34a714611ea05780633fd62c6d14611e6857806340235a9c14611dd057806348f4da2014611db55780635685cf6814611d0557806356c4e17d14611cc557806359dcea1214611c885780635a936dc614611c445780635cce98a614611bbc5780636076439c14611ba157806360cf099114611b4857806361d6b86c14611b2d57806362c7e8fc14611aca57806365a6936e146116535780636bfe06a614611638578063715018a6146115d557806371e7388c146114d75780637639d2271461147b57806379ba5097146113f65780637b9f64b2146113be57806381beac2e1461137457806384ef7322146113315780638da5cb5b1461130a57806396686c1e146112715780639cbdae22146111e6578063adff830c14611060578063ae470a8514610e3c578063b074e9dd14610deb578063b99f675914610bf3578063ba1fb10314610bc9578063c1ef9ddf14610a8d578063c5d960bb14610973578063cfe347491461094b578063d413a58014610790578063d551162c1461073d578063da435a7c146106e3578063e30c3978146106bb578063e65cafcb146104cb578063ee1c039014610495578063f2fde38b14610423578063f9107f3b146103a9578063f9f167621461036f5763ffcf08f014610276575f80fd5b3461036b57604036600319011261036b5761028f61260c565b6001600160401b0361029f612638565b916102d4337f00000000000000000000000000000000000000000000000000000000000000006001600160a01b031614612b06565b16805f5260066020526102f460405f209260018060a01b03168093613d86565b1561033557805f52600460205261030e8260405f20613d86565b507f08bb93e5444209b15155078a13f6e341299d748d0c299f722c9cbc0723f0fe9e5f80a3005b60405162461bcd60e51b815260206004820152600e60248201526d139bdd081c9959da5cdd195c995960921b6044820152606490fd5b5f80fd5b3461036b575f36600319011261036b5760206040517fe1675f8364c07a4d60a07503f0d700a7bcacd82251dff0f070e5235de6c6d28a8152f35b3461036b57604036600319011261036b576103c261260c565b602435801515810361036b576001600160401b036104219216805f5260076020526103fa60018060a01b0360405f2054163314612ba4565b5f52600260205260405f209060ff60481b825491151560481b169060ff60481b1916179055565b005b3461036b57602036600319011261036b5761043c61264e565b610444613719565b60018060a01b0316806bffffffffffffffffffffffff60a01b600154161760015560018060a01b035f54167f38d16b8cac22d99fc7c124b9cd0de2d3fa1faef420bfe791d8c362d765e227005f80a3005b3461036b57604036600319011261036b5760206104c16104b361260c565b6104bb612638565b906135fd565b6040519015158152f35b3461036b57604036600319011261036b576104e461260c565b6104ec612638565b6001600160401b03821691825f52600760205260018060a01b0360405f205416331480156106a8575b61051e9061341d565b825f52600360205260405f2060018060a01b0383165f5260205260405f20906040519161054a8361272e565b8054835260ff60018201546001600160401b0381166020860152818160401c16604086015260481c16600581101561069457600260039282606087015201546080850152036105c9575b6104218385805f5260056020526105b860405f209260018060a01b03168093613d86565b505f52600460205260405f20613d86565b6105d56105ee916136a3565b60ff60206001600160401b038351169201511690612c27565b90600a820291808304600a1490151715610680575190811515918261066b575b50501561061c578280610594565b60405162461bcd60e51b815260206004820152602160248201527f4f70657261746f72206e6f7420656c696769626c6520666f722072656d6f76616044820152601b60fa1b6064820152608490fd5b61067791925042612e80565b1015838061060e565b634e487b7160e01b5f52601160045260245ffd5b634e487b7160e01b5f52602160045260245ffd5b505f546001600160a01b03163314610515565b3461036b575f36600319011261036b576001546040516001600160a01b039091168152602090f35b3461036b57602036600319011261036b576001600160401b0361070461260c565b165f526002602052606060405f205460ff604051916001600160401b0381168352818160401c16602084015260481c1615156040820152f35b3461036b5760206001600160401b038161075636612ab0565b949092165f526009835260405f209060018060a01b03165f52825260405f2083604051948593843782019081520301902054604051908152f35b3461036b5760a036600319011261036b576107a961260c565b6107b1612622565b906107ba612961565b906064356001600160401b03811161036b576107da90369060040161287f565b9290916084356001600160401b03811161036b576108ed6108e76108056108f693369060040161287f565b91906001600160401b0386165f52600660205261083c61083760405f2033906001915f520160205260405f2054151590565b612da6565b60405160c087811b6001600160c01b031990811660208401908152918d901b16602883015260f889901b6001600160f81b0319166030830152908a8a603183013761089a6031828d81015f838201520301601f19810183528261279a565b51902060405160208101917f19457468657265756d205369676e6564204d6573736167653a0a3332000000008352603c820152603c81526108dc605c8261279a565b5190209236916129a3565b90613e4b565b90929192613e85565b336001600160a01b03909116036109125761042194339161372c565b60405162461bcd60e51b8152602060048201526011602482015270496e76616c6964207369676e617475726560781b6044820152606490fd5b3461036b575f36600319011261036b57600a546040516001600160a01b039091168152602090f35b3461036b57602036600319011261036b576001600160401b0361099461260c565b16805f5260066020526109bc61083760405f2033906001915f520160205260405f2054151590565b5f8181526003602090815260408083203384529091529020600101805460481c60ff16919060058310156106945760038314610a4857690400000000000000000060ff60481b19825416179055805f526004602052610a1e3360405f20613d86565b50610a2c6040518093612918565b600460208301525f80516020613f6883398151915260403393a3005b60405162461bcd60e51b815260206004820152601f60248201527f43616e6e6f7420676f206f66666c696e65207768696c6520736c6173686564006044820152606490fd5b3461036b57602036600319011261036b576001600160401b03610aae61260c565b165f52600860205260405f20805490610ac682612971565b91610ad4604051938461279a565b8083526020830180925f5260205f205f915b838310610b7c57848660405191829160208301906020845251809152604083019060408160051b85010192915f905b828210610b2457505050500390f35b919360019193955060208091603f19898203018552875190606080610b52845160808552608085019061285b565b93858101518685015260408101516040850152015115159101529601920192018594939192610b15565b60046020600192604051610b8f81612749565b610b98866127bb565b815284860154838201526002860154604082015260ff60038701541615156060820152815201920192019190610ae6565b3461036b57604036600319011261036b57610421610be561260c565b610bed612638565b9061345a565b3461036b57606036600319011261036b57610c0c61260c565b610c14612622565b6001600160401b03610c24612961565b91337f00000000000000000000000000000000000000000000000000000000000000006001600160a01b0316148015610dc9575b610c619061341d565b1690603c8210610d8f5760ff169160018310610d4a577fc9599ed962624a858ec59bae0ed86c75f4db65fe04570021277edbedd04ea564916001600160401b036040921693845f526002602052610d3d60ff845f205460481c16845190610cc782612764565b848252610d2260ff6020840186815288850193151584528a5f5260026020526001600160401b03808a5f20965116166001600160401b03198654161785555116839060ff60401b82549160401b169060ff60401b1916179055565b51815460ff60481b191690151560481b60ff60481b16179055565b82519182526020820152a2005b60405162461bcd60e51b815260206004820152601760248201527f4d6178206d6973736564206d757374206265203e3d20310000000000000000006044820152606490fd5b60405162461bcd60e51b8152602060048201526012602482015271125b9d195c9d985b081d1bdbc81cda1bdc9d60721b6044820152606490fd5b508184165f908152600760205260409020546001600160a01b03163314610c58565b3461036b57602036600319011261036b57610421610e0761260c565b6001600160401b0381165f526006602052610e3761083760405f2033906001915f520160205260405f2054151590565b6132f8565b3461036b5760a036600319011261036b57610e5561260c565b6024356001600160401b03811161036b57610e7490369060040161287f565b90604435606435916084359485151580960361036b576001600160401b0316805f526007602052610eb260018060a01b0360405f2054163314612ba4565b610ebf6040861115612ca4565b610ecb83851015612ce0565b805f526008602052610ee3603260405f205410612be4565b5f526008602052610f0660405f209160405195610eff87612749565b36916129a3565b84526020840191825260408401928352606084019485528054600160401b81101561103957610f3a916001820181556126c9565b93909361104d57518051906001600160401b03821161103957610f6782610f6187546126f6565b87612d1d565b602090601f8311600114610fcf578260039593610421989593610f9f935f92610fc4575b50508160011b915f199060031b1c19161790565b85555b51600185015551600284015551151591019060ff801983541691151516179055565b015190508980610f8b565b90601f19831691865f52815f20925f5b8181106110215750926001928592600398966104219b98961061100a575b505050811b018555610fa2565b01515f1983891b60f8161c19169055888080610ffd565b92936020600181928786015181550195019301610fdf565b634e487b7160e01b5f52604160045260245ffd5b634e487b7160e01b5f525f60045260245ffd5b3461036b5761106e36612ab0565b90919260018060a01b03600a541633036111ab576001600160401b031691825f5260056020526110b960405f209460018060a01b031680956001915f520160205260405f2054151590565b15611173577f1e2909cf45d70cf003f334b73c93330ce7e572782dfc82fab79deb8855a7c79191835f52600360205260405f20855f52602052600160405f2001690300000000000000000060ff60481b19825416179055835f5260046020526111258560405f20613d86565b50835f52600c60205260405f20855f5260205260405f206001600160401b03804216166001600160401b031982541617905561116e6040519283926020845260208401916132d8565b0390a3005b60405162461bcd60e51b815260206004820152601060248201526f27b832b930ba37b9103ab735b737bbb760811b6044820152606490fd5b60405162461bcd60e51b81526020600482015260136024820152724e6f7420736c617368696e67206f7261636c6560681b6044820152606490fd5b3461036b57606036600319011261036b576111ff61260c565b611207612638565b6044356001600160401b03811161036b5760209283926001600160401b03611234859436906004016129d9565b92165f526009835260405f209060018060a01b03165f52825260405f20604051938285935191829101845e82019081520301902054604051908152f35b3461036b5761127f36612664565b906001600160401b035f9316925b8281101561042157600581901b8201356001600160a01b038116919082900361036b57303b1561036b576040519163ba1fb10360e01b835285600484015260248301525f8260448183305af19182156112ff576001926112ef575b500161128d565b5f6112f99161279a565b856112e8565b6040513d5f823e3d90fd5b3461036b575f36600319011261036b575f546040516001600160a01b039091168152602090f35b3461036b57602036600319011261036b5761134a61264e565b611352613719565b600a80546001600160a01b0319166001600160a01b0392909216919091179055005b3461036b57606036600319011261036b576113b46113a061139361260c565b604435906024359061309e565b604051928392604084526040840190612925565b9060208301520390f35b3461036b57602036600319011261036b576001600160401b036113df61260c565b165f526004602052602060405f2054604051908152f35b3461036b575f36600319011261036b57600154336001600160a01b039091160361146857600180546001600160a01b03199081169091555f805433928116831782556001600160a01b0316907f8be0079c531659141344cd1fd0a4f28419497f9722a3daafe3b4186f6b6457e09080a3005b63118cdaa760e01b5f523360045260245ffd5b3461036b57604036600319011261036b5761149461260c565b6001600160401b036114a4612638565b91165f52600c60205260405f209060018060a01b03165f5260205260206001600160401b0360405f205416604051908152f35b3461036b57604036600319011261036b576114f061260c565b6001600160401b03611500612638565b915f60806040516115108161272e565b8281528260208201528260408201528260608201520152165f52600360205260405f209060018060a01b03165f5260205260405f206040516115518161272e565b8154815260018201549160208201906001600160401b038416825260ff6040840194818160401c16865260481c16606084019060058110156106945760a0956001600160401b0360026115cd9560ff94865201549560808801968752604051975188525116602087015251166040850152516060840190612918565b516080820152f35b3461036b575f36600319011261036b576115ed613719565b600180546001600160a01b03199081169091555f80549182168155906001600160a01b03167f8be0079c531659141344cd1fd0a4f28419497f9722a3daafe3b4186f6b6457e08280a3005b3461036b575f36600319011261036b57602060405160408152f35b3461036b57608036600319011261036b5761166c61260c565b611674612638565b6044356001600160401b03811161036b576116939036906004016129f7565b60643592303303611a95576001600160401b031691825f52600860205260405f20936116be81612d60565b925f5b828110611a6e575085548015158091606092611a25575b505f5b8481106118175750505050505f928454945b8585106116f657005b60ff600361170487846126c9565b500154161561180d5761172a61173161171d87846126c9565b5060405192838092612df2565b038261279a565b602081519101205f945f5b81518110156117ff57826117508284612d92565b511461175e5760010161173c565b509450509493600190815b15611777575b0193946116ed565b61178181886126c9565b50837fe08f42896ce3aec2ff7da95a00372f33cf677e75ad602590832a8dffcdad63156117b960405193604085526040850190612df2565b927f5265717569726564206d6574726963206d697373696e6700000000000000000060208286039586828501526017815201526040868060a01b038916940190a361176f565b509460019297969150611769565b949360019061176f565b60015f836118ef575b5090600191611830575b016116db565b602061183c8287612d92565b510151895f52600960205260405f20838060a01b0389165f5260205260208060405f20611869858a612d92565b515190604051938285935191829101845e8201908152030190205561188e8186612d92565b5151897f23ed02bd3605bdea6a8afa76c46f00d274860ba6cea980f2585b696df9e182bd60206118be858a612d92565b510151926118d76040519160408352604083019061285b565b93602082015280868060a01b038c16940390a361182a565b8a545f5b818110611916575b505090600192911561190f575b9091611820565b505f611908565b611920858c612d92565b5161192b8289612d92565b5114611939576001016118f3565b6001949392508491508c602061194f868b612d92565b5101518361195d84846126c9565b500154119182156119fc575b5050611979575b9091928c6118fb565b90506119858287612d92565b51518a7fe08f42896ce3aec2ff7da95a00372f33cf677e75ad602590832a8dffcdad63156119be6040519360408552604085019061285b565b927256616c7565206f7574206f6620626f756e647360681b60208286039586828501526013815201526040878060a01b038d16940190a35f90611970565b6002919250611a1a906020611a11888d612d92565b510151936126c9565b500154108c8e611969565b9150611a3082612d60565b91885f5b828110611a425750506116d8565b61172a611a5461171d836001956126c9565b60208151910120611a658287612d92565b52018990611a34565b80611a7b60019284612d92565b515160208151910120611a8e8288612d92565b52016116c1565b60405162461bcd60e51b815260206004820152600d60248201526c496e7465726e616c206f6e6c7960981b6044820152606490fd5b3461036b57604036600319011261036b57611ae361260c565b6001600160401b03611af3612638565b91165f52600360205260405f209060018060a01b03165f52602052602060ff600160405f20015460481c16611b2b6040518092612918565bf35b3461036b575f36600319011261036b57602060405160038152f35b3461036b57604036600319011261036b5760206104c1611b6661260c565b6001600160401b03611b76612638565b91165f9081526006845260408082206001600160a01b03909316825260019092016020522054151590565b3461036b575f36600319011261036b57602060405160328152f35b3461036b57608036600319011261036b57611bd561260c565b611bdd612622565b90611be6612961565b91606435926001600160401b03841161036b57611c0a61042194369060040161287f565b9390926001600160401b0382165f526006602052611c3d61083760405f2033906001915f520160205260405f2054151590565b339161372c565b3461036b575f36600319011261036b576040517f00000000000000000000000000000000000000000000000000000000000000006001600160a01b03168152602090f35b3461036b57602036600319011261036b57611cc1611cac611ca761260c565b612e8d565b50604051918291602083526020830190612925565b0390f35b3461036b57602036600319011261036b576001600160401b03611ce661260c565b165f526007602052602060018060a01b0360405f205416604051908152f35b3461036b57604036600319011261036b57611d1e61260c565b6001600160401b03611d2e612638565b9116805f52600360205260405f2060018060a01b0383165f5260205260ff600160405f20015460481c1660058110156106945715908115611d77575b6020826040519015158152f35b90505f52600360205260405f209060018060a01b03165f5260205260ff600160405f20015460481c1660058110156106945760016020911482611d6a565b3461036b575f36600319011261036b57602060405160c88152f35b3461036b57602036600319011261036b576001600160401b03611df161260c565b16805f52600460205260405f2054611e0881612d60565b915f5b828110611e285760405160208082528190611cc190820187612925565b600190825f526004602052611e408160405f20613b10565b838060a01b0391549060031b1c16611e588287612d92565b90838060a01b0316905201611e0b565b3461036b57602036600319011261036b576001600160401b03611e8961260c565b165f526005602052602060405f2054604051908152f35b3461036b57604036600319011261036b57611eb961260c565b6001600160401b03611ec9612638565b91165f52600360205260405f209060018060a01b03165f5260205260a060405f20805490611f2c60026001830154920154916040519384526001600160401b038116602085015260ff8160401c16604085015260ff606085019160481c16612918565b6080820152f35b3461036b575f36600319011261036b576020604051610e108152f35b3461036b575f36600319011261036b5760206040517f00000000000000000000000000000000000000000000000000000000000000008152f35b3461036b57602036600319011261036b576004356001600160401b03811161036b57611fb990369060040161287f565b81019060208183031261036b578035916001600160401b03831161036b57611cc192611fe592016129f7565b6040519182916020835260208301906128ac565b3461036b575f36600319011261036b57600b546040516001600160a01b039091168152602090f35b3461036b575f36600319011261036b57602060405161012c8152f35b3461036b57604036600319011261036b5761205661260c565b6001600160401b0360243591165f52600860205260405f20805482101561036b576120b791612084916126c9565b5061208e816127bb565b9060018101549060ff60036002830154920154169060405194859460808652608086019061285b565b9260208501526040840152151560608301520390f35b3461036b57602036600319011261036b576120e661264e565b6120ee613719565b600b80546001600160a01b0319166001600160a01b0392909216919091179055005b3461036b57604036600319011261036b5761212961260c565b612131612638565b612165337f00000000000000000000000000000000000000000000000000000000000000006001600160a01b031614612b06565b6001600160a01b03169081156121eb576001600160401b0316805f52600660205261219b6121968360405f20613b25565b612b45565b805f52600360205260405f20825f52602052600160405f2001600160491b60ff60481b198254161790557f8e2d88795a3c66719a287658cbf68b3eb2b8e183cb18f46f4813913fc8aafc4b5f80a3005b60405162461bcd60e51b815260206004820152600c60248201526b5a65726f206164647265737360a01b6044820152606490fd5b3461036b576001600160401b0361223536612664565b919290921690815f52600760205261225a60018060a01b0360405f2054163314612ba4565b6122676032821115612be4565b815f52600860205260405f208054905f815581612421575b50505f5b81811061228c57005b6122ae60406122a561229f848689612c50565b80612c72565b90501115612ca4565b6122d660406122be838588612c50565b013560206122cd848689612c50565b01351115612ce0565b825f52600860205260405f20906122ee818487612c50565b918054600160401b8110156110395761230c916001820181556126c9565b92909261104d5761231d8180612c72565b906001600160401b0382116110395761233a82610f6187546126f6565b5f90601f83116001146123ba57918061236b92606095945f926123af5750508160011b915f199060031b1c19161790565b84555b6020810135600185015560408101356002850155013591821515830361036b5760019260036123a992019060ff801983541691151516179055565b01612283565b013590508a80610f8b565b601f19831691865f5260205f20925f5b81811061240957509160019391856060979694106123f0575b505050811b01845561236e565b01355f19600384901b60f8161c191690558980806123e3565b919360206001819287870135815501950192016123ca565b6001600160fe1b0382168203610680575f5260205f209060021b8101905b8181101561227f5780612454600492546126f6565b80612473575b505f60018201555f60028201555f60038201550161243f565b601f811160011461248957505f81555b8661245a565b6124a690825f526001601f60205f20920160051c82019101612c3a565b805f525f6020812081835555612483565b3461036b57604036600319011261036b576124d061260c565b6001600160401b036124e0612638565b91165f52600360205260405f209060018060a01b03165f52602052602060405f2054604051908152f35b3461036b57602036600319011261036b57606061253661252861260c565b612530612b86565b506136a3565b60408051916001600160401b03815116835260ff6020820151166020840152015115156040820152f35b3461036b57604036600319011261036b5761257961260c565b6001600160401b03612589612638565b916125be337f00000000000000000000000000000000000000000000000000000000000000006001600160a01b031614612b06565b165f818152600760205260409020546125e0906001600160a01b031615612b45565b5f90815260076020526040902080546001600160a01b0319166001600160a01b03909216919091179055005b600435906001600160401b038216820361036b57565b602435906001600160401b038216820361036b57565b602435906001600160a01b038216820361036b57565b600435906001600160a01b038216820361036b57565b604060031982011261036b576004356001600160401b038116810361036b57916024356001600160401b03811161036b5760040182601f8201121561036b578035926001600160401b03841161036b576020808301928560051b01011161036b579190565b80548210156126e2575f5260205f209060021b01905f90565b634e487b7160e01b5f52603260045260245ffd5b90600182811c92168015612724575b602083101461271057565b634e487b7160e01b5f52602260045260245ffd5b91607f1691612705565b60a081019081106001600160401b0382111761103957604052565b608081019081106001600160401b0382111761103957604052565b606081019081106001600160401b0382111761103957604052565b604081019081106001600160401b0382111761103957604052565b90601f801991011681019081106001600160401b0382111761103957604052565b9060405191825f8254926127ce846126f6565b808452936001811690811561283957506001146127f5575b506127f39250038361279a565b565b90505f9291925260205f20905f915b81831061281d5750509060206127f3928201015f6127e6565b6020919350806001915483858901015201910190918492612804565b9050602092506127f394915060ff191682840152151560051b8201015f6127e6565b805180835260209291819084018484015e5f828201840152601f01601f1916010190565b9181601f8401121561036b578235916001600160401b03831161036b576020838186019501011161036b57565b9080602083519182815201916020808360051b8301019401925f915b8383106128d757505050505090565b9091929394602080600192601f198582030186528851908280612903845160408552604085019061285b565b930151910152970193019301919392906128c8565b9060058210156106945752565b90602080835192838152019201905f5b8181106129425750505090565b82516001600160a01b0316845260209384019390920191600101612935565b6044359060ff8216820361036b57565b6001600160401b0381116110395760051b60200190565b6001600160401b03811161103957601f01601f191660200190565b9291926129af82612988565b916129bd604051938461279a565b82948184528183011161036b578281602093845f960137010152565b9080601f8301121561036b578160206129f4933591016129a3565b90565b81601f8201121561036b57803590612a0e82612971565b92612a1c604051948561279a565b82845260208085019360051b8301019181831161036b5760208101935b838510612a4857505050505090565b84356001600160401b03811161036b5782016040818503601f19011261036b5760405191612a758361277f565b6020820135926001600160401b03841161036b57604083612a9d8860208098819801016129d9565b8352013583820152815201940193612a39565b606060031982011261036b576004356001600160401b038116810361036b57916024356001600160a01b038116810361036b5791604435906001600160401b03821161036b57612b029160040161287f565b9091565b15612b0d57565b60405162461bcd60e51b815260206004820152601060248201526f4f6e6c792054616e676c6520636f726560801b6044820152606490fd5b15612b4c57565b60405162461bcd60e51b8152602060048201526012602482015271105b1c9958591e481c9959da5cdd195c995960721b6044820152606490fd5b60405190612b9382612764565b5f6040838281528260208201520152565b15612bab57565b60405162461bcd60e51b81526020600482015260116024820152702737ba1039b2b93b34b1b29037bbb732b960791b6044820152606490fd5b15612beb57565b60405162461bcd60e51b8152602060048201526014602482015273546f6f206d616e7920646566696e6974696f6e7360601b6044820152606490fd5b8181029291811591840414171561068057565b818110612c45575050565b5f8155600101612c3a565b91908110156126e25760051b81013590607e198136030182121561036b570190565b903590601e198136030182121561036b57018035906001600160401b03821161036b5760200191813603831361036b57565b15612cab57565b60405162461bcd60e51b815260206004820152600d60248201526c4e616d6520746f6f206c6f6e6760981b6044820152606490fd5b15612ce757565b60405162461bcd60e51b815260206004820152600e60248201526d496e76616c696420626f756e647360901b6044820152606490fd5b9190601f8111612d2c57505050565b6127f3925f5260205f20906020601f840160051c83019310612d56575b601f0160051c0190612c3a565b9091508190612d49565b90612d6a82612971565b612d77604051918261279a565b8281528092612d88601f1991612971565b0190602036910137565b80518210156126e25760209160051b010190565b15612dad57565b60405162461bcd60e51b815260206004820152601760248201527f4e6f742072656769737465726564206f70657261746f720000000000000000006044820152606490fd5b5f9291815491612e01836126f6565b8083529260018116908115612e565750600114612e1d57505050565b5f9081526020812093945091925b838310612e3c575060209250010190565b600181602092949394548385870101520191019190612e2b565b915050602093945060ff929192191683830152151560051b010190565b9190820180921161068057565b9190820391821161068057565b6001600160401b03612e9e826136a3565b911691825f52600560205260405f205491602081019060ff825116158015613096575b801561308e575b613070579060ff6001600160401b03612ee693511691511690612c27565b60c883101561306957825b612efa81612d60565b945f925f5b838110612f4a5750505050612f1381612d60565b935f5b828110612f2257505050565b6001906001600160a01b03612f378285612d92565b5116612f438289612d92565b5201612f16565b825f526005602052612f5f8160405f20613b10565b90545f85815260066020908152604080832060039590951b9390931c6001600160a01b0316808352600194909401905220541561306057835f52600360205260405f20815f5260205260405f20604051612fb88161272e565b8154815260ff60018301546001600160401b0381166020840152818160401c16604084015260481c166005811015610694576002869382606085015201546080830152815115908115613055575b5061304a57613016905142612e80565b1015613028575b506001905b01612eff565b613035868a979397612d92565b525f198114610680576001809101949061301d565b505050600190613022565b60039150145f613006565b50600190613022565b60c8612ef1565b505090915060405161308360208261279a565b5f81525f3681379190565b508315612ec8565b508315612ec1565b9192906001600160401b036130b2846136a3565b9316805f52600560205260405f205493602081019060ff8251161580156132d0575b80156132c6575b6132b1579060ff6001600160401b036130f993511691511690612c27565b9460c88111156132ac575060c85b846131128285612e73565b111561329c575083905b61312e6131298484612e80565b612d60565b955f935b83811061317d575050505061314681612d60565b935f5b82811061315557505050565b6001906001600160a01b0361316a8285612d92565b51166131768289612d92565b5201613149565b825f5260056020526131928160405f20613b10565b90545f85815260066020908152604080832060039590951b9390931c6001600160a01b0316808352600194909401905220541561329357835f52600360205260405f20815f5260205260405f206040516131eb8161272e565b8154815260ff60018301546001600160401b0381166020840152818160401c16604084015260481c166005811015610694576002869382606085015201546080830152815115908115613288575b5061327d57613249905142612e80565b101561325b575b506001905b01613132565b613268868a979397612d92565b525f1981146106805760018091019490613250565b505050600190613255565b60039150145f613239565b50600190613255565b6132a69083612e73565b9061311c565b613107565b5050505090915060405161308360208261279a565b50858410156130db565b5085156130d4565b908060209392818452848401375f828201840152601f01601f1916010190565b6001600160401b03165f8181526003602090815260408083203384529091529020600101805460481c60ff169190600583101561069457600383146133d857821580156133ce575b6133c957805469ffff0000000000000000191669010000000000000000001790555f818152600460205260409020613379903390613b25565b506133ad604051809333847fc9862c5f02eefbdcea01c207ae538e1d304dc93026870f48951e48a0f4c8470c5f80a3612918565b600160208301525f80516020613f6883398151915260403393a3565b505050565b5060018314613340565b60405162461bcd60e51b815260206004820152601e60248201527f43616e6e6f7420676f206f6e6c696e65207768696c6520736c617368656400006044820152606490fd5b1561342457565b60405162461bcd60e51b815260206004820152600e60248201526d139bdd08185d5d1a1bdc9a5e995960921b6044820152606490fd5b906001600160401b03821690815f52600360205260405f2060018060a01b0382165f5260205261348d60405f20936136a3565b92600181019384549160ff8360481c166005811015610694576003146134ef575480156134ef576134be9042612e80565b6001600160401b038251169081156135e9570460ff8111156135e1575060ff5b60ff8082169360401c1683116134f7575b505050505050565b855460409190911b60ff60401b1668ffffffffffffffffff199091161785556020015160ff16811015806135c6575b613532575b80806134ef565b835f80516020613f6883398151915292847f44fd32b677704ce68e7763897c49733b8f5289018ac60a5c926802d63759db4d602060409560ff6135a29a5460481c1695600160491b60ff60481b19825416179055835f5260048252865f209460018060a01b0316998a8096613d86565b508651908152a36135b582518092612918565b60026020820152a35f80808061352b565b5060ff845460481c1660058110156106945760021415613526565b60ff166134de565b634e487b7160e01b5f52601260045260245ffd5b906001600160401b0361360f836136a3565b92165f52600360205260405f209060018060a01b03165f5260205260405f206040519061363b8261272e565b8054825260ff60018201546001600160401b0381166020850152818160401c16604085015260481c169060058210156106945760029160608401520154608082015251801561369d576136966001600160401b039142612e80565b9151161190565b50505f90565b6001600160401b03906136b4612b86565b50165f52600260205260405f20604051906136ce82612764565b546001600160401b03811680835260ff8260401c169060ff602085019383855260481c16151560408501521561370f575b15613708575090565b6003905290565b61012c83526136ff565b5f546001600160a01b0316330361146857565b909293916001600160401b03821695865f52600360205260405f2060018060a01b0383165f5260205260405f2094613763846136a3565b90600187019460ff865460481c16600581101561069457600314613ad5575f8a81526005602052604090206001600160a01b03861699906137a5908b90613b25565b5060ff875460481c169842815560026137bf36888c6129a3565b6020815191012091015560ff60401b1987541687556001600160401b03875416906001600160401b038214610680576001600160401b03600160ff9301166001600160401b0319895416178855169384155f146139c3575f975b6005891015978861069457805460ff60481b191660488b901b60ff60481b1617905560058a1015610694578a968c9560028c148b816139b4575b509260409592866001600160401b0396937f658918e3147f13dd068ec21437b4c25c21682a8dc2129348671ead000db3e7b99996613974575b015115158061396b575b613959575b5050505082519586524260208701521693a46106945782918491808203613924575b5050600b546001600160a01b03169391508390506138da57505050565b823b1561036b5760645f92836040519586948593636a3c29db60e11b8552600485015260248401526001600160401b03421660448401525af161391a5750565b5f6127f39161279a565b5f80516020613f688339815191529161394f60409261394584518094612918565b6020830190612918565ba380825f806138bd565b61396293613b88565b5f80808061389b565b50821515613896565b8a5f5260046020526139888d835f20613b25565b508c8b7fc9862c5f02eefbdcea01c207ae538e1d304dc93026870f48951e48a0f4c8470c5f80a361388c565b5f9b506002141590508b613853565b60648510156139d457600197613819565b60019760c88610613819576001600160401b0342168c5f52600c60205260405f208c5f526020526001600160401b0360405f2054168015908115613aae575b50613a1f575b50613819565b8c5f52600c60205260405f208c5f526020526001600160401b0360405f2091166001600160401b03198254161790558a8c7f1e2909cf45d70cf003f334b73c93330ce7e572782dfc82fab79deb8855a7c791606060405160208152601b60208201527f50726f746f636f6c2076696f6c6174696f6e207265706f7274656400000000006040820152a35f613a19565b905081036001600160401b038111610680576001600160401b03610e10911610155f613a13565b60405162461bcd60e51b815260206004820152601360248201527213dc195c985d1bdc881a5cc81cdb185cda1959606a1b6044820152606490fd5b80548210156126e2575f5260205f2001905f90565b5f82815260018201602052604090205461369d57805490600160401b8210156110395782613b73613b5d846001809601855584613b10565b819391549060031b91821b915f19901b19161790565b90558054925f520160205260405f2055600190565b9190928015613d805761c3508111613d80576040516331e3bd1b60e01b815260206004820152915f9183918291613bc4916024840191906132d8565b0381305afa5f9181613c55575b50613bdb57505050565b80516032811115613c4f57506032915b303b1561036b576040516332d349b760e11b81526001600160401b039190911660048201526001600160a01b039093166024840152608060448401525f918391829190613c3c9060848401906128ac565b906064830152038183305af161391a5750565b91613beb565b9091503d805f833e613c67818361279a565b81019060208183031261036b578051906001600160401b03821161036b57019080601f8301121561036b57815191613c9e83612971565b92613cac604051948561279a565b80845260208085019160051b8301019183831161036b5760208101915b838310613cdc575050505050905f613bd1565b82516001600160401b03811161036b578201906040828703601f19011261036b5760405190613d0a8261277f565b60208301516001600160401b03811161036b576020908401019187601f8401121561036b57825192613d3b84612988565b94613d49604051968761279a565b848652896020868401011161036b576020955f8787819882604097018386015e830101528352015183820152815201920191613cc9565b50505050565b906001820191815f528260205260405f20548015155f14613e43575f1981018181116106805782545f1981019190821161068057818103613e0e575b50505080548015613dfa575f190190613ddb8282613b10565b8154905f199060031b1b19169055555f526020525f6040812055600190565b634e487b7160e01b5f52603160045260245ffd5b613e2e613e1e613b5d9386613b10565b90549060031b1c92839286613b10565b90555f528360205260405f20555f8080613dc2565b505050505f90565b8151919060418303613e7b57613e749250602082015190606060408401519301515f1a90613ee5565b9192909190565b50505f9160029190565b60048110156106945780613e97575050565b60018103613eae5763f645eedf60e01b5f5260045ffd5b60028103613ec9575063fce698f760e01b5f5260045260245ffd5b600314613ed35750565b6335e2f38360e21b5f5260045260245ffd5b91907f7fffffffffffffffffffffffffffffff5d576e7357a4501ddfe92f46681b20a08411613f5c579160209360809260ff5f9560405194855216868401526040830152606082015282805260015afa156112ff575f516001600160a01b03811615613f5257905f905f90565b505f906001905f90565b5050505f916003919056fe228824b86c256469125f525ce18c6c2d0a9e133d13b8ec7a2c96a193b0c28a09a164736f6c634300081a000a","linkReferences":{}},"methodIdentifiers":{"DEFAULT_HEARTBEAT_INTERVAL()":"2c957688","DEFAULT_MAX_MISSED_HEARTBEATS()":"61d6b86c","DOMAIN_SEPARATOR()":"3644e515","HEARTBEAT_TYPEHASH()":"f9f16762","MAX_METRIC_DEFINITIONS()":"6076439c","MAX_METRIC_NAME_LENGTH()":"6bfe06a6","MAX_PAGE_SIZE()":"48f4da20","SLASH_ALERT_COOLDOWN()":"3ac3cbe6","acceptOwnership()":"79ba5097","addMetricDefinition(uint64,string,uint256,uint256,bool)":"ae470a85","checkOperatorStatus(uint64,address)":"ba1fb103","checkOperatorsStatus(uint64,address[])":"96686c1e","configureHeartbeat(uint64,uint64,uint8)":"b99f6759","decodeMetricPairs(bytes)":"31e3bd1b","deregisterOperator(uint64,address)":"ffcf08f0","enableCustomMetrics(uint64,bool)":"f9107f3b","getAllOperatorCount(uint64)":"3fd62c6d","getHeartbeatConfig(uint64)":"0758236f","getLastCriticalHeartbeat(uint64,address)":"7639d227","getLastHeartbeat(uint64,address)":"0c76697a","getMetricDefinitions(uint64)":"c1ef9ddf","getMetricValue(uint64,address,string)":"d551162c","getOnlineOperatorCount(uint64)":"7b9f64b2","getOnlineOperators(uint64)":"40235a9c","getOperatorState(uint64,address)":"71e7388c","getOperatorStatus(uint64,address)":"62c7e8fc","getSlashableOperators(uint64)":"59dcea12","getSlashableOperatorsPaginated(uint64,uint256,uint256)":"81beac2e","goOffline(uint64)":"c5d960bb","goOnline(uint64)":"b074e9dd","heartbeatConfigs(uint64)":"da435a7c","isHeartbeatCurrent(uint64,address)":"ee1c0390","isOnline(uint64,address)":"5685cf68","isRegisteredOperator(uint64,address)":"60cf0991","metricValues(uint64,address,string)":"9cbdae22","metricsRecorder()":"2dae1885","operatorStates(uint64,address)":"3e6e34a7","owner()":"8da5cb5b","pendingOwner()":"e30c3978","registerOperator(uint64,address)":"1e8f5ee5","registerServiceOwner(uint64,address)":"05778550","removeInactiveOperator(uint64,address)":"e65cafcb","renounceOwnership()":"715018a6","reportForSlashing(uint64,address,string)":"adff830c","serviceMetrics(uint64,uint256)":"22f1ec93","serviceOwners(uint64)":"56c4e17d","setMetricDefinitions(uint64,(string,uint256,uint256,bool)[])":"191cbd1a","setMetricsRecorder(address)":"20812956","setSlashingOracle(address)":"84ef7322","slashingOracle()":"cfe34749","submitHeartbeat(uint64,uint64,uint8,bytes,bytes)":"d413a580","submitHeartbeatDirect(uint64,uint64,uint8,bytes)":"5cce98a6","tangleCore()":"5a936dc6","transferOwnership(address)":"f2fde38b","validateAndStoreMetrics(uint64,address,(string,uint256)[],uint256)":"65a6936e"},"id":236}