{"abi":[{"type":"constructor","inputs":[{"name":"_tangleCore","type":"address","internalType":"address"},{"name":"initialOwner","type":"address","internalType":"address"}],"stateMutability":"nonpayable"},{"type":"function","name":"DEFAULT_HEARTBEAT_INTERVAL","inputs":[],"outputs":[{"name":"","type":"uint64","internalType":"uint64"}],"stateMutability":"view"},{"type":"function","name":"DEFAULT_MAX_MISSED_HEARTBEATS","inputs":[],"outputs":[{"name":"","type":"uint8","internalType":"uint8"}],"stateMutability":"view"},{"type":"function","name":"DOMAIN_SEPARATOR","inputs":[],"outputs":[{"name":"","type":"bytes32","internalType":"bytes32"}],"stateMutability":"view"},{"type":"function","name":"HEARTBEAT_TYPEHASH","inputs":[],"outputs":[{"name":"","type":"bytes32","internalType":"bytes32"}],"stateMutability":"view"},{"type":"function","name":"SLASH_ALERT_COOLDOWN","inputs":[],"outputs":[{"name":"","type":"uint64","internalType":"uint64"}],"stateMutability":"view"},{"type":"function","name":"acceptOwnership","inputs":[],"outputs":[],"stateMutability":"nonpayable"},{"type":"function","name":"addMetricDefinition","inputs":[{"name":"serviceId","type":"uint64","internalType":"uint64"},{"name":"name","type":"string","internalType":"string"},{"name":"minValue","type":"uint256","internalType":"uint256"},{"name":"maxValue","type":"uint256","internalType":"uint256"},{"name":"required","type":"bool","internalType":"bool"}],"outputs":[],"stateMutability":"nonpayable"},{"type":"function","name":"checkOperatorStatus","inputs":[{"name":"serviceId","type":"uint64","internalType":"uint64"},{"name":"operator","type":"address","internalType":"address"}],"outputs":[],"stateMutability":"nonpayable"},{"type":"function","name":"checkOperatorsStatus","inputs":[{"name":"serviceId","type":"uint64","internalType":"uint64"},{"name":"operators","type":"address[]","internalType":"address[]"}],"outputs":[],"stateMutability":"nonpayable"},{"type":"function","name":"configureHeartbeat","inputs":[{"name":"serviceId","type":"uint64","internalType":"uint64"},{"name":"interval","type":"uint64","internalType":"uint64"},{"name":"maxMissed","type":"uint8","internalType":"uint8"}],"outputs":[],"stateMutability":"nonpayable"},{"type":"function","name":"decodeMetricPairs","inputs":[{"name":"payload","type":"bytes","internalType":"bytes"}],"outputs":[{"name":"pairs","type":"tuple[]","internalType":"struct IOperatorStatusRegistry.MetricPair[]","components":[{"name":"name","type":"string","internalType":"string"},{"name":"value","type":"uint256","internalType":"uint256"}]}],"stateMutability":"pure"},{"type":"function","name":"enableCustomMetrics","inputs":[{"name":"serviceId","type":"uint64","internalType":"uint64"},{"name":"enabled","type":"bool","internalType":"bool"}],"outputs":[],"stateMutability":"nonpayable"},{"type":"function","name":"getHeartbeatConfig","inputs":[{"name":"serviceId","type":"uint64","internalType":"uint64"}],"outputs":[{"name":"","type":"tuple","internalType":"struct IOperatorStatusRegistry.HeartbeatConfig","components":[{"name":"interval","type":"uint64","internalType":"uint64"},{"name":"maxMissed","type":"uint8","internalType":"uint8"},{"name":"customMetrics","type":"bool","internalType":"bool"}]}],"stateMutability":"view"},{"type":"function","name":"getLastCriticalHeartbeat","inputs":[{"name":"serviceId","type":"uint64","internalType":"uint64"},{"name":"operator","type":"address","internalType":"address"}],"outputs":[{"name":"","type":"uint64","internalType":"uint64"}],"stateMutability":"view"},{"type":"function","name":"getLastHeartbeat","inputs":[{"name":"serviceId","type":"uint64","internalType":"uint64"},{"name":"operator","type":"address","internalType":"address"}],"outputs":[{"name":"","type":"uint256","internalType":"uint256"}],"stateMutability":"view"},{"type":"function","name":"getMetricDefinitions","inputs":[{"name":"serviceId","type":"uint64","internalType":"uint64"}],"outputs":[{"name":"","type":"tuple[]","internalType":"struct IOperatorStatusRegistry.MetricDefinition[]","components":[{"name":"name","type":"string","internalType":"string"},{"name":"minValue","type":"uint256","internalType":"uint256"},{"name":"maxValue","type":"uint256","internalType":"uint256"},{"name":"required","type":"bool","internalType":"bool"}]}],"stateMutability":"view"},{"type":"function","name":"getMetricValue","inputs":[{"name":"serviceId","type":"uint64","internalType":"uint64"},{"name":"operator","type":"address","internalType":"address"},{"name":"metricName","type":"string","internalType":"string"}],"outputs":[{"name":"","type":"uint256","internalType":"uint256"}],"stateMutability":"view"},{"type":"function","name":"getOnlineOperatorCount","inputs":[{"name":"serviceId","type":"uint64","internalType":"uint64"}],"outputs":[{"name":"","type":"uint256","internalType":"uint256"}],"stateMutability":"view"},{"type":"function","name":"getOnlineOperators","inputs":[{"name":"serviceId","type":"uint64","internalType":"uint64"}],"outputs":[{"name":"","type":"address[]","internalType":"address[]"}],"stateMutability":"view"},{"type":"function","name":"getOperatorState","inputs":[{"name":"serviceId","type":"uint64","internalType":"uint64"},{"name":"operator","type":"address","internalType":"address"}],"outputs":[{"name":"","type":"tuple","internalType":"struct IOperatorStatusRegistry.OperatorState","components":[{"name":"lastHeartbeat","type":"uint256","internalType":"uint256"},{"name":"consecutiveBeats","type":"uint64","internalType":"uint64"},{"name":"missedBeats","type":"uint8","internalType":"uint8"},{"name":"status","type":"uint8","internalType":"enum IOperatorStatusRegistry.StatusCode"},{"name":"lastMetricsHash","type":"bytes32","internalType":"bytes32"}]}],"stateMutability":"view"},{"type":"function","name":"getOperatorStatus","inputs":[{"name":"serviceId","type":"uint64","internalType":"uint64"},{"name":"operator","type":"address","internalType":"address"}],"outputs":[{"name":"","type":"uint8","internalType":"enum IOperatorStatusRegistry.StatusCode"}],"stateMutability":"view"},{"type":"function","name":"getSlashableOperators","inputs":[{"name":"serviceId","type":"uint64","internalType":"uint64"}],"outputs":[{"name":"operators","type":"address[]","internalType":"address[]"}],"stateMutability":"view"},{"type":"function","name":"goOffline","inputs":[{"name":"serviceId","type":"uint64","internalType":"uint64"}],"outputs":[],"stateMutability":"nonpayable"},{"type":"function","name":"goOnline","inputs":[{"name":"serviceId","type":"uint64","internalType":"uint64"}],"outputs":[],"stateMutability":"nonpayable"},{"type":"function","name":"heartbeatConfigs","inputs":[{"name":"","type":"uint64","internalType":"uint64"}],"outputs":[{"name":"interval","type":"uint64","internalType":"uint64"},{"name":"maxMissed","type":"uint8","internalType":"uint8"},{"name":"customMetrics","type":"bool","internalType":"bool"}],"stateMutability":"view"},{"type":"function","name":"isHeartbeatCurrent","inputs":[{"name":"serviceId","type":"uint64","internalType":"uint64"},{"name":"operator","type":"address","internalType":"address"}],"outputs":[{"name":"","type":"bool","internalType":"bool"}],"stateMutability":"view"},{"type":"function","name":"isOnline","inputs":[{"name":"serviceId","type":"uint64","internalType":"uint64"},{"name":"operator","type":"address","internalType":"address"}],"outputs":[{"name":"","type":"bool","internalType":"bool"}],"stateMutability":"view"},{"type":"function","name":"metricValues","inputs":[{"name":"","type":"uint64","internalType":"uint64"},{"name":"","type":"address","internalType":"address"},{"name":"","type":"string","internalType":"string"}],"outputs":[{"name":"","type":"uint256","internalType":"uint256"}],"stateMutability":"view"},{"type":"function","name":"metricsRecorder","inputs":[],"outputs":[{"name":"","type":"address","internalType":"address"}],"stateMutability":"view"},{"type":"function","name":"operatorStates","inputs":[{"name":"","type":"uint64","internalType":"uint64"},{"name":"","type":"address","internalType":"address"}],"outputs":[{"name":"lastHeartbeat","type":"uint256","internalType":"uint256"},{"name":"consecutiveBeats","type":"uint64","internalType":"uint64"},{"name":"missedBeats","type":"uint8","internalType":"uint8"},{"name":"status","type":"uint8","internalType":"enum IOperatorStatusRegistry.StatusCode"},{"name":"lastMetricsHash","type":"bytes32","internalType":"bytes32"}],"stateMutability":"view"},{"type":"function","name":"owner","inputs":[],"outputs":[{"name":"","type":"address","internalType":"address"}],"stateMutability":"view"},{"type":"function","name":"pendingOwner","inputs":[],"outputs":[{"name":"","type":"address","internalType":"address"}],"stateMutability":"view"},{"type":"function","name":"registerServiceOwner","inputs":[{"name":"serviceId","type":"uint64","internalType":"uint64"},{"name":"owner","type":"address","internalType":"address"}],"outputs":[],"stateMutability":"nonpayable"},{"type":"function","name":"renounceOwnership","inputs":[],"outputs":[],"stateMutability":"nonpayable"},{"type":"function","name":"reportForSlashing","inputs":[{"name":"serviceId","type":"uint64","internalType":"uint64"},{"name":"operator","type":"address","internalType":"address"},{"name":"reason","type":"string","internalType":"string"}],"outputs":[],"stateMutability":"nonpayable"},{"type":"function","name":"serviceMetrics","inputs":[{"name":"","type":"uint64","internalType":"uint64"},{"name":"","type":"uint256","internalType":"uint256"}],"outputs":[{"name":"name","type":"string","internalType":"string"},{"name":"minValue","type":"uint256","internalType":"uint256"},{"name":"maxValue","type":"uint256","internalType":"uint256"},{"name":"required","type":"bool","internalType":"bool"}],"stateMutability":"view"},{"type":"function","name":"serviceOwners","inputs":[{"name":"","type":"uint64","internalType":"uint64"}],"outputs":[{"name":"","type":"address","internalType":"address"}],"stateMutability":"view"},{"type":"function","name":"setMetricDefinitions","inputs":[{"name":"serviceId","type":"uint64","internalType":"uint64"},{"name":"definitions","type":"tuple[]","internalType":"struct IOperatorStatusRegistry.MetricDefinition[]","components":[{"name":"name","type":"string","internalType":"string"},{"name":"minValue","type":"uint256","internalType":"uint256"},{"name":"maxValue","type":"uint256","internalType":"uint256"},{"name":"required","type":"bool","internalType":"bool"}]}],"outputs":[],"stateMutability":"nonpayable"},{"type":"function","name":"setMetricsRecorder","inputs":[{"name":"recorder","type":"address","internalType":"address"}],"outputs":[],"stateMutability":"nonpayable"},{"type":"function","name":"setSlashingOracle","inputs":[{"name":"oracle","type":"address","internalType":"address"}],"outputs":[],"stateMutability":"nonpayable"},{"type":"function","name":"slashingOracle","inputs":[],"outputs":[{"name":"","type":"address","internalType":"address"}],"stateMutability":"view"},{"type":"function","name":"submitHeartbeat","inputs":[{"name":"serviceId","type":"uint64","internalType":"uint64"},{"name":"blueprintId","type":"uint64","internalType":"uint64"},{"name":"statusCode","type":"uint8","internalType":"uint8"},{"name":"metrics","type":"bytes","internalType":"bytes"},{"name":"signature","type":"bytes","internalType":"bytes"}],"outputs":[],"stateMutability":"nonpayable"},{"type":"function","name":"submitHeartbeatDirect","inputs":[{"name":"serviceId","type":"uint64","internalType":"uint64"},{"name":"blueprintId","type":"uint64","internalType":"uint64"},{"name":"statusCode","type":"uint8","internalType":"uint8"},{"name":"metrics","type":"bytes","internalType":"bytes"}],"outputs":[],"stateMutability":"nonpayable"},{"type":"function","name":"tangleCore","inputs":[],"outputs":[{"name":"","type":"address","internalType":"address"}],"stateMutability":"view"},{"type":"function","name":"transferOwnership","inputs":[{"name":"newOwner","type":"address","internalType":"address"}],"outputs":[],"stateMutability":"nonpayable"},{"type":"event","name":"HeartbeatConfigUpdated","inputs":[{"name":"serviceId","type":"uint64","indexed":true,"internalType":"uint64"},{"name":"interval","type":"uint64","indexed":false,"internalType":"uint64"},{"name":"maxMissed","type":"uint8","indexed":false,"internalType":"uint8"}],"anonymous":false},{"type":"event","name":"HeartbeatReceived","inputs":[{"name":"serviceId","type":"uint64","indexed":true,"internalType":"uint64"},{"name":"blueprintId","type":"uint64","indexed":true,"internalType":"uint64"},{"name":"operator","type":"address","indexed":true,"internalType":"address"},{"name":"statusCode","type":"uint8","indexed":false,"internalType":"uint8"},{"name":"timestamp","type":"uint256","indexed":false,"internalType":"uint256"}],"anonymous":false},{"type":"event","name":"MetricReported","inputs":[{"name":"serviceId","type":"uint64","indexed":true,"internalType":"uint64"},{"name":"operator","type":"address","indexed":true,"internalType":"address"},{"name":"metricName","type":"string","indexed":false,"internalType":"string"},{"name":"value","type":"uint256","indexed":false,"internalType":"uint256"}],"anonymous":false},{"type":"event","name":"MetricViolation","inputs":[{"name":"serviceId","type":"uint64","indexed":true,"internalType":"uint64"},{"name":"operator","type":"address","indexed":true,"internalType":"address"},{"name":"metricName","type":"string","indexed":false,"internalType":"string"},{"name":"reason","type":"string","indexed":false,"internalType":"string"}],"anonymous":false},{"type":"event","name":"OperatorCameOnline","inputs":[{"name":"serviceId","type":"uint64","indexed":true,"internalType":"uint64"},{"name":"operator","type":"address","indexed":true,"internalType":"address"}],"anonymous":false},{"type":"event","name":"OperatorWentOffline","inputs":[{"name":"serviceId","type":"uint64","indexed":true,"internalType":"uint64"},{"name":"operator","type":"address","indexed":true,"internalType":"address"},{"name":"missedBeats","type":"uint8","indexed":false,"internalType":"uint8"}],"anonymous":false},{"type":"event","name":"OwnershipTransferStarted","inputs":[{"name":"previousOwner","type":"address","indexed":true,"internalType":"address"},{"name":"newOwner","type":"address","indexed":true,"internalType":"address"}],"anonymous":false},{"type":"event","name":"OwnershipTransferred","inputs":[{"name":"previousOwner","type":"address","indexed":true,"internalType":"address"},{"name":"newOwner","type":"address","indexed":true,"internalType":"address"}],"anonymous":false},{"type":"event","name":"SlashingTriggered","inputs":[{"name":"serviceId","type":"uint64","indexed":true,"internalType":"uint64"},{"name":"operator","type":"address","indexed":true,"internalType":"address"},{"name":"reason","type":"string","indexed":false,"internalType":"string"}],"anonymous":false},{"type":"event","name":"StatusChanged","inputs":[{"name":"serviceId","type":"uint64","indexed":true,"internalType":"uint64"},{"name":"operator","type":"address","indexed":true,"internalType":"address"},{"name":"oldStatus","type":"uint8","indexed":false,"internalType":"enum IOperatorStatusRegistry.StatusCode"},{"name":"newStatus","type":"uint8","indexed":false,"internalType":"enum IOperatorStatusRegistry.StatusCode"}],"anonymous":false},{"type":"error","name":"ECDSAInvalidSignature","inputs":[]},{"type":"error","name":"ECDSAInvalidSignatureLength","inputs":[{"name":"length","type":"uint256","internalType":"uint256"}]},{"type":"error","name":"ECDSAInvalidSignatureS","inputs":[{"name":"s","type":"bytes32","internalType":"bytes32"}]},{"type":"error","name":"OwnableInvalidOwner","inputs":[{"name":"owner","type":"address","internalType":"address"}]},{"type":"error","name":"OwnableUnauthorizedAccount","inputs":[{"name":"account","type":"address","internalType":"address"}]}],"bytecode":{"object":"0x60c0806040523461017a57604081613527803803809161001f828561017e565b83398101031261017a57610032816101b5565b906001600160a01b0390610048906020016101b5565b1690811561016757600180546001600160a01b03199081169091555f80549182168417815560405193916001600160a01b0316907f8be0079c531659141344cd1fd0a4f28419497f9722a3daafe3b4186f6b6457e09080a360a05260208101907f8b73c3c69bb8fe3d512ecc4cf759cc79239f7b179b0ffacaa9a75d522b39400f82527f36ffc258c865193ae10c3cf640450ab772fdb8da1dfcae7862ad1205a5567f4c60408201527fc89efdaa54c0f20c7adf612882df0950f5a951637e0307cdcb4c672f298b8bc660608201524660808201523060a082015260a0815261013260c08261017e565b51902060805260405161335d90816101ca82396080518161168a015260a05181818161087d015281816113e10152611cdb0152f35b631e4fbdf760e01b5f525f60045260245ffd5b5f80fd5b601f909101601f19168101906001600160401b038211908210176101a157604052565b634e487b7160e01b5f52604160045260245ffd5b51906001600160a01b038216820361017a5756fe6080806040526004361015610012575f80fd5b5f3560e01c9081630577855014611cb7575080630758236f14611c615780630c76697a14611c0e578063191cbd1a1461194257806320812956146118ff57806322f1ec931461186f5780632c957688146118535780632dae18851461182b57806331e3bd1b146116ad5780633644e515146116735780633ac3cbe6146116575780633e6e34a7146115c457806340235a9c146115345780635685cf681461148457806356c4e17d1461144457806359dcea12146114105780635a936dc6146113cc5780635cce98a61461137457806361d6b86c1461135957806362c7e8fc146112f6578063715018a61461129357806371e7388c146111955780637639d2271461113957806379ba5097146110b45780637b9f64b21461107c57806384ef7322146110395780638da5cb5b1461101257806396686c1e14610f795780639cbdae2214610eee578063adff830c14610dc0578063ae470a8514610bcf578063b074e9dd14610aad578063b99f675914610850578063ba1fb10314610826578063c1ef9ddf146106ea578063c5d960bb146105e3578063cfe34749146105bb578063d413a58014610440578063d551162c146103ed578063da435a7c14610393578063e30c39781461036b578063ee1c039014610335578063f2fde38b146102c3578063f9107f3b146102495763f9f167621461020b575f80fd5b34610245575f3660031901126102455760206040517fe1675f8364c07a4d60a07503f0d700a7bcacd82251dff0f070e5235de6c6d28a8152f35b5f80fd5b3461024557604036600319011261024557610262611dc9565b6024358015158103610245576001600160401b036102c19216805f52600660205261029a60018060a01b0360405f20541633146121ab565b5f52600260205260405f209060ff60481b825491151560481b169060ff60481b1916179055565b005b34610245576020366003190112610245576102dc611e0b565b6102e461285a565b60018060a01b0316806bffffffffffffffffffffffff60a01b600154161760015560018060a01b035f54167f38d16b8cac22d99fc7c124b9cd0de2d3fa1faef420bfe791d8c362d765e227005f80a3005b34610245576040366003190112610245576020610361610353611dc9565b61035b611df5565b9061273e565b6040519015158152f35b34610245575f366003190112610245576001546040516001600160a01b039091168152602090f35b34610245576020366003190112610245576001600160401b036103b4611dc9565b165f526002602052606060405f205460ff604051916001600160401b0381168352818160401c16602084015260481c1615156040820152f35b346102455760206001600160401b038161040636612137565b949092165f526008835260405f209060018060a01b03165f52825260405f2083604051948593843782019081520301902054604051908152f35b346102455760a036600319011261024557610459611dc9565b610461611ddf565b9061046a6120b8565b906064356001600160401b0381116102455761048a90369060040161203c565b9290916084356001600160401b0381116102455761055d6105576104b561056693369060040161203c565b919060405160208101906001600160401b0360c01b8860c01b1682526001600160401b0360c01b8c60c01b1660288201528a8a603083013761050a6030828d81015f838201520301601f198101835282611f57565b51902060405160208101917f19457468657265756d205369676e6564204d6573736167653a0a3332000000008352603c820152603c815261054c605c82611f57565b5190209236916120e3565b90613214565b9092919261324e565b336001600160a01b0390911603610582576102c194339161286d565b60405162461bcd60e51b8152602060048201526011602482015270496e76616c6964207369676e617475726560781b6044820152606490fd5b34610245575f366003190112610245576009546040516001600160a01b039091168152602090f35b34610245576020366003190112610245576001600160401b03610604611dc9565b165f8181526003602090815260408083203384529091529020600101805460481c60ff16919060058310156106d6576003831461069157690400000000000000000060ff60481b19825416179055805f5260046020526106673360405f206130e5565b506106756040518093612069565b600460208301525f8051602061333183398151915260403393a3005b60405162461bcd60e51b815260206004820152601f60248201527f43616e6e6f7420676f206f66666c696e65207768696c6520736c6173686564006044820152606490fd5b634e487b7160e01b5f52602160045260245ffd5b34610245576020366003190112610245576001600160401b0361070b611dc9565b165f52600760205260405f2080549061072382612266565b916107316040519384611f57565b8083526020830180925f5260205f205f915b8383106107d957848660405191829160208301906020845251809152604083019060408160051b85010192915f905b82821061078157505050500390f35b919360019193955060208091603f198982030185528751906060806107af8451608085526080850190612018565b93858101518685015260408101516040850152015115159101529601920192018594939192610772565b600460206001926040516107ec81611f21565b6107f586611f78565b815284860154838201526002860154604082015260ff60038701541615156060820152815201920192019190610743565b34610245576040366003190112610245576102c1610842611dc9565b61084a611df5565b906125c5565b3461024557606036600319011261024557610869611dc9565b610871611ddf565b6108796120b8565b90337f00000000000000000000000000000000000000000000000000000000000000006001600160a01b0316148015610a87575b8015610a5f575b15610a29576001600160401b031690603c82106109ef5760ff1691600183106109aa577fc9599ed962624a858ec59bae0ed86c75f4db65fe04570021277edbedd04ea564916001600160401b036040921693845f52600260205261099d60ff845f205460481c1684519061092782611f3c565b84825261098260ff6020840186815288850193151584528a5f5260026020526001600160401b03808a5f20965116166001600160401b03198654161785555116839060ff60401b82549160401b169060ff60401b1916179055565b51815460ff60481b191690151560481b60ff60481b16179055565b82519182526020820152a2005b60405162461bcd60e51b815260206004820152601760248201527f4d6178206d6973736564206d757374206265203e3d20310000000000000000006044820152606490fd5b60405162461bcd60e51b8152602060048201526012602482015271125b9d195c9d985b081d1bdbc81cda1bdc9d60721b6044820152606490fd5b60405162461bcd60e51b815260206004820152600e60248201526d139bdd08185d5d1a1bdc9a5e995960921b6044820152606490fd5b506001600160401b0383165f908152600660205260409020546001600160a01b0316156108b4565b506001600160401b0383165f52600660205260018060a01b0360405f20541633146108ad565b34610245576020366003190112610245576001600160401b03610ace611dc9565b165f8181526003602090815260408083203384529091529020600101805460481c60ff16919060058310156106d65760038314610b8a57805469ffff0000000000000000191669010000000000000000001790555f818152600460205260409020610b3a9033906131c0565b50610b6e604051809333847fc9862c5f02eefbdcea01c207ae538e1d304dc93026870f48951e48a0f4c8470c5f80a3612069565b600160208301525f8051602061333183398151915260403393a3005b60405162461bcd60e51b815260206004820152601e60248201527f43616e6e6f7420676f206f6e6c696e65207768696c6520736c617368656400006044820152606490fd5b346102455760a036600319011261024557610be8611dc9565b6024356001600160401b03811161024557610c0790369060040161203c565b9060843592831515809403610245576001600160401b0316805f526006602052610c3e60018060a01b0360405f20541633146121ab565b5f526007602052610c6160405f209160405193610c5a85611f21565b36916120e3565b825260208201604435815260408301916064358352606084019485528054600160401b811015610d9957610c9a91600182018155611e86565b939093610dad57518051906001600160401b038211610d9957610cc782610cc18754611eb3565b87612223565b602090601f8311600114610d2f5782600395936102c1989593610cff935f92610d24575b50508160011b915f199060031b1c19161790565b85555b51600185015551600284015551151591019060ff801983541691151516179055565b015190508980610ceb565b90601f19831691865f52815f20925f5b818110610d815750926001928592600398966102c19b989610610d6a575b505050811b018555610d02565b01515f1983891b60f8161c19169055888080610d5d565b92936020600181928786015181550195019301610d3f565b634e487b7160e01b5f52604160045260245ffd5b634e487b7160e01b5f525f60045260245ffd5b3461024557610dce36612137565b91929060018060a01b03600954163303610eb3576001600160401b037f1e2909cf45d70cf003f334b73c93330ce7e572782dfc82fab79deb8855a7c791921692835f52600360205260405f2060018060a01b0386165f52602052600160405f2001690300000000000000000060ff60481b19825416179055835f526004602052610e6560405f209560018060a01b031680966130e5565b50835f52600b60205260405f20855f5260205260405f206001600160401b03804216166001600160401b0319825416179055610eae6040519283926020845260208401916125a5565b0390a3005b60405162461bcd60e51b81526020600482015260136024820152724e6f7420736c617368696e67206f7261636c6560681b6044820152606490fd5b3461024557606036600319011261024557610f07611dc9565b610f0f611df5565b6044356001600160401b0381116102455760209283926001600160401b03610f3c85943690600401612119565b92165f526008835260405f209060018060a01b03165f52825260405f20604051938285935191829101845e82019081520301902054604051908152f35b3461024557610f8736611e21565b906001600160401b035f9316925b828110156102c157600581901b8201356001600160a01b038116919082900361024557303b15610245576040519163ba1fb10360e01b835285600484015260248301525f8260448183305af191821561100757600192610ff7575b5001610f95565b5f61100191611f57565b85610ff0565b6040513d5f823e3d90fd5b34610245575f366003190112610245575f546040516001600160a01b039091168152602090f35b3461024557602036600319011261024557611052611e0b565b61105a61285a565b600980546001600160a01b0319166001600160a01b0392909216919091179055005b34610245576020366003190112610245576001600160401b0361109d611dc9565b165f526004602052602060405f2054604051908152f35b34610245575f36600319011261024557600154336001600160a01b039091160361112657600180546001600160a01b03199081169091555f805433928116831782556001600160a01b0316907f8be0079c531659141344cd1fd0a4f28419497f9722a3daafe3b4186f6b6457e09080a3005b63118cdaa760e01b5f523360045260245ffd5b3461024557604036600319011261024557611152611dc9565b6001600160401b03611162611df5565b91165f52600b60205260405f209060018060a01b03165f5260205260206001600160401b0360405f205416604051908152f35b34610245576040366003190112610245576111ae611dc9565b6001600160401b036111be611df5565b915f60806040516111ce81611f06565b8281528260208201528260408201528260608201520152165f52600360205260405f209060018060a01b03165f5260205260405f2060405161120f81611f06565b8154815260018201549160208201906001600160401b038416825260ff6040840194818160401c16865260481c16606084019060058110156106d65760a0956001600160401b03600261128b9560ff94865201549560808801968752604051975188525116602087015251166040850152516060840190612069565b516080820152f35b34610245575f366003190112610245576112ab61285a565b600180546001600160a01b03199081169091555f80549182168155906001600160a01b03167f8be0079c531659141344cd1fd0a4f28419497f9722a3daafe3b4186f6b6457e08280a3005b346102455760403660031901126102455761130f611dc9565b6001600160401b0361131f611df5565b91165f52600360205260405f209060018060a01b03165f52602052602060ff600160405f20015460481c166113576040518092612069565bf35b34610245575f36600319011261024557602060405160038152f35b346102455760803660031901126102455761138d611dc9565b611395611ddf565b9061139e6120b8565b91606435926001600160401b038411610245576113c26102c194369060040161203c565b939092339161286d565b34610245575f366003190112610245576040517f00000000000000000000000000000000000000000000000000000000000000006001600160a01b03168152602090f35b346102455760203660031901126102455761144061143461142f611dc9565b6122de565b60405191829182612076565b0390f35b34610245576020366003190112610245576001600160401b03611465611dc9565b165f526006602052602060018060a01b0360405f205416604051908152f35b346102455760403660031901126102455761149d611dc9565b6001600160401b036114ad611df5565b9116805f52600360205260405f2060018060a01b0383165f5260205260ff600160405f20015460481c1660058110156106d657159081156114f6575b6020826040519015158152f35b90505f52600360205260405f209060018060a01b03165f5260205260ff600160405f20015460481c1660058110156106d657600160209114826114e9565b34610245576020366003190112610245576001600160401b03611555611dc9565b16805f52600460205260405f205461156c8161227d565b915f5b82811061158457604051806114408682612076565b600190825f52600460205261159c8160405f20612bfb565b838060a01b0391549060031b1c166115b482876122af565b90838060a01b031690520161156f565b34610245576040366003190112610245576115dd611dc9565b6001600160401b036115ed611df5565b91165f52600360205260405f209060018060a01b03165f5260205260a060405f2080549061165060026001830154920154916040519384526001600160401b038116602085015260ff8160401c16604085015260ff606085019160481c16612069565b6080820152f35b34610245575f366003190112610245576020604051610e108152f35b34610245575f3660031901126102455760206040517f00000000000000000000000000000000000000000000000000000000000000008152f35b34610245576020366003190112610245576004356001600160401b038111610245576116dd90369060040161203c565b810190602081830312610245578035906001600160401b03821161024557019080601f830112156102455781359061171482612266565b926117226040519485611f57565b82845260208401916020839460051b830101918183116102455760208101935b8385106117c357858760405191829160208301906020845251809152604083019060408160051b85010192915f905b82821061178057505050500390f35b919360019193955060208091603f1989820301855287519082806117ad8451604085526040850190612018565b9301519101529601920192018594939192611771565b84356001600160401b0381116102455782016040818503601f19011261024557604051916117f083611eeb565b6020820135926001600160401b03841161024557604083611818886020809881980101612119565b8352013583820152815201940193611742565b34610245575f36600319011261024557600a546040516001600160a01b039091168152602090f35b34610245575f36600319011261024557602060405161012c8152f35b3461024557604036600319011261024557611888611dc9565b6001600160401b0360243591165f52600760205260405f208054821015610245576118e9916118b691611e86565b506118c081611f78565b9060018101549060ff600360028301549201541690604051948594608086526080860190612018565b9260208501526040840152151560608301520390f35b3461024557602036600319011261024557611918611e0b565b61192061285a565b600a80546001600160a01b0319166001600160a01b0392909216919091179055005b34610245576001600160401b0361195836611e21565b919290921690815f52600660205261197d60018060a01b0360405f20541633146121ab565b815f52600760205260405f208054905f815581611b64575b50505f5b8181106119a257005b60406119af828487612201565b013560206119be838588612201565b013511611b2e57825f52600760205260405f20906119dd818487612201565b918054600160401b811015610d99576119fb91600182018155611e86565b929092610dad578035601e19823603018112156102455781018035906001600160401b03821161024557813603602082011361024557611a3f82610cc18754611eb3565b5f90601f8311600114611ac2579180611a7092606095945f92611ab45750508160011b915f199060031b1c19161790565b84555b60208101356001850155604081013560028501550135918215158303610245576001926003611aae92019060ff801983541691151516179055565b01611999565b602092500101358a80610ceb565b601f19831691865f5260205f20925f5b818110611b145750916001939185606097969410611af8575b505050811b018455611a73565b01602001355f19600384901b60f8161c19169055898080611aeb565b919360206001819282888801013581550195019201611ad2565b60405162461bcd60e51b815260206004820152600e60248201526d496e76616c696420626f756e647360901b6044820152606490fd5b6001600160fe1b0382168203611bfa575f5260205f209060021b8101905b818110156119955780611b9760049254611eb3565b80611bb6575b505f60018201555f60028201555f600382015501611b82565b601f8111600114611bcc57505f81555b86611b9d565b611be990825f526001601f60205f20920160051c820191016121eb565b805f525f6020812081835555611bc6565b634e487b7160e01b5f52601160045260245ffd5b3461024557604036600319011261024557611c27611dc9565b6001600160401b03611c37611df5565b91165f52600360205260405f209060018060a01b03165f52602052602060405f2054604051908152f35b34610245576020366003190112610245576060611c8d611c7f611dc9565b611c8761218d565b506127e4565b60408051916001600160401b03815116835260ff6020820151166020840152015115156040820152f35b3461024557604036600319011261024557611cd0611dc9565b611cd8611df5565b917f00000000000000000000000000000000000000000000000000000000000000006001600160a01b03163303611d9457506001600160401b03165f818152600660205260409020546001600160a01b0316611d5a575f90815260066020526040902080546001600160a01b0319166001600160a01b03909216919091179055005b60405162461bcd60e51b8152602060048201526012602482015271105b1c9958591e481c9959da5cdd195c995960721b6044820152606490fd5b62461bcd60e51b815260206004820152601060248201526f4f6e6c792054616e676c6520636f726560801b6044820152606490fd5b600435906001600160401b038216820361024557565b602435906001600160401b038216820361024557565b602435906001600160a01b038216820361024557565b600435906001600160a01b038216820361024557565b6040600319820112610245576004356001600160401b038116810361024557916024356001600160401b0381116102455760040182601f82011215610245578035926001600160401b038411610245576020808301928560051b010111610245579190565b8054821015611e9f575f5260205f209060021b01905f90565b634e487b7160e01b5f52603260045260245ffd5b90600182811c92168015611ee1575b6020831014611ecd57565b634e487b7160e01b5f52602260045260245ffd5b91607f1691611ec2565b604081019081106001600160401b03821117610d9957604052565b60a081019081106001600160401b03821117610d9957604052565b608081019081106001600160401b03821117610d9957604052565b606081019081106001600160401b03821117610d9957604052565b90601f801991011681019081106001600160401b03821117610d9957604052565b9060405191825f825492611f8b84611eb3565b8084529360018116908115611ff65750600114611fb2575b50611fb092500383611f57565b565b90505f9291925260205f20905f915b818310611fda575050906020611fb0928201015f611fa3565b6020919350806001915483858901015201910190918492611fc1565b905060209250611fb094915060ff191682840152151560051b8201015f611fa3565b805180835260209291819084018484015e5f828201840152601f01601f1916010190565b9181601f84011215610245578235916001600160401b038311610245576020838186019501011161024557565b9060058210156106d65752565b60206040818301928281528451809452019201905f5b8181106120995750505090565b82516001600160a01b031684526020938401939092019160010161208c565b6044359060ff8216820361024557565b6001600160401b038111610d9957601f01601f191660200190565b9291926120ef826120c8565b916120fd6040519384611f57565b829481845281830111610245578281602093845f960137010152565b9080601f8301121561024557816020612134933591016120e3565b90565b6060600319820112610245576004356001600160401b038116810361024557916024356001600160a01b03811681036102455791604435906001600160401b038211610245576121899160040161203c565b9091565b6040519061219a82611f3c565b5f6040838281528260208201520152565b156121b257565b60405162461bcd60e51b81526020600482015260116024820152702737ba1039b2b93b34b1b29037bbb732b960791b6044820152606490fd5b8181106121f6575050565b5f81556001016121eb565b9190811015611e9f5760051b81013590607e1981360301821215610245570190565b9190601f811161223257505050565b611fb0925f5260205f20906020601f840160051c8301931061225c575b601f0160051c01906121eb565b909150819061224f565b6001600160401b038111610d995760051b60200190565b9061228782612266565b6122946040519182611f57565b82815280926122a5601f1991612266565b0190602036910137565b8051821015611e9f5760209160051b010190565b91908203918211611bfa57565b5f198114611bfa5760010190565b906001600160401b036122f0836127e4565b921691825f52600560205260405f2054602082019160ff83511615801561259d575b612580576001600160401b0360ff91511692511691828102928184041490151715611bfa575f805b82811061247b575061234b9061227d565b935f905f5b83811061235e575050505050565b815f5260056020526123738160405f20612bfb565b60018060a01b0391549060031b1c16825f52600360205260405f2060018060a01b0382165f5260205260405f206040516123ac81611f06565b8154815260ff60018301546001600160401b0381166020840152818160401c16604084015260481c166060820160058210156106d65760028a9483835201546080840152825115918215612470575b508115612458575b5061244d576124139051426122c3565b1015612425575b506001905b01612350565b8361244691612437600194968b6122af565b90848060a01b031690526122d0565b929061241a565b50505060019061241f565b5192505060058210156106d65760048892145f612403565b60031491505f6123fb565b855f5260056020526124908160405f20612bfb565b90545f8881526003602081815260408084209590921b9390931c6001600160a01b031682529290915281902090516124c781611f06565b8154815260ff60018301546001600160401b0381166020840152818160401c16604084015260481c166060820160058210156106d6576002889483835201546080840152825115918215612575575b50811561255d575b506125535761252e9051426122c3565b101561253f575b6001905b0161233a565b9061254b6001916122d0565b919050612535565b5050600190612539565b5192505060058210156106d65760048692145f61251e565b60031491505f612516565b5050509050604051612593602082611f57565b5f81525f36813790565b508115612312565b908060209392818452848401375f828201840152601f01601f1916010190565b906001600160401b03821690815f52600360205260405f2060018060a01b0382165f526020526125f860405f20936127e4565b92805480156126375761260b90426122c3565b6001600160401b0385511690811561272a5760019160ff91041691019360ff855460401c16821161263e575b5050505050565b845468ffffffffffffffffff191660ff60401b604084901b161785556020015160ff168110158061270f575b612675575b80612637565b835f8051602061333183398151915292847f44fd32b677704ce68e7763897c49733b8f5289018ac60a5c926802d63759db4d602060409560ff6126eb9a5460481c1695690200000000000000000060ff60481b19825416179055835f5260048252865f209460018060a01b0316998a80966130e5565b508651908152a36126fe82518092612069565b60026020820152a35f80808061266f565b5060ff845460481c1660058110156106d6576002141561266a565b634e487b7160e01b5f52601260045260245ffd5b906001600160401b03612750836127e4565b92165f52600360205260405f209060018060a01b03165f5260205260405f206040519061277c82611f06565b8054825260ff60018201546001600160401b0381166020850152818160401c16604085015260481c169060058210156106d6576002916060840152015460808201525180156127de576127d76001600160401b0391426122c3565b9151161190565b50505f90565b6001600160401b03906127f561218d565b50165f52600260205260405f206040519061280f82611f3c565b546001600160401b03811680835260ff8260401c169060ff602085019383855260481c161515604085015215612850575b15612849575090565b6003905290565b61012c8352612840565b5f546001600160a01b0316330361112657565b93919290926001600160401b03851695865f52600360205260405f2060018060a01b0383165f5260205260405f20946128a5876127e4565b90885f52600560205260405f20976128c660018060a01b038616809a6131c0565b50600188019560ff875460481c169842815560026128e536888c6120e3565b6020815191012091015560ff60401b1987541687556001600160401b03875416906001600160401b038214611bfa576001600160401b03600160ff9301166001600160401b0319895416178855169384155f14612ae9575f975b600589101597886106d657805460ff60481b191660488b901b60ff60481b1617905560058a10156106d6578a968c9560028c148b81612ada575b509260409592866001600160401b0396937f658918e3147f13dd068ec21437b4c25c21682a8dc2129348671ead000db3e7b99996612a9a575b0151151580612a91575b612a7f575b5050505082519586524260208701521693a46106d65782918491808203612a4a575b5050600a546001600160a01b0316939150839050612a0057505050565b823b156102455760645f92836040519586948593636a3c29db60e11b8552600485015260248401526001600160401b03421660448401525af1612a405750565b5f611fb091611f57565b5f8051602061333183398151915291612a75604092612a6b84518094612069565b6020830190612069565ba380825f806129e3565b612a8893612c91565b5f8080806129c1565b508215156129bc565b8a5f526004602052612aae8d835f206131c0565b508c8b7fc9862c5f02eefbdcea01c207ae538e1d304dc93026870f48951e48a0f4c8470c5f80a36129b2565b5f9b506002141590508b612979565b6064851015612afa5760019761293f565b60019760c8861061293f576001600160401b0342168c5f52600b60205260405f208c5f526020526001600160401b0360405f2054168015908115612bd4575b50612b45575b5061293f565b8c5f52600b60205260405f208c5f526020526001600160401b0360405f2091166001600160401b03198254161790558a8c7f1e2909cf45d70cf003f334b73c93330ce7e572782dfc82fab79deb8855a7c791606060405160208152601b60208201527f50726f746f636f6c2076696f6c6174696f6e207265706f7274656400000000006040820152a35f612b3f565b905081036001600160401b038111611bfa576001600160401b03610e10911610155f612b39565b8054821015611e9f575f5260205f2001905f90565b5f9291815491612c1f83611eb3565b8083529260018116908115612c745750600114612c3b57505050565b5f9081526020812093945091925b838310612c5a575060209250010190565b600181602092949394548385870101520191019190612c49565b915050602093945060ff929192191683830152151560051b010190565b939291909180156130de576040516331e3bd1b60e01b815260206004820152915f9183918291612cc6916024840191906125a5565b0381305afa5f9181612fb3575b50612cde5750509050565b925f5b8451811015612db857806020612cf9600193886122af565b5101516001600160401b03841690815f52600860205260405f20848060a01b0387165f5260205260208060405f20612d31868c6122af565b515190604051938285935191829101845e82019081520301902055612d5682886122af565b5151907f23ed02bd3605bdea6a8afa76c46f00d274860ba6cea980f2585b696df9e182bd6020612d86858b6122af565b51015192612d9f60405191604083526040830190612018565b93602082015280868060a01b038916940390a301612ce1565b506001600160401b031690815f52600760205260405f20915f928054955b868510612de65750505050509050565b612df08583611e86565b50915f965f985f5b8451811015612fa457612e0b81866122af565b515160208151910120604051612e2c81612e25818b612c10565b0382611f57565b6020815191012014612e4057600101612df8565b9097929491995060019398506020612e5985928b6122af565b510151905b801580612f96575b612f1757612e7b575b50505b01939594612dd6565b838201548110908115612f09575b50612e95575b80612e6f565b847fe08f42896ce3aec2ff7da95a00372f33cf677e75ad602590832a8dffcdad6315612ecc60405193604085526040850190612c10565b927256616c7565206f7574206f6620626f756e647360681b60208286039586828501526013815201526040868060a01b038a16940190a35f612e8f565b90506002820154105f612e89565b5050847fe08f42896ce3aec2ff7da95a00372f33cf677e75ad602590832a8dffcdad6315612f5060405193604085526040850190612c10565b927f5265717569726564206d6574726963206d697373696e6700000000000000000060208286039586828501526017815201526040868060a01b038a16940190a3612e72565b5060ff600384015416612e66565b50969193909860019398612e5e565b9091503d805f833e612fc58183611f57565b810190602081830312610245578051906001600160401b03821161024557019080601f8301121561024557815191612ffc83612266565b9261300a6040519485611f57565b80845260208085019160051b830101918383116102455760208101915b83831061303a575050505050905f612cd3565b82516001600160401b038111610245578201906040828703601f190112610245576040519061306882611eeb565b60208301516001600160401b038111610245576020908401019187601f8401121561024557825192613099846120c8565b946130a76040519687611f57565b8486528960208684010111610245576020955f8787819882604097018386015e830101528352015183820152815201920191613027565b5050509050565b906001820191815f528260205260405f20548015155f146131b8575f198101818111611bfa5782545f19810191908211611bfa5781810361316d575b50505080548015613159575f19019061313a8282612bfb565b8154905f199060031b1b19169055555f526020525f6040812055600190565b634e487b7160e01b5f52603160045260245ffd5b6131a361317d61318d9386612bfb565b90549060031b1c92839286612bfb565b819391549060031b91821b915f19901b19161790565b90555f528360205260405f20555f8080613121565b505050505f90565b6001810190825f528160205260405f2054155f1461320d578054600160401b811015610d99576131fa61318d826001879401855584612bfb565b905554915f5260205260405f2055600190565b5050505f90565b81519190604183036132445761323d9250602082015190606060408401519301515f1a906132ae565b9192909190565b50505f9160029190565b60048110156106d65780613260575050565b600181036132775763f645eedf60e01b5f5260045ffd5b60028103613292575063fce698f760e01b5f5260045260245ffd5b60031461329c5750565b6335e2f38360e21b5f5260045260245ffd5b91907f7fffffffffffffffffffffffffffffff5d576e7357a4501ddfe92f46681b20a08411613325579160209360809260ff5f9560405194855216868401526040830152606082015282805260015afa15611007575f516001600160a01b0381161561331b57905f905f90565b505f906001905f90565b5050505f916003919056fe228824b86c256469125f525ce18c6c2d0a9e133d13b8ec7a2c96a193b0c28a09a164736f6c634300081a000a","linkReferences":{}},"methodIdentifiers":{"DEFAULT_HEARTBEAT_INTERVAL()":"2c957688","DEFAULT_MAX_MISSED_HEARTBEATS()":"61d6b86c","DOMAIN_SEPARATOR()":"3644e515","HEARTBEAT_TYPEHASH()":"f9f16762","SLASH_ALERT_COOLDOWN()":"3ac3cbe6","acceptOwnership()":"79ba5097","addMetricDefinition(uint64,string,uint256,uint256,bool)":"ae470a85","checkOperatorStatus(uint64,address)":"ba1fb103","checkOperatorsStatus(uint64,address[])":"96686c1e","configureHeartbeat(uint64,uint64,uint8)":"b99f6759","decodeMetricPairs(bytes)":"31e3bd1b","enableCustomMetrics(uint64,bool)":"f9107f3b","getHeartbeatConfig(uint64)":"0758236f","getLastCriticalHeartbeat(uint64,address)":"7639d227","getLastHeartbeat(uint64,address)":"0c76697a","getMetricDefinitions(uint64)":"c1ef9ddf","getMetricValue(uint64,address,string)":"d551162c","getOnlineOperatorCount(uint64)":"7b9f64b2","getOnlineOperators(uint64)":"40235a9c","getOperatorState(uint64,address)":"71e7388c","getOperatorStatus(uint64,address)":"62c7e8fc","getSlashableOperators(uint64)":"59dcea12","goOffline(uint64)":"c5d960bb","goOnline(uint64)":"b074e9dd","heartbeatConfigs(uint64)":"da435a7c","isHeartbeatCurrent(uint64,address)":"ee1c0390","isOnline(uint64,address)":"5685cf68","metricValues(uint64,address,string)":"9cbdae22","metricsRecorder()":"2dae1885","operatorStates(uint64,address)":"3e6e34a7","owner()":"8da5cb5b","pendingOwner()":"e30c3978","registerServiceOwner(uint64,address)":"05778550","renounceOwnership()":"715018a6","reportForSlashing(uint64,address,string)":"adff830c","serviceMetrics(uint64,uint256)":"22f1ec93","serviceOwners(uint64)":"56c4e17d","setMetricDefinitions(uint64,(string,uint256,uint256,bool)[])":"191cbd1a","setMetricsRecorder(address)":"20812956","setSlashingOracle(address)":"84ef7322","slashingOracle()":"cfe34749","submitHeartbeat(uint64,uint64,uint8,bytes,bytes)":"d413a580","submitHeartbeatDirect(uint64,uint64,uint8,bytes)":"5cce98a6","tangleCore()":"5a936dc6","transferOwnership(address)":"f2fde38b"},"id":183}