{"abi":[{"type":"constructor","inputs":[{"name":"_tangleCore","type":"address","internalType":"address"},{"name":"initialOwner","type":"address","internalType":"address"}],"stateMutability":"nonpayable"},{"type":"function","name":"DEFAULT_HEARTBEAT_INTERVAL","inputs":[],"outputs":[{"name":"","type":"uint64","internalType":"uint64"}],"stateMutability":"view"},{"type":"function","name":"DEFAULT_MAX_MISSED_HEARTBEATS","inputs":[],"outputs":[{"name":"","type":"uint8","internalType":"uint8"}],"stateMutability":"view"},{"type":"function","name":"DOMAIN_SEPARATOR","inputs":[],"outputs":[{"name":"","type":"bytes32","internalType":"bytes32"}],"stateMutability":"view"},{"type":"function","name":"HEARTBEAT_MAX_AGE","inputs":[],"outputs":[{"name":"","type":"uint64","internalType":"uint64"}],"stateMutability":"view"},{"type":"function","name":"HEARTBEAT_TYPEHASH","inputs":[],"outputs":[{"name":"","type":"bytes32","internalType":"bytes32"}],"stateMutability":"view"},{"type":"function","name":"MAX_METRIC_DEFINITIONS","inputs":[],"outputs":[{"name":"","type":"uint256","internalType":"uint256"}],"stateMutability":"view"},{"type":"function","name":"MAX_METRIC_NAME_LENGTH","inputs":[],"outputs":[{"name":"","type":"uint256","internalType":"uint256"}],"stateMutability":"view"},{"type":"function","name":"MAX_PAGE_SIZE","inputs":[],"outputs":[{"name":"","type":"uint256","internalType":"uint256"}],"stateMutability":"view"},{"type":"function","name":"SLASH_ALERT_COOLDOWN","inputs":[],"outputs":[{"name":"","type":"uint64","internalType":"uint64"}],"stateMutability":"view"},{"type":"function","name":"acceptOwnership","inputs":[],"outputs":[],"stateMutability":"nonpayable"},{"type":"function","name":"addMetricDefinition","inputs":[{"name":"serviceId","type":"uint64","internalType":"uint64"},{"name":"name","type":"string","internalType":"string"},{"name":"minValue","type":"uint256","internalType":"uint256"},{"name":"maxValue","type":"uint256","internalType":"uint256"},{"name":"required","type":"bool","internalType":"bool"}],"outputs":[],"stateMutability":"nonpayable"},{"type":"function","name":"checkOperatorStatus","inputs":[{"name":"serviceId","type":"uint64","internalType":"uint64"},{"name":"operator","type":"address","internalType":"address"}],"outputs":[],"stateMutability":"nonpayable"},{"type":"function","name":"checkOperatorsStatus","inputs":[{"name":"serviceId","type":"uint64","internalType":"uint64"},{"name":"operators","type":"address[]","internalType":"address[]"}],"outputs":[],"stateMutability":"nonpayable"},{"type":"function","name":"configureHeartbeat","inputs":[{"name":"serviceId","type":"uint64","internalType":"uint64"},{"name":"interval","type":"uint64","internalType":"uint64"},{"name":"maxMissed","type":"uint8","internalType":"uint8"}],"outputs":[],"stateMutability":"nonpayable"},{"type":"function","name":"decodeMetricPairs","inputs":[{"name":"payload","type":"bytes","internalType":"bytes"}],"outputs":[{"name":"pairs","type":"tuple[]","internalType":"struct IOperatorStatusRegistry.MetricPair[]","components":[{"name":"name","type":"string","internalType":"string"},{"name":"value","type":"uint256","internalType":"uint256"}]}],"stateMutability":"pure"},{"type":"function","name":"deregisterOperator","inputs":[{"name":"serviceId","type":"uint64","internalType":"uint64"},{"name":"operator","type":"address","internalType":"address"}],"outputs":[],"stateMutability":"nonpayable"},{"type":"function","name":"enableCustomMetrics","inputs":[{"name":"serviceId","type":"uint64","internalType":"uint64"},{"name":"enabled","type":"bool","internalType":"bool"}],"outputs":[],"stateMutability":"nonpayable"},{"type":"function","name":"getAllOperatorCount","inputs":[{"name":"serviceId","type":"uint64","internalType":"uint64"}],"outputs":[{"name":"","type":"uint256","internalType":"uint256"}],"stateMutability":"view"},{"type":"function","name":"getHeartbeatConfig","inputs":[{"name":"serviceId","type":"uint64","internalType":"uint64"}],"outputs":[{"name":"","type":"tuple","internalType":"struct IOperatorStatusRegistry.HeartbeatConfig","components":[{"name":"interval","type":"uint64","internalType":"uint64"},{"name":"maxMissed","type":"uint8","internalType":"uint8"},{"name":"customMetrics","type":"bool","internalType":"bool"}]}],"stateMutability":"view"},{"type":"function","name":"getLastCriticalHeartbeat","inputs":[{"name":"serviceId","type":"uint64","internalType":"uint64"},{"name":"operator","type":"address","internalType":"address"}],"outputs":[{"name":"","type":"uint64","internalType":"uint64"}],"stateMutability":"view"},{"type":"function","name":"getLastHeartbeat","inputs":[{"name":"serviceId","type":"uint64","internalType":"uint64"},{"name":"operator","type":"address","internalType":"address"}],"outputs":[{"name":"","type":"uint256","internalType":"uint256"}],"stateMutability":"view"},{"type":"function","name":"getMetricDefinitions","inputs":[{"name":"serviceId","type":"uint64","internalType":"uint64"}],"outputs":[{"name":"","type":"tuple[]","internalType":"struct IOperatorStatusRegistry.MetricDefinition[]","components":[{"name":"name","type":"string","internalType":"string"},{"name":"minValue","type":"uint256","internalType":"uint256"},{"name":"maxValue","type":"uint256","internalType":"uint256"},{"name":"required","type":"bool","internalType":"bool"}]}],"stateMutability":"view"},{"type":"function","name":"getMetricValue","inputs":[{"name":"serviceId","type":"uint64","internalType":"uint64"},{"name":"operator","type":"address","internalType":"address"},{"name":"metricName","type":"string","internalType":"string"}],"outputs":[{"name":"","type":"uint256","internalType":"uint256"}],"stateMutability":"view"},{"type":"function","name":"getOnlineOperatorCount","inputs":[{"name":"serviceId","type":"uint64","internalType":"uint64"}],"outputs":[{"name":"","type":"uint256","internalType":"uint256"}],"stateMutability":"view"},{"type":"function","name":"getOnlineOperators","inputs":[{"name":"serviceId","type":"uint64","internalType":"uint64"}],"outputs":[{"name":"","type":"address[]","internalType":"address[]"}],"stateMutability":"view"},{"type":"function","name":"getOperatorState","inputs":[{"name":"serviceId","type":"uint64","internalType":"uint64"},{"name":"operator","type":"address","internalType":"address"}],"outputs":[{"name":"","type":"tuple","internalType":"struct IOperatorStatusRegistry.OperatorState","components":[{"name":"lastHeartbeat","type":"uint256","internalType":"uint256"},{"name":"consecutiveBeats","type":"uint64","internalType":"uint64"},{"name":"missedBeats","type":"uint8","internalType":"uint8"},{"name":"status","type":"uint8","internalType":"enum IOperatorStatusRegistry.StatusCode"},{"name":"lastMetricsHash","type":"bytes32","internalType":"bytes32"}]}],"stateMutability":"view"},{"type":"function","name":"getOperatorStatus","inputs":[{"name":"serviceId","type":"uint64","internalType":"uint64"},{"name":"operator","type":"address","internalType":"address"}],"outputs":[{"name":"","type":"uint8","internalType":"enum IOperatorStatusRegistry.StatusCode"}],"stateMutability":"view"},{"type":"function","name":"getSlashableOperators","inputs":[{"name":"serviceId","type":"uint64","internalType":"uint64"}],"outputs":[{"name":"operators","type":"address[]","internalType":"address[]"}],"stateMutability":"view"},{"type":"function","name":"getSlashableOperatorsPaginated","inputs":[{"name":"serviceId","type":"uint64","internalType":"uint64"},{"name":"offset","type":"uint256","internalType":"uint256"},{"name":"limit","type":"uint256","internalType":"uint256"}],"outputs":[{"name":"operators","type":"address[]","internalType":"address[]"},{"name":"total","type":"uint256","internalType":"uint256"}],"stateMutability":"view"},{"type":"function","name":"goOffline","inputs":[{"name":"serviceId","type":"uint64","internalType":"uint64"}],"outputs":[],"stateMutability":"nonpayable"},{"type":"function","name":"goOnline","inputs":[{"name":"serviceId","type":"uint64","internalType":"uint64"}],"outputs":[],"stateMutability":"nonpayable"},{"type":"function","name":"heartbeatConfigs","inputs":[{"name":"","type":"uint64","internalType":"uint64"}],"outputs":[{"name":"interval","type":"uint64","internalType":"uint64"},{"name":"maxMissed","type":"uint8","internalType":"uint8"},{"name":"customMetrics","type":"bool","internalType":"bool"}],"stateMutability":"view"},{"type":"function","name":"isHeartbeatCurrent","inputs":[{"name":"serviceId","type":"uint64","internalType":"uint64"},{"name":"operator","type":"address","internalType":"address"}],"outputs":[{"name":"","type":"bool","internalType":"bool"}],"stateMutability":"view"},{"type":"function","name":"isOnline","inputs":[{"name":"serviceId","type":"uint64","internalType":"uint64"},{"name":"operator","type":"address","internalType":"address"}],"outputs":[{"name":"","type":"bool","internalType":"bool"}],"stateMutability":"view"},{"type":"function","name":"isRegisteredOperator","inputs":[{"name":"serviceId","type":"uint64","internalType":"uint64"},{"name":"operator","type":"address","internalType":"address"}],"outputs":[{"name":"","type":"bool","internalType":"bool"}],"stateMutability":"view"},{"type":"function","name":"metricValues","inputs":[{"name":"","type":"uint64","internalType":"uint64"},{"name":"","type":"address","internalType":"address"},{"name":"","type":"string","internalType":"string"}],"outputs":[{"name":"","type":"uint256","internalType":"uint256"}],"stateMutability":"view"},{"type":"function","name":"metricsRecorder","inputs":[],"outputs":[{"name":"","type":"address","internalType":"address"}],"stateMutability":"view"},{"type":"function","name":"operatorStates","inputs":[{"name":"","type":"uint64","internalType":"uint64"},{"name":"","type":"address","internalType":"address"}],"outputs":[{"name":"lastHeartbeat","type":"uint256","internalType":"uint256"},{"name":"consecutiveBeats","type":"uint64","internalType":"uint64"},{"name":"missedBeats","type":"uint8","internalType":"uint8"},{"name":"status","type":"uint8","internalType":"enum IOperatorStatusRegistry.StatusCode"},{"name":"lastMetricsHash","type":"bytes32","internalType":"bytes32"}],"stateMutability":"view"},{"type":"function","name":"owner","inputs":[],"outputs":[{"name":"","type":"address","internalType":"address"}],"stateMutability":"view"},{"type":"function","name":"pendingOwner","inputs":[],"outputs":[{"name":"","type":"address","internalType":"address"}],"stateMutability":"view"},{"type":"function","name":"registerOperator","inputs":[{"name":"serviceId","type":"uint64","internalType":"uint64"},{"name":"operator","type":"address","internalType":"address"}],"outputs":[],"stateMutability":"nonpayable"},{"type":"function","name":"registerServiceOwner","inputs":[{"name":"serviceId","type":"uint64","internalType":"uint64"},{"name":"owner","type":"address","internalType":"address"}],"outputs":[],"stateMutability":"nonpayable"},{"type":"function","name":"removeInactiveOperator","inputs":[{"name":"serviceId","type":"uint64","internalType":"uint64"},{"name":"operator","type":"address","internalType":"address"}],"outputs":[],"stateMutability":"nonpayable"},{"type":"function","name":"renounceOwnership","inputs":[],"outputs":[],"stateMutability":"nonpayable"},{"type":"function","name":"reportForSlashing","inputs":[{"name":"serviceId","type":"uint64","internalType":"uint64"},{"name":"operator","type":"address","internalType":"address"},{"name":"reason","type":"string","internalType":"string"}],"outputs":[],"stateMutability":"nonpayable"},{"type":"function","name":"serviceMetrics","inputs":[{"name":"","type":"uint64","internalType":"uint64"},{"name":"","type":"uint256","internalType":"uint256"}],"outputs":[{"name":"name","type":"string","internalType":"string"},{"name":"minValue","type":"uint256","internalType":"uint256"},{"name":"maxValue","type":"uint256","internalType":"uint256"},{"name":"required","type":"bool","internalType":"bool"}],"stateMutability":"view"},{"type":"function","name":"serviceOwners","inputs":[{"name":"","type":"uint64","internalType":"uint64"}],"outputs":[{"name":"","type":"address","internalType":"address"}],"stateMutability":"view"},{"type":"function","name":"setMetricDefinitions","inputs":[{"name":"serviceId","type":"uint64","internalType":"uint64"},{"name":"definitions","type":"tuple[]","internalType":"struct IOperatorStatusRegistry.MetricDefinition[]","components":[{"name":"name","type":"string","internalType":"string"},{"name":"minValue","type":"uint256","internalType":"uint256"},{"name":"maxValue","type":"uint256","internalType":"uint256"},{"name":"required","type":"bool","internalType":"bool"}]}],"outputs":[],"stateMutability":"nonpayable"},{"type":"function","name":"setMetricsRecorder","inputs":[{"name":"recorder","type":"address","internalType":"address"}],"outputs":[],"stateMutability":"nonpayable"},{"type":"function","name":"setSlashingOracle","inputs":[{"name":"oracle","type":"address","internalType":"address"}],"outputs":[],"stateMutability":"nonpayable"},{"type":"function","name":"slashingOracle","inputs":[],"outputs":[{"name":"","type":"address","internalType":"address"}],"stateMutability":"view"},{"type":"function","name":"submitHeartbeat","inputs":[{"name":"serviceId","type":"uint64","internalType":"uint64"},{"name":"blueprintId","type":"uint64","internalType":"uint64"},{"name":"statusCode","type":"uint8","internalType":"uint8"},{"name":"metrics","type":"bytes","internalType":"bytes"},{"name":"timestamp","type":"uint64","internalType":"uint64"},{"name":"signature","type":"bytes","internalType":"bytes"}],"outputs":[],"stateMutability":"nonpayable"},{"type":"function","name":"submitHeartbeatDirect","inputs":[{"name":"serviceId","type":"uint64","internalType":"uint64"},{"name":"blueprintId","type":"uint64","internalType":"uint64"},{"name":"statusCode","type":"uint8","internalType":"uint8"},{"name":"metrics","type":"bytes","internalType":"bytes"}],"outputs":[],"stateMutability":"nonpayable"},{"type":"function","name":"tangleCore","inputs":[],"outputs":[{"name":"","type":"address","internalType":"address"}],"stateMutability":"view"},{"type":"function","name":"transferOwnership","inputs":[{"name":"newOwner","type":"address","internalType":"address"}],"outputs":[],"stateMutability":"nonpayable"},{"type":"function","name":"validateAndStoreMetrics","inputs":[{"name":"serviceId","type":"uint64","internalType":"uint64"},{"name":"operator","type":"address","internalType":"address"},{"name":"pairs","type":"tuple[]","internalType":"struct IOperatorStatusRegistry.MetricPair[]","components":[{"name":"name","type":"string","internalType":"string"},{"name":"value","type":"uint256","internalType":"uint256"}]},{"name":"pairsLen","type":"uint256","internalType":"uint256"}],"outputs":[],"stateMutability":"nonpayable"},{"type":"event","name":"HeartbeatConfigUpdated","inputs":[{"name":"serviceId","type":"uint64","indexed":true,"internalType":"uint64"},{"name":"interval","type":"uint64","indexed":false,"internalType":"uint64"},{"name":"maxMissed","type":"uint8","indexed":false,"internalType":"uint8"}],"anonymous":false},{"type":"event","name":"HeartbeatReceived","inputs":[{"name":"serviceId","type":"uint64","indexed":true,"internalType":"uint64"},{"name":"blueprintId","type":"uint64","indexed":true,"internalType":"uint64"},{"name":"operator","type":"address","indexed":true,"internalType":"address"},{"name":"statusCode","type":"uint8","indexed":false,"internalType":"uint8"},{"name":"timestamp","type":"uint256","indexed":false,"internalType":"uint256"}],"anonymous":false},{"type":"event","name":"MetricReported","inputs":[{"name":"serviceId","type":"uint64","indexed":true,"internalType":"uint64"},{"name":"operator","type":"address","indexed":true,"internalType":"address"},{"name":"metricName","type":"string","indexed":false,"internalType":"string"},{"name":"value","type":"uint256","indexed":false,"internalType":"uint256"}],"anonymous":false},{"type":"event","name":"MetricViolation","inputs":[{"name":"serviceId","type":"uint64","indexed":true,"internalType":"uint64"},{"name":"operator","type":"address","indexed":true,"internalType":"address"},{"name":"metricName","type":"string","indexed":false,"internalType":"string"},{"name":"reason","type":"string","indexed":false,"internalType":"string"}],"anonymous":false},{"type":"event","name":"OperatorCameOnline","inputs":[{"name":"serviceId","type":"uint64","indexed":true,"internalType":"uint64"},{"name":"operator","type":"address","indexed":true,"internalType":"address"}],"anonymous":false},{"type":"event","name":"OperatorDeregistered","inputs":[{"name":"serviceId","type":"uint64","indexed":true,"internalType":"uint64"},{"name":"operator","type":"address","indexed":true,"internalType":"address"}],"anonymous":false},{"type":"event","name":"OperatorRegistered","inputs":[{"name":"serviceId","type":"uint64","indexed":true,"internalType":"uint64"},{"name":"operator","type":"address","indexed":true,"internalType":"address"}],"anonymous":false},{"type":"event","name":"OperatorWentOffline","inputs":[{"name":"serviceId","type":"uint64","indexed":true,"internalType":"uint64"},{"name":"operator","type":"address","indexed":true,"internalType":"address"},{"name":"missedBeats","type":"uint8","indexed":false,"internalType":"uint8"}],"anonymous":false},{"type":"event","name":"OwnershipTransferStarted","inputs":[{"name":"previousOwner","type":"address","indexed":true,"internalType":"address"},{"name":"newOwner","type":"address","indexed":true,"internalType":"address"}],"anonymous":false},{"type":"event","name":"OwnershipTransferred","inputs":[{"name":"previousOwner","type":"address","indexed":true,"internalType":"address"},{"name":"newOwner","type":"address","indexed":true,"internalType":"address"}],"anonymous":false},{"type":"event","name":"SlashingTriggered","inputs":[{"name":"serviceId","type":"uint64","indexed":true,"internalType":"uint64"},{"name":"operator","type":"address","indexed":true,"internalType":"address"},{"name":"reason","type":"string","indexed":false,"internalType":"string"}],"anonymous":false},{"type":"event","name":"StatusChanged","inputs":[{"name":"serviceId","type":"uint64","indexed":true,"internalType":"uint64"},{"name":"operator","type":"address","indexed":true,"internalType":"address"},{"name":"oldStatus","type":"uint8","indexed":false,"internalType":"enum IOperatorStatusRegistry.StatusCode"},{"name":"newStatus","type":"uint8","indexed":false,"internalType":"enum IOperatorStatusRegistry.StatusCode"}],"anonymous":false},{"type":"error","name":"ECDSAInvalidSignature","inputs":[]},{"type":"error","name":"ECDSAInvalidSignatureLength","inputs":[{"name":"length","type":"uint256","internalType":"uint256"}]},{"type":"error","name":"ECDSAInvalidSignatureS","inputs":[{"name":"s","type":"bytes32","internalType":"bytes32"}]},{"type":"error","name":"HeartbeatFromFuture","inputs":[{"name":"signed","type":"uint64","internalType":"uint64"},{"name":"now_","type":"uint64","internalType":"uint64"}]},{"type":"error","name":"HeartbeatStale","inputs":[{"name":"signed","type":"uint64","internalType":"uint64"},{"name":"now_","type":"uint64","internalType":"uint64"}]},{"type":"error","name":"OwnableInvalidOwner","inputs":[{"name":"owner","type":"address","internalType":"address"}]},{"type":"error","name":"OwnableUnauthorizedAccount","inputs":[{"name":"account","type":"address","internalType":"address"}]}],"bytecode":{"object":"0x60c0604052346100655761001a610014610139565b90610216565b61002261006a565b617ab96104d38239608051818181610edf015261388d015260a051818181611460015281816126cd015281816133ad015281816156a501526162620152617ab990f35b610070565b60405190565b5f80fd5b601f801991011690565b634e487b7160e01b5f52604160045260245ffd5b9061009c90610074565b810190811060018060401b038211176100b457604052565b61007e565b906100cc6100c561006a565b9283610092565b565b5f80fd5b60018060a01b031690565b6100e6906100d2565b90565b6100f2816100dd565b036100f957565b5f80fd5b9050519061010a826100e9565b565b91906040838203126101345780610128610131925f86016100fd565b936020016100fd565b90565b6100ce565b610157617f8c8038038061014c816100b9565b92833981019061010c565b9091565b90565b61017261016d610177926100d2565b61015b565b6100d2565b90565b6101839061015e565b90565b61018f9061017a565b90565b90565b61019e90610192565b9052565b90565b6101ae906101a2565b9052565b6101bb906100dd565b9052565b9095949261020a946101f9610203926101ef6080966101e560a088019c5f890190610195565b6020870190610195565b6040850190610195565b60608301906101a5565b01906101b2565b565b60200190565b5190565b90610220906102d3565b60a0527f8b73c3c69bb8fe3d512ecc4cf759cc79239f7b179b0ffacaa9a75d522b39400f6102bb7f36ffc258c865193ae10c3cf640450ab772fdb8da1dfcae7862ad1205a5567f4c916102ac7fc89efdaa54c0f20c7adf612882df0950f5a951637e0307cdcb4c672f298b8bc64661029730610186565b916102a061006a565b968795602087016101bf565b60208201810382520382610092565b6102cd6102c782610212565b9161020c565b20608052565b6102dc9061031e565b565b90565b6102f56102f06102fa926102de565b61015b565b6100d2565b90565b610306906102e1565b90565b919061031c905f602085019401906101b2565b565b8061033961033361032e5f6102fd565b6100dd565b916100dd565b1461034957610347906103e7565b565b61036c6103555f6102fd565b5f918291631e4fbdf760e01b835260048301610309565b0390fd5b1b90565b9190600861039491029161038e60018060a01b0384610370565b92610370565b9181191691161790565b6103a79061017a565b90565b90565b91906103c36103be6103cb9361039e565b6103aa565b908354610374565b9055565b5f90565b6103e5916103df6103cf565b916103ad565b565b6103fb906103f65f60016103d3565b610473565b565b5f1c90565b60018060a01b031690565b61041961041e916103fd565b610402565b90565b61042b905461040d565b90565b5f1b90565b9061044460018060a01b039161042e565b9181191691161790565b9061046361045e61046a9261039e565b6103aa565b8254610433565b9055565b5f0190565b61047c5f610421565b610486825f61044e565b906104ba6104b47f8be0079c531659141344cd1fd0a4f28419497f9722a3daafe3b4186f6b6457e09361039e565b9161039e565b916104c361006a565b806104cd8161046e565b0390a356fe60806040526004361015610013575b612523565b61001d5f3561039c565b806305778550146103975780630758236f146103925780630c76697a1461038d578063191cbd1a146103885780631e8f5ee514610383578063208129561461037e57806322f1ec93146103795780632bf4d6a7146103745780632c9576881461036f5780632dae18851461036a5780632f4bd7b81461036557806331e3bd1b146103605780633644e5151461035b5780633ac3cbe6146103565780633e6e34a7146103515780633fd62c6d1461034c57806340235a9c1461034757806348f4da20146103425780635685cf681461033d57806356c4e17d1461033857806359dcea12146103335780635a936dc61461032e5780635cce98a6146103295780636076439c1461032457806360cf09911461031f57806361d6b86c1461031a57806362c7e8fc1461031557806365a6936e146103105780636bfe06a61461030b578063715018a61461030657806371e7388c146103015780637639d227146102fc57806379ba5097146102f75780637b9f64b2146102f257806381beac2e146102ed57806384ef7322146102e85780638da5cb5b146102e357806396686c1e146102de5780639cbdae22146102d9578063adff830c146102d4578063ae470a85146102cf578063b074e9dd146102ca578063b99f6759146102c5578063ba1fb103146102c0578063c1ef9ddf146102bb578063c5d960bb146102b6578063cfe34749146102b1578063d551162c146102ac578063da435a7c146102a7578063e30c3978146102a2578063e65cafcb1461029d578063ee1c039014610298578063f2fde38b14610293578063f9107f3b1461028e578063f9f16762146102895763ffcf08f00361000e576124ef565b6124ba565b612457565b6123f7565b6123c1565b61238d565b612358565b612320565b61224e565b612219565b6121d7565b6121a2565b612078565b612044565b611fd7565b611f9d565b611ed2565b611e0b565b611c82565b611bc8565b611b95565b611b5e565b611ac9565b611a96565b611a60565b611a2a565b61196e565b611939565b6118cb565b611686565b61163c565b6115ba565b611585565b611517565b611482565b611429565b6113f4565b61138f565b611345565b6112d9565b611205565b6111cb565b610f93565b610f26565b610ea7565b610d2c565b610cde565b610c43565b610b9d565b610a6a565b6106c6565b610674565b610640565b610579565b61051f565b610450565b60e01c90565b60405190565b5f80fd5b5f80fd5b5f80fd5b67ffffffffffffffff1690565b6103ca816103b4565b036103d157565b5f80fd5b905035906103e2826103c1565b565b60018060a01b031690565b6103f8906103e4565b90565b610404816103ef565b0361040b57565b5f80fd5b9050359061041c826103fb565b565b9190604083820312610446578061043a610443925f86016103d5565b9360200161040f565b90565b6103ac565b5f0190565b3461047f5761046961046336600461041e565b906126ba565b6104716103a2565b8061047b8161044b565b0390f35b6103a8565b9060208282031261049d5761049a915f016103d5565b90565b6103ac565b6104ab906103b4565b9052565b60ff1690565b6104be906104af565b9052565b151590565b6104d0906104c2565b9052565b90604080610508936104ec5f8201515f8601906104a2565b6104fe602082015160208601906104b5565b01519101906104c7565b565b919061051d905f606085019401906104d4565b565b3461054f5761054b61053a610535366004610484565b612799565b6105426103a2565b9182918261050a565b0390f35b6103a8565b90565b61056090610554565b9052565b9190610577905f60208501940190610557565b565b346105aa576105a661059561058f36600461041e565b906127b2565b61059d6103a2565b91829182610564565b0390f35b6103a8565b5f80fd5b5f80fd5b5f80fd5b909182601f830112156105f55781359167ffffffffffffffff83116105f05760200192602083028401116105eb57565b6105b7565b6105b3565b6105af565b91909160408184031261063b57610613835f83016103d5565b92602082013567ffffffffffffffff81116106365761063292016105bb565b9091565b6103b0565b6103ac565b3461066f576106596106533660046105fa565b9161313b565b6106616103a2565b8061066b8161044b565b0390f35b6103a8565b346106a35761068d61068736600461041e565b906133a1565b6106956103a2565b8061069f8161044b565b0390f35b6103a8565b906020828203126106c1576106be915f0161040f565b90565b6103ac565b346106f4576106de6106d93660046106a8565b6134b7565b6106e66103a2565b806106f08161044b565b0390f35b6103a8565b61070281610554565b0361070957565b5f80fd5b9050359061071a826106f9565b565b91906040838203126107445780610738610741925f86016103d5565b9360200161070d565b90565b6103ac565b90565b61076061075b610765926103b4565b610749565b6103b4565b90565b906107729061074c565b5f5260205260405f2090565b634e487b7160e01b5f52603260045260245ffd5b5490565b5f5260205f2090565b5f5260205f2090565b6107b181610792565b8210156107cb576107c3600491610796565b910201905f90565b61077e565b634e487b7160e01b5f52602260045260245ffd5b9060016002830492168015610804575b60208310146107ff57565b6107d0565b91607f16916107f4565b60209181520190565b5f5260205f2090565b905f929180549061083a610833836107e4565b809461080e565b916001811690815f146108915750600114610855575b505050565b6108629192939450610817565b915f925b81841061087957505001905f8080610850565b60018160209295939554848601520191019290610866565b92949550505060ff19168252151560200201905f8080610850565b906108b691610820565b90565b601f801991011690565b634e487b7160e01b5f52604160045260245ffd5b906108e1906108b9565b810190811067ffffffffffffffff8211176108fb57604052565b6108c3565b90610920610919926109106103a2565b938480926108ac565b03836108d7565b565b5f1c90565b90565b61093661093b91610922565b610927565b90565b610948905461092a565b90565b60ff1690565b61095d61096291610922565b61094b565b90565b61096f9054610951565b90565b61097d906008610768565b9061098782610792565b8110156109cd57610997916107a8565b50906109a45f8301610900565b916109b16001820161093e565b916109ca60036109c36002850161093e565b9301610965565b90565b5f80fd5b5190565b60209181520190565b90825f9392825e0152565b610a08610a11602093610a16936109ff816109d1565b938480936109d5565b958691016109de565b6108b9565b0190565b610a23906104c2565b9052565b610a61610a6894610a57610a4c6060959998969960808601908682035f8801526109e9565b986020850190610557565b6040830190610557565b0190610a1a565b565b34610a9f57610a9b610a86610a8036600461071c565b90610972565b90610a929492946103a2565b94859485610a27565b0390f35b6103a8565b610aad816104af565b03610ab457565b5f80fd5b90503590610ac582610aa4565b565b909182601f83011215610b015781359167ffffffffffffffff8311610afc576020019260018302840111610af757565b6105b7565b6105b3565b6105af565b919060c083820312610b9857610b1e815f85016103d5565b92610b2c82602083016103d5565b92610b3a8360408401610ab8565b92606083013567ffffffffffffffff8111610b935781610b5b918501610ac7565b929093610b6b83608083016103d5565b9260a082013567ffffffffffffffff8111610b8e57610b8a9201610ac7565b9091565b6103b0565b6103b0565b6103ac565b34610bd557610bbf610bb0366004610b06565b96959095949194939293613966565b610bc76103a2565b80610bd18161044b565b0390f35b6103a8565b5f910312610be457565b6103ac565b90565b610c00610bfb610c0592610be9565b610749565b6103b4565b90565b610c1361012c610bec565b90565b610c1e610c08565b90565b610c2a906103b4565b9052565b9190610c41905f60208501940190610c21565b565b34610c7357610c53366004610bda565b610c6f610c5e610c16565b610c666103a2565b91829182610c2e565b0390f35b6103a8565b1c90565b60018060a01b031690565b610c97906008610c9c9302610c78565b610c7c565b90565b90610caa9154610c87565b90565b610cb9600b5f90610c9f565b90565b610cc5906103ef565b9052565b9190610cdc905f60208501940190610cbc565b565b34610d0e57610cee366004610bda565b610d0a610cf9610cad565b610d016103a2565b91829182610cc9565b0390f35b6103a8565b610d1e61012c610bec565b90565b610d29610d13565b90565b34610d5c57610d3c366004610bda565b610d58610d47610d21565b610d4f6103a2565b91829182610c2e565b0390f35b6103a8565b90602082820312610d92575f82013567ffffffffffffffff8111610d8d57610d899201610ac7565b9091565b6103b0565b6103ac565b5190565b60209181520190565b60200190565b610dc9610dd2602093610dd793610dc0816109d1565b9384809361080e565b958691016109de565b6108b9565b0190565b610de490610554565b9052565b90610e1290602080610e07604084015f8701518582035f870152610daa565b940151910190610ddb565b90565b90610e1f91610de8565b90565b60200190565b90610e3c610e3583610d97565b8092610d9b565b9081610e4d60208302840194610da4565b925f915b838310610e6057505050505090565b90919293946020610e82610e7c83856001950387528951610e15565b97610e22565b9301930191939290610e51565b610ea49160208201915f818403910152610e28565b90565b34610ed857610ed4610ec3610ebd366004610d61565b906139b2565b610ecb6103a2565b91829182610e8f565b0390f35b6103a8565b7f000000000000000000000000000000000000000000000000000000000000000090565b90565b610f0d90610f01565b9052565b9190610f24905f60208501940190610f04565b565b34610f5657610f36366004610bda565b610f52610f41610edd565b610f496103a2565b91829182610f11565b0390f35b6103a8565b90565b610f72610f6d610f7792610f5b565b610749565b6103b4565b90565b610f85610e10610f5e565b90565b610f90610f7a565b90565b34610fc357610fa3366004610bda565b610fbf610fae610f88565b610fb66103a2565b91829182610c2e565b0390f35b6103a8565b90610fd29061074c565b5f5260205260405f2090565b610ff2610fed610ff7926103e4565b610749565b6103e4565b90565b61100390610fde565b90565b61100f90610ffa565b90565b9061101c90611006565b5f5260205260405f2090565b67ffffffffffffffff1690565b61104161104691610922565b611028565b90565b6110539054611035565b90565b60401c90565b60ff1690565b61106e61107391611056565b61105c565b90565b6110809054611062565b90565b60481c90565b60ff1690565b61109b6110a091611083565b611089565b90565b6110ad905461108f565b90565b90565b6110bf6110c491610922565b6110b0565b90565b6110d190546110b3565b90565b906110e36110e8926003610fc8565b611012565b6110f35f820161093e565b9161110060018301611049565b9161110d60018201611076565b91611126600261111f600185016110a3565b93016110c7565b90565b611132906104af565b9052565b634e487b7160e01b5f52602160045260245ffd5b6005111561115457565b611136565b906111638261114a565b565b61116e90611159565b90565b61117a90611165565b9052565b909594926111c9946111b86111c2926111ae6080966111a460a088019c5f890190610557565b6020870190610c21565b6040850190611129565b6060830190611171565b0190610f04565b565b34611200576111fc6111e76111e136600461041e565b906110d4565b916111f39593956103a2565b9586958661117e565b0390f35b6103a8565b346112355761123161122061121b366004610484565b6139cc565b6112286103a2565b91829182610564565b0390f35b6103a8565b5190565b60209181520190565b60200190565b611256906103ef565b9052565b906112678160209361124d565b0190565b60200190565b9061128e6112886112818461123a565b809361123e565b92611247565b905f5b81811061129e5750505090565b9091926112b76112b1600192865161125a565b9461126b565b9101919091611291565b6112d69160208201915f818403910152611271565b90565b34611309576113056112f46112ef366004610484565b613a86565b6112fc6103a2565b918291826112c1565b0390f35b6103a8565b90565b61132561132061132a9261130e565b610749565b610554565b90565b61133760c8611311565b90565b61134261132d565b90565b3461137557611355366004610bda565b61137161136061133a565b6113686103a2565b91829182610564565b0390f35b6103a8565b919061138d905f60208501940190610a1a565b565b346113c0576113bc6113ab6113a536600461041e565b90613b26565b6113b36103a2565b9182918261137a565b0390f35b6103a8565b906113cf9061074c565b5f5260205260405f2090565b6113f1906113ec6007915f926113c5565b610c9f565b90565b346114245761142061140f61140a366004610484565b6113db565b6114176103a2565b91829182610cc9565b0390f35b6103a8565b346114595761145561144461143f366004610484565b613bad565b61144c6103a2565b918291826112c1565b0390f35b6103a8565b7f000000000000000000000000000000000000000000000000000000000000000090565b346114b257611492366004610bda565b6114ae61149d61145e565b6114a56103a2565b91829182610cc9565b0390f35b6103a8565b90608082820312611512576114ce815f84016103d5565b926114dc82602085016103d5565b926114ea8360408301610ab8565b92606082013567ffffffffffffffff811161150d576115099201610ac7565b9091565b6103b0565b6103ac565b346115495761153361152a3660046114b7565b93929092613c1f565b61153b6103a2565b806115458161044b565b0390f35b6103a8565b90565b61156561156061156a9261154e565b610749565b610554565b90565b6115776032611551565b90565b61158261156d565b90565b346115b557611595366004610bda565b6115b16115a061157a565b6115a86103a2565b91829182610564565b0390f35b6103a8565b346115eb576115e76115d66115d036600461041e565b90613c2e565b6115de6103a2565b9182918261137a565b0390f35b6103a8565b90565b61160761160261160c926115f0565b610749565b6104af565b90565b61161960036115f3565b90565b61162461160f565b90565b919061163a905f60208501940190611129565b565b3461166c5761164c366004610bda565b61166861165761161c565b61165f6103a2565b91829182611627565b0390f35b6103a8565b9190611684905f60208501940190611171565b565b346116b7576116b36116a261169c36600461041e565b90613c5a565b6116aa6103a2565b91829182611671565b0390f35b6103a8565b906116cf6116c86103a2565b92836108d7565b565b67ffffffffffffffff81116116e95760208091020190565b6108c3565b5f80fd5b5f80fd5b5f80fd5b67ffffffffffffffff8111611718576117146020916108b9565b0190565b6108c3565b90825f939282370152565b9092919261173d611738826116fa565b6116bc565b93818552602085019082840111611759576117579261171d565b565b6116f6565b9080601f8301121561177c5781602061177993359101611728565b90565b6105af565b9190916040818403126117d45761179860406116bc565b925f8201359167ffffffffffffffff83116117cf576117bc826117c894830161175e565b5f86015260200161070d565b6020830152565b6116f2565b6116ee565b9291906117ed6117e8826116d1565b6116bc565b93818552602080860192028101918383116118445781905b838210611813575050505050565b813567ffffffffffffffff811161183f576020916118348784938701611781565b815201910190611805565b6105af565b6105b7565b9080601f8301121561186757816020611864933591016117d9565b90565b6105af565b6080818303126118c657611882825f83016103d5565b92611890836020840161040f565b9260408301359067ffffffffffffffff82116118c1576118b5816118be938601611849565b9360600161070d565b90565b6103b0565b6103ac565b346118fd576118e76118de36600461186c565b92919091614040565b6118ef6103a2565b806118f98161044b565b0390f35b6103a8565b90565b61191961191461191e92611902565b610749565b610554565b90565b61192b6040611905565b90565b611936611921565b90565b3461196957611949366004610bda565b61196561195461192e565b61195c6103a2565b91829182610564565b0390f35b6103a8565b3461199c5761197e366004610bda565b61198661466f565b61198e6103a2565b806119988161044b565b0390f35b6103a8565b6119aa90611165565b9052565b6119b790610f01565b9052565b90608080611a13936119d35f8201515f860190610ddb565b6119e5602082015160208601906104a2565b6119f7604082015160408601906104b5565b611a09606082015160608601906119a1565b01519101906119ae565b565b9190611a28905f60a085019401906119bb565b565b34611a5b57611a57611a46611a4036600461041e565b906147ac565b611a4e6103a2565b91829182611a15565b0390f35b6103a8565b34611a9157611a8d611a7c611a7636600461041e565b90614804565b611a846103a2565b91829182610c2e565b0390f35b6103a8565b34611ac457611aa6366004610bda565b611aae61482c565b611ab66103a2565b80611ac08161044b565b0390f35b6103a8565b34611af957611af5611ae4611adf366004610484565b61487d565b611aec6103a2565b91829182610564565b0390f35b6103a8565b9091606082840312611b3357611b30611b19845f85016103d5565b93611b27816020860161070d565b9360400161070d565b90565b6103ac565b92916020611b54611b5c9360408701908782035f890152611271565b940190610557565b565b34611b9057611b77611b71366004611afe565b9161491b565b90611b8c611b836103a2565b92839283611b38565b0390f35b6103a8565b34611bc357611bad611ba83660046106a8565b614aa2565b611bb56103a2565b80611bbf8161044b565b0390f35b6103a8565b34611bf857611bd8366004610bda565b611bf4611be3614ab1565b611beb6103a2565b91829182610cc9565b0390f35b6103a8565b909182601f83011215611c375781359167ffffffffffffffff8311611c32576020019260208302840111611c2d57565b6105b7565b6105b3565b6105af565b919091604081840312611c7d57611c55835f83016103d5565b92602082013567ffffffffffffffff8111611c7857611c749201611bfd565b9091565b6103b0565b6103ac565b34611cb157611c9b611c95366004611c3c565b91614b38565b611ca36103a2565b80611cad8161044b565b0390f35b6103a8565b91606083830312611d0257611ccd825f85016103d5565b92611cdb836020830161040f565b92604082013567ffffffffffffffff8111611cfd57611cfa920161175e565b90565b6103b0565b6103ac565b90611d119061074c565b5f5260205260405f2090565b90611d2790611006565b5f5260205260405f2090565b905090565b611d5d611d5492602092611d4b816109d1565b94858093611d33565b938491016109de565b0190565b90565b611d70611d7591610554565b611d61565b9052565b611d89611d909160209493611d38565b8092611d64565b0190565b611da8611d9f6103a2565b92839283611d79565b03902090565b611db791611d94565b90565b611dca906008611dcf9302610c78565b610927565b90565b90611ddd9154611dba565b90565b90611e0892611dfe611e0392611df96009955f96611d07565b611d1d565b611dae565b611dd2565b90565b34611e3c57611e38611e27611e21366004611cb6565b91611de0565b611e2f6103a2565b91829182610564565b0390f35b6103a8565b909182601f83011215611e7b5781359167ffffffffffffffff8311611e76576020019260018302840111611e7157565b6105b7565b6105b3565b6105af565b91606083830312611ecd57611e97825f85016103d5565b92611ea5836020830161040f565b92604082013567ffffffffffffffff8111611ec857611ec49201611e41565b9091565b6103b0565b6103ac565b34611f0457611eee611ee5366004611e80565b92919091614d9d565b611ef66103a2565b80611f008161044b565b0390f35b6103a8565b611f12816104c2565b03611f1957565b5f80fd5b90503590611f2a82611f09565b565b91909160a081840312611f9857611f45835f83016103d5565b92602082013567ffffffffffffffff8111611f935781611f66918401611e41565b929093611f90611f79846040850161070d565b93611f87816060860161070d565b93608001611f1d565b90565b6103b0565b6103ac565b34611fd257611fbc611fb0366004611f2c565b94939093929192615072565b611fc46103a2565b80611fce8161044b565b0390f35b6103a8565b3461200557611fef611fea366004610484565b615427565b611ff76103a2565b806120018161044b565b0390f35b6103a8565b909160608284031261203f5761203c612025845f85016103d5565b9361203381602086016103d5565b93604001610ab8565b90565b6103ac565b346120735761205d61205736600461200a565b9161569c565b6120656103a2565b8061206f8161044b565b0390f35b6103a8565b346120a75761209161208b36600461041e565b9061585b565b6120996103a2565b806120a38161044b565b0390f35b6103a8565b5190565b60209181520190565b60200190565b9061210d906060806120de608084015f8701518582035f870152610daa565b946120f160208201516020860190610ddb565b61210360408201516040860190610ddb565b01519101906104c7565b90565b9061211a916120bf565b90565b60200190565b90612137612130836120ac565b80926120b0565b9081612148602083028401946120b9565b925f915b83831061215b57505050505090565b9091929394602061217d61217783856001950387528951612110565b9761211d565b930193019193929061214c565b61219f9160208201915f818403910152612123565b90565b346121d2576121ce6121bd6121b8366004610484565b615bd2565b6121c56103a2565b9182918261218a565b0390f35b6103a8565b34612205576121ef6121ea366004610484565b615d62565b6121f76103a2565b806122018161044b565b0390f35b6103a8565b612216600a5f90610c9f565b90565b3461224957612229366004610bda565b61224561223461220a565b61223c6103a2565b91829182610cc9565b0390f35b6103a8565b346122825761227e61226d612264366004611e80565b92919091615dcf565b6122756103a2565b91829182610564565b0390f35b6103a8565b906122919061074c565b5f5260205260405f2090565b6122a96122ae91611083565b61094b565b90565b6122bb905461229d565b90565b6122c9906002612287565b6122d45f8201611049565b916122eb5f6122e4818501611076565b93016122b1565b90565b60409061231761231e949695939661230d60608401985f850190610c21565b6020830190611129565b0190610a1a565b565b346123535761234f61233b612336366004610484565b6122be565b6123469391936103a2565b938493846122ee565b0390f35b6103a8565b3461238857612368366004610bda565b612384612373615e04565b61237b6103a2565b91829182610cc9565b0390f35b6103a8565b346123bc576123a66123a036600461041e565b90615eee565b6123ae6103a2565b806123b88161044b565b0390f35b6103a8565b346123f2576123ee6123dd6123d736600461041e565b90616083565b6123e56103a2565b9182918261137a565b0390f35b6103a8565b346124255761240f61240a3660046106a8565b616182565b6124176103a2565b806124218161044b565b0390f35b6103a8565b9190604083820312612452578061244661244f925f86016103d5565b93602001611f1d565b90565b6103ac565b346124865761247061246a36600461242a565b9061618d565b6124786103a2565b806124828161044b565b0390f35b6103a8565b7f32721f8dc67e953c540da90f663059c23fc47f70d11e317ed6d5a24c8b85637490565b6124b761248b565b90565b346124ea576124ca366004610bda565b6124e66124d56124af565b6124dd6103a2565b91829182610f11565b0390f35b6103a8565b3461251e5761250861250236600461041e565b90616256565b6125106103a2565b8061251a8161044b565b0390f35b6103a8565b5f80fd5b5f7f4f6e6c792054616e676c6520636f726500000000000000000000000000000000910152565b61255b60106020926109d5565b61256481612527565b0190565b61257d9060208101905f81830391015261254e565b90565b1561258757565b61258f6103a2565b62461bcd60e51b8152806125a560048201612568565b0390fd5b6125b56125ba91610922565b610c7c565b90565b6125c790546125a9565b90565b90565b6125e16125dc6125e6926125ca565b610749565b6103e4565b90565b6125f2906125cd565b90565b5f7f416c726561647920726567697374657265640000000000000000000000000000910152565b61262960126020926109d5565b612632816125f5565b0190565b61264b9060208101905f81830391015261261c565b90565b1561265557565b61265d6103a2565b62461bcd60e51b81528061267360048201612636565b0390fd5b5f1b90565b9061268d60018060a01b0391612677565b9181191691161790565b90565b906126af6126aa6126b692611006565b612697565b825461267c565b9055565b61273c612741926126fd336126f76126f17f00000000000000000000000000000000000000000000000000000000000000006103ef565b916103ef565b14612580565b61273461271461270f600786906113c5565b6125bd565b61272e6127286127235f6125e9565b6103ef565b916103ef565b1461264e565b9160076113c5565b61269a565b565b61274d60606116bc565b90565b5f90565b5f90565b5f90565b612764612743565b906020808084612772612750565b81520161277d612754565b815201612788612758565b81525050565b61279661275c565b90565b6127ab906127a561278e565b5061637e565b90565b5f90565b6127d36127d9926127ce5f936127c66127ae565b506003610fc8565b611012565b0161093e565b90565b5f7f4e6f742073657276696365206f776e6572000000000000000000000000000000910152565b61281060116020926109d5565b612819816127dc565b0190565b6128329060208101905f818303910152612803565b90565b1561283c57565b6128446103a2565b62461bcd60e51b81528061285a6004820161281d565b0390fd5b5090565b5f7f546f6f206d616e7920646566696e6974696f6e73000000000000000000000000910152565b61289660146020926109d5565b61289f81612862565b0190565b6128b89060208101905f818303910152612889565b90565b156128c257565b6128ca6103a2565b62461bcd60e51b8152806128e0600482016128a3565b0390fd5b634e487b7160e01b5f52601160045260245ffd5b61290761290d91939293610554565b92610554565b91612919838202610554565b92818404149015171561292857565b6128e4565b6129389060046128f8565b90565b9061294e905f1990602003600802610c78565b8154169055565b1b90565b9190600861297491029161296e5f1984612955565b92612955565b9181191691161790565b61299261298d61299792610554565b610749565b610554565b90565b90565b91906129b36129ae6129bb9361297e565b61299a565b908354612959565b9055565b6129d1916129cb6127ae565b9161299d565b565b5b8181106129df575050565b806129ec5f6001936129bf565b016129d4565b90612a02905f1990600802610c78565b191690565b81612a11916129f2565b906002021790565b905f91612a30612a2882610817565b928354612a07565b905555565b601f602091010490565b919290602082105f14612a9857601f8411600114612a6857612a62929350612a07565b90555b5b565b5090612a8e612a93936001612a85612a7f85610817565b92612a35565b820191016129d3565b612a19565b612a65565b50612acf8293612aa9600194610817565b612ac8612ab585612a35565b820192601f861680612ada575b50612a35565b01906129d3565b600202179055612a66565b612ae69088860361293b565b5f612ac2565b929091680100000000000000008211612b4c576020115f14612b3d57602081105f14612b2157612b1b91612a07565b90555b5b565b60019160ff1916612b3184610817565b55600202019055612b1e565b60019150600202019055612b1f565b6108c3565b908154612b5d816107e4565b90818311612b86575b818310612b74575b50505050565b612b7d93612a3f565b5f808080612b6e565b612b9283838387612aec565b612b66565b5f612ba191612b51565b565b634e487b7160e01b5f525f60045260245ffd5b905f03612bc857612bc690612b97565b565b612ba3565b60035f91612bdd83808301612bb6565b612bea83600183016129bf565b612bf783600283016129bf565b0155565b905f03612c0d57612c0b90612bcd565b565b612ba3565b5b818110612c1e575050565b80612c2b5f600493612bfb565b01612c13565b9091828110612c40575b505050565b612c5e612c58612c52612c699561292d565b9261292d565b92610796565b918201910190612c12565b5f8080612c3b565b90680100000000000000008111612c9a5781612c8f612c9893610792565b90828155612c31565b565b6108c3565b5f612ca991612c71565b565b905f03612cbd57612cbb90612c9f565b565b612ba3565b612cd6612cd1612cdb926125ca565b610749565b610554565b90565b6001612cea9101610554565b90565b5f80fd5b5f80fd5b5f80fd5b903590600160800381360303821215612d10570190565b612ced565b90821015612d2f576020612d2c9202810190612cf9565b90565b61077e565b903590600160200381360303821215612d76570180359067ffffffffffffffff8211612d7157602001916001820236038313612d6c57565b612cf5565b612cf1565b612ced565b91565b5090565b5f7f4e616d6520746f6f206c6f6e6700000000000000000000000000000000000000910152565b612db6600d6020926109d5565b612dbf81612d82565b0190565b612dd89060208101905f818303910152612da9565b90565b15612de257565b612dea6103a2565b62461bcd60e51b815280612e0060048201612dc3565b0390fd5b35612e0e816106f9565b90565b5f7f496e76616c696420626f756e6473000000000000000000000000000000000000910152565b612e45600e6020926109d5565b612e4e81612e11565b0190565b612e679060208101905f818303910152612e38565b90565b15612e7157565b612e796103a2565b62461bcd60e51b815280612e8f60048201612e52565b0390fd5b90565b5f5260205f2090565b5490565b612eac81612e9f565b821015612ec657612ebe600491612e96565b910201905f90565b61077e565b5090565b9190601f8111612edf575b505050565b612eeb612f1093610817565b906020612ef784612a35565b83019310612f18575b612f0990612a35565b01906129d3565b5f8080612eda565b9150612f0981929050612f00565b91612f319082612ecb565b9067ffffffffffffffff8211612ff057612f5582612f4f85546107e4565b85612ecf565b5f90601f8311600114612f8857918091612f77935f92612f7c575b5050612a07565b90555b565b90915001355f80612f70565b601f19831691612f9785610817565b925f5b818110612fd857509160029391856001969410612fbe575b50505002019055612f7a565b612fce910135601f8416906129f2565b90555f8080612fb2565b91936020600181928787013581550195019201612f9a565b6108c3565b906130009291612f26565b565b9061300e5f1991612677565b9181191691161790565b9061302d6130286130349261297e565b61299a565b8254613002565b9055565b3561304281611f09565b90565b9061305160ff91612677565b9181191691161790565b613064906104c2565b90565b90565b9061307f61307a6130869261305b565b613067565b8254613045565b9055565b906130e8606060036130ee946130ae5f82016130a85f880188612d34565b91612ff5565b6130c7600182016130c160208801612e04565b90613018565b6130e0600282016130da60408801612e04565b90613018565b019201613038565b9061306a565b565b9190613101576130ff9161308a565b565b612ba3565b9081549168010000000000000000831015613136578261312e91600161313495018155612ea3565b906130f0565b565b6108c3565b9291909261316e3361316861316261315d613158600787906113c5565b6125bd565b6103ef565b916103ef565b14612835565b61319c61317c85849061285e565b61319561318f61318a61156d565b610554565b91610554565b11156128bb565b6131b15f6131ac60088490610768565b612cab565b6131ba5f612cc2565b5b806131d86131d26131cd88879061285e565b610554565b91610554565b10156132ab576132a69061322f61320f6132096132036131fa8a898791612d15565b5f810190612d34565b90612d7b565b90612d7e565b61322861322261321d611921565b610554565b91610554565b1115612ddb565b613278613249604061324389888691612d15565b01612e04565b61327161326b61326660206132608c8b8991612d15565b01612e04565b610554565b91610554565b1015612e6a565b6132a161328f61328a60088690610768565b612e93565b61329b88878591612d15565b90613106565b612cde565b6131bb565b5050509050565b5f7f5a65726f20616464726573730000000000000000000000000000000000000000910152565b6132e6600c6020926109d5565b6132ef816132b2565b0190565b6133089060208101905f8183039101526132d9565b90565b1561331257565b61331a6103a2565b62461bcd60e51b815280613330600482016132f3565b0390fd5b9061333e9061074c565b5f5260205260405f2090565b90565b60481b90565b9061336869ff0000000000000000009161334d565b9181191691161790565b61337b90611159565b90565b90565b9061339661339161339d92613372565b61337e565b8254613353565b9055565b6133dd336133d76133d17f00000000000000000000000000000000000000000000000000000000000000006103ef565b916103ef565b14612580565b613402826133fb6133f56133f05f6125e9565b6103ef565b916103ef565b141561330b565b61342861342361341c61341760068590613334565b61334a565b849061645c565b61264e565b61344b6002600161344561343e60038690610fc8565b8690611012565b01613381565b9061347f6134797f8e2d88795a3c66719a287658cbf68b3eb2b8e183cb18f46f4813913fc8aafc4b9361074c565b91611006565b916134886103a2565b806134928161044b565b0390a3565b6134a8906134a3616496565b6134aa565b565b6134b590600b61269a565b565b6134c090613497565b565b5f7f4e6f742072656769737465726564206f70657261746f72000000000000000000910152565b6134f660176020926109d5565b6134ff816134c2565b0190565b6135189060208101905f8183039101526134e9565b90565b1561352257565b61352a6103a2565b62461bcd60e51b81528061354060048201613503565b0390fd5b906135799796959493929161357461356f613568613563846006613334565b61334a565b33906164e4565b61351b565b6137ba565b565b61358f61358a613594926103b4565b610749565b610554565b90565b6135ab6135a66135b092610554565b610749565b6103b4565b90565b9160206135d49294936135cd60408201965f830190610c21565b0190610c21565b565b6135e56135eb91939293610554565b92610554565b82039182116135f657565b6128e4565b67ffffffffffffffff8111613619576136156020916108b9565b0190565b6108c3565b9092919261363361362e826135fb565b6116bc565b9381855260208501908284011161364f5761364d9261171d565b565b6116f6565b61365f91369161361e565b90565b60200190565b5190565b949290979695939160e08601985f870161368591610f04565b6020860161369291610cbc565b6040850161369f91610c21565b606084016136ac91610c21565b608083016136b991611129565b60a082016136c691610f04565b60c0016136d291610c21565b565b5f61190160f01b910152565b6136ec60028092611d33565b6136f5816136d4565b0190565b90565b61370861370d91610f01565b6136f9565b9052565b602080939261372c613725613734946136e0565b80926136fc565b0180926136fc565b0190565b5f7f496e76616c6964207369676e6174757265000000000000000000000000000000910152565b61376c60116020926109d5565b61377581613738565b0190565b61378e9060208101905f81830391015261375f565b90565b1561379857565b6137a06103a2565b62461bcd60e51b8152806137b660048201613779565b0390fd5b919293949796909597806137d66137d042610554565b9161357b565b1161393e576137ee426137e88361357b565b906135d6565b6138076138016137fc610d13565b61357b565b91610554565b116139165761391497986138eb61390993856138758a6138668d6138f1988d8d61383d61383261248b565b963399959293613654565b61384f61384982613668565b91613662565b20929361385a6103a2565b9889976020890161366c565b602082018103825203826108d7565b61388761388182613668565b91613662565b206138d27f00000000000000000000000000000000000000000000000000000000000000006138c36138b76103a2565b93849260208401613711565b602082018103825203826108d7565b6138e46138de82613668565b91613662565b2092613654565b9061651e565b6139036138fd336103ef565b916103ef565b14613791565b9333919293946166b5565b565b61391f42613597565b9061393a5f9283926318355b7560e21b8452600484016135b3565b0390fd5b61394742613597565b906139625f9283926357ea02e960e01b8452600484016135b3565b0390fd5b9061397697969594939291613544565b565b606090565b906020828203126139ad575f82013567ffffffffffffffff81116139a8576139a59201611849565b90565b6103b0565b6103ac565b906139c9916139bf613978565b509081019061397d565b90565b6139eb6139e66139f0926139de6127ae565b506005613334565b61334a565b616ac7565b90565b606090565b67ffffffffffffffff8111613a105760208091020190565b6108c3565b90613a27613a22836139f8565b6116bc565b918252565b369037565b90613a56613a3e83613a15565b92602080613a4c86936139f8565b9201910390613a2c565b565b90613a628261123a565b811015613a73576020809102010190565b61077e565b90613a82906103ef565b9052565b90613a8f6139f3565b50613aac613aa7613aa260048590613334565b61334a565b616ac7565b91613ab683613a31565b91613ac05f612cc2565b5b80613ad4613ace87610554565b91610554565b1015613b1b57613b1690613b11613aff613af8613af360048890613334565b61334a565b8390616b16565b613b0c8791849092613a58565b613a78565b612cde565b613ac1565b5092505090565b5f90565b90613b2f613b22565b50613b516001613b4b613b4460038690610fc8565b8490611012565b016110a3565b613b63613b5d5f611159565b91611159565b14918215613b71575b505090565b613b929250600191613b87613b8c926003610fc8565b611012565b016110a3565b613ba5613b9f6001611159565b91611159565b145f80613b6c565b613bd390613bb96139f3565b505f90613bcd613bc761132d565b92612cc2565b9061491b565b5090565b90613c0994939291613c04613bff613bf8613bf3846006613334565b61334a565b33906164e4565b61351b565b613c0b565b565b91613c1d9492939133919293946166b5565b565b90613c2c94939291613bd7565b565b90613c4e613c49613c5393613c41613b22565b506006613334565b61334a565b6164e4565b90565b5f90565b613c7c613c8292613c77600193613c6f613c56565b506003610fc8565b611012565b016110a3565b90565b613c8e90610ffa565b90565b5f7f496e7465726e616c206f6e6c7900000000000000000000000000000000000000910152565b613cc5600d6020926109d5565b613cce81613c91565b0190565b613ce79060208101905f818303910152613cb8565b90565b15613cf157565b613cf96103a2565b62461bcd60e51b815280613d0f60048201613cd2565b0390fd5b67ffffffffffffffff8111613d2b5760208091020190565b6108c3565b90613d42613d3d83613d13565b6116bc565b918252565b369037565b90613d71613d5983613d30565b92602080613d678693613d13565b9201910390613d47565b565b90613d7d82610d97565b811015613d8e576020809102010190565b61077e565b90565b5190565b90613da482613d96565b811015613db5576020809102010190565b61077e565b90613dc490610f01565b9052565b606090565b90565b60209181520190565b905f9291805490613df3613dec836107e4565b8094613dd0565b916001811690815f14613e4a5750600114613e0e575b505050565b613e1b919293945061079f565b915f925b818410613e3257505001905f8080613e09565b60018160209295939554848601520191019290613e1f565b92949550505060ff19168252151560200201905f8080613e09565b90613e6f91613dd9565b90565b90613e92613e8b92613e826103a2565b93848092613e65565b03836108d7565b565b613e9d90613e72565b90565b613eaa9051610f01565b90565b613eb79051610554565b90565b5f7f56616c7565206f7574206f6620626f756e647300000000000000000000000000910152565b613eee60136020926109d5565b613ef781613eba565b0190565b613f13613f219260408301908382035f8501526109e9565b906020818303910152613ee1565b90565b92916020613f40613f489360408701908782035f8901526109e9565b940190610557565b565b905f9291805490613f64613f5d836107e4565b80946109d5565b916001811690815f14613fbb5750600114613f7f575b505050565b613f8c9192939450610817565b915f925b818410613fa357505001905f8080613f7a565b60018160209295939554848601520191019290613f90565b92949550505060ff19168252151560200201905f8080613f7a565b5f7f5265717569726564206d6574726963206d697373696e67000000000000000000910152565b61400a60176020926109d5565b61401381613fd6565b0190565b61402f61403d9260408301908382035f850152613f4a565b906020818303910152613ffd565b90565b929390936140683361406261405c61405730613c85565b6103ef565b916103ef565b14613cea565b61407c61407760088690610768565b612e93565b9461408682613d4c565b946140905f612cc2565b5b806140a461409e86610554565b91610554565b10156140f7576140f2906140ed6140c85f6140c08a8590613d73565b510151613d93565b6140da6140d482613668565b91613662565b206140e88a91849092613d9a565b613dba565b612cde565b614091565b50919490929561410681612e9f565b6141186141125f612cc2565b91610554565b1196614122613dc8565b90886145a2575b6141325f612cc2565b5b806141466141408b610554565b91610554565b10156144055760015f8b614239575b509088878961416b94614170575b505050612cde565b614133565b825f6141ae6141a66141b7946141a161419960206141926141bc9b8d90613d73565b5101613ead565b976009611d07565b611d1d565b928790613d73565b51015190611dae565b613018565b888789906141e660206141df5f6141d4878990613d73565b510151958790613d73565b5101613ead565b6142196142137f23ed02bd3605bdea6a8afa76c46f00d274860ba6cea980f2585b696df9e182bd9361074c565b93611006565b9361422e6142256103a2565b92839283613f24565b0390a3888789614163565b9a90959291996142485f612cc2565b5b8061426461425e6142598a612e9f565b610554565b91610554565b10156143ef5761427c6142778d87613d9a565b613ea0565b6142a061429a6142956142908a8690613d9a565b613ea0565b610f01565b91610f01565b146142b3576142ae90612cde565b614249565b8a919b929c508961416b9495988a926001908a6142dd60206142d6898b90613d73565b5101613ead565b6143056142ff6142fa60016142f3868890612ea3565b500161093e565b610554565b91610554565b1091888884156143a5575b5050505061433a575b614324905b156104c2565b614333575b9394505050614155565b505f614329565b905082825f61434a878990613d73565b5101519161439661438461437e7fe08f42896ce3aec2ff7da95a00372f33cf677e75ad602590832a8dffcdad63159361074c565b93611006565b9361438d6103a2565b91829182613efb565b0390a36143245f919050614319565b6143e59394506143d36143df936143cd60206143c66143da96600296613d73565b5101613ead565b96612ea3565b500161093e565b610554565b91610554565b118a5f8888614310565b5099909a878961416b9495986143248d9461431e565b5097505092935093506144175f612cc2565b935b8461443461442e61442986612e9f565b610554565b91610554565b101561459b5761445a614454600361444d868990612ea3565b5001610965565b156104c2565b6145905761447c6144775f614470868990612ea3565b5001613dcd565b613e94565b61448e61448882613668565b91613662565b20905f9661449b5f612cc2565b5b806144b76144b16144ac86613d96565b610554565b91610554565b101561457e576144d06144cb848390613d9a565b613ea0565b6144e26144dc86610f01565b91610f01565b146144f5576144f090612cde565b61449c565b5095909650614516915061450b60015b156104c2565b61451d575b5b612cde565b9394614419565b82855f61452b878590612ea3565b50019161457661456461455e7fe08f42896ce3aec2ff7da95a00372f33cf677e75ad602590832a8dffcdad63159361074c565b93611006565b9361456d6103a2565b91829182614017565b0390a3614510565b50959096614516925061450b90614505565b949361451690614511565b5050505050565b969390506145bc6145b7839794999693612e9f565b613d4c565b976145c65f612cc2565b5b806145e26145dc6145d78b612e9f565b610554565b91610554565b101561463c576146379061463261460d6146085f6146018d8690612ea3565b5001613dcd565b613e94565b61461f61461982613668565b91613662565b2061462d8d91849092613d9a565b613dba565b612cde565b6145c7565b509295919497909396614129565b614652616496565b61465a61465c565b565b61466d6146685f6125e9565b616bae565b565b61467761464a565b565b61468360a06116bc565b90565b5f90565b5f90565b5f90565b61469a614679565b90602080808080866146aa614686565b8152016146b5612750565b8152016146c0612754565b8152016146cb61468a565b8152016146d661468e565b81525050565b6146e4614692565b90565b906146f190610554565b9052565b906146ff906103b4565b9052565b9061470d906104af565b9052565b9061471b90611159565b9052565b9061479e6147956002614730614679565b9461474761473f5f830161093e565b5f88016146e7565b61475f61475660018301611049565b602088016146f5565b61477761476e60018301611076565b60408801614703565b61478f614786600183016110a3565b60608801614711565b016110c7565b60808401613dba565b565b6147a99061471f565b90565b6147d1916147c76147cc926147bf6146dc565b506003610fc8565b611012565b6147a0565b90565b5f90565b906147e29061074c565b5f5260205260405f2090565b906147f890611006565b5f5260205260405f2090565b6148299161481f614824926148176147d4565b50600c6147d8565b6147ee565b611049565b90565b614834616bc4565b61483c615e04565b61484e614848836103ef565b916103ef565b0361485e5761485c90616bae565b565b614879905f91829163118cdaa760e01b835260048301610cc9565b0390fd5b61489c6148976148a19261488f6127ae565b506004613334565b61334a565b616ac7565b90565b6148ae90516104af565b90565b6148c56148c06148ca926125ca565b610749565b6104af565b90565b6148d790516103b4565b90565b6148ee6148e96148f3926104af565b610749565b610554565b90565b61490561490b91939293610554565b92610554565b820180921161491657565b6128e4565b909291926149276139f3565b506149306127ae565b5061493a8261637e565b9361495761495261494d60058690613334565b61334a565b616ac7565b92614964602087016148a4565b6149766149705f6148b1565b916104af565b148015614a68575b8015614a4d575b614a33576149bf866149b96149b460206149ad6149a85f614a1c9b9c9d016148cd565b61357b565b93016148a4565b6148da565b906128f8565b91806149da6149d46149cf61132d565b610554565b91610554565b115f14614a2e57506149ea61132d565b5b6149f68482906148f6565b614a08614a0288610554565b91610554565b115f14614a1f5750845b9092909192616bfa565b91565b614a2990846148f6565b614a12565b6149eb565b5050509150614a49614a445f612cc2565b613a31565b9190565b5082614a61614a5b86610554565b91610554565b1015614985565b5083614a7c614a765f612cc2565b91610554565b1461497e565b614a9390614a8e616496565b614a95565b565b614aa090600a61269a565b565b614aab90614a82565b565b5f90565b614ab9614aad565b50614ac35f6125bd565b90565b5090565b9190811015614ada576020020190565b61077e565b35614ae9816103fb565b90565b5f80fd5b60e01b90565b5f910312614b0057565b6103ac565b916020614b26929493614b1f60408201965f830190610c21565b0190610cbc565b565b614b306103a2565b3d5f823e3d90fd5b90929192614b455f612cc2565b5b80614b63614b5d614b58858990614ac6565b610554565b91610554565b1015614c1257614b7230613c85565b9063ba1fb10384614b8d614b88868a8691614aca565b614adf565b93803b15614c0d57614bb25f8094614bbd614ba66103a2565b98899687958694614af0565b845260048401614b05565b03925af1918215614c0857614bd792614bdc575b50612cde565b614b46565b614bfb905f3d8111614c01575b614bf381836108d7565b810190614af6565b5f614bd1565b503d614be9565b614b28565b614aec565b5050509050565b5f7f4e6f7420736c617368696e67206f7261636c6500000000000000000000000000910152565b614c4d60136020926109d5565b614c5681614c19565b0190565b614c6f9060208101905f818303910152614c40565b90565b15614c7957565b614c816103a2565b62461bcd60e51b815280614c9760048201614c5a565b0390fd5b5f7f4f70657261746f7220756e6b6e6f776e00000000000000000000000000000000910152565b614ccf60106020926109d5565b614cd881614c9b565b0190565b614cf19060208101905f818303910152614cc2565b90565b15614cfb57565b614d036103a2565b62461bcd60e51b815280614d1960048201614cdc565b0390fd5b90565b90614d3367ffffffffffffffff91612677565b9181191691161790565b90565b90614d55614d50614d5c9261074c565b614d3d565b8254614d20565b9055565b9190614d7a81614d7381614d7f956109d5565b809561171d565b6108b9565b0190565b9091614d9a9260208301925f818503910152614d60565b90565b614dc233614dbc614db6614db1600a6125bd565b6103ef565b916103ef565b14614c72565b614de8614de3614ddc614dd760058590613334565b61334a565b84906164e4565b614cf4565b614e14614e09614e04614dfd60038590610fc8565b8590611012565b614d1d565b600160039101613381565b614e32614e2b614e2660048490613334565b61334a565b8390616d16565b50614e5a614e3f42613597565b614e55614e4e600c85906147d8565b85906147ee565b614d40565b909192614e90614e8a7f1e2909cf45d70cf003f334b73c93330ce7e572782dfc82fab79deb8855a7c7919361074c565b93611006565b93614ea5614e9c6103a2565b92839283614d83565b0390a3565b614eb460806116bc565b90565b614ec2913691611728565b90565b52565b90614ed2906104c2565b9052565b5190565b90614ee4816109d1565b9067ffffffffffffffff8211614fa457614f0882614f0285546107e4565b85612ecf565b602090601f8311600114614f3c57918091614f2b935f92614f30575b5050612a07565b90555b565b90915001515f80614f24565b601f19831691614f4b85610817565b925f5b818110614f8c57509160029391856001969410614f72575b50505002019055614f2e565b614f82910151601f8416906129f2565b90555f8080614f66565b91936020600181928787015181550195019201614f4e565b6108c3565b90614fb391614eda565b565b614fbf90516104c2565b90565b9061501f6060600361502594614fe55f8201614fdf5f8801614ed6565b90614fa9565b614ffe60018201614ff860208801613ead565b90613018565b6150176002820161501160408801613ead565b90613018565b019201614fb5565b9061306a565b565b91906150385761503691614fc2565b565b612ba3565b908154916801000000000000000083101561506d578261506591600161506b95018155612ea3565b90615027565b565b6108c3565b61519095615179849661517061516861515461514f615182976150f56150d56150cf61518b9d8d9f9d6150ca336150c46150be6150b96150b460078c906113c5565b6125bd565b6103ef565b916103ef565b14612835565b612d7b565b90612d7e565b6150ee6150e86150e3611921565b610554565b91610554565b1115612ddb565b6151128661510b6151058d610554565b91610554565b1015612e6a565b61514861512961512460088490610768565b610792565b61514261513c61513761156d565b610554565b91610554565b106128bb565b6008610768565b612e93565b989996929496615162614eaa565b9a614eb7565b5f8a01614ec5565b602088016146e7565b604086016146e7565b60608401614ec8565b61503d565b565b6151c0906151bb6151b66151af6151aa846006613334565b61334a565b33906164e4565b61351b565b6152a1565b565b5f7f43616e6e6f7420676f206f6e6c696e65207768696c6520736c61736865640000910152565b6151f6601e6020926109d5565b6151ff816151c2565b0190565b6152189060208101905f8183039101526151e9565b90565b60401b90565b9061523568ff00000000000000009161521b565b9181191691161790565b61525361524e615258926104af565b610749565b6104af565b90565b90565b9061527361526e61527a9261523f565b61525b565b8254615221565b9055565b91602061529f92949361529860408201965f830190611171565b0190611171565b565b6152bf6152ba6152b360038490610fc8565b3390611012565b614d1d565b906152cc600183016110a3565b91826152e16152db6003611159565b91611159565b1461540557826152f96152f35f611159565b91611159565b1480156153ea575b6153e557615328906153166001808301613381565b60016153215f6148b1565b910161525e565b61534661533f61533a60048490613334565b61334a565b339061645c565b50803361537c6153767fc9862c5f02eefbdcea01c207ae538e1d304dc93026870f48951e48a0f4c8470c9361074c565b91611006565b916153856103a2565b8061538f8161044b565b0390a39033909160016153cb6153c57f228824b86c256469125f525ce18c6c2d0a9e133d13b8ec7a2c96a193b0c28a099361074c565b93611006565b936153e06153d76103a2565b9283928361527e565b0390a3565b505050565b50826153ff6153f96001611159565b91611159565b14615301565b61540d6103a2565b62461bcd60e51b81528061542360048201615203565b0390fd5b61543090615192565b565b5f7f4e6f7420617574686f72697a6564000000000000000000000000000000000000910152565b615466600e6020926109d5565b61546f81615432565b0190565b6154889060208101905f818303910152615459565b90565b1561549257565b61549a6103a2565b62461bcd60e51b8152806154b060048201615473565b0390fd5b90565b6154cb6154c66154d0926154b4565b610749565b6103b4565b90565b5f7f496e74657276616c20746f6f2073686f72740000000000000000000000000000910152565b61550760126020926109d5565b615510816154d3565b0190565b6155299060208101905f8183039101526154fa565b90565b1561553357565b61553b6103a2565b62461bcd60e51b81528061555160048201615514565b0390fd5b90565b61556c61556761557192615555565b610749565b6104af565b90565b5f7f4d6178206d6973736564206d757374206265203e3d2031000000000000000000910152565b6155a860176020926109d5565b6155b181615574565b0190565b6155ca9060208101905f81830391015261559b565b90565b156155d457565b6155dc6103a2565b62461bcd60e51b8152806155f2600482016155b5565b0390fd5b61560060606116bc565b90565b9061561861561361561f9261305b565b613067565b8254613353565b9055565b9061566560405f61566b9461564582820161563f8488016148cd565b90614d40565b61565d828201615657602088016148a4565b9061525e565b019201614fb5565b90615603565b565b9061567791615623565b565b91602061569a92949361569360408201965f830190610c21565b0190611129565b565b336156cf6156c97f00000000000000000000000000000000000000000000000000000000000000006103ef565b916103ef565b1480156157bb575b6156e09061548b565b6156fe826156f76156f1603c6154b7565b916103b4565b101561552c565b61571c8361571561570f6001615558565b916104af565b10156155cd565b615775826157648561575b61573d5f61573760028990612287565b016122b1565b916157526157496155f6565b955f87016146f5565b60208501614703565b60408301614ec8565b61577060028490612287565b61566d565b90916157a17fc9599ed962624a858ec59bae0ed86c75f4db65fe04570021277edbedd04ea5649261074c565b926157b66157ad6103a2565b92839283615679565b0390a2565b506156e0336157e56157df6157da6157d5600787906113c5565b6125bd565b6103ef565b916103ef565b1490506156d7565b634e487b7160e01b5f52601260045260245ffd5b61580d61581391610554565b91610554565b90811561581e570490565b6157ed565b61583761583261583c92610554565b610749565b6104af565b90565b61585361584e615858926125ca565b610749565b6103b4565b90565b61587961587461586d60038490610fc8565b8490611012565b614d1d565b906158838161637e565b61588f600184016110a3565b6158a261589c6003611159565b91611159565b14615ab6576158b25f840161093e565b6158c46158be5f612cc2565b91610554565b14615ab0576158fa6158e1426158db5f870161093e565b906135d6565b6158f46158ef5f85016148cd565b61357b565b90615801565b8061590e61590860ff6148da565b91610554565b115f14615aa2575060ff5b908161593861593261592d60018801611076565b6104af565b916104af565b11615945575b5050505050565b615952826001860161525e565b61596761595e5f61583f565b60018601614d40565b61598561597f61597a60208594016148a4565b6104af565b916104af565b101580615a7b575b615998575b8061593e565b6159b36159a7600185016110a3565b93600160029101613381565b6159d16159ca6159c560048590613334565b61334a565b8590616d16565b508190849091615a1f615a0d615a077f44fd32b677704ce68e7763897c49733b8f5289018ac60a5c926802d63759db4d9361074c565b93611006565b93615a166103a2565b91829182611627565b0390a39190916002615a5a615a547f228824b86c256469125f525ce18c6c2d0a9e133d13b8ec7a2c96a193b0c28a099361074c565b93611006565b93615a6f615a666103a2565b9283928361527e565b0390a35f808080615992565b50615a88600184016110a3565b615a9b615a956002611159565b91611159565b141561598d565b615aab90615823565b615919565b50505050565b50505050565b606090565b67ffffffffffffffff8111615ad95760208091020190565b6108c3565b90615af0615aeb83615ac1565b6116bc565b918252565b615aff60806116bc565b90565b90615b69615b606003615b13615af5565b94615b2a615b225f8301610900565b5f8801614ec5565b615b42615b396001830161093e565b602088016146e7565b615b5a615b516002830161093e565b604088016146e7565b01610965565b60608401614ec8565b565b615b7490615b02565b90565b90615b8182610792565b615b8a81615ade565b92615b986020850191610796565b5f915b838310615ba85750505050565b60046020600192615bb885615b6b565b815201920192019190615b9b565b615bcf90615b77565b90565b615be9615bee91615be1615abc565b506008610768565b615bc6565b90565b615c1f90615c1a615c15615c0e615c09846006613334565b61334a565b33906164e4565b61351b565b615c7a565b565b5f7f43616e6e6f7420676f206f66666c696e65207768696c6520736c617368656400910152565b615c55601f6020926109d5565b615c5e81615c21565b0190565b615c779060208101905f818303910152615c48565b90565b615c98615c93615c8c60038490610fc8565b3390611012565b614d1d565b90615ca5600183016110a3565b9182615cba615cb46003611159565b91611159565b14615d4057615cce90600160049101613381565b615cec615ce5615ce060048490613334565b61334a565b3390616d16565b50903390916004615d26615d207f228824b86c256469125f525ce18c6c2d0a9e133d13b8ec7a2c96a193b0c28a099361074c565b93611006565b93615d3b615d326103a2565b9283928361527e565b0390a3565b615d486103a2565b62461bcd60e51b815280615d5e60048201615c62565b0390fd5b615d6b90615bf1565b565b909182615d7d81615d8493611d33565b809361171d565b0190565b615d999060209493615da093615d6d565b8092611d64565b0190565b9091615dbb90615db26103a2565b93849384615d88565b03902090565b9091615dcc92615da4565b90565b92615df4615dfc9392615def615e0196615de76127ae565b506009611d07565b611d1d565b919091615dc1565b61093e565b90565b615e0c614aad565b50615e1760016125bd565b90565b615e249051611159565b90565b90565b615e3e615e39615e4392615e27565b610749565b610554565b90565b60207f6c00000000000000000000000000000000000000000000000000000000000000917f4f70657261746f72206e6f7420656c696769626c6520666f722072656d6f76615f8201520152565b615ea060216040926109d5565b615ea981615e46565b0190565b615ec29060208101905f818303910152615e93565b90565b15615ecc57565b615ed46103a2565b62461bcd60e51b815280615eea60048201615ead565b0390fd5b90615f9f615f9a615fa49333615f1f615f19615f14615f0f600786906113c5565b6125bd565b6103ef565b916103ef565b14801561605d575b615f309061548b565b615f4e615f49615f4260038490610fc8565b8690611012565b6147a0565b615f5a60608201615e1a565b615f6d615f676003611159565b91611159565b03615fa7575b50615f92615f8b615f8660058490613334565b61334a565b8590616d16565b506004613334565b61334a565b616d16565b50565b61602390615ff7615fe7615fba8561637e565b615fe1615fdc6020615fd5615fd05f86016148cd565b61357b565b93016148a4565b6148da565b906128f8565b615ff1600a615e2a565b906128f8565b6160025f8301613ead565b61601461600e5f612cc2565b91610554565b119182616029575b5050615ec5565b5f615f73565b61605491925061604861604e916160425f429201613ead565b906135d6565b92610554565b91610554565b10155f8061601c565b50615f303361607b616075616070614ab1565b6103ef565b916103ef565b149050615f27565b906160ad6160b291616093613b22565b506160a86160a08561637e565b946003610fc8565b611012565b6147a0565b6160bd5f8201613ead565b6160cf6160c95f612cc2565b91610554565b1461610a576161006160fb5f6160f4616106946160ee83429201613ead565b906135d6565b94016148cd565b61357b565b91610554565b1090565b50505f90565b6161219061611c616496565b616123565b565b61612e81600161269a565b616136614ab1565b9061616a6161647f38d16b8cac22d99fc7c124b9cd0de2d3fa1faef420bfe791d8c362d765e2270093611006565b91611006565b916161736103a2565b8061617d8161044b565b0390a3565b61618b90616110565b565b5f6161cc6161d2936161c4336161be6161b86161b36161ae60078a906113c5565b6125bd565b6103ef565b916103ef565b14612835565b926002612287565b01615603565b565b5f7f4e6f742072656769737465726564000000000000000000000000000000000000910152565b616208600e6020926109d5565b616211816161d4565b0190565b61622a9060208101905f8183039101526161fb565b90565b1561623457565b61623c6103a2565b62461bcd60e51b81528061625260048201616215565b0390fd5b6162923361628c6162867f00000000000000000000000000000000000000000000000000000000000000006103ef565b916103ef565b14612580565b6162b86162b36162ac6162a760068590613334565b61334a565b8490616d16565b61622d565b6162d66162cf6162ca60048490613334565b61334a565b8390616d16565b509061630b6163057f08bb93e5444209b15155078a13f6e341299d748d0c299f722c9cbc0723f0fe9e9361074c565b91611006565b916163146103a2565b8061631e8161044b565b0390a3565b906163706163675f616333612743565b9461634a616342838301611049565b8388016146f5565b616361616358838301611076565b60208801614703565b016122b1565b60408401614ec8565b565b61637b90616323565b90565b61639561639a9161638d61278e565b506002612287565b616372565b6163a55f82016148cd565b6163b76163b15f61583f565b916103b4565b146163fd575b6163c9602082016148a4565b6163db6163d55f6148b1565b916104af565b146163e4575b90565b6163f86163ef61160f565b60208301614703565b6163e1565b616410616408610c08565b5f83016146f5565b6163bd565b61641e90610fde565b90565b61643561643061643a926103e4565b610749565b610554565b90565b61645161644c61645692610554565b612677565b610f01565b90565b90565b9061648e61648861648361647e5f61649396616476613b22565b500194616415565b616421565b61643d565b91616459565b616df9565b90565b61649e614ab1565b6164b76164b16164ac616bc4565b6103ef565b916103ef565b036164be57565b6164e06164c9616bc4565b5f91829163118cdaa760e01b835260048301610cc9565b0390fd5b9061651661651061650b6165065f61651b966164fe613b22565b500194616415565b616421565b61643d565b91616459565b616e5c565b90565b61653d916165349161652e614aad565b50616ebc565b90929192616f7c565b90565b5f7f4f70657261746f7220697320736c617368656400000000000000000000000000910152565b61657460136020926109d5565b61657d81616540565b0190565b6165969060208101905f818303910152616567565b90565b156165a057565b6165a86103a2565b62461bcd60e51b8152806165be60048201616581565b0390fd5b6165cb90610f01565b90565b6165d790610922565b90565b906165ef6165ea6165f6926165c2565b6165ce565b8254613002565b9055565b616603906103b4565b67ffffffffffffffff81146166185760010190565b6128e4565b90565b61663461662f6166399261661d565b610749565b6104af565b90565b91602061665d92949361665660408201965f830190611129565b0190610557565b565b61666890610fde565b90565b6166749061665f565b90565b61668090610ffa565b90565b6040906166ac6166b394969593966166a260608401985f850190610cbc565b6020830190610c21565b0190610c21565b565b94929391936166d86166d36166cc60038990610fc8565b8790611012565b614d1d565b936166e28761637e565b9361670c6166f2600188016110a3565b6167056166ff6003611159565b91611159565b1415616599565b61672a61672361671e60058b90613334565b61334a565b889061645c565b506167ff604061673c600189016110a3565b96616749425f8b01613018565b616773616757858790613654565b61676961676382613668565b91613662565b2060028b016165da565b61678861677f5f6148b1565b60018b0161525e565b6167a660018a016167a061679b82611049565b6165fa565b90614d40565b6167ae613c56565b50856167c26167bc5f6148b1565b916104af565b145f14616a83576167d95f995b60018b9101613381565b876167ed6167e76002611159565b91611159565b1480616a67575b6169f9575b01614fb5565b806169d5575b6169bf575b505085918591924261684e6168486168427f658918e3147f13dd068ec21437b4c25c21682a8dc2129348671ead000db3e7b99461074c565b9461074c565b94611006565b9461686361685a6103a2565b9283928361663c565b0390a48061687961687384611159565b91611159565b03616969575b505061688b600b6125bd565b6168a561689f61689a5f6125e9565b6103ef565b916103ef565b036168af575b5050565b6168c96168c46168bf600b6125bd565b61666b565b616677565b9163d47853b69190926168db42613597565b92813b15616964575f6169019161690c82966168f56103a2565b98899788968795614af0565b855260048501616683565b03925af19081616938575b50155f1461693357600161692e575b5b5f806168ab565b616926565b616927565b616957905f3d811161695d575b61694f81836108d7565b810190614af6565b5f616917565b503d616945565b614aec565b838391926169a061699a7f228824b86c256469125f525ce18c6c2d0a9e133d13b8ec7a2c96a193b0c28a099361074c565b93611006565b936169b56169ac6103a2565b9283928361527e565b0390a35f8061687f565b6169ce91889188909192617439565b5f8061680a565b506169e1818390612d7e565b6169f36169ed5f612cc2565b91610554565b11616805565b616a16616a0f616a0a8d6004613334565b61334a565b8b9061645c565b508a8a616a4c616a467fc9862c5f02eefbdcea01c207ae538e1d304dc93026870f48951e48a0f4c8470c9361074c565b91611006565b91616a556103a2565b80616a5f8161044b565b0390a36167f9565b5088616a7c616a766002611159565b91611159565b14156167f4565b85616a97616a916064616620565b916104af565b105f14616aaa576167d96001995b6167cf565b6167d9600199616ac28d8d8b908b908a928c946170ed565b616aa5565b616ade5f616ae392616ad76127ae565b5001616459565b6175f7565b90565b616af2616af791610922565b61297e565b90565b616b0e616b09616b1392610554565b610749565b6103e4565b90565b616b41616b3c616b4b93616b375f616b4695616b30614aad565b5001616459565b617665565b616ae6565b616afa565b610ffa565b90565b91906008616b6e910291616b6860018060a01b0384612955565b92612955565b9181191691161790565b9190616b8e616b89616b9693611006565b612697565b908354616b4e565b9055565b616bac91616ba6614aad565b91616b78565b565b616bc290616bbd5f6001616b9a565b617686565b565b616bcc614aad565b503390565b616bda90610554565b5f198114616be85760010190565b6128e4565b616bf790516103ef565b90565b93919293616c066139f3565b50616c1a616c158584906135d6565b613a31565b92616c245f612cc2565b925b80616c39616c3388610554565b91610554565b1015616ca757616c5d616c56616c5160058690613334565b61334a565b8290616b16565b616c6984828a916176e5565b616c7d575b50616c7890612cde565b616c26565b616c789194616c9b616ca092616c968991849092613a58565b613a78565b616bd1565b9390616c6e565b509450509150616cb682613a31565b92616cc05f612cc2565b5b80616cd4616cce86610554565b91610554565b1015616d1057616d0b90616d06616cf4616cef868490613a58565b616bed565b616d018891849092613a58565b613a78565b612cde565b616cc1565b50915050565b90616d48616d42616d3d616d385f616d4d96616d30613b22565b500194616415565b616421565b61643d565b91616459565b617831565b90565b90565b5f5260205f2090565b5490565b616d6981616d5c565b821015616d8357616d7b600191616d53565b910201905f90565b61077e565b9190616d9e616d99616da6936165c2565b6165ce565b908354612959565b9055565b9081549168010000000000000000831015616dda5782616dd2916001616dd895018155616d60565b90616d88565b565b6108c3565b5490565b90616ded906165c2565b5f5260205260405f2090565b616e01613b22565b50616e16616e10828490616e5c565b156104c2565b5f14616e5657616e4c616e5192616e38616e315f8501616d50565b8290616daa565b6001616e455f8501616ddf565b9301616de3565b613018565b600190565b50505f90565b616e7a916001616e7592616e6e613b22565b5001616de3565b61093e565b616e8c616e865f612cc2565b91610554565b141590565b5f90565b5f90565b90565b616eb0616eab616eb592616e99565b610749565b610554565b90565b5f90565b919091616ec7614aad565b50616ed0616e91565b50616ed9616e95565b50616ee383613668565b616ef6616ef06041616e9c565b91610554565b145f14616f3d57616f369192616f0a616e95565b50616f13616e95565b50616f1c616eb8565b506020810151606060408301519201515f1a9091926179b0565b9192909190565b50616f475f6125e9565b90616f5b616f56600294613668565b61643d565b91929190565b60041115616f6b57565b611136565b90616f7a82616f61565b565b80616f8f616f895f616f70565b91616f70565b145f14616f9a575050565b80616fae616fa86001616f70565b91616f70565b145f14616fd1575f63f645eedf60e01b815280616fcd6004820161044b565b0390fd5b80616fe5616fdf6002616f70565b91616f70565b145f146170135761700f616ff883616ae6565b5f91829163fce698f760e01b835260048301610564565b0390fd5b6170266170206003616f70565b91616f70565b1461702e5750565b617049905f9182916335e2f38360e21b835260048301610f11565b0390fd5b61706161705c6170669261130e565b610749565b6104af565b90565b61707561707b916103b4565b916103b4565b90039067ffffffffffffffff821161708f57565b6128e4565b5f7f50726f746f636f6c2076696f6c6174696f6e207265706f727465640000000000910152565b6170c8601b6020926109d5565b6170d181617094565b0190565b6170ea9060208101905f8183039101526170bb565b90565b93505092506171056170ff60c861704d565b916104af565b1015617110575b5050565b61711942613597565b61713761713261712b600c85906147d8565b85906147ee565b611049565b8061714a6171445f61583f565b916103b4565b149081156171d0575b5061715f575b5061710c565b61717e90617179617172600c85906147d8565b85906147ee565b614d40565b906171b26171ac7f1e2909cf45d70cf003f334b73c93330ce7e572782dfc82fab79deb8855a7c7919361074c565b91611006565b916171bb6103a2565b806171c5816170d5565b0390a35f8080617159565b6171db915082617069565b6171f46171ee6171e9610f7a565b6103b4565b916103b4565b10155f617153565b90565b61721361720e617218926171fc565b610749565b610554565b90565b9092919261723061722b826116fa565b6116bc565b9381855260208501908284011161724c5761724a926109de565b565b6116f6565b9080601f8301121561726f5781602061726c9351910161721b565b90565b6105af565b90505190617281826106f9565b565b9190916040818403126172d65761729a60406116bc565b925f8201519167ffffffffffffffff83116172d1576172be826172ca948301617251565b5f860152602001617274565b6020830152565b6116f2565b6116ee565b9291906172ef6172ea826116d1565b6116bc565b93818552602080860192028101918383116173465781905b838210617315575050505050565b815167ffffffffffffffff8111617341576020916173368784938701617283565b815201910190617307565b6105af565b6105b7565b9080601f8301121561736957816020617366935191016172db565b90565b6105af565b9060208282031261739e575f82015167ffffffffffffffff811161739957617396920161734b565b90565b6103b0565b6103ac565b60209181520190565b91906173c6816173bf816173cb956173a3565b809561171d565b6108b9565b0190565b90916173e69260208301925f8185039101526173ac565b90565b6173f36032611551565b90565b9493916060916174379461742261742f9361741860808b01945f8c0190610c21565b60208a0190610cbc565b8782036040890152610e28565b940190610557565b565b91617445818590612d7e565b6174576174515f612cc2565b91610554565b146175f157617467818590612d7e565b61747b61747561c3506171ff565b91610554565b116175eb575f617489613978565b9461749330613c85565b6174b56331e3bd1b9492946174c06174a96103a2565b96879586948594614af0565b8452600484016173cf565b03915afa80915f926175c7575b50155f146175be575060016175b9575b6174e683610d97565b6174ff6174f96174f46173e9565b610554565b91610554565b115f146175ab5761750e6173e9565b5b61751830613c85565b906365a6936e93929490823b156175a6575f9461755386926175489461753c6103a2565b998a9889978896614af0565b8652600486016173f6565b03925af1908161757a575b50155f14617575576001617570575b5b565b61756d565b61756e565b617599905f3d811161759f575b61759181836108d7565b810190614af6565b5f61755e565b503d617587565b614aec565b6175b483610d97565b61750f565b505050565b909250916174dd565b6175e49192503d805f833e6175dc81836108d7565b81019061736e565b905f6174cd565b50505050565b50505050565b5f61760b916176046127ae565b5001616ddf565b90565b5f5260205f2090565b61762081616ddf565b82101561763a5761763260019161760e565b910201905f90565b61077e565b61764f9060086176549302610c78565b6110b0565b90565b90617662915461763f565b90565b617683915f61767d92617676616e95565b5001617617565b90617657565b90565b61768f5f6125bd565b617699825f61269a565b906176cd6176c77f8be0079c531659141344cd1fd0a4f28419497f9722a3daafe3b4186f6b6457e093611006565b91611006565b916176d66103a2565b806176e08161044b565b0390a3565b6176ed613b22565b5061771561770f61770861770360068590613334565b61334a565b84906164e4565b156104c2565b6177b7576177359161772b617730926003610fc8565b611012565b6147a0565b6177405f8201613ead565b61775261774c5f612cc2565b91610554565b148015617791575b61778b5761778061777a617786926177745f429201613ead565b906135d6565b92610554565b91610554565b101590565b50505f90565b5061779e60608201615e1a565b6177b16177ab6003611159565b91611159565b1461775a565b5050505f90565b6177d26177cd6177d792615555565b610749565b610554565b90565b634e487b7160e01b5f52603160045260245ffd5b617800916177fa616e95565b91616d88565b565b61780b81616d5c565b801561782c5760019003906178296178238383616d60565b906177ee565b55565b6177da565b617839613b22565b5061785061784b600183018490616de3565b61093e565b908161786461785e5f612cc2565b91610554565b14155f14617930576178e29260016178dd928461788b5f96617885856177be565b906135d6565b6178a8617899888501616ddf565b6178a2866177be565b906135d6565b816178bb6178b583610554565b91610554565b036178e7575b5050506178d76178d2868301616d50565b617802565b01616de3565b6129bf565b600190565b6179289261791a617906617900617923948c8901617617565b90617657565b9361791485918c8901617617565b90616d88565b91858501616de3565b613018565b5f80806178c1565b5050505f90565b90565b61794e61794961795392617937565b610749565b610554565b90565b61798b61799294617981606094989795617977608086019a5f870190610f04565b6020850190611129565b6040830190610f04565b0190610f04565b565b6179a86179a36179ad926125ca565b612677565b610f01565b90565b9392936179bb614aad565b506179c4616e91565b506179cd616e95565b506179d785616ae6565b617a09617a037f7fffffffffffffffffffffffffffffff5d576e7357a4501ddfe92f46681b20a061793a565b91610554565b11617a965790617a2c602094955f94939293617a236103a2565b94859485617956565b838052039060015afa15617a9157617a445f51612677565b80617a5f617a59617a545f6125e9565b6103ef565b916103ef565b14617a75575f91617a6f5f617994565b91929190565b50617a7f5f6125e9565b600191617a8b5f617994565b91929190565b614b28565b505050617aa25f6125e9565b906003929192919056fea164736f6c634300081a000a","linkReferences":{}},"methodIdentifiers":{"DEFAULT_HEARTBEAT_INTERVAL()":"2c957688","DEFAULT_MAX_MISSED_HEARTBEATS()":"61d6b86c","DOMAIN_SEPARATOR()":"3644e515","HEARTBEAT_MAX_AGE()":"2f4bd7b8","HEARTBEAT_TYPEHASH()":"f9f16762","MAX_METRIC_DEFINITIONS()":"6076439c","MAX_METRIC_NAME_LENGTH()":"6bfe06a6","MAX_PAGE_SIZE()":"48f4da20","SLASH_ALERT_COOLDOWN()":"3ac3cbe6","acceptOwnership()":"79ba5097","addMetricDefinition(uint64,string,uint256,uint256,bool)":"ae470a85","checkOperatorStatus(uint64,address)":"ba1fb103","checkOperatorsStatus(uint64,address[])":"96686c1e","configureHeartbeat(uint64,uint64,uint8)":"b99f6759","decodeMetricPairs(bytes)":"31e3bd1b","deregisterOperator(uint64,address)":"ffcf08f0","enableCustomMetrics(uint64,bool)":"f9107f3b","getAllOperatorCount(uint64)":"3fd62c6d","getHeartbeatConfig(uint64)":"0758236f","getLastCriticalHeartbeat(uint64,address)":"7639d227","getLastHeartbeat(uint64,address)":"0c76697a","getMetricDefinitions(uint64)":"c1ef9ddf","getMetricValue(uint64,address,string)":"d551162c","getOnlineOperatorCount(uint64)":"7b9f64b2","getOnlineOperators(uint64)":"40235a9c","getOperatorState(uint64,address)":"71e7388c","getOperatorStatus(uint64,address)":"62c7e8fc","getSlashableOperators(uint64)":"59dcea12","getSlashableOperatorsPaginated(uint64,uint256,uint256)":"81beac2e","goOffline(uint64)":"c5d960bb","goOnline(uint64)":"b074e9dd","heartbeatConfigs(uint64)":"da435a7c","isHeartbeatCurrent(uint64,address)":"ee1c0390","isOnline(uint64,address)":"5685cf68","isRegisteredOperator(uint64,address)":"60cf0991","metricValues(uint64,address,string)":"9cbdae22","metricsRecorder()":"2dae1885","operatorStates(uint64,address)":"3e6e34a7","owner()":"8da5cb5b","pendingOwner()":"e30c3978","registerOperator(uint64,address)":"1e8f5ee5","registerServiceOwner(uint64,address)":"05778550","removeInactiveOperator(uint64,address)":"e65cafcb","renounceOwnership()":"715018a6","reportForSlashing(uint64,address,string)":"adff830c","serviceMetrics(uint64,uint256)":"22f1ec93","serviceOwners(uint64)":"56c4e17d","setMetricDefinitions(uint64,(string,uint256,uint256,bool)[])":"191cbd1a","setMetricsRecorder(address)":"20812956","setSlashingOracle(address)":"84ef7322","slashingOracle()":"cfe34749","submitHeartbeat(uint64,uint64,uint8,bytes,uint64,bytes)":"2bf4d6a7","submitHeartbeatDirect(uint64,uint64,uint8,bytes)":"5cce98a6","tangleCore()":"5a936dc6","transferOwnership(address)":"f2fde38b","validateAndStoreMetrics(uint64,address,(string,uint256)[],uint256)":"65a6936e"},"id":187}