{"abi":[{"type":"constructor","inputs":[{"name":"_tangleCore","type":"address","internalType":"address"},{"name":"initialOwner","type":"address","internalType":"address"}],"stateMutability":"nonpayable"},{"type":"function","name":"DEFAULT_HEARTBEAT_INTERVAL","inputs":[],"outputs":[{"name":"","type":"uint64","internalType":"uint64"}],"stateMutability":"view"},{"type":"function","name":"DEFAULT_MAX_MISSED_HEARTBEATS","inputs":[],"outputs":[{"name":"","type":"uint8","internalType":"uint8"}],"stateMutability":"view"},{"type":"function","name":"DOMAIN_SEPARATOR","inputs":[],"outputs":[{"name":"","type":"bytes32","internalType":"bytes32"}],"stateMutability":"view"},{"type":"function","name":"HEARTBEAT_MAX_AGE","inputs":[],"outputs":[{"name":"","type":"uint64","internalType":"uint64"}],"stateMutability":"view"},{"type":"function","name":"HEARTBEAT_TYPEHASH","inputs":[],"outputs":[{"name":"","type":"bytes32","internalType":"bytes32"}],"stateMutability":"view"},{"type":"function","name":"MAX_METRIC_DEFINITIONS","inputs":[],"outputs":[{"name":"","type":"uint256","internalType":"uint256"}],"stateMutability":"view"},{"type":"function","name":"MAX_METRIC_NAME_LENGTH","inputs":[],"outputs":[{"name":"","type":"uint256","internalType":"uint256"}],"stateMutability":"view"},{"type":"function","name":"MAX_PAGE_SIZE","inputs":[],"outputs":[{"name":"","type":"uint256","internalType":"uint256"}],"stateMutability":"view"},{"type":"function","name":"SLASH_ALERT_COOLDOWN","inputs":[],"outputs":[{"name":"","type":"uint64","internalType":"uint64"}],"stateMutability":"view"},{"type":"function","name":"acceptOwnership","inputs":[],"outputs":[],"stateMutability":"nonpayable"},{"type":"function","name":"addMetricDefinition","inputs":[{"name":"serviceId","type":"uint64","internalType":"uint64"},{"name":"name","type":"string","internalType":"string"},{"name":"minValue","type":"uint256","internalType":"uint256"},{"name":"maxValue","type":"uint256","internalType":"uint256"},{"name":"required","type":"bool","internalType":"bool"}],"outputs":[],"stateMutability":"nonpayable"},{"type":"function","name":"checkOperatorStatus","inputs":[{"name":"serviceId","type":"uint64","internalType":"uint64"},{"name":"operator","type":"address","internalType":"address"}],"outputs":[],"stateMutability":"nonpayable"},{"type":"function","name":"checkOperatorsStatus","inputs":[{"name":"serviceId","type":"uint64","internalType":"uint64"},{"name":"operators","type":"address[]","internalType":"address[]"}],"outputs":[],"stateMutability":"nonpayable"},{"type":"function","name":"configureHeartbeat","inputs":[{"name":"serviceId","type":"uint64","internalType":"uint64"},{"name":"interval","type":"uint64","internalType":"uint64"},{"name":"maxMissed","type":"uint8","internalType":"uint8"}],"outputs":[],"stateMutability":"nonpayable"},{"type":"function","name":"decodeMetricPairs","inputs":[{"name":"payload","type":"bytes","internalType":"bytes"}],"outputs":[{"name":"pairs","type":"tuple[]","internalType":"struct IOperatorStatusRegistry.MetricPair[]","components":[{"name":"name","type":"string","internalType":"string"},{"name":"value","type":"uint256","internalType":"uint256"}]}],"stateMutability":"pure"},{"type":"function","name":"deregisterOperator","inputs":[{"name":"serviceId","type":"uint64","internalType":"uint64"},{"name":"operator","type":"address","internalType":"address"}],"outputs":[],"stateMutability":"nonpayable"},{"type":"function","name":"enableCustomMetrics","inputs":[{"name":"serviceId","type":"uint64","internalType":"uint64"},{"name":"enabled","type":"bool","internalType":"bool"}],"outputs":[],"stateMutability":"nonpayable"},{"type":"function","name":"getAllOperatorCount","inputs":[{"name":"serviceId","type":"uint64","internalType":"uint64"}],"outputs":[{"name":"","type":"uint256","internalType":"uint256"}],"stateMutability":"view"},{"type":"function","name":"getHeartbeatConfig","inputs":[{"name":"serviceId","type":"uint64","internalType":"uint64"}],"outputs":[{"name":"","type":"tuple","internalType":"struct IOperatorStatusRegistry.HeartbeatConfig","components":[{"name":"interval","type":"uint64","internalType":"uint64"},{"name":"maxMissed","type":"uint8","internalType":"uint8"},{"name":"customMetrics","type":"bool","internalType":"bool"}]}],"stateMutability":"view"},{"type":"function","name":"getLastCriticalHeartbeat","inputs":[{"name":"serviceId","type":"uint64","internalType":"uint64"},{"name":"operator","type":"address","internalType":"address"}],"outputs":[{"name":"","type":"uint64","internalType":"uint64"}],"stateMutability":"view"},{"type":"function","name":"getLastHeartbeat","inputs":[{"name":"serviceId","type":"uint64","internalType":"uint64"},{"name":"operator","type":"address","internalType":"address"}],"outputs":[{"name":"","type":"uint256","internalType":"uint256"}],"stateMutability":"view"},{"type":"function","name":"getMetricDefinitions","inputs":[{"name":"serviceId","type":"uint64","internalType":"uint64"}],"outputs":[{"name":"","type":"tuple[]","internalType":"struct IOperatorStatusRegistry.MetricDefinition[]","components":[{"name":"name","type":"string","internalType":"string"},{"name":"minValue","type":"uint256","internalType":"uint256"},{"name":"maxValue","type":"uint256","internalType":"uint256"},{"name":"required","type":"bool","internalType":"bool"}]}],"stateMutability":"view"},{"type":"function","name":"getMetricValue","inputs":[{"name":"serviceId","type":"uint64","internalType":"uint64"},{"name":"operator","type":"address","internalType":"address"},{"name":"metricName","type":"string","internalType":"string"}],"outputs":[{"name":"","type":"uint256","internalType":"uint256"}],"stateMutability":"view"},{"type":"function","name":"getOnlineOperatorCount","inputs":[{"name":"serviceId","type":"uint64","internalType":"uint64"}],"outputs":[{"name":"","type":"uint256","internalType":"uint256"}],"stateMutability":"view"},{"type":"function","name":"getOnlineOperators","inputs":[{"name":"serviceId","type":"uint64","internalType":"uint64"}],"outputs":[{"name":"","type":"address[]","internalType":"address[]"}],"stateMutability":"view"},{"type":"function","name":"getOperatorState","inputs":[{"name":"serviceId","type":"uint64","internalType":"uint64"},{"name":"operator","type":"address","internalType":"address"}],"outputs":[{"name":"","type":"tuple","internalType":"struct IOperatorStatusRegistry.OperatorState","components":[{"name":"lastHeartbeat","type":"uint256","internalType":"uint256"},{"name":"consecutiveBeats","type":"uint64","internalType":"uint64"},{"name":"missedBeats","type":"uint8","internalType":"uint8"},{"name":"status","type":"uint8","internalType":"enum IOperatorStatusRegistry.StatusCode"},{"name":"lastMetricsHash","type":"bytes32","internalType":"bytes32"}]}],"stateMutability":"view"},{"type":"function","name":"getOperatorStatus","inputs":[{"name":"serviceId","type":"uint64","internalType":"uint64"},{"name":"operator","type":"address","internalType":"address"}],"outputs":[{"name":"","type":"uint8","internalType":"enum IOperatorStatusRegistry.StatusCode"}],"stateMutability":"view"},{"type":"function","name":"getSlashableOperators","inputs":[{"name":"serviceId","type":"uint64","internalType":"uint64"}],"outputs":[{"name":"operators","type":"address[]","internalType":"address[]"}],"stateMutability":"view"},{"type":"function","name":"getSlashableOperatorsPaginated","inputs":[{"name":"serviceId","type":"uint64","internalType":"uint64"},{"name":"offset","type":"uint256","internalType":"uint256"},{"name":"limit","type":"uint256","internalType":"uint256"}],"outputs":[{"name":"operators","type":"address[]","internalType":"address[]"},{"name":"total","type":"uint256","internalType":"uint256"}],"stateMutability":"view"},{"type":"function","name":"goOffline","inputs":[{"name":"serviceId","type":"uint64","internalType":"uint64"}],"outputs":[],"stateMutability":"nonpayable"},{"type":"function","name":"goOnline","inputs":[{"name":"serviceId","type":"uint64","internalType":"uint64"}],"outputs":[],"stateMutability":"nonpayable"},{"type":"function","name":"heartbeatConfigs","inputs":[{"name":"","type":"uint64","internalType":"uint64"}],"outputs":[{"name":"interval","type":"uint64","internalType":"uint64"},{"name":"maxMissed","type":"uint8","internalType":"uint8"},{"name":"customMetrics","type":"bool","internalType":"bool"}],"stateMutability":"view"},{"type":"function","name":"isHeartbeatCurrent","inputs":[{"name":"serviceId","type":"uint64","internalType":"uint64"},{"name":"operator","type":"address","internalType":"address"}],"outputs":[{"name":"","type":"bool","internalType":"bool"}],"stateMutability":"view"},{"type":"function","name":"isOnline","inputs":[{"name":"serviceId","type":"uint64","internalType":"uint64"},{"name":"operator","type":"address","internalType":"address"}],"outputs":[{"name":"","type":"bool","internalType":"bool"}],"stateMutability":"view"},{"type":"function","name":"isRegisteredOperator","inputs":[{"name":"serviceId","type":"uint64","internalType":"uint64"},{"name":"operator","type":"address","internalType":"address"}],"outputs":[{"name":"","type":"bool","internalType":"bool"}],"stateMutability":"view"},{"type":"function","name":"metricValues","inputs":[{"name":"","type":"uint64","internalType":"uint64"},{"name":"","type":"address","internalType":"address"},{"name":"","type":"string","internalType":"string"}],"outputs":[{"name":"","type":"uint256","internalType":"uint256"}],"stateMutability":"view"},{"type":"function","name":"metricsRecorder","inputs":[],"outputs":[{"name":"","type":"address","internalType":"address"}],"stateMutability":"view"},{"type":"function","name":"operatorStates","inputs":[{"name":"","type":"uint64","internalType":"uint64"},{"name":"","type":"address","internalType":"address"}],"outputs":[{"name":"lastHeartbeat","type":"uint256","internalType":"uint256"},{"name":"consecutiveBeats","type":"uint64","internalType":"uint64"},{"name":"missedBeats","type":"uint8","internalType":"uint8"},{"name":"status","type":"uint8","internalType":"enum IOperatorStatusRegistry.StatusCode"},{"name":"lastMetricsHash","type":"bytes32","internalType":"bytes32"}],"stateMutability":"view"},{"type":"function","name":"owner","inputs":[],"outputs":[{"name":"","type":"address","internalType":"address"}],"stateMutability":"view"},{"type":"function","name":"pendingOwner","inputs":[],"outputs":[{"name":"","type":"address","internalType":"address"}],"stateMutability":"view"},{"type":"function","name":"registerOperator","inputs":[{"name":"serviceId","type":"uint64","internalType":"uint64"},{"name":"operator","type":"address","internalType":"address"}],"outputs":[],"stateMutability":"nonpayable"},{"type":"function","name":"registerServiceOwner","inputs":[{"name":"serviceId","type":"uint64","internalType":"uint64"},{"name":"owner","type":"address","internalType":"address"}],"outputs":[],"stateMutability":"nonpayable"},{"type":"function","name":"removeInactiveOperator","inputs":[{"name":"serviceId","type":"uint64","internalType":"uint64"},{"name":"operator","type":"address","internalType":"address"}],"outputs":[],"stateMutability":"nonpayable"},{"type":"function","name":"renounceOwnership","inputs":[],"outputs":[],"stateMutability":"nonpayable"},{"type":"function","name":"reportForSlashing","inputs":[{"name":"serviceId","type":"uint64","internalType":"uint64"},{"name":"operator","type":"address","internalType":"address"},{"name":"reason","type":"string","internalType":"string"}],"outputs":[],"stateMutability":"nonpayable"},{"type":"function","name":"serviceMetrics","inputs":[{"name":"","type":"uint64","internalType":"uint64"},{"name":"","type":"uint256","internalType":"uint256"}],"outputs":[{"name":"name","type":"string","internalType":"string"},{"name":"minValue","type":"uint256","internalType":"uint256"},{"name":"maxValue","type":"uint256","internalType":"uint256"},{"name":"required","type":"bool","internalType":"bool"}],"stateMutability":"view"},{"type":"function","name":"serviceOwners","inputs":[{"name":"","type":"uint64","internalType":"uint64"}],"outputs":[{"name":"","type":"address","internalType":"address"}],"stateMutability":"view"},{"type":"function","name":"setMetricDefinitions","inputs":[{"name":"serviceId","type":"uint64","internalType":"uint64"},{"name":"definitions","type":"tuple[]","internalType":"struct IOperatorStatusRegistry.MetricDefinition[]","components":[{"name":"name","type":"string","internalType":"string"},{"name":"minValue","type":"uint256","internalType":"uint256"},{"name":"maxValue","type":"uint256","internalType":"uint256"},{"name":"required","type":"bool","internalType":"bool"}]}],"outputs":[],"stateMutability":"nonpayable"},{"type":"function","name":"setMetricsRecorder","inputs":[{"name":"recorder","type":"address","internalType":"address"}],"outputs":[],"stateMutability":"nonpayable"},{"type":"function","name":"setSlashingOracle","inputs":[{"name":"oracle","type":"address","internalType":"address"}],"outputs":[],"stateMutability":"nonpayable"},{"type":"function","name":"slashingOracle","inputs":[],"outputs":[{"name":"","type":"address","internalType":"address"}],"stateMutability":"view"},{"type":"function","name":"submitHeartbeat","inputs":[{"name":"serviceId","type":"uint64","internalType":"uint64"},{"name":"blueprintId","type":"uint64","internalType":"uint64"},{"name":"statusCode","type":"uint8","internalType":"uint8"},{"name":"metrics","type":"bytes","internalType":"bytes"},{"name":"timestamp","type":"uint64","internalType":"uint64"},{"name":"signature","type":"bytes","internalType":"bytes"}],"outputs":[],"stateMutability":"nonpayable"},{"type":"function","name":"submitHeartbeatDirect","inputs":[{"name":"serviceId","type":"uint64","internalType":"uint64"},{"name":"blueprintId","type":"uint64","internalType":"uint64"},{"name":"statusCode","type":"uint8","internalType":"uint8"},{"name":"metrics","type":"bytes","internalType":"bytes"}],"outputs":[],"stateMutability":"nonpayable"},{"type":"function","name":"tangleCore","inputs":[],"outputs":[{"name":"","type":"address","internalType":"address"}],"stateMutability":"view"},{"type":"function","name":"transferOwnership","inputs":[{"name":"newOwner","type":"address","internalType":"address"}],"outputs":[],"stateMutability":"nonpayable"},{"type":"function","name":"validateAndStoreMetrics","inputs":[{"name":"serviceId","type":"uint64","internalType":"uint64"},{"name":"operator","type":"address","internalType":"address"},{"name":"pairs","type":"tuple[]","internalType":"struct IOperatorStatusRegistry.MetricPair[]","components":[{"name":"name","type":"string","internalType":"string"},{"name":"value","type":"uint256","internalType":"uint256"}]},{"name":"pairsLen","type":"uint256","internalType":"uint256"}],"outputs":[],"stateMutability":"nonpayable"},{"type":"event","name":"HeartbeatConfigUpdated","inputs":[{"name":"serviceId","type":"uint64","indexed":true,"internalType":"uint64"},{"name":"interval","type":"uint64","indexed":false,"internalType":"uint64"},{"name":"maxMissed","type":"uint8","indexed":false,"internalType":"uint8"}],"anonymous":false},{"type":"event","name":"HeartbeatReceived","inputs":[{"name":"serviceId","type":"uint64","indexed":true,"internalType":"uint64"},{"name":"blueprintId","type":"uint64","indexed":true,"internalType":"uint64"},{"name":"operator","type":"address","indexed":true,"internalType":"address"},{"name":"statusCode","type":"uint8","indexed":false,"internalType":"uint8"},{"name":"timestamp","type":"uint256","indexed":false,"internalType":"uint256"}],"anonymous":false},{"type":"event","name":"MetricReported","inputs":[{"name":"serviceId","type":"uint64","indexed":true,"internalType":"uint64"},{"name":"operator","type":"address","indexed":true,"internalType":"address"},{"name":"metricName","type":"string","indexed":false,"internalType":"string"},{"name":"value","type":"uint256","indexed":false,"internalType":"uint256"}],"anonymous":false},{"type":"event","name":"MetricViolation","inputs":[{"name":"serviceId","type":"uint64","indexed":true,"internalType":"uint64"},{"name":"operator","type":"address","indexed":true,"internalType":"address"},{"name":"metricName","type":"string","indexed":false,"internalType":"string"},{"name":"reason","type":"string","indexed":false,"internalType":"string"}],"anonymous":false},{"type":"event","name":"OperatorCameOnline","inputs":[{"name":"serviceId","type":"uint64","indexed":true,"internalType":"uint64"},{"name":"operator","type":"address","indexed":true,"internalType":"address"}],"anonymous":false},{"type":"event","name":"OperatorDeregistered","inputs":[{"name":"serviceId","type":"uint64","indexed":true,"internalType":"uint64"},{"name":"operator","type":"address","indexed":true,"internalType":"address"}],"anonymous":false},{"type":"event","name":"OperatorRegistered","inputs":[{"name":"serviceId","type":"uint64","indexed":true,"internalType":"uint64"},{"name":"operator","type":"address","indexed":true,"internalType":"address"}],"anonymous":false},{"type":"event","name":"OperatorWentOffline","inputs":[{"name":"serviceId","type":"uint64","indexed":true,"internalType":"uint64"},{"name":"operator","type":"address","indexed":true,"internalType":"address"},{"name":"missedBeats","type":"uint8","indexed":false,"internalType":"uint8"}],"anonymous":false},{"type":"event","name":"OwnershipTransferStarted","inputs":[{"name":"previousOwner","type":"address","indexed":true,"internalType":"address"},{"name":"newOwner","type":"address","indexed":true,"internalType":"address"}],"anonymous":false},{"type":"event","name":"OwnershipTransferred","inputs":[{"name":"previousOwner","type":"address","indexed":true,"internalType":"address"},{"name":"newOwner","type":"address","indexed":true,"internalType":"address"}],"anonymous":false},{"type":"event","name":"SlashingTriggered","inputs":[{"name":"serviceId","type":"uint64","indexed":true,"internalType":"uint64"},{"name":"operator","type":"address","indexed":true,"internalType":"address"},{"name":"reason","type":"string","indexed":false,"internalType":"string"}],"anonymous":false},{"type":"event","name":"StatusChanged","inputs":[{"name":"serviceId","type":"uint64","indexed":true,"internalType":"uint64"},{"name":"operator","type":"address","indexed":true,"internalType":"address"},{"name":"oldStatus","type":"uint8","indexed":false,"internalType":"enum IOperatorStatusRegistry.StatusCode"},{"name":"newStatus","type":"uint8","indexed":false,"internalType":"enum IOperatorStatusRegistry.StatusCode"}],"anonymous":false},{"type":"error","name":"AlreadyRegistered","inputs":[]},{"type":"error","name":"ECDSAInvalidSignature","inputs":[]},{"type":"error","name":"ECDSAInvalidSignatureLength","inputs":[{"name":"length","type":"uint256","internalType":"uint256"}]},{"type":"error","name":"ECDSAInvalidSignatureS","inputs":[{"name":"s","type":"bytes32","internalType":"bytes32"}]},{"type":"error","name":"HeartbeatFromFuture","inputs":[{"name":"signed","type":"uint64","internalType":"uint64"},{"name":"now_","type":"uint64","internalType":"uint64"}]},{"type":"error","name":"HeartbeatStale","inputs":[{"name":"signed","type":"uint64","internalType":"uint64"},{"name":"now_","type":"uint64","internalType":"uint64"}]},{"type":"error","name":"InternalOnly","inputs":[]},{"type":"error","name":"IntervalTooShort","inputs":[]},{"type":"error","name":"InvalidBounds","inputs":[]},{"type":"error","name":"InvalidMaxMissed","inputs":[]},{"type":"error","name":"InvalidSignature","inputs":[]},{"type":"error","name":"NameTooLong","inputs":[]},{"type":"error","name":"NotAuthorized","inputs":[]},{"type":"error","name":"NotRegistered","inputs":[]},{"type":"error","name":"NotRegisteredOperator","inputs":[]},{"type":"error","name":"NotServiceOwner","inputs":[]},{"type":"error","name":"NotSlashingOracle","inputs":[]},{"type":"error","name":"OnlyTangleCore","inputs":[]},{"type":"error","name":"OperatorNotEligibleForRemoval","inputs":[]},{"type":"error","name":"OperatorSlashed","inputs":[]},{"type":"error","name":"OperatorUnknown","inputs":[]},{"type":"error","name":"OwnableInvalidOwner","inputs":[{"name":"owner","type":"address","internalType":"address"}]},{"type":"error","name":"OwnableUnauthorizedAccount","inputs":[{"name":"account","type":"address","internalType":"address"}]},{"type":"error","name":"TooManyDefinitions","inputs":[]},{"type":"error","name":"ZeroAddress","inputs":[]}],"bytecode":{"object":"0x60c0604052346100655761001a610014610139565b90610216565b61002261006a565b61739a6104d38239608051818181610ecf0152613553015260a05181818161144e01528181612595015281816130ef015281816151000152615bdd015261739a90f35b610070565b60405190565b5f80fd5b601f801991011690565b634e487b7160e01b5f52604160045260245ffd5b9061009c90610074565b810190811060018060401b038211176100b457604052565b61007e565b906100cc6100c561006a565b9283610092565b565b5f80fd5b60018060a01b031690565b6100e6906100d2565b90565b6100f2816100dd565b036100f957565b5f80fd5b9050519061010a826100e9565b565b91906040838203126101345780610128610131925f86016100fd565b936020016100fd565b90565b6100ce565b61015761786d8038038061014c816100b9565b92833981019061010c565b9091565b90565b61017261016d610177926100d2565b61015b565b6100d2565b90565b6101839061015e565b90565b61018f9061017a565b90565b90565b61019e90610192565b9052565b90565b6101ae906101a2565b9052565b6101bb906100dd565b9052565b9095949261020a946101f9610203926101ef6080966101e560a088019c5f890190610195565b6020870190610195565b6040850190610195565b60608301906101a5565b01906101b2565b565b60200190565b5190565b90610220906102d3565b60a0527f8b73c3c69bb8fe3d512ecc4cf759cc79239f7b179b0ffacaa9a75d522b39400f6102bb7f36ffc258c865193ae10c3cf640450ab772fdb8da1dfcae7862ad1205a5567f4c916102ac7fc89efdaa54c0f20c7adf612882df0950f5a951637e0307cdcb4c672f298b8bc64661029730610186565b916102a061006a565b968795602087016101bf565b60208201810382520382610092565b6102cd6102c782610212565b9161020c565b20608052565b6102dc9061031e565b565b90565b6102f56102f06102fa926102de565b61015b565b6100d2565b90565b610306906102e1565b90565b919061031c905f602085019401906101b2565b565b8061033961033361032e5f6102fd565b6100dd565b916100dd565b1461034957610347906103e7565b565b61036c6103555f6102fd565b5f918291631e4fbdf760e01b835260048301610309565b0390fd5b1b90565b9190600861039491029161038e60018060a01b0384610370565b92610370565b9181191691161790565b6103a79061017a565b90565b90565b91906103c36103be6103cb9361039e565b6103aa565b908354610374565b9055565b5f90565b6103e5916103df6103cf565b916103ad565b565b6103fb906103f65f60016103d3565b610473565b565b5f1c90565b60018060a01b031690565b61041961041e916103fd565b610402565b90565b61042b905461040d565b90565b5f1b90565b9061044460018060a01b039161042e565b9181191691161790565b9061046361045e61046a9261039e565b6103aa565b8254610433565b9055565b5f0190565b61047c5f610421565b610486825f61044e565b906104ba6104b47f8be0079c531659141344cd1fd0a4f28419497f9722a3daafe3b4186f6b6457e09361039e565b9161039e565b916104c361006a565b806104cd8161046e565b0390a356fe60806040526004361015610013575b6124f9565b61001d5f3561039c565b806305778550146103975780630758236f146103925780630c76697a1461038d578063191cbd1a146103885780631e8f5ee514610383578063208129561461037e57806322f1ec93146103795780632bf4d6a7146103745780632c9576881461036f5780632dae18851461036a5780632f4bd7b81461036557806331e3bd1b146103605780633644e5151461035b5780633ac3cbe6146103565780633e6e34a7146103515780633fd62c6d1461034c57806340235a9c1461034757806348f4da20146103425780635685cf681461033d57806356c4e17d1461033857806359dcea12146103335780635a936dc61461032e5780635cce98a6146103295780636076439c1461032457806360cf09911461031f57806361d6b86c1461031a57806362c7e8fc1461031557806365a6936e146103105780636bfe06a61461030b578063715018a61461030657806371e7388c146103015780637639d227146102fc57806379ba5097146102f75780637b9f64b2146102f257806381beac2e146102ed57806384ef7322146102e85780638da5cb5b146102e357806396686c1e146102de5780639cbdae22146102d9578063adff830c146102d4578063ae470a85146102cf578063b074e9dd146102ca578063b99f6759146102c5578063ba1fb103146102c0578063c1ef9ddf146102bb578063c5d960bb146102b6578063cfe34749146102b1578063d551162c146102ac578063da435a7c146102a7578063e30c3978146102a2578063e65cafcb1461029d578063ee1c039014610298578063f2fde38b14610293578063f9107f3b1461028e578063f9f16762146102895763ffcf08f00361000e576124c5565b612490565b61242d565b6123cd565b612397565b612363565b61232e565b6122f6565b612224565b6121ef565b6121ad565b612178565b61204e565b61201a565b611fad565b611f73565b611eaa565b611de7565b611c60565b611baa565b611b77565b611b40565b611aab565b611a78565b611a42565b611a0c565b611950565b61191b565b6118ad565b611672565b611628565b6115a6565b611571565b611503565b611470565b611417565b6113e2565b61137d565b611333565b6112c7565b6111f3565b6111b9565b610f83565b610f16565b610e97565b610d1e565b610cd0565b610c35565b610b8f565b610a62565b6106c0565b61066e565b61063a565b610577565b61051d565b61044e565b60e01c90565b60405190565b5f80fd5b5f80fd5b5f80fd5b60018060401b031690565b6103c8816103b4565b036103cf57565b5f80fd5b905035906103e0826103bf565b565b60018060a01b031690565b6103f6906103e2565b90565b610402816103ed565b0361040957565b5f80fd5b9050359061041a826103f9565b565b91906040838203126104445780610438610441925f86016103d3565b9360200161040d565b90565b6103ac565b5f0190565b3461047d5761046761046136600461041c565b9061258c565b61046f6103a2565b8061047981610449565b0390f35b6103a8565b9060208282031261049b57610498915f016103d3565b90565b6103ac565b6104a9906103b4565b9052565b60ff1690565b6104bc906104ad565b9052565b151590565b6104ce906104c0565b9052565b90604080610506936104ea5f8201515f8601906104a0565b6104fc602082015160208601906104b3565b01519101906104c5565b565b919061051b905f606085019401906104d2565b565b3461054d57610549610538610533366004610482565b61269b565b6105406103a2565b91829182610508565b0390f35b6103a8565b90565b61055e90610552565b9052565b9190610575905f60208501940190610555565b565b346105a8576105a461059361058d36600461041c565b906126b4565b61059b6103a2565b91829182610562565b0390f35b6103a8565b5f80fd5b5f80fd5b5f80fd5b909182601f830112156105f15781359160018060401b0383116105ec5760200192602083028401116105e757565b6105b5565b6105b1565b6105ad565b9190916040818403126106355761060f835f83016103d3565b92602082013560018060401b0381116106305761062c92016105b9565b9091565b6103b0565b6103ac565b346106695761065361064d3660046105f6565b91612e22565b61065b6103a2565b8061066581610449565b0390f35b6103a8565b3461069d5761068761068136600461041c565b906130e6565b61068f6103a2565b8061069981610449565b0390f35b6103a8565b906020828203126106bb576106b8915f0161040d565b90565b6103ac565b346106ee576106d86106d33660046106a2565b61326b565b6106e06103a2565b806106ea81610449565b0390f35b6103a8565b6106fc81610552565b0361070357565b5f80fd5b90503590610714826106f3565b565b919060408382031261073e578061073261073b925f86016103d3565b93602001610707565b90565b6103ac565b90565b61075a61075561075f926103b4565b610743565b6103b4565b90565b9061076c90610746565b5f5260205260405f2090565b634e487b7160e01b5f52603260045260245ffd5b5490565b5f5260205f2090565b5f5260205f2090565b6107ab8161078c565b8210156107c5576107bd600491610790565b910201905f90565b610778565b634e487b7160e01b5f52602260045260245ffd5b90600160028304921680156107fe575b60208310146107f957565b6107ca565b91607f16916107ee565b60209181520190565b5f5260205f2090565b905f929180549061083461082d836107de565b8094610808565b916001811690815f1461088b575060011461084f575b505050565b61085c9192939450610811565b915f925b81841061087357505001905f808061084a565b60018160209295939554848601520191019290610860565b92949550505060ff19168252151560200201905f808061084a565b906108b09161081a565b90565b601f801991011690565b634e487b7160e01b5f52604160045260245ffd5b906108db906108b3565b810190811060018060401b038211176108f357604052565b6108bd565b90610918610911926109086103a2565b938480926108a6565b03836108d1565b565b5f1c90565b90565b61092e6109339161091a565b61091f565b90565b6109409054610922565b90565b60ff1690565b61095561095a9161091a565b610943565b90565b6109679054610949565b90565b610975906008610762565b9061097f8261078c565b8110156109c55761098f916107a2565b509061099c5f83016108f8565b916109a960018201610936565b916109c260036109bb60028501610936565b930161095d565b90565b5f80fd5b5190565b60209181520190565b90825f9392825e0152565b610a00610a09602093610a0e936109f7816109c9565b938480936109cd565b958691016109d6565b6108b3565b0190565b610a1b906104c0565b9052565b610a59610a6094610a4f610a446060959998969960808601908682035f8801526109e1565b986020850190610555565b6040830190610555565b0190610a12565b565b34610a9757610a93610a7e610a78366004610716565b9061096a565b90610a8a9492946103a2565b94859485610a1f565b0390f35b6103a8565b610aa5816104ad565b03610aac57565b5f80fd5b90503590610abd82610a9c565b565b909182601f83011215610af75781359160018060401b038311610af2576020019260018302840111610aed57565b6105b5565b6105b1565b6105ad565b919060c083820312610b8a57610b14815f85016103d3565b92610b2282602083016103d3565b92610b308360408401610ab0565b92606083013560018060401b038111610b855781610b4f918501610abf565b929093610b5f83608083016103d3565b9260a082013560018060401b038111610b8057610b7c9201610abf565b9091565b6103b0565b6103b0565b6103ac565b34610bc757610bb1610ba2366004610afc565b9695909594919493929361364b565b610bb96103a2565b80610bc381610449565b0390f35b6103a8565b5f910312610bd657565b6103ac565b90565b610bf2610bed610bf792610bdb565b610743565b6103b4565b90565b610c0561012c610bde565b90565b610c10610bfa565b90565b610c1c906103b4565b9052565b9190610c33905f60208501940190610c13565b565b34610c6557610c45366004610bcc565b610c61610c50610c08565b610c586103a2565b91829182610c20565b0390f35b6103a8565b1c90565b60018060a01b031690565b610c89906008610c8e9302610c6a565b610c6e565b90565b90610c9c9154610c79565b90565b610cab600b5f90610c91565b90565b610cb7906103ed565b9052565b9190610cce905f60208501940190610cae565b565b34610d0057610ce0366004610bcc565b610cfc610ceb610c9f565b610cf36103a2565b91829182610cbb565b0390f35b6103a8565b610d1061012c610bde565b90565b610d1b610d05565b90565b34610d4e57610d2e366004610bcc565b610d4a610d39610d13565b610d416103a2565b91829182610c20565b0390f35b6103a8565b90602082820312610d82575f82013560018060401b038111610d7d57610d799201610abf565b9091565b6103b0565b6103ac565b5190565b60209181520190565b60200190565b610db9610dc2602093610dc793610db0816109c9565b93848093610808565b958691016109d6565b6108b3565b0190565b610dd490610552565b9052565b90610e0290602080610df7604084015f8701518582035f870152610d9a565b940151910190610dcb565b90565b90610e0f91610dd8565b90565b60200190565b90610e2c610e2583610d87565b8092610d8b565b9081610e3d60208302840194610d94565b925f915b838310610e5057505050505090565b90919293946020610e72610e6c83856001950387528951610e05565b97610e12565b9301930191939290610e41565b610e949160208201915f818403910152610e18565b90565b34610ec857610ec4610eb3610ead366004610d53565b90613695565b610ebb6103a2565b91829182610e7f565b0390f35b6103a8565b7f000000000000000000000000000000000000000000000000000000000000000090565b90565b610efd90610ef1565b9052565b9190610f14905f60208501940190610ef4565b565b34610f4657610f26366004610bcc565b610f42610f31610ecd565b610f396103a2565b91829182610f01565b0390f35b6103a8565b90565b610f62610f5d610f6792610f4b565b610743565b6103b4565b90565b610f75610e10610f4e565b90565b610f80610f6a565b90565b34610fb357610f93366004610bcc565b610faf610f9e610f78565b610fa66103a2565b91829182610c20565b0390f35b6103a8565b90610fc290610746565b5f5260205260405f2090565b610fe2610fdd610fe7926103e2565b610743565b6103e2565b90565b610ff390610fce565b90565b610fff90610fea565b90565b9061100c90610ff6565b5f5260205260405f2090565b60018060401b031690565b61102f6110349161091a565b611018565b90565b6110419054611023565b90565b60401c90565b60ff1690565b61105c61106191611044565b61104a565b90565b61106e9054611050565b90565b60481c90565b60ff1690565b61108961108e91611071565b611077565b90565b61109b905461107d565b90565b90565b6110ad6110b29161091a565b61109e565b90565b6110bf90546110a1565b90565b906110d16110d6926003610fb8565b611002565b6110e15f8201610936565b916110ee60018301611037565b916110fb60018201611064565b91611114600261110d60018501611091565b93016110b5565b90565b611120906104ad565b9052565b634e487b7160e01b5f52602160045260245ffd5b6005111561114257565b611124565b9061115182611138565b565b61115c90611147565b90565b61116890611153565b9052565b909594926111b7946111a66111b09261119c60809661119260a088019c5f890190610555565b6020870190610c13565b6040850190611117565b606083019061115f565b0190610ef4565b565b346111ee576111ea6111d56111cf36600461041c565b906110c2565b916111e19593956103a2565b9586958661116c565b0390f35b6103a8565b346112235761121f61120e611209366004610482565b6136af565b6112166103a2565b91829182610562565b0390f35b6103a8565b5190565b60209181520190565b60200190565b611244906103ed565b9052565b906112558160209361123b565b0190565b60200190565b9061127c61127661126f84611228565b809361122c565b92611235565b905f5b81811061128c5750505090565b9091926112a561129f6001928651611248565b94611259565b910191909161127f565b6112c49160208201915f81840391015261125f565b90565b346112f7576112f36112e26112dd366004610482565b613767565b6112ea6103a2565b918291826112af565b0390f35b6103a8565b90565b61131361130e611318926112fc565b610743565b610552565b90565b61132560c86112ff565b90565b61133061131b565b90565b3461136357611343366004610bcc565b61135f61134e611328565b6113566103a2565b91829182610562565b0390f35b6103a8565b919061137b905f60208501940190610a12565b565b346113ae576113aa61139961139336600461041c565b90613807565b6113a16103a2565b91829182611368565b0390f35b6103a8565b906113bd90610746565b5f5260205260405f2090565b6113df906113da6007915f926113b3565b610c91565b90565b346114125761140e6113fd6113f8366004610482565b6113c9565b6114056103a2565b91829182610cbb565b0390f35b6103a8565b346114475761144361143261142d366004610482565b61388e565b61143a6103a2565b918291826112af565b0390f35b6103a8565b7f000000000000000000000000000000000000000000000000000000000000000090565b346114a057611480366004610bcc565b61149c61148b61144c565b6114936103a2565b91829182610cbb565b0390f35b6103a8565b906080828203126114fe576114bc815f84016103d3565b926114ca82602085016103d3565b926114d88360408301610ab0565b92606082013560018060401b0381116114f9576114f59201610abf565b9091565b6103b0565b6103ac565b346115355761151f6115163660046114a5565b93929092613921565b6115276103a2565b8061153181610449565b0390f35b6103a8565b90565b61155161154c6115569261153a565b610743565b610552565b90565b611563603261153d565b90565b61156e611559565b90565b346115a157611581366004610bcc565b61159d61158c611566565b6115946103a2565b91829182610562565b0390f35b6103a8565b346115d7576115d36115c26115bc36600461041c565b90613930565b6115ca6103a2565b91829182611368565b0390f35b6103a8565b90565b6115f36115ee6115f8926115dc565b610743565b6104ad565b90565b61160560036115df565b90565b6116106115fb565b90565b9190611626905f60208501940190611117565b565b3461165857611638366004610bcc565b611654611643611608565b61164b6103a2565b91829182611613565b0390f35b6103a8565b9190611670905f6020850194019061115f565b565b346116a35761169f61168e61168836600461041c565b9061395c565b6116966103a2565b9182918261165d565b0390f35b6103a8565b906116bb6116b46103a2565b92836108d1565b565b60018060401b0381116116d35760208091020190565b6108bd565b5f80fd5b5f80fd5b5f80fd5b60018060401b038111611700576116fc6020916108b3565b0190565b6108bd565b90825f939282370152565b90929192611725611720826116e4565b6116a8565b938185526020850190828401116117415761173f92611705565b565b6116e0565b9080601f830112156117645781602061176193359101611710565b90565b6105ad565b9190916040818403126117ba5761178060406116a8565b925f8201359160018060401b0383116117b5576117a2826117ae948301611746565b5f860152602001610707565b6020830152565b6116dc565b6116d8565b9291906117d36117ce826116bd565b6116a8565b93818552602080860192028101918383116118285781905b8382106117f9575050505050565b813560018060401b038111611823576020916118188784938701611769565b8152019101906117eb565b6105ad565b6105b5565b9080601f8301121561184b57816020611848933591016117bf565b90565b6105ad565b6080818303126118a857611866825f83016103d3565b92611874836020840161040d565b9260408301359060018060401b0382116118a357611897816118a093860161182d565b93606001610707565b90565b6103b0565b6103ac565b346118df576118c96118c0366004611850565b92919091613cbe565b6118d16103a2565b806118db81610449565b0390f35b6103a8565b90565b6118fb6118f6611900926118e4565b610743565b610552565b90565b61190d60406118e7565b90565b611918611903565b90565b3461194b5761192b366004610bcc565b611947611936611910565b61193e6103a2565b91829182610562565b0390f35b6103a8565b3461197e57611960366004610bcc565b611968614305565b6119706103a2565b8061197a81610449565b0390f35b6103a8565b61198c90611153565b9052565b61199990610ef1565b9052565b906080806119f5936119b55f8201515f860190610dcb565b6119c7602082015160208601906104a0565b6119d9604082015160408601906104b3565b6119eb60608201516060860190611983565b0151910190611990565b565b9190611a0a905f60a0850194019061199d565b565b34611a3d57611a39611a28611a2236600461041c565b90614442565b611a306103a2565b918291826119f7565b0390f35b6103a8565b34611a7357611a6f611a5e611a5836600461041c565b9061449a565b611a666103a2565b91829182610c20565b0390f35b6103a8565b34611aa657611a88366004610bcc565b611a906144c2565b611a986103a2565b80611aa281610449565b0390f35b6103a8565b34611adb57611ad7611ac6611ac1366004610482565b614513565b611ace6103a2565b91829182610562565b0390f35b6103a8565b9091606082840312611b1557611b12611afb845f85016103d3565b93611b098160208601610707565b93604001610707565b90565b6103ac565b92916020611b36611b3e9360408701908782035f89015261125f565b940190610555565b565b34611b7257611b59611b53366004611ae0565b916145b1565b90611b6e611b656103a2565b92839283611b1a565b0390f35b6103a8565b34611ba557611b8f611b8a3660046106a2565b614738565b611b976103a2565b80611ba181610449565b0390f35b6103a8565b34611bda57611bba366004610bcc565b611bd6611bc5614747565b611bcd6103a2565b91829182610cbb565b0390f35b6103a8565b909182601f83011215611c175781359160018060401b038311611c12576020019260208302840111611c0d57565b6105b5565b6105b1565b6105ad565b919091604081840312611c5b57611c35835f83016103d3565b92602082013560018060401b038111611c5657611c529201611bdf565b9091565b6103b0565b6103ac565b34611c8f57611c79611c73366004611c1c565b916147ce565b611c816103a2565b80611c8b81610449565b0390f35b6103a8565b91606083830312611cde57611cab825f85016103d3565b92611cb9836020830161040d565b92604082013560018060401b038111611cd957611cd69201611746565b90565b6103b0565b6103ac565b90611ced90610746565b5f5260205260405f2090565b90611d0390610ff6565b5f5260205260405f2090565b905090565b611d39611d3092602092611d27816109c9565b94858093611d0f565b938491016109d6565b0190565b90565b611d4c611d5191610552565b611d3d565b9052565b611d65611d6c9160209493611d14565b8092611d40565b0190565b611d84611d7b6103a2565b92839283611d55565b03902090565b611d9391611d70565b90565b611da6906008611dab9302610c6a565b61091f565b90565b90611db99154611d96565b90565b90611de492611dda611ddf92611dd56009955f96611ce3565b611cf9565b611d8a565b611dae565b90565b34611e1857611e14611e03611dfd366004611c94565b91611dbc565b611e0b6103a2565b91829182610562565b0390f35b6103a8565b909182601f83011215611e555781359160018060401b038311611e50576020019260018302840111611e4b57565b6105b5565b6105b1565b6105ad565b91606083830312611ea557611e71825f85016103d3565b92611e7f836020830161040d565b92604082013560018060401b038111611ea057611e9c9201611e1d565b9091565b6103b0565b6103ac565b34611edc57611ec6611ebd366004611e5a565b9291909161492d565b611ece6103a2565b80611ed881610449565b0390f35b6103a8565b611eea816104c0565b03611ef157565b5f80fd5b90503590611f0282611ee1565b565b91909160a081840312611f6e57611f1d835f83016103d3565b92602082013560018060401b038111611f695781611f3c918401611e1d565b929093611f66611f4f8460408501610707565b93611f5d8160608601610707565b93608001611ef5565b90565b6103b0565b6103ac565b34611fa857611f92611f86366004611f04565b94939093929192614c34565b611f9a6103a2565b80611fa481610449565b0390f35b6103a8565b34611fdb57611fc5611fc0366004610482565b615008565b611fcd6103a2565b80611fd781610449565b0390f35b6103a8565b909160608284031261201557612012611ffb845f85016103d3565b9361200981602086016103d3565b93604001610ab0565b90565b6103ac565b346120495761203361202d366004611fe0565b916150f7565b61203b6103a2565b8061204581610449565b0390f35b6103a8565b3461207d5761206761206136600461041c565b906152f7565b61206f6103a2565b8061207981610449565b0390f35b6103a8565b5190565b60209181520190565b60200190565b906120e3906060806120b4608084015f8701518582035f870152610d9a565b946120c760208201516020860190610dcb565b6120d960408201516040860190610dcb565b01519101906104c5565b90565b906120f091612095565b90565b60200190565b9061210d61210683612082565b8092612086565b908161211e6020830284019461208f565b925f915b83831061213157505050505090565b9091929394602061215361214d838560019503875289516120e6565b976120f3565b9301930191939290612122565b6121759160208201915f8184039101526120f9565b90565b346121a8576121a461219361218e366004610482565b61566c565b61219b6103a2565b91829182612160565b0390f35b6103a8565b346121db576121c56121c0366004610482565b6157be565b6121cd6103a2565b806121d781610449565b0390f35b6103a8565b6121ec600a5f90610c91565b90565b3461221f576121ff366004610bcc565b61221b61220a6121e0565b6122126103a2565b91829182610cbb565b0390f35b6103a8565b346122585761225461224361223a366004611e5a565b9291909161582b565b61224b6103a2565b91829182610562565b0390f35b6103a8565b9061226790610746565b5f5260205260405f2090565b61227f61228491611071565b610943565b90565b6122919054612273565b90565b61229f90600261225d565b6122aa5f8201611037565b916122c15f6122ba818501611064565b9301612287565b90565b6040906122ed6122f494969593966122e360608401985f850190610c13565b6020830190611117565b0190610a12565b565b346123295761232561231161230c366004610482565b612294565b61231c9391936103a2565b938493846122c4565b0390f35b6103a8565b3461235e5761233e366004610bcc565b61235a612349615860565b6123516103a2565b91829182610cbb565b0390f35b6103a8565b346123925761237c61237636600461041c565b906158a2565b6123846103a2565b8061238e81610449565b0390f35b6103a8565b346123c8576123c46123b36123ad36600461041c565b90615a6b565b6123bb6103a2565b91829182611368565b0390f35b6103a8565b346123fb576123e56123e03660046106a2565b615b6a565b6123ed6103a2565b806123f781610449565b0390f35b6103a8565b9190604083820312612428578061241c612425925f86016103d3565b93602001611ef5565b90565b6103ac565b3461245c57612446612440366004612400565b90615b75565b61244e6103a2565b8061245881610449565b0390f35b6103a8565b7f32721f8dc67e953c540da90f663059c23fc47f70d11e317ed6d5a24c8b85637490565b61248d612461565b90565b346124c0576124a0366004610bcc565b6124bc6124ab612485565b6124b36103a2565b91829182610f01565b0390f35b6103a8565b346124f4576124de6124d836600461041c565b90615bd4565b6124e66103a2565b806124f081610449565b0390f35b6103a8565b5f80fd5b61250961250e9161091a565b610c6e565b90565b61251b90546124fd565b90565b90565b61253561253061253a9261251e565b610743565b6103e2565b90565b61254690612521565b90565b5f1b90565b9061255f60018060a01b0391612549565b9181191691161790565b90565b9061258161257c61258892610ff6565b612569565b825461254e565b9055565b336125bf6125b97f00000000000000000000000000000000000000000000000000000000000000006103ed565b916103ed565b03612629576125d86125d3600783906113b3565b612511565b6125f26125ec6125e75f61253d565b6103ed565b916103ed565b0361260d5761260661260b929160076113b3565b61256c565b565b5f630ea075bf60e21b81528061262560048201610449565b0390fd5b5f6313f058cd60e11b81528061264160048201610449565b0390fd5b61264f60606116a8565b90565b5f90565b5f90565b5f90565b612666612645565b906020808084612674612652565b81520161267f612656565b81520161268a61265a565b81525050565b61269861265e565b90565b6126ad906126a7612690565b50615d35565b90565b5f90565b6126d56126db926126d05f936126c86126b0565b506003610fb8565b611002565b01610936565b90565b5090565b634e487b7160e01b5f52601160045260245ffd5b61270561270b91939293610552565b92610552565b91612717838202610552565b92818404149015171561272657565b6126e2565b6127369060046126f6565b90565b9061274c905f1990602003600802610c6a565b8154169055565b1b90565b9190600861277291029161276c5f1984612753565b92612753565b9181191691161790565b61279061278b61279592610552565b610743565b610552565b90565b90565b91906127b16127ac6127b99361277c565b612798565b908354612757565b9055565b6127cf916127c96126b0565b9161279b565b565b5b8181106127dd575050565b806127ea5f6001936127bd565b016127d2565b90612800905f1990600802610c6a565b191690565b8161280f916127f0565b906002021790565b905f9161282e61282682610811565b928354612805565b905555565b601f602091010490565b919290602082105f1461289657601f841160011461286657612860929350612805565b90555b5b565b509061288c61289193600161288361287d85610811565b92612833565b820191016127d1565b612817565b612863565b506128cd82936128a7600194610811565b6128c66128b385612833565b820192601f8616806128d8575b50612833565b01906127d1565b600202179055612864565b6128e490888603612739565b5f6128c0565b929091600160401b8211612945576020115f1461293657602081105f1461291a5761291491612805565b90555b5b565b60019160ff191661292a84610811565b55600202019055612917565b60019150600202019055612918565b6108bd565b908154612956816107de565b9081831161297f575b81831061296d575b50505050565b6129769361283d565b5f808080612967565b61298b838383876128ea565b61295f565b5f61299a9161294a565b565b634e487b7160e01b5f525f60045260245ffd5b905f036129c1576129bf90612990565b565b61299c565b60035f916129d6838083016129af565b6129e383600183016127bd565b6129f083600283016127bd565b0155565b905f03612a0657612a04906129c6565b565b61299c565b5b818110612a17575050565b80612a245f6004936129f4565b01612a0c565b9091828110612a39575b505050565b612a57612a51612a4b612a629561272b565b9261272b565b92610790565b918201910190612a0b565b5f8080612a34565b90600160401b8111612a8e5781612a83612a8c9361078c565b90828155612a2a565b565b6108bd565b5f612a9d91612a6a565b565b905f03612ab157612aaf90612a93565b565b61299c565b612aca612ac5612acf9261251e565b610743565b610552565b90565b6001612ade9101610552565b90565b5f80fd5b5f80fd5b5f80fd5b903590600160800381360303821215612b04570190565b612ae1565b90821015612b23576020612b209202810190612aed565b90565b610778565b903590600160200381360303821215612b68570180359060018060401b038211612b6357602001916001820236038313612b5e57565b612ae9565b612ae5565b612ae1565b91565b5090565b35612b7e816106f3565b90565b90565b5f5260205f2090565b5490565b612b9a81612b8d565b821015612bb457612bac600491612b84565b910201905f90565b610778565b5090565b9190601f8111612bcd575b505050565b612bd9612bfe93610811565b906020612be584612833565b83019310612c06575b612bf790612833565b01906127d1565b5f8080612bc8565b9150612bf781929050612bee565b91612c1f9082612bb9565b9060018060401b038211612cdc57612c4182612c3b85546107de565b85612bbd565b5f90601f8311600114612c7457918091612c63935f92612c68575b5050612805565b90555b565b90915001355f80612c5c565b601f19831691612c8385610811565b925f5b818110612cc457509160029391856001969410612caa575b50505002019055612c66565b612cba910135601f8416906127f0565b90555f8080612c9e565b91936020600181928787013581550195019201612c86565b6108bd565b90612cec9291612c14565b565b90612cfa5f1991612549565b9181191691161790565b90612d19612d14612d209261277c565b612798565b8254612cee565b9055565b35612d2e81611ee1565b90565b90612d3d60ff91612549565b9181191691161790565b612d50906104c0565b90565b90565b90612d6b612d66612d7292612d47565b612d53565b8254612d31565b9055565b90612dd460606003612dda94612d9a5f8201612d945f880188612b28565b91612ce1565b612db360018201612dad60208801612b74565b90612d04565b612dcc60028201612dc660408801612b74565b90612d04565b019201612d24565b90612d56565b565b9190612ded57612deb91612d76565b565b61299c565b90815491600160401b831015612e1d5782612e15916001612e1b95018155612b91565b90612ddc565b565b6108bd565b92919033612e4b612e45612e40612e3b600789906113b3565b612511565b6103ed565b916103ed565b03612fd957612e5b8183906126de565b612e74612e6e612e69611559565b610552565b91610552565b11612fbd57612e8e5f612e8960088790610762565b612a9f565b612e975f612ab6565b5b80612eb5612eaf612eaa8587906126de565b610552565b91610552565b1015612fb657612ee5612edf612ed9612ed085878691612b09565b5f810190612b28565b90612b6d565b90612b70565b612efe612ef8612ef3611903565b610552565b91610552565b11612f9a57612f1a6040612f1484868591612b09565b01612b74565b612f42612f3c612f376020612f3187898891612b09565b01612b74565b610552565b91610552565b10612f7e57612f7990612f74612f62612f5d60088990610762565b612b81565b612f6e85878591612b09565b90612df2565b612ad2565b612e98565b5f63a883435760e01b815280612f9660048201610449565b0390fd5b5f63680b6caf60e01b815280612fb260048201610449565b0390fd5b5050509050565b5f632b4406bd60e01b815280612fd560048201610449565b0390fd5b5f63115e986f60e31b815280612ff160048201610449565b0390fd5b90612fff90610746565b5f5260205260405f2090565b90565b61301790610ef1565b90565b6130239061091a565b90565b919061303c6130376130449361300e565b61301a565b908354612757565b9055565b5f90565b61305e91613058613048565b91613026565b565b5f600261307f92613073838083016127bd565b8260018201550161304c565b565b905f036130935761309190613060565b565b61299c565b60481b90565b906130ad60ff60481b91613098565b9181191691161790565b6130c090611147565b90565b90565b906130db6130d66130e2926130b7565b6130c3565b825461309e565b9055565b336131196131137f00000000000000000000000000000000000000000000000000000000000000006103ed565b916103ed565b0361322f578161313961313361312e5f61253d565b6103ed565b916103ed565b146132135761316561315f61315861315360068590612ff5565b61300b565b8490615e13565b156104c0565b6131f7576131885f61318361317c60038590610fb8565b8590611002565b613081565b6131ab600260016131a561319e60038690610fb8565b8690611002565b016130c6565b906131df6131d97f8e2d88795a3c66719a287658cbf68b3eb2b8e183cb18f46f4813913fc8aafc4b93610746565b91610ff6565b916131e86103a2565b806131f281610449565b0390a3565b5f630ea075bf60e21b81528061320f60048201610449565b0390fd5b5f63d92e233d60e01b81528061322b60048201610449565b0390fd5b5f6313f058cd60e11b81528061324760048201610449565b0390fd5b61325c90613257615e4d565b61325e565b565b61326990600b61256c565b565b6132749061324b565b565b969594939291906132a361329d6132966132918b6006612ff5565b61300b565b3390615e9b565b156104c0565b6132b2576132b097613489565b565b5f6303fa1eaf60e41b8152806132ca60048201610449565b0390fd5b6132e26132dd6132e7926103b4565b610743565b610552565b90565b6132fe6132f961330392610552565b610743565b6103b4565b90565b91602061332792949361332060408201965f830190610c13565b0190610c13565b565b61333861333e91939293610552565b92610552565b820391821161334957565b6126e2565b60018060401b03811161336a576133666020916108b3565b0190565b6108bd565b9092919261338461337f8261334e565b6116a8565b938185526020850190828401116133a05761339e92611705565b565b6116e0565b6133b091369161336f565b90565b60200190565b5190565b949290979695939160e08601985f87016133d691610ef4565b602086016133e391610cae565b604085016133f091610c13565b606084016133fd91610c13565b6080830161340a91611117565b60a0820161341791610ef4565b60c00161342391610c13565b565b5f61190160f01b910152565b61343d60028092611d0f565b61344681613425565b0190565b90565b61345961345e91610ef1565b61344a565b9052565b602080939261347d61347661348594613431565b809261344d565b01809261344d565b0190565b96909591929394806134a361349d42610552565b916132ce565b11613623576134bb426134b5836132ce565b90613329565b6134d46134ce6134c9610d05565b6132ce565b91610552565b116135fb576135b792918861353b8861352c8b6135b1968b8b6135036134f8612461565b9633999592936133a5565b61351561350f826133b9565b916133b3565b2092936135206103a2565b988997602089016133bd565b602082018103825203826108d1565b61354d613547826133b9565b916133b3565b206135987f000000000000000000000000000000000000000000000000000000000000000061358961357d6103a2565b93849260208401613462565b602082018103825203826108d1565b6135aa6135a4826133b9565b916133b3565b20926133a5565b90615ed5565b6135c96135c3336103ed565b916103ed565b036135df576135dd94933391929394615fd0565b565b5f638baa579f60e01b8152806135f760048201610449565b0390fd5b613604426132ea565b9061361f5f9283926318355b7560e21b845260048401613306565b0390fd5b61362c426132ea565b906136475f9283926357ea02e960e01b845260048401613306565b0390fd5b9061365b97969594939291613276565b565b606090565b90602082820312613690575f82013560018060401b03811161368b57613688920161182d565b90565b6103b0565b6103ac565b906136ac916136a261365d565b5090810190613662565b90565b6136ce6136c96136d3926136c16126b0565b506005612ff5565b61300b565b6163f9565b90565b606090565b60018060401b0381116136f15760208091020190565b6108bd565b90613708613703836136db565b6116a8565b918252565b369037565b9061373761371f836136f6565b9260208061372d86936136db565b920191039061370d565b565b9061374382611228565b811015613754576020809102010190565b610778565b90613763906103ed565b9052565b906137706136d6565b5061378d61378861378360048590612ff5565b61300b565b6163f9565b9161379783613712565b916137a15f612ab6565b5b806137b56137af87610552565b91610552565b10156137fc576137f7906137f26137e06137d96137d460048890612ff5565b61300b565b8390616448565b6137ed8791849092613739565b613759565b612ad2565b6137a2565b5092505090565b5f90565b90613810613803565b50613832600161382c61382560038690610fb8565b8490611002565b01611091565b61384461383e5f611147565b91611147565b14918215613852575b505090565b613873925060019161386861386d926003610fb8565b611002565b01611091565b6138866138806001611147565b91611147565b145f8061384d565b6138b49061389a6136d6565b505f906138ae6138a861131b565b92612ab6565b906145b1565b5090565b939291906138e26138dc6138d56138d0886006612ff5565b61300b565b3390615e9b565b156104c0565b6138f1576138ef9461390d565b565b5f6303fa1eaf60e41b81528061390960048201610449565b0390fd5b9161391f949293913391929394615fd0565b565b9061392e949392916138b8565b565b9061395061394b61395593613943613803565b506006612ff5565b61300b565b615e9b565b90565b5f90565b61397e61398492613979600193613971613958565b506003610fb8565b611002565b01611091565b90565b61399090610fea565b90565b60018060401b0381116139a95760208091020190565b6108bd565b906139c06139bb83613993565b6116a8565b918252565b369037565b906139ef6139d7836139ae565b926020806139e58693613993565b92019103906139c5565b565b906139fb82610d87565b811015613a0c576020809102010190565b610778565b90565b5190565b90613a2282613a14565b811015613a33576020809102010190565b610778565b90613a4290610ef1565b9052565b606090565b90565b60209181520190565b905f9291805490613a71613a6a836107de565b8094613a4e565b916001811690815f14613ac85750600114613a8c575b505050565b613a999192939450610799565b915f925b818410613ab057505001905f8080613a87565b60018160209295939554848601520191019290613a9d565b92949550505060ff19168252151560200201905f8080613a87565b90613aed91613a57565b90565b90613b10613b0992613b006103a2565b93848092613ae3565b03836108d1565b565b613b1b90613af0565b90565b613b289051610ef1565b90565b613b359051610552565b90565b5f7f56616c7565206f7574206f6620626f756e647300000000000000000000000000910152565b613b6c60136020926109cd565b613b7581613b38565b0190565b613b91613b9f9260408301908382035f8501526109e1565b906020818303910152613b5f565b90565b92916020613bbe613bc69360408701908782035f8901526109e1565b940190610555565b565b905f9291805490613be2613bdb836107de565b80946109cd565b916001811690815f14613c395750600114613bfd575b505050565b613c0a9192939450610811565b915f925b818410613c2157505001905f8080613bf8565b60018160209295939554848601520191019290613c0e565b92949550505060ff19168252151560200201905f8080613bf8565b5f7f5265717569726564206d6574726963206d697373696e67000000000000000000910152565b613c8860176020926109cd565b613c9181613c54565b0190565b613cad613cbb9260408301908382035f850152613bc8565b906020818303910152613c7b565b90565b9293909333613cdd613cd7613cd230613987565b6103ed565b916103ed565b036142c457613cf6613cf160088690610762565b612b81565b94613d00826139ca565b94613d0a5f612ab6565b5b80613d1e613d1886610552565b91610552565b1015613d7157613d6c90613d67613d425f613d3a8a85906139f1565b510151613a11565b613d54613d4e826133b9565b916133b3565b20613d628a91849092613a18565b613a38565b612ad2565b613d0b565b509194909295613d8081612b8d565b613d92613d8c5f612ab6565b91610552565b1196613d9c613a46565b908861421c575b613dac5f612ab6565b5b80613dc0613dba8b610552565b91610552565b101561407f5760015f8b613eb3575b5090888789613de594613dea575b505050612ad2565b613dad565b825f613e28613e20613e3194613e1b613e136020613e0c613e369b8d906139f1565b5101613b2b565b976009611ce3565b611cf9565b9287906139f1565b51015190611d8a565b612d04565b88878990613e606020613e595f613e4e8789906139f1565b5101519587906139f1565b5101613b2b565b613e93613e8d7f23ed02bd3605bdea6a8afa76c46f00d274860ba6cea980f2585b696df9e182bd93610746565b93610ff6565b93613ea8613e9f6103a2565b92839283613ba2565b0390a3888789613ddd565b9a9095929199613ec25f612ab6565b5b80613ede613ed8613ed38a612b8d565b610552565b91610552565b101561406957613ef6613ef18d87613a18565b613b1e565b613f1a613f14613f0f613f0a8a8690613a18565b613b1e565b610ef1565b91610ef1565b14613f2d57613f2890612ad2565b613ec3565b8a919b929c5089613de59495988a926001908a613f576020613f50898b906139f1565b5101613b2b565b613f7f613f79613f746001613f6d868890612b91565b5001610936565b610552565b91610552565b10918888841561401f575b50505050613fb4575b613f9e905b156104c0565b613fad575b9394505050613dcf565b505f613fa3565b905082825f613fc48789906139f1565b51015191614010613ffe613ff87fe08f42896ce3aec2ff7da95a00372f33cf677e75ad602590832a8dffcdad631593610746565b93610ff6565b936140076103a2565b91829182613b79565b0390a3613f9e5f919050613f93565b61405f93945061404d614059936140476020614040614054966002966139f1565b5101613b2b565b96612b91565b5001610936565b610552565b91610552565b118a5f8888613f8a565b5099909a8789613de5949598613f9e8d94613f98565b5097505092935093506140915f612ab6565b935b846140ae6140a86140a386612b8d565b610552565b91610552565b1015614215576140d46140ce60036140c7868990612b91565b500161095d565b156104c0565b61420a576140f66140f15f6140ea868990612b91565b5001613a4b565b613b12565b614108614102826133b9565b916133b3565b20905f966141155f612ab6565b5b8061413161412b61412686613a14565b610552565b91610552565b10156141f85761414a614145848390613a18565b613b1e565b61415c61415686610ef1565b91610ef1565b1461416f5761416a90612ad2565b614116565b5095909650614190915061418560015b156104c0565b614197575b5b612ad2565b9394614093565b82855f6141a5878590612b91565b5001916141f06141de6141d87fe08f42896ce3aec2ff7da95a00372f33cf677e75ad602590832a8dffcdad631593610746565b93610ff6565b936141e76103a2565b91829182613c95565b0390a361418a565b5095909661419092506141859061417f565b94936141909061418b565b5050505050565b96939050614236614231839794999693612b8d565b6139ca565b976142405f612ab6565b5b8061425c6142566142518b612b8d565b610552565b91610552565b10156142b6576142b1906142ac6142876142825f61427b8d8690612b91565b5001613a4b565b613b12565b614299614293826133b9565b916133b3565b206142a78d91849092613a18565b613a38565b612ad2565b614241565b509295919497909396613da3565b5f635f0d793360e11b8152806142dc60048201610449565b0390fd5b6142e8615e4d565b6142f06142f2565b565b6143036142fe5f61253d565b6164e0565b565b61430d6142e0565b565b61431960a06116a8565b90565b5f90565b5f90565b5f90565b61433061430f565b906020808080808661434061431c565b81520161434b612652565b815201614356612656565b815201614361614320565b81520161436c614324565b81525050565b61437a614328565b90565b9061438790610552565b9052565b90614395906103b4565b9052565b906143a3906104ad565b9052565b906143b190611147565b9052565b9061443461442b60026143c661430f565b946143dd6143d55f8301610936565b5f880161437d565b6143f56143ec60018301611037565b6020880161438b565b61440d61440460018301611064565b60408801614399565b61442561441c60018301611091565b606088016143a7565b016110b5565b60808401613a38565b565b61443f906143b5565b90565b6144679161445d61446292614455614372565b506003610fb8565b611002565b614436565b90565b5f90565b9061447890610746565b5f5260205260405f2090565b9061448e90610ff6565b5f5260205260405f2090565b6144bf916144b56144ba926144ad61446a565b50600c61446e565b614484565b611037565b90565b6144ca6164f6565b6144d2615860565b6144e46144de836103ed565b916103ed565b036144f4576144f2906164e0565b565b61450f905f91829163118cdaa760e01b835260048301610cbb565b0390fd5b61453261452d614537926145256126b0565b506004612ff5565b61300b565b6163f9565b90565b61454490516104ad565b90565b61455b6145566145609261251e565b610743565b6104ad565b90565b61456d90516103b4565b90565b61458461457f614589926104ad565b610743565b610552565b90565b61459b6145a191939293610552565b92610552565b82018092116145ac57565b6126e2565b909291926145bd6136d6565b506145c66126b0565b506145d082615d35565b936145ed6145e86145e360058690612ff5565b61300b565b6163f9565b926145fa6020870161453a565b61460c6146065f614547565b916104ad565b1480156146fe575b80156146e3575b6146c9576146558661464f61464a602061464361463e5f6146b29b9c9d01614563565b6132ce565b930161453a565b614570565b906126f6565b918061467061466a61466561131b565b610552565b91610552565b115f146146c4575061468061131b565b5b61468c84829061458c565b61469e61469888610552565b91610552565b115f146146b55750845b909290919261652c565b91565b6146bf908461458c565b6146a8565b614681565b50505091506146df6146da5f612ab6565b613712565b9190565b50826146f76146f186610552565b91610552565b101561461b565b508361471261470c5f612ab6565b91610552565b14614614565b61472990614724615e4d565b61472b565b565b61473690600a61256c565b565b61474190614718565b565b5f90565b61474f614743565b506147595f612511565b90565b5090565b9190811015614770576020020190565b610778565b3561477f816103f9565b90565b5f80fd5b60e01b90565b5f91031261479657565b6103ac565b9160206147bc9294936147b560408201965f830190610c13565b0190610cae565b565b6147c66103a2565b3d5f823e3d90fd5b909291926147db5f612ab6565b5b806147f96147f36147ee85899061475c565b610552565b91610552565b10156148a85761480830613987565b9063ba1fb1038461482361481e868a8691614760565b614775565b93803b156148a3576148485f809461485361483c6103a2565b98899687958694614786565b84526004840161479b565b03925af191821561489e5761486d92614872575b50612ad2565b6147dc565b614891905f3d8111614897575b61488981836108d1565b81019061478c565b5f614867565b503d61487f565b6147be565b614782565b5050509050565b90565b906148c360018060401b0391612549565b9181191691161790565b90565b906148e56148e06148ec92610746565b6148cd565b82546148b2565b9055565b919061490a816149038161490f956109cd565b8095611705565b6108b3565b0190565b909161492a9260208301925f8185039101526148f0565b90565b3361494961494361493e600a612511565b6103ed565b916103ed565b03614a575761497561496f61496861496360058590612ff5565b61300b565b8490615e9b565b156104c0565b614a3b576149a561499a61499561498e60038590610fb8565b8590611002565b6148af565b6001600391016130c6565b6149c36149bc6149b760048490612ff5565b61300b565b8390616648565b506149eb6149d0426132ea565b6149e66149df600c859061446e565b8590614484565b6148d0565b909192614a21614a1b7f1e2909cf45d70cf003f334b73c93330ce7e572782dfc82fab79deb8855a7c79193610746565b93610ff6565b93614a36614a2d6103a2565b92839283614913565b0390a3565b5f63b651a05160e01b815280614a5360048201610449565b0390fd5b5f63cc71937960e01b815280614a6f60048201610449565b0390fd5b614a7d60806116a8565b90565b614a8b913691611710565b90565b52565b90614a9b906104c0565b9052565b5190565b90614aad816109c9565b9060018060401b038211614b6b57614acf82614ac985546107de565b85612bbd565b602090601f8311600114614b0357918091614af2935f92614af7575b5050612805565b90555b565b90915001515f80614aeb565b601f19831691614b1285610811565b925f5b818110614b5357509160029391856001969410614b39575b50505002019055614af5565b614b49910151601f8416906127f0565b90555f8080614b2d565b91936020600181928787015181550195019201614b15565b6108bd565b90614b7a91614aa3565b565b614b8690516104c0565b90565b90614be660606003614bec94614bac5f8201614ba65f8801614a9f565b90614b70565b614bc560018201614bbf60208801613b2b565b90612d04565b614bde60028201614bd860408801613b2b565b90612d04565b019201614b7c565b90612d56565b565b9190614bff57614bfd91614b89565b565b61299c565b90815491600160401b831015614c2f5782614c27916001614c2d95018155612b91565b90614bee565b565b6108bd565b919392909233614c5f614c59614c54614c4f600788906113b3565b612511565b6103ed565b916103ed565b03614d9a57614c78614c72858790612b6d565b90612b70565b614c91614c8b614c86611903565b610552565b91610552565b11614d7e5780614ca9614ca384610552565b91610552565b10614d6257614cc2614cbd60088590610762565b61078c565b614cdb614cd5614cd0611559565b610552565b91610552565b1015614d4657614d4495614d2d614d3692614d24614d1c614d08614d03614d3f996008610762565b612b81565b989996929496614d16614a73565b9a614a80565b5f8a01614a8e565b6020880161437d565b6040860161437d565b60608401614a91565b614c04565b565b5f632b4406bd60e01b815280614d5e60048201610449565b0390fd5b5f63a883435760e01b815280614d7a60048201610449565b0390fd5b5f63680b6caf60e01b815280614d9660048201610449565b0390fd5b5f63115e986f60e31b815280614db260048201610449565b0390fd5b614ddc614dd6614dcf614dca846006612ff5565b61300b565b3390615e9b565b156104c0565b614deb57614de990614e88565b565b5f6303fa1eaf60e41b815280614e0360048201610449565b0390fd5b60401b90565b90614e1c60ff60401b91614e07565b9181191691161790565b614e3a614e35614e3f926104ad565b610743565b6104ad565b90565b90565b90614e5a614e55614e6192614e26565b614e42565b8254614e0d565b9055565b916020614e86929493614e7f60408201965f83019061115f565b019061115f565b565b614ea6614ea1614e9a60038490610fb8565b3390611002565b6148af565b90614eb360018301611091565b9182614ec8614ec26003611147565b91611147565b14614fec5782614ee0614eda5f611147565b91611147565b148015614fd1575b614fcc57614f0f90614efd60018083016130c6565b6001614f085f614547565b9101614e45565b614f2d614f26614f2160048490612ff5565b61300b565b3390615e13565b508033614f63614f5d7fc9862c5f02eefbdcea01c207ae538e1d304dc93026870f48951e48a0f4c8470c93610746565b91610ff6565b91614f6c6103a2565b80614f7681610449565b0390a3903390916001614fb2614fac7f228824b86c256469125f525ce18c6c2d0a9e133d13b8ec7a2c96a193b0c28a0993610746565b93610ff6565b93614fc7614fbe6103a2565b92839283614e65565b0390a3565b505050565b5082614fe6614fe06001611147565b91611147565b14614ee8565b5f637607924f60e11b81528061500460048201610449565b0390fd5b61501190614db6565b565b90565b61502a61502561502f92615013565b610743565b6103b4565b90565b90565b61504961504461504e92615032565b610743565b6104ad565b90565b61505b60606116a8565b90565b9061507361506e61507a92612d47565b612d53565b825461309e565b9055565b906150c060405f6150c6946150a082820161509a848801614563565b906148d0565b6150b88282016150b26020880161453a565b90614e45565b019201614b7c565b9061505e565b565b906150d29161507e565b565b9160206150f59294936150ee60408201965f830190610c13565b0190611117565b565b3361512a6151247f00000000000000000000000000000000000000000000000000000000000000006103ed565b916103ed565b14158061525b575b61523f578161514a615144603c615016565b916103b4565b10615223578261516361515d6001615035565b916104ad565b10615207576151c1826151b0856151a76151895f6151836002899061225d565b01612287565b9161519e615195615051565b955f870161438b565b60208501614399565b60408301614a91565b6151bc6002849061225d565b6150c8565b90916151ed7fc9599ed962624a858ec59bae0ed86c75f4db65fe04570021277edbedd04ea56492610746565b926152026151f96103a2565b928392836150d4565b0390a2565b5f635fd2273960e01b81528061521f60048201610449565b0390fd5b5f63252847a560e11b81528061523b60048201610449565b0390fd5b5f63ea8e4eb560e01b81528061525760048201610449565b0390fd5b503361528261527c615277615272600786906113b3565b612511565b6103ed565b916103ed565b1415615132565b634e487b7160e01b5f52601260045260245ffd5b6152a96152af91610552565b91610552565b9081156152ba570490565b615289565b6152d36152ce6152d892610552565b610743565b6104ad565b90565b6152ef6152ea6152f49261251e565b610743565b6103b4565b90565b61531561531061530960038490610fb8565b8490611002565b6148af565b9061531f81615d35565b61532b60018401611091565b61533e6153386003611147565b91611147565b146155525761534e5f8401610936565b61536061535a5f612ab6565b91610552565b1461554c5761539661537d426153775f8701610936565b90613329565b61539061538b5f8501614563565b6132ce565b9061529d565b806153aa6153a460ff614570565b91610552565b115f1461553e575060ff5b90816153d46153ce6153c960018801611064565b6104ad565b916104ad565b116153e1575b5050505050565b6153ee8260018601614e45565b6154036153fa5f6152db565b600186016148d0565b61542161541b615416602085940161453a565b6104ad565b916104ad565b101580615517575b615434575b806153da565b61544f61544360018501611091565b936001600291016130c6565b61546d61546661546160048590612ff5565b61300b565b8590616648565b5081908490916154bb6154a96154a37f44fd32b677704ce68e7763897c49733b8f5289018ac60a5c926802d63759db4d93610746565b93610ff6565b936154b26103a2565b91829182611613565b0390a391909160026154f66154f07f228824b86c256469125f525ce18c6c2d0a9e133d13b8ec7a2c96a193b0c28a0993610746565b93610ff6565b9361550b6155026103a2565b92839283614e65565b0390a35f80808061542e565b5061552460018401611091565b6155376155316002611147565b91611147565b1415615429565b615547906152bf565b6153b5565b50505050565b50505050565b606090565b60018060401b0381116155735760208091020190565b6108bd565b9061558a6155858361555d565b6116a8565b918252565b61559960806116a8565b90565b906156036155fa60036155ad61558f565b946155c46155bc5f83016108f8565b5f8801614a8e565b6155dc6155d360018301610936565b6020880161437d565b6155f46155eb60028301610936565b6040880161437d565b0161095d565b60608401614a91565b565b61560e9061559c565b90565b9061561b8261078c565b61562481615578565b926156326020850191610790565b5f915b8383106156425750505050565b6004602060019261565285615605565b815201920192019190615635565b61566990615611565b90565b6156836156889161567b615558565b506008610762565b615660565b90565b6156b16156ab6156a461569f846006612ff5565b61300b565b3390615e9b565b156104c0565b6156c0576156be906156dc565b565b5f6303fa1eaf60e41b8152806156d860048201610449565b0390fd5b6156fa6156f56156ee60038490610fb8565b3390611002565b6148af565b9061570760018301611091565b918261571c6157166003611147565b91611147565b146157a257615730906001600491016130c6565b61574e61574761574260048490612ff5565b61300b565b3390616648565b509033909160046157886157827f228824b86c256469125f525ce18c6c2d0a9e133d13b8ec7a2c96a193b0c28a0993610746565b93610ff6565b9361579d6157946103a2565b92839283614e65565b0390a3565b5f637607924f60e11b8152806157ba60048201610449565b0390fd5b6157c79061568b565b565b9091826157d9816157e093611d0f565b8093611705565b0190565b6157f590602094936157fc936157c9565b8092611d40565b0190565b90916158179061580e6103a2565b938493846157e4565b03902090565b909161582892615800565b90565b92615850615858939261584b61585d966158436126b0565b506009611ce3565b611cf9565b91909161581d565b610936565b90565b615868614743565b506158736001612511565b90565b6158809051611147565b90565b90565b61589a61589561589f92615883565b610743565b610552565b90565b90336158c96158c36158be6158b9600787906113b3565b612511565b6103ed565b916103ed565b141580615a49575b615a2d576158f36158ee6158e760038590610fb8565b8390611002565b614436565b6158ff60608201615876565b61591261590c6003611147565b91611147565b03615956575b5061594e6159496159539361594161593a61593560058490612ff5565b61300b565b8590616648565b506004612ff5565b61300b565b616648565b50565b6159d3906159a661599661596986615d35565b61599061598b602061598461597f5f8601614563565b6132ce565b930161453a565b614570565b906126f6565b6159a0600a615886565b906126f6565b6159b15f8301613b2b565b6159c36159bd5f612ab6565b91610552565b1191826159f9575b5050156104c0565b6159dd575f615918565b5f6334a65f4560e11b8152806159f560048201610449565b0390fd5b615a24919250615a18615a1e91615a125f429201613b2b565b90613329565b92610552565b91610552565b10155f806159cb565b5f63ea8e4eb560e01b815280615a4560048201610449565b0390fd5b5033615a64615a5e615a59614747565b6103ed565b916103ed565b14156158d1565b90615a95615a9a91615a7b613803565b50615a90615a8885615d35565b946003610fb8565b611002565b614436565b615aa55f8201613b2b565b615ab7615ab15f612ab6565b91610552565b14615af257615ae8615ae35f615adc615aee94615ad683429201613b2b565b90613329565b9401614563565b6132ce565b91610552565b1090565b50505f90565b615b0990615b04615e4d565b615b0b565b565b615b1681600161256c565b615b1e614747565b90615b52615b4c7f38d16b8cac22d99fc7c124b9cd0de2d3fa1faef420bfe791d8c362d765e2270093610ff6565b91610ff6565b91615b5b6103a2565b80615b6581610449565b0390a3565b615b7390615af8565b565b33615b9b615b95615b90615b8b600786906113b3565b612511565b6103ed565b916103ed565b03615bb8575f615bb0615bb69392600261225d565b0161505e565b565b5f63115e986f60e31b815280615bd060048201610449565b0390fd5b33615c07615c017f00000000000000000000000000000000000000000000000000000000000000006103ed565b916103ed565b03615cbe57615c33615c2d615c26615c2160068590612ff5565b61300b565b8490616648565b156104c0565b615ca257615c55615c4e615c4960048490612ff5565b61300b565b8390616648565b5090615c8a615c847f08bb93e5444209b15155078a13f6e341299d748d0c299f722c9cbc0723f0fe9e93610746565b91610ff6565b91615c936103a2565b80615c9d81610449565b0390a3565b5f63aba4733960e01b815280615cba60048201610449565b0390fd5b5f6313f058cd60e11b815280615cd660048201610449565b0390fd5b90615d27615d1e5f615cea612645565b94615d01615cf9838301611037565b83880161438b565b615d18615d0f838301611064565b60208801614399565b01612287565b60408401614a91565b565b615d3290615cda565b90565b615d4c615d5191615d44612690565b50600261225d565b615d29565b615d5c5f8201614563565b615d6e615d685f6152db565b916103b4565b14615db4575b615d806020820161453a565b615d92615d8c5f614547565b916104ad565b14615d9b575b90565b615daf615da66115fb565b60208301614399565b615d98565b615dc7615dbf610bfa565b5f830161438b565b615d74565b615dd590610fce565b90565b615dec615de7615df1926103e2565b610743565b610552565b90565b615e08615e03615e0d92610552565b612549565b610ef1565b90565b90565b90615e45615e3f615e3a615e355f615e4a96615e2d613803565b500194615dcc565b615dd8565b615df4565b91615e10565b616704565b90565b615e55614747565b615e6e615e68615e636164f6565b6103ed565b916103ed565b03615e7557565b615e97615e806164f6565b5f91829163118cdaa760e01b835260048301610cbb565b0390fd5b90615ecd615ec7615ec2615ebd5f615ed296615eb5613803565b500194615dcc565b615dd8565b615df4565b91615e10565b616767565b90565b615ef491615eeb91615ee5614743565b506167c3565b90929192616883565b90565b90615f0c615f07615f139261300e565b61301a565b8254612cee565b9055565b615f20906103b4565b60018060401b038114615f335760010190565b6126e2565b90565b615f4f615f4a615f5492615f38565b610743565b6104ad565b90565b916020615f78929493615f7160408201965f830190611117565b0190610555565b565b615f8390610fce565b90565b615f8f90615f7a565b90565b615f9b90610fea565b90565b604090615fc7615fce9496959396615fbd60608401985f850190610cae565b6020830190610c13565b0190610c13565b565b9492939193615ff3615fee615fe760038990610fb8565b8790611002565b6148af565b93615ffd87615d35565b9361600a60018701611091565b61601d6160176003611147565b91611147565b146163dd5761604061603961603460058b90612ff5565b61300b565b8890615e13565b50616115604061605260018901611091565b9661605f425f8b01612d04565b61608961606d8587906133a5565b61607f616079826133b9565b916133b3565b2060028b01615ef7565b61609e6160955f614547565b60018b01614e45565b6160bc60018a016160b66160b182611037565b615f17565b906148d0565b6160c4613958565b50856160d86160d25f614547565b916104ad565b145f14616399576160ef5f995b60018b91016130c6565b876161036160fd6002611147565b91611147565b148061637d575b61630f575b01614b7c565b806162eb575b6162d5575b505085918591924261616461615e6161587f658918e3147f13dd068ec21437b4c25c21682a8dc2129348671ead000db3e7b994610746565b94610746565b94610ff6565b946161796161706103a2565b92839283615f57565b0390a48061618f61618984611147565b91611147565b0361627f575b50506161a1600b612511565b6161bb6161b56161b05f61253d565b6103ed565b916103ed565b036161c5575b5050565b6161df6161da6161d5600b612511565b615f86565b615f92565b9163d47853b69190926161f1426132ea565b92813b1561627a575f61621791616222829661620b6103a2565b98899788968795614786565b855260048501615f9e565b03925af1908161624e575b50155f14616249576001616244575b5b5f806161c1565b61623c565b61623d565b61626d905f3d8111616273575b61626581836108d1565b81019061478c565b5f61622d565b503d61625b565b614782565b838391926162b66162b07f228824b86c256469125f525ce18c6c2d0a9e133d13b8ec7a2c96a193b0c28a0993610746565b93610ff6565b936162cb6162c26103a2565b92839283614e65565b0390a35f80616195565b6162e491889188909192616d38565b5f80616120565b506162f7818390612b70565b6163096163035f612ab6565b91610552565b1161611b565b61632c6163256163208d6004612ff5565b61300b565b8b90615e13565b508a8a61636261635c7fc9862c5f02eefbdcea01c207ae538e1d304dc93026870f48951e48a0f4c8470c93610746565b91610ff6565b9161636b6103a2565b8061637581610449565b0390a361610f565b508861639261638c6002611147565b91611147565b141561610a565b856163ad6163a76064615f3b565b916104ad565b105f146163c0576160ef6001995b6160e5565b6160ef6001996163d88d8d8b908b908a928c946169f2565b6163bb565b5f637607924f60e11b8152806163f560048201610449565b0390fd5b6164105f616415926164096126b0565b5001615e10565b616ef6565b90565b6164246164299161091a565b61277c565b90565b61644061643b61644592610552565b610743565b6103e2565b90565b61647361646e61647d936164695f61647895616462614743565b5001615e10565b616f64565b616418565b61642c565b610fea565b90565b919060086164a091029161649a60018060a01b0384612753565b92612753565b9181191691161790565b91906164c06164bb6164c893610ff6565b612569565b908354616480565b9055565b6164de916164d8614743565b916164aa565b565b6164f4906164ef5f60016164cc565b616f85565b565b6164fe614743565b503390565b61650c90610552565b5f19811461651a5760010190565b6126e2565b61652990516103ed565b90565b939192936165386136d6565b5061654c616547858490613329565b613712565b926165565f612ab6565b925b8061656b61656588610552565b91610552565b10156165d95761658f61658861658360058690612ff5565b61300b565b8290616448565b61659b84828a91616fe4565b6165af575b506165aa90612ad2565b616558565b6165aa91946165cd6165d2926165c88991849092613739565b613759565b616503565b93906165a0565b5094505091506165e882613712565b926165f25f612ab6565b5b8061660661660086610552565b91610552565b10156166425761663d90616638616626616621868490613739565b61651f565b6166338891849092613739565b613759565b612ad2565b6165f3565b50915050565b9061667a61667461666f61666a5f61667f96616662613803565b500194615dcc565b615dd8565b615df4565b91615e10565b61711c565b90565b90565b5f5260205f2090565b5490565b61669b8161668e565b8210156166b5576166ad600191616685565b910201905f90565b610778565b90815491600160401b8310156166e557826166dd9160016166e395018155616692565b90613026565b565b6108bd565b5490565b906166f89061300e565b5f5260205260405f2090565b61670c613803565b5061672161671b828490616767565b156104c0565b5f146167615761675761675c9261674361673c5f8501616682565b82906166ba565b60016167505f85016166ea565b93016166ee565b612d04565b600190565b50505f90565b61678591600161678092616779613803565b50016166ee565b610936565b6167976167915f612ab6565b91610552565b141590565b5f90565b90565b6167b76167b26167bc926167a0565b610743565b610552565b90565b5f90565b9190916167ce614743565b506167d761679c565b506167e0613048565b506167ea836133b9565b6167fd6167f760416167a3565b91610552565b145f146168445761683d9192616811613048565b5061681a613048565b506168236167bf565b506020810151606060408301519201515f1a90919261729b565b9192909190565b5061684e5f61253d565b9061686261685d6002946133b9565b615df4565b91929190565b6004111561687257565b611124565b9061688182616868565b565b806168966168905f616877565b91616877565b145f146168a1575050565b806168b56168af6001616877565b91616877565b145f146168d8575f63f645eedf60e01b8152806168d460048201610449565b0390fd5b806168ec6168e66002616877565b91616877565b145f1461691a576169166168ff83616418565b5f91829163fce698f760e01b835260048301610562565b0390fd5b61692d6169276003616877565b91616877565b146169355750565b616950905f9182916335e2f38360e21b835260048301610f01565b0390fd5b61696861696361696d926112fc565b610743565b6104ad565b90565b61697c616982916103b4565b916103b4565b90039060018060401b03821161699457565b6126e2565b5f7f50726f746f636f6c2076696f6c6174696f6e207265706f727465640000000000910152565b6169cd601b6020926109cd565b6169d681616999565b0190565b6169ef9060208101905f8183039101526169c0565b90565b9350509250616a0a616a0460c8616954565b916104ad565b1015616a15575b5050565b616a1e426132ea565b616a3c616a37616a30600c859061446e565b8590614484565b611037565b80616a4f616a495f6152db565b916103b4565b14908115616ad5575b50616a64575b50616a11565b616a8390616a7e616a77600c859061446e565b8590614484565b6148d0565b90616ab7616ab17f1e2909cf45d70cf003f334b73c93330ce7e572782dfc82fab79deb8855a7c79193610746565b91610ff6565b91616ac06103a2565b80616aca816169da565b0390a35f8080616a5e565b616ae0915082616970565b616af9616af3616aee610f6a565b6103b4565b916103b4565b10155f616a58565b90565b616b18616b13616b1d92616b01565b610743565b610552565b90565b90929192616b35616b30826116e4565b6116a8565b93818552602085019082840111616b5157616b4f926109d6565b565b6116e0565b9080601f83011215616b7457816020616b7193519101616b20565b90565b6105ad565b90505190616b86826106f3565b565b919091604081840312616bd957616b9f60406116a8565b925f8201519160018060401b038311616bd457616bc182616bcd948301616b56565b5f860152602001616b79565b6020830152565b6116dc565b6116d8565b929190616bf2616bed826116bd565b6116a8565b9381855260208086019202810191838311616c475781905b838210616c18575050505050565b815160018060401b038111616c4257602091616c378784938701616b88565b815201910190616c0a565b6105ad565b6105b5565b9080601f83011215616c6a57816020616c6793519101616bde565b90565b6105ad565b90602082820312616c9d575f82015160018060401b038111616c9857616c959201616c4c565b90565b6103b0565b6103ac565b60209181520190565b9190616cc581616cbe81616cca95616ca2565b8095611705565b6108b3565b0190565b9091616ce59260208301925f818503910152616cab565b90565b616cf2603261153d565b90565b949391606091616d3694616d21616d2e93616d1760808b01945f8c0190610c13565b60208a0190610cae565b8782036040890152610e18565b940190610555565b565b91616d44818590612b70565b616d56616d505f612ab6565b91610552565b14616ef057616d66818590612b70565b616d7a616d7461c350616b04565b91610552565b11616eea575f616d8861365d565b94616d9230613987565b616db46331e3bd1b949294616dbf616da86103a2565b96879586948594614786565b845260048401616cce565b03915afa80915f92616ec6575b50155f14616ebd57506001616eb8575b616de583610d87565b616dfe616df8616df3616ce8565b610552565b91610552565b115f14616eaa57616e0d616ce8565b5b616e1730613987565b906365a6936e93929490823b15616ea5575f94616e528692616e4794616e3b6103a2565b998a9889978896614786565b865260048601616cf5565b03925af19081616e79575b50155f14616e74576001616e6f575b5b565b616e6c565b616e6d565b616e98905f3d8111616e9e575b616e9081836108d1565b81019061478c565b5f616e5d565b503d616e86565b614782565b616eb383610d87565b616e0e565b505050565b90925091616ddc565b616ee39192503d805f833e616edb81836108d1565b810190616c6f565b905f616dcc565b50505050565b50505050565b5f616f0a91616f036126b0565b50016166ea565b90565b5f5260205f2090565b616f1f816166ea565b821015616f3957616f31600191616f0d565b910201905f90565b610778565b616f4e906008616f539302610c6a565b61109e565b90565b90616f619154616f3e565b90565b616f82915f616f7c92616f75613048565b5001616f16565b90616f56565b90565b616f8e5f612511565b616f98825f61256c565b90616fcc616fc67f8be0079c531659141344cd1fd0a4f28419497f9722a3daafe3b4186f6b6457e093610ff6565b91610ff6565b91616fd56103a2565b80616fdf81610449565b0390a3565b616fec613803565b5061701461700e61700761700260068590612ff5565b61300b565b8490615e9b565b156104c0565b6170b6576170349161702a61702f926003610fb8565b611002565b614436565b61703f5f8201613b2b565b61705161704b5f612ab6565b91610552565b148015617090575b61708a5761707f617079617085926170735f429201613b2b565b90613329565b92610552565b91610552565b101590565b50505f90565b5061709d60608201615876565b6170b06170aa6003611147565b91611147565b14617059565b5050505f90565b6170d16170cc6170d692615032565b610743565b610552565b90565b634e487b7160e01b5f52603160045260245ffd5b6170f68161668e565b801561711757600190039061711461710e8383616692565b9061304c565b55565b6170d9565b617124613803565b5061713b6171366001830184906166ee565b610936565b908161714f6171495f612ab6565b91610552565b14155f1461721b576171cd9260016171c892846171765f96617170856170bd565b90613329565b6171936171848885016166ea565b61718d866170bd565b90613329565b816171a66171a083610552565b91610552565b036171d2575b5050506171c26171bd868301616682565b6170ed565b016166ee565b6127bd565b600190565b617213926172056171f16171eb61720e948c8901616f16565b90616f56565b936171ff85918c8901616f16565b90613026565b918585016166ee565b612d04565b5f80806171ac565b5050505f90565b90565b61723961723461723e92617222565b610743565b610552565b90565b61727661727d9461726c606094989795617262608086019a5f870190610ef4565b6020850190611117565b6040830190610ef4565b0190610ef4565b565b61729361728e6172989261251e565b612549565b610ef1565b90565b9392936172a6614743565b506172af61679c565b506172b8613048565b506172c285616418565b6172ea6172e46fa2a8918ca85bafe22016d0b997e4df60600160ff1b03617225565b91610552565b11617377579061730d602094955f949392936173046103a2565b94859485617241565b838052039060015afa15617372576173255f51612549565b8061734061733a6173355f61253d565b6103ed565b916103ed565b14617356575f916173505f61727f565b91929190565b506173605f61253d565b60019161736c5f61727f565b91929190565b6147be565b5050506173835f61253d565b906003929192919056fea164736f6c634300081a000a","linkReferences":{}},"methodIdentifiers":{"DEFAULT_HEARTBEAT_INTERVAL()":"2c957688","DEFAULT_MAX_MISSED_HEARTBEATS()":"61d6b86c","DOMAIN_SEPARATOR()":"3644e515","HEARTBEAT_MAX_AGE()":"2f4bd7b8","HEARTBEAT_TYPEHASH()":"f9f16762","MAX_METRIC_DEFINITIONS()":"6076439c","MAX_METRIC_NAME_LENGTH()":"6bfe06a6","MAX_PAGE_SIZE()":"48f4da20","SLASH_ALERT_COOLDOWN()":"3ac3cbe6","acceptOwnership()":"79ba5097","addMetricDefinition(uint64,string,uint256,uint256,bool)":"ae470a85","checkOperatorStatus(uint64,address)":"ba1fb103","checkOperatorsStatus(uint64,address[])":"96686c1e","configureHeartbeat(uint64,uint64,uint8)":"b99f6759","decodeMetricPairs(bytes)":"31e3bd1b","deregisterOperator(uint64,address)":"ffcf08f0","enableCustomMetrics(uint64,bool)":"f9107f3b","getAllOperatorCount(uint64)":"3fd62c6d","getHeartbeatConfig(uint64)":"0758236f","getLastCriticalHeartbeat(uint64,address)":"7639d227","getLastHeartbeat(uint64,address)":"0c76697a","getMetricDefinitions(uint64)":"c1ef9ddf","getMetricValue(uint64,address,string)":"d551162c","getOnlineOperatorCount(uint64)":"7b9f64b2","getOnlineOperators(uint64)":"40235a9c","getOperatorState(uint64,address)":"71e7388c","getOperatorStatus(uint64,address)":"62c7e8fc","getSlashableOperators(uint64)":"59dcea12","getSlashableOperatorsPaginated(uint64,uint256,uint256)":"81beac2e","goOffline(uint64)":"c5d960bb","goOnline(uint64)":"b074e9dd","heartbeatConfigs(uint64)":"da435a7c","isHeartbeatCurrent(uint64,address)":"ee1c0390","isOnline(uint64,address)":"5685cf68","isRegisteredOperator(uint64,address)":"60cf0991","metricValues(uint64,address,string)":"9cbdae22","metricsRecorder()":"2dae1885","operatorStates(uint64,address)":"3e6e34a7","owner()":"8da5cb5b","pendingOwner()":"e30c3978","registerOperator(uint64,address)":"1e8f5ee5","registerServiceOwner(uint64,address)":"05778550","removeInactiveOperator(uint64,address)":"e65cafcb","renounceOwnership()":"715018a6","reportForSlashing(uint64,address,string)":"adff830c","serviceMetrics(uint64,uint256)":"22f1ec93","serviceOwners(uint64)":"56c4e17d","setMetricDefinitions(uint64,(string,uint256,uint256,bool)[])":"191cbd1a","setMetricsRecorder(address)":"20812956","setSlashingOracle(address)":"84ef7322","slashingOracle()":"cfe34749","submitHeartbeat(uint64,uint64,uint8,bytes,uint64,bytes)":"2bf4d6a7","submitHeartbeatDirect(uint64,uint64,uint8,bytes)":"5cce98a6","tangleCore()":"5a936dc6","transferOwnership(address)":"f2fde38b","validateAndStoreMetrics(uint64,address,(string,uint256)[],uint256)":"65a6936e"},"id":58}