{"abi":[{"type":"constructor","inputs":[{"name":"_tangleCore","type":"address","internalType":"address"},{"name":"initialOwner","type":"address","internalType":"address"}],"stateMutability":"nonpayable"},{"type":"function","name":"DEFAULT_HEARTBEAT_INTERVAL","inputs":[],"outputs":[{"name":"","type":"uint64","internalType":"uint64"}],"stateMutability":"view"},{"type":"function","name":"DEFAULT_MAX_MISSED_HEARTBEATS","inputs":[],"outputs":[{"name":"","type":"uint8","internalType":"uint8"}],"stateMutability":"view"},{"type":"function","name":"DOMAIN_SEPARATOR","inputs":[],"outputs":[{"name":"","type":"bytes32","internalType":"bytes32"}],"stateMutability":"view"},{"type":"function","name":"HEARTBEAT_TYPEHASH","inputs":[],"outputs":[{"name":"","type":"bytes32","internalType":"bytes32"}],"stateMutability":"view"},{"type":"function","name":"MAX_METRIC_DEFINITIONS","inputs":[],"outputs":[{"name":"","type":"uint256","internalType":"uint256"}],"stateMutability":"view"},{"type":"function","name":"MAX_METRIC_NAME_LENGTH","inputs":[],"outputs":[{"name":"","type":"uint256","internalType":"uint256"}],"stateMutability":"view"},{"type":"function","name":"MAX_PAGE_SIZE","inputs":[],"outputs":[{"name":"","type":"uint256","internalType":"uint256"}],"stateMutability":"view"},{"type":"function","name":"SLASH_ALERT_COOLDOWN","inputs":[],"outputs":[{"name":"","type":"uint64","internalType":"uint64"}],"stateMutability":"view"},{"type":"function","name":"acceptOwnership","inputs":[],"outputs":[],"stateMutability":"nonpayable"},{"type":"function","name":"addMetricDefinition","inputs":[{"name":"serviceId","type":"uint64","internalType":"uint64"},{"name":"name","type":"string","internalType":"string"},{"name":"minValue","type":"uint256","internalType":"uint256"},{"name":"maxValue","type":"uint256","internalType":"uint256"},{"name":"required","type":"bool","internalType":"bool"}],"outputs":[],"stateMutability":"nonpayable"},{"type":"function","name":"checkOperatorStatus","inputs":[{"name":"serviceId","type":"uint64","internalType":"uint64"},{"name":"operator","type":"address","internalType":"address"}],"outputs":[],"stateMutability":"nonpayable"},{"type":"function","name":"checkOperatorsStatus","inputs":[{"name":"serviceId","type":"uint64","internalType":"uint64"},{"name":"operators","type":"address[]","internalType":"address[]"}],"outputs":[],"stateMutability":"nonpayable"},{"type":"function","name":"configureHeartbeat","inputs":[{"name":"serviceId","type":"uint64","internalType":"uint64"},{"name":"interval","type":"uint64","internalType":"uint64"},{"name":"maxMissed","type":"uint8","internalType":"uint8"}],"outputs":[],"stateMutability":"nonpayable"},{"type":"function","name":"decodeMetricPairs","inputs":[{"name":"payload","type":"bytes","internalType":"bytes"}],"outputs":[{"name":"pairs","type":"tuple[]","internalType":"struct IOperatorStatusRegistry.MetricPair[]","components":[{"name":"name","type":"string","internalType":"string"},{"name":"value","type":"uint256","internalType":"uint256"}]}],"stateMutability":"pure"},{"type":"function","name":"deregisterOperator","inputs":[{"name":"serviceId","type":"uint64","internalType":"uint64"},{"name":"operator","type":"address","internalType":"address"}],"outputs":[],"stateMutability":"nonpayable"},{"type":"function","name":"enableCustomMetrics","inputs":[{"name":"serviceId","type":"uint64","internalType":"uint64"},{"name":"enabled","type":"bool","internalType":"bool"}],"outputs":[],"stateMutability":"nonpayable"},{"type":"function","name":"getAllOperatorCount","inputs":[{"name":"serviceId","type":"uint64","internalType":"uint64"}],"outputs":[{"name":"","type":"uint256","internalType":"uint256"}],"stateMutability":"view"},{"type":"function","name":"getHeartbeatConfig","inputs":[{"name":"serviceId","type":"uint64","internalType":"uint64"}],"outputs":[{"name":"","type":"tuple","internalType":"struct IOperatorStatusRegistry.HeartbeatConfig","components":[{"name":"interval","type":"uint64","internalType":"uint64"},{"name":"maxMissed","type":"uint8","internalType":"uint8"},{"name":"customMetrics","type":"bool","internalType":"bool"}]}],"stateMutability":"view"},{"type":"function","name":"getLastCriticalHeartbeat","inputs":[{"name":"serviceId","type":"uint64","internalType":"uint64"},{"name":"operator","type":"address","internalType":"address"}],"outputs":[{"name":"","type":"uint64","internalType":"uint64"}],"stateMutability":"view"},{"type":"function","name":"getLastHeartbeat","inputs":[{"name":"serviceId","type":"uint64","internalType":"uint64"},{"name":"operator","type":"address","internalType":"address"}],"outputs":[{"name":"","type":"uint256","internalType":"uint256"}],"stateMutability":"view"},{"type":"function","name":"getMetricDefinitions","inputs":[{"name":"serviceId","type":"uint64","internalType":"uint64"}],"outputs":[{"name":"","type":"tuple[]","internalType":"struct IOperatorStatusRegistry.MetricDefinition[]","components":[{"name":"name","type":"string","internalType":"string"},{"name":"minValue","type":"uint256","internalType":"uint256"},{"name":"maxValue","type":"uint256","internalType":"uint256"},{"name":"required","type":"bool","internalType":"bool"}]}],"stateMutability":"view"},{"type":"function","name":"getMetricValue","inputs":[{"name":"serviceId","type":"uint64","internalType":"uint64"},{"name":"operator","type":"address","internalType":"address"},{"name":"metricName","type":"string","internalType":"string"}],"outputs":[{"name":"","type":"uint256","internalType":"uint256"}],"stateMutability":"view"},{"type":"function","name":"getOnlineOperatorCount","inputs":[{"name":"serviceId","type":"uint64","internalType":"uint64"}],"outputs":[{"name":"","type":"uint256","internalType":"uint256"}],"stateMutability":"view"},{"type":"function","name":"getOnlineOperators","inputs":[{"name":"serviceId","type":"uint64","internalType":"uint64"}],"outputs":[{"name":"","type":"address[]","internalType":"address[]"}],"stateMutability":"view"},{"type":"function","name":"getOperatorState","inputs":[{"name":"serviceId","type":"uint64","internalType":"uint64"},{"name":"operator","type":"address","internalType":"address"}],"outputs":[{"name":"","type":"tuple","internalType":"struct IOperatorStatusRegistry.OperatorState","components":[{"name":"lastHeartbeat","type":"uint256","internalType":"uint256"},{"name":"consecutiveBeats","type":"uint64","internalType":"uint64"},{"name":"missedBeats","type":"uint8","internalType":"uint8"},{"name":"status","type":"uint8","internalType":"enum IOperatorStatusRegistry.StatusCode"},{"name":"lastMetricsHash","type":"bytes32","internalType":"bytes32"}]}],"stateMutability":"view"},{"type":"function","name":"getOperatorStatus","inputs":[{"name":"serviceId","type":"uint64","internalType":"uint64"},{"name":"operator","type":"address","internalType":"address"}],"outputs":[{"name":"","type":"uint8","internalType":"enum IOperatorStatusRegistry.StatusCode"}],"stateMutability":"view"},{"type":"function","name":"getSlashableOperators","inputs":[{"name":"serviceId","type":"uint64","internalType":"uint64"}],"outputs":[{"name":"operators","type":"address[]","internalType":"address[]"}],"stateMutability":"view"},{"type":"function","name":"getSlashableOperatorsPaginated","inputs":[{"name":"serviceId","type":"uint64","internalType":"uint64"},{"name":"offset","type":"uint256","internalType":"uint256"},{"name":"limit","type":"uint256","internalType":"uint256"}],"outputs":[{"name":"operators","type":"address[]","internalType":"address[]"},{"name":"total","type":"uint256","internalType":"uint256"}],"stateMutability":"view"},{"type":"function","name":"goOffline","inputs":[{"name":"serviceId","type":"uint64","internalType":"uint64"}],"outputs":[],"stateMutability":"nonpayable"},{"type":"function","name":"goOnline","inputs":[{"name":"serviceId","type":"uint64","internalType":"uint64"}],"outputs":[],"stateMutability":"nonpayable"},{"type":"function","name":"heartbeatConfigs","inputs":[{"name":"","type":"uint64","internalType":"uint64"}],"outputs":[{"name":"interval","type":"uint64","internalType":"uint64"},{"name":"maxMissed","type":"uint8","internalType":"uint8"},{"name":"customMetrics","type":"bool","internalType":"bool"}],"stateMutability":"view"},{"type":"function","name":"isHeartbeatCurrent","inputs":[{"name":"serviceId","type":"uint64","internalType":"uint64"},{"name":"operator","type":"address","internalType":"address"}],"outputs":[{"name":"","type":"bool","internalType":"bool"}],"stateMutability":"view"},{"type":"function","name":"isOnline","inputs":[{"name":"serviceId","type":"uint64","internalType":"uint64"},{"name":"operator","type":"address","internalType":"address"}],"outputs":[{"name":"","type":"bool","internalType":"bool"}],"stateMutability":"view"},{"type":"function","name":"isRegisteredOperator","inputs":[{"name":"serviceId","type":"uint64","internalType":"uint64"},{"name":"operator","type":"address","internalType":"address"}],"outputs":[{"name":"","type":"bool","internalType":"bool"}],"stateMutability":"view"},{"type":"function","name":"metricValues","inputs":[{"name":"","type":"uint64","internalType":"uint64"},{"name":"","type":"address","internalType":"address"},{"name":"","type":"string","internalType":"string"}],"outputs":[{"name":"","type":"uint256","internalType":"uint256"}],"stateMutability":"view"},{"type":"function","name":"metricsRecorder","inputs":[],"outputs":[{"name":"","type":"address","internalType":"address"}],"stateMutability":"view"},{"type":"function","name":"operatorStates","inputs":[{"name":"","type":"uint64","internalType":"uint64"},{"name":"","type":"address","internalType":"address"}],"outputs":[{"name":"lastHeartbeat","type":"uint256","internalType":"uint256"},{"name":"consecutiveBeats","type":"uint64","internalType":"uint64"},{"name":"missedBeats","type":"uint8","internalType":"uint8"},{"name":"status","type":"uint8","internalType":"enum IOperatorStatusRegistry.StatusCode"},{"name":"lastMetricsHash","type":"bytes32","internalType":"bytes32"}],"stateMutability":"view"},{"type":"function","name":"owner","inputs":[],"outputs":[{"name":"","type":"address","internalType":"address"}],"stateMutability":"view"},{"type":"function","name":"pendingOwner","inputs":[],"outputs":[{"name":"","type":"address","internalType":"address"}],"stateMutability":"view"},{"type":"function","name":"registerOperator","inputs":[{"name":"serviceId","type":"uint64","internalType":"uint64"},{"name":"operator","type":"address","internalType":"address"}],"outputs":[],"stateMutability":"nonpayable"},{"type":"function","name":"registerServiceOwner","inputs":[{"name":"serviceId","type":"uint64","internalType":"uint64"},{"name":"owner","type":"address","internalType":"address"}],"outputs":[],"stateMutability":"nonpayable"},{"type":"function","name":"removeInactiveOperator","inputs":[{"name":"serviceId","type":"uint64","internalType":"uint64"},{"name":"operator","type":"address","internalType":"address"}],"outputs":[],"stateMutability":"nonpayable"},{"type":"function","name":"renounceOwnership","inputs":[],"outputs":[],"stateMutability":"nonpayable"},{"type":"function","name":"reportForSlashing","inputs":[{"name":"serviceId","type":"uint64","internalType":"uint64"},{"name":"operator","type":"address","internalType":"address"},{"name":"reason","type":"string","internalType":"string"}],"outputs":[],"stateMutability":"nonpayable"},{"type":"function","name":"serviceMetrics","inputs":[{"name":"","type":"uint64","internalType":"uint64"},{"name":"","type":"uint256","internalType":"uint256"}],"outputs":[{"name":"name","type":"string","internalType":"string"},{"name":"minValue","type":"uint256","internalType":"uint256"},{"name":"maxValue","type":"uint256","internalType":"uint256"},{"name":"required","type":"bool","internalType":"bool"}],"stateMutability":"view"},{"type":"function","name":"serviceOwners","inputs":[{"name":"","type":"uint64","internalType":"uint64"}],"outputs":[{"name":"","type":"address","internalType":"address"}],"stateMutability":"view"},{"type":"function","name":"setMetricDefinitions","inputs":[{"name":"serviceId","type":"uint64","internalType":"uint64"},{"name":"definitions","type":"tuple[]","internalType":"struct IOperatorStatusRegistry.MetricDefinition[]","components":[{"name":"name","type":"string","internalType":"string"},{"name":"minValue","type":"uint256","internalType":"uint256"},{"name":"maxValue","type":"uint256","internalType":"uint256"},{"name":"required","type":"bool","internalType":"bool"}]}],"outputs":[],"stateMutability":"nonpayable"},{"type":"function","name":"setMetricsRecorder","inputs":[{"name":"recorder","type":"address","internalType":"address"}],"outputs":[],"stateMutability":"nonpayable"},{"type":"function","name":"setSlashingOracle","inputs":[{"name":"oracle","type":"address","internalType":"address"}],"outputs":[],"stateMutability":"nonpayable"},{"type":"function","name":"slashingOracle","inputs":[],"outputs":[{"name":"","type":"address","internalType":"address"}],"stateMutability":"view"},{"type":"function","name":"submitHeartbeat","inputs":[{"name":"serviceId","type":"uint64","internalType":"uint64"},{"name":"blueprintId","type":"uint64","internalType":"uint64"},{"name":"statusCode","type":"uint8","internalType":"uint8"},{"name":"metrics","type":"bytes","internalType":"bytes"},{"name":"signature","type":"bytes","internalType":"bytes"}],"outputs":[],"stateMutability":"nonpayable"},{"type":"function","name":"submitHeartbeatDirect","inputs":[{"name":"serviceId","type":"uint64","internalType":"uint64"},{"name":"blueprintId","type":"uint64","internalType":"uint64"},{"name":"statusCode","type":"uint8","internalType":"uint8"},{"name":"metrics","type":"bytes","internalType":"bytes"}],"outputs":[],"stateMutability":"nonpayable"},{"type":"function","name":"tangleCore","inputs":[],"outputs":[{"name":"","type":"address","internalType":"address"}],"stateMutability":"view"},{"type":"function","name":"transferOwnership","inputs":[{"name":"newOwner","type":"address","internalType":"address"}],"outputs":[],"stateMutability":"nonpayable"},{"type":"function","name":"validateAndStoreMetrics","inputs":[{"name":"serviceId","type":"uint64","internalType":"uint64"},{"name":"operator","type":"address","internalType":"address"},{"name":"pairs","type":"tuple[]","internalType":"struct IOperatorStatusRegistry.MetricPair[]","components":[{"name":"name","type":"string","internalType":"string"},{"name":"value","type":"uint256","internalType":"uint256"}]},{"name":"pairsLen","type":"uint256","internalType":"uint256"}],"outputs":[],"stateMutability":"nonpayable"},{"type":"event","name":"HeartbeatConfigUpdated","inputs":[{"name":"serviceId","type":"uint64","indexed":true,"internalType":"uint64"},{"name":"interval","type":"uint64","indexed":false,"internalType":"uint64"},{"name":"maxMissed","type":"uint8","indexed":false,"internalType":"uint8"}],"anonymous":false},{"type":"event","name":"HeartbeatReceived","inputs":[{"name":"serviceId","type":"uint64","indexed":true,"internalType":"uint64"},{"name":"blueprintId","type":"uint64","indexed":true,"internalType":"uint64"},{"name":"operator","type":"address","indexed":true,"internalType":"address"},{"name":"statusCode","type":"uint8","indexed":false,"internalType":"uint8"},{"name":"timestamp","type":"uint256","indexed":false,"internalType":"uint256"}],"anonymous":false},{"type":"event","name":"MetricReported","inputs":[{"name":"serviceId","type":"uint64","indexed":true,"internalType":"uint64"},{"name":"operator","type":"address","indexed":true,"internalType":"address"},{"name":"metricName","type":"string","indexed":false,"internalType":"string"},{"name":"value","type":"uint256","indexed":false,"internalType":"uint256"}],"anonymous":false},{"type":"event","name":"MetricViolation","inputs":[{"name":"serviceId","type":"uint64","indexed":true,"internalType":"uint64"},{"name":"operator","type":"address","indexed":true,"internalType":"address"},{"name":"metricName","type":"string","indexed":false,"internalType":"string"},{"name":"reason","type":"string","indexed":false,"internalType":"string"}],"anonymous":false},{"type":"event","name":"OperatorCameOnline","inputs":[{"name":"serviceId","type":"uint64","indexed":true,"internalType":"uint64"},{"name":"operator","type":"address","indexed":true,"internalType":"address"}],"anonymous":false},{"type":"event","name":"OperatorDeregistered","inputs":[{"name":"serviceId","type":"uint64","indexed":true,"internalType":"uint64"},{"name":"operator","type":"address","indexed":true,"internalType":"address"}],"anonymous":false},{"type":"event","name":"OperatorRegistered","inputs":[{"name":"serviceId","type":"uint64","indexed":true,"internalType":"uint64"},{"name":"operator","type":"address","indexed":true,"internalType":"address"}],"anonymous":false},{"type":"event","name":"OperatorWentOffline","inputs":[{"name":"serviceId","type":"uint64","indexed":true,"internalType":"uint64"},{"name":"operator","type":"address","indexed":true,"internalType":"address"},{"name":"missedBeats","type":"uint8","indexed":false,"internalType":"uint8"}],"anonymous":false},{"type":"event","name":"OwnershipTransferStarted","inputs":[{"name":"previousOwner","type":"address","indexed":true,"internalType":"address"},{"name":"newOwner","type":"address","indexed":true,"internalType":"address"}],"anonymous":false},{"type":"event","name":"OwnershipTransferred","inputs":[{"name":"previousOwner","type":"address","indexed":true,"internalType":"address"},{"name":"newOwner","type":"address","indexed":true,"internalType":"address"}],"anonymous":false},{"type":"event","name":"SlashingTriggered","inputs":[{"name":"serviceId","type":"uint64","indexed":true,"internalType":"uint64"},{"name":"operator","type":"address","indexed":true,"internalType":"address"},{"name":"reason","type":"string","indexed":false,"internalType":"string"}],"anonymous":false},{"type":"event","name":"StatusChanged","inputs":[{"name":"serviceId","type":"uint64","indexed":true,"internalType":"uint64"},{"name":"operator","type":"address","indexed":true,"internalType":"address"},{"name":"oldStatus","type":"uint8","indexed":false,"internalType":"enum IOperatorStatusRegistry.StatusCode"},{"name":"newStatus","type":"uint8","indexed":false,"internalType":"enum IOperatorStatusRegistry.StatusCode"}],"anonymous":false},{"type":"error","name":"ECDSAInvalidSignature","inputs":[]},{"type":"error","name":"ECDSAInvalidSignatureLength","inputs":[{"name":"length","type":"uint256","internalType":"uint256"}]},{"type":"error","name":"ECDSAInvalidSignatureS","inputs":[{"name":"s","type":"bytes32","internalType":"bytes32"}]},{"type":"error","name":"OwnableInvalidOwner","inputs":[{"name":"owner","type":"address","internalType":"address"}]},{"type":"error","name":"OwnableUnauthorizedAccount","inputs":[{"name":"account","type":"address","internalType":"address"}]}],"bytecode":{"object":"0x60c06040523461005e5761001a610014610132565b9061020f565b610022610063565b6179866104cc823960805181610d8a015260a05181818161130b0152818161265e0152818161333e01528181615244015261612f015261798690f35b610069565b60405190565b5f80fd5b601f801991011690565b634e487b7160e01b5f52604160045260245ffd5b906100959061006d565b810190811060018060401b038211176100ad57604052565b610077565b906100c56100be610063565b928361008b565b565b5f80fd5b60018060a01b031690565b6100df906100cb565b90565b6100eb816100d6565b036100f257565b5f80fd5b90505190610103826100e2565b565b919060408382031261012d578061012161012a925f86016100f6565b936020016100f6565b90565b6100c7565b610150617e5280380380610145816100b2565b928339810190610105565b9091565b90565b61016b610166610170926100cb565b610154565b6100cb565b90565b61017c90610157565b90565b61018890610173565b90565b90565b6101979061018b565b9052565b90565b6101a79061019b565b9052565b6101b4906100d6565b9052565b90959492610203946101f26101fc926101e86080966101de60a088019c5f89019061018e565b602087019061018e565b604085019061018e565b606083019061019e565b01906101ab565b565b60200190565b5190565b90610219906102cc565b60a0527f8b73c3c69bb8fe3d512ecc4cf759cc79239f7b179b0ffacaa9a75d522b39400f6102b47f36ffc258c865193ae10c3cf640450ab772fdb8da1dfcae7862ad1205a5567f4c916102a57fc89efdaa54c0f20c7adf612882df0950f5a951637e0307cdcb4c672f298b8bc6466102903061017f565b91610299610063565b968795602087016101b8565b6020820181038252038261008b565b6102c66102c08261020b565b91610205565b20608052565b6102d590610317565b565b90565b6102ee6102e96102f3926102d7565b610154565b6100cb565b90565b6102ff906102da565b90565b9190610315905f602085019401906101ab565b565b8061033261032c6103275f6102f6565b6100d6565b916100d6565b1461034257610340906103e0565b565b61036561034e5f6102f6565b5f918291631e4fbdf760e01b835260048301610302565b0390fd5b1b90565b9190600861038d91029161038760018060a01b0384610369565b92610369565b9181191691161790565b6103a090610173565b90565b90565b91906103bc6103b76103c493610397565b6103a3565b90835461036d565b9055565b5f90565b6103de916103d86103c8565b916103a6565b565b6103f4906103ef5f60016103cc565b61046c565b565b5f1c90565b60018060a01b031690565b610412610417916103f6565b6103fb565b90565b6104249054610406565b90565b5f1b90565b9061043d60018060a01b0391610427565b9181191691161790565b9061045c61045761046392610397565b6103a3565b825461042c565b9055565b5f0190565b6104755f61041a565b61047f825f610447565b906104b36104ad7f8be0079c531659141344cd1fd0a4f28419497f9722a3daafe3b4186f6b6457e093610397565b91610397565b916104bc610063565b806104c681610467565b0390a356fe60806040526004361015610013575b6124b4565b61001d5f3561038c565b806305778550146103875780630758236f146103825780630c76697a1461037d578063191cbd1a146103785780631e8f5ee514610373578063208129561461036e57806322f1ec93146103695780632c957688146103645780632dae18851461035f57806331e3bd1b1461035a5780633644e515146103555780633ac3cbe6146103505780633e6e34a71461034b5780633fd62c6d1461034657806340235a9c1461034157806348f4da201461033c5780635685cf681461033757806356c4e17d1461033257806359dcea121461032d5780635a936dc6146103285780635cce98a6146103235780636076439c1461031e57806360cf09911461031957806361d6b86c1461031457806362c7e8fc1461030f57806365a6936e1461030a5780636bfe06a614610305578063715018a61461030057806371e7388c146102fb5780637639d227146102f657806379ba5097146102f15780637b9f64b2146102ec57806381beac2e146102e757806384ef7322146102e25780638da5cb5b146102dd57806396686c1e146102d85780639cbdae22146102d3578063adff830c146102ce578063ae470a85146102c9578063b074e9dd146102c4578063b99f6759146102bf578063ba1fb103146102ba578063c1ef9ddf146102b5578063c5d960bb146102b0578063cfe34749146102ab578063d413a580146102a6578063d551162c146102a1578063da435a7c1461029c578063e30c397814610297578063e65cafcb14610292578063ee1c03901461028d578063f2fde38b14610288578063f9107f3b14610283578063f9f167621461027e5763ffcf08f00361000e57612480565b61244b565b6123e8565b612388565b612352565b61231e565b6122e9565b6122b1565b6121df565b6121a5565b6120e7565b6120a5565b612070565b611f46565b611f12565b611ea5565b611e6b565b611da0565b611cd9565b611b50565b611a96565b611a63565b611a2c565b611997565b611964565b61192e565b6118f8565b61183c565b611807565b611799565b611554565b61150a565b611488565b611453565b6113e5565b61132d565b6112d4565b61129f565b61123a565b6111f0565b611184565b6110b0565b611076565b610e3e565b610dd1565b610d52565b610b98565b610afd565b610a5a565b6106b6565b610664565b610630565b610569565b61050f565b610440565b60e01c90565b60405190565b5f80fd5b5f80fd5b5f80fd5b67ffffffffffffffff1690565b6103ba816103a4565b036103c157565b5f80fd5b905035906103d2826103b1565b565b60018060a01b031690565b6103e8906103d4565b90565b6103f4816103df565b036103fb57565b5f80fd5b9050359061040c826103eb565b565b9190604083820312610436578061042a610433925f86016103c5565b936020016103ff565b90565b61039c565b5f0190565b3461046f5761045961045336600461040e565b9061264b565b610461610392565b8061046b8161043b565b0390f35b610398565b9060208282031261048d5761048a915f016103c5565b90565b61039c565b61049b906103a4565b9052565b60ff1690565b6104ae9061049f565b9052565b151590565b6104c0906104b2565b9052565b906040806104f8936104dc5f8201515f860190610492565b6104ee602082015160208601906104a5565b01519101906104b7565b565b919061050d905f606085019401906104c4565b565b3461053f5761053b61052a610525366004610474565b61272a565b610532610392565b918291826104fa565b0390f35b610398565b90565b61055090610544565b9052565b9190610567905f60208501940190610547565b565b3461059a5761059661058561057f36600461040e565b90612743565b61058d610392565b91829182610554565b0390f35b610398565b5f80fd5b5f80fd5b5f80fd5b909182601f830112156105e55781359167ffffffffffffffff83116105e05760200192602083028401116105db57565b6105a7565b6105a3565b61059f565b91909160408184031261062b57610603835f83016103c5565b92602082013567ffffffffffffffff81116106265761062292016105ab565b9091565b6103a0565b61039c565b3461065f576106496106433660046105ea565b916130cc565b610651610392565b8061065b8161043b565b0390f35b610398565b346106935761067d61067736600461040e565b90613332565b610685610392565b8061068f8161043b565b0390f35b610398565b906020828203126106b1576106ae915f016103ff565b90565b61039c565b346106e4576106ce6106c9366004610698565b613448565b6106d6610392565b806106e08161043b565b0390f35b610398565b6106f281610544565b036106f957565b5f80fd5b9050359061070a826106e9565b565b91906040838203126107345780610728610731925f86016103c5565b936020016106fd565b90565b61039c565b90565b61075061074b610755926103a4565b610739565b6103a4565b90565b906107629061073c565b5f5260205260405f2090565b634e487b7160e01b5f52603260045260245ffd5b5490565b5f5260205f2090565b5f5260205f2090565b6107a181610782565b8210156107bb576107b3600491610786565b910201905f90565b61076e565b634e487b7160e01b5f52602260045260245ffd5b90600160028304921680156107f4575b60208310146107ef57565b6107c0565b91607f16916107e4565b60209181520190565b5f5260205f2090565b905f929180549061082a610823836107d4565b80946107fe565b916001811690815f146108815750600114610845575b505050565b6108529192939450610807565b915f925b81841061086957505001905f8080610840565b60018160209295939554848601520191019290610856565b92949550505060ff19168252151560200201905f8080610840565b906108a691610810565b90565b601f801991011690565b634e487b7160e01b5f52604160045260245ffd5b906108d1906108a9565b810190811067ffffffffffffffff8211176108eb57604052565b6108b3565b9061091061090992610900610392565b9384809261089c565b03836108c7565b565b5f1c90565b90565b61092661092b91610912565b610917565b90565b610938905461091a565b90565b60ff1690565b61094d61095291610912565b61093b565b90565b61095f9054610941565b90565b61096d906008610758565b9061097782610782565b8110156109bd5761098791610798565b50906109945f83016108f0565b916109a16001820161092e565b916109ba60036109b36002850161092e565b9301610955565b90565b5f80fd5b5190565b60209181520190565b90825f9392825e0152565b6109f8610a01602093610a06936109ef816109c1565b938480936109c5565b958691016109ce565b6108a9565b0190565b610a13906104b2565b9052565b610a51610a5894610a47610a3c6060959998969960808601908682035f8801526109d9565b986020850190610547565b6040830190610547565b0190610a0a565b565b34610a8f57610a8b610a76610a7036600461070c565b90610962565b90610a82949294610392565b94859485610a17565b0390f35b610398565b5f910312610a9e57565b61039c565b90565b610aba610ab5610abf92610aa3565b610739565b6103a4565b90565b610acd61012c610aa6565b90565b610ad8610ac2565b90565b610ae4906103a4565b9052565b9190610afb905f60208501940190610adb565b565b34610b2d57610b0d366004610a94565b610b29610b18610ad0565b610b20610392565b91829182610ae8565b0390f35b610398565b1c90565b60018060a01b031690565b610b51906008610b569302610b32565b610b36565b90565b90610b649154610b41565b90565b610b73600b5f90610b59565b90565b610b7f906103df565b9052565b9190610b96905f60208501940190610b76565b565b34610bc857610ba8366004610a94565b610bc4610bb3610b67565b610bbb610392565b91829182610b83565b0390f35b610398565b909182601f83011215610c075781359167ffffffffffffffff8311610c02576020019260018302840111610bfd57565b6105a7565b6105a3565b61059f565b90602082820312610c3d575f82013567ffffffffffffffff8111610c3857610c349201610bcd565b9091565b6103a0565b61039c565b5190565b60209181520190565b60200190565b610c74610c7d602093610c8293610c6b816109c1565b938480936107fe565b958691016109ce565b6108a9565b0190565b610c8f90610544565b9052565b90610cbd90602080610cb2604084015f8701518582035f870152610c55565b940151910190610c86565b90565b90610cca91610c93565b90565b60200190565b90610ce7610ce083610c42565b8092610c46565b9081610cf860208302840194610c4f565b925f915b838310610d0b57505050505090565b90919293946020610d2d610d2783856001950387528951610cc0565b97610ccd565b9301930191939290610cfc565b610d4f9160208201915f818403910152610cd3565b90565b34610d8357610d7f610d6e610d68366004610c0c565b9061348d565b610d76610392565b91829182610d3a565b0390f35b610398565b7f000000000000000000000000000000000000000000000000000000000000000090565b90565b610db890610dac565b9052565b9190610dcf905f60208501940190610daf565b565b34610e0157610de1366004610a94565b610dfd610dec610d88565b610df4610392565b91829182610dbc565b0390f35b610398565b90565b610e1d610e18610e2292610e06565b610739565b6103a4565b90565b610e30610e10610e09565b90565b610e3b610e25565b90565b34610e6e57610e4e366004610a94565b610e6a610e59610e33565b610e61610392565b91829182610ae8565b0390f35b610398565b90610e7d9061073c565b5f5260205260405f2090565b610e9d610e98610ea2926103d4565b610739565b6103d4565b90565b610eae90610e89565b90565b610eba90610ea5565b90565b90610ec790610eb1565b5f5260205260405f2090565b67ffffffffffffffff1690565b610eec610ef191610912565b610ed3565b90565b610efe9054610ee0565b90565b60401c90565b60ff1690565b610f19610f1e91610f01565b610f07565b90565b610f2b9054610f0d565b90565b60481c90565b60ff1690565b610f46610f4b91610f2e565b610f34565b90565b610f589054610f3a565b90565b90565b610f6a610f6f91610912565b610f5b565b90565b610f7c9054610f5e565b90565b90610f8e610f93926003610e73565b610ebd565b610f9e5f820161092e565b91610fab60018301610ef4565b91610fb860018201610f21565b91610fd16002610fca60018501610f4e565b9301610f72565b90565b610fdd9061049f565b9052565b634e487b7160e01b5f52602160045260245ffd5b60051115610fff57565b610fe1565b9061100e82610ff5565b565b61101990611004565b90565b61102590611010565b9052565b909594926110749461106361106d9261105960809661104f60a088019c5f890190610547565b6020870190610adb565b6040850190610fd4565b606083019061101c565b0190610daf565b565b346110ab576110a761109261108c36600461040e565b90610f7f565b9161109e959395610392565b95869586611029565b0390f35b610398565b346110e0576110dc6110cb6110c6366004610474565b6134a7565b6110d3610392565b91829182610554565b0390f35b610398565b5190565b60209181520190565b60200190565b611101906103df565b9052565b90611112816020936110f8565b0190565b60200190565b9061113961113361112c846110e5565b80936110e9565b926110f2565b905f5b8181106111495750505090565b90919261116261115c6001928651611105565b94611116565b910191909161113c565b6111819160208201915f81840391015261111c565b90565b346111b4576111b061119f61119a366004610474565b613561565b6111a7610392565b9182918261116c565b0390f35b610398565b90565b6111d06111cb6111d5926111b9565b610739565b610544565b90565b6111e260c86111bc565b90565b6111ed6111d8565b90565b3461122057611200366004610a94565b61121c61120b6111e5565b611213610392565b91829182610554565b0390f35b610398565b9190611238905f60208501940190610a0a565b565b3461126b5761126761125661125036600461040e565b90613601565b61125e610392565b91829182611225565b0390f35b610398565b9061127a9061073c565b5f5260205260405f2090565b61129c906112976007915f92611270565b610b59565b90565b346112cf576112cb6112ba6112b5366004610474565b611286565b6112c2610392565b91829182610b83565b0390f35b610398565b34611304576113006112ef6112ea366004610474565b613688565b6112f7610392565b9182918261116c565b0390f35b610398565b7f000000000000000000000000000000000000000000000000000000000000000090565b3461135d5761133d366004610a94565b611359611348611309565b611350610392565b91829182610b83565b0390f35b610398565b61136b8161049f565b0361137257565b5f80fd5b9050359061138382611362565b565b906080828203126113e05761139c815f84016103c5565b926113aa82602085016103c5565b926113b88360408301611376565b92606082013567ffffffffffffffff81116113db576113d79201610bcd565b9091565b6103a0565b61039c565b34611417576114016113f8366004611385565b9392909261377c565b611409610392565b806114138161043b565b0390f35b610398565b90565b61143361142e6114389261141c565b610739565b610544565b90565b611445603261141f565b90565b61145061143b565b90565b3461148357611463366004610a94565b61147f61146e611448565b611476610392565b91829182610554565b0390f35b610398565b346114b9576114b56114a461149e36600461040e565b9061378b565b6114ac610392565b91829182611225565b0390f35b610398565b90565b6114d56114d06114da926114be565b610739565b61049f565b90565b6114e760036114c1565b90565b6114f26114dd565b90565b9190611508905f60208501940190610fd4565b565b3461153a5761151a366004610a94565b6115366115256114ea565b61152d610392565b918291826114f5565b0390f35b610398565b9190611552905f6020850194019061101c565b565b346115855761158161157061156a36600461040e565b906137b7565b611578610392565b9182918261153f565b0390f35b610398565b9061159d611596610392565b92836108c7565b565b67ffffffffffffffff81116115b75760208091020190565b6108b3565b5f80fd5b5f80fd5b5f80fd5b67ffffffffffffffff81116115e6576115e26020916108a9565b0190565b6108b3565b90825f939282370152565b9092919261160b611606826115c8565b61158a565b9381855260208501908284011161162757611625926115eb565b565b6115c4565b9080601f8301121561164a57816020611647933591016115f6565b90565b61059f565b9190916040818403126116a257611666604061158a565b925f8201359167ffffffffffffffff831161169d5761168a8261169694830161162c565b5f8601526020016106fd565b6020830152565b6115c0565b6115bc565b9291906116bb6116b68261159f565b61158a565b93818552602080860192028101918383116117125781905b8382106116e1575050505050565b813567ffffffffffffffff811161170d57602091611702878493870161164f565b8152019101906116d3565b61059f565b6105a7565b9080601f8301121561173557816020611732933591016116a7565b90565b61059f565b60808183031261179457611750825f83016103c5565b9261175e83602084016103ff565b9260408301359067ffffffffffffffff821161178f576117838161178c938601611717565b936060016106fd565b90565b6103a0565b61039c565b346117cb576117b56117ac36600461173a565b92919091613ba7565b6117bd610392565b806117c78161043b565b0390f35b610398565b90565b6117e76117e26117ec926117d0565b610739565b610544565b90565b6117f960406117d3565b90565b6118046117ef565b90565b3461183757611817366004610a94565b6118336118226117fc565b61182a610392565b91829182610554565b0390f35b610398565b3461186a5761184c366004610a94565b6118546141d6565b61185c610392565b806118668161043b565b0390f35b610398565b61187890611010565b9052565b61188590610dac565b9052565b906080806118e1936118a15f8201515f860190610c86565b6118b360208201516020860190610492565b6118c5604082015160408601906104a5565b6118d76060820151606086019061186f565b015191019061187c565b565b91906118f6905f60a08501940190611889565b565b346119295761192561191461190e36600461040e565b90614313565b61191c610392565b918291826118e3565b0390f35b610398565b3461195f5761195b61194a61194436600461040e565b9061436b565b611952610392565b91829182610ae8565b0390f35b610398565b3461199257611974366004610a94565b61197c614393565b611984610392565b8061198e8161043b565b0390f35b610398565b346119c7576119c36119b26119ad366004610474565b6143e4565b6119ba610392565b91829182610554565b0390f35b610398565b9091606082840312611a01576119fe6119e7845f85016103c5565b936119f581602086016106fd565b936040016106fd565b90565b61039c565b92916020611a22611a2a9360408701908782035f89015261111c565b940190610547565b565b34611a5e57611a45611a3f3660046119cc565b9161449e565b90611a5a611a51610392565b92839283611a06565b0390f35b610398565b34611a9157611a7b611a76366004610698565b614625565b611a83610392565b80611a8d8161043b565b0390f35b610398565b34611ac657611aa6366004610a94565b611ac2611ab1614634565b611ab9610392565b91829182610b83565b0390f35b610398565b909182601f83011215611b055781359167ffffffffffffffff8311611b00576020019260208302840111611afb57565b6105a7565b6105a3565b61059f565b919091604081840312611b4b57611b23835f83016103c5565b92602082013567ffffffffffffffff8111611b4657611b429201611acb565b9091565b6103a0565b61039c565b34611b7f57611b69611b63366004611b0a565b916146bb565b611b71610392565b80611b7b8161043b565b0390f35b610398565b91606083830312611bd057611b9b825f85016103c5565b92611ba983602083016103ff565b92604082013567ffffffffffffffff8111611bcb57611bc8920161162c565b90565b6103a0565b61039c565b90611bdf9061073c565b5f5260205260405f2090565b90611bf590610eb1565b5f5260205260405f2090565b905090565b611c2b611c2292602092611c19816109c1565b94858093611c01565b938491016109ce565b0190565b90565b611c3e611c4391610544565b611c2f565b9052565b611c57611c5e9160209493611c06565b8092611c32565b0190565b611c76611c6d610392565b92839283611c47565b03902090565b611c8591611c62565b90565b611c98906008611c9d9302610b32565b610917565b90565b90611cab9154611c88565b90565b90611cd692611ccc611cd192611cc76009955f96611bd5565b611beb565b611c7c565b611ca0565b90565b34611d0a57611d06611cf5611cef366004611b84565b91611cae565b611cfd610392565b91829182610554565b0390f35b610398565b909182601f83011215611d495781359167ffffffffffffffff8311611d44576020019260018302840111611d3f57565b6105a7565b6105a3565b61059f565b91606083830312611d9b57611d65825f85016103c5565b92611d7383602083016103ff565b92604082013567ffffffffffffffff8111611d9657611d929201611d0f565b9091565b6103a0565b61039c565b34611dd257611dbc611db3366004611d4e565b9291909161493c565b611dc4610392565b80611dce8161043b565b0390f35b610398565b611de0816104b2565b03611de757565b5f80fd5b90503590611df882611dd7565b565b91909160a081840312611e6657611e13835f83016103c5565b92602082013567ffffffffffffffff8111611e615781611e34918401611d0f565b929093611e5e611e4784604085016106fd565b93611e5581606086016106fd565b93608001611deb565b90565b6103a0565b61039c565b34611ea057611e8a611e7e366004611dfa565b94939093929192614c11565b611e92610392565b80611e9c8161043b565b0390f35b610398565b34611ed357611ebd611eb8366004610474565b614fc6565b611ec5610392565b80611ecf8161043b565b0390f35b610398565b9091606082840312611f0d57611f0a611ef3845f85016103c5565b93611f0181602086016103c5565b93604001611376565b90565b61039c565b34611f4157611f2b611f25366004611ed8565b9161523b565b611f33610392565b80611f3d8161043b565b0390f35b610398565b34611f7557611f5f611f5936600461040e565b9061541f565b611f67610392565b80611f718161043b565b0390f35b610398565b5190565b60209181520190565b60200190565b90611fdb90606080611fac608084015f8701518582035f870152610c55565b94611fbf60208201516020860190610c86565b611fd160408201516040860190610c86565b01519101906104b7565b90565b90611fe891611f8d565b90565b60200190565b90612005611ffe83611f7a565b8092611f7e565b908161201660208302840194611f87565b925f915b83831061202957505050505090565b9091929394602061204b61204583856001950387528951611fde565b97611feb565b930193019193929061201a565b61206d9160208201915f818403910152611ff1565b90565b346120a05761209c61208b612086366004610474565b615796565b612093610392565b91829182612058565b0390f35b610398565b346120d3576120bd6120b8366004610474565b615926565b6120c5610392565b806120cf8161043b565b0390f35b610398565b6120e4600a5f90610b59565b90565b34612117576120f7366004610a94565b6121136121026120d8565b61210a610392565b91829182610b83565b0390f35b610398565b909160a0828403126121a057612134835f84016103c5565b9261214281602085016103c5565b926121508260408301611376565b92606082013567ffffffffffffffff811161219b5783612171918401610bcd565b929093608082013567ffffffffffffffff8111612196576121929201610bcd565b9091565b6103a0565b6103a0565b61039c565b346121da576121c46121b836600461211c565b95949094939193615c29565b6121cc610392565b806121d68161043b565b0390f35b610398565b346122135761220f6121fe6121f5366004611d4e565b92919091615c9c565b612206610392565b91829182610554565b0390f35b610398565b906122229061073c565b5f5260205260405f2090565b61223a61223f91610f2e565b61093b565b90565b61224c905461222e565b90565b61225a906002612218565b6122655f8201610ef4565b9161227c5f612275818501610f21565b9301612242565b90565b6040906122a86122af949695939661229e60608401985f850190610adb565b6020830190610fd4565b0190610a0a565b565b346122e4576122e06122cc6122c7366004610474565b61224f565b6122d7939193610392565b9384938461227f565b0390f35b610398565b34612319576122f9366004610a94565b612315612304615cd1565b61230c610392565b91829182610b83565b0390f35b610398565b3461234d5761233761233136600461040e565b90615dbb565b61233f610392565b806123498161043b565b0390f35b610398565b346123835761237f61236e61236836600461040e565b90615f50565b612376610392565b91829182611225565b0390f35b610398565b346123b6576123a061239b366004610698565b61604f565b6123a8610392565b806123b28161043b565b0390f35b610398565b91906040838203126123e357806123d76123e0925f86016103c5565b93602001611deb565b90565b61039c565b34612417576124016123fb3660046123bb565b9061605a565b612409610392565b806124138161043b565b0390f35b610398565b7fe1675f8364c07a4d60a07503f0d700a7bcacd82251dff0f070e5235de6c6d28a90565b61244861241c565b90565b3461247b5761245b366004610a94565b612477612466612440565b61246e610392565b91829182610dbc565b0390f35b610398565b346124af5761249961249336600461040e565b90616123565b6124a1610392565b806124ab8161043b565b0390f35b610398565b5f80fd5b5f7f4f6e6c792054616e676c6520636f726500000000000000000000000000000000910152565b6124ec60106020926109c5565b6124f5816124b8565b0190565b61250e9060208101905f8183039101526124df565b90565b1561251857565b612520610392565b62461bcd60e51b815280612536600482016124f9565b0390fd5b61254661254b91610912565b610b36565b90565b612558905461253a565b90565b90565b61257261256d6125779261255b565b610739565b6103d4565b90565b6125839061255e565b90565b5f7f416c726561647920726567697374657265640000000000000000000000000000910152565b6125ba60126020926109c5565b6125c381612586565b0190565b6125dc9060208101905f8183039101526125ad565b90565b156125e657565b6125ee610392565b62461bcd60e51b815280612604600482016125c7565b0390fd5b5f1b90565b9061261e60018060a01b0391612608565b9181191691161790565b90565b9061264061263b61264792610eb1565b612628565b825461260d565b9055565b6126cd6126d29261268e336126886126827f00000000000000000000000000000000000000000000000000000000000000006103df565b916103df565b14612511565b6126c56126a56126a060078690611270565b61254e565b6126bf6126b96126b45f61257a565b6103df565b916103df565b146125df565b916007611270565b61262b565b565b6126de606061158a565b90565b5f90565b5f90565b5f90565b6126f56126d4565b9060208080846127036126e1565b81520161270e6126e5565b8152016127196126e9565b81525050565b6127276126ed565b90565b61273c9061273661271f565b5061624b565b90565b5f90565b61276461276a9261275f5f9361275761273f565b506003610e73565b610ebd565b0161092e565b90565b5f7f4e6f742073657276696365206f776e6572000000000000000000000000000000910152565b6127a160116020926109c5565b6127aa8161276d565b0190565b6127c39060208101905f818303910152612794565b90565b156127cd57565b6127d5610392565b62461bcd60e51b8152806127eb600482016127ae565b0390fd5b5090565b5f7f546f6f206d616e7920646566696e6974696f6e73000000000000000000000000910152565b61282760146020926109c5565b612830816127f3565b0190565b6128499060208101905f81830391015261281a565b90565b1561285357565b61285b610392565b62461bcd60e51b81528061287160048201612834565b0390fd5b634e487b7160e01b5f52601160045260245ffd5b61289861289e91939293610544565b92610544565b916128aa838202610544565b9281840414901517156128b957565b612875565b6128c9906004612889565b90565b906128df905f1990602003600802610b32565b8154169055565b1b90565b919060086129059102916128ff5f19846128e6565b926128e6565b9181191691161790565b61292361291e61292892610544565b610739565b610544565b90565b90565b919061294461293f61294c9361290f565b61292b565b9083546128ea565b9055565b6129629161295c61273f565b9161292e565b565b5b818110612970575050565b8061297d5f600193612950565b01612965565b90612993905f1990600802610b32565b191690565b816129a291612983565b906002021790565b905f916129c16129b982610807565b928354612998565b905555565b601f602091010490565b919290602082105f14612a2957601f84116001146129f9576129f3929350612998565b90555b5b565b5090612a1f612a24936001612a16612a1085610807565b926129c6565b82019101612964565b6129aa565b6129f6565b50612a608293612a3a600194610807565b612a59612a46856129c6565b820192601f861680612a6b575b506129c6565b0190612964565b6002021790556129f7565b612a77908886036128cc565b5f612a53565b929091680100000000000000008211612add576020115f14612ace57602081105f14612ab257612aac91612998565b90555b5b565b60019160ff1916612ac284610807565b55600202019055612aaf565b60019150600202019055612ab0565b6108b3565b908154612aee816107d4565b90818311612b17575b818310612b05575b50505050565b612b0e936129d0565b5f808080612aff565b612b2383838387612a7d565b612af7565b5f612b3291612ae2565b565b634e487b7160e01b5f525f60045260245ffd5b905f03612b5957612b5790612b28565b565b612b34565b60035f91612b6e83808301612b47565b612b7b8360018301612950565b612b888360028301612950565b0155565b905f03612b9e57612b9c90612b5e565b565b612b34565b5b818110612baf575050565b80612bbc5f600493612b8c565b01612ba4565b9091828110612bd1575b505050565b612bef612be9612be3612bfa956128be565b926128be565b92610786565b918201910190612ba3565b5f8080612bcc565b90680100000000000000008111612c2b5781612c20612c2993610782565b90828155612bc2565b565b6108b3565b5f612c3a91612c02565b565b905f03612c4e57612c4c90612c30565b565b612b34565b612c67612c62612c6c9261255b565b610739565b610544565b90565b6001612c7b9101610544565b90565b5f80fd5b5f80fd5b5f80fd5b903590600160800381360303821215612ca1570190565b612c7e565b90821015612cc0576020612cbd9202810190612c8a565b90565b61076e565b903590600160200381360303821215612d07570180359067ffffffffffffffff8211612d0257602001916001820236038313612cfd57565b612c86565b612c82565b612c7e565b91565b5090565b5f7f4e616d6520746f6f206c6f6e6700000000000000000000000000000000000000910152565b612d47600d6020926109c5565b612d5081612d13565b0190565b612d699060208101905f818303910152612d3a565b90565b15612d7357565b612d7b610392565b62461bcd60e51b815280612d9160048201612d54565b0390fd5b35612d9f816106e9565b90565b5f7f496e76616c696420626f756e6473000000000000000000000000000000000000910152565b612dd6600e6020926109c5565b612ddf81612da2565b0190565b612df89060208101905f818303910152612dc9565b90565b15612e0257565b612e0a610392565b62461bcd60e51b815280612e2060048201612de3565b0390fd5b90565b5f5260205f2090565b5490565b612e3d81612e30565b821015612e5757612e4f600491612e27565b910201905f90565b61076e565b5090565b9190601f8111612e70575b505050565b612e7c612ea193610807565b906020612e88846129c6565b83019310612ea9575b612e9a906129c6565b0190612964565b5f8080612e6b565b9150612e9a81929050612e91565b91612ec29082612e5c565b9067ffffffffffffffff8211612f8157612ee682612ee085546107d4565b85612e60565b5f90601f8311600114612f1957918091612f08935f92612f0d575b5050612998565b90555b565b90915001355f80612f01565b601f19831691612f2885610807565b925f5b818110612f6957509160029391856001969410612f4f575b50505002019055612f0b565b612f5f910135601f841690612983565b90555f8080612f43565b91936020600181928787013581550195019201612f2b565b6108b3565b90612f919291612eb7565b565b90612f9f5f1991612608565b9181191691161790565b90612fbe612fb9612fc59261290f565b61292b565b8254612f93565b9055565b35612fd381611dd7565b90565b90612fe260ff91612608565b9181191691161790565b612ff5906104b2565b90565b90565b9061301061300b61301792612fec565b612ff8565b8254612fd6565b9055565b906130796060600361307f9461303f5f82016130395f880188612cc5565b91612f86565b6130586001820161305260208801612d95565b90612fa9565b6130716002820161306b60408801612d95565b90612fa9565b019201612fc9565b90612ffb565b565b9190613092576130909161301b565b565b612b34565b90815491680100000000000000008310156130c757826130bf9160016130c595018155612e34565b90613081565b565b6108b3565b929190926130ff336130f96130f36130ee6130e960078790611270565b61254e565b6103df565b916103df565b146127c6565b61312d61310d8584906127ef565b61312661312061311b61143b565b610544565b91610544565b111561284c565b6131425f61313d60088490610758565b612c3c565b61314b5f612c53565b5b8061316961316361315e8887906127ef565b610544565b91610544565b101561323c57613237906131c06131a061319a61319461318b8a898791612ca6565b5f810190612cc5565b90612d0c565b90612d0f565b6131b96131b36131ae6117ef565b610544565b91610544565b1115612d6c565b6132096131da60406131d489888691612ca6565b01612d95565b6132026131fc6131f760206131f18c8b8991612ca6565b01612d95565b610544565b91610544565b1015612dfb565b61323261322061321b60088690610758565b612e24565b61322c88878591612ca6565b90613097565b612c6f565b61314c565b5050509050565b5f7f5a65726f20616464726573730000000000000000000000000000000000000000910152565b613277600c6020926109c5565b61328081613243565b0190565b6132999060208101905f81830391015261326a565b90565b156132a357565b6132ab610392565b62461bcd60e51b8152806132c160048201613284565b0390fd5b906132cf9061073c565b5f5260205260405f2090565b90565b60481b90565b906132f969ff000000000000000000916132de565b9181191691161790565b61330c90611004565b90565b90565b9061332761332261332e92613303565b61330f565b82546132e4565b9055565b61336e336133686133627f00000000000000000000000000000000000000000000000000000000000000006103df565b916103df565b14612511565b6133938261338c6133866133815f61257a565b6103df565b916103df565b141561329c565b6133b96133b46133ad6133a8600685906132c5565b6132db565b8490616329565b6125df565b6133dc600260016133d66133cf60038690610e73565b8690610ebd565b01613312565b9061341061340a7f8e2d88795a3c66719a287658cbf68b3eb2b8e183cb18f46f4813913fc8aafc4b9361073c565b91610eb1565b91613419610392565b806134238161043b565b0390a3565b61343990613434616363565b61343b565b565b61344690600b61262b565b565b61345190613428565b565b606090565b90602082820312613488575f82013567ffffffffffffffff8111613483576134809201611717565b90565b6103a0565b61039c565b906134a49161349a613453565b5090810190613458565b90565b6134c66134c16134cb926134b961273f565b5060056132c5565b6132db565b6163b1565b90565b606090565b67ffffffffffffffff81116134eb5760208091020190565b6108b3565b906135026134fd836134d3565b61158a565b918252565b369037565b90613531613519836134f0565b9260208061352786936134d3565b9201910390613507565b565b9061353d826110e5565b81101561354e576020809102010190565b61076e565b9061355d906103df565b9052565b9061356a6134ce565b5061358761358261357d600485906132c5565b6132db565b6163b1565b916135918361350c565b9161359b5f612c53565b5b806135af6135a987610544565b91610544565b10156135f6576135f1906135ec6135da6135d36135ce600488906132c5565b6132db565b8390616400565b6135e78791849092613533565b613553565b612c6f565b61359c565b5092505090565b5f90565b9061360a6135fd565b5061362c600161362661361f60038690610e73565b8490610ebd565b01610f4e565b61363e6136385f611004565b91611004565b1491821561364c575b505090565b61366d9250600191613662613667926003610e73565b610ebd565b01610f4e565b61368061367a6001611004565b91611004565b145f80613647565b6136ae906136946134ce565b505f906136a86136a26111d8565b92612c53565b9061449e565b5090565b5f7f4e6f742072656769737465726564206f70657261746f72000000000000000000910152565b6136e660176020926109c5565b6136ef816136b2565b0190565b6137089060208101905f8183039101526136d9565b90565b1561371257565b61371a610392565b62461bcd60e51b815280613730600482016136f3565b0390fd5b906137669493929161376161375c6137556137508460066132c5565b6132db565b3390616438565b61370b565b613768565b565b9161377a9492939133919293946165e7565b565b9061378994939291613734565b565b906137ab6137a66137b09361379e6135fd565b5060066132c5565b6132db565b616438565b90565b5f90565b6137d96137df926137d46001936137cc6137b3565b506003610e73565b610ebd565b01610f4e565b90565b6137eb90610ea5565b90565b5f7f496e7465726e616c206f6e6c7900000000000000000000000000000000000000910152565b613822600d6020926109c5565b61382b816137ee565b0190565b6138449060208101905f818303910152613815565b90565b1561384e57565b613856610392565b62461bcd60e51b81528061386c6004820161382f565b0390fd5b67ffffffffffffffff81116138885760208091020190565b6108b3565b9061389f61389a83613870565b61158a565b918252565b369037565b906138ce6138b68361388d565b926020806138c48693613870565b92019103906138a4565b565b906138da82610c42565b8110156138eb576020809102010190565b61076e565b90565b60200190565b5190565b5190565b9061390b826138fd565b81101561391c576020809102010190565b61076e565b9061392b90610dac565b9052565b606090565b90565b60209181520190565b905f929180549061395a613953836107d4565b8094613937565b916001811690815f146139b15750600114613975575b505050565b613982919293945061078f565b915f925b81841061399957505001905f8080613970565b60018160209295939554848601520191019290613986565b92949550505060ff19168252151560200201905f8080613970565b906139d691613940565b90565b906139f96139f2926139e9610392565b938480926139cc565b03836108c7565b565b613a04906139d9565b90565b613a119051610dac565b90565b613a1e9051610544565b90565b5f7f56616c7565206f7574206f6620626f756e647300000000000000000000000000910152565b613a5560136020926109c5565b613a5e81613a21565b0190565b613a7a613a889260408301908382035f8501526109d9565b906020818303910152613a48565b90565b92916020613aa7613aaf9360408701908782035f8901526109d9565b940190610547565b565b905f9291805490613acb613ac4836107d4565b80946109c5565b916001811690815f14613b225750600114613ae6575b505050565b613af39192939450610807565b915f925b818410613b0a57505001905f8080613ae1565b60018160209295939554848601520191019290613af7565b92949550505060ff19168252151560200201905f8080613ae1565b5f7f5265717569726564206d6574726963206d697373696e67000000000000000000910152565b613b7160176020926109c5565b613b7a81613b3d565b0190565b613b96613ba49260408301908382035f850152613ab1565b906020818303910152613b64565b90565b92939093613bcf33613bc9613bc3613bbe306137e2565b6103df565b916103df565b14613847565b613be3613bde60088690610758565b612e24565b94613bed826138a9565b94613bf75f612c53565b5b80613c0b613c0586610544565b91610544565b1015613c5e57613c5990613c54613c2f5f613c278a85906138d0565b5101516138f0565b613c41613c3b826138f9565b916138f3565b20613c4f8a91849092613901565b613921565b612c6f565b613bf8565b509194909295613c6d81612e30565b613c7f613c795f612c53565b91610544565b1196613c8961392f565b9088614109575b613c995f612c53565b5b80613cad613ca78b610544565b91610544565b1015613f6c5760015f8b613da0575b5090888789613cd294613cd7575b505050612c6f565b613c9a565b825f613d15613d0d613d1e94613d08613d006020613cf9613d239b8d906138d0565b5101613a14565b976009611bd5565b611beb565b9287906138d0565b51015190611c7c565b612fa9565b88878990613d4d6020613d465f613d3b8789906138d0565b5101519587906138d0565b5101613a14565b613d80613d7a7f23ed02bd3605bdea6a8afa76c46f00d274860ba6cea980f2585b696df9e182bd9361073c565b93610eb1565b93613d95613d8c610392565b92839283613a8b565b0390a3888789613cca565b9a9095929199613daf5f612c53565b5b80613dcb613dc5613dc08a612e30565b610544565b91610544565b1015613f5657613de3613dde8d87613901565b613a07565b613e07613e01613dfc613df78a8690613901565b613a07565b610dac565b91610dac565b14613e1a57613e1590612c6f565b613db0565b8a919b929c5089613cd29495988a926001908a613e446020613e3d898b906138d0565b5101613a14565b613e6c613e66613e616001613e5a868890612e34565b500161092e565b610544565b91610544565b109188888415613f0c575b50505050613ea1575b613e8b905b156104b2565b613e9a575b9394505050613cbc565b505f613e90565b905082825f613eb18789906138d0565b51015191613efd613eeb613ee57fe08f42896ce3aec2ff7da95a00372f33cf677e75ad602590832a8dffcdad63159361073c565b93610eb1565b93613ef4610392565b91829182613a62565b0390a3613e8b5f919050613e80565b613f4c939450613f3a613f4693613f346020613f2d613f41966002966138d0565b5101613a14565b96612e34565b500161092e565b610544565b91610544565b118a5f8888613e77565b5099909a8789613cd2949598613e8b8d94613e85565b509750509293509350613f7e5f612c53565b935b84613f9b613f95613f9086612e30565b610544565b91610544565b101561410257613fc1613fbb6003613fb4868990612e34565b5001610955565b156104b2565b6140f757613fe3613fde5f613fd7868990612e34565b5001613934565b6139fb565b613ff5613fef826138f9565b916138f3565b20905f966140025f612c53565b5b8061401e614018614013866138fd565b610544565b91610544565b10156140e557614037614032848390613901565b613a07565b61404961404386610dac565b91610dac565b1461405c5761405790612c6f565b614003565b509590965061407d915061407260015b156104b2565b614084575b5b612c6f565b9394613f80565b82855f614092878590612e34565b5001916140dd6140cb6140c57fe08f42896ce3aec2ff7da95a00372f33cf677e75ad602590832a8dffcdad63159361073c565b93610eb1565b936140d4610392565b91829182613b7e565b0390a3614077565b5095909661407d92506140729061406c565b949361407d90614078565b5050505050565b9693905061412361411e839794999693612e30565b6138a9565b9761412d5f612c53565b5b8061414961414361413e8b612e30565b610544565b91610544565b10156141a35761419e9061419961417461416f5f6141688d8690612e34565b5001613934565b6139fb565b614186614180826138f9565b916138f3565b206141948d91849092613901565b613921565b612c6f565b61412e565b509295919497909396613c90565b6141b9616363565b6141c16141c3565b565b6141d46141cf5f61257a565b616a59565b565b6141de6141b1565b565b6141ea60a061158a565b90565b5f90565b5f90565b5f90565b6142016141e0565b90602080808080866142116141ed565b81520161421c6126e1565b8152016142276126e5565b8152016142326141f1565b81520161423d6141f5565b81525050565b61424b6141f9565b90565b9061425890610544565b9052565b90614266906103a4565b9052565b906142749061049f565b9052565b9061428290611004565b9052565b906143056142fc60026142976141e0565b946142ae6142a65f830161092e565b5f880161424e565b6142c66142bd60018301610ef4565b6020880161425c565b6142de6142d560018301610f21565b6040880161426a565b6142f66142ed60018301610f4e565b60608801614278565b01610f72565b60808401613921565b565b61431090614286565b90565b6143389161432e61433392614326614243565b506003610e73565b610ebd565b614307565b90565b5f90565b906143499061073c565b5f5260205260405f2090565b9061435f90610eb1565b5f5260205260405f2090565b6143909161438661438b9261437e61433b565b50600c61433f565b614355565b610ef4565b90565b61439b616a6f565b6143a3615cd1565b6143b56143af836103df565b916103df565b036143c5576143c390616a59565b565b6143e0905f91829163118cdaa760e01b835260048301610b83565b0390fd5b6144036143fe614408926143f661273f565b5060046132c5565b6132db565b6163b1565b90565b614415905161049f565b90565b61442c6144276144319261255b565b610739565b61049f565b90565b61443e90516103a4565b90565b61445561445061445a926103a4565b610739565b610544565b90565b61447161446c6144769261049f565b610739565b610544565b90565b61448861448e91939293610544565b92610544565b820180921161449957565b612875565b909291926144aa6134ce565b506144b361273f565b506144bd8261624b565b936144da6144d56144d0600586906132c5565b6132db565b6163b1565b926144e76020870161440b565b6144f96144f35f614418565b9161049f565b1480156145eb575b80156145d0575b6145b6576145428661453c614537602061453061452b5f61459f9b9c9d01614434565b614441565b930161440b565b61445d565b90612889565b918061455d6145576145526111d8565b610544565b91610544565b115f146145b1575061456d6111d8565b5b614579848290614479565b61458b61458588610544565b91610544565b115f146145a25750845b9092909192616aa5565b91565b6145ac9084614479565b614595565b61456e565b50505091506145cc6145c75f612c53565b61350c565b9190565b50826145e46145de86610544565b91610544565b1015614508565b50836145ff6145f95f612c53565b91610544565b14614501565b61461690614611616363565b614618565b565b61462390600a61262b565b565b61462e90614605565b565b5f90565b61463c614630565b506146465f61254e565b90565b5090565b919081101561465d576020020190565b61076e565b3561466c816103eb565b90565b5f80fd5b60e01b90565b5f91031261468357565b61039c565b9160206146a99294936146a260408201965f830190610adb565b0190610b76565b565b6146b3610392565b3d5f823e3d90fd5b909291926146c85f612c53565b5b806146e66146e06146db858990614649565b610544565b91610544565b1015614795576146f5306137e2565b9063ba1fb1038461471061470b868a869161464d565b614662565b93803b15614790576147355f8094614740614729610392565b98899687958694614673565b845260048401614688565b03925af191821561478b5761475a9261475f575b50612c6f565b6146c9565b61477e905f3d8111614784575b61477681836108c7565b810190614679565b5f614754565b503d61476c565b6146ab565b61466f565b5050509050565b5f7f4e6f7420736c617368696e67206f7261636c6500000000000000000000000000910152565b6147d060136020926109c5565b6147d98161479c565b0190565b6147f29060208101905f8183039101526147c3565b90565b156147fc57565b614804610392565b62461bcd60e51b81528061481a600482016147dd565b0390fd5b5f7f4f70657261746f7220756e6b6e6f776e00000000000000000000000000000000910152565b61485260106020926109c5565b61485b8161481e565b0190565b6148749060208101905f818303910152614845565b90565b1561487e57565b614886610392565b62461bcd60e51b81528061489c6004820161485f565b0390fd5b90565b6148b76148b26148bc92610544565b610739565b6103a4565b90565b906148d267ffffffffffffffff91612608565b9181191691161790565b90565b906148f46148ef6148fb9261073c565b6148dc565b82546148bf565b9055565b9190614919816149128161491e956109c5565b80956115eb565b6108a9565b0190565b90916149399260208301925f8185039101526148ff565b90565b6149613361495b614955614950600a61254e565b6103df565b916103df565b146147f5565b61498761498261497b614976600585906132c5565b6132db565b8490616438565b614877565b6149b36149a86149a361499c60038590610e73565b8590610ebd565b6148a0565b600160039101613312565b6149d16149ca6149c5600484906132c5565b6132db565b8390616bc1565b506149f96149de426148a3565b6149f46149ed600c859061433f565b8590614355565b6148df565b909192614a2f614a297f1e2909cf45d70cf003f334b73c93330ce7e572782dfc82fab79deb8855a7c7919361073c565b93610eb1565b93614a44614a3b610392565b92839283614922565b0390a3565b614a53608061158a565b90565b614a619136916115f6565b90565b52565b90614a71906104b2565b9052565b5190565b90614a83816109c1565b9067ffffffffffffffff8211614b4357614aa782614aa185546107d4565b85612e60565b602090601f8311600114614adb57918091614aca935f92614acf575b5050612998565b90555b565b90915001515f80614ac3565b601f19831691614aea85610807565b925f5b818110614b2b57509160029391856001969410614b11575b50505002019055614acd565b614b21910151601f841690612983565b90555f8080614b05565b91936020600181928787015181550195019201614aed565b6108b3565b90614b5291614a79565b565b614b5e90516104b2565b90565b90614bbe60606003614bc494614b845f8201614b7e5f8801614a75565b90614b48565b614b9d60018201614b9760208801613a14565b90612fa9565b614bb660028201614bb060408801613a14565b90612fa9565b019201614b54565b90612ffb565b565b9190614bd757614bd591614b61565b565b612b34565b9081549168010000000000000000831015614c0c5782614c04916001614c0a95018155612e34565b90614bc6565b565b6108b3565b614d2f95614d188496614d0f614d07614cf3614cee614d2197614c94614c74614c6e614d2a9d8d9f9d614c6933614c63614c5d614c58614c5360078c90611270565b61254e565b6103df565b916103df565b146127c6565b612d0c565b90612d0f565b614c8d614c87614c826117ef565b610544565b91610544565b1115612d6c565b614cb186614caa614ca48d610544565b91610544565b1015612dfb565b614ce7614cc8614cc360088490610758565b610782565b614ce1614cdb614cd661143b565b610544565b91610544565b1061284c565b6008610758565b612e24565b989996929496614d01614a49565b9a614a56565b5f8a01614a64565b6020880161424e565b6040860161424e565b60608401614a67565b614bdc565b565b614d5f90614d5a614d55614d4e614d498460066132c5565b6132db565b3390616438565b61370b565b614e40565b565b5f7f43616e6e6f7420676f206f6e6c696e65207768696c6520736c61736865640000910152565b614d95601e6020926109c5565b614d9e81614d61565b0190565b614db79060208101905f818303910152614d88565b90565b60401b90565b90614dd468ff000000000000000091614dba565b9181191691161790565b614df2614ded614df79261049f565b610739565b61049f565b90565b90565b90614e12614e0d614e1992614dde565b614dfa565b8254614dc0565b9055565b916020614e3e929493614e3760408201965f83019061101c565b019061101c565b565b614e5e614e59614e5260038490610e73565b3390610ebd565b6148a0565b90614e6b60018301610f4e565b9182614e80614e7a6003611004565b91611004565b14614fa45782614e98614e925f611004565b91611004565b148015614f89575b614f8457614ec790614eb56001808301613312565b6001614ec05f614418565b9101614dfd565b614ee5614ede614ed9600484906132c5565b6132db565b3390616329565b508033614f1b614f157fc9862c5f02eefbdcea01c207ae538e1d304dc93026870f48951e48a0f4c8470c9361073c565b91610eb1565b91614f24610392565b80614f2e8161043b565b0390a3903390916001614f6a614f647f228824b86c256469125f525ce18c6c2d0a9e133d13b8ec7a2c96a193b0c28a099361073c565b93610eb1565b93614f7f614f76610392565b92839283614e1d565b0390a3565b505050565b5082614f9e614f986001611004565b91611004565b14614ea0565b614fac610392565b62461bcd60e51b815280614fc260048201614da2565b0390fd5b614fcf90614d31565b565b5f7f4e6f7420617574686f72697a6564000000000000000000000000000000000000910152565b615005600e6020926109c5565b61500e81614fd1565b0190565b6150279060208101905f818303910152614ff8565b90565b1561503157565b615039610392565b62461bcd60e51b81528061504f60048201615012565b0390fd5b90565b61506a61506561506f92615053565b610739565b6103a4565b90565b5f7f496e74657276616c20746f6f2073686f72740000000000000000000000000000910152565b6150a660126020926109c5565b6150af81615072565b0190565b6150c89060208101905f818303910152615099565b90565b156150d257565b6150da610392565b62461bcd60e51b8152806150f0600482016150b3565b0390fd5b90565b61510b615106615110926150f4565b610739565b61049f565b90565b5f7f4d6178206d6973736564206d757374206265203e3d2031000000000000000000910152565b61514760176020926109c5565b61515081615113565b0190565b6151699060208101905f81830391015261513a565b90565b1561517357565b61517b610392565b62461bcd60e51b81528061519160048201615154565b0390fd5b61519f606061158a565b90565b906151b76151b26151be92612fec565b612ff8565b82546132e4565b9055565b9061520460405f61520a946151e48282016151de848801614434565b906148df565b6151fc8282016151f66020880161440b565b90614dfd565b019201614b54565b906151a2565b565b90615216916151c2565b565b91602061523992949361523260408201965f830190610adb565b0190610fd4565b565b3361526e6152687f00000000000000000000000000000000000000000000000000000000000000006103df565b916103df565b14801561535a575b61527f9061502a565b61529d82615296615290603c615056565b916103a4565b10156150cb565b6152bb836152b46152ae60016150f7565b9161049f565b101561516c565b61531482615303856152fa6152dc5f6152d660028990612218565b01612242565b916152f16152e8615195565b955f870161425c565b6020850161426a565b60408301614a67565b61530f60028490612218565b61520c565b90916153407fc9599ed962624a858ec59bae0ed86c75f4db65fe04570021277edbedd04ea5649261073c565b9261535561534c610392565b92839283615218565b0390a2565b5061527f3361538461537e61537961537460078790611270565b61254e565b6103df565b916103df565b149050615276565b61539b6153a191939293610544565b92610544565b82039182116153ac57565b612875565b634e487b7160e01b5f52601260045260245ffd5b6153d16153d791610544565b91610544565b9081156153e2570490565b6153b1565b6153fb6153f661540092610544565b610739565b61049f565b90565b61541761541261541c9261255b565b610739565b6103a4565b90565b61543d61543861543160038490610e73565b8490610ebd565b6148a0565b906154478161624b565b61545360018401610f4e565b6154666154606003611004565b91611004565b1461567a576154765f840161092e565b6154886154825f612c53565b91610544565b14615674576154be6154a54261549f5f870161092e565b9061538c565b6154b86154b35f8501614434565b614441565b906153c5565b806154d26154cc60ff61445d565b91610544565b115f14615666575060ff5b90816154fc6154f66154f160018801610f21565b61049f565b9161049f565b11615509575b5050505050565b6155168260018601614dfd565b61552b6155225f615403565b600186016148df565b61554961554361553e602085940161440b565b61049f565b9161049f565b10158061563f575b61555c575b80615502565b61557761556b60018501610f4e565b93600160029101613312565b61559561558e615589600485906132c5565b6132db565b8590616bc1565b5081908490916155e36155d16155cb7f44fd32b677704ce68e7763897c49733b8f5289018ac60a5c926802d63759db4d9361073c565b93610eb1565b936155da610392565b918291826114f5565b0390a3919091600261561e6156187f228824b86c256469125f525ce18c6c2d0a9e133d13b8ec7a2c96a193b0c28a099361073c565b93610eb1565b9361563361562a610392565b92839283614e1d565b0390a35f808080615556565b5061564c60018401610f4e565b61565f6156596002611004565b91611004565b1415615551565b61566f906153e7565b6154dd565b50505050565b50505050565b606090565b67ffffffffffffffff811161569d5760208091020190565b6108b3565b906156b46156af83615685565b61158a565b918252565b6156c3608061158a565b90565b9061572d61572460036156d76156b9565b946156ee6156e65f83016108f0565b5f8801614a64565b6157066156fd6001830161092e565b6020880161424e565b61571e6157156002830161092e565b6040880161424e565b01610955565b60608401614a67565b565b615738906156c6565b90565b9061574582610782565b61574e816156a2565b9261575c6020850191610786565b5f915b83831061576c5750505050565b6004602060019261577c8561572f565b81520192019201919061575f565b6157939061573b565b90565b6157ad6157b2916157a5615680565b506008610758565b61578a565b90565b6157e3906157de6157d96157d26157cd8460066132c5565b6132db565b3390616438565b61370b565b61583e565b565b5f7f43616e6e6f7420676f206f66666c696e65207768696c6520736c617368656400910152565b615819601f6020926109c5565b615822816157e5565b0190565b61583b9060208101905f81830391015261580c565b90565b61585c61585761585060038490610e73565b3390610ebd565b6148a0565b9061586960018301610f4e565b918261587e6158786003611004565b91611004565b146159045761589290600160049101613312565b6158b06158a96158a4600484906132c5565b6132db565b3390616bc1565b509033909160046158ea6158e47f228824b86c256469125f525ce18c6c2d0a9e133d13b8ec7a2c96a193b0c28a099361073c565b93610eb1565b936158ff6158f6610392565b92839283614e1d565b0390a3565b61590c610392565b62461bcd60e51b81528061592260048201615826565b0390fd5b61592f906157b5565b565b9061596596959493929161596061595b61595461594f8460066132c5565b6132db565b3390616438565b61370b565b615b66565b565b60c01b90565b61597690615967565b90565b61598561598a916103a4565b61596d565b9052565b60f81b90565b61599d9061598e565b90565b6159ac6159b19161049f565b615994565b9052565b905090565b9091826159ca816159d1936159b5565b80936115eb565b0190565b60086001936159f982846159f1615a0196615a089c9a98615979565b018092615979565b0180926159a0565b01916159ba565b90565b5f7f19457468657265756d205369676e6564204d6573736167653a0a333200000000910152565b615a3e601c8092611c01565b615a4781615a0b565b0190565b90565b615a5a615a5f91610dac565b615a4b565b9052565b90615a79615a72602093615a32565b8092615a4e565b0190565b67ffffffffffffffff8111615a9b57615a976020916108a9565b0190565b6108b3565b90929192615ab5615ab082615a7d565b61158a565b93818552602085019082840111615ad157615acf926115eb565b565b6115c4565b615ae1913691615aa0565b90565b5f7f496e76616c6964207369676e6174757265000000000000000000000000000000910152565b615b1860116020926109c5565b615b2181615ae4565b0190565b615b3a9060208101905f818303910152615b0b565b90565b15615b4457565b615b4c610392565b62461bcd60e51b815280615b6260048201615b25565b0390fd5b9094615c04615c1c91615bfe615c2799615bd6615be588615baf8d615ba08d8f8d9395919091615b94610392565b968795602087016159d5565b602082018103825203826108c7565b615bc1615bbb826138f9565b916138f3565b20615bca610392565b92839160208301615a63565b602082018103825203826108c7565b615bf7615bf1826138f9565b916138f3565b2092615ad6565b90616bfb565b615c16615c10336103df565b916103df565b14615b3d565b9333919293946165e7565b565b90615c38969594939291615931565b565b909182615c4a81615c5193611c01565b80936115eb565b0190565b615c669060209493615c6d93615c3a565b8092611c32565b0190565b9091615c8890615c7f610392565b93849384615c55565b03902090565b9091615c9992615c71565b90565b92615cc1615cc99392615cbc615cce96615cb461273f565b506009611bd5565b611beb565b919091615c8e565b61092e565b90565b615cd9614630565b50615ce4600161254e565b90565b615cf19051611004565b90565b90565b615d0b615d06615d1092615cf4565b610739565b610544565b90565b60207f6c00000000000000000000000000000000000000000000000000000000000000917f4f70657261746f72206e6f7420656c696769626c6520666f722072656d6f76615f8201520152565b615d6d60216040926109c5565b615d7681615d13565b0190565b615d8f9060208101905f818303910152615d60565b90565b15615d9957565b615da1610392565b62461bcd60e51b815280615db760048201615d7a565b0390fd5b90615e6c615e67615e719333615dec615de6615de1615ddc60078690611270565b61254e565b6103df565b916103df565b148015615f2a575b615dfd9061502a565b615e1b615e16615e0f60038490610e73565b8690610ebd565b614307565b615e2760608201615ce7565b615e3a615e346003611004565b91611004565b03615e74575b50615e5f615e58615e53600584906132c5565b6132db565b8590616bc1565b5060046132c5565b6132db565b616bc1565b50565b615ef090615ec4615eb4615e878561624b565b615eae615ea96020615ea2615e9d5f8601614434565b614441565b930161440b565b61445d565b90612889565b615ebe600a615cf7565b90612889565b615ecf5f8301613a14565b615ee1615edb5f612c53565b91610544565b119182615ef6575b5050615d92565b5f615e40565b615f21919250615f15615f1b91615f0f5f429201613a14565b9061538c565b92610544565b91610544565b10155f80615ee9565b50615dfd33615f48615f42615f3d614634565b6103df565b916103df565b149050615df4565b90615f7a615f7f91615f606135fd565b50615f75615f6d8561624b565b946003610e73565b610ebd565b614307565b615f8a5f8201613a14565b615f9c615f965f612c53565b91610544565b14615fd757615fcd615fc85f615fc1615fd394615fbb83429201613a14565b9061538c565b9401614434565b614441565b91610544565b1090565b50505f90565b615fee90615fe9616363565b615ff0565b565b615ffb81600161262b565b616003614634565b906160376160317f38d16b8cac22d99fc7c124b9cd0de2d3fa1faef420bfe791d8c362d765e2270093610eb1565b91610eb1565b91616040610392565b8061604a8161043b565b0390a3565b61605890615fdd565b565b5f61609961609f936160913361608b61608561608061607b60078a90611270565b61254e565b6103df565b916103df565b146127c6565b926002612218565b016151a2565b565b5f7f4e6f742072656769737465726564000000000000000000000000000000000000910152565b6160d5600e6020926109c5565b6160de816160a1565b0190565b6160f79060208101905f8183039101526160c8565b90565b1561610157565b616109610392565b62461bcd60e51b81528061611f600482016160e2565b0390fd5b61615f336161596161537f00000000000000000000000000000000000000000000000000000000000000006103df565b916103df565b14612511565b616185616180616179616174600685906132c5565b6132db565b8490616bc1565b6160fa565b6161a361619c616197600484906132c5565b6132db565b8390616bc1565b50906161d86161d27f08bb93e5444209b15155078a13f6e341299d748d0c299f722c9cbc0723f0fe9e9361073c565b91610eb1565b916161e1610392565b806161eb8161043b565b0390a3565b9061623d6162345f6162006126d4565b9461621761620f838301610ef4565b83880161425c565b61622e616225838301610f21565b6020880161426a565b01612242565b60408401614a67565b565b616248906161f0565b90565b6162626162679161625a61271f565b506002612218565b61623f565b6162725f8201614434565b61628461627e5f615403565b916103a4565b146162ca575b6162966020820161440b565b6162a86162a25f614418565b9161049f565b146162b1575b90565b6162c56162bc6114dd565b6020830161426a565b6162ae565b6162dd6162d5610ac2565b5f830161425c565b61628a565b6162eb90610e89565b90565b6163026162fd616307926103d4565b610739565b610544565b90565b61631e61631961632392610544565b612608565b610dac565b90565b90565b9061635b61635561635061634b5f616360966163436135fd565b5001946162e2565b6162ee565b61630a565b91616326565b616cc6565b90565b61636b614634565b61638461637e616379616a6f565b6103df565b916103df565b0361638b57565b6163ad616396616a6f565b5f91829163118cdaa760e01b835260048301610b83565b0390fd5b6163c85f6163cd926163c161273f565b5001616326565b616d29565b90565b6163dc6163e191610912565b61290f565b90565b6163f86163f36163fd92610544565b610739565b6103d4565b90565b61642b616426616435936164215f6164309561641a614630565b5001616326565b616d9b565b6163d0565b6163e4565b610ea5565b90565b9061646a61646461645f61645a5f61646f966164526135fd565b5001946162e2565b6162ee565b61630a565b91616326565b616dbc565b90565b5f7f4f70657261746f7220697320736c617368656400000000000000000000000000910152565b6164a660136020926109c5565b6164af81616472565b0190565b6164c89060208101905f818303910152616499565b90565b156164d257565b6164da610392565b62461bcd60e51b8152806164f0600482016164b3565b0390fd5b6164fd90610dac565b90565b61650990610912565b90565b9061652161651c616528926164f4565b616500565b8254612f93565b9055565b616535906103a4565b67ffffffffffffffff811461654a5760010190565b612875565b90565b61656661656161656b9261654f565b610739565b61049f565b90565b91602061658f92949361658860408201965f830190610fd4565b0190610547565b565b61659a90610e89565b90565b6165a690616591565b90565b6165b290610ea5565b90565b6040906165de6165e594969593966165d460608401985f850190610b76565b6020830190610adb565b0190610adb565b565b949293919361660a6166056165fe60038990610e73565b8790610ebd565b6148a0565b936166148761624b565b9361663e61662460018801610f4e565b6166376166316003611004565b91611004565b14156164cb565b61665c61665561665060058b906132c5565b6132db565b8890616329565b50616731604061666e60018901610f4e565b9661667b425f8b01612fa9565b6166a5616689858790615ad6565b61669b616695826138f9565b916138f3565b2060028b0161650c565b6166ba6166b15f614418565b60018b01614dfd565b6166d860018a016166d26166cd82610ef4565b61652c565b906148df565b6166e06137b3565b50856166f46166ee5f614418565b9161049f565b145f146169b55761670b5f995b60018b9101613312565b8761671f6167196002611004565b91611004565b1480616999575b61692b575b01614b54565b80616907575b6168f1575b505085918591924261678061677a6167747f658918e3147f13dd068ec21437b4c25c21682a8dc2129348671ead000db3e7b99461073c565b9461073c565b94610eb1565b9461679561678c610392565b9283928361656e565b0390a4806167ab6167a584611004565b91611004565b0361689b575b50506167bd600b61254e565b6167d76167d16167cc5f61257a565b6103df565b916103df565b036167e1575b5050565b6167fb6167f66167f1600b61254e565b61659d565b6165a9565b9163d47853b691909261680d426148a3565b92813b15616896575f6168339161683e8296616827610392565b98899788968795614673565b8552600485016165b5565b03925af1908161686a575b50155f14616865576001616860575b5b5f806167dd565b616858565b616859565b616889905f3d811161688f575b61688181836108c7565b810190614679565b5f616849565b503d616877565b61466f565b838391926168d26168cc7f228824b86c256469125f525ce18c6c2d0a9e133d13b8ec7a2c96a193b0c28a099361073c565b93610eb1565b936168e76168de610392565b92839283614e1d565b0390a35f806167b1565b616900918891889091926171dd565b5f8061673c565b50616913818390612d0f565b61692561691f5f612c53565b91610544565b11616737565b61694861694161693c8d60046132c5565b6132db565b8b90616329565b508a8a61697e6169787fc9862c5f02eefbdcea01c207ae538e1d304dc93026870f48951e48a0f4c8470c9361073c565b91610eb1565b91616987610392565b806169918161043b565b0390a361672b565b50886169ae6169a86002611004565b91611004565b1415616726565b856169c96169c36064616552565b9161049f565b105f146169dc5761670b6001995b616701565b61670b6001996169f48d8d8b908b908a928c94616e91565b6169d7565b91906008616a19910291616a1360018060a01b03846128e6565b926128e6565b9181191691161790565b9190616a39616a34616a4193610eb1565b612628565b9083546169f9565b9055565b616a5791616a51614630565b91616a23565b565b616a6d90616a685f6001616a45565b61739b565b565b616a77614630565b503390565b616a8590610544565b5f198114616a935760010190565b612875565b616aa290516103df565b90565b93919293616ab16134ce565b50616ac5616ac085849061538c565b61350c565b92616acf5f612c53565b925b80616ae4616ade88610544565b91610544565b1015616b5257616b08616b01616afc600586906132c5565b6132db565b8290616400565b616b1484828a916173fa565b616b28575b50616b2390612c6f565b616ad1565b616b239194616b46616b4b92616b418991849092613533565b613553565b616a7c565b9390616b19565b509450509150616b618261350c565b92616b6b5f612c53565b5b80616b7f616b7986610544565b91610544565b1015616bbb57616bb690616bb1616b9f616b9a868490613533565b616a98565b616bac8891849092613533565b613553565b612c6f565b616b6c565b50915050565b90616bf3616bed616be8616be35f616bf896616bdb6135fd565b5001946162e2565b6162ee565b61630a565b91616326565b617546565b90565b616c1a91616c1191616c0b614630565b50617673565b90929192617733565b90565b90565b5f5260205f2090565b5490565b616c3681616c29565b821015616c5057616c48600191616c20565b910201905f90565b61076e565b9190616c6b616c66616c73936164f4565b616500565b9083546128ea565b9055565b9081549168010000000000000000831015616ca75782616c9f916001616ca595018155616c2d565b90616c55565b565b6108b3565b5490565b90616cba906164f4565b5f5260205260405f2090565b616cce6135fd565b50616ce3616cdd828490616dbc565b156104b2565b5f14616d2357616d19616d1e92616d05616cfe5f8501616c1d565b8290616c77565b6001616d125f8501616cac565b9301616cb0565b612fa9565b600190565b50505f90565b5f616d3d91616d3661273f565b5001616cac565b90565b5f90565b5f5260205f2090565b616d5681616cac565b821015616d7057616d68600191616d44565b910201905f90565b61076e565b616d85906008616d8a9302610b32565b610f5b565b90565b90616d989154616d75565b90565b616db9915f616db392616dac616d40565b5001616d4d565b90616d8d565b90565b616dda916001616dd592616dce6135fd565b5001616cb0565b61092e565b616dec616de65f612c53565b91610544565b141590565b616e05616e00616e0a926111b9565b610739565b61049f565b90565b616e19616e1f916103a4565b916103a4565b90039067ffffffffffffffff8211616e3357565b612875565b5f7f50726f746f636f6c2076696f6c6174696f6e207265706f727465640000000000910152565b616e6c601b6020926109c5565b616e7581616e38565b0190565b616e8e9060208101905f818303910152616e5f565b90565b9350509250616ea9616ea360c8616df1565b9161049f565b1015616eb4575b5050565b616ebd426148a3565b616edb616ed6616ecf600c859061433f565b8590614355565b610ef4565b80616eee616ee85f615403565b916103a4565b14908115616f74575b50616f03575b50616eb0565b616f2290616f1d616f16600c859061433f565b8590614355565b6148df565b90616f56616f507f1e2909cf45d70cf003f334b73c93330ce7e572782dfc82fab79deb8855a7c7919361073c565b91610eb1565b91616f5f610392565b80616f6981616e79565b0390a35f8080616efd565b616f7f915082616e0d565b616f98616f92616f8d610e25565b6103a4565b916103a4565b10155f616ef7565b90565b616fb7616fb2616fbc92616fa0565b610739565b610544565b90565b90929192616fd4616fcf826115c8565b61158a565b93818552602085019082840111616ff057616fee926109ce565b565b6115c4565b9080601f830112156170135781602061701093519101616fbf565b90565b61059f565b90505190617025826106e9565b565b91909160408184031261707a5761703e604061158a565b925f8201519167ffffffffffffffff8311617075576170628261706e948301616ff5565b5f860152602001617018565b6020830152565b6115c0565b6115bc565b92919061709361708e8261159f565b61158a565b93818552602080860192028101918383116170ea5781905b8382106170b9575050505050565b815167ffffffffffffffff81116170e5576020916170da8784938701617027565b8152019101906170ab565b61059f565b6105a7565b9080601f8301121561710d5781602061710a9351910161707f565b90565b61059f565b90602082820312617142575f82015167ffffffffffffffff811161713d5761713a92016170ef565b90565b6103a0565b61039c565b60209181520190565b919061716a816171638161716f95617147565b80956115eb565b6108a9565b0190565b909161718a9260208301925f818503910152617150565b90565b617197603261141f565b90565b9493916060916171db946171c66171d3936171bc60808b01945f8c0190610adb565b60208a0190610b76565b8782036040890152610cd3565b940190610547565b565b916171e9818590612d0f565b6171fb6171f55f612c53565b91610544565b146173955761720b818590612d0f565b61721f61721961c350616fa3565b91610544565b1161738f575f61722d613453565b94617237306137e2565b6172596331e3bd1b94929461726461724d610392565b96879586948594614673565b845260048401617173565b03915afa80915f9261736b575b50155f146173625750600161735d575b61728a83610c42565b6172a361729d61729861718d565b610544565b91610544565b115f1461734f576172b261718d565b5b6172bc306137e2565b906365a6936e93929490823b1561734a575f946172f786926172ec946172e0610392565b998a9889978896614673565b86526004860161719a565b03925af1908161731e575b50155f14617319576001617314575b5b565b617311565b617312565b61733d905f3d8111617343575b61733581836108c7565b810190614679565b5f617302565b503d61732b565b61466f565b61735883610c42565b6172b3565b505050565b90925091617281565b6173889192503d805f833e61738081836108c7565b810190617112565b905f617271565b50505050565b50505050565b6173a45f61254e565b6173ae825f61262b565b906173e26173dc7f8be0079c531659141344cd1fd0a4f28419497f9722a3daafe3b4186f6b6457e093610eb1565b91610eb1565b916173eb610392565b806173f58161043b565b0390a3565b6174026135fd565b5061742a61742461741d617418600685906132c5565b6132db565b8490616438565b156104b2565b6174cc5761744a91617440617445926003610e73565b610ebd565b614307565b6174555f8201613a14565b6174676174615f612c53565b91610544565b1480156174a6575b6174a05761749561748f61749b926174895f429201613a14565b9061538c565b92610544565b91610544565b101590565b50505f90565b506174b360608201615ce7565b6174c66174c06003611004565b91611004565b1461746f565b5050505f90565b6174e76174e26174ec926150f4565b610739565b610544565b90565b634e487b7160e01b5f52603160045260245ffd5b6175159161750f616d40565b91616c55565b565b61752081616c29565b801561754157600190039061753e6175388383616c2d565b90617503565b55565b6174ef565b61754e6135fd565b50617565617560600183018490616cb0565b61092e565b90816175796175735f612c53565b91610544565b14155f14617645576175f79260016175f292846175a05f9661759a856174d3565b9061538c565b6175bd6175ae888501616cac565b6175b7866174d3565b9061538c565b816175d06175ca83610544565b91610544565b036175fc575b5050506175ec6175e7868301616c1d565b617517565b01616cb0565b612950565b600190565b61763d9261762f61761b617615617638948c8901616d4d565b90616d8d565b9361762985918c8901616d4d565b90616c55565b91858501616cb0565b612fa9565b5f80806175d6565b5050505f90565b5f90565b90565b61766761766261766c92617650565b610739565b610544565b90565b5f90565b91909161767e614630565b5061768761764c565b50617690616d40565b5061769a836138f9565b6176ad6176a76041617653565b91610544565b145f146176f4576176ed91926176c1616d40565b506176ca616d40565b506176d361766f565b506020810151606060408301519201515f1a90919261787d565b9192909190565b506176fe5f61257a565b9061771261770d6002946138f9565b61630a565b91929190565b6004111561772257565b610fe1565b9061773182617718565b565b806177466177405f617727565b91617727565b145f14617751575050565b8061776561775f6001617727565b91617727565b145f14617788575f63f645eedf60e01b8152806177846004820161043b565b0390fd5b8061779c6177966002617727565b91617727565b145f146177ca576177c66177af836163d0565b5f91829163fce698f760e01b835260048301610554565b0390fd5b6177dd6177d76003617727565b91617727565b146177e55750565b617800905f9182916335e2f38360e21b835260048301610dbc565b0390fd5b90565b61781b61781661782092617804565b610739565b610544565b90565b61785861785f9461784e606094989795617844608086019a5f870190610daf565b6020850190610fd4565b6040830190610daf565b0190610daf565b565b61787561787061787a9261255b565b612608565b610dac565b90565b939293617888614630565b5061789161764c565b5061789a616d40565b506178a4856163d0565b6178d66178d07f7fffffffffffffffffffffffffffffff5d576e7357a4501ddfe92f46681b20a0617807565b91610544565b1161796357906178f9602094955f949392936178f0610392565b94859485617823565b838052039060015afa1561795e576179115f51612608565b8061792c6179266179215f61257a565b6103df565b916103df565b14617942575f9161793c5f617861565b91929190565b5061794c5f61257a565b6001916179585f617861565b91929190565b6146ab565b50505061796f5f61257a565b906003929192919056fea164736f6c634300081a000a","linkReferences":{}},"methodIdentifiers":{"DEFAULT_HEARTBEAT_INTERVAL()":"2c957688","DEFAULT_MAX_MISSED_HEARTBEATS()":"61d6b86c","DOMAIN_SEPARATOR()":"3644e515","HEARTBEAT_TYPEHASH()":"f9f16762","MAX_METRIC_DEFINITIONS()":"6076439c","MAX_METRIC_NAME_LENGTH()":"6bfe06a6","MAX_PAGE_SIZE()":"48f4da20","SLASH_ALERT_COOLDOWN()":"3ac3cbe6","acceptOwnership()":"79ba5097","addMetricDefinition(uint64,string,uint256,uint256,bool)":"ae470a85","checkOperatorStatus(uint64,address)":"ba1fb103","checkOperatorsStatus(uint64,address[])":"96686c1e","configureHeartbeat(uint64,uint64,uint8)":"b99f6759","decodeMetricPairs(bytes)":"31e3bd1b","deregisterOperator(uint64,address)":"ffcf08f0","enableCustomMetrics(uint64,bool)":"f9107f3b","getAllOperatorCount(uint64)":"3fd62c6d","getHeartbeatConfig(uint64)":"0758236f","getLastCriticalHeartbeat(uint64,address)":"7639d227","getLastHeartbeat(uint64,address)":"0c76697a","getMetricDefinitions(uint64)":"c1ef9ddf","getMetricValue(uint64,address,string)":"d551162c","getOnlineOperatorCount(uint64)":"7b9f64b2","getOnlineOperators(uint64)":"40235a9c","getOperatorState(uint64,address)":"71e7388c","getOperatorStatus(uint64,address)":"62c7e8fc","getSlashableOperators(uint64)":"59dcea12","getSlashableOperatorsPaginated(uint64,uint256,uint256)":"81beac2e","goOffline(uint64)":"c5d960bb","goOnline(uint64)":"b074e9dd","heartbeatConfigs(uint64)":"da435a7c","isHeartbeatCurrent(uint64,address)":"ee1c0390","isOnline(uint64,address)":"5685cf68","isRegisteredOperator(uint64,address)":"60cf0991","metricValues(uint64,address,string)":"9cbdae22","metricsRecorder()":"2dae1885","operatorStates(uint64,address)":"3e6e34a7","owner()":"8da5cb5b","pendingOwner()":"e30c3978","registerOperator(uint64,address)":"1e8f5ee5","registerServiceOwner(uint64,address)":"05778550","removeInactiveOperator(uint64,address)":"e65cafcb","renounceOwnership()":"715018a6","reportForSlashing(uint64,address,string)":"adff830c","serviceMetrics(uint64,uint256)":"22f1ec93","serviceOwners(uint64)":"56c4e17d","setMetricDefinitions(uint64,(string,uint256,uint256,bool)[])":"191cbd1a","setMetricsRecorder(address)":"20812956","setSlashingOracle(address)":"84ef7322","slashingOracle()":"cfe34749","submitHeartbeat(uint64,uint64,uint8,bytes,bytes)":"d413a580","submitHeartbeatDirect(uint64,uint64,uint8,bytes)":"5cce98a6","tangleCore()":"5a936dc6","transferOwnership(address)":"f2fde38b","validateAndStoreMetrics(uint64,address,(string,uint256)[],uint256)":"65a6936e"},"id":187}